{
  "_format": "hh-sol-artifact-1",
  "contractName": "MockV3Aggregator",
  "sourceName": "contracts/MockV3Aggregator.sol",
  "abi": [
    {
      "inputs": [
        {
          "internalType": "uint8",
          "name": "_decimals",
          "type": "uint8"
        },
        {
          "internalType": "int256",
          "name": "_initialPrice",
          "type": "int256"
        }
      ],
      "stateMutability": "nonpayable",
      "type": "constructor"
    },
    {
      "inputs": [
        {
          "internalType": "address",
          "name": "owner",
          "type": "address"
        }
      ],
      "name": "OwnableInvalidOwner",
      "type": "error"
    },
    {
      "inputs": [
        {
          "internalType": "address",
          "name": "account",
          "type": "address"
        }
      ],
      "name": "OwnableUnauthorizedAccount",
      "type": "error"
    },
    {
      "anonymous": false,
      "inputs": [
        {
          "indexed": true,
          "internalType": "address",
          "name": "previousOwner",
          "type": "address"
        },
        {
          "indexed": true,
          "internalType": "address",
          "name": "newOwner",
          "type": "address"
        }
      ],
      "name": "OwnershipTransferred",
      "type": "event"
    },
    {
      "inputs": [],
      "name": "decimals",
      "outputs": [
        {
          "internalType": "uint8",
          "name": "",
          "type": "uint8"
        }
      ],
      "stateMutability": "view",
      "type": "function"
    },
    {
      "inputs": [],
      "name": "deployed",
      "outputs": [
        {
          "internalType": "bool",
          "name": "",
          "type": "bool"
        }
      ],
      "stateMutability": "pure",
      "type": "function"
    },
    {
      "inputs": [],
      "name": "description",
      "outputs": [
        {
          "internalType": "string",
          "name": "",
          "type": "string"
        }
      ],
      "stateMutability": "pure",
      "type": "function"
    },
    {
      "inputs": [
        {
          "internalType": "uint80",
          "name": "_roundId",
          "type": "uint80"
        }
      ],
      "name": "getRoundData",
      "outputs": [
        {
          "internalType": "uint80",
          "name": "roundId",
          "type": "uint80"
        },
        {
          "internalType": "int256",
          "name": "answer",
          "type": "int256"
        },
        {
          "internalType": "uint256",
          "name": "startedAt",
          "type": "uint256"
        },
        {
          "internalType": "uint256",
          "name": "updatedAt",
          "type": "uint256"
        },
        {
          "internalType": "uint80",
          "name": "answeredInRound",
          "type": "uint80"
        }
      ],
      "stateMutability": "view",
      "type": "function"
    },
    {
      "inputs": [],
      "name": "latestRoundData",
      "outputs": [
        {
          "internalType": "uint80",
          "name": "roundId",
          "type": "uint80"
        },
        {
          "internalType": "int256",
          "name": "answer",
          "type": "int256"
        },
        {
          "internalType": "uint256",
          "name": "startedAt",
          "type": "uint256"
        },
        {
          "internalType": "uint256",
          "name": "updatedAt",
          "type": "uint256"
        },
        {
          "internalType": "uint80",
          "name": "answeredInRound",
          "type": "uint80"
        }
      ],
      "stateMutability": "view",
      "type": "function"
    },
    {
      "inputs": [],
      "name": "owner",
      "outputs": [
        {
          "internalType": "address",
          "name": "",
          "type": "address"
        }
      ],
      "stateMutability": "view",
      "type": "function"
    },
    {
      "inputs": [],
      "name": "renounceOwnership",
      "outputs": [],
      "stateMutability": "nonpayable",
      "type": "function"
    },
    {
      "inputs": [
        {
          "internalType": "int256",
          "name": "_price",
          "type": "int256"
        }
      ],
      "name": "setPrice",
      "outputs": [],
      "stateMutability": "nonpayable",
      "type": "function"
    },
    {
      "inputs": [
        {
          "internalType": "address",
          "name": "newOwner",
          "type": "address"
        }
      ],
      "name": "transferOwnership",
      "outputs": [],
      "stateMutability": "nonpayable",
      "type": "function"
    },
    {
      "inputs": [],
      "name": "version",
      "outputs": [
        {
          "internalType": "uint256",
          "name": "",
          "type": "uint256"
        }
      ],
      "stateMutability": "pure",
      "type": "function"
    }
  ],
  "bytecode": "0x608060405234801561000f575f5ffd5b50604051610b32380380610b3283398181016040528101906100319190610208565b335f73ffffffffffffffffffffffffffffffffffffffff168173ffffffffffffffffffffffffffffffffffffffff16036100a2575f6040517f1e4fbdf70000000000000000000000000000000000000000000000000000000081526004016100999190610285565b60405180910390fd5b6100b1816100da60201b60201c565b508160025f6101000a81548160ff021916908360ff16021790555080600181905550505061029e565b5f5f5f9054906101000a900473ffffffffffffffffffffffffffffffffffffffff169050815f5f6101000a81548173ffffffffffffffffffffffffffffffffffffffff021916908373ffffffffffffffffffffffffffffffffffffffff1602179055508173ffffffffffffffffffffffffffffffffffffffff168173ffffffffffffffffffffffffffffffffffffffff167f8be0079c531659141344cd1fd0a4f28419497f9722a3daafe3b4186f6b6457e060405160405180910390a35050565b5f5ffd5b5f60ff82169050919050565b6101b48161019f565b81146101be575f5ffd5b50565b5f815190506101cf816101ab565b92915050565b5f819050919050565b6101e7816101d5565b81146101f1575f5ffd5b50565b5f81519050610202816101de565b92915050565b5f5f6040838503121561021e5761021d61019b565b5b5f61022b858286016101c1565b925050602061023c858286016101f4565b9150509250929050565b5f73ffffffffffffffffffffffffffffffffffffffff82169050919050565b5f61026f82610246565b9050919050565b61027f81610265565b82525050565b5f6020820190506102985f830184610276565b92915050565b610887806102ab5f395ff3fe608060405234801561000f575f5ffd5b506004361061009c575f3560e01c80639a6fc8f5116100645780639a6fc8f514610122578063f2fde38b14610156578063f7a3080614610172578063f905c15a1461018e578063feaf968c146101ac5761009c565b8063313ce567146100a057806354fd4d50146100be578063715018a6146100dc5780637284e416146100e65780638da5cb5b14610104575b5f5ffd5b6100a86101ce565b6040516100b591906104f4565b60405180910390f35b6100c66101e3565b6040516100d39190610525565b60405180910390f35b6100e46101eb565b005b6100ee6101fe565b6040516100fb91906105ae565b60405180910390f35b61010c61023b565b604051610119919061060d565b60405180910390f35b61013c60048036038101906101379190610669565b610262565b60405161014d9594939291906106bb565b60405180910390f35b610170600480360381019061016b9190610736565b6102cf565b005b61018c6004803603810190610187919061078b565b610353565b005b610196610365565b6040516101a391906107d0565b60405180910390f35b6101b461036d565b6040516101c59594939291906106bb565b60405180910390f35b5f60025f9054906101000a900460ff16905090565b5f6001905090565b6101f361038a565b6101fc5f610411565b565b60606040518060400160405280601281526020017f4d6f636b2056332041676772656761746f720000000000000000000000000000815250905090565b5f5f5f9054906101000a900473ffffffffffffffffffffffffffffffffffffffff16905090565b5f5f5f5f5f5f8669ffffffffffffffffffff16146102b5576040517f08c379a00000000000000000000000000000000000000000000000000000000081526004016102ac90610833565b60405180910390fd5b5f60015442425f9450945094509450945091939590929450565b6102d761038a565b5f73ffffffffffffffffffffffffffffffffffffffff168173ffffffffffffffffffffffffffffffffffffffff1603610347575f6040517f1e4fbdf700000000000000000000000000000000000000000000000000000000815260040161033e919061060d565b60405180910390fd5b61035081610411565b50565b61035b61038a565b8060018190555050565b5f6001905090565b5f5f5f5f5f5f60015442425f945094509450945094509091929394565b6103926104d2565b73ffffffffffffffffffffffffffffffffffffffff166103b061023b565b73ffffffffffffffffffffffffffffffffffffffff161461040f576103d36104d2565b6040517f118cdaa7000000000000000000000000000000000000000000000000000000008152600401610406919061060d565b60405180910390fd5b565b5f5f5f9054906101000a900473ffffffffffffffffffffffffffffffffffffffff169050815f5f6101000a81548173ffffffffffffffffffffffffffffffffffffffff021916908373ffffffffffffffffffffffffffffffffffffffff1602179055508173ffffffffffffffffffffffffffffffffffffffff168173ffffffffffffffffffffffffffffffffffffffff167f8be0079c531659141344cd1fd0a4f28419497f9722a3daafe3b4186f6b6457e060405160405180910390a35050565b5f33905090565b5f60ff82169050919050565b6104ee816104d9565b82525050565b5f6020820190506105075f8301846104e5565b92915050565b5f819050919050565b61051f8161050d565b82525050565b5f6020820190506105385f830184610516565b92915050565b5f81519050919050565b5f82825260208201905092915050565b8281835e5f83830152505050565b5f601f19601f8301169050919050565b5f6105808261053e565b61058a8185610548565b935061059a818560208601610558565b6105a381610566565b840191505092915050565b5f6020820190508181035f8301526105c68184610576565b905092915050565b5f73ffffffffffffffffffffffffffffffffffffffff82169050919050565b5f6105f7826105ce565b9050919050565b610607816105ed565b82525050565b5f6020820190506106205f8301846105fe565b92915050565b5f5ffd5b5f69ffffffffffffffffffff82169050919050565b6106488161062a565b8114610652575f5ffd5b50565b5f813590506106638161063f565b92915050565b5f6020828403121561067e5761067d610626565b5b5f61068b84828501610655565b91505092915050565b61069d8161062a565b82525050565b5f819050919050565b6106b5816106a3565b82525050565b5f60a0820190506106ce5f830188610694565b6106db60208301876106ac565b6106e86040830186610516565b6106f56060830185610516565b6107026080830184610694565b9695505050505050565b610715816105ed565b811461071f575f5ffd5b50565b5f813590506107308161070c565b92915050565b5f6020828403121561074b5761074a610626565b5b5f61075884828501610722565b91505092915050565b61076a816106a3565b8114610774575f5ffd5b50565b5f8135905061078581610761565b92915050565b5f602082840312156107a05761079f610626565b5b5f6107ad84828501610777565b91505092915050565b5f8115159050919050565b6107ca816107b6565b82525050565b5f6020820190506107e35f8301846107c1565b92915050565b7f496e76616c696420726f756e64204944000000000000000000000000000000005f82015250565b5f61081d601083610548565b9150610828826107e9565b602082019050919050565b5f6020820190508181035f83015261084a81610811565b905091905056fea26469706673582212209a7286fc436f95e87285b87e379397f323533d014cc8ae6a7d9867d5c716e19164736f6c634300081b0033",
  "linkReferences": {},
  "deployedLinkReferences": {}
}