{
  "_format": "hh-sol-artifact-1",
  "contractName": "MockV3Aggregator",
  "sourceName": "contracts/MockV3Aggregator.sol",
  "abi": [
    {
      "inputs": [
        {
          "internalType": "uint8",
          "name": "_decimals",
          "type": "uint8"
        },
        {
          "internalType": "int256",
          "name": "_initialPrice",
          "type": "int256"
        }
      ],
      "stateMutability": "nonpayable",
      "type": "constructor"
    },
    {
      "inputs": [
        {
          "internalType": "address",
          "name": "owner",
          "type": "address"
        }
      ],
      "name": "OwnableInvalidOwner",
      "type": "error"
    },
    {
      "inputs": [
        {
          "internalType": "address",
          "name": "account",
          "type": "address"
        }
      ],
      "name": "OwnableUnauthorizedAccount",
      "type": "error"
    },
    {
      "anonymous": false,
      "inputs": [
        {
          "indexed": true,
          "internalType": "address",
          "name": "previousOwner",
          "type": "address"
        },
        {
          "indexed": true,
          "internalType": "address",
          "name": "newOwner",
          "type": "address"
        }
      ],
      "name": "OwnershipTransferred",
      "type": "event"
    },
    {
      "inputs": [],
      "name": "decimals",
      "outputs": [
        {
          "internalType": "uint8",
          "name": "",
          "type": "uint8"
        }
      ],
      "stateMutability": "view",
      "type": "function"
    },
    {
      "inputs": [],
      "name": "deployed",
      "outputs": [
        {
          "internalType": "bool",
          "name": "",
          "type": "bool"
        }
      ],
      "stateMutability": "pure",
      "type": "function"
    },
    {
      "inputs": [],
      "name": "description",
      "outputs": [
        {
          "internalType": "string",
          "name": "",
          "type": "string"
        }
      ],
      "stateMutability": "pure",
      "type": "function"
    },
    {
      "inputs": [
        {
          "internalType": "uint80",
          "name": "_roundId",
          "type": "uint80"
        }
      ],
      "name": "getRoundData",
      "outputs": [
        {
          "internalType": "uint80",
          "name": "roundId",
          "type": "uint80"
        },
        {
          "internalType": "int256",
          "name": "answer",
          "type": "int256"
        },
        {
          "internalType": "uint256",
          "name": "startedAt",
          "type": "uint256"
        },
        {
          "internalType": "uint256",
          "name": "updatedAt",
          "type": "uint256"
        },
        {
          "internalType": "uint80",
          "name": "answeredInRound",
          "type": "uint80"
        }
      ],
      "stateMutability": "view",
      "type": "function"
    },
    {
      "inputs": [],
      "name": "latestRoundData",
      "outputs": [
        {
          "internalType": "uint80",
          "name": "roundId",
          "type": "uint80"
        },
        {
          "internalType": "int256",
          "name": "answer",
          "type": "int256"
        },
        {
          "internalType": "uint256",
          "name": "startedAt",
          "type": "uint256"
        },
        {
          "internalType": "uint256",
          "name": "updatedAt",
          "type": "uint256"
        },
        {
          "internalType": "uint80",
          "name": "answeredInRound",
          "type": "uint80"
        }
      ],
      "stateMutability": "view",
      "type": "function"
    },
    {
      "inputs": [],
      "name": "owner",
      "outputs": [
        {
          "internalType": "address",
          "name": "",
          "type": "address"
        }
      ],
      "stateMutability": "view",
      "type": "function"
    },
    {
      "inputs": [],
      "name": "renounceOwnership",
      "outputs": [],
      "stateMutability": "nonpayable",
      "type": "function"
    },
    {
      "inputs": [
        {
          "internalType": "int256",
          "name": "_price",
          "type": "int256"
        }
      ],
      "name": "setPrice",
      "outputs": [],
      "stateMutability": "nonpayable",
      "type": "function"
    },
    {
      "inputs": [
        {
          "internalType": "address",
          "name": "newOwner",
          "type": "address"
        }
      ],
      "name": "transferOwnership",
      "outputs": [],
      "stateMutability": "nonpayable",
      "type": "function"
    },
    {
      "inputs": [],
      "name": "version",
      "outputs": [
        {
          "internalType": "uint256",
          "name": "",
          "type": "uint256"
        }
      ],
      "stateMutability": "pure",
      "type": "function"
    }
  ],
  "bytecode": "0x608060405234801561000f575f5ffd5b506040516104c03803806104c083398101604081905261002e916100c9565b338061005357604051631e4fbdf760e01b81525f600482015260240160405180910390fd5b61005c8161007a565b506002805460ff191660ff93909316929092179091556001556100fa565b5f80546001600160a01b038381166001600160a01b0319831681178455604051919092169283917f8be0079c531659141344cd1fd0a4f28419497f9722a3daafe3b4186f6b6457e09190a35050565b5f5f604083850312156100da575f5ffd5b825160ff811681146100ea575f5ffd5b6020939093015192949293505050565b6103b9806101075f395ff3fe608060405234801561000f575f5ffd5b506004361061009b575f3560e01c80639a6fc8f5116100635780639a6fc8f514610120578063f2fde38b1461016a578063f7a308061461017d578063f905c15a146100b9578063feaf968c14610190575f5ffd5b8063313ce5671461009f57806354fd4d50146100b9578063715018a6146100c85780637284e416146100d25780638da5cb5b14610106575b5f5ffd5b60025460405160ff90911681526020015b60405180910390f35b604051600181526020016100b0565b6100d061019d565b005b604080518082018252601281527126b7b1b5902b199020b3b3b932b3b0ba37b960711b602082015290516100b091906102e1565b5f546040516001600160a01b0390911681526020016100b0565b61013361012e366004610316565b6101b0565b6040805169ffffffffffffffffffff968716815260208101959095528401929092526060830152909116608082015260a0016100b0565b6100d0610178366004610346565b61021c565b6100d061018b36600461036c565b610259565b6001545f90428083610133565b6101a5610266565b6101ae5f610292565b565b5f8080808069ffffffffffffffffffff8616156102075760405162461bcd60e51b815260206004820152601060248201526f125b9d985b1a59081c9bdd5b9908125160821b60448201526064015b60405180910390fd5b50506001545f95909450429350839250859150565b610224610266565b6001600160a01b03811661024d57604051631e4fbdf760e01b81525f60048201526024016101fe565b61025681610292565b50565b610261610266565b600155565b5f546001600160a01b031633146101ae5760405163118cdaa760e01b81523360048201526024016101fe565b5f80546001600160a01b038381166001600160a01b0319831681178455604051919092169283917f8be0079c531659141344cd1fd0a4f28419497f9722a3daafe3b4186f6b6457e09190a35050565b602081525f82518060208401528060208501604085015e5f604082850101526040601f19601f83011684010191505092915050565b5f60208284031215610326575f5ffd5b813569ffffffffffffffffffff8116811461033f575f5ffd5b9392505050565b5f60208284031215610356575f5ffd5b81356001600160a01b038116811461033f575f5ffd5b5f6020828403121561037c575f5ffd5b503591905056fea26469706673582212203dff3906596ca8b029b6ebb52419798505bf858c6099baa745a7a26e87e1ab0d64736f6c63430008220033",
  "linkReferences": {},
  "deployedLinkReferences": {}
}