{
  "_format": "hh-sol-artifact-1",
  "contractName": "MerchantToken",
  "sourceName": "contracts/MerchantToken.sol",
  "abi": [
    {
      "inputs": [
        {
          "internalType": "address",
          "name": "initialOwner",
          "type": "address"
        },
        {
          "internalType": "address",
          "name": "_priceFeed",
          "type": "address"
        }
      ],
      "stateMutability": "nonpayable",
      "type": "constructor"
    },
    {
      "inputs": [
        {
          "internalType": "address",
          "name": "sender",
          "type": "address"
        },
        {
          "internalType": "uint256",
          "name": "tokenId",
          "type": "uint256"
        },
        {
          "internalType": "address",
          "name": "owner",
          "type": "address"
        }
      ],
      "name": "ERC721IncorrectOwner",
      "type": "error"
    },
    {
      "inputs": [
        {
          "internalType": "address",
          "name": "operator",
          "type": "address"
        },
        {
          "internalType": "uint256",
          "name": "tokenId",
          "type": "uint256"
        }
      ],
      "name": "ERC721InsufficientApproval",
      "type": "error"
    },
    {
      "inputs": [
        {
          "internalType": "address",
          "name": "approver",
          "type": "address"
        }
      ],
      "name": "ERC721InvalidApprover",
      "type": "error"
    },
    {
      "inputs": [
        {
          "internalType": "address",
          "name": "operator",
          "type": "address"
        }
      ],
      "name": "ERC721InvalidOperator",
      "type": "error"
    },
    {
      "inputs": [
        {
          "internalType": "address",
          "name": "owner",
          "type": "address"
        }
      ],
      "name": "ERC721InvalidOwner",
      "type": "error"
    },
    {
      "inputs": [
        {
          "internalType": "address",
          "name": "receiver",
          "type": "address"
        }
      ],
      "name": "ERC721InvalidReceiver",
      "type": "error"
    },
    {
      "inputs": [
        {
          "internalType": "address",
          "name": "sender",
          "type": "address"
        }
      ],
      "name": "ERC721InvalidSender",
      "type": "error"
    },
    {
      "inputs": [
        {
          "internalType": "uint256",
          "name": "tokenId",
          "type": "uint256"
        }
      ],
      "name": "ERC721NonexistentToken",
      "type": "error"
    },
    {
      "inputs": [],
      "name": "EnforcedPause",
      "type": "error"
    },
    {
      "inputs": [],
      "name": "ExpectedPause",
      "type": "error"
    },
    {
      "inputs": [
        {
          "internalType": "address",
          "name": "owner",
          "type": "address"
        }
      ],
      "name": "OwnableInvalidOwner",
      "type": "error"
    },
    {
      "inputs": [
        {
          "internalType": "address",
          "name": "account",
          "type": "address"
        }
      ],
      "name": "OwnableUnauthorizedAccount",
      "type": "error"
    },
    {
      "anonymous": false,
      "inputs": [
        {
          "indexed": true,
          "internalType": "address",
          "name": "owner",
          "type": "address"
        },
        {
          "indexed": true,
          "internalType": "address",
          "name": "approved",
          "type": "address"
        },
        {
          "indexed": true,
          "internalType": "uint256",
          "name": "tokenId",
          "type": "uint256"
        }
      ],
      "name": "Approval",
      "type": "event"
    },
    {
      "anonymous": false,
      "inputs": [
        {
          "indexed": true,
          "internalType": "address",
          "name": "owner",
          "type": "address"
        },
        {
          "indexed": true,
          "internalType": "address",
          "name": "operator",
          "type": "address"
        },
        {
          "indexed": false,
          "internalType": "bool",
          "name": "approved",
          "type": "bool"
        }
      ],
      "name": "ApprovalForAll",
      "type": "event"
    },
    {
      "anonymous": false,
      "inputs": [
        {
          "indexed": true,
          "internalType": "address",
          "name": "merchant",
          "type": "address"
        },
        {
          "indexed": false,
          "internalType": "uint256",
          "name": "ethAmount",
          "type": "uint256"
        },
        {
          "indexed": false,
          "internalType": "uint256",
          "name": "usdValue",
          "type": "uint256"
        }
      ],
      "name": "MerchantFeeCollected",
      "type": "event"
    },
    {
      "anonymous": false,
      "inputs": [
        {
          "indexed": false,
          "internalType": "uint256",
          "name": "tokenId",
          "type": "uint256"
        }
      ],
      "name": "MerchantTokenExpired",
      "type": "event"
    },
    {
      "anonymous": false,
      "inputs": [
        {
          "indexed": true,
          "internalType": "address",
          "name": "to",
          "type": "address"
        },
        {
          "indexed": false,
          "internalType": "uint256",
          "name": "tokenId",
          "type": "uint256"
        },
        {
          "indexed": false,
          "internalType": "uint256",
          "name": "expiryTime",
          "type": "uint256"
        }
      ],
      "name": "MerchantTokenMinted",
      "type": "event"
    },
    {
      "anonymous": false,
      "inputs": [
        {
          "indexed": false,
          "internalType": "uint256",
          "name": "tokenId",
          "type": "uint256"
        },
        {
          "indexed": false,
          "internalType": "uint256",
          "name": "newExpirationTimestamp",
          "type": "uint256"
        }
      ],
      "name": "MerchantTokenRenewed",
      "type": "event"
    },
    {
      "anonymous": false,
      "inputs": [
        {
          "indexed": true,
          "internalType": "address",
          "name": "previousOwner",
          "type": "address"
        },
        {
          "indexed": true,
          "internalType": "address",
          "name": "newOwner",
          "type": "address"
        }
      ],
      "name": "OwnershipTransferred",
      "type": "event"
    },
    {
      "anonymous": false,
      "inputs": [
        {
          "indexed": false,
          "internalType": "address",
          "name": "account",
          "type": "address"
        }
      ],
      "name": "Paused",
      "type": "event"
    },
    {
      "anonymous": false,
      "inputs": [
        {
          "indexed": true,
          "internalType": "address",
          "name": "oldFeed",
          "type": "address"
        },
        {
          "indexed": true,
          "internalType": "address",
          "name": "newFeed",
          "type": "address"
        }
      ],
      "name": "PriceFeedUpdated",
      "type": "event"
    },
    {
      "anonymous": false,
      "inputs": [
        {
          "indexed": true,
          "internalType": "address",
          "name": "from",
          "type": "address"
        },
        {
          "indexed": true,
          "internalType": "address",
          "name": "to",
          "type": "address"
        },
        {
          "indexed": true,
          "internalType": "uint256",
          "name": "tokenId",
          "type": "uint256"
        }
      ],
      "name": "Transfer",
      "type": "event"
    },
    {
      "anonymous": false,
      "inputs": [
        {
          "indexed": false,
          "internalType": "address",
          "name": "account",
          "type": "address"
        }
      ],
      "name": "Unpaused",
      "type": "event"
    },
    {
      "inputs": [],
      "name": "MERCHANT_FEE_USD",
      "outputs": [
        {
          "internalType": "uint256",
          "name": "",
          "type": "uint256"
        }
      ],
      "stateMutability": "view",
      "type": "function"
    },
    {
      "inputs": [
        {
          "internalType": "uint256",
          "name": "tokenId",
          "type": "uint256"
        },
        {
          "internalType": "uint256",
          "name": "additionalTime",
          "type": "uint256"
        }
      ],
      "name": "addExpirationTime",
      "outputs": [],
      "stateMutability": "nonpayable",
      "type": "function"
    },
    {
      "inputs": [
        {
          "internalType": "address",
          "name": "",
          "type": "address"
        },
        {
          "internalType": "uint256",
          "name": "",
          "type": "uint256"
        }
      ],
      "name": "approve",
      "outputs": [],
      "stateMutability": "pure",
      "type": "function"
    },
    {
      "inputs": [
        {
          "internalType": "address",
          "name": "owner",
          "type": "address"
        }
      ],
      "name": "balanceOf",
      "outputs": [
        {
          "internalType": "uint256",
          "name": "",
          "type": "uint256"
        }
      ],
      "stateMutability": "view",
      "type": "function"
    },
    {
      "inputs": [],
      "name": "burn",
      "outputs": [],
      "stateMutability": "nonpayable",
      "type": "function"
    },
    {
      "inputs": [
        {
          "internalType": "address",
          "name": "",
          "type": "address"
        }
      ],
      "name": "feePaid",
      "outputs": [
        {
          "internalType": "bool",
          "name": "",
          "type": "bool"
        }
      ],
      "stateMutability": "view",
      "type": "function"
    },
    {
      "inputs": [
        {
          "internalType": "uint256",
          "name": "tokenId",
          "type": "uint256"
        }
      ],
      "name": "getApproved",
      "outputs": [
        {
          "internalType": "address",
          "name": "",
          "type": "address"
        }
      ],
      "stateMutability": "view",
      "type": "function"
    },
    {
      "inputs": [],
      "name": "getCurrentTokenId",
      "outputs": [
        {
          "internalType": "uint256",
          "name": "",
          "type": "uint256"
        }
      ],
      "stateMutability": "view",
      "type": "function"
    },
    {
      "inputs": [
        {
          "internalType": "uint256",
          "name": "tokenId",
          "type": "uint256"
        }
      ],
      "name": "getExpirationTimestamp",
      "outputs": [
        {
          "internalType": "uint256",
          "name": "",
          "type": "uint256"
        }
      ],
      "stateMutability": "view",
      "type": "function"
    },
    {
      "inputs": [
        {
          "internalType": "address",
          "name": "_owner",
          "type": "address"
        }
      ],
      "name": "getTokenIdByOwner",
      "outputs": [
        {
          "internalType": "uint256",
          "name": "",
          "type": "uint256"
        }
      ],
      "stateMutability": "view",
      "type": "function"
    },
    {
      "inputs": [
        {
          "internalType": "address",
          "name": "user",
          "type": "address"
        }
      ],
      "name": "hasMerchantToken",
      "outputs": [
        {
          "internalType": "bool",
          "name": "",
          "type": "bool"
        }
      ],
      "stateMutability": "view",
      "type": "function"
    },
    {
      "inputs": [
        {
          "internalType": "address",
          "name": "user",
          "type": "address"
        }
      ],
      "name": "hasValidMerchantToken",
      "outputs": [
        {
          "internalType": "bool",
          "name": "",
          "type": "bool"
        }
      ],
      "stateMutability": "view",
      "type": "function"
    },
    {
      "inputs": [
        {
          "internalType": "uint256",
          "name": "tokenId",
          "type": "uint256"
        }
      ],
      "name": "invalidateToken",
      "outputs": [],
      "stateMutability": "nonpayable",
      "type": "function"
    },
    {
      "inputs": [
        {
          "internalType": "address",
          "name": "owner",
          "type": "address"
        },
        {
          "internalType": "address",
          "name": "operator",
          "type": "address"
        }
      ],
      "name": "isApprovedForAll",
      "outputs": [
        {
          "internalType": "bool",
          "name": "",
          "type": "bool"
        }
      ],
      "stateMutability": "view",
      "type": "function"
    },
    {
      "inputs": [
        {
          "internalType": "uint256",
          "name": "tokenId",
          "type": "uint256"
        }
      ],
      "name": "isExpired",
      "outputs": [
        {
          "internalType": "bool",
          "name": "",
          "type": "bool"
        }
      ],
      "stateMutability": "view",
      "type": "function"
    },
    {
      "inputs": [
        {
          "internalType": "address",
          "name": "to",
          "type": "address"
        },
        {
          "internalType": "uint256",
          "name": "expirationTimestamp",
          "type": "uint256"
        }
      ],
      "name": "mint",
      "outputs": [],
      "stateMutability": "nonpayable",
      "type": "function"
    },
    {
      "inputs": [],
      "name": "name",
      "outputs": [
        {
          "internalType": "string",
          "name": "",
          "type": "string"
        }
      ],
      "stateMutability": "view",
      "type": "function"
    },
    {
      "inputs": [],
      "name": "owner",
      "outputs": [
        {
          "internalType": "address",
          "name": "",
          "type": "address"
        }
      ],
      "stateMutability": "view",
      "type": "function"
    },
    {
      "inputs": [
        {
          "internalType": "uint256",
          "name": "tokenId",
          "type": "uint256"
        }
      ],
      "name": "ownerOf",
      "outputs": [
        {
          "internalType": "address",
          "name": "",
          "type": "address"
        }
      ],
      "stateMutability": "view",
      "type": "function"
    },
    {
      "inputs": [],
      "name": "pause",
      "outputs": [],
      "stateMutability": "nonpayable",
      "type": "function"
    },
    {
      "inputs": [],
      "name": "paused",
      "outputs": [
        {
          "internalType": "bool",
          "name": "",
          "type": "bool"
        }
      ],
      "stateMutability": "view",
      "type": "function"
    },
    {
      "inputs": [],
      "name": "payMerchantFee",
      "outputs": [],
      "stateMutability": "payable",
      "type": "function"
    },
    {
      "inputs": [],
      "name": "renounceOwnership",
      "outputs": [],
      "stateMutability": "nonpayable",
      "type": "function"
    },
    {
      "inputs": [
        {
          "internalType": "address",
          "name": "from",
          "type": "address"
        },
        {
          "internalType": "address",
          "name": "to",
          "type": "address"
        },
        {
          "internalType": "uint256",
          "name": "tokenId",
          "type": "uint256"
        }
      ],
      "name": "safeTransferFrom",
      "outputs": [],
      "stateMutability": "nonpayable",
      "type": "function"
    },
    {
      "inputs": [
        {
          "internalType": "address",
          "name": "from",
          "type": "address"
        },
        {
          "internalType": "address",
          "name": "to",
          "type": "address"
        },
        {
          "internalType": "uint256",
          "name": "tokenId",
          "type": "uint256"
        },
        {
          "internalType": "bytes",
          "name": "data",
          "type": "bytes"
        }
      ],
      "name": "safeTransferFrom",
      "outputs": [],
      "stateMutability": "nonpayable",
      "type": "function"
    },
    {
      "inputs": [
        {
          "internalType": "address",
          "name": "",
          "type": "address"
        },
        {
          "internalType": "bool",
          "name": "",
          "type": "bool"
        }
      ],
      "name": "setApprovalForAll",
      "outputs": [],
      "stateMutability": "pure",
      "type": "function"
    },
    {
      "inputs": [
        {
          "internalType": "address",
          "name": "_priceFeed",
          "type": "address"
        }
      ],
      "name": "setPriceFeed",
      "outputs": [],
      "stateMutability": "nonpayable",
      "type": "function"
    },
    {
      "inputs": [
        {
          "internalType": "bytes4",
          "name": "interfaceId",
          "type": "bytes4"
        }
      ],
      "name": "supportsInterface",
      "outputs": [
        {
          "internalType": "bool",
          "name": "",
          "type": "bool"
        }
      ],
      "stateMutability": "view",
      "type": "function"
    },
    {
      "inputs": [],
      "name": "symbol",
      "outputs": [
        {
          "internalType": "string",
          "name": "",
          "type": "string"
        }
      ],
      "stateMutability": "view",
      "type": "function"
    },
    {
      "inputs": [
        {
          "internalType": "uint256",
          "name": "tokenId",
          "type": "uint256"
        }
      ],
      "name": "tokenURI",
      "outputs": [
        {
          "internalType": "string",
          "name": "",
          "type": "string"
        }
      ],
      "stateMutability": "view",
      "type": "function"
    },
    {
      "inputs": [
        {
          "internalType": "address",
          "name": "from",
          "type": "address"
        },
        {
          "internalType": "address",
          "name": "to",
          "type": "address"
        },
        {
          "internalType": "uint256",
          "name": "tokenId",
          "type": "uint256"
        }
      ],
      "name": "transferFrom",
      "outputs": [],
      "stateMutability": "nonpayable",
      "type": "function"
    },
    {
      "inputs": [
        {
          "internalType": "address",
          "name": "newOwner",
          "type": "address"
        }
      ],
      "name": "transferOwnership",
      "outputs": [],
      "stateMutability": "nonpayable",
      "type": "function"
    },
    {
      "inputs": [],
      "name": "unpause",
      "outputs": [],
      "stateMutability": "nonpayable",
      "type": "function"
    }
  ],
  "bytecode": "0x608060405234801561000f575f5ffd5b5060405161253b38038061253b83398101604081905261002e91610169565b816040518060400160405280601781526020017f4c6974746572636f696e4d65726368616e74546f6b656e000000000000000000815250604051806040016040528060048152602001631316135560e21b815250815f9081610090919061023d565b50600161009d828261023d565b5050506001600160a01b0381166100cd57604051631e4fbdf760e01b81525f600482015260240160405180910390fd5b6100d6816100fd565b50600a80546001600160a01b0319166001600160a01b0392909216919091179055506102fb565b600680546001600160a01b038381166001600160a01b0319831681179093556040519116919082907f8be0079c531659141344cd1fd0a4f28419497f9722a3daafe3b4186f6b6457e0905f90a35050565b80516001600160a01b0381168114610164575f5ffd5b919050565b5f5f6040838503121561017a575f5ffd5b6101838361014e565b91506101916020840161014e565b90509250929050565b634e487b7160e01b5f52604160045260245ffd5b600181811c908216806101c257607f821691505b6020821081036101e057634e487b7160e01b5f52602260045260245ffd5b50919050565b601f821115610238578282111561023857805f5260205f20601f840160051c602085101561021157505f5b90810190601f840160051c035f5b81811015610234575f8382015560010161021f565b5050505b505050565b81516001600160401b038111156102565761025661019a565b61026a8161026484546101ae565b846101e6565b6020601f82116001811461029c575f83156102855750848201515b5f19600385901b1c1916600184901b1784556102f4565b5f84815260208120601f198516915b828110156102cb57878501518255602094850194600190920191016102ab565b50848210156102e857868401515f19600387901b60f8161c191681555b505060018360011b0184555b5050505050565b612233806103085f395ff3fe6080604052600436106101e6575f3560e01c80636352211e11610108578063a22cb4651161009d578063d9548e531161006d578063d9548e531461052c578063d9e5896e1461054b578063e985e9c51461056a578063ea55763314610589578063f2fde38b146105a8575f5ffd5b8063a22cb465146104c0578063b88d4fde146104da578063c22c56b1146104f9578063c87b56dd1461050d575f5ffd5b80638456cb59116100d85780638456cb591461045c5780638da5cb5b14610470578063952e5cb41461048d57806395d89b41146104ac575f5ffd5b80636352211e146103eb57806370a082311461040a578063715018a614610429578063724e78da1461043d575f5ffd5b8063393ed91a1161017e57806342842e0e1161014e57806342842e0e1461037c57806344df8e701461039b57806356189236146103af5780635c975abb146103cd575f5ffd5b8063393ed91a1461030b5780633f4ba83a1461032a57806340c10f191461033e578063425604d61461035d575f5ffd5b8063095ea7b3116101b9578063095ea7b3146102955780631a561d7d146102b657806323456258146102e457806323b872dd146102ec575f5ffd5b806301ffc9a7146101ea57806302556a291461021e57806306fdde031461023d578063081812fc1461025e575b5f5ffd5b3480156101f5575f5ffd5b50610209610204366004611d83565b6105c7565b60405190151581526020015b60405180910390f35b348015610229575f5ffd5b50610209610238366004611db9565b6105d7565b348015610248575f5ffd5b50610251610638565b6040516102159190611e00565b348015610269575f5ffd5b5061027d610278366004611e12565b6106c7565b6040516001600160a01b039091168152602001610215565b3480156102a0575f5ffd5b506102b46102af366004611e29565b6106ee565b005b3480156102c1575f5ffd5b506102096102d0366004611db9565b600b6020525f908152604090205460ff1681565b6102b461073b565b3480156102f7575f5ffd5b506102b4610306366004611e51565b610be2565b348015610316575f5ffd5b506102b4610325366004611e12565b610c6b565b348015610335575f5ffd5b506102b4610d4c565b348015610349575f5ffd5b506102b4610358366004611e29565b610d5e565b348015610368575f5ffd5b506102b4610377366004611e8b565b610f7b565b348015610387575f5ffd5b506102b4610396366004611e51565b611088565b3480156103a6575f5ffd5b506102b46110a7565b3480156103ba575f5ffd5b506007545b604051908152602001610215565b3480156103d8575f5ffd5b50600654600160a01b900460ff16610209565b3480156103f6575f5ffd5b5061027d610405366004611e12565b611113565b348015610415575f5ffd5b506103bf610424366004611db9565b61111d565b348015610434575f5ffd5b506102b4611162565b348015610448575f5ffd5b506102b4610457366004611db9565b611173565b348015610467575f5ffd5b506102b4611214565b34801561047b575f5ffd5b506006546001600160a01b031661027d565b348015610498575f5ffd5b506102096104a7366004611db9565b611224565b3480156104b7575f5ffd5b50610251611267565b3480156104cb575f5ffd5b506102b46102af366004611eab565b3480156104e5575f5ffd5b506102b46104f4366004611ef8565b611276565b348015610504575f5ffd5b506103bf601481565b348015610518575f5ffd5b50610251610527366004611e12565b61128e565b348015610537575f5ffd5b50610209610546366004611e12565b6112ff565b348015610556575f5ffd5b506103bf610565366004611e12565b611344565b348015610575575f5ffd5b50610209610584366004611fd5565b611387565b348015610594575f5ffd5b506103bf6105a3366004611db9565b6113b4565b3480156105b3575f5ffd5b506102b46105c2366004611db9565b611465565b5f6105d18261149f565b92915050565b6001600160a01b0381165f9081526008602052604081205480158061060c57505f610601826114ee565b6001600160a01b0316145b1561061957505f92915050565b610622816112ff565b1561062f57505f92915050565b50600192915050565b60605f805461064690612006565b80601f016020809104026020016040519081016040528092919081815260200182805461067290612006565b80156106bd5780601f10610694576101008083540402835291602001916106bd565b820191905f5260205f20905b8154815290600101906020018083116106a057829003601f168201915b5050505050905090565b5f6106d182611508565b505f828152600460205260409020546001600160a01b03166105d1565b60405162461bcd60e51b815260206004820152601d60248201527f536f756c626f756e643a20617070726f76616c732064697361626c656400000060448201526064015b60405180910390fd5b61074361153f565b335f908152600b602052604090205460ff16156107955760405162461bcd60e51b815260206004820152601060248201526f11995948185b1c9958591e481c185a5960821b6044820152606401610732565b61079e3361111d565b156107eb5760405162461bcd60e51b815260206004820152601d60248201527f416c726561647920686176652061206d65726368616e7420746f6b656e0000006044820152606401610732565b5f5f600a5f9054906101000a90046001600160a01b03166001600160a01b031663feaf968c6040518163ffffffff1660e01b815260040160a060405180830381865afa15801561083d573d5f5f3e3d5ffd5b505050506040513d601f19601f820116820180604052508101906108619190612057565b509350509250505f82136108b75760405162461bcd60e51b815260206004820152601c60248201527f496e76616c69642070726963652066726f6d20436861696e6c696e6b000000006044820152606401610732565b600a5f9054906101000a90046001600160a01b03166001600160a01b031663313ce5676040518163ffffffff1660e01b8152600401602060405180830381865afa158015610907573d5f5f3e3d5ffd5b505050506040513d601f19601f8201168201806040525081019061092b91906120a5565b60ff1660081461097d5760405162461bcd60e51b815260206004820152601e60248201527f556e6578706563746564207072696365206665656420646563696d616c7300006044820152606401610732565b610e1061098a82426120d9565b106109ca5760405162461bcd60e51b815260206004820152601060248201526f14dd185b19481c1c9a58d9481999595960821b6044820152606401610732565b5f826109e260146a52b7d2dcc80cd2e40000006120ec565b6109ec9190612103565b905080341015610a485760405162461bcd60e51b815260206004820152602160248201527f496e73756666696369656e742045544820666f72206d65726368616e742066656044820152606560f81b6064820152608401610732565b335f908152600b60205260408120805460ff19166001179055610a736006546001600160a01b031690565b6001600160a01b0316826040515f6040518083038185875af1925050503d805f8114610aba576040519150601f19603f3d011682016040523d82523d5f602084013e610abf565b606091505b5050905080610b065760405162461bcd60e51b8152602060048201526013602482015272119959481d1c985b9cd9995c8819985a5b1959606a1b6044820152606401610732565b5f610b1183346120d9565b90508015610ba0576040515f90339083908381818185875af1925050503d805f8114610b58576040519150601f19603f3d011682016040523d82523d5f602084013e610b5d565b606091505b5050905080610b9e5760405162461bcd60e51b815260206004820152600d60248201526c1499599d5b990819985a5b1959609a1b6044820152606401610732565b505b604080518481526014602082015233917fcdd9acb9c1802ad855553f406af68fe06b6739ca50a6befdeaced4e0ab71b34f910160405180910390a25050505050565b6001600160a01b038216610c0b57604051633250574960e11b81525f6004820152602401610732565b5f610c1783833361156a565b9050836001600160a01b0316816001600160a01b031614610c65576040516364283d7b60e01b81526001600160a01b0380861660048301526024820184905282166044820152606401610732565b50505050565b610c73611619565b610c7b61153f565b5f610c85826114ee565b6001600160a01b031603610cab5760405162461bcd60e51b815260040161073290612122565b610cb4816112ff565b15610cf95760405162461bcd60e51b8152602060048201526015602482015274151bdad95b88185b1c9958591e48195e1c1a5c9959605a1b6044820152606401610732565b610d05610e10426120d9565b5f8281526009602090815260409182902092909255518281527f754f3aa765fa1f221ea409fddea972deff6ce410d141d5cded4fc7ec690710c0910160405180910390a150565b610d54611619565b610d5c611646565b565b610d66611619565b610d6e61153f565b6001600160a01b038216610dc45760405162461bcd60e51b815260206004820152601b60248201527f43616e6e6f74206d696e7420746f207a65726f206164647265737300000000006044820152606401610732565b428111610e1d5760405162461bcd60e51b815260206004820152602160248201527f45787069726174696f6e206d75737420626520696e20746865206675747572656044820152601760f91b6064820152608401610732565b610e268261111d565b15610e735760405162461bcd60e51b815260206004820152601860248201527f5573657220616c726561647920686173206120746f6b656e00000000000000006044820152606401610732565b6001600160a01b0382165f908152600b602052604090205460ff16610ed25760405162461bcd60e51b815260206004820152601560248201527413595c98da185b9d08199959481b9bdd081c185a59605a1b6044820152606401610732565b6001600160a01b0382165f908152600b60205260408120805460ff1916905560078054909190610f0190612150565b909155506007545f818152600960205260409020829055610f22838261169b565b6001600160a01b0383165f8181526008602090815260409182902084905581518481529081018590527f655ff37b06d138fc26fda07d435a40368e63b8d3cbd7835215334ff9e7fcd782910160405180910390a2505050565b610f83611619565b610f8b61153f565b5f610f95836114ee565b6001600160a01b031603610fbb5760405162461bcd60e51b815260040161073290612122565b5f811161101c5760405162461bcd60e51b815260206004820152602960248201527f4164646974696f6e616c2074696d65206d7573742062652067726561746572206044820152687468616e207a65726f60b81b6064820152608401610732565b5f8281526009602052604081208054839290611039908490612168565b90915550505f82815260096020908152604091829020548251858152918201527f0db48b23ad6f04f212b5fddef4017753a195535f0d61c4daa790b4f70f28c07f910160405180910390a15050565b6110a283838360405180602001604052805f815250611276565b505050565b6110af61153f565b335f90815260086020526040812054908190036111075760405162461bcd60e51b81526020600482015260166024820152752cb7ba903237903737ba1037bbb71030903a37b5b2b760511b6044820152606401610732565b611110816116b8565b50565b5f6105d182611508565b5f6001600160a01b038216611147576040516322718ad960e21b81525f6004820152602401610732565b506001600160a01b03165f9081526003602052604090205490565b61116a611619565b610d5c5f6116f0565b61117b611619565b6001600160a01b0381166111c35760405162461bcd60e51b815260206004820152600f60248201526e496e76616c6964206164647265737360881b6044820152606401610732565b600a80546001600160a01b038381166001600160a01b0319831681179093556040519116919082907fa8abe0398416476db5b05737cd4da3b3cbde5012d978a6a6c3fd49d321753536905f90a35050565b61121c611619565b610d5c611741565b6001600160a01b0381165f9081526008602052604081205480820361124b57505f92915050565b5f611255826114ee565b6001600160a01b031614159392505050565b60606001805461064690612006565b611281848484610be2565b610c653385858585611784565b606061129982611508565b505f6112af60408051602081019091525f815290565b90505f8151116112cd5760405180602001604052805f8152506112f8565b806112d7846118ac565b6040516020016112e8929190612192565b6040516020818303038152906040525b9392505050565b5f8061130a836114ee565b6001600160a01b0316036113305760405162461bcd60e51b815260040161073290612122565b505f90815260096020526040902054421190565b5f8061134f836114ee565b6001600160a01b0316036113755760405162461bcd60e51b815260040161073290612122565b505f9081526009602052604090205490565b6001600160a01b039182165f90815260056020908152604080832093909416825291909152205460ff1690565b5f6001600160a01b0382166113fd5760405162461bcd60e51b815260206004820152600f60248201526e496e76616c6964206164647265737360881b6044820152606401610732565b6001600160a01b0382165f90815260086020526040812054908190036105d15760405162461bcd60e51b815260206004820152601b60248201527f4f776e657220646f6573206e6f742068617665206120746f6b656e00000000006044820152606401610732565b61146d611619565b6001600160a01b03811661149657604051631e4fbdf760e01b81525f6004820152602401610732565b611110816116f0565b5f6001600160e01b031982166380ac58cd60e01b14806114cf57506001600160e01b03198216635b5e139f60e01b145b806105d157506301ffc9a760e01b6001600160e01b03198316146105d1565b5f908152600260205260409020546001600160a01b031690565b5f5f611513836114ee565b90506001600160a01b0381166105d157604051637e27328960e01b815260048101849052602401610732565b600654600160a01b900460ff1615610d5c5760405163d93c066560e01b815260040160405180910390fd5b5f5f611575846114ee565b90506001600160a01b0381161580159061159757506001600160a01b03851615155b156115dd5760405162461bcd60e51b8152602060048201526016602482015275151c985b9cd9995c9cc8185c9948191a5cd8589b195960521b6044820152606401610732565b6001600160a01b03811615611605576001600160a01b0381165f908152600860205260408120555b61161085858561193c565b95945050505050565b6006546001600160a01b03163314610d5c5760405163118cdaa760e01b8152336004820152602401610732565b61164e611a29565b6006805460ff60a01b191690557f5db9ee0a495bf2e6ff9c91a7834c1ba4fdd244a5e8aa4e537bd38aeae4b073aa335b6040516001600160a01b03909116815260200160405180910390a1565b6116b4828260405180602001604052805f815250611a53565b5050565b5f6116c45f835f61156a565b90506001600160a01b0381166116b457604051637e27328960e01b815260048101839052602401610732565b600680546001600160a01b038381166001600160a01b0319831681179093556040519116919082907f8be0079c531659141344cd1fd0a4f28419497f9722a3daafe3b4186f6b6457e0905f90a35050565b61174961153f565b6006805460ff60a01b1916600160a01b1790557f62e78cea01bee320cd4e420270b5ea74000d11b0c9f74754ebdbfc544b05a25861167e3390565b6001600160a01b0383163b156118a557604051630a85bd0160e11b81526001600160a01b0384169063150b7a02906117c69088908890879087906004016121a6565b6020604051808303815f875af1925050508015611800575060408051601f3d908101601f191682019092526117fd918101906121e2565b60015b611867573d80801561182d576040519150601f19603f3d011682016040523d82523d5f602084013e611832565b606091505b5080515f0361185f57604051633250574960e11b81526001600160a01b0385166004820152602401610732565b805160208201fd5b6001600160e01b03198116630a85bd0160e11b146118a357604051633250574960e11b81526001600160a01b0385166004820152602401610732565b505b5050505050565b60605f6118b883611a6a565b60010190505f8167ffffffffffffffff8111156118d7576118d7611ee4565b6040519080825280601f01601f191660200182016040528015611901576020820181803683370190505b5090508181016020015b5f19016f181899199a1a9b1b9c1cb0b131b232b360811b600a86061a8153600a850494508461190b57509392505050565b5f5f611947846114ee565b90506001600160a01b0383161561196357611963818486611b41565b6001600160a01b0381161561199d5761197e5f855f5f611ba5565b6001600160a01b0381165f90815260036020526040902080545f190190555b6001600160a01b038516156119cb576001600160a01b0385165f908152600360205260409020805460010190555b5f8481526002602052604080822080546001600160a01b0319166001600160a01b0389811691821790925591518793918516917fddf252ad1be2c89b69c2b068fc378daa952ba7f163c4a11628f55a4df523b3ef91a4949350505050565b600654600160a01b900460ff16610d5c57604051638dfc202b60e01b815260040160405180910390fd5b611a5d8383611ca9565b6110a2335f858585611784565b5f8072184f03e93ff9f4daa797ed6e38ed64bf6a1f0160401b8310611aa85772184f03e93ff9f4daa797ed6e38ed64bf6a1f0160401b830492506040015b6d04ee2d6d415b85acef81000000008310611ad4576d04ee2d6d415b85acef8100000000830492506020015b662386f26fc100008310611af257662386f26fc10000830492506010015b6305f5e1008310611b0a576305f5e100830492506008015b6127108310611b1e57612710830492506004015b60648310611b30576064830492506002015b600a83106105d15760010192915050565b611b4c838383611d0a565b6110a2576001600160a01b038316611b7a57604051637e27328960e01b815260048101829052602401610732565b60405163177e802f60e01b81526001600160a01b038316600482015260248101829052604401610732565b8080611bb957506001600160a01b03821615155b15611c7a575f611bc884611508565b90506001600160a01b03831615801590611bf45750826001600160a01b0316816001600160a01b031614155b8015611c075750611c058184611387565b155b15611c305760405163a9fbf51f60e01b81526001600160a01b0384166004820152602401610732565b8115611c785783856001600160a01b0316826001600160a01b03167f8c5be1e5ebec7d5bd14f71427d1e84f3dd0314c0f7b2291e5b200ac8c7c3b92560405160405180910390a45b505b50505f90815260046020526040902080546001600160a01b0319166001600160a01b0392909216919091179055565b6001600160a01b038216611cd257604051633250574960e11b81525f6004820152602401610732565b5f611cde83835f61156a565b90506001600160a01b038116156110a2576040516339e3563760e11b81525f6004820152602401610732565b5f6001600160a01b03831615801590611d665750826001600160a01b0316846001600160a01b03161480611d435750611d438484611387565b80611d6657505f828152600460205260409020546001600160a01b038481169116145b949350505050565b6001600160e01b031981168114611110575f5ffd5b5f60208284031215611d93575f5ffd5b81356112f881611d6e565b80356001600160a01b0381168114611db4575f5ffd5b919050565b5f60208284031215611dc9575f5ffd5b6112f882611d9e565b5f81518084528060208401602086015e5f602082860101526020601f19601f83011685010191505092915050565b602081525f6112f86020830184611dd2565b5f60208284031215611e22575f5ffd5b5035919050565b5f5f60408385031215611e3a575f5ffd5b611e4383611d9e565b946020939093013593505050565b5f5f5f60608486031215611e63575f5ffd5b611e6c84611d9e565b9250611e7a60208501611d9e565b929592945050506040919091013590565b5f5f60408385031215611e9c575f5ffd5b50508035926020909101359150565b5f5f60408385031215611ebc575f5ffd5b611ec583611d9e565b915060208301358015158114611ed9575f5ffd5b809150509250929050565b634e487b7160e01b5f52604160045260245ffd5b5f5f5f5f60808587031215611f0b575f5ffd5b611f1485611d9e565b9350611f2260208601611d9e565b925060408501359150606085013567ffffffffffffffff811115611f44575f5ffd5b8501601f81018713611f54575f5ffd5b803567ffffffffffffffff811115611f6e57611f6e611ee4565b604051601f8201601f19908116603f0116810167ffffffffffffffff81118282101715611f9d57611f9d611ee4565b604052818152828201602001891015611fb4575f5ffd5b816020840160208301375f6020838301015280935050505092959194509250565b5f5f60408385031215611fe6575f5ffd5b611fef83611d9e565b9150611ffd60208401611d9e565b90509250929050565b600181811c9082168061201a57607f821691505b60208210810361203857634e487b7160e01b5f52602260045260245ffd5b50919050565b805169ffffffffffffffffffff81168114611db4575f5ffd5b5f5f5f5f5f60a0868803121561206b575f5ffd5b6120748661203e565b602087015160408801516060890151929750909550935091506120996080870161203e565b90509295509295909350565b5f602082840312156120b5575f5ffd5b815160ff811681146112f8575f5ffd5b634e487b7160e01b5f52601160045260245ffd5b818103818111156105d1576105d16120c5565b80820281158282048414176105d1576105d16120c5565b5f8261211d57634e487b7160e01b5f52601260045260245ffd5b500490565b602080825260149082015273151bdad95b88191bd95cc81b9bdd08195e1a5cdd60621b604082015260600190565b5f60018201612161576121616120c5565b5060010190565b808201808211156105d1576105d16120c5565b5f81518060208401855e5f93019283525090919050565b5f611d666121a0838661217b565b8461217b565b6001600160a01b03858116825284166020820152604081018390526080606082018190525f906121d890830184611dd2565b9695505050505050565b5f602082840312156121f2575f5ffd5b81516112f881611d6e56fea2646970667358221220ef123fb2fe39aff45aa7b5f214d650da97356c6d178d08a5cb7af69919b9e65564736f6c63430008220033",
  "linkReferences": {},
  "deployedLinkReferences": {}
}