{
  "_format": "hh-sol-artifact-1",
  "contractName": "MerchantToken",
  "sourceName": "contracts/MerchantToken.sol",
  "abi": [
    {
      "inputs": [],
      "stateMutability": "nonpayable",
      "type": "constructor"
    },
    {
      "anonymous": false,
      "inputs": [
        {
          "indexed": true,
          "internalType": "address",
          "name": "owner",
          "type": "address"
        },
        {
          "indexed": true,
          "internalType": "address",
          "name": "approved",
          "type": "address"
        },
        {
          "indexed": true,
          "internalType": "uint256",
          "name": "tokenId",
          "type": "uint256"
        }
      ],
      "name": "Approval",
      "type": "event"
    },
    {
      "anonymous": false,
      "inputs": [
        {
          "indexed": true,
          "internalType": "address",
          "name": "owner",
          "type": "address"
        },
        {
          "indexed": true,
          "internalType": "address",
          "name": "operator",
          "type": "address"
        },
        {
          "indexed": false,
          "internalType": "bool",
          "name": "approved",
          "type": "bool"
        }
      ],
      "name": "ApprovalForAll",
      "type": "event"
    },
    {
      "anonymous": false,
      "inputs": [
        {
          "indexed": false,
          "internalType": "uint256",
          "name": "tokenId",
          "type": "uint256"
        }
      ],
      "name": "MerchantTokenExpired",
      "type": "event"
    },
    {
      "anonymous": false,
      "inputs": [
        {
          "indexed": true,
          "internalType": "address",
          "name": "to",
          "type": "address"
        },
        {
          "indexed": false,
          "internalType": "uint256",
          "name": "tokenId",
          "type": "uint256"
        },
        {
          "indexed": false,
          "internalType": "uint256",
          "name": "expiryTime",
          "type": "uint256"
        }
      ],
      "name": "MerchantTokenMinted",
      "type": "event"
    },
    {
      "anonymous": false,
      "inputs": [
        {
          "indexed": false,
          "internalType": "uint256",
          "name": "tokenId",
          "type": "uint256"
        },
        {
          "indexed": false,
          "internalType": "uint256",
          "name": "newExpirationTimestamp",
          "type": "uint256"
        }
      ],
      "name": "MerchantTokenRenewed",
      "type": "event"
    },
    {
      "anonymous": false,
      "inputs": [
        {
          "indexed": true,
          "internalType": "address",
          "name": "from",
          "type": "address"
        },
        {
          "indexed": true,
          "internalType": "address",
          "name": "to",
          "type": "address"
        },
        {
          "indexed": false,
          "internalType": "uint256",
          "name": "tokenId",
          "type": "uint256"
        }
      ],
      "name": "MerchantTokenTransferred",
      "type": "event"
    },
    {
      "anonymous": false,
      "inputs": [
        {
          "indexed": true,
          "internalType": "address",
          "name": "previousOwner",
          "type": "address"
        },
        {
          "indexed": true,
          "internalType": "address",
          "name": "newOwner",
          "type": "address"
        }
      ],
      "name": "OwnershipTransferred",
      "type": "event"
    },
    {
      "anonymous": false,
      "inputs": [
        {
          "indexed": true,
          "internalType": "address",
          "name": "from",
          "type": "address"
        },
        {
          "indexed": true,
          "internalType": "address",
          "name": "to",
          "type": "address"
        },
        {
          "indexed": true,
          "internalType": "uint256",
          "name": "tokenId",
          "type": "uint256"
        }
      ],
      "name": "Transfer",
      "type": "event"
    },
    {
      "inputs": [],
      "name": "_tokenCounter",
      "outputs": [
        {
          "internalType": "uint256",
          "name": "",
          "type": "uint256"
        }
      ],
      "stateMutability": "view",
      "type": "function"
    },
    {
      "inputs": [
        {
          "internalType": "address",
          "name": "to",
          "type": "address"
        },
        {
          "internalType": "uint256",
          "name": "tokenId",
          "type": "uint256"
        }
      ],
      "name": "approve",
      "outputs": [],
      "stateMutability": "nonpayable",
      "type": "function"
    },
    {
      "inputs": [
        {
          "internalType": "address",
          "name": "owner",
          "type": "address"
        }
      ],
      "name": "balanceOf",
      "outputs": [
        {
          "internalType": "uint256",
          "name": "",
          "type": "uint256"
        }
      ],
      "stateMutability": "view",
      "type": "function"
    },
    {
      "inputs": [
        {
          "internalType": "uint256",
          "name": "tokenId",
          "type": "uint256"
        }
      ],
      "name": "expireToken",
      "outputs": [],
      "stateMutability": "nonpayable",
      "type": "function"
    },
    {
      "inputs": [
        {
          "internalType": "uint256",
          "name": "tokenId",
          "type": "uint256"
        }
      ],
      "name": "getApproved",
      "outputs": [
        {
          "internalType": "address",
          "name": "",
          "type": "address"
        }
      ],
      "stateMutability": "view",
      "type": "function"
    },
    {
      "inputs": [
        {
          "internalType": "address",
          "name": "user",
          "type": "address"
        }
      ],
      "name": "hasValidMerchantToken",
      "outputs": [
        {
          "internalType": "bool",
          "name": "",
          "type": "bool"
        }
      ],
      "stateMutability": "view",
      "type": "function"
    },
    {
      "inputs": [
        {
          "internalType": "address",
          "name": "owner",
          "type": "address"
        },
        {
          "internalType": "address",
          "name": "operator",
          "type": "address"
        }
      ],
      "name": "isApprovedForAll",
      "outputs": [
        {
          "internalType": "bool",
          "name": "",
          "type": "bool"
        }
      ],
      "stateMutability": "view",
      "type": "function"
    },
    {
      "inputs": [
        {
          "internalType": "uint256",
          "name": "tokenId",
          "type": "uint256"
        }
      ],
      "name": "isExpired",
      "outputs": [
        {
          "internalType": "bool",
          "name": "",
          "type": "bool"
        }
      ],
      "stateMutability": "view",
      "type": "function"
    },
    {
      "inputs": [
        {
          "internalType": "address",
          "name": "to",
          "type": "address"
        },
        {
          "internalType": "uint256",
          "name": "expirationTimestamp",
          "type": "uint256"
        }
      ],
      "name": "mint",
      "outputs": [],
      "stateMutability": "nonpayable",
      "type": "function"
    },
    {
      "inputs": [],
      "name": "name",
      "outputs": [
        {
          "internalType": "string",
          "name": "",
          "type": "string"
        }
      ],
      "stateMutability": "view",
      "type": "function"
    },
    {
      "inputs": [],
      "name": "owner",
      "outputs": [
        {
          "internalType": "address",
          "name": "",
          "type": "address"
        }
      ],
      "stateMutability": "view",
      "type": "function"
    },
    {
      "inputs": [
        {
          "internalType": "uint256",
          "name": "tokenId",
          "type": "uint256"
        }
      ],
      "name": "ownerOf",
      "outputs": [
        {
          "internalType": "address",
          "name": "",
          "type": "address"
        }
      ],
      "stateMutability": "view",
      "type": "function"
    },
    {
      "inputs": [
        {
          "internalType": "uint256",
          "name": "tokenId",
          "type": "uint256"
        },
        {
          "internalType": "uint256",
          "name": "newExpirationTimestamp",
          "type": "uint256"
        }
      ],
      "name": "renewToken",
      "outputs": [],
      "stateMutability": "nonpayable",
      "type": "function"
    },
    {
      "inputs": [],
      "name": "renounceOwnership",
      "outputs": [],
      "stateMutability": "nonpayable",
      "type": "function"
    },
    {
      "inputs": [
        {
          "internalType": "address",
          "name": "from",
          "type": "address"
        },
        {
          "internalType": "address",
          "name": "to",
          "type": "address"
        },
        {
          "internalType": "uint256",
          "name": "tokenId",
          "type": "uint256"
        }
      ],
      "name": "safeTransferFrom",
      "outputs": [],
      "stateMutability": "nonpayable",
      "type": "function"
    },
    {
      "inputs": [
        {
          "internalType": "address",
          "name": "from",
          "type": "address"
        },
        {
          "internalType": "address",
          "name": "to",
          "type": "address"
        },
        {
          "internalType": "uint256",
          "name": "tokenId",
          "type": "uint256"
        },
        {
          "internalType": "bytes",
          "name": "data",
          "type": "bytes"
        }
      ],
      "name": "safeTransferFrom",
      "outputs": [],
      "stateMutability": "nonpayable",
      "type": "function"
    },
    {
      "inputs": [
        {
          "internalType": "address",
          "name": "operator",
          "type": "address"
        },
        {
          "internalType": "bool",
          "name": "approved",
          "type": "bool"
        }
      ],
      "name": "setApprovalForAll",
      "outputs": [],
      "stateMutability": "nonpayable",
      "type": "function"
    },
    {
      "inputs": [
        {
          "internalType": "bytes4",
          "name": "interfaceId",
          "type": "bytes4"
        }
      ],
      "name": "supportsInterface",
      "outputs": [
        {
          "internalType": "bool",
          "name": "",
          "type": "bool"
        }
      ],
      "stateMutability": "view",
      "type": "function"
    },
    {
      "inputs": [],
      "name": "symbol",
      "outputs": [
        {
          "internalType": "string",
          "name": "",
          "type": "string"
        }
      ],
      "stateMutability": "view",
      "type": "function"
    },
    {
      "inputs": [
        {
          "internalType": "uint256",
          "name": "tokenId",
          "type": "uint256"
        }
      ],
      "name": "tokenURI",
      "outputs": [
        {
          "internalType": "string",
          "name": "",
          "type": "string"
        }
      ],
      "stateMutability": "view",
      "type": "function"
    },
    {
      "inputs": [
        {
          "internalType": "address",
          "name": "owner",
          "type": "address"
        }
      ],
      "name": "tokensOfOwner",
      "outputs": [
        {
          "internalType": "uint256[]",
          "name": "",
          "type": "uint256[]"
        }
      ],
      "stateMutability": "view",
      "type": "function"
    },
    {
      "inputs": [
        {
          "internalType": "address",
          "name": "from",
          "type": "address"
        },
        {
          "internalType": "address",
          "name": "to",
          "type": "address"
        },
        {
          "internalType": "uint256",
          "name": "tokenId",
          "type": "uint256"
        }
      ],
      "name": "transferFrom",
      "outputs": [],
      "stateMutability": "nonpayable",
      "type": "function"
    },
    {
      "inputs": [
        {
          "internalType": "address",
          "name": "newOwner",
          "type": "address"
        }
      ],
      "name": "transferOwnership",
      "outputs": [],
      "stateMutability": "nonpayable",
      "type": "function"
    }
  ],
  "bytecode": "0x608060405234801561001057600080fd5b506040518060400160405280601781526020017f4c6974746572636f696e4d65726368616e74546f6b656e0000000000000000008152506040518060400160405280600481526020017f4c584d5400000000000000000000000000000000000000000000000000000000815250816000908161008c91906103e6565b50806001908161009c91906103e6565b5050506100bb6100b06100c860201b60201c565b6100d060201b60201c565b60016007819055506104b8565b600033905090565b6000600660009054906101000a900473ffffffffffffffffffffffffffffffffffffffff16905081600660006101000a81548173ffffffffffffffffffffffffffffffffffffffff021916908373ffffffffffffffffffffffffffffffffffffffff1602179055508173ffffffffffffffffffffffffffffffffffffffff168173ffffffffffffffffffffffffffffffffffffffff167f8be0079c531659141344cd1fd0a4f28419497f9722a3daafe3b4186f6b6457e060405160405180910390a35050565b600081519050919050565b7f4e487b7100000000000000000000000000000000000000000000000000000000600052604160045260246000fd5b7f4e487b7100000000000000000000000000000000000000000000000000000000600052602260045260246000fd5b6000600282049050600182168061021757607f821691505b60208210810361022a576102296101d0565b5b50919050565b60008190508160005260206000209050919050565b60006020601f8301049050919050565b600082821b905092915050565b6000600883026102927fffffffffffffffffffffffffffffffffffffffffffffffffffffffffffffffff82610255565b61029c8683610255565b95508019841693508086168417925050509392505050565b6000819050919050565b6000819050919050565b60006102e36102de6102d9846102b4565b6102be565b6102b4565b9050919050565b6000819050919050565b6102fd836102c8565b610311610309826102ea565b848454610262565b825550505050565b600090565b610326610319565b6103318184846102f4565b505050565b5b818110156103555761034a60008261031e565b600181019050610337565b5050565b601f82111561039a5761036b81610230565b61037484610245565b81016020851015610383578190505b61039761038f85610245565b830182610336565b50505b505050565b600082821c905092915050565b60006103bd6000198460080261039f565b1980831691505092915050565b60006103d683836103ac565b9150826002028217905092915050565b6103ef82610196565b67ffffffffffffffff811115610408576104076101a1565b5b61041282546101ff565b61041d828285610359565b600060209050601f831160018114610450576000841561043e578287015190505b61044885826103ca565b8655506104b0565b601f19841661045e86610230565b60005b8281101561048657848901518255600182019150602085019450602081019050610461565b868310156104a3578489015161049f601f8916826103ac565b8355505b6001600288020188555050505b505050505050565b6138f3806104c76000396000f3fe608060405234801561001057600080fd5b506004361061014d5760003560e01c80638462151c116100c3578063c87b56dd1161007c578063c87b56dd1461039c578063c8a3bb7b146103cc578063d9548e53146103e8578063de2c5b8314610418578063e985e9c514610434578063f2fde38b146104645761014d565b80638462151c146102da5780638da5cb5b1461030a5780639230b2bc1461032857806395d89b4114610346578063a22cb46514610364578063b88d4fde146103805761014d565b806323b872dd1161011557806323b872dd1461021c57806340c10f191461023857806342842e0e146102545780636352211e1461027057806370a08231146102a0578063715018a6146102d05761014d565b806301ffc9a71461015257806302556a291461018257806306fdde03146101b2578063081812fc146101d0578063095ea7b314610200575b600080fd5b61016c60048036038101906101679190612671565b610480565b60405161017991906126b9565b60405180910390f35b61019c60048036038101906101979190612732565b610492565b6040516101a991906126b9565b60405180910390f35b6101ba6104e8565b6040516101c791906127ef565b60405180910390f35b6101ea60048036038101906101e59190612847565b61057a565b6040516101f79190612883565b60405180910390f35b61021a6004803603810190610215919061289e565b6105c0565b005b610236600480360381019061023191906128de565b6106d7565b005b610252600480360381019061024d919061289e565b610737565b005b61026e600480360381019061026991906128de565b6108e0565b005b61028a60048036038101906102859190612847565b610900565b6040516102979190612883565b60405180910390f35b6102ba60048036038101906102b59190612732565b610986565b6040516102c79190612940565b60405180910390f35b6102d8610a3d565b005b6102f460048036038101906102ef9190612732565b610a51565b6040516103019190612a19565b60405180910390f35b610312610ae8565b60405161031f9190612883565b60405180910390f35b610330610b12565b60405161033d9190612940565b60405180910390f35b61034e610b18565b60405161035b91906127ef565b60405180910390f35b61037e60048036038101906103799190612a67565b610baa565b005b61039a60048036038101906103959190612bdc565b610bc0565b005b6103b660048036038101906103b19190612847565b610c22565b6040516103c391906127ef565b60405180910390f35b6103e660048036038101906103e19190612c5f565b610c8a565b005b61040260048036038101906103fd9190612847565b610e2c565b60405161040f91906126b9565b60405180910390f35b610432600480360381019061042d9190612847565b610e93565b005b61044e60048036038101906104499190612c9f565b610f95565b60405161045b91906126b9565b60405180910390f35b61047e60048036038101906104799190612732565b611029565b005b600061048b826110ac565b9050919050565b6000600860008373ffffffffffffffffffffffffffffffffffffffff1673ffffffffffffffffffffffffffffffffffffffff16815260200190815260200160002060009054906101000a900460ff169050919050565b6060600080546104f790612d0e565b80601f016020809104026020016040519081016040528092919081815260200182805461052390612d0e565b80156105705780601f1061054557610100808354040283529160200191610570565b820191906000526020600020905b81548152906001019060200180831161055357829003601f168201915b5050505050905090565b60006105858261118e565b6004600083815260200190815260200160002060009054906101000a900473ffffffffffffffffffffffffffffffffffffffff169050919050565b60006105cb82610900565b90508073ffffffffffffffffffffffffffffffffffffffff168373ffffffffffffffffffffffffffffffffffffffff160361063b576040517f08c379a000000000000000000000000000000000000000000000000000000000815260040161063290612db1565b60405180910390fd5b8073ffffffffffffffffffffffffffffffffffffffff1661065a6111d9565b73ffffffffffffffffffffffffffffffffffffffff1614806106895750610688816106836111d9565b610f95565b5b6106c8576040517f08c379a00000000000000000000000000000000000000000000000000000000081526004016106bf90612e43565b60405180910390fd5b6106d283836111e1565b505050565b6106e86106e26111d9565b8261129a565b610727576040517f08c379a000000000000000000000000000000000000000000000000000000000815260040161071e90612ed5565b60405180910390fd5b61073283838361132f565b505050565b61073f611628565b600073ffffffffffffffffffffffffffffffffffffffff168273ffffffffffffffffffffffffffffffffffffffff16036107ae576040517f08c379a00000000000000000000000000000000000000000000000000000000081526004016107a590612f41565b60405180910390fd5b4281116107f0576040517f08c379a00000000000000000000000000000000000000000000000000000000081526004016107e790612fad565b60405180910390fd5b6000600754905060016007600082825461080a9190612ffc565b9250508190555081600960008381526020019081526020016000208190555061083383826116a6565b6001600860008573ffffffffffffffffffffffffffffffffffffffff1673ffffffffffffffffffffffffffffffffffffffff16815260200190815260200160002060006101000a81548160ff0219169083151502179055508273ffffffffffffffffffffffffffffffffffffffff167f655ff37b06d138fc26fda07d435a40368e63b8d3cbd7835215334ff9e7fcd78282846040516108d3929190613030565b60405180910390a2505050565b6108fb83838360405180602001604052806000815250610bc0565b505050565b60008061090c836116c4565b9050600073ffffffffffffffffffffffffffffffffffffffff168173ffffffffffffffffffffffffffffffffffffffff160361097d576040517f08c379a0000000000000000000000000000000000000000000000000000000008152600401610974906130a5565b60405180910390fd5b80915050919050565b60008073ffffffffffffffffffffffffffffffffffffffff168273ffffffffffffffffffffffffffffffffffffffff16036109f6576040517f08c379a00000000000000000000000000000000000000000000000000000000081526004016109ed90613137565b60405180910390fd5b600360008373ffffffffffffffffffffffffffffffffffffffff1673ffffffffffffffffffffffffffffffffffffffff168152602001908152602001600020549050919050565b610a45611628565b610a4f6000611701565b565b6060600a60008373ffffffffffffffffffffffffffffffffffffffff1673ffffffffffffffffffffffffffffffffffffffff168152602001908152602001600020805480602002602001604051908101604052809291908181526020018280548015610adc57602002820191906000526020600020905b815481526020019060010190808311610ac8575b50505050509050919050565b6000600660009054906101000a900473ffffffffffffffffffffffffffffffffffffffff16905090565b60075481565b606060018054610b2790612d0e565b80601f0160208091040260200160405190810160405280929190818152602001828054610b5390612d0e565b8015610ba05780601f10610b7557610100808354040283529160200191610ba0565b820191906000526020600020905b815481529060010190602001808311610b8357829003601f168201915b5050505050905090565b610bbc610bb56111d9565b83836117c7565b5050565b610bd1610bcb6111d9565b8361129a565b610c10576040517f08c379a0000000000000000000000000000000000000000000000000000000008152600401610c0790612ed5565b60405180910390fd5b610c1c84848484611933565b50505050565b6060610c2d8261118e565b6000610c3761198f565b90506000815111610c575760405180602001604052806000815250610c82565b80610c61846119a6565b604051602001610c72929190613193565b6040516020818303038152906040525b915050919050565b610c92611628565b610c9b82611a74565b610cda576040517f08c379a0000000000000000000000000000000000000000000000000000000008152600401610cd190613203565b60405180910390fd5b428111610d1c576040517f08c379a0000000000000000000000000000000000000000000000000000000008152600401610d1390612fad565b60405180910390fd5b60096000838152602001908152602001600020548111610d71576040517f08c379a0000000000000000000000000000000000000000000000000000000008152600401610d6890613295565b60405180910390fd5b8060096000848152602001908152602001600020819055506000610d9483610900565b90506001600860008373ffffffffffffffffffffffffffffffffffffffff1673ffffffffffffffffffffffffffffffffffffffff16815260200190815260200160002060006101000a81548160ff0219169083151502179055507f0db48b23ad6f04f212b5fddef4017753a195535f0d61c4daa790b4f70f28c07f8383604051610e1f929190613030565b60405180910390a1505050565b6000610e3782611a74565b610e76576040517f08c379a0000000000000000000000000000000000000000000000000000000008152600401610e6d90613203565b60405180910390fd5b600960008381526020019081526020016000205442119050919050565b610e9b611628565b610ea481611a74565b610ee3576040517f08c379a0000000000000000000000000000000000000000000000000000000008152600401610eda90613203565b60405180910390fd5b610eec81610e2c565b15610f2c576040517f08c379a0000000000000000000000000000000000000000000000000000000008152600401610f2390613301565b60405180910390fd5b4260096000838152602001908152602001600020819055506000610f4f82610900565b9050610f5a81611ab5565b7f754f3aa765fa1f221ea409fddea972deff6ce410d141d5cded4fc7ec690710c082604051610f899190612940565b60405180910390a15050565b6000600560008473ffffffffffffffffffffffffffffffffffffffff1673ffffffffffffffffffffffffffffffffffffffff16815260200190815260200160002060008373ffffffffffffffffffffffffffffffffffffffff1673ffffffffffffffffffffffffffffffffffffffff16815260200190815260200160002060009054906101000a900460ff16905092915050565b611031611628565b600073ffffffffffffffffffffffffffffffffffffffff168173ffffffffffffffffffffffffffffffffffffffff16036110a0576040517f08c379a000000000000000000000000000000000000000000000000000000000815260040161109790613393565b60405180910390fd5b6110a981611701565b50565b60007f80ac58cd000000000000000000000000000000000000000000000000000000007bffffffffffffffffffffffffffffffffffffffffffffffffffffffff1916827bffffffffffffffffffffffffffffffffffffffffffffffffffffffff1916148061117757507f5b5e139f000000000000000000000000000000000000000000000000000000007bffffffffffffffffffffffffffffffffffffffffffffffffffffffff1916827bffffffffffffffffffffffffffffffffffffffffffffffffffffffff1916145b80611187575061118682611ba5565b5b9050919050565b61119781611a74565b6111d6576040517f08c379a00000000000000000000000000000000000000000000000000000000081526004016111cd906130a5565b60405180910390fd5b50565b600033905090565b816004600083815260200190815260200160002060006101000a81548173ffffffffffffffffffffffffffffffffffffffff021916908373ffffffffffffffffffffffffffffffffffffffff160217905550808273ffffffffffffffffffffffffffffffffffffffff1661125483610900565b73ffffffffffffffffffffffffffffffffffffffff167f8c5be1e5ebec7d5bd14f71427d1e84f3dd0314c0f7b2291e5b200ac8c7c3b92560405160405180910390a45050565b6000806112a683610900565b90508073ffffffffffffffffffffffffffffffffffffffff168473ffffffffffffffffffffffffffffffffffffffff1614806112e857506112e78185610f95565b5b8061132657508373ffffffffffffffffffffffffffffffffffffffff1661130e8461057a565b73ffffffffffffffffffffffffffffffffffffffff16145b91505092915050565b8273ffffffffffffffffffffffffffffffffffffffff1661134f82610900565b73ffffffffffffffffffffffffffffffffffffffff16146113a5576040517f08c379a000000000000000000000000000000000000000000000000000000000815260040161139c90613425565b60405180910390fd5b600073ffffffffffffffffffffffffffffffffffffffff168273ffffffffffffffffffffffffffffffffffffffff1603611414576040517f08c379a000000000000000000000000000000000000000000000000000000000815260040161140b906134b7565b60405180910390fd5b6114218383836001611c0f565b8273ffffffffffffffffffffffffffffffffffffffff1661144182610900565b73ffffffffffffffffffffffffffffffffffffffff1614611497576040517f08c379a000000000000000000000000000000000000000000000000000000000815260040161148e90613425565b60405180910390fd5b6004600082815260200190815260200160002060006101000a81549073ffffffffffffffffffffffffffffffffffffffff02191690556001600360008573ffffffffffffffffffffffffffffffffffffffff1673ffffffffffffffffffffffffffffffffffffffff168152602001908152602001600020600082825403925050819055506001600360008473ffffffffffffffffffffffffffffffffffffffff1673ffffffffffffffffffffffffffffffffffffffff16815260200190815260200160002060008282540192505081905550816002600083815260200190815260200160002060006101000a81548173ffffffffffffffffffffffffffffffffffffffff021916908373ffffffffffffffffffffffffffffffffffffffff160217905550808273ffffffffffffffffffffffffffffffffffffffff168473ffffffffffffffffffffffffffffffffffffffff167fddf252ad1be2c89b69c2b068fc378daa952ba7f163c4a11628f55a4df523b3ef60405160405180910390a46116238383836001611df2565b505050565b6116306111d9565b73ffffffffffffffffffffffffffffffffffffffff1661164e610ae8565b73ffffffffffffffffffffffffffffffffffffffff16146116a4576040517f08c379a000000000000000000000000000000000000000000000000000000000815260040161169b90613523565b60405180910390fd5b565b6116c0828260405180602001604052806000815250611df8565b5050565b60006002600083815260200190815260200160002060009054906101000a900473ffffffffffffffffffffffffffffffffffffffff169050919050565b6000600660009054906101000a900473ffffffffffffffffffffffffffffffffffffffff16905081600660006101000a81548173ffffffffffffffffffffffffffffffffffffffff021916908373ffffffffffffffffffffffffffffffffffffffff1602179055508173ffffffffffffffffffffffffffffffffffffffff168173ffffffffffffffffffffffffffffffffffffffff167f8be0079c531659141344cd1fd0a4f28419497f9722a3daafe3b4186f6b6457e060405160405180910390a35050565b8173ffffffffffffffffffffffffffffffffffffffff168373ffffffffffffffffffffffffffffffffffffffff1603611835576040517f08c379a000000000000000000000000000000000000000000000000000000000815260040161182c9061358f565b60405180910390fd5b80600560008573ffffffffffffffffffffffffffffffffffffffff1673ffffffffffffffffffffffffffffffffffffffff16815260200190815260200160002060008473ffffffffffffffffffffffffffffffffffffffff1673ffffffffffffffffffffffffffffffffffffffff16815260200190815260200160002060006101000a81548160ff0219169083151502179055508173ffffffffffffffffffffffffffffffffffffffff168373ffffffffffffffffffffffffffffffffffffffff167f17307eab39ab6107e8899845ad3d59bd9653f200f220920489ca2b5937696c318360405161192691906126b9565b60405180910390a3505050565b61193e84848461132f565b61194a84848484611e53565b611989576040517f08c379a000000000000000000000000000000000000000000000000000000000815260040161198090613621565b60405180910390fd5b50505050565b606060405180602001604052806000815250905090565b6060600060016119b584611fda565b01905060008167ffffffffffffffff8111156119d4576119d3612ab1565b5b6040519080825280601f01601f191660200182016040528015611a065781602001600182028036833780820191505090505b509050600082602001820190505b600115611a69578080600190039150507f3031323334353637383961626364656600000000000000000000000000000000600a86061a8153600a8581611a5d57611a5c613641565b5b04945060008503611a14575b819350505050919050565b60008073ffffffffffffffffffffffffffffffffffffffff16611a96836116c4565b73ffffffffffffffffffffffffffffffffffffffff1614159050919050565b6000600a60008373ffffffffffffffffffffffffffffffffffffffff1673ffffffffffffffffffffffffffffffffffffffff16815260200190815260200160002090506000805b8280549050811015611b4857611b2e838281548110611b1e57611b1d613670565b5b9060005260206000200154610e2c565b611b3b5760019150611b48565b8080600101915050611afc565b5080600860008573ffffffffffffffffffffffffffffffffffffffff1673ffffffffffffffffffffffffffffffffffffffff16815260200190815260200160002060006101000a81548160ff021916908315150217905550505050565b60007f01ffc9a7000000000000000000000000000000000000000000000000000000007bffffffffffffffffffffffffffffffffffffffffffffffffffffffff1916827bffffffffffffffffffffffffffffffffffffffffffffffffffffffff1916149050919050565b611c1b8484848461212d565b600073ffffffffffffffffffffffffffffffffffffffff168473ffffffffffffffffffffffffffffffffffffffff1603611cb657611c598383612133565b6001600860008573ffffffffffffffffffffffffffffffffffffffff1673ffffffffffffffffffffffffffffffffffffffff16815260200190815260200160002060006101000a81548160ff021916908315150217905550611d87565b600073ffffffffffffffffffffffffffffffffffffffff168373ffffffffffffffffffffffffffffffffffffffff1603611d0257611cf484836121f7565b611cfd84611ab5565b611d86565b611d0c84836121f7565b611d168383612133565b611d1f84611ab5565b611d2882610e2c565b611d85576001600860008573ffffffffffffffffffffffffffffffffffffffff1673ffffffffffffffffffffffffffffffffffffffff16815260200190815260200160002060006101000a81548160ff0219169083151502179055505b5b5b8273ffffffffffffffffffffffffffffffffffffffff168473ffffffffffffffffffffffffffffffffffffffff167feecb8536690bf53bbf07235b6e68e985f8d56c973efa344822b45386fb52bdcc84604051611de49190612940565b60405180910390a350505050565b50505050565b611e0283836123c5565b611e0f6000848484611e53565b611e4e576040517f08c379a0000000000000000000000000000000000000000000000000000000008152600401611e4590613621565b60405180910390fd5b505050565b6000611e748473ffffffffffffffffffffffffffffffffffffffff166125e2565b15611fcd578373ffffffffffffffffffffffffffffffffffffffff1663150b7a02611e9d6111d9565b8786866040518563ffffffff1660e01b8152600401611ebf94939291906136f4565b6020604051808303816000875af1925050508015611efb57506040513d601f19601f82011682018060405250810190611ef89190613755565b60015b611f7d573d8060008114611f2b576040519150601f19603f3d011682016040523d82523d6000602084013e611f30565b606091505b506000815103611f75576040517f08c379a0000000000000000000000000000000000000000000000000000000008152600401611f6c90613621565b60405180910390fd5b805181602001fd5b63150b7a0260e01b7bffffffffffffffffffffffffffffffffffffffffffffffffffffffff1916817bffffffffffffffffffffffffffffffffffffffffffffffffffffffff191614915050611fd2565b600190505b949350505050565b600080600090507a184f03e93ff9f4daa797ed6e38ed64bf6a1f0100000000000000008310612038577a184f03e93ff9f4daa797ed6e38ed64bf6a1f010000000000000000838161202e5761202d613641565b5b0492506040810190505b6d04ee2d6d415b85acef81000000008310612075576d04ee2d6d415b85acef8100000000838161206b5761206a613641565b5b0492506020810190505b662386f26fc1000083106120a457662386f26fc10000838161209a57612099613641565b5b0492506010810190505b6305f5e10083106120cd576305f5e10083816120c3576120c2613641565b5b0492506008810190505b61271083106120f25761271083816120e8576120e7613641565b5b0492506004810190505b60648310612115576064838161210b5761210a613641565b5b0492506002810190505b600a8310612124576001810190505b80915050919050565b50505050565b600a60008373ffffffffffffffffffffffffffffffffffffffff1673ffffffffffffffffffffffffffffffffffffffff16815260200190815260200160002080549050600b600083815260200190815260200160002081905550600a60008373ffffffffffffffffffffffffffffffffffffffff1673ffffffffffffffffffffffffffffffffffffffff1681526020019081526020016000208190806001815401808255809150506001900390600052602060002001600090919091909150555050565b60006001600a60008573ffffffffffffffffffffffffffffffffffffffff1673ffffffffffffffffffffffffffffffffffffffff168152602001908152602001600020805490506122489190613782565b90506000600b6000848152602001908152602001600020549050818114612343576000600a60008673ffffffffffffffffffffffffffffffffffffffff1673ffffffffffffffffffffffffffffffffffffffff16815260200190815260200160002083815481106122bc576122bb613670565b5b9060005260206000200154905080600a60008773ffffffffffffffffffffffffffffffffffffffff1673ffffffffffffffffffffffffffffffffffffffff168152602001908152602001600020838154811061231b5761231a613670565b5b906000526020600020018190555081600b600083815260200190815260200160002081905550505b600a60008573ffffffffffffffffffffffffffffffffffffffff1673ffffffffffffffffffffffffffffffffffffffff168152602001908152602001600020805480612392576123916137b6565b5b60019003818190600052602060002001600090559055600b60008481526020019081526020016000206000905550505050565b600073ffffffffffffffffffffffffffffffffffffffff168273ffffffffffffffffffffffffffffffffffffffff1603612434576040517f08c379a000000000000000000000000000000000000000000000000000000000815260040161242b90613831565b60405180910390fd5b61243d81611a74565b1561247d576040517f08c379a00000000000000000000000000000000000000000000000000000000081526004016124749061389d565b60405180910390fd5b61248b600083836001611c0f565b61249481611a74565b156124d4576040517f08c379a00000000000000000000000000000000000000000000000000000000081526004016124cb9061389d565b60405180910390fd5b6001600360008473ffffffffffffffffffffffffffffffffffffffff1673ffffffffffffffffffffffffffffffffffffffff16815260200190815260200160002060008282540192505081905550816002600083815260200190815260200160002060006101000a81548173ffffffffffffffffffffffffffffffffffffffff021916908373ffffffffffffffffffffffffffffffffffffffff160217905550808273ffffffffffffffffffffffffffffffffffffffff16600073ffffffffffffffffffffffffffffffffffffffff167fddf252ad1be2c89b69c2b068fc378daa952ba7f163c4a11628f55a4df523b3ef60405160405180910390a46125de600083836001611df2565b5050565b6000808273ffffffffffffffffffffffffffffffffffffffff163b119050919050565b6000604051905090565b600080fd5b600080fd5b60007fffffffff0000000000000000000000000000000000000000000000000000000082169050919050565b61264e81612619565b811461265957600080fd5b50565b60008135905061266b81612645565b92915050565b6000602082840312156126875761268661260f565b5b60006126958482850161265c565b91505092915050565b60008115159050919050565b6126b38161269e565b82525050565b60006020820190506126ce60008301846126aa565b92915050565b600073ffffffffffffffffffffffffffffffffffffffff82169050919050565b60006126ff826126d4565b9050919050565b61270f816126f4565b811461271a57600080fd5b50565b60008135905061272c81612706565b92915050565b6000602082840312156127485761274761260f565b5b60006127568482850161271d565b91505092915050565b600081519050919050565b600082825260208201905092915050565b60005b8381101561279957808201518184015260208101905061277e565b60008484015250505050565b6000601f19601f8301169050919050565b60006127c18261275f565b6127cb818561276a565b93506127db81856020860161277b565b6127e4816127a5565b840191505092915050565b6000602082019050818103600083015261280981846127b6565b905092915050565b6000819050919050565b61282481612811565b811461282f57600080fd5b50565b6000813590506128418161281b565b92915050565b60006020828403121561285d5761285c61260f565b5b600061286b84828501612832565b91505092915050565b61287d816126f4565b82525050565b60006020820190506128986000830184612874565b92915050565b600080604083850312156128b5576128b461260f565b5b60006128c38582860161271d565b92505060206128d485828601612832565b9150509250929050565b6000806000606084860312156128f7576128f661260f565b5b60006129058682870161271d565b93505060206129168682870161271d565b925050604061292786828701612832565b9150509250925092565b61293a81612811565b82525050565b60006020820190506129556000830184612931565b92915050565b600081519050919050565b600082825260208201905092915050565b6000819050602082019050919050565b61299081612811565b82525050565b60006129a28383612987565b60208301905092915050565b6000602082019050919050565b60006129c68261295b565b6129d08185612966565b93506129db83612977565b8060005b83811015612a0c5781516129f38882612996565b97506129fe836129ae565b9250506001810190506129df565b5085935050505092915050565b60006020820190508181036000830152612a3381846129bb565b905092915050565b612a448161269e565b8114612a4f57600080fd5b50565b600081359050612a6181612a3b565b92915050565b60008060408385031215612a7e57612a7d61260f565b5b6000612a8c8582860161271d565b9250506020612a9d85828601612a52565b9150509250929050565b600080fd5b600080fd5b7f4e487b7100000000000000000000000000000000000000000000000000000000600052604160045260246000fd5b612ae9826127a5565b810181811067ffffffffffffffff82111715612b0857612b07612ab1565b5b80604052505050565b6000612b1b612605565b9050612b278282612ae0565b919050565b600067ffffffffffffffff821115612b4757612b46612ab1565b5b612b50826127a5565b9050602081019050919050565b82818337600083830152505050565b6000612b7f612b7a84612b2c565b612b11565b905082815260208101848484011115612b9b57612b9a612aac565b5b612ba6848285612b5d565b509392505050565b600082601f830112612bc357612bc2612aa7565b5b8135612bd3848260208601612b6c565b91505092915050565b60008060008060808587031215612bf657612bf561260f565b5b6000612c048782880161271d565b9450506020612c158782880161271d565b9350506040612c2687828801612832565b925050606085013567ffffffffffffffff811115612c4757612c46612614565b5b612c5387828801612bae565b91505092959194509250565b60008060408385031215612c7657612c7561260f565b5b6000612c8485828601612832565b9250506020612c9585828601612832565b9150509250929050565b60008060408385031215612cb657612cb561260f565b5b6000612cc48582860161271d565b9250506020612cd58582860161271d565b9150509250929050565b7f4e487b7100000000000000000000000000000000000000000000000000000000600052602260045260246000fd5b60006002820490506001821680612d2657607f821691505b602082108103612d3957612d38612cdf565b5b50919050565b7f4552433732313a20617070726f76616c20746f2063757272656e74206f776e6560008201527f7200000000000000000000000000000000000000000000000000000000000000602082015250565b6000612d9b60218361276a565b9150612da682612d3f565b604082019050919050565b60006020820190508181036000830152612dca81612d8e565b9050919050565b7f4552433732313a20617070726f76652063616c6c6572206973206e6f7420746f60008201527f6b656e206f776e6572206f7220617070726f76656420666f7220616c6c000000602082015250565b6000612e2d603d8361276a565b9150612e3882612dd1565b604082019050919050565b60006020820190508181036000830152612e5c81612e20565b9050919050565b7f4552433732313a2063616c6c6572206973206e6f7420746f6b656e206f776e6560008201527f72206f7220617070726f76656400000000000000000000000000000000000000602082015250565b6000612ebf602d8361276a565b9150612eca82612e63565b604082019050919050565b60006020820190508181036000830152612eee81612eb2565b9050919050565b7f43616e6e6f74206d696e7420746f207a65726f20616464726573730000000000600082015250565b6000612f2b601b8361276a565b9150612f3682612ef5565b602082019050919050565b60006020820190508181036000830152612f5a81612f1e565b9050919050565b7f45787069726174696f6e206d75737420626520696e2074686520667574757265600082015250565b6000612f9760208361276a565b9150612fa282612f61565b602082019050919050565b60006020820190508181036000830152612fc681612f8a565b9050919050565b7f4e487b7100000000000000000000000000000000000000000000000000000000600052601160045260246000fd5b600061300782612811565b915061301283612811565b925082820190508082111561302a57613029612fcd565b5b92915050565b60006040820190506130456000830185612931565b6130526020830184612931565b9392505050565b7f4552433732313a20696e76616c696420746f6b656e2049440000000000000000600082015250565b600061308f60188361276a565b915061309a82613059565b602082019050919050565b600060208201905081810360008301526130be81613082565b9050919050565b7f4552433732313a2061646472657373207a65726f206973206e6f74206120766160008201527f6c6964206f776e65720000000000000000000000000000000000000000000000602082015250565b600061312160298361276a565b915061312c826130c5565b604082019050919050565b6000602082019050818103600083015261315081613114565b9050919050565b600081905092915050565b600061316d8261275f565b6131778185613157565b935061318781856020860161277b565b80840191505092915050565b600061319f8285613162565b91506131ab8284613162565b91508190509392505050565b7f546f6b656e20646f6573206e6f74206578697374000000000000000000000000600082015250565b60006131ed60148361276a565b91506131f8826131b7565b602082019050919050565b6000602082019050818103600083015261321c816131e0565b9050919050565b7f4e65772065787069726174696f6e206d757374206265206c617465722074686160008201527f6e2063757272656e740000000000000000000000000000000000000000000000602082015250565b600061327f60298361276a565b915061328a82613223565b604082019050919050565b600060208201905081810360008301526132ae81613272565b9050919050565b7f546f6b656e20616c726561647920657870697265640000000000000000000000600082015250565b60006132eb60158361276a565b91506132f6826132b5565b602082019050919050565b6000602082019050818103600083015261331a816132de565b9050919050565b7f4f776e61626c653a206e6577206f776e657220697320746865207a65726f206160008201527f6464726573730000000000000000000000000000000000000000000000000000602082015250565b600061337d60268361276a565b915061338882613321565b604082019050919050565b600060208201905081810360008301526133ac81613370565b9050919050565b7f4552433732313a207472616e736665722066726f6d20696e636f72726563742060008201527f6f776e6572000000000000000000000000000000000000000000000000000000602082015250565b600061340f60258361276a565b915061341a826133b3565b604082019050919050565b6000602082019050818103600083015261343e81613402565b9050919050565b7f4552433732313a207472616e7366657220746f20746865207a65726f2061646460008201527f7265737300000000000000000000000000000000000000000000000000000000602082015250565b60006134a160248361276a565b91506134ac82613445565b604082019050919050565b600060208201905081810360008301526134d081613494565b9050919050565b7f4f776e61626c653a2063616c6c6572206973206e6f7420746865206f776e6572600082015250565b600061350d60208361276a565b9150613518826134d7565b602082019050919050565b6000602082019050818103600083015261353c81613500565b9050919050565b7f4552433732313a20617070726f766520746f2063616c6c657200000000000000600082015250565b600061357960198361276a565b915061358482613543565b602082019050919050565b600060208201905081810360008301526135a88161356c565b9050919050565b7f4552433732313a207472616e7366657220746f206e6f6e20455243373231526560008201527f63656976657220696d706c656d656e7465720000000000000000000000000000602082015250565b600061360b60328361276a565b9150613616826135af565b604082019050919050565b6000602082019050818103600083015261363a816135fe565b9050919050565b7f4e487b7100000000000000000000000000000000000000000000000000000000600052601260045260246000fd5b7f4e487b7100000000000000000000000000000000000000000000000000000000600052603260045260246000fd5b600081519050919050565b600082825260208201905092915050565b60006136c68261369f565b6136d081856136aa565b93506136e081856020860161277b565b6136e9816127a5565b840191505092915050565b60006080820190506137096000830187612874565b6137166020830186612874565b6137236040830185612931565b818103606083015261373581846136bb565b905095945050505050565b60008151905061374f81612645565b92915050565b60006020828403121561376b5761376a61260f565b5b600061377984828501613740565b91505092915050565b600061378d82612811565b915061379883612811565b92508282039050818111156137b0576137af612fcd565b5b92915050565b7f4e487b7100000000000000000000000000000000000000000000000000000000600052603160045260246000fd5b7f4552433732313a206d696e7420746f20746865207a65726f2061646472657373600082015250565b600061381b60208361276a565b9150613826826137e5565b602082019050919050565b6000602082019050818103600083015261384a8161380e565b9050919050565b7f4552433732313a20746f6b656e20616c7265616479206d696e74656400000000600082015250565b6000613887601c8361276a565b915061389282613851565b602082019050919050565b600060208201905081810360008301526138b68161387a565b905091905056fea2646970667358221220741a9156a9cf6e10524292e06f327f53292e5eee177e4b94b0ec4f915479ce4664736f6c634300081b0033",
  "linkReferences": {},
  "deployedLinkReferences": {}
}