{
  "_format": "hh-sol-artifact-1",
  "contractName": "MerchantToken",
  "sourceName": "contracts/MerchantToken.sol",
  "abi": [
    {
      "inputs": [],
      "stateMutability": "nonpayable",
      "type": "constructor"
    },
    {
      "anonymous": false,
      "inputs": [
        {
          "indexed": true,
          "internalType": "address",
          "name": "owner",
          "type": "address"
        },
        {
          "indexed": true,
          "internalType": "address",
          "name": "approved",
          "type": "address"
        },
        {
          "indexed": true,
          "internalType": "uint256",
          "name": "tokenId",
          "type": "uint256"
        }
      ],
      "name": "Approval",
      "type": "event"
    },
    {
      "anonymous": false,
      "inputs": [
        {
          "indexed": true,
          "internalType": "address",
          "name": "owner",
          "type": "address"
        },
        {
          "indexed": true,
          "internalType": "address",
          "name": "operator",
          "type": "address"
        },
        {
          "indexed": false,
          "internalType": "bool",
          "name": "approved",
          "type": "bool"
        }
      ],
      "name": "ApprovalForAll",
      "type": "event"
    },
    {
      "anonymous": false,
      "inputs": [
        {
          "indexed": false,
          "internalType": "uint256",
          "name": "tokenId",
          "type": "uint256"
        }
      ],
      "name": "MerchantTokenExpired",
      "type": "event"
    },
    {
      "anonymous": false,
      "inputs": [
        {
          "indexed": true,
          "internalType": "address",
          "name": "to",
          "type": "address"
        },
        {
          "indexed": false,
          "internalType": "uint256",
          "name": "tokenId",
          "type": "uint256"
        },
        {
          "indexed": false,
          "internalType": "uint256",
          "name": "expiryTime",
          "type": "uint256"
        }
      ],
      "name": "MerchantTokenMinted",
      "type": "event"
    },
    {
      "anonymous": false,
      "inputs": [
        {
          "indexed": false,
          "internalType": "uint256",
          "name": "tokenId",
          "type": "uint256"
        },
        {
          "indexed": false,
          "internalType": "uint256",
          "name": "newExpirationTimestamp",
          "type": "uint256"
        }
      ],
      "name": "MerchantTokenRenewed",
      "type": "event"
    },
    {
      "anonymous": false,
      "inputs": [
        {
          "indexed": true,
          "internalType": "address",
          "name": "previousOwner",
          "type": "address"
        },
        {
          "indexed": true,
          "internalType": "address",
          "name": "newOwner",
          "type": "address"
        }
      ],
      "name": "OwnershipTransferred",
      "type": "event"
    },
    {
      "anonymous": false,
      "inputs": [
        {
          "indexed": true,
          "internalType": "address",
          "name": "from",
          "type": "address"
        },
        {
          "indexed": true,
          "internalType": "address",
          "name": "to",
          "type": "address"
        },
        {
          "indexed": true,
          "internalType": "uint256",
          "name": "tokenId",
          "type": "uint256"
        }
      ],
      "name": "Transfer",
      "type": "event"
    },
    {
      "inputs": [],
      "name": "_tokenCounter",
      "outputs": [
        {
          "internalType": "uint256",
          "name": "",
          "type": "uint256"
        }
      ],
      "stateMutability": "view",
      "type": "function"
    },
    {
      "inputs": [
        {
          "internalType": "uint256",
          "name": "tokenId",
          "type": "uint256"
        },
        {
          "internalType": "uint256",
          "name": "additionalTime",
          "type": "uint256"
        }
      ],
      "name": "addExpirationTime",
      "outputs": [],
      "stateMutability": "nonpayable",
      "type": "function"
    },
    {
      "inputs": [
        {
          "internalType": "address",
          "name": "to",
          "type": "address"
        },
        {
          "internalType": "uint256",
          "name": "tokenId",
          "type": "uint256"
        }
      ],
      "name": "approve",
      "outputs": [],
      "stateMutability": "nonpayable",
      "type": "function"
    },
    {
      "inputs": [
        {
          "internalType": "address",
          "name": "owner",
          "type": "address"
        }
      ],
      "name": "balanceOf",
      "outputs": [
        {
          "internalType": "uint256",
          "name": "",
          "type": "uint256"
        }
      ],
      "stateMutability": "view",
      "type": "function"
    },
    {
      "inputs": [],
      "name": "burn",
      "outputs": [],
      "stateMutability": "nonpayable",
      "type": "function"
    },
    {
      "inputs": [
        {
          "internalType": "uint256",
          "name": "tokenId",
          "type": "uint256"
        }
      ],
      "name": "getApproved",
      "outputs": [
        {
          "internalType": "address",
          "name": "",
          "type": "address"
        }
      ],
      "stateMutability": "view",
      "type": "function"
    },
    {
      "inputs": [
        {
          "internalType": "uint256",
          "name": "tokenId",
          "type": "uint256"
        }
      ],
      "name": "getExpirationTimestamp",
      "outputs": [
        {
          "internalType": "uint256",
          "name": "",
          "type": "uint256"
        }
      ],
      "stateMutability": "view",
      "type": "function"
    },
    {
      "inputs": [
        {
          "internalType": "address",
          "name": "owner",
          "type": "address"
        }
      ],
      "name": "getTokenIdByOwner",
      "outputs": [
        {
          "internalType": "uint256",
          "name": "",
          "type": "uint256"
        }
      ],
      "stateMutability": "view",
      "type": "function"
    },
    {
      "inputs": [
        {
          "internalType": "address",
          "name": "user",
          "type": "address"
        }
      ],
      "name": "hasValidMerchantToken",
      "outputs": [
        {
          "internalType": "bool",
          "name": "",
          "type": "bool"
        }
      ],
      "stateMutability": "view",
      "type": "function"
    },
    {
      "inputs": [
        {
          "internalType": "uint256",
          "name": "tokenId",
          "type": "uint256"
        }
      ],
      "name": "invalidateToken",
      "outputs": [],
      "stateMutability": "nonpayable",
      "type": "function"
    },
    {
      "inputs": [
        {
          "internalType": "address",
          "name": "owner",
          "type": "address"
        },
        {
          "internalType": "address",
          "name": "operator",
          "type": "address"
        }
      ],
      "name": "isApprovedForAll",
      "outputs": [
        {
          "internalType": "bool",
          "name": "",
          "type": "bool"
        }
      ],
      "stateMutability": "view",
      "type": "function"
    },
    {
      "inputs": [
        {
          "internalType": "uint256",
          "name": "tokenId",
          "type": "uint256"
        }
      ],
      "name": "isExpired",
      "outputs": [
        {
          "internalType": "bool",
          "name": "",
          "type": "bool"
        }
      ],
      "stateMutability": "view",
      "type": "function"
    },
    {
      "inputs": [
        {
          "internalType": "address",
          "name": "to",
          "type": "address"
        },
        {
          "internalType": "uint256",
          "name": "expirationTimestamp",
          "type": "uint256"
        }
      ],
      "name": "mint",
      "outputs": [],
      "stateMutability": "nonpayable",
      "type": "function"
    },
    {
      "inputs": [],
      "name": "name",
      "outputs": [
        {
          "internalType": "string",
          "name": "",
          "type": "string"
        }
      ],
      "stateMutability": "view",
      "type": "function"
    },
    {
      "inputs": [],
      "name": "owner",
      "outputs": [
        {
          "internalType": "address",
          "name": "",
          "type": "address"
        }
      ],
      "stateMutability": "view",
      "type": "function"
    },
    {
      "inputs": [
        {
          "internalType": "uint256",
          "name": "tokenId",
          "type": "uint256"
        }
      ],
      "name": "ownerOf",
      "outputs": [
        {
          "internalType": "address",
          "name": "",
          "type": "address"
        }
      ],
      "stateMutability": "view",
      "type": "function"
    },
    {
      "inputs": [],
      "name": "renounceOwnership",
      "outputs": [],
      "stateMutability": "nonpayable",
      "type": "function"
    },
    {
      "inputs": [
        {
          "internalType": "address",
          "name": "from",
          "type": "address"
        },
        {
          "internalType": "address",
          "name": "to",
          "type": "address"
        },
        {
          "internalType": "uint256",
          "name": "tokenId",
          "type": "uint256"
        }
      ],
      "name": "safeTransferFrom",
      "outputs": [],
      "stateMutability": "nonpayable",
      "type": "function"
    },
    {
      "inputs": [
        {
          "internalType": "address",
          "name": "from",
          "type": "address"
        },
        {
          "internalType": "address",
          "name": "to",
          "type": "address"
        },
        {
          "internalType": "uint256",
          "name": "tokenId",
          "type": "uint256"
        },
        {
          "internalType": "bytes",
          "name": "data",
          "type": "bytes"
        }
      ],
      "name": "safeTransferFrom",
      "outputs": [],
      "stateMutability": "nonpayable",
      "type": "function"
    },
    {
      "inputs": [
        {
          "internalType": "address",
          "name": "operator",
          "type": "address"
        },
        {
          "internalType": "bool",
          "name": "approved",
          "type": "bool"
        }
      ],
      "name": "setApprovalForAll",
      "outputs": [],
      "stateMutability": "nonpayable",
      "type": "function"
    },
    {
      "inputs": [
        {
          "internalType": "bytes4",
          "name": "interfaceId",
          "type": "bytes4"
        }
      ],
      "name": "supportsInterface",
      "outputs": [
        {
          "internalType": "bool",
          "name": "",
          "type": "bool"
        }
      ],
      "stateMutability": "view",
      "type": "function"
    },
    {
      "inputs": [],
      "name": "symbol",
      "outputs": [
        {
          "internalType": "string",
          "name": "",
          "type": "string"
        }
      ],
      "stateMutability": "view",
      "type": "function"
    },
    {
      "inputs": [
        {
          "internalType": "uint256",
          "name": "tokenId",
          "type": "uint256"
        }
      ],
      "name": "tokenURI",
      "outputs": [
        {
          "internalType": "string",
          "name": "",
          "type": "string"
        }
      ],
      "stateMutability": "view",
      "type": "function"
    },
    {
      "inputs": [
        {
          "internalType": "address",
          "name": "from",
          "type": "address"
        },
        {
          "internalType": "address",
          "name": "to",
          "type": "address"
        },
        {
          "internalType": "uint256",
          "name": "tokenId",
          "type": "uint256"
        }
      ],
      "name": "transferFrom",
      "outputs": [],
      "stateMutability": "nonpayable",
      "type": "function"
    },
    {
      "inputs": [
        {
          "internalType": "address",
          "name": "newOwner",
          "type": "address"
        }
      ],
      "name": "transferOwnership",
      "outputs": [],
      "stateMutability": "nonpayable",
      "type": "function"
    }
  ],
  "bytecode": "0x608060405234801561001057600080fd5b506040518060400160405280601781526020017f4c6974746572636f696e4d65726368616e74546f6b656e0000000000000000008152506040518060400160405280600481526020017f4c584d5400000000000000000000000000000000000000000000000000000000815250816000908161008c91906103e6565b50806001908161009c91906103e6565b5050506100bb6100b06100c860201b60201c565b6100d060201b60201c565b60016007819055506104b8565b600033905090565b6000600660009054906101000a900473ffffffffffffffffffffffffffffffffffffffff16905081600660006101000a81548173ffffffffffffffffffffffffffffffffffffffff021916908373ffffffffffffffffffffffffffffffffffffffff1602179055508173ffffffffffffffffffffffffffffffffffffffff168173ffffffffffffffffffffffffffffffffffffffff167f8be0079c531659141344cd1fd0a4f28419497f9722a3daafe3b4186f6b6457e060405160405180910390a35050565b600081519050919050565b7f4e487b7100000000000000000000000000000000000000000000000000000000600052604160045260246000fd5b7f4e487b7100000000000000000000000000000000000000000000000000000000600052602260045260246000fd5b6000600282049050600182168061021757607f821691505b60208210810361022a576102296101d0565b5b50919050565b60008190508160005260206000209050919050565b60006020601f8301049050919050565b600082821b905092915050565b6000600883026102927fffffffffffffffffffffffffffffffffffffffffffffffffffffffffffffffff82610255565b61029c8683610255565b95508019841693508086168417925050509392505050565b6000819050919050565b6000819050919050565b60006102e36102de6102d9846102b4565b6102be565b6102b4565b9050919050565b6000819050919050565b6102fd836102c8565b610311610309826102ea565b848454610262565b825550505050565b600090565b610326610319565b6103318184846102f4565b505050565b5b818110156103555761034a60008261031e565b600181019050610337565b5050565b601f82111561039a5761036b81610230565b61037484610245565b81016020851015610383578190505b61039761038f85610245565b830182610336565b50505b505050565b600082821c905092915050565b60006103bd6000198460080261039f565b1980831691505092915050565b60006103d683836103ac565b9150826002028217905092915050565b6103ef82610196565b67ffffffffffffffff811115610408576104076101a1565b5b61041282546101ff565b61041d828285610359565b600060209050601f831160018114610450576000841561043e578287015190505b61044885826103ca565b8655506104b0565b601f19841661045e86610230565b60005b8281101561048657848901518255600182019150602085019450602081019050610461565b868310156104a3578489015161049f601f8916826103ac565b8355505b6001600288020188555050505b505050505050565b613847806104c76000396000f3fe608060405234801561001057600080fd5b50600436106101735760003560e01c806370a08231116100de578063b88d4fde11610097578063d9e5896e11610071578063d9e5896e14610434578063e985e9c514610464578063ea55763314610494578063f2fde38b146104c457610173565b8063b88d4fde146103b8578063c87b56dd146103d4578063d9548e531461040457610173565b806370a0823114610308578063715018a6146103385780638da5cb5b146103425780639230b2bc1461036057806395d89b411461037e578063a22cb4651461039c57610173565b8063393ed91a11610130578063393ed91a1461025e57806340c10f191461027a578063425604d61461029657806342842e0e146102b257806344df8e70146102ce5780636352211e146102d857610173565b806301ffc9a71461017857806302556a29146101a857806306fdde03146101d8578063081812fc146101f6578063095ea7b31461022657806323b872dd14610242575b600080fd5b610192600480360381019061018d91906124f5565b6104e0565b60405161019f919061253d565b60405180910390f35b6101c260048036038101906101bd91906125b6565b6104f2565b6040516101cf919061253d565b60405180910390f35b6101e0610565565b6040516101ed9190612673565b60405180910390f35b610210600480360381019061020b91906126cb565b6105f7565b60405161021d9190612707565b60405180910390f35b610240600480360381019061023b9190612722565b61063d565b005b61025c60048036038101906102579190612762565b610754565b005b610278600480360381019061027391906126cb565b6107b4565b005b610294600480360381019061028f9190612722565b61089f565b005b6102b060048036038101906102ab91906127b5565b610a7f565b005b6102cc60048036038101906102c79190612762565b610b8c565b005b6102d6610bac565b005b6102f260048036038101906102ed91906126cb565b610c3f565b6040516102ff9190612707565b60405180910390f35b610322600480360381019061031d91906125b6565b610cc5565b60405161032f9190612804565b60405180910390f35b610340610d7c565b005b61034a610d90565b6040516103579190612707565b60405180910390f35b610368610dba565b6040516103759190612804565b60405180910390f35b610386610dc0565b6040516103939190612673565b60405180910390f35b6103b660048036038101906103b1919061284b565b610e52565b005b6103d260048036038101906103cd91906129c0565b610e68565b005b6103ee60048036038101906103e991906126cb565b610eca565b6040516103fb9190612673565b60405180910390f35b61041e600480360381019061041991906126cb565b610f32565b60405161042b919061253d565b60405180910390f35b61044e600480360381019061044991906126cb565b610f99565b60405161045b9190612804565b60405180910390f35b61047e60048036038101906104799190612a43565b610ffe565b60405161048b919061253d565b60405180910390f35b6104ae60048036038101906104a991906125b6565b611092565b6040516104bb9190612804565b60405180910390f35b6104de60048036038101906104d991906125b6565b611192565b005b60006104eb82611215565b9050919050565b600080600860008473ffffffffffffffffffffffffffffffffffffffff1673ffffffffffffffffffffffffffffffffffffffff168152602001908152602001600020549050600081148061054b575061054a81610f32565b5b1561055a576000915050610560565b60019150505b919050565b60606000805461057490612ab2565b80601f01602080910402602001604051908101604052809291908181526020018280546105a090612ab2565b80156105ed5780601f106105c2576101008083540402835291602001916105ed565b820191906000526020600020905b8154815290600101906020018083116105d057829003601f168201915b5050505050905090565b6000610602826112f7565b6004600083815260200190815260200160002060009054906101000a900473ffffffffffffffffffffffffffffffffffffffff169050919050565b600061064882610c3f565b90508073ffffffffffffffffffffffffffffffffffffffff168373ffffffffffffffffffffffffffffffffffffffff16036106b8576040517f08c379a00000000000000000000000000000000000000000000000000000000081526004016106af90612b55565b60405180910390fd5b8073ffffffffffffffffffffffffffffffffffffffff166106d7611342565b73ffffffffffffffffffffffffffffffffffffffff161480610706575061070581610700611342565b610ffe565b5b610745576040517f08c379a000000000000000000000000000000000000000000000000000000000815260040161073c90612be7565b60405180910390fd5b61074f838361134a565b505050565b61076561075f611342565b82611403565b6107a4576040517f08c379a000000000000000000000000000000000000000000000000000000000815260040161079b90612c79565b60405180910390fd5b6107af838383611498565b505050565b6107bc611791565b6107c58161180f565b610804576040517f08c379a00000000000000000000000000000000000000000000000000000000081526004016107fb90612ce5565b60405180910390fd5b61080d81610f32565b1561084d576040517f08c379a000000000000000000000000000000000000000000000000000000000815260040161084490612d51565b60405180910390fd5b4260096000838152602001908152602001600020819055507f754f3aa765fa1f221ea409fddea972deff6ce410d141d5cded4fc7ec690710c0816040516108949190612804565b60405180910390a150565b6108a7611791565b600073ffffffffffffffffffffffffffffffffffffffff168273ffffffffffffffffffffffffffffffffffffffff1603610916576040517f08c379a000000000000000000000000000000000000000000000000000000000815260040161090d90612dbd565b60405180910390fd5b428111610958576040517f08c379a000000000000000000000000000000000000000000000000000000000815260040161094f90612e4f565b60405180910390fd5b600061096383610cc5565b146109a3576040517f08c379a000000000000000000000000000000000000000000000000000000000815260040161099a90612ebb565b60405180910390fd5b600060075490506001600760008282546109bd9190612f0a565b925050819055508160096000838152602001908152602001600020819055506109e68382611850565b80600860008573ffffffffffffffffffffffffffffffffffffffff1673ffffffffffffffffffffffffffffffffffffffff168152602001908152602001600020819055508273ffffffffffffffffffffffffffffffffffffffff167f655ff37b06d138fc26fda07d435a40368e63b8d3cbd7835215334ff9e7fcd7828284604051610a72929190612f3e565b60405180910390a2505050565b610a87611791565b610a908261180f565b610acf576040517f08c379a0000000000000000000000000000000000000000000000000000000008152600401610ac690612ce5565b60405180910390fd5b60008111610b12576040517f08c379a0000000000000000000000000000000000000000000000000000000008152600401610b0990612fd9565b60405180910390fd5b80600960008481526020019081526020016000206000828254610b359190612f0a565b925050819055507f0db48b23ad6f04f212b5fddef4017753a195535f0d61c4daa790b4f70f28c07f826009600085815260200190815260200160002054604051610b80929190612f3e565b60405180910390a15050565b610ba783838360405180602001604052806000815250610e68565b505050565b6000600860003373ffffffffffffffffffffffffffffffffffffffff1673ffffffffffffffffffffffffffffffffffffffff16815260200190815260200160002054905060008103610c33576040517f08c379a0000000000000000000000000000000000000000000000000000000008152600401610c2a90613045565b60405180910390fd5b610c3c8161186e565b50565b600080610c4b836119bc565b9050600073ffffffffffffffffffffffffffffffffffffffff168173ffffffffffffffffffffffffffffffffffffffff1603610cbc576040517f08c379a0000000000000000000000000000000000000000000000000000000008152600401610cb3906130b1565b60405180910390fd5b80915050919050565b60008073ffffffffffffffffffffffffffffffffffffffff168273ffffffffffffffffffffffffffffffffffffffff1603610d35576040517f08c379a0000000000000000000000000000000000000000000000000000000008152600401610d2c90613143565b60405180910390fd5b600360008373ffffffffffffffffffffffffffffffffffffffff1673ffffffffffffffffffffffffffffffffffffffff168152602001908152602001600020549050919050565b610d84611791565b610d8e60006119f9565b565b6000600660009054906101000a900473ffffffffffffffffffffffffffffffffffffffff16905090565b60075481565b606060018054610dcf90612ab2565b80601f0160208091040260200160405190810160405280929190818152602001828054610dfb90612ab2565b8015610e485780601f10610e1d57610100808354040283529160200191610e48565b820191906000526020600020905b815481529060010190602001808311610e2b57829003601f168201915b5050505050905090565b610e64610e5d611342565b8383611abf565b5050565b610e79610e73611342565b83611403565b610eb8576040517f08c379a0000000000000000000000000000000000000000000000000000000008152600401610eaf90612c79565b60405180910390fd5b610ec484848484611c2b565b50505050565b6060610ed5826112f7565b6000610edf611c87565b90506000815111610eff5760405180602001604052806000815250610f2a565b80610f0984611c9e565b604051602001610f1a92919061319f565b6040516020818303038152906040525b915050919050565b6000610f3d8261180f565b610f7c576040517f08c379a0000000000000000000000000000000000000000000000000000000008152600401610f7390612ce5565b60405180910390fd5b600960008381526020019081526020016000205442119050919050565b6000610fa48261180f565b610fe3576040517f08c379a0000000000000000000000000000000000000000000000000000000008152600401610fda90612ce5565b60405180910390fd5b60096000838152602001908152602001600020549050919050565b6000600560008473ffffffffffffffffffffffffffffffffffffffff1673ffffffffffffffffffffffffffffffffffffffff16815260200190815260200160002060008373ffffffffffffffffffffffffffffffffffffffff1673ffffffffffffffffffffffffffffffffffffffff16815260200190815260200160002060009054906101000a900460ff16905092915050565b60008073ffffffffffffffffffffffffffffffffffffffff168273ffffffffffffffffffffffffffffffffffffffff1603611102576040517f08c379a00000000000000000000000000000000000000000000000000000000081526004016110f99061320f565b60405180910390fd5b6000600860008473ffffffffffffffffffffffffffffffffffffffff1673ffffffffffffffffffffffffffffffffffffffff16815260200190815260200160002054905060008103611189576040517f08c379a00000000000000000000000000000000000000000000000000000000081526004016111809061327b565b60405180910390fd5b80915050919050565b61119a611791565b600073ffffffffffffffffffffffffffffffffffffffff168173ffffffffffffffffffffffffffffffffffffffff1603611209576040517f08c379a00000000000000000000000000000000000000000000000000000000081526004016112009061330d565b60405180910390fd5b611212816119f9565b50565b60007f80ac58cd000000000000000000000000000000000000000000000000000000007bffffffffffffffffffffffffffffffffffffffffffffffffffffffff1916827bffffffffffffffffffffffffffffffffffffffffffffffffffffffff191614806112e057507f5b5e139f000000000000000000000000000000000000000000000000000000007bffffffffffffffffffffffffffffffffffffffffffffffffffffffff1916827bffffffffffffffffffffffffffffffffffffffffffffffffffffffff1916145b806112f057506112ef82611d6c565b5b9050919050565b6113008161180f565b61133f576040517f08c379a0000000000000000000000000000000000000000000000000000000008152600401611336906130b1565b60405180910390fd5b50565b600033905090565b816004600083815260200190815260200160002060006101000a81548173ffffffffffffffffffffffffffffffffffffffff021916908373ffffffffffffffffffffffffffffffffffffffff160217905550808273ffffffffffffffffffffffffffffffffffffffff166113bd83610c3f565b73ffffffffffffffffffffffffffffffffffffffff167f8c5be1e5ebec7d5bd14f71427d1e84f3dd0314c0f7b2291e5b200ac8c7c3b92560405160405180910390a45050565b60008061140f83610c3f565b90508073ffffffffffffffffffffffffffffffffffffffff168473ffffffffffffffffffffffffffffffffffffffff16148061145157506114508185610ffe565b5b8061148f57508373ffffffffffffffffffffffffffffffffffffffff16611477846105f7565b73ffffffffffffffffffffffffffffffffffffffff16145b91505092915050565b8273ffffffffffffffffffffffffffffffffffffffff166114b882610c3f565b73ffffffffffffffffffffffffffffffffffffffff161461150e576040517f08c379a00000000000000000000000000000000000000000000000000000000081526004016115059061339f565b60405180910390fd5b600073ffffffffffffffffffffffffffffffffffffffff168273ffffffffffffffffffffffffffffffffffffffff160361157d576040517f08c379a000000000000000000000000000000000000000000000000000000000815260040161157490613431565b60405180910390fd5b61158a8383836001611dd6565b8273ffffffffffffffffffffffffffffffffffffffff166115aa82610c3f565b73ffffffffffffffffffffffffffffffffffffffff1614611600576040517f08c379a00000000000000000000000000000000000000000000000000000000081526004016115f79061339f565b60405180910390fd5b6004600082815260200190815260200160002060006101000a81549073ffffffffffffffffffffffffffffffffffffffff02191690556001600360008573ffffffffffffffffffffffffffffffffffffffff1673ffffffffffffffffffffffffffffffffffffffff168152602001908152602001600020600082825403925050819055506001600360008473ffffffffffffffffffffffffffffffffffffffff1673ffffffffffffffffffffffffffffffffffffffff16815260200190815260200160002060008282540192505081905550816002600083815260200190815260200160002060006101000a81548173ffffffffffffffffffffffffffffffffffffffff021916908373ffffffffffffffffffffffffffffffffffffffff160217905550808273ffffffffffffffffffffffffffffffffffffffff168473ffffffffffffffffffffffffffffffffffffffff167fddf252ad1be2c89b69c2b068fc378daa952ba7f163c4a11628f55a4df523b3ef60405160405180910390a461178c8383836001611f08565b505050565b611799611342565b73ffffffffffffffffffffffffffffffffffffffff166117b7610d90565b73ffffffffffffffffffffffffffffffffffffffff161461180d576040517f08c379a00000000000000000000000000000000000000000000000000000000081526004016118049061349d565b60405180910390fd5b565b60008073ffffffffffffffffffffffffffffffffffffffff16611831836119bc565b73ffffffffffffffffffffffffffffffffffffffff1614159050919050565b61186a828260405180602001604052806000815250611f0e565b5050565b600061187982610c3f565b9050611889816000846001611dd6565b61189282610c3f565b90506004600083815260200190815260200160002060006101000a81549073ffffffffffffffffffffffffffffffffffffffff02191690556001600360008373ffffffffffffffffffffffffffffffffffffffff1673ffffffffffffffffffffffffffffffffffffffff168152602001908152602001600020600082825403925050819055506002600083815260200190815260200160002060006101000a81549073ffffffffffffffffffffffffffffffffffffffff021916905581600073ffffffffffffffffffffffffffffffffffffffff168273ffffffffffffffffffffffffffffffffffffffff167fddf252ad1be2c89b69c2b068fc378daa952ba7f163c4a11628f55a4df523b3ef60405160405180910390a46119b8816000846001611f08565b5050565b60006002600083815260200190815260200160002060009054906101000a900473ffffffffffffffffffffffffffffffffffffffff169050919050565b6000600660009054906101000a900473ffffffffffffffffffffffffffffffffffffffff16905081600660006101000a81548173ffffffffffffffffffffffffffffffffffffffff021916908373ffffffffffffffffffffffffffffffffffffffff1602179055508173ffffffffffffffffffffffffffffffffffffffff168173ffffffffffffffffffffffffffffffffffffffff167f8be0079c531659141344cd1fd0a4f28419497f9722a3daafe3b4186f6b6457e060405160405180910390a35050565b8173ffffffffffffffffffffffffffffffffffffffff168373ffffffffffffffffffffffffffffffffffffffff1603611b2d576040517f08c379a0000000000000000000000000000000000000000000000000000000008152600401611b2490613509565b60405180910390fd5b80600560008573ffffffffffffffffffffffffffffffffffffffff1673ffffffffffffffffffffffffffffffffffffffff16815260200190815260200160002060008473ffffffffffffffffffffffffffffffffffffffff1673ffffffffffffffffffffffffffffffffffffffff16815260200190815260200160002060006101000a81548160ff0219169083151502179055508173ffffffffffffffffffffffffffffffffffffffff168373ffffffffffffffffffffffffffffffffffffffff167f17307eab39ab6107e8899845ad3d59bd9653f200f220920489ca2b5937696c3183604051611c1e919061253d565b60405180910390a3505050565b611c36848484611498565b611c4284848484611f69565b611c81576040517f08c379a0000000000000000000000000000000000000000000000000000000008152600401611c789061359b565b60405180910390fd5b50505050565b606060405180602001604052806000815250905090565b606060006001611cad846120f0565b01905060008167ffffffffffffffff811115611ccc57611ccb612895565b5b6040519080825280601f01601f191660200182016040528015611cfe5781602001600182028036833780820191505090505b509050600082602001820190505b600115611d61578080600190039150507f3031323334353637383961626364656600000000000000000000000000000000600a86061a8153600a8581611d5557611d546135bb565b5b04945060008503611d0c575b819350505050919050565b60007f01ffc9a7000000000000000000000000000000000000000000000000000000007bffffffffffffffffffffffffffffffffffffffffffffffffffffffff1916827bffffffffffffffffffffffffffffffffffffffffffffffffffffffff1916149050919050565b611de284848484612243565b600073ffffffffffffffffffffffffffffffffffffffff168473ffffffffffffffffffffffffffffffffffffffff161480611e495750600073ffffffffffffffffffffffffffffffffffffffff168373ffffffffffffffffffffffffffffffffffffffff16145b611e88576040517f08c379a0000000000000000000000000000000000000000000000000000000008152600401611e7f90613636565b60405180910390fd5b600073ffffffffffffffffffffffffffffffffffffffff168473ffffffffffffffffffffffffffffffffffffffff1614611f02576000600860008673ffffffffffffffffffffffffffffffffffffffff1673ffffffffffffffffffffffffffffffffffffffff168152602001908152602001600020819055505b50505050565b50505050565b611f188383612249565b611f256000848484611f69565b611f64576040517f08c379a0000000000000000000000000000000000000000000000000000000008152600401611f5b9061359b565b60405180910390fd5b505050565b6000611f8a8473ffffffffffffffffffffffffffffffffffffffff16612466565b156120e3578373ffffffffffffffffffffffffffffffffffffffff1663150b7a02611fb3611342565b8786866040518563ffffffff1660e01b8152600401611fd594939291906136ab565b6020604051808303816000875af192505050801561201157506040513d601f19601f8201168201806040525081019061200e919061370c565b60015b612093573d8060008114612041576040519150601f19603f3d011682016040523d82523d6000602084013e612046565b606091505b50600081510361208b576040517f08c379a00000000000000000000000000000000000000000000000000000000081526004016120829061359b565b60405180910390fd5b805181602001fd5b63150b7a0260e01b7bffffffffffffffffffffffffffffffffffffffffffffffffffffffff1916817bffffffffffffffffffffffffffffffffffffffffffffffffffffffff1916149150506120e8565b600190505b949350505050565b600080600090507a184f03e93ff9f4daa797ed6e38ed64bf6a1f010000000000000000831061214e577a184f03e93ff9f4daa797ed6e38ed64bf6a1f0100000000000000008381612144576121436135bb565b5b0492506040810190505b6d04ee2d6d415b85acef8100000000831061218b576d04ee2d6d415b85acef81000000008381612181576121806135bb565b5b0492506020810190505b662386f26fc1000083106121ba57662386f26fc1000083816121b0576121af6135bb565b5b0492506010810190505b6305f5e10083106121e3576305f5e10083816121d9576121d86135bb565b5b0492506008810190505b61271083106122085761271083816121fe576121fd6135bb565b5b0492506004810190505b6064831061222b5760648381612221576122206135bb565b5b0492506002810190505b600a831061223a576001810190505b80915050919050565b50505050565b600073ffffffffffffffffffffffffffffffffffffffff168273ffffffffffffffffffffffffffffffffffffffff16036122b8576040517f08c379a00000000000000000000000000000000000000000000000000000000081526004016122af90613785565b60405180910390fd5b6122c18161180f565b15612301576040517f08c379a00000000000000000000000000000000000000000000000000000000081526004016122f8906137f1565b60405180910390fd5b61230f600083836001611dd6565b6123188161180f565b15612358576040517f08c379a000000000000000000000000000000000000000000000000000000000815260040161234f906137f1565b60405180910390fd5b6001600360008473ffffffffffffffffffffffffffffffffffffffff1673ffffffffffffffffffffffffffffffffffffffff16815260200190815260200160002060008282540192505081905550816002600083815260200190815260200160002060006101000a81548173ffffffffffffffffffffffffffffffffffffffff021916908373ffffffffffffffffffffffffffffffffffffffff160217905550808273ffffffffffffffffffffffffffffffffffffffff16600073ffffffffffffffffffffffffffffffffffffffff167fddf252ad1be2c89b69c2b068fc378daa952ba7f163c4a11628f55a4df523b3ef60405160405180910390a4612462600083836001611f08565b5050565b6000808273ffffffffffffffffffffffffffffffffffffffff163b119050919050565b6000604051905090565b600080fd5b600080fd5b60007fffffffff0000000000000000000000000000000000000000000000000000000082169050919050565b6124d28161249d565b81146124dd57600080fd5b50565b6000813590506124ef816124c9565b92915050565b60006020828403121561250b5761250a612493565b5b6000612519848285016124e0565b91505092915050565b60008115159050919050565b61253781612522565b82525050565b6000602082019050612552600083018461252e565b92915050565b600073ffffffffffffffffffffffffffffffffffffffff82169050919050565b600061258382612558565b9050919050565b61259381612578565b811461259e57600080fd5b50565b6000813590506125b08161258a565b92915050565b6000602082840312156125cc576125cb612493565b5b60006125da848285016125a1565b91505092915050565b600081519050919050565b600082825260208201905092915050565b60005b8381101561261d578082015181840152602081019050612602565b60008484015250505050565b6000601f19601f8301169050919050565b6000612645826125e3565b61264f81856125ee565b935061265f8185602086016125ff565b61266881612629565b840191505092915050565b6000602082019050818103600083015261268d818461263a565b905092915050565b6000819050919050565b6126a881612695565b81146126b357600080fd5b50565b6000813590506126c58161269f565b92915050565b6000602082840312156126e1576126e0612493565b5b60006126ef848285016126b6565b91505092915050565b61270181612578565b82525050565b600060208201905061271c60008301846126f8565b92915050565b6000806040838503121561273957612738612493565b5b6000612747858286016125a1565b9250506020612758858286016126b6565b9150509250929050565b60008060006060848603121561277b5761277a612493565b5b6000612789868287016125a1565b935050602061279a868287016125a1565b92505060406127ab868287016126b6565b9150509250925092565b600080604083850312156127cc576127cb612493565b5b60006127da858286016126b6565b92505060206127eb858286016126b6565b9150509250929050565b6127fe81612695565b82525050565b600060208201905061281960008301846127f5565b92915050565b61282881612522565b811461283357600080fd5b50565b6000813590506128458161281f565b92915050565b6000806040838503121561286257612861612493565b5b6000612870858286016125a1565b925050602061288185828601612836565b9150509250929050565b600080fd5b600080fd5b7f4e487b7100000000000000000000000000000000000000000000000000000000600052604160045260246000fd5b6128cd82612629565b810181811067ffffffffffffffff821117156128ec576128eb612895565b5b80604052505050565b60006128ff612489565b905061290b82826128c4565b919050565b600067ffffffffffffffff82111561292b5761292a612895565b5b61293482612629565b9050602081019050919050565b82818337600083830152505050565b600061296361295e84612910565b6128f5565b90508281526020810184848401111561297f5761297e612890565b5b61298a848285612941565b509392505050565b600082601f8301126129a7576129a661288b565b5b81356129b7848260208601612950565b91505092915050565b600080600080608085870312156129da576129d9612493565b5b60006129e8878288016125a1565b94505060206129f9878288016125a1565b9350506040612a0a878288016126b6565b925050606085013567ffffffffffffffff811115612a2b57612a2a612498565b5b612a3787828801612992565b91505092959194509250565b60008060408385031215612a5a57612a59612493565b5b6000612a68858286016125a1565b9250506020612a79858286016125a1565b9150509250929050565b7f4e487b7100000000000000000000000000000000000000000000000000000000600052602260045260246000fd5b60006002820490506001821680612aca57607f821691505b602082108103612add57612adc612a83565b5b50919050565b7f4552433732313a20617070726f76616c20746f2063757272656e74206f776e6560008201527f7200000000000000000000000000000000000000000000000000000000000000602082015250565b6000612b3f6021836125ee565b9150612b4a82612ae3565b604082019050919050565b60006020820190508181036000830152612b6e81612b32565b9050919050565b7f4552433732313a20617070726f76652063616c6c6572206973206e6f7420746f60008201527f6b656e206f776e6572206f7220617070726f76656420666f7220616c6c000000602082015250565b6000612bd1603d836125ee565b9150612bdc82612b75565b604082019050919050565b60006020820190508181036000830152612c0081612bc4565b9050919050565b7f4552433732313a2063616c6c6572206973206e6f7420746f6b656e206f776e6560008201527f72206f7220617070726f76656400000000000000000000000000000000000000602082015250565b6000612c63602d836125ee565b9150612c6e82612c07565b604082019050919050565b60006020820190508181036000830152612c9281612c56565b9050919050565b7f546f6b656e20646f6573206e6f74206578697374000000000000000000000000600082015250565b6000612ccf6014836125ee565b9150612cda82612c99565b602082019050919050565b60006020820190508181036000830152612cfe81612cc2565b9050919050565b7f546f6b656e20616c726561647920657870697265640000000000000000000000600082015250565b6000612d3b6015836125ee565b9150612d4682612d05565b602082019050919050565b60006020820190508181036000830152612d6a81612d2e565b9050919050565b7f43616e6e6f74206d696e7420746f207a65726f20616464726573730000000000600082015250565b6000612da7601b836125ee565b9150612db282612d71565b602082019050919050565b60006020820190508181036000830152612dd681612d9a565b9050919050565b7f45787069726174696f6e206d75737420626520696e207468652066757475726560008201527f2e00000000000000000000000000000000000000000000000000000000000000602082015250565b6000612e396021836125ee565b9150612e4482612ddd565b604082019050919050565b60006020820190508181036000830152612e6881612e2c565b9050919050565b7f5573657220616c726561647920686173206120746f6b656e0000000000000000600082015250565b6000612ea56018836125ee565b9150612eb082612e6f565b602082019050919050565b60006020820190508181036000830152612ed481612e98565b9050919050565b7f4e487b7100000000000000000000000000000000000000000000000000000000600052601160045260246000fd5b6000612f1582612695565b9150612f2083612695565b9250828201905080821115612f3857612f37612edb565b5b92915050565b6000604082019050612f5360008301856127f5565b612f6060208301846127f5565b9392505050565b7f4164646974696f6e616c2074696d65206d75737420626520677265617465722060008201527f7468616e207a65726f0000000000000000000000000000000000000000000000602082015250565b6000612fc36029836125ee565b9150612fce82612f67565b604082019050919050565b60006020820190508181036000830152612ff281612fb6565b9050919050565b7f596f7520646f206e6f74206f776e206120746f6b656e00000000000000000000600082015250565b600061302f6016836125ee565b915061303a82612ff9565b602082019050919050565b6000602082019050818103600083015261305e81613022565b9050919050565b7f4552433732313a20696e76616c696420746f6b656e2049440000000000000000600082015250565b600061309b6018836125ee565b91506130a682613065565b602082019050919050565b600060208201905081810360008301526130ca8161308e565b9050919050565b7f4552433732313a2061646472657373207a65726f206973206e6f74206120766160008201527f6c6964206f776e65720000000000000000000000000000000000000000000000602082015250565b600061312d6029836125ee565b9150613138826130d1565b604082019050919050565b6000602082019050818103600083015261315c81613120565b9050919050565b600081905092915050565b6000613179826125e3565b6131838185613163565b93506131938185602086016125ff565b80840191505092915050565b60006131ab828561316e565b91506131b7828461316e565b91508190509392505050565b7f496e76616c696420616464726573730000000000000000000000000000000000600082015250565b60006131f9600f836125ee565b9150613204826131c3565b602082019050919050565b60006020820190508181036000830152613228816131ec565b9050919050565b7f4f776e657220646f6573206e6f742068617665206120746f6b656e0000000000600082015250565b6000613265601b836125ee565b91506132708261322f565b602082019050919050565b6000602082019050818103600083015261329481613258565b9050919050565b7f4f776e61626c653a206e6577206f776e657220697320746865207a65726f206160008201527f6464726573730000000000000000000000000000000000000000000000000000602082015250565b60006132f76026836125ee565b91506133028261329b565b604082019050919050565b60006020820190508181036000830152613326816132ea565b9050919050565b7f4552433732313a207472616e736665722066726f6d20696e636f72726563742060008201527f6f776e6572000000000000000000000000000000000000000000000000000000602082015250565b60006133896025836125ee565b91506133948261332d565b604082019050919050565b600060208201905081810360008301526133b88161337c565b9050919050565b7f4552433732313a207472616e7366657220746f20746865207a65726f2061646460008201527f7265737300000000000000000000000000000000000000000000000000000000602082015250565b600061341b6024836125ee565b9150613426826133bf565b604082019050919050565b6000602082019050818103600083015261344a8161340e565b9050919050565b7f4f776e61626c653a2063616c6c6572206973206e6f7420746865206f776e6572600082015250565b60006134876020836125ee565b915061349282613451565b602082019050919050565b600060208201905081810360008301526134b68161347a565b9050919050565b7f4552433732313a20617070726f766520746f2063616c6c657200000000000000600082015250565b60006134f36019836125ee565b91506134fe826134bd565b602082019050919050565b60006020820190508181036000830152613522816134e6565b9050919050565b7f4552433732313a207472616e7366657220746f206e6f6e20455243373231526560008201527f63656976657220696d706c656d656e7465720000000000000000000000000000602082015250565b60006135856032836125ee565b915061359082613529565b604082019050919050565b600060208201905081810360008301526135b481613578565b9050919050565b7f4e487b7100000000000000000000000000000000000000000000000000000000600052601260045260246000fd5b7f5472616e7366657273206172652064697361626c656400000000000000000000600082015250565b60006136206016836125ee565b915061362b826135ea565b602082019050919050565b6000602082019050818103600083015261364f81613613565b9050919050565b600081519050919050565b600082825260208201905092915050565b600061367d82613656565b6136878185613661565b93506136978185602086016125ff565b6136a081612629565b840191505092915050565b60006080820190506136c060008301876126f8565b6136cd60208301866126f8565b6136da60408301856127f5565b81810360608301526136ec8184613672565b905095945050505050565b600081519050613706816124c9565b92915050565b60006020828403121561372257613721612493565b5b6000613730848285016136f7565b91505092915050565b7f4552433732313a206d696e7420746f20746865207a65726f2061646472657373600082015250565b600061376f6020836125ee565b915061377a82613739565b602082019050919050565b6000602082019050818103600083015261379e81613762565b9050919050565b7f4552433732313a20746f6b656e20616c7265616479206d696e74656400000000600082015250565b60006137db601c836125ee565b91506137e6826137a5565b602082019050919050565b6000602082019050818103600083015261380a816137ce565b905091905056fea26469706673582212205f24befdf80ad921d0b703ff6656a5f367abb441d01817578e84237f5e286f3164736f6c634300081b0033",
  "linkReferences": {},
  "deployedLinkReferences": {}
}