{
  "_format": "hh-sol-artifact-1",
  "contractName": "MerchantToken",
  "sourceName": "contracts/MerchantToken.sol",
  "abi": [
    {
      "inputs": [],
      "stateMutability": "nonpayable",
      "type": "constructor"
    },
    {
      "anonymous": false,
      "inputs": [
        {
          "indexed": true,
          "internalType": "address",
          "name": "owner",
          "type": "address"
        },
        {
          "indexed": true,
          "internalType": "address",
          "name": "approved",
          "type": "address"
        },
        {
          "indexed": true,
          "internalType": "uint256",
          "name": "tokenId",
          "type": "uint256"
        }
      ],
      "name": "Approval",
      "type": "event"
    },
    {
      "anonymous": false,
      "inputs": [
        {
          "indexed": true,
          "internalType": "address",
          "name": "owner",
          "type": "address"
        },
        {
          "indexed": true,
          "internalType": "address",
          "name": "operator",
          "type": "address"
        },
        {
          "indexed": false,
          "internalType": "bool",
          "name": "approved",
          "type": "bool"
        }
      ],
      "name": "ApprovalForAll",
      "type": "event"
    },
    {
      "anonymous": false,
      "inputs": [
        {
          "indexed": true,
          "internalType": "address",
          "name": "to",
          "type": "address"
        },
        {
          "indexed": false,
          "internalType": "uint256",
          "name": "tokenId",
          "type": "uint256"
        },
        {
          "indexed": false,
          "internalType": "uint256",
          "name": "expiryTime",
          "type": "uint256"
        }
      ],
      "name": "MerchantTokenMinted",
      "type": "event"
    },
    {
      "anonymous": false,
      "inputs": [
        {
          "indexed": true,
          "internalType": "address",
          "name": "previousOwner",
          "type": "address"
        },
        {
          "indexed": true,
          "internalType": "address",
          "name": "newOwner",
          "type": "address"
        }
      ],
      "name": "OwnershipTransferred",
      "type": "event"
    },
    {
      "anonymous": false,
      "inputs": [
        {
          "indexed": true,
          "internalType": "address",
          "name": "from",
          "type": "address"
        },
        {
          "indexed": true,
          "internalType": "address",
          "name": "to",
          "type": "address"
        },
        {
          "indexed": true,
          "internalType": "uint256",
          "name": "tokenId",
          "type": "uint256"
        }
      ],
      "name": "Transfer",
      "type": "event"
    },
    {
      "inputs": [],
      "name": "DEFAULT_EXPIRY_PERIOD",
      "outputs": [
        {
          "internalType": "uint256",
          "name": "",
          "type": "uint256"
        }
      ],
      "stateMutability": "view",
      "type": "function"
    },
    {
      "inputs": [
        {
          "internalType": "address",
          "name": "to",
          "type": "address"
        },
        {
          "internalType": "uint256",
          "name": "tokenId",
          "type": "uint256"
        }
      ],
      "name": "approve",
      "outputs": [],
      "stateMutability": "nonpayable",
      "type": "function"
    },
    {
      "inputs": [
        {
          "internalType": "address",
          "name": "owner",
          "type": "address"
        }
      ],
      "name": "balanceOf",
      "outputs": [
        {
          "internalType": "uint256",
          "name": "",
          "type": "uint256"
        }
      ],
      "stateMutability": "view",
      "type": "function"
    },
    {
      "inputs": [
        {
          "internalType": "uint256",
          "name": "tokenId",
          "type": "uint256"
        }
      ],
      "name": "getApproved",
      "outputs": [
        {
          "internalType": "address",
          "name": "",
          "type": "address"
        }
      ],
      "stateMutability": "view",
      "type": "function"
    },
    {
      "inputs": [
        {
          "internalType": "uint256",
          "name": "tokenId",
          "type": "uint256"
        }
      ],
      "name": "getExpiry",
      "outputs": [
        {
          "internalType": "uint256",
          "name": "",
          "type": "uint256"
        }
      ],
      "stateMutability": "view",
      "type": "function"
    },
    {
      "inputs": [
        {
          "internalType": "address",
          "name": "owner",
          "type": "address"
        },
        {
          "internalType": "address",
          "name": "operator",
          "type": "address"
        }
      ],
      "name": "isApprovedForAll",
      "outputs": [
        {
          "internalType": "bool",
          "name": "",
          "type": "bool"
        }
      ],
      "stateMutability": "view",
      "type": "function"
    },
    {
      "inputs": [
        {
          "internalType": "uint256",
          "name": "tokenId",
          "type": "uint256"
        }
      ],
      "name": "isExpired",
      "outputs": [
        {
          "internalType": "bool",
          "name": "",
          "type": "bool"
        }
      ],
      "stateMutability": "view",
      "type": "function"
    },
    {
      "inputs": [
        {
          "internalType": "address",
          "name": "to",
          "type": "address"
        }
      ],
      "name": "mint",
      "outputs": [],
      "stateMutability": "nonpayable",
      "type": "function"
    },
    {
      "inputs": [],
      "name": "name",
      "outputs": [
        {
          "internalType": "string",
          "name": "",
          "type": "string"
        }
      ],
      "stateMutability": "view",
      "type": "function"
    },
    {
      "inputs": [],
      "name": "owner",
      "outputs": [
        {
          "internalType": "address",
          "name": "",
          "type": "address"
        }
      ],
      "stateMutability": "view",
      "type": "function"
    },
    {
      "inputs": [
        {
          "internalType": "uint256",
          "name": "tokenId",
          "type": "uint256"
        }
      ],
      "name": "ownerOf",
      "outputs": [
        {
          "internalType": "address",
          "name": "",
          "type": "address"
        }
      ],
      "stateMutability": "view",
      "type": "function"
    },
    {
      "inputs": [],
      "name": "renounceOwnership",
      "outputs": [],
      "stateMutability": "nonpayable",
      "type": "function"
    },
    {
      "inputs": [
        {
          "internalType": "address",
          "name": "from",
          "type": "address"
        },
        {
          "internalType": "address",
          "name": "to",
          "type": "address"
        },
        {
          "internalType": "uint256",
          "name": "tokenId",
          "type": "uint256"
        }
      ],
      "name": "safeTransferFrom",
      "outputs": [],
      "stateMutability": "nonpayable",
      "type": "function"
    },
    {
      "inputs": [
        {
          "internalType": "address",
          "name": "from",
          "type": "address"
        },
        {
          "internalType": "address",
          "name": "to",
          "type": "address"
        },
        {
          "internalType": "uint256",
          "name": "tokenId",
          "type": "uint256"
        },
        {
          "internalType": "bytes",
          "name": "data",
          "type": "bytes"
        }
      ],
      "name": "safeTransferFrom",
      "outputs": [],
      "stateMutability": "nonpayable",
      "type": "function"
    },
    {
      "inputs": [
        {
          "internalType": "address",
          "name": "operator",
          "type": "address"
        },
        {
          "internalType": "bool",
          "name": "approved",
          "type": "bool"
        }
      ],
      "name": "setApprovalForAll",
      "outputs": [],
      "stateMutability": "nonpayable",
      "type": "function"
    },
    {
      "inputs": [
        {
          "internalType": "bytes4",
          "name": "interfaceId",
          "type": "bytes4"
        }
      ],
      "name": "supportsInterface",
      "outputs": [
        {
          "internalType": "bool",
          "name": "",
          "type": "bool"
        }
      ],
      "stateMutability": "view",
      "type": "function"
    },
    {
      "inputs": [],
      "name": "symbol",
      "outputs": [
        {
          "internalType": "string",
          "name": "",
          "type": "string"
        }
      ],
      "stateMutability": "view",
      "type": "function"
    },
    {
      "inputs": [
        {
          "internalType": "uint256",
          "name": "index",
          "type": "uint256"
        }
      ],
      "name": "tokenByIndex",
      "outputs": [
        {
          "internalType": "uint256",
          "name": "",
          "type": "uint256"
        }
      ],
      "stateMutability": "view",
      "type": "function"
    },
    {
      "inputs": [],
      "name": "tokenCounter",
      "outputs": [
        {
          "internalType": "uint256",
          "name": "",
          "type": "uint256"
        }
      ],
      "stateMutability": "view",
      "type": "function"
    },
    {
      "inputs": [
        {
          "internalType": "address",
          "name": "owner",
          "type": "address"
        },
        {
          "internalType": "uint256",
          "name": "index",
          "type": "uint256"
        }
      ],
      "name": "tokenOfOwnerByIndex",
      "outputs": [
        {
          "internalType": "uint256",
          "name": "",
          "type": "uint256"
        }
      ],
      "stateMutability": "view",
      "type": "function"
    },
    {
      "inputs": [
        {
          "internalType": "uint256",
          "name": "tokenId",
          "type": "uint256"
        }
      ],
      "name": "tokenURI",
      "outputs": [
        {
          "internalType": "string",
          "name": "",
          "type": "string"
        }
      ],
      "stateMutability": "view",
      "type": "function"
    },
    {
      "inputs": [],
      "name": "totalSupply",
      "outputs": [
        {
          "internalType": "uint256",
          "name": "",
          "type": "uint256"
        }
      ],
      "stateMutability": "view",
      "type": "function"
    },
    {
      "inputs": [
        {
          "internalType": "address",
          "name": "from",
          "type": "address"
        },
        {
          "internalType": "address",
          "name": "to",
          "type": "address"
        },
        {
          "internalType": "uint256",
          "name": "tokenId",
          "type": "uint256"
        }
      ],
      "name": "transferFrom",
      "outputs": [],
      "stateMutability": "nonpayable",
      "type": "function"
    },
    {
      "inputs": [
        {
          "internalType": "address",
          "name": "newOwner",
          "type": "address"
        }
      ],
      "name": "transferOwnership",
      "outputs": [],
      "stateMutability": "nonpayable",
      "type": "function"
    }
  ],
  "bytecode": "0x608060405234801561001057600080fd5b506040518060400160405280600d81526020017f4d65726368616e74546f6b656e000000000000000000000000000000000000008152506040518060400160405280600481526020017f4c434d5400000000000000000000000000000000000000000000000000000000815250816000908161008c91906103e6565b50806001908161009c91906103e6565b5050506100bb6100b06100c860201b60201c565b6100d060201b60201c565b6001600b819055506104b8565b600033905090565b6000600a60009054906101000a900473ffffffffffffffffffffffffffffffffffffffff16905081600a60006101000a81548173ffffffffffffffffffffffffffffffffffffffff021916908373ffffffffffffffffffffffffffffffffffffffff1602179055508173ffffffffffffffffffffffffffffffffffffffff168173ffffffffffffffffffffffffffffffffffffffff167f8be0079c531659141344cd1fd0a4f28419497f9722a3daafe3b4186f6b6457e060405160405180910390a35050565b600081519050919050565b7f4e487b7100000000000000000000000000000000000000000000000000000000600052604160045260246000fd5b7f4e487b7100000000000000000000000000000000000000000000000000000000600052602260045260246000fd5b6000600282049050600182168061021757607f821691505b60208210810361022a576102296101d0565b5b50919050565b60008190508160005260206000209050919050565b60006020601f8301049050919050565b600082821b905092915050565b6000600883026102927fffffffffffffffffffffffffffffffffffffffffffffffffffffffffffffffff82610255565b61029c8683610255565b95508019841693508086168417925050509392505050565b6000819050919050565b6000819050919050565b60006102e36102de6102d9846102b4565b6102be565b6102b4565b9050919050565b6000819050919050565b6102fd836102c8565b610311610309826102ea565b848454610262565b825550505050565b600090565b610326610319565b6103318184846102f4565b505050565b5b818110156103555761034a60008261031e565b600181019050610337565b5050565b601f82111561039a5761036b81610230565b61037484610245565b81016020851015610383578190505b61039761038f85610245565b830182610336565b50505b505050565b600082821c905092915050565b60006103bd6000198460080261039f565b1980831691505092915050565b60006103d683836103ac565b9150826002028217905092915050565b6103ef82610196565b67ffffffffffffffff811115610408576104076101a1565b5b61041282546101ff565b61041d828285610359565b600060209050601f831160018114610450576000841561043e578287015190505b61044885826103ca565b8655506104b0565b601f19841661045e86610230565b60005b8281101561048657848901518255600182019150602085019450602081019050610461565b868310156104a3578489015161049f601f8916826103ac565b8355505b6001600288020188555050505b505050505050565b613487806104c76000396000f3fe608060405234801561001057600080fd5b50600436106101585760003560e01c806370a08231116100c3578063b88d4fde1161007c578063b88d4fde146103d9578063c87b56dd146103f5578063d082e38114610425578063d9548e5314610443578063e985e9c514610473578063f2fde38b146104a357610158565b806370a0823114610329578063715018a6146103595780638da5cb5b1461036357806395d89b41146103815780639611562e1461039f578063a22cb465146103bd57610158565b806323b872dd1161011557806323b872dd146102455780632f745c591461026157806342842e0e146102915780634f6ccce7146102ad5780636352211e146102dd5780636a6278421461030d57610158565b806301ffc9a71461015d57806306fdde031461018d578063081812fc146101ab578063095ea7b3146101db57806313c72608146101f757806318160ddd14610227575b600080fd5b61017760048036038101906101729190612345565b6104bf565b604051610184919061238d565b60405180910390f35b6101956104d1565b6040516101a29190612438565b60405180910390f35b6101c560048036038101906101c09190612490565b610563565b6040516101d291906124fe565b60405180910390f35b6101f560048036038101906101f09190612545565b6105a9565b005b610211600480360381019061020c9190612490565b6106c0565b60405161021e9190612594565b60405180910390f35b61022f610725565b60405161023c9190612594565b60405180910390f35b61025f600480360381019061025a91906125af565b610732565b005b61027b60048036038101906102769190612545565b610792565b6040516102889190612594565b60405180910390f35b6102ab60048036038101906102a691906125af565b610837565b005b6102c760048036038101906102c29190612490565b610857565b6040516102d49190612594565b60405180910390f35b6102f760048036038101906102f29190612490565b6108c8565b60405161030491906124fe565b60405180910390f35b61032760048036038101906103229190612602565b61094e565b005b610343600480360381019061033e9190612602565b610a02565b6040516103509190612594565b60405180910390f35b610361610ab9565b005b61036b610acd565b60405161037891906124fe565b60405180910390f35b610389610af7565b6040516103969190612438565b60405180910390f35b6103a7610b89565b6040516103b49190612594565b60405180910390f35b6103d760048036038101906103d2919061265b565b610b91565b005b6103f360048036038101906103ee91906127d0565b610ba7565b005b61040f600480360381019061040a9190612490565b610c09565b60405161041c9190612438565b60405180910390f35b61042d610c71565b60405161043a9190612594565b60405180910390f35b61045d60048036038101906104589190612490565b610c77565b60405161046a919061238d565b60405180910390f35b61048d60048036038101906104889190612853565b610cde565b60405161049a919061238d565b60405180910390f35b6104bd60048036038101906104b89190612602565b610d72565b005b60006104ca82610df5565b9050919050565b6060600080546104e0906128c2565b80601f016020809104026020016040519081016040528092919081815260200182805461050c906128c2565b80156105595780601f1061052e57610100808354040283529160200191610559565b820191906000526020600020905b81548152906001019060200180831161053c57829003601f168201915b5050505050905090565b600061056e82610e6f565b6004600083815260200190815260200160002060009054906101000a900473ffffffffffffffffffffffffffffffffffffffff169050919050565b60006105b4826108c8565b90508073ffffffffffffffffffffffffffffffffffffffff168373ffffffffffffffffffffffffffffffffffffffff1603610624576040517f08c379a000000000000000000000000000000000000000000000000000000000815260040161061b90612965565b60405180910390fd5b8073ffffffffffffffffffffffffffffffffffffffff16610643610eba565b73ffffffffffffffffffffffffffffffffffffffff16148061067257506106718161066c610eba565b610cde565b5b6106b1576040517f08c379a00000000000000000000000000000000000000000000000000000000081526004016106a8906129f7565b60405180910390fd5b6106bb8383610ec2565b505050565b60006106cb82610f7b565b61070a576040517f08c379a000000000000000000000000000000000000000000000000000000000815260040161070190612a63565b60405180910390fd5b600c6000838152602001908152602001600020549050919050565b6000600880549050905090565b61074361073d610eba565b82610fbc565b610782576040517f08c379a000000000000000000000000000000000000000000000000000000000815260040161077990612af5565b60405180910390fd5b61078d838383611051565b505050565b600061079d83610a02565b82106107de576040517f08c379a00000000000000000000000000000000000000000000000000000000081526004016107d590612b87565b60405180910390fd5b600660008473ffffffffffffffffffffffffffffffffffffffff1673ffffffffffffffffffffffffffffffffffffffff168152602001908152602001600020600083815260200190815260200160002054905092915050565b61085283838360405180602001604052806000815250610ba7565b505050565b6000610861610725565b82106108a2576040517f08c379a000000000000000000000000000000000000000000000000000000000815260040161089990612c19565b60405180910390fd5b600882815481106108b6576108b5612c39565b5b90600052602060002001549050919050565b6000806108d48361134a565b9050600073ffffffffffffffffffffffffffffffffffffffff168173ffffffffffffffffffffffffffffffffffffffff1603610945576040517f08c379a000000000000000000000000000000000000000000000000000000000815260040161093c90612cb4565b60405180910390fd5b80915050919050565b610956611387565b6000600b5490506001600b60008282546109709190612d03565b9250508190555060006301e13380426109899190612d03565b905080600c6000848152602001908152602001600020819055506109ad8383611405565b8273ffffffffffffffffffffffffffffffffffffffff167f655ff37b06d138fc26fda07d435a40368e63b8d3cbd7835215334ff9e7fcd78283836040516109f5929190612d37565b60405180910390a2505050565b60008073ffffffffffffffffffffffffffffffffffffffff168273ffffffffffffffffffffffffffffffffffffffff1603610a72576040517f08c379a0000000000000000000000000000000000000000000000000000000008152600401610a6990612dd2565b60405180910390fd5b600360008373ffffffffffffffffffffffffffffffffffffffff1673ffffffffffffffffffffffffffffffffffffffff168152602001908152602001600020549050919050565b610ac1611387565b610acb6000611423565b565b6000600a60009054906101000a900473ffffffffffffffffffffffffffffffffffffffff16905090565b606060018054610b06906128c2565b80601f0160208091040260200160405190810160405280929190818152602001828054610b32906128c2565b8015610b7f5780601f10610b5457610100808354040283529160200191610b7f565b820191906000526020600020905b815481529060010190602001808311610b6257829003601f168201915b5050505050905090565b6301e1338081565b610ba3610b9c610eba565b83836114e9565b5050565b610bb8610bb2610eba565b83610fbc565b610bf7576040517f08c379a0000000000000000000000000000000000000000000000000000000008152600401610bee90612af5565b60405180910390fd5b610c0384848484611655565b50505050565b6060610c1482610e6f565b6000610c1e6116b1565b90506000815111610c3e5760405180602001604052806000815250610c69565b80610c48846116c8565b604051602001610c59929190612e2e565b6040516020818303038152906040525b915050919050565b600b5481565b6000610c8282610f7b565b610cc1576040517f08c379a0000000000000000000000000000000000000000000000000000000008152600401610cb890612a63565b60405180910390fd5b600c60008381526020019081526020016000205442119050919050565b6000600560008473ffffffffffffffffffffffffffffffffffffffff1673ffffffffffffffffffffffffffffffffffffffff16815260200190815260200160002060008373ffffffffffffffffffffffffffffffffffffffff1673ffffffffffffffffffffffffffffffffffffffff16815260200190815260200160002060009054906101000a900460ff16905092915050565b610d7a611387565b600073ffffffffffffffffffffffffffffffffffffffff168173ffffffffffffffffffffffffffffffffffffffff1603610de9576040517f08c379a0000000000000000000000000000000000000000000000000000000008152600401610de090612ec4565b60405180910390fd5b610df281611423565b50565b60007f780e9d63000000000000000000000000000000000000000000000000000000007bffffffffffffffffffffffffffffffffffffffffffffffffffffffff1916827bffffffffffffffffffffffffffffffffffffffffffffffffffffffff19161480610e685750610e6782611796565b5b9050919050565b610e7881610f7b565b610eb7576040517f08c379a0000000000000000000000000000000000000000000000000000000008152600401610eae90612cb4565b60405180910390fd5b50565b600033905090565b816004600083815260200190815260200160002060006101000a81548173ffffffffffffffffffffffffffffffffffffffff021916908373ffffffffffffffffffffffffffffffffffffffff160217905550808273ffffffffffffffffffffffffffffffffffffffff16610f35836108c8565b73ffffffffffffffffffffffffffffffffffffffff167f8c5be1e5ebec7d5bd14f71427d1e84f3dd0314c0f7b2291e5b200ac8c7c3b92560405160405180910390a45050565b60008073ffffffffffffffffffffffffffffffffffffffff16610f9d8361134a565b73ffffffffffffffffffffffffffffffffffffffff1614159050919050565b600080610fc8836108c8565b90508073ffffffffffffffffffffffffffffffffffffffff168473ffffffffffffffffffffffffffffffffffffffff16148061100a57506110098185610cde565b5b8061104857508373ffffffffffffffffffffffffffffffffffffffff1661103084610563565b73ffffffffffffffffffffffffffffffffffffffff16145b91505092915050565b8273ffffffffffffffffffffffffffffffffffffffff16611071826108c8565b73ffffffffffffffffffffffffffffffffffffffff16146110c7576040517f08c379a00000000000000000000000000000000000000000000000000000000081526004016110be90612f56565b60405180910390fd5b600073ffffffffffffffffffffffffffffffffffffffff168273ffffffffffffffffffffffffffffffffffffffff1603611136576040517f08c379a000000000000000000000000000000000000000000000000000000000815260040161112d90612fe8565b60405180910390fd5b6111438383836001611878565b8273ffffffffffffffffffffffffffffffffffffffff16611163826108c8565b73ffffffffffffffffffffffffffffffffffffffff16146111b9576040517f08c379a00000000000000000000000000000000000000000000000000000000081526004016111b090612f56565b60405180910390fd5b6004600082815260200190815260200160002060006101000a81549073ffffffffffffffffffffffffffffffffffffffff02191690556001600360008573ffffffffffffffffffffffffffffffffffffffff1673ffffffffffffffffffffffffffffffffffffffff168152602001908152602001600020600082825403925050819055506001600360008473ffffffffffffffffffffffffffffffffffffffff1673ffffffffffffffffffffffffffffffffffffffff16815260200190815260200160002060008282540192505081905550816002600083815260200190815260200160002060006101000a81548173ffffffffffffffffffffffffffffffffffffffff021916908373ffffffffffffffffffffffffffffffffffffffff160217905550808273ffffffffffffffffffffffffffffffffffffffff168473ffffffffffffffffffffffffffffffffffffffff167fddf252ad1be2c89b69c2b068fc378daa952ba7f163c4a11628f55a4df523b3ef60405160405180910390a4611345838383600161188a565b505050565b60006002600083815260200190815260200160002060009054906101000a900473ffffffffffffffffffffffffffffffffffffffff169050919050565b61138f610eba565b73ffffffffffffffffffffffffffffffffffffffff166113ad610acd565b73ffffffffffffffffffffffffffffffffffffffff1614611403576040517f08c379a00000000000000000000000000000000000000000000000000000000081526004016113fa90613054565b60405180910390fd5b565b61141f828260405180602001604052806000815250611890565b5050565b6000600a60009054906101000a900473ffffffffffffffffffffffffffffffffffffffff16905081600a60006101000a81548173ffffffffffffffffffffffffffffffffffffffff021916908373ffffffffffffffffffffffffffffffffffffffff1602179055508173ffffffffffffffffffffffffffffffffffffffff168173ffffffffffffffffffffffffffffffffffffffff167f8be0079c531659141344cd1fd0a4f28419497f9722a3daafe3b4186f6b6457e060405160405180910390a35050565b8173ffffffffffffffffffffffffffffffffffffffff168373ffffffffffffffffffffffffffffffffffffffff1603611557576040517f08c379a000000000000000000000000000000000000000000000000000000000815260040161154e906130c0565b60405180910390fd5b80600560008573ffffffffffffffffffffffffffffffffffffffff1673ffffffffffffffffffffffffffffffffffffffff16815260200190815260200160002060008473ffffffffffffffffffffffffffffffffffffffff1673ffffffffffffffffffffffffffffffffffffffff16815260200190815260200160002060006101000a81548160ff0219169083151502179055508173ffffffffffffffffffffffffffffffffffffffff168373ffffffffffffffffffffffffffffffffffffffff167f17307eab39ab6107e8899845ad3d59bd9653f200f220920489ca2b5937696c3183604051611648919061238d565b60405180910390a3505050565b611660848484611051565b61166c848484846118eb565b6116ab576040517f08c379a00000000000000000000000000000000000000000000000000000000081526004016116a290613152565b60405180910390fd5b50505050565b606060405180602001604052806000815250905090565b6060600060016116d784611a72565b01905060008167ffffffffffffffff8111156116f6576116f56126a5565b5b6040519080825280601f01601f1916602001820160405280156117285781602001600182028036833780820191505090505b509050600082602001820190505b60011561178b578080600190039150507f3031323334353637383961626364656600000000000000000000000000000000600a86061a8153600a858161177f5761177e613172565b5b04945060008503611736575b819350505050919050565b60007f80ac58cd000000000000000000000000000000000000000000000000000000007bffffffffffffffffffffffffffffffffffffffffffffffffffffffff1916827bffffffffffffffffffffffffffffffffffffffffffffffffffffffff1916148061186157507f5b5e139f000000000000000000000000000000000000000000000000000000007bffffffffffffffffffffffffffffffffffffffffffffffffffffffff1916827bffffffffffffffffffffffffffffffffffffffffffffffffffffffff1916145b80611871575061187082611bc5565b5b9050919050565b61188484848484611c2f565b50505050565b50505050565b61189a8383611d8d565b6118a760008484846118eb565b6118e6576040517f08c379a00000000000000000000000000000000000000000000000000000000081526004016118dd90613152565b60405180910390fd5b505050565b600061190c8473ffffffffffffffffffffffffffffffffffffffff16611faa565b15611a65578373ffffffffffffffffffffffffffffffffffffffff1663150b7a02611935610eba565b8786866040518563ffffffff1660e01b815260040161195794939291906131f6565b6020604051808303816000875af192505050801561199357506040513d601f19601f820116820180604052508101906119909190613257565b60015b611a15573d80600081146119c3576040519150601f19603f3d011682016040523d82523d6000602084013e6119c8565b606091505b506000815103611a0d576040517f08c379a0000000000000000000000000000000000000000000000000000000008152600401611a0490613152565b60405180910390fd5b805181602001fd5b63150b7a0260e01b7bffffffffffffffffffffffffffffffffffffffffffffffffffffffff1916817bffffffffffffffffffffffffffffffffffffffffffffffffffffffff191614915050611a6a565b600190505b949350505050565b600080600090507a184f03e93ff9f4daa797ed6e38ed64bf6a1f0100000000000000008310611ad0577a184f03e93ff9f4daa797ed6e38ed64bf6a1f0100000000000000008381611ac657611ac5613172565b5b0492506040810190505b6d04ee2d6d415b85acef81000000008310611b0d576d04ee2d6d415b85acef81000000008381611b0357611b02613172565b5b0492506020810190505b662386f26fc100008310611b3c57662386f26fc100008381611b3257611b31613172565b5b0492506010810190505b6305f5e1008310611b65576305f5e1008381611b5b57611b5a613172565b5b0492506008810190505b6127108310611b8a576127108381611b8057611b7f613172565b5b0492506004810190505b60648310611bad5760648381611ba357611ba2613172565b5b0492506002810190505b600a8310611bbc576001810190505b80915050919050565b60007f01ffc9a7000000000000000000000000000000000000000000000000000000007bffffffffffffffffffffffffffffffffffffffffffffffffffffffff1916827bffffffffffffffffffffffffffffffffffffffffffffffffffffffff1916149050919050565b611c3b84848484611fcd565b6001811115611c7f576040517f08c379a0000000000000000000000000000000000000000000000000000000008152600401611c76906132f6565b60405180910390fd5b6000829050600073ffffffffffffffffffffffffffffffffffffffff168573ffffffffffffffffffffffffffffffffffffffff1603611cc657611cc181611fd3565b611d05565b8373ffffffffffffffffffffffffffffffffffffffff168573ffffffffffffffffffffffffffffffffffffffff1614611d0457611d03858261201c565b5b5b600073ffffffffffffffffffffffffffffffffffffffff168473ffffffffffffffffffffffffffffffffffffffff1603611d4757611d4281612189565b611d86565b8473ffffffffffffffffffffffffffffffffffffffff168473ffffffffffffffffffffffffffffffffffffffff1614611d8557611d84848261225a565b5b5b5050505050565b600073ffffffffffffffffffffffffffffffffffffffff168273ffffffffffffffffffffffffffffffffffffffff1603611dfc576040517f08c379a0000000000000000000000000000000000000000000000000000000008152600401611df390613362565b60405180910390fd5b611e0581610f7b565b15611e45576040517f08c379a0000000000000000000000000000000000000000000000000000000008152600401611e3c906133ce565b60405180910390fd5b611e53600083836001611878565b611e5c81610f7b565b15611e9c576040517f08c379a0000000000000000000000000000000000000000000000000000000008152600401611e93906133ce565b60405180910390fd5b6001600360008473ffffffffffffffffffffffffffffffffffffffff1673ffffffffffffffffffffffffffffffffffffffff16815260200190815260200160002060008282540192505081905550816002600083815260200190815260200160002060006101000a81548173ffffffffffffffffffffffffffffffffffffffff021916908373ffffffffffffffffffffffffffffffffffffffff160217905550808273ffffffffffffffffffffffffffffffffffffffff16600073ffffffffffffffffffffffffffffffffffffffff167fddf252ad1be2c89b69c2b068fc378daa952ba7f163c4a11628f55a4df523b3ef60405160405180910390a4611fa660008383600161188a565b5050565b6000808273ffffffffffffffffffffffffffffffffffffffff163b119050919050565b50505050565b6008805490506009600083815260200190815260200160002081905550600881908060018154018082558091505060019003906000526020600020016000909190919091505550565b6000600161202984610a02565b61203391906133ee565b9050600060076000848152602001908152602001600020549050818114612118576000600660008673ffffffffffffffffffffffffffffffffffffffff1673ffffffffffffffffffffffffffffffffffffffff168152602001908152602001600020600084815260200190815260200160002054905080600660008773ffffffffffffffffffffffffffffffffffffffff1673ffffffffffffffffffffffffffffffffffffffff168152602001908152602001600020600084815260200190815260200160002081905550816007600083815260200190815260200160002081905550505b6007600084815260200190815260200160002060009055600660008573ffffffffffffffffffffffffffffffffffffffff1673ffffffffffffffffffffffffffffffffffffffff16815260200190815260200160002060008381526020019081526020016000206000905550505050565b6000600160088054905061219d91906133ee565b90506000600960008481526020019081526020016000205490506000600883815481106121cd576121cc612c39565b5b9060005260206000200154905080600883815481106121ef576121ee612c39565b5b90600052602060002001819055508160096000838152602001908152602001600020819055506009600085815260200190815260200160002060009055600880548061223e5761223d613422565b5b6001900381819060005260206000200160009055905550505050565b600061226583610a02565b905081600660008573ffffffffffffffffffffffffffffffffffffffff1673ffffffffffffffffffffffffffffffffffffffff168152602001908152602001600020600083815260200190815260200160002081905550806007600084815260200190815260200160002081905550505050565b6000604051905090565b600080fd5b600080fd5b60007fffffffff0000000000000000000000000000000000000000000000000000000082169050919050565b612322816122ed565b811461232d57600080fd5b50565b60008135905061233f81612319565b92915050565b60006020828403121561235b5761235a6122e3565b5b600061236984828501612330565b91505092915050565b60008115159050919050565b61238781612372565b82525050565b60006020820190506123a2600083018461237e565b92915050565b600081519050919050565b600082825260208201905092915050565b60005b838110156123e25780820151818401526020810190506123c7565b60008484015250505050565b6000601f19601f8301169050919050565b600061240a826123a8565b61241481856123b3565b93506124248185602086016123c4565b61242d816123ee565b840191505092915050565b6000602082019050818103600083015261245281846123ff565b905092915050565b6000819050919050565b61246d8161245a565b811461247857600080fd5b50565b60008135905061248a81612464565b92915050565b6000602082840312156124a6576124a56122e3565b5b60006124b48482850161247b565b91505092915050565b600073ffffffffffffffffffffffffffffffffffffffff82169050919050565b60006124e8826124bd565b9050919050565b6124f8816124dd565b82525050565b600060208201905061251360008301846124ef565b92915050565b612522816124dd565b811461252d57600080fd5b50565b60008135905061253f81612519565b92915050565b6000806040838503121561255c5761255b6122e3565b5b600061256a85828601612530565b925050602061257b8582860161247b565b9150509250929050565b61258e8161245a565b82525050565b60006020820190506125a96000830184612585565b92915050565b6000806000606084860312156125c8576125c76122e3565b5b60006125d686828701612530565b93505060206125e786828701612530565b92505060406125f88682870161247b565b9150509250925092565b600060208284031215612618576126176122e3565b5b600061262684828501612530565b91505092915050565b61263881612372565b811461264357600080fd5b50565b6000813590506126558161262f565b92915050565b60008060408385031215612672576126716122e3565b5b600061268085828601612530565b925050602061269185828601612646565b9150509250929050565b600080fd5b600080fd5b7f4e487b7100000000000000000000000000000000000000000000000000000000600052604160045260246000fd5b6126dd826123ee565b810181811067ffffffffffffffff821117156126fc576126fb6126a5565b5b80604052505050565b600061270f6122d9565b905061271b82826126d4565b919050565b600067ffffffffffffffff82111561273b5761273a6126a5565b5b612744826123ee565b9050602081019050919050565b82818337600083830152505050565b600061277361276e84612720565b612705565b90508281526020810184848401111561278f5761278e6126a0565b5b61279a848285612751565b509392505050565b600082601f8301126127b7576127b661269b565b5b81356127c7848260208601612760565b91505092915050565b600080600080608085870312156127ea576127e96122e3565b5b60006127f887828801612530565b945050602061280987828801612530565b935050604061281a8782880161247b565b925050606085013567ffffffffffffffff81111561283b5761283a6122e8565b5b612847878288016127a2565b91505092959194509250565b6000806040838503121561286a576128696122e3565b5b600061287885828601612530565b925050602061288985828601612530565b9150509250929050565b7f4e487b7100000000000000000000000000000000000000000000000000000000600052602260045260246000fd5b600060028204905060018216806128da57607f821691505b6020821081036128ed576128ec612893565b5b50919050565b7f4552433732313a20617070726f76616c20746f2063757272656e74206f776e6560008201527f7200000000000000000000000000000000000000000000000000000000000000602082015250565b600061294f6021836123b3565b915061295a826128f3565b604082019050919050565b6000602082019050818103600083015261297e81612942565b9050919050565b7f4552433732313a20617070726f76652063616c6c6572206973206e6f7420746f60008201527f6b656e206f776e6572206f7220617070726f76656420666f7220616c6c000000602082015250565b60006129e1603d836123b3565b91506129ec82612985565b604082019050919050565b60006020820190508181036000830152612a10816129d4565b9050919050565b7f546f6b656e20646f6573206e6f74206578697374000000000000000000000000600082015250565b6000612a4d6014836123b3565b9150612a5882612a17565b602082019050919050565b60006020820190508181036000830152612a7c81612a40565b9050919050565b7f4552433732313a2063616c6c6572206973206e6f7420746f6b656e206f776e6560008201527f72206f7220617070726f76656400000000000000000000000000000000000000602082015250565b6000612adf602d836123b3565b9150612aea82612a83565b604082019050919050565b60006020820190508181036000830152612b0e81612ad2565b9050919050565b7f455243373231456e756d657261626c653a206f776e657220696e646578206f7560008201527f74206f6620626f756e6473000000000000000000000000000000000000000000602082015250565b6000612b71602b836123b3565b9150612b7c82612b15565b604082019050919050565b60006020820190508181036000830152612ba081612b64565b9050919050565b7f455243373231456e756d657261626c653a20676c6f62616c20696e646578206f60008201527f7574206f6620626f756e64730000000000000000000000000000000000000000602082015250565b6000612c03602c836123b3565b9150612c0e82612ba7565b604082019050919050565b60006020820190508181036000830152612c3281612bf6565b9050919050565b7f4e487b7100000000000000000000000000000000000000000000000000000000600052603260045260246000fd5b7f4552433732313a20696e76616c696420746f6b656e2049440000000000000000600082015250565b6000612c9e6018836123b3565b9150612ca982612c68565b602082019050919050565b60006020820190508181036000830152612ccd81612c91565b9050919050565b7f4e487b7100000000000000000000000000000000000000000000000000000000600052601160045260246000fd5b6000612d0e8261245a565b9150612d198361245a565b9250828201905080821115612d3157612d30612cd4565b5b92915050565b6000604082019050612d4c6000830185612585565b612d596020830184612585565b9392505050565b7f4552433732313a2061646472657373207a65726f206973206e6f74206120766160008201527f6c6964206f776e65720000000000000000000000000000000000000000000000602082015250565b6000612dbc6029836123b3565b9150612dc782612d60565b604082019050919050565b60006020820190508181036000830152612deb81612daf565b9050919050565b600081905092915050565b6000612e08826123a8565b612e128185612df2565b9350612e228185602086016123c4565b80840191505092915050565b6000612e3a8285612dfd565b9150612e468284612dfd565b91508190509392505050565b7f4f776e61626c653a206e6577206f776e657220697320746865207a65726f206160008201527f6464726573730000000000000000000000000000000000000000000000000000602082015250565b6000612eae6026836123b3565b9150612eb982612e52565b604082019050919050565b60006020820190508181036000830152612edd81612ea1565b9050919050565b7f4552433732313a207472616e736665722066726f6d20696e636f72726563742060008201527f6f776e6572000000000000000000000000000000000000000000000000000000602082015250565b6000612f406025836123b3565b9150612f4b82612ee4565b604082019050919050565b60006020820190508181036000830152612f6f81612f33565b9050919050565b7f4552433732313a207472616e7366657220746f20746865207a65726f2061646460008201527f7265737300000000000000000000000000000000000000000000000000000000602082015250565b6000612fd26024836123b3565b9150612fdd82612f76565b604082019050919050565b6000602082019050818103600083015261300181612fc5565b9050919050565b7f4f776e61626c653a2063616c6c6572206973206e6f7420746865206f776e6572600082015250565b600061303e6020836123b3565b915061304982613008565b602082019050919050565b6000602082019050818103600083015261306d81613031565b9050919050565b7f4552433732313a20617070726f766520746f2063616c6c657200000000000000600082015250565b60006130aa6019836123b3565b91506130b582613074565b602082019050919050565b600060208201905081810360008301526130d98161309d565b9050919050565b7f4552433732313a207472616e7366657220746f206e6f6e20455243373231526560008201527f63656976657220696d706c656d656e7465720000000000000000000000000000602082015250565b600061313c6032836123b3565b9150613147826130e0565b604082019050919050565b6000602082019050818103600083015261316b8161312f565b9050919050565b7f4e487b7100000000000000000000000000000000000000000000000000000000600052601260045260246000fd5b600081519050919050565b600082825260208201905092915050565b60006131c8826131a1565b6131d281856131ac565b93506131e28185602086016123c4565b6131eb816123ee565b840191505092915050565b600060808201905061320b60008301876124ef565b61321860208301866124ef565b6132256040830185612585565b818103606083015261323781846131bd565b905095945050505050565b60008151905061325181612319565b92915050565b60006020828403121561326d5761326c6122e3565b5b600061327b84828501613242565b91505092915050565b7f455243373231456e756d657261626c653a20636f6e736563757469766520747260008201527f616e7366657273206e6f7420737570706f727465640000000000000000000000602082015250565b60006132e06035836123b3565b91506132eb82613284565b604082019050919050565b6000602082019050818103600083015261330f816132d3565b9050919050565b7f4552433732313a206d696e7420746f20746865207a65726f2061646472657373600082015250565b600061334c6020836123b3565b915061335782613316565b602082019050919050565b6000602082019050818103600083015261337b8161333f565b9050919050565b7f4552433732313a20746f6b656e20616c7265616479206d696e74656400000000600082015250565b60006133b8601c836123b3565b91506133c382613382565b602082019050919050565b600060208201905081810360008301526133e7816133ab565b9050919050565b60006133f98261245a565b91506134048361245a565b925082820390508181111561341c5761341b612cd4565b5b92915050565b7f4e487b7100000000000000000000000000000000000000000000000000000000600052603160045260246000fdfea2646970667358221220111cbd916737b083a0c2fd4d34bc9c53beeba439db68f49b77591b3ea198e4d564736f6c634300081b0033",
  "linkReferences": {},
  "deployedLinkReferences": {}
}