{
  "_format": "hh-sol-artifact-1",
  "contractName": "MerchantToken",
  "sourceName": "contracts/MerchantToken.sol",
  "abi": [
    {
      "inputs": [],
      "stateMutability": "nonpayable",
      "type": "constructor"
    },
    {
      "anonymous": false,
      "inputs": [
        {
          "indexed": true,
          "internalType": "address",
          "name": "owner",
          "type": "address"
        },
        {
          "indexed": true,
          "internalType": "address",
          "name": "approved",
          "type": "address"
        },
        {
          "indexed": true,
          "internalType": "uint256",
          "name": "tokenId",
          "type": "uint256"
        }
      ],
      "name": "Approval",
      "type": "event"
    },
    {
      "anonymous": false,
      "inputs": [
        {
          "indexed": true,
          "internalType": "address",
          "name": "owner",
          "type": "address"
        },
        {
          "indexed": true,
          "internalType": "address",
          "name": "operator",
          "type": "address"
        },
        {
          "indexed": false,
          "internalType": "bool",
          "name": "approved",
          "type": "bool"
        }
      ],
      "name": "ApprovalForAll",
      "type": "event"
    },
    {
      "anonymous": false,
      "inputs": [
        {
          "indexed": false,
          "internalType": "uint256",
          "name": "tokenId",
          "type": "uint256"
        }
      ],
      "name": "MerchantTokenExpired",
      "type": "event"
    },
    {
      "anonymous": false,
      "inputs": [
        {
          "indexed": true,
          "internalType": "address",
          "name": "to",
          "type": "address"
        },
        {
          "indexed": false,
          "internalType": "uint256",
          "name": "tokenId",
          "type": "uint256"
        },
        {
          "indexed": false,
          "internalType": "uint256",
          "name": "expiryTime",
          "type": "uint256"
        }
      ],
      "name": "MerchantTokenMinted",
      "type": "event"
    },
    {
      "anonymous": false,
      "inputs": [
        {
          "indexed": false,
          "internalType": "uint256",
          "name": "tokenId",
          "type": "uint256"
        },
        {
          "indexed": false,
          "internalType": "uint256",
          "name": "newExpirationTimestamp",
          "type": "uint256"
        }
      ],
      "name": "MerchantTokenRenewed",
      "type": "event"
    },
    {
      "anonymous": false,
      "inputs": [
        {
          "indexed": true,
          "internalType": "address",
          "name": "previousOwner",
          "type": "address"
        },
        {
          "indexed": true,
          "internalType": "address",
          "name": "newOwner",
          "type": "address"
        }
      ],
      "name": "OwnershipTransferred",
      "type": "event"
    },
    {
      "anonymous": false,
      "inputs": [
        {
          "indexed": false,
          "internalType": "address",
          "name": "account",
          "type": "address"
        }
      ],
      "name": "Paused",
      "type": "event"
    },
    {
      "anonymous": false,
      "inputs": [
        {
          "indexed": true,
          "internalType": "address",
          "name": "from",
          "type": "address"
        },
        {
          "indexed": true,
          "internalType": "address",
          "name": "to",
          "type": "address"
        },
        {
          "indexed": true,
          "internalType": "uint256",
          "name": "tokenId",
          "type": "uint256"
        }
      ],
      "name": "Transfer",
      "type": "event"
    },
    {
      "anonymous": false,
      "inputs": [
        {
          "indexed": false,
          "internalType": "address",
          "name": "account",
          "type": "address"
        }
      ],
      "name": "Unpaused",
      "type": "event"
    },
    {
      "inputs": [
        {
          "internalType": "uint256",
          "name": "tokenId",
          "type": "uint256"
        },
        {
          "internalType": "uint256",
          "name": "additionalTime",
          "type": "uint256"
        }
      ],
      "name": "addExpirationTime",
      "outputs": [],
      "stateMutability": "nonpayable",
      "type": "function"
    },
    {
      "inputs": [
        {
          "internalType": "address",
          "name": "to",
          "type": "address"
        },
        {
          "internalType": "uint256",
          "name": "tokenId",
          "type": "uint256"
        }
      ],
      "name": "approve",
      "outputs": [],
      "stateMutability": "nonpayable",
      "type": "function"
    },
    {
      "inputs": [
        {
          "internalType": "address",
          "name": "owner",
          "type": "address"
        }
      ],
      "name": "balanceOf",
      "outputs": [
        {
          "internalType": "uint256",
          "name": "",
          "type": "uint256"
        }
      ],
      "stateMutability": "view",
      "type": "function"
    },
    {
      "inputs": [],
      "name": "burn",
      "outputs": [],
      "stateMutability": "nonpayable",
      "type": "function"
    },
    {
      "inputs": [
        {
          "internalType": "uint256",
          "name": "tokenId",
          "type": "uint256"
        }
      ],
      "name": "getApproved",
      "outputs": [
        {
          "internalType": "address",
          "name": "",
          "type": "address"
        }
      ],
      "stateMutability": "view",
      "type": "function"
    },
    {
      "inputs": [],
      "name": "getCurrentTokenId",
      "outputs": [
        {
          "internalType": "uint256",
          "name": "",
          "type": "uint256"
        }
      ],
      "stateMutability": "view",
      "type": "function"
    },
    {
      "inputs": [
        {
          "internalType": "uint256",
          "name": "tokenId",
          "type": "uint256"
        }
      ],
      "name": "getExpirationTimestamp",
      "outputs": [
        {
          "internalType": "uint256",
          "name": "",
          "type": "uint256"
        }
      ],
      "stateMutability": "view",
      "type": "function"
    },
    {
      "inputs": [
        {
          "internalType": "address",
          "name": "owner",
          "type": "address"
        }
      ],
      "name": "getTokenIdByOwner",
      "outputs": [
        {
          "internalType": "uint256",
          "name": "",
          "type": "uint256"
        }
      ],
      "stateMutability": "view",
      "type": "function"
    },
    {
      "inputs": [
        {
          "internalType": "address",
          "name": "user",
          "type": "address"
        }
      ],
      "name": "hasMerchantToken",
      "outputs": [
        {
          "internalType": "bool",
          "name": "",
          "type": "bool"
        }
      ],
      "stateMutability": "view",
      "type": "function"
    },
    {
      "inputs": [
        {
          "internalType": "address",
          "name": "user",
          "type": "address"
        }
      ],
      "name": "hasValidMerchantToken",
      "outputs": [
        {
          "internalType": "bool",
          "name": "",
          "type": "bool"
        }
      ],
      "stateMutability": "view",
      "type": "function"
    },
    {
      "inputs": [
        {
          "internalType": "uint256",
          "name": "tokenId",
          "type": "uint256"
        }
      ],
      "name": "invalidateToken",
      "outputs": [],
      "stateMutability": "nonpayable",
      "type": "function"
    },
    {
      "inputs": [
        {
          "internalType": "address",
          "name": "owner",
          "type": "address"
        },
        {
          "internalType": "address",
          "name": "operator",
          "type": "address"
        }
      ],
      "name": "isApprovedForAll",
      "outputs": [
        {
          "internalType": "bool",
          "name": "",
          "type": "bool"
        }
      ],
      "stateMutability": "view",
      "type": "function"
    },
    {
      "inputs": [
        {
          "internalType": "uint256",
          "name": "tokenId",
          "type": "uint256"
        }
      ],
      "name": "isExpired",
      "outputs": [
        {
          "internalType": "bool",
          "name": "",
          "type": "bool"
        }
      ],
      "stateMutability": "view",
      "type": "function"
    },
    {
      "inputs": [
        {
          "internalType": "address",
          "name": "to",
          "type": "address"
        },
        {
          "internalType": "uint256",
          "name": "expirationTimestamp",
          "type": "uint256"
        }
      ],
      "name": "mint",
      "outputs": [],
      "stateMutability": "nonpayable",
      "type": "function"
    },
    {
      "inputs": [],
      "name": "name",
      "outputs": [
        {
          "internalType": "string",
          "name": "",
          "type": "string"
        }
      ],
      "stateMutability": "view",
      "type": "function"
    },
    {
      "inputs": [],
      "name": "owner",
      "outputs": [
        {
          "internalType": "address",
          "name": "",
          "type": "address"
        }
      ],
      "stateMutability": "view",
      "type": "function"
    },
    {
      "inputs": [
        {
          "internalType": "uint256",
          "name": "tokenId",
          "type": "uint256"
        }
      ],
      "name": "ownerOf",
      "outputs": [
        {
          "internalType": "address",
          "name": "",
          "type": "address"
        }
      ],
      "stateMutability": "view",
      "type": "function"
    },
    {
      "inputs": [],
      "name": "pause",
      "outputs": [],
      "stateMutability": "nonpayable",
      "type": "function"
    },
    {
      "inputs": [],
      "name": "paused",
      "outputs": [
        {
          "internalType": "bool",
          "name": "",
          "type": "bool"
        }
      ],
      "stateMutability": "view",
      "type": "function"
    },
    {
      "inputs": [],
      "name": "renounceOwnership",
      "outputs": [],
      "stateMutability": "nonpayable",
      "type": "function"
    },
    {
      "inputs": [
        {
          "internalType": "address",
          "name": "from",
          "type": "address"
        },
        {
          "internalType": "address",
          "name": "to",
          "type": "address"
        },
        {
          "internalType": "uint256",
          "name": "tokenId",
          "type": "uint256"
        }
      ],
      "name": "safeTransferFrom",
      "outputs": [],
      "stateMutability": "nonpayable",
      "type": "function"
    },
    {
      "inputs": [
        {
          "internalType": "address",
          "name": "from",
          "type": "address"
        },
        {
          "internalType": "address",
          "name": "to",
          "type": "address"
        },
        {
          "internalType": "uint256",
          "name": "tokenId",
          "type": "uint256"
        },
        {
          "internalType": "bytes",
          "name": "data",
          "type": "bytes"
        }
      ],
      "name": "safeTransferFrom",
      "outputs": [],
      "stateMutability": "nonpayable",
      "type": "function"
    },
    {
      "inputs": [
        {
          "internalType": "address",
          "name": "operator",
          "type": "address"
        },
        {
          "internalType": "bool",
          "name": "approved",
          "type": "bool"
        }
      ],
      "name": "setApprovalForAll",
      "outputs": [],
      "stateMutability": "nonpayable",
      "type": "function"
    },
    {
      "inputs": [
        {
          "internalType": "bytes4",
          "name": "interfaceId",
          "type": "bytes4"
        }
      ],
      "name": "supportsInterface",
      "outputs": [
        {
          "internalType": "bool",
          "name": "",
          "type": "bool"
        }
      ],
      "stateMutability": "view",
      "type": "function"
    },
    {
      "inputs": [],
      "name": "symbol",
      "outputs": [
        {
          "internalType": "string",
          "name": "",
          "type": "string"
        }
      ],
      "stateMutability": "view",
      "type": "function"
    },
    {
      "inputs": [
        {
          "internalType": "uint256",
          "name": "tokenId",
          "type": "uint256"
        }
      ],
      "name": "tokenURI",
      "outputs": [
        {
          "internalType": "string",
          "name": "",
          "type": "string"
        }
      ],
      "stateMutability": "view",
      "type": "function"
    },
    {
      "inputs": [
        {
          "internalType": "address",
          "name": "from",
          "type": "address"
        },
        {
          "internalType": "address",
          "name": "to",
          "type": "address"
        },
        {
          "internalType": "uint256",
          "name": "tokenId",
          "type": "uint256"
        }
      ],
      "name": "transferFrom",
      "outputs": [],
      "stateMutability": "nonpayable",
      "type": "function"
    },
    {
      "inputs": [
        {
          "internalType": "address",
          "name": "newOwner",
          "type": "address"
        }
      ],
      "name": "transferOwnership",
      "outputs": [],
      "stateMutability": "nonpayable",
      "type": "function"
    },
    {
      "inputs": [],
      "name": "unpause",
      "outputs": [],
      "stateMutability": "nonpayable",
      "type": "function"
    }
  ],
  "bytecode": "0x608060405234801561001057600080fd5b506040518060400160405280601781526020017f4c6974746572636f696e4d65726368616e74546f6b656e0000000000000000008152506040518060400160405280600481526020017f4c584d5400000000000000000000000000000000000000000000000000000000815250816000908161008c91906103f9565b50806001908161009c91906103f9565b5050506100bb6100b06100db60201b60201c565b6100e360201b60201c565b6000600660146101000a81548160ff0219169083151502179055506104cb565b600033905090565b6000600660009054906101000a900473ffffffffffffffffffffffffffffffffffffffff16905081600660006101000a81548173ffffffffffffffffffffffffffffffffffffffff021916908373ffffffffffffffffffffffffffffffffffffffff1602179055508173ffffffffffffffffffffffffffffffffffffffff168173ffffffffffffffffffffffffffffffffffffffff167f8be0079c531659141344cd1fd0a4f28419497f9722a3daafe3b4186f6b6457e060405160405180910390a35050565b600081519050919050565b7f4e487b7100000000000000000000000000000000000000000000000000000000600052604160045260246000fd5b7f4e487b7100000000000000000000000000000000000000000000000000000000600052602260045260246000fd5b6000600282049050600182168061022a57607f821691505b60208210810361023d5761023c6101e3565b5b50919050565b60008190508160005260206000209050919050565b60006020601f8301049050919050565b600082821b905092915050565b6000600883026102a57fffffffffffffffffffffffffffffffffffffffffffffffffffffffffffffffff82610268565b6102af8683610268565b95508019841693508086168417925050509392505050565b6000819050919050565b6000819050919050565b60006102f66102f16102ec846102c7565b6102d1565b6102c7565b9050919050565b6000819050919050565b610310836102db565b61032461031c826102fd565b848454610275565b825550505050565b600090565b61033961032c565b610344818484610307565b505050565b5b818110156103685761035d600082610331565b60018101905061034a565b5050565b601f8211156103ad5761037e81610243565b61038784610258565b81016020851015610396578190505b6103aa6103a285610258565b830182610349565b50505b505050565b600082821c905092915050565b60006103d0600019846008026103b2565b1980831691505092915050565b60006103e983836103bf565b9150826002028217905092915050565b610402826101a9565b67ffffffffffffffff81111561041b5761041a6101b4565b5b6104258254610212565b61043082828561036c565b600060209050601f8311600181146104635760008415610451578287015190505b61045b85826103dd565b8655506104c3565b601f19841661047186610243565b60005b8281101561049957848901518255600182019150602085019450602081019050610474565b868310156104b657848901516104b2601f8916826103bf565b8355505b6001600288020188555050505b505050505050565b613c61806104da6000396000f3fe608060405234801561001057600080fd5b50600436106101cf5760003560e01c80636352211e11610104578063a22cb465116100a2578063d9e5896e11610071578063d9e5896e146104f2578063e985e9c514610522578063ea55763314610552578063f2fde38b14610582576101cf565b8063a22cb4651461045a578063b88d4fde14610476578063c87b56dd14610492578063d9548e53146104c2576101cf565b80638456cb59116100de5780638456cb59146103e45780638da5cb5b146103ee578063952e5cb41461040c57806395d89b411461043c576101cf565b80636352211e1461037a57806370a08231146103aa578063715018a6146103da576101cf565b80633f4ba83a1161017157806342842e0e1161014b57806342842e0e1461031857806344df8e7014610334578063561892361461033e5780635c975abb1461035c576101cf565b80633f4ba83a146102d657806340c10f19146102e0578063425604d6146102fc576101cf565b8063081812fc116101ad578063081812fc14610252578063095ea7b31461028257806323b872dd1461029e578063393ed91a146102ba576101cf565b806301ffc9a7146101d457806302556a291461020457806306fdde0314610234575b600080fd5b6101ee60048036038101906101e99190612803565b61059e565b6040516101fb919061284b565b60405180910390f35b61021e600480360381019061021991906128c4565b6105b0565b60405161022b919061284b565b60405180910390f35b61023c610623565b6040516102499190612981565b60405180910390f35b61026c600480360381019061026791906129d9565b6106b5565b6040516102799190612a15565b60405180910390f35b61029c60048036038101906102979190612a30565b6106fb565b005b6102b860048036038101906102b39190612a70565b610812565b005b6102d460048036038101906102cf91906129d9565b610872565b005b6102de610972565b005b6102fa60048036038101906102f59190612a30565b610984565b005b61031660048036038101906103119190612ac3565b610b63565b005b610332600480360381019061032d9190612a70565b610c78565b005b61033c610c98565b005b610346610d33565b6040516103539190612b12565b60405180910390f35b610364610d44565b604051610371919061284b565b60405180910390f35b610394600480360381019061038f91906129d9565b610d5b565b6040516103a19190612a15565b60405180910390f35b6103c460048036038101906103bf91906128c4565b610de1565b6040516103d19190612b12565b60405180910390f35b6103e2610e98565b005b6103ec610eac565b005b6103f6610ebe565b6040516104039190612a15565b60405180910390f35b610426600480360381019061042191906128c4565b610ee8565b604051610433919061284b565b60405180910390f35b610444610f51565b6040516104519190612981565b60405180910390f35b610474600480360381019061046f9190612b59565b610fe3565b005b610490600480360381019061048b9190612cce565b610ff9565b005b6104ac60048036038101906104a791906129d9565b61105b565b6040516104b99190612981565b60405180910390f35b6104dc60048036038101906104d791906129d9565b6110c3565b6040516104e9919061284b565b60405180910390f35b61050c600480360381019061050791906129d9565b61112a565b6040516105199190612b12565b60405180910390f35b61053c60048036038101906105379190612d51565b61118f565b604051610549919061284b565b60405180910390f35b61056c600480360381019061056791906128c4565b611223565b6040516105799190612b12565b60405180910390f35b61059c600480360381019061059791906128c4565b611323565b005b60006105a9826113a6565b9050919050565b600080600860008473ffffffffffffffffffffffffffffffffffffffff1673ffffffffffffffffffffffffffffffffffffffff16815260200190815260200160002054905060008114806106095750610608816110c3565b5b1561061857600091505061061e565b60019150505b919050565b60606000805461063290612dc0565b80601f016020809104026020016040519081016040528092919081815260200182805461065e90612dc0565b80156106ab5780601f10610680576101008083540402835291602001916106ab565b820191906000526020600020905b81548152906001019060200180831161068e57829003601f168201915b5050505050905090565b60006106c082611488565b6004600083815260200190815260200160002060009054906101000a900473ffffffffffffffffffffffffffffffffffffffff169050919050565b600061070682610d5b565b90508073ffffffffffffffffffffffffffffffffffffffff168373ffffffffffffffffffffffffffffffffffffffff1603610776576040517f08c379a000000000000000000000000000000000000000000000000000000000815260040161076d90612e63565b60405180910390fd5b8073ffffffffffffffffffffffffffffffffffffffff166107956114d3565b73ffffffffffffffffffffffffffffffffffffffff1614806107c457506107c3816107be6114d3565b61118f565b5b610803576040517f08c379a00000000000000000000000000000000000000000000000000000000081526004016107fa90612ef5565b60405180910390fd5b61080d83836114db565b505050565b61082361081d6114d3565b82611594565b610862576040517f08c379a000000000000000000000000000000000000000000000000000000000815260040161085990612f87565b60405180910390fd5b61086d838383611629565b505050565b61087a611922565b6108826119a0565b61088b816119ea565b6108ca576040517f08c379a00000000000000000000000000000000000000000000000000000000081526004016108c190612ff3565b60405180910390fd5b6108d3816110c3565b15610913576040517f08c379a000000000000000000000000000000000000000000000000000000000815260040161090a9061305f565b60405180910390fd5b610e104261092191906130ae565b60096000838152602001908152602001600020819055507f754f3aa765fa1f221ea409fddea972deff6ce410d141d5cded4fc7ec690710c0816040516109679190612b12565b60405180910390a150565b61097a611922565b610982611a2b565b565b61098c611922565b6109946119a0565b600073ffffffffffffffffffffffffffffffffffffffff168273ffffffffffffffffffffffffffffffffffffffff1603610a03576040517f08c379a00000000000000000000000000000000000000000000000000000000081526004016109fa9061312e565b60405180910390fd5b428111610a45576040517f08c379a0000000000000000000000000000000000000000000000000000000008152600401610a3c906131c0565b60405180910390fd5b6000610a5083610de1565b14610a90576040517f08c379a0000000000000000000000000000000000000000000000000000000008152600401610a879061322c565b60405180910390fd5b610a9a6007611a8e565b6000610aa66007611aa4565b9050816009600083815260200190815260200160002081905550610aca8382611ab2565b80600860008573ffffffffffffffffffffffffffffffffffffffff1673ffffffffffffffffffffffffffffffffffffffff168152602001908152602001600020819055508273ffffffffffffffffffffffffffffffffffffffff167f655ff37b06d138fc26fda07d435a40368e63b8d3cbd7835215334ff9e7fcd7828284604051610b5692919061324c565b60405180910390a2505050565b610b6b611922565b610b736119a0565b610b7c826119ea565b610bbb576040517f08c379a0000000000000000000000000000000000000000000000000000000008152600401610bb290612ff3565b60405180910390fd5b60008111610bfe576040517f08c379a0000000000000000000000000000000000000000000000000000000008152600401610bf5906132e7565b60405180910390fd5b80600960008481526020019081526020016000206000828254610c219190613307565b925050819055507f0db48b23ad6f04f212b5fddef4017753a195535f0d61c4daa790b4f70f28c07f826009600085815260200190815260200160002054604051610c6c92919061324c565b60405180910390a15050565b610c9383838360405180602001604052806000815250610ff9565b505050565b610ca06119a0565b6000600860003373ffffffffffffffffffffffffffffffffffffffff1673ffffffffffffffffffffffffffffffffffffffff16815260200190815260200160002054905060008103610d27576040517f08c379a0000000000000000000000000000000000000000000000000000000008152600401610d1e90613387565b60405180910390fd5b610d3081611ad0565b50565b6000610d3f6007611aa4565b905090565b6000600660149054906101000a900460ff16905090565b600080610d6783611c1e565b9050600073ffffffffffffffffffffffffffffffffffffffff168173ffffffffffffffffffffffffffffffffffffffff1603610dd8576040517f08c379a0000000000000000000000000000000000000000000000000000000008152600401610dcf906133f3565b60405180910390fd5b80915050919050565b60008073ffffffffffffffffffffffffffffffffffffffff168273ffffffffffffffffffffffffffffffffffffffff1603610e51576040517f08c379a0000000000000000000000000000000000000000000000000000000008152600401610e4890613485565b60405180910390fd5b600360008373ffffffffffffffffffffffffffffffffffffffff1673ffffffffffffffffffffffffffffffffffffffff168152602001908152602001600020549050919050565b610ea0611922565b610eaa6000611c5b565b565b610eb4611922565b610ebc611d21565b565b6000600660009054906101000a900473ffffffffffffffffffffffffffffffffffffffff16905090565b600080600860008473ffffffffffffffffffffffffffffffffffffffff1673ffffffffffffffffffffffffffffffffffffffff16815260200190815260200160002054905060008103610f3f576000915050610f4c565b610f48816119ea565b9150505b919050565b606060018054610f6090612dc0565b80601f0160208091040260200160405190810160405280929190818152602001828054610f8c90612dc0565b8015610fd95780601f10610fae57610100808354040283529160200191610fd9565b820191906000526020600020905b815481529060010190602001808311610fbc57829003601f168201915b5050505050905090565b610ff5610fee6114d3565b8383611d84565b5050565b61100a6110046114d3565b83611594565b611049576040517f08c379a000000000000000000000000000000000000000000000000000000000815260040161104090612f87565b60405180910390fd5b61105584848484611ef0565b50505050565b606061106682611488565b6000611070611f4c565b9050600081511161109057604051806020016040528060008152506110bb565b8061109a84611f63565b6040516020016110ab9291906134e1565b6040516020818303038152906040525b915050919050565b60006110ce826119ea565b61110d576040517f08c379a000000000000000000000000000000000000000000000000000000000815260040161110490612ff3565b60405180910390fd5b600960008381526020019081526020016000205442119050919050565b6000611135826119ea565b611174576040517f08c379a000000000000000000000000000000000000000000000000000000000815260040161116b90612ff3565b60405180910390fd5b60096000838152602001908152602001600020549050919050565b6000600560008473ffffffffffffffffffffffffffffffffffffffff1673ffffffffffffffffffffffffffffffffffffffff16815260200190815260200160002060008373ffffffffffffffffffffffffffffffffffffffff1673ffffffffffffffffffffffffffffffffffffffff16815260200190815260200160002060009054906101000a900460ff16905092915050565b60008073ffffffffffffffffffffffffffffffffffffffff168273ffffffffffffffffffffffffffffffffffffffff1603611293576040517f08c379a000000000000000000000000000000000000000000000000000000000815260040161128a90613551565b60405180910390fd5b6000600860008473ffffffffffffffffffffffffffffffffffffffff1673ffffffffffffffffffffffffffffffffffffffff1681526020019081526020016000205490506000810361131a576040517f08c379a0000000000000000000000000000000000000000000000000000000008152600401611311906135bd565b60405180910390fd5b80915050919050565b61132b611922565b600073ffffffffffffffffffffffffffffffffffffffff168173ffffffffffffffffffffffffffffffffffffffff160361139a576040517f08c379a00000000000000000000000000000000000000000000000000000000081526004016113919061364f565b60405180910390fd5b6113a381611c5b565b50565b60007f80ac58cd000000000000000000000000000000000000000000000000000000007bffffffffffffffffffffffffffffffffffffffffffffffffffffffff1916827bffffffffffffffffffffffffffffffffffffffffffffffffffffffff1916148061147157507f5b5e139f000000000000000000000000000000000000000000000000000000007bffffffffffffffffffffffffffffffffffffffffffffffffffffffff1916827bffffffffffffffffffffffffffffffffffffffffffffffffffffffff1916145b80611481575061148082612031565b5b9050919050565b611491816119ea565b6114d0576040517f08c379a00000000000000000000000000000000000000000000000000000000081526004016114c7906133f3565b60405180910390fd5b50565b600033905090565b816004600083815260200190815260200160002060006101000a81548173ffffffffffffffffffffffffffffffffffffffff021916908373ffffffffffffffffffffffffffffffffffffffff160217905550808273ffffffffffffffffffffffffffffffffffffffff1661154e83610d5b565b73ffffffffffffffffffffffffffffffffffffffff167f8c5be1e5ebec7d5bd14f71427d1e84f3dd0314c0f7b2291e5b200ac8c7c3b92560405160405180910390a45050565b6000806115a083610d5b565b90508073ffffffffffffffffffffffffffffffffffffffff168473ffffffffffffffffffffffffffffffffffffffff1614806115e257506115e1818561118f565b5b8061162057508373ffffffffffffffffffffffffffffffffffffffff16611608846106b5565b73ffffffffffffffffffffffffffffffffffffffff16145b91505092915050565b8273ffffffffffffffffffffffffffffffffffffffff1661164982610d5b565b73ffffffffffffffffffffffffffffffffffffffff161461169f576040517f08c379a0000000000000000000000000000000000000000000000000000000008152600401611696906136e1565b60405180910390fd5b600073ffffffffffffffffffffffffffffffffffffffff168273ffffffffffffffffffffffffffffffffffffffff160361170e576040517f08c379a000000000000000000000000000000000000000000000000000000000815260040161170590613773565b60405180910390fd5b61171b838383600161209b565b8273ffffffffffffffffffffffffffffffffffffffff1661173b82610d5b565b73ffffffffffffffffffffffffffffffffffffffff1614611791576040517f08c379a0000000000000000000000000000000000000000000000000000000008152600401611788906136e1565b60405180910390fd5b6004600082815260200190815260200160002060006101000a81549073ffffffffffffffffffffffffffffffffffffffff02191690556001600360008573ffffffffffffffffffffffffffffffffffffffff1673ffffffffffffffffffffffffffffffffffffffff168152602001908152602001600020600082825403925050819055506001600360008473ffffffffffffffffffffffffffffffffffffffff1673ffffffffffffffffffffffffffffffffffffffff16815260200190815260200160002060008282540192505081905550816002600083815260200190815260200160002060006101000a81548173ffffffffffffffffffffffffffffffffffffffff021916908373ffffffffffffffffffffffffffffffffffffffff160217905550808273ffffffffffffffffffffffffffffffffffffffff168473ffffffffffffffffffffffffffffffffffffffff167fddf252ad1be2c89b69c2b068fc378daa952ba7f163c4a11628f55a4df523b3ef60405160405180910390a461191d83838360016121cd565b505050565b61192a6114d3565b73ffffffffffffffffffffffffffffffffffffffff16611948610ebe565b73ffffffffffffffffffffffffffffffffffffffff161461199e576040517f08c379a0000000000000000000000000000000000000000000000000000000008152600401611995906137df565b60405180910390fd5b565b6119a8610d44565b156119e8576040517f08c379a00000000000000000000000000000000000000000000000000000000081526004016119df9061384b565b60405180910390fd5b565b60008073ffffffffffffffffffffffffffffffffffffffff16611a0c83611c1e565b73ffffffffffffffffffffffffffffffffffffffff1614159050919050565b611a336121d3565b6000600660146101000a81548160ff0219169083151502179055507f5db9ee0a495bf2e6ff9c91a7834c1ba4fdd244a5e8aa4e537bd38aeae4b073aa611a776114d3565b604051611a849190612a15565b60405180910390a1565b6001816000016000828254019250508190555050565b600081600001549050919050565b611acc82826040518060200160405280600081525061221c565b5050565b6000611adb82610d5b565b9050611aeb81600084600161209b565b611af482610d5b565b90506004600083815260200190815260200160002060006101000a81549073ffffffffffffffffffffffffffffffffffffffff02191690556001600360008373ffffffffffffffffffffffffffffffffffffffff1673ffffffffffffffffffffffffffffffffffffffff168152602001908152602001600020600082825403925050819055506002600083815260200190815260200160002060006101000a81549073ffffffffffffffffffffffffffffffffffffffff021916905581600073ffffffffffffffffffffffffffffffffffffffff168273ffffffffffffffffffffffffffffffffffffffff167fddf252ad1be2c89b69c2b068fc378daa952ba7f163c4a11628f55a4df523b3ef60405160405180910390a4611c1a8160008460016121cd565b5050565b60006002600083815260200190815260200160002060009054906101000a900473ffffffffffffffffffffffffffffffffffffffff169050919050565b6000600660009054906101000a900473ffffffffffffffffffffffffffffffffffffffff16905081600660006101000a81548173ffffffffffffffffffffffffffffffffffffffff021916908373ffffffffffffffffffffffffffffffffffffffff1602179055508173ffffffffffffffffffffffffffffffffffffffff168173ffffffffffffffffffffffffffffffffffffffff167f8be0079c531659141344cd1fd0a4f28419497f9722a3daafe3b4186f6b6457e060405160405180910390a35050565b611d296119a0565b6001600660146101000a81548160ff0219169083151502179055507f62e78cea01bee320cd4e420270b5ea74000d11b0c9f74754ebdbfc544b05a258611d6d6114d3565b604051611d7a9190612a15565b60405180910390a1565b8173ffffffffffffffffffffffffffffffffffffffff168373ffffffffffffffffffffffffffffffffffffffff1603611df2576040517f08c379a0000000000000000000000000000000000000000000000000000000008152600401611de9906138b7565b60405180910390fd5b80600560008573ffffffffffffffffffffffffffffffffffffffff1673ffffffffffffffffffffffffffffffffffffffff16815260200190815260200160002060008473ffffffffffffffffffffffffffffffffffffffff1673ffffffffffffffffffffffffffffffffffffffff16815260200190815260200160002060006101000a81548160ff0219169083151502179055508173ffffffffffffffffffffffffffffffffffffffff168373ffffffffffffffffffffffffffffffffffffffff167f17307eab39ab6107e8899845ad3d59bd9653f200f220920489ca2b5937696c3183604051611ee3919061284b565b60405180910390a3505050565b611efb848484611629565b611f0784848484612277565b611f46576040517f08c379a0000000000000000000000000000000000000000000000000000000008152600401611f3d90613949565b60405180910390fd5b50505050565b606060405180602001604052806000815250905090565b606060006001611f72846123fe565b01905060008167ffffffffffffffff811115611f9157611f90612ba3565b5b6040519080825280601f01601f191660200182016040528015611fc35781602001600182028036833780820191505090505b509050600082602001820190505b600115612026578080600190039150507f3031323334353637383961626364656600000000000000000000000000000000600a86061a8153600a858161201a57612019613969565b5b04945060008503611fd1575b819350505050919050565b60007f01ffc9a7000000000000000000000000000000000000000000000000000000007bffffffffffffffffffffffffffffffffffffffffffffffffffffffff1916827bffffffffffffffffffffffffffffffffffffffffffffffffffffffff1916149050919050565b6120a784848484612551565b600073ffffffffffffffffffffffffffffffffffffffff168473ffffffffffffffffffffffffffffffffffffffff16148061210e5750600073ffffffffffffffffffffffffffffffffffffffff168373ffffffffffffffffffffffffffffffffffffffff16145b61214d576040517f08c379a0000000000000000000000000000000000000000000000000000000008152600401612144906139e4565b60405180910390fd5b600073ffffffffffffffffffffffffffffffffffffffff168473ffffffffffffffffffffffffffffffffffffffff16146121c7576000600860008673ffffffffffffffffffffffffffffffffffffffff1673ffffffffffffffffffffffffffffffffffffffff168152602001908152602001600020819055505b50505050565b50505050565b6121db610d44565b61221a576040517f08c379a000000000000000000000000000000000000000000000000000000000815260040161221190613a50565b60405180910390fd5b565b6122268383612557565b6122336000848484612277565b612272576040517f08c379a000000000000000000000000000000000000000000000000000000000815260040161226990613949565b60405180910390fd5b505050565b60006122988473ffffffffffffffffffffffffffffffffffffffff16612774565b156123f1578373ffffffffffffffffffffffffffffffffffffffff1663150b7a026122c16114d3565b8786866040518563ffffffff1660e01b81526004016122e39493929190613ac5565b6020604051808303816000875af192505050801561231f57506040513d601f19601f8201168201806040525081019061231c9190613b26565b60015b6123a1573d806000811461234f576040519150601f19603f3d011682016040523d82523d6000602084013e612354565b606091505b506000815103612399576040517f08c379a000000000000000000000000000000000000000000000000000000000815260040161239090613949565b60405180910390fd5b805181602001fd5b63150b7a0260e01b7bffffffffffffffffffffffffffffffffffffffffffffffffffffffff1916817bffffffffffffffffffffffffffffffffffffffffffffffffffffffff1916149150506123f6565b600190505b949350505050565b600080600090507a184f03e93ff9f4daa797ed6e38ed64bf6a1f010000000000000000831061245c577a184f03e93ff9f4daa797ed6e38ed64bf6a1f010000000000000000838161245257612451613969565b5b0492506040810190505b6d04ee2d6d415b85acef81000000008310612499576d04ee2d6d415b85acef8100000000838161248f5761248e613969565b5b0492506020810190505b662386f26fc1000083106124c857662386f26fc1000083816124be576124bd613969565b5b0492506010810190505b6305f5e10083106124f1576305f5e10083816124e7576124e6613969565b5b0492506008810190505b612710831061251657612710838161250c5761250b613969565b5b0492506004810190505b60648310612539576064838161252f5761252e613969565b5b0492506002810190505b600a8310612548576001810190505b80915050919050565b50505050565b600073ffffffffffffffffffffffffffffffffffffffff168273ffffffffffffffffffffffffffffffffffffffff16036125c6576040517f08c379a00000000000000000000000000000000000000000000000000000000081526004016125bd90613b9f565b60405180910390fd5b6125cf816119ea565b1561260f576040517f08c379a000000000000000000000000000000000000000000000000000000000815260040161260690613c0b565b60405180910390fd5b61261d60008383600161209b565b612626816119ea565b15612666576040517f08c379a000000000000000000000000000000000000000000000000000000000815260040161265d90613c0b565b60405180910390fd5b6001600360008473ffffffffffffffffffffffffffffffffffffffff1673ffffffffffffffffffffffffffffffffffffffff16815260200190815260200160002060008282540192505081905550816002600083815260200190815260200160002060006101000a81548173ffffffffffffffffffffffffffffffffffffffff021916908373ffffffffffffffffffffffffffffffffffffffff160217905550808273ffffffffffffffffffffffffffffffffffffffff16600073ffffffffffffffffffffffffffffffffffffffff167fddf252ad1be2c89b69c2b068fc378daa952ba7f163c4a11628f55a4df523b3ef60405160405180910390a46127706000838360016121cd565b5050565b6000808273ffffffffffffffffffffffffffffffffffffffff163b119050919050565b6000604051905090565b600080fd5b600080fd5b60007fffffffff0000000000000000000000000000000000000000000000000000000082169050919050565b6127e0816127ab565b81146127eb57600080fd5b50565b6000813590506127fd816127d7565b92915050565b600060208284031215612819576128186127a1565b5b6000612827848285016127ee565b91505092915050565b60008115159050919050565b61284581612830565b82525050565b6000602082019050612860600083018461283c565b92915050565b600073ffffffffffffffffffffffffffffffffffffffff82169050919050565b600061289182612866565b9050919050565b6128a181612886565b81146128ac57600080fd5b50565b6000813590506128be81612898565b92915050565b6000602082840312156128da576128d96127a1565b5b60006128e8848285016128af565b91505092915050565b600081519050919050565b600082825260208201905092915050565b60005b8381101561292b578082015181840152602081019050612910565b60008484015250505050565b6000601f19601f8301169050919050565b6000612953826128f1565b61295d81856128fc565b935061296d81856020860161290d565b61297681612937565b840191505092915050565b6000602082019050818103600083015261299b8184612948565b905092915050565b6000819050919050565b6129b6816129a3565b81146129c157600080fd5b50565b6000813590506129d3816129ad565b92915050565b6000602082840312156129ef576129ee6127a1565b5b60006129fd848285016129c4565b91505092915050565b612a0f81612886565b82525050565b6000602082019050612a2a6000830184612a06565b92915050565b60008060408385031215612a4757612a466127a1565b5b6000612a55858286016128af565b9250506020612a66858286016129c4565b9150509250929050565b600080600060608486031215612a8957612a886127a1565b5b6000612a97868287016128af565b9350506020612aa8868287016128af565b9250506040612ab9868287016129c4565b9150509250925092565b60008060408385031215612ada57612ad96127a1565b5b6000612ae8858286016129c4565b9250506020612af9858286016129c4565b9150509250929050565b612b0c816129a3565b82525050565b6000602082019050612b276000830184612b03565b92915050565b612b3681612830565b8114612b4157600080fd5b50565b600081359050612b5381612b2d565b92915050565b60008060408385031215612b7057612b6f6127a1565b5b6000612b7e858286016128af565b9250506020612b8f85828601612b44565b9150509250929050565b600080fd5b600080fd5b7f4e487b7100000000000000000000000000000000000000000000000000000000600052604160045260246000fd5b612bdb82612937565b810181811067ffffffffffffffff82111715612bfa57612bf9612ba3565b5b80604052505050565b6000612c0d612797565b9050612c198282612bd2565b919050565b600067ffffffffffffffff821115612c3957612c38612ba3565b5b612c4282612937565b9050602081019050919050565b82818337600083830152505050565b6000612c71612c6c84612c1e565b612c03565b905082815260208101848484011115612c8d57612c8c612b9e565b5b612c98848285612c4f565b509392505050565b600082601f830112612cb557612cb4612b99565b5b8135612cc5848260208601612c5e565b91505092915050565b60008060008060808587031215612ce857612ce76127a1565b5b6000612cf6878288016128af565b9450506020612d07878288016128af565b9350506040612d18878288016129c4565b925050606085013567ffffffffffffffff811115612d3957612d386127a6565b5b612d4587828801612ca0565b91505092959194509250565b60008060408385031215612d6857612d676127a1565b5b6000612d76858286016128af565b9250506020612d87858286016128af565b9150509250929050565b7f4e487b7100000000000000000000000000000000000000000000000000000000600052602260045260246000fd5b60006002820490506001821680612dd857607f821691505b602082108103612deb57612dea612d91565b5b50919050565b7f4552433732313a20617070726f76616c20746f2063757272656e74206f776e6560008201527f7200000000000000000000000000000000000000000000000000000000000000602082015250565b6000612e4d6021836128fc565b9150612e5882612df1565b604082019050919050565b60006020820190508181036000830152612e7c81612e40565b9050919050565b7f4552433732313a20617070726f76652063616c6c6572206973206e6f7420746f60008201527f6b656e206f776e6572206f7220617070726f76656420666f7220616c6c000000602082015250565b6000612edf603d836128fc565b9150612eea82612e83565b604082019050919050565b60006020820190508181036000830152612f0e81612ed2565b9050919050565b7f4552433732313a2063616c6c6572206973206e6f7420746f6b656e206f776e6560008201527f72206f7220617070726f76656400000000000000000000000000000000000000602082015250565b6000612f71602d836128fc565b9150612f7c82612f15565b604082019050919050565b60006020820190508181036000830152612fa081612f64565b9050919050565b7f546f6b656e20646f6573206e6f74206578697374000000000000000000000000600082015250565b6000612fdd6014836128fc565b9150612fe882612fa7565b602082019050919050565b6000602082019050818103600083015261300c81612fd0565b9050919050565b7f546f6b656e20616c726561647920657870697265640000000000000000000000600082015250565b60006130496015836128fc565b915061305482613013565b602082019050919050565b600060208201905081810360008301526130788161303c565b9050919050565b7f4e487b7100000000000000000000000000000000000000000000000000000000600052601160045260246000fd5b60006130b9826129a3565b91506130c4836129a3565b92508282039050818111156130dc576130db61307f565b5b92915050565b7f43616e6e6f74206d696e7420746f207a65726f20616464726573730000000000600082015250565b6000613118601b836128fc565b9150613123826130e2565b602082019050919050565b600060208201905081810360008301526131478161310b565b9050919050565b7f45787069726174696f6e206d75737420626520696e207468652066757475726560008201527f2e00000000000000000000000000000000000000000000000000000000000000602082015250565b60006131aa6021836128fc565b91506131b58261314e565b604082019050919050565b600060208201905081810360008301526131d98161319d565b9050919050565b7f5573657220616c726561647920686173206120746f6b656e0000000000000000600082015250565b60006132166018836128fc565b9150613221826131e0565b602082019050919050565b6000602082019050818103600083015261324581613209565b9050919050565b60006040820190506132616000830185612b03565b61326e6020830184612b03565b9392505050565b7f4164646974696f6e616c2074696d65206d75737420626520677265617465722060008201527f7468616e207a65726f0000000000000000000000000000000000000000000000602082015250565b60006132d16029836128fc565b91506132dc82613275565b604082019050919050565b60006020820190508181036000830152613300816132c4565b9050919050565b6000613312826129a3565b915061331d836129a3565b92508282019050808211156133355761333461307f565b5b92915050565b7f596f7520646f206e6f74206f776e206120746f6b656e00000000000000000000600082015250565b60006133716016836128fc565b915061337c8261333b565b602082019050919050565b600060208201905081810360008301526133a081613364565b9050919050565b7f4552433732313a20696e76616c696420746f6b656e2049440000000000000000600082015250565b60006133dd6018836128fc565b91506133e8826133a7565b602082019050919050565b6000602082019050818103600083015261340c816133d0565b9050919050565b7f4552433732313a2061646472657373207a65726f206973206e6f74206120766160008201527f6c6964206f776e65720000000000000000000000000000000000000000000000602082015250565b600061346f6029836128fc565b915061347a82613413565b604082019050919050565b6000602082019050818103600083015261349e81613462565b9050919050565b600081905092915050565b60006134bb826128f1565b6134c581856134a5565b93506134d581856020860161290d565b80840191505092915050565b60006134ed82856134b0565b91506134f982846134b0565b91508190509392505050565b7f496e76616c696420616464726573730000000000000000000000000000000000600082015250565b600061353b600f836128fc565b915061354682613505565b602082019050919050565b6000602082019050818103600083015261356a8161352e565b9050919050565b7f4f776e657220646f6573206e6f742068617665206120746f6b656e0000000000600082015250565b60006135a7601b836128fc565b91506135b282613571565b602082019050919050565b600060208201905081810360008301526135d68161359a565b9050919050565b7f4f776e61626c653a206e6577206f776e657220697320746865207a65726f206160008201527f6464726573730000000000000000000000000000000000000000000000000000602082015250565b60006136396026836128fc565b9150613644826135dd565b604082019050919050565b600060208201905081810360008301526136688161362c565b9050919050565b7f4552433732313a207472616e736665722066726f6d20696e636f72726563742060008201527f6f776e6572000000000000000000000000000000000000000000000000000000602082015250565b60006136cb6025836128fc565b91506136d68261366f565b604082019050919050565b600060208201905081810360008301526136fa816136be565b9050919050565b7f4552433732313a207472616e7366657220746f20746865207a65726f2061646460008201527f7265737300000000000000000000000000000000000000000000000000000000602082015250565b600061375d6024836128fc565b915061376882613701565b604082019050919050565b6000602082019050818103600083015261378c81613750565b9050919050565b7f4f776e61626c653a2063616c6c6572206973206e6f7420746865206f776e6572600082015250565b60006137c96020836128fc565b91506137d482613793565b602082019050919050565b600060208201905081810360008301526137f8816137bc565b9050919050565b7f5061757361626c653a2070617573656400000000000000000000000000000000600082015250565b60006138356010836128fc565b9150613840826137ff565b602082019050919050565b6000602082019050818103600083015261386481613828565b9050919050565b7f4552433732313a20617070726f766520746f2063616c6c657200000000000000600082015250565b60006138a16019836128fc565b91506138ac8261386b565b602082019050919050565b600060208201905081810360008301526138d081613894565b9050919050565b7f4552433732313a207472616e7366657220746f206e6f6e20455243373231526560008201527f63656976657220696d706c656d656e7465720000000000000000000000000000602082015250565b60006139336032836128fc565b915061393e826138d7565b604082019050919050565b6000602082019050818103600083015261396281613926565b9050919050565b7f4e487b7100000000000000000000000000000000000000000000000000000000600052601260045260246000fd5b7f5472616e7366657273206172652064697361626c656400000000000000000000600082015250565b60006139ce6016836128fc565b91506139d982613998565b602082019050919050565b600060208201905081810360008301526139fd816139c1565b9050919050565b7f5061757361626c653a206e6f7420706175736564000000000000000000000000600082015250565b6000613a3a6014836128fc565b9150613a4582613a04565b602082019050919050565b60006020820190508181036000830152613a6981613a2d565b9050919050565b600081519050919050565b600082825260208201905092915050565b6000613a9782613a70565b613aa18185613a7b565b9350613ab181856020860161290d565b613aba81612937565b840191505092915050565b6000608082019050613ada6000830187612a06565b613ae76020830186612a06565b613af46040830185612b03565b8181036060830152613b068184613a8c565b905095945050505050565b600081519050613b20816127d7565b92915050565b600060208284031215613b3c57613b3b6127a1565b5b6000613b4a84828501613b11565b91505092915050565b7f4552433732313a206d696e7420746f20746865207a65726f2061646472657373600082015250565b6000613b896020836128fc565b9150613b9482613b53565b602082019050919050565b60006020820190508181036000830152613bb881613b7c565b9050919050565b7f4552433732313a20746f6b656e20616c7265616479206d696e74656400000000600082015250565b6000613bf5601c836128fc565b9150613c0082613bbf565b602082019050919050565b60006020820190508181036000830152613c2481613be8565b905091905056fea2646970667358221220053842d4db3b9684451b9890517df8c743f4e05bfe44dbc01d99fc806767811564736f6c634300081b0033",
  "linkReferences": {},
  "deployedLinkReferences": {}
}