{
  "_format": "hh-sol-artifact-1",
  "contractName": "MerchantToken",
  "sourceName": "contracts/MerchantToken.sol",
  "abi": [
    {
      "inputs": [
        {
          "internalType": "address",
          "name": "initialOwner",
          "type": "address"
        },
        {
          "internalType": "address",
          "name": "_priceFeed",
          "type": "address"
        }
      ],
      "stateMutability": "nonpayable",
      "type": "constructor"
    },
    {
      "inputs": [
        {
          "internalType": "address",
          "name": "sender",
          "type": "address"
        },
        {
          "internalType": "uint256",
          "name": "tokenId",
          "type": "uint256"
        },
        {
          "internalType": "address",
          "name": "owner",
          "type": "address"
        }
      ],
      "name": "ERC721IncorrectOwner",
      "type": "error"
    },
    {
      "inputs": [
        {
          "internalType": "address",
          "name": "operator",
          "type": "address"
        },
        {
          "internalType": "uint256",
          "name": "tokenId",
          "type": "uint256"
        }
      ],
      "name": "ERC721InsufficientApproval",
      "type": "error"
    },
    {
      "inputs": [
        {
          "internalType": "address",
          "name": "approver",
          "type": "address"
        }
      ],
      "name": "ERC721InvalidApprover",
      "type": "error"
    },
    {
      "inputs": [
        {
          "internalType": "address",
          "name": "operator",
          "type": "address"
        }
      ],
      "name": "ERC721InvalidOperator",
      "type": "error"
    },
    {
      "inputs": [
        {
          "internalType": "address",
          "name": "owner",
          "type": "address"
        }
      ],
      "name": "ERC721InvalidOwner",
      "type": "error"
    },
    {
      "inputs": [
        {
          "internalType": "address",
          "name": "receiver",
          "type": "address"
        }
      ],
      "name": "ERC721InvalidReceiver",
      "type": "error"
    },
    {
      "inputs": [
        {
          "internalType": "address",
          "name": "sender",
          "type": "address"
        }
      ],
      "name": "ERC721InvalidSender",
      "type": "error"
    },
    {
      "inputs": [
        {
          "internalType": "uint256",
          "name": "tokenId",
          "type": "uint256"
        }
      ],
      "name": "ERC721NonexistentToken",
      "type": "error"
    },
    {
      "inputs": [],
      "name": "EnforcedPause",
      "type": "error"
    },
    {
      "inputs": [],
      "name": "ExpectedPause",
      "type": "error"
    },
    {
      "inputs": [
        {
          "internalType": "address",
          "name": "owner",
          "type": "address"
        }
      ],
      "name": "OwnableInvalidOwner",
      "type": "error"
    },
    {
      "inputs": [
        {
          "internalType": "address",
          "name": "account",
          "type": "address"
        }
      ],
      "name": "OwnableUnauthorizedAccount",
      "type": "error"
    },
    {
      "anonymous": false,
      "inputs": [
        {
          "indexed": true,
          "internalType": "address",
          "name": "owner",
          "type": "address"
        },
        {
          "indexed": true,
          "internalType": "address",
          "name": "approved",
          "type": "address"
        },
        {
          "indexed": true,
          "internalType": "uint256",
          "name": "tokenId",
          "type": "uint256"
        }
      ],
      "name": "Approval",
      "type": "event"
    },
    {
      "anonymous": false,
      "inputs": [
        {
          "indexed": true,
          "internalType": "address",
          "name": "owner",
          "type": "address"
        },
        {
          "indexed": true,
          "internalType": "address",
          "name": "operator",
          "type": "address"
        },
        {
          "indexed": false,
          "internalType": "bool",
          "name": "approved",
          "type": "bool"
        }
      ],
      "name": "ApprovalForAll",
      "type": "event"
    },
    {
      "anonymous": false,
      "inputs": [
        {
          "indexed": true,
          "internalType": "address",
          "name": "merchant",
          "type": "address"
        },
        {
          "indexed": false,
          "internalType": "uint256",
          "name": "ethAmount",
          "type": "uint256"
        },
        {
          "indexed": false,
          "internalType": "uint256",
          "name": "usdValue",
          "type": "uint256"
        }
      ],
      "name": "MerchantFeeCollected",
      "type": "event"
    },
    {
      "anonymous": false,
      "inputs": [
        {
          "indexed": false,
          "internalType": "uint256",
          "name": "tokenId",
          "type": "uint256"
        }
      ],
      "name": "MerchantTokenExpired",
      "type": "event"
    },
    {
      "anonymous": false,
      "inputs": [
        {
          "indexed": true,
          "internalType": "address",
          "name": "to",
          "type": "address"
        },
        {
          "indexed": false,
          "internalType": "uint256",
          "name": "tokenId",
          "type": "uint256"
        },
        {
          "indexed": false,
          "internalType": "uint256",
          "name": "expiryTime",
          "type": "uint256"
        }
      ],
      "name": "MerchantTokenMinted",
      "type": "event"
    },
    {
      "anonymous": false,
      "inputs": [
        {
          "indexed": false,
          "internalType": "uint256",
          "name": "tokenId",
          "type": "uint256"
        },
        {
          "indexed": false,
          "internalType": "uint256",
          "name": "newExpirationTimestamp",
          "type": "uint256"
        }
      ],
      "name": "MerchantTokenRenewed",
      "type": "event"
    },
    {
      "anonymous": false,
      "inputs": [
        {
          "indexed": true,
          "internalType": "address",
          "name": "previousOwner",
          "type": "address"
        },
        {
          "indexed": true,
          "internalType": "address",
          "name": "newOwner",
          "type": "address"
        }
      ],
      "name": "OwnershipTransferred",
      "type": "event"
    },
    {
      "anonymous": false,
      "inputs": [
        {
          "indexed": false,
          "internalType": "address",
          "name": "account",
          "type": "address"
        }
      ],
      "name": "Paused",
      "type": "event"
    },
    {
      "anonymous": false,
      "inputs": [
        {
          "indexed": true,
          "internalType": "address",
          "name": "from",
          "type": "address"
        },
        {
          "indexed": true,
          "internalType": "address",
          "name": "to",
          "type": "address"
        },
        {
          "indexed": true,
          "internalType": "uint256",
          "name": "tokenId",
          "type": "uint256"
        }
      ],
      "name": "Transfer",
      "type": "event"
    },
    {
      "anonymous": false,
      "inputs": [
        {
          "indexed": false,
          "internalType": "address",
          "name": "account",
          "type": "address"
        }
      ],
      "name": "Unpaused",
      "type": "event"
    },
    {
      "inputs": [],
      "name": "MERCHANT_FEE_USD",
      "outputs": [
        {
          "internalType": "uint256",
          "name": "",
          "type": "uint256"
        }
      ],
      "stateMutability": "view",
      "type": "function"
    },
    {
      "inputs": [
        {
          "internalType": "uint256",
          "name": "tokenId",
          "type": "uint256"
        },
        {
          "internalType": "uint256",
          "name": "additionalTime",
          "type": "uint256"
        }
      ],
      "name": "addExpirationTime",
      "outputs": [],
      "stateMutability": "nonpayable",
      "type": "function"
    },
    {
      "inputs": [
        {
          "internalType": "address",
          "name": "to",
          "type": "address"
        },
        {
          "internalType": "uint256",
          "name": "tokenId",
          "type": "uint256"
        }
      ],
      "name": "approve",
      "outputs": [],
      "stateMutability": "nonpayable",
      "type": "function"
    },
    {
      "inputs": [
        {
          "internalType": "address",
          "name": "owner",
          "type": "address"
        }
      ],
      "name": "balanceOf",
      "outputs": [
        {
          "internalType": "uint256",
          "name": "",
          "type": "uint256"
        }
      ],
      "stateMutability": "view",
      "type": "function"
    },
    {
      "inputs": [],
      "name": "burn",
      "outputs": [],
      "stateMutability": "nonpayable",
      "type": "function"
    },
    {
      "inputs": [
        {
          "internalType": "address",
          "name": "",
          "type": "address"
        }
      ],
      "name": "feePaid",
      "outputs": [
        {
          "internalType": "bool",
          "name": "",
          "type": "bool"
        }
      ],
      "stateMutability": "view",
      "type": "function"
    },
    {
      "inputs": [
        {
          "internalType": "uint256",
          "name": "tokenId",
          "type": "uint256"
        }
      ],
      "name": "getApproved",
      "outputs": [
        {
          "internalType": "address",
          "name": "",
          "type": "address"
        }
      ],
      "stateMutability": "view",
      "type": "function"
    },
    {
      "inputs": [],
      "name": "getCurrentTokenId",
      "outputs": [
        {
          "internalType": "uint256",
          "name": "",
          "type": "uint256"
        }
      ],
      "stateMutability": "view",
      "type": "function"
    },
    {
      "inputs": [
        {
          "internalType": "uint256",
          "name": "tokenId",
          "type": "uint256"
        }
      ],
      "name": "getExpirationTimestamp",
      "outputs": [
        {
          "internalType": "uint256",
          "name": "",
          "type": "uint256"
        }
      ],
      "stateMutability": "view",
      "type": "function"
    },
    {
      "inputs": [
        {
          "internalType": "address",
          "name": "_owner",
          "type": "address"
        }
      ],
      "name": "getTokenIdByOwner",
      "outputs": [
        {
          "internalType": "uint256",
          "name": "",
          "type": "uint256"
        }
      ],
      "stateMutability": "view",
      "type": "function"
    },
    {
      "inputs": [
        {
          "internalType": "address",
          "name": "user",
          "type": "address"
        }
      ],
      "name": "hasMerchantToken",
      "outputs": [
        {
          "internalType": "bool",
          "name": "",
          "type": "bool"
        }
      ],
      "stateMutability": "view",
      "type": "function"
    },
    {
      "inputs": [
        {
          "internalType": "address",
          "name": "user",
          "type": "address"
        }
      ],
      "name": "hasValidMerchantToken",
      "outputs": [
        {
          "internalType": "bool",
          "name": "",
          "type": "bool"
        }
      ],
      "stateMutability": "view",
      "type": "function"
    },
    {
      "inputs": [
        {
          "internalType": "uint256",
          "name": "tokenId",
          "type": "uint256"
        }
      ],
      "name": "invalidateToken",
      "outputs": [],
      "stateMutability": "nonpayable",
      "type": "function"
    },
    {
      "inputs": [
        {
          "internalType": "address",
          "name": "owner",
          "type": "address"
        },
        {
          "internalType": "address",
          "name": "operator",
          "type": "address"
        }
      ],
      "name": "isApprovedForAll",
      "outputs": [
        {
          "internalType": "bool",
          "name": "",
          "type": "bool"
        }
      ],
      "stateMutability": "view",
      "type": "function"
    },
    {
      "inputs": [
        {
          "internalType": "uint256",
          "name": "tokenId",
          "type": "uint256"
        }
      ],
      "name": "isExpired",
      "outputs": [
        {
          "internalType": "bool",
          "name": "",
          "type": "bool"
        }
      ],
      "stateMutability": "view",
      "type": "function"
    },
    {
      "inputs": [
        {
          "internalType": "address",
          "name": "to",
          "type": "address"
        },
        {
          "internalType": "uint256",
          "name": "expirationTimestamp",
          "type": "uint256"
        }
      ],
      "name": "mint",
      "outputs": [],
      "stateMutability": "nonpayable",
      "type": "function"
    },
    {
      "inputs": [],
      "name": "name",
      "outputs": [
        {
          "internalType": "string",
          "name": "",
          "type": "string"
        }
      ],
      "stateMutability": "view",
      "type": "function"
    },
    {
      "inputs": [],
      "name": "owner",
      "outputs": [
        {
          "internalType": "address",
          "name": "",
          "type": "address"
        }
      ],
      "stateMutability": "view",
      "type": "function"
    },
    {
      "inputs": [
        {
          "internalType": "uint256",
          "name": "tokenId",
          "type": "uint256"
        }
      ],
      "name": "ownerOf",
      "outputs": [
        {
          "internalType": "address",
          "name": "",
          "type": "address"
        }
      ],
      "stateMutability": "view",
      "type": "function"
    },
    {
      "inputs": [],
      "name": "pause",
      "outputs": [],
      "stateMutability": "nonpayable",
      "type": "function"
    },
    {
      "inputs": [],
      "name": "paused",
      "outputs": [
        {
          "internalType": "bool",
          "name": "",
          "type": "bool"
        }
      ],
      "stateMutability": "view",
      "type": "function"
    },
    {
      "inputs": [],
      "name": "payMerchantFee",
      "outputs": [],
      "stateMutability": "payable",
      "type": "function"
    },
    {
      "inputs": [],
      "name": "renounceOwnership",
      "outputs": [],
      "stateMutability": "nonpayable",
      "type": "function"
    },
    {
      "inputs": [
        {
          "internalType": "address",
          "name": "from",
          "type": "address"
        },
        {
          "internalType": "address",
          "name": "to",
          "type": "address"
        },
        {
          "internalType": "uint256",
          "name": "tokenId",
          "type": "uint256"
        }
      ],
      "name": "safeTransferFrom",
      "outputs": [],
      "stateMutability": "nonpayable",
      "type": "function"
    },
    {
      "inputs": [
        {
          "internalType": "address",
          "name": "from",
          "type": "address"
        },
        {
          "internalType": "address",
          "name": "to",
          "type": "address"
        },
        {
          "internalType": "uint256",
          "name": "tokenId",
          "type": "uint256"
        },
        {
          "internalType": "bytes",
          "name": "data",
          "type": "bytes"
        }
      ],
      "name": "safeTransferFrom",
      "outputs": [],
      "stateMutability": "nonpayable",
      "type": "function"
    },
    {
      "inputs": [
        {
          "internalType": "address",
          "name": "operator",
          "type": "address"
        },
        {
          "internalType": "bool",
          "name": "approved",
          "type": "bool"
        }
      ],
      "name": "setApprovalForAll",
      "outputs": [],
      "stateMutability": "nonpayable",
      "type": "function"
    },
    {
      "inputs": [
        {
          "internalType": "bytes4",
          "name": "interfaceId",
          "type": "bytes4"
        }
      ],
      "name": "supportsInterface",
      "outputs": [
        {
          "internalType": "bool",
          "name": "",
          "type": "bool"
        }
      ],
      "stateMutability": "view",
      "type": "function"
    },
    {
      "inputs": [],
      "name": "symbol",
      "outputs": [
        {
          "internalType": "string",
          "name": "",
          "type": "string"
        }
      ],
      "stateMutability": "view",
      "type": "function"
    },
    {
      "inputs": [
        {
          "internalType": "uint256",
          "name": "tokenId",
          "type": "uint256"
        }
      ],
      "name": "tokenURI",
      "outputs": [
        {
          "internalType": "string",
          "name": "",
          "type": "string"
        }
      ],
      "stateMutability": "view",
      "type": "function"
    },
    {
      "inputs": [
        {
          "internalType": "address",
          "name": "from",
          "type": "address"
        },
        {
          "internalType": "address",
          "name": "to",
          "type": "address"
        },
        {
          "internalType": "uint256",
          "name": "tokenId",
          "type": "uint256"
        }
      ],
      "name": "transferFrom",
      "outputs": [],
      "stateMutability": "nonpayable",
      "type": "function"
    },
    {
      "inputs": [
        {
          "internalType": "address",
          "name": "newOwner",
          "type": "address"
        }
      ],
      "name": "transferOwnership",
      "outputs": [],
      "stateMutability": "nonpayable",
      "type": "function"
    },
    {
      "inputs": [],
      "name": "unpause",
      "outputs": [],
      "stateMutability": "nonpayable",
      "type": "function"
    }
  ],
  "bytecode": "0x608060405234801561000f575f5ffd5b506040516146a13803806146a1833981810160405281019061003191906102a7565b816040518060400160405280601781526020017f4c6974746572636f696e4d65726368616e74546f6b656e0000000000000000008152506040518060400160405280600481526020017f4c584d5400000000000000000000000000000000000000000000000000000000815250815f90816100ac9190610522565b5080600190816100bc9190610522565b5050505f73ffffffffffffffffffffffffffffffffffffffff168173ffffffffffffffffffffffffffffffffffffffff160361012f575f6040517f1e4fbdf70000000000000000000000000000000000000000000000000000000081526004016101269190610600565b60405180910390fd5b61013e8161018660201b60201c565b5080600a5f6101000a81548173ffffffffffffffffffffffffffffffffffffffff021916908373ffffffffffffffffffffffffffffffffffffffff1602179055505050610619565b5f60065f9054906101000a900473ffffffffffffffffffffffffffffffffffffffff1690508160065f6101000a81548173ffffffffffffffffffffffffffffffffffffffff021916908373ffffffffffffffffffffffffffffffffffffffff1602179055508173ffffffffffffffffffffffffffffffffffffffff168173ffffffffffffffffffffffffffffffffffffffff167f8be0079c531659141344cd1fd0a4f28419497f9722a3daafe3b4186f6b6457e060405160405180910390a35050565b5f5ffd5b5f73ffffffffffffffffffffffffffffffffffffffff82169050919050565b5f6102768261024d565b9050919050565b6102868161026c565b8114610290575f5ffd5b50565b5f815190506102a18161027d565b92915050565b5f5f604083850312156102bd576102bc610249565b5b5f6102ca85828601610293565b92505060206102db85828601610293565b9150509250929050565b5f81519050919050565b7f4e487b71000000000000000000000000000000000000000000000000000000005f52604160045260245ffd5b7f4e487b71000000000000000000000000000000000000000000000000000000005f52602260045260245ffd5b5f600282049050600182168061036057607f821691505b6020821081036103735761037261031c565b5b50919050565b5f819050815f5260205f209050919050565b5f6020601f8301049050919050565b5f82821b905092915050565b5f600883026103d57fffffffffffffffffffffffffffffffffffffffffffffffffffffffffffffffff8261039a565b6103df868361039a565b95508019841693508086168417925050509392505050565b5f819050919050565b5f819050919050565b5f61042361041e610419846103f7565b610400565b6103f7565b9050919050565b5f819050919050565b61043c83610409565b6104506104488261042a565b8484546103a6565b825550505050565b5f5f905090565b610467610458565b610472818484610433565b505050565b5b818110156104955761048a5f8261045f565b600181019050610478565b5050565b601f8211156104da576104ab81610379565b6104b48461038b565b810160208510156104c3578190505b6104d76104cf8561038b565b830182610477565b50505b505050565b5f82821c905092915050565b5f6104fa5f19846008026104df565b1980831691505092915050565b5f61051283836104eb565b9150826002028217905092915050565b61052b826102e5565b67ffffffffffffffff811115610544576105436102ef565b5b61054e8254610349565b610559828285610499565b5f60209050601f83116001811461058a575f8415610578578287015190505b6105828582610507565b8655506105e9565b601f19841661059886610379565b5f5b828110156105bf5784890151825560018201915060208501945060208101905061059a565b868310156105dc57848901516105d8601f8916826104eb565b8355505b6001600288020188555050505b505050505050565b6105fa8161026c565b82525050565b5f6020820190506106135f8301846105f1565b92915050565b61407b806106265f395ff3fe6080604052600436106101e2575f3560e01c80636352211e11610101578063b88d4fde11610094578063d9e5896e11610063578063d9e5896e146106a0578063e985e9c5146106dc578063ea55763314610718578063f2fde38b14610754576101e2565b8063b88d4fde146105d6578063c22c56b1146105fe578063c87b56dd14610628578063d9548e5314610664576101e2565b80638da5cb5b116100d05780638da5cb5b1461051e578063952e5cb41461054857806395d89b4114610584578063a22cb465146105ae576101e2565b80636352211e1461047a57806370a08231146104b6578063715018a6146104f25780638456cb5914610508576101e2565b8063393ed91a1161017957806342842e0e1161014857806342842e0e146103e857806344df8e701461041057806356189236146104265780635c975abb14610450576101e2565b8063393ed91a1461035a5780633f4ba83a1461038257806340c10f1914610398578063425604d6146103c0576101e2565b8063095ea7b3116101b5578063095ea7b3146102c45780631a561d7d146102ec578063234562581461032857806323b872dd14610332576101e2565b806301ffc9a7146101e657806302556a291461022257806306fdde031461025e578063081812fc14610288575b5f5ffd5b3480156101f1575f5ffd5b5061020c60048036038101906102079190612e15565b61077c565b6040516102199190612e5a565b60405180910390f35b34801561022d575f5ffd5b5061024860048036038101906102439190612ecd565b61078d565b6040516102559190612e5a565b60405180910390f35b348015610269575f5ffd5b50610272610840565b60405161027f9190612f68565b60405180910390f35b348015610293575f5ffd5b506102ae60048036038101906102a99190612fbb565b6108cf565b6040516102bb9190612ff5565b60405180910390f35b3480156102cf575f5ffd5b506102ea60048036038101906102e5919061300e565b6108ea565b005b3480156102f7575f5ffd5b50610312600480360381019061030d9190612ecd565b610900565b60405161031f9190612e5a565b60405180910390f35b61033061091d565b005b34801561033d575f5ffd5b506103586004803603810190610353919061304c565b610db8565b005b348015610365575f5ffd5b50610380600480360381019061037b9190612fbb565b610eb7565b005b34801561038d575f5ffd5b50610396610fe3565b005b3480156103a3575f5ffd5b506103be60048036038101906103b9919061300e565b610ff5565b005b3480156103cb575f5ffd5b506103e660048036038101906103e1919061309c565b6112ae565b005b3480156103f3575f5ffd5b5061040e6004803603810190610409919061304c565b6113eb565b005b34801561041b575f5ffd5b5061042461140a565b005b348015610431575f5ffd5b5061043a6114a1565b60405161044791906130e9565b60405180910390f35b34801561045b575f5ffd5b506104646114aa565b6040516104719190612e5a565b60405180910390f35b348015610485575f5ffd5b506104a0600480360381019061049b9190612fbb565b6114c0565b6040516104ad9190612ff5565b60405180910390f35b3480156104c1575f5ffd5b506104dc60048036038101906104d79190612ecd565b6114d1565b6040516104e991906130e9565b60405180910390f35b3480156104fd575f5ffd5b50610506611587565b005b348015610513575f5ffd5b5061051c61159a565b005b348015610529575f5ffd5b506105326115ac565b60405161053f9190612ff5565b60405180910390f35b348015610553575f5ffd5b5061056e60048036038101906105699190612ecd565b6115d4565b60405161057b9190612e5a565b60405180910390f35b34801561058f575f5ffd5b50610598611667565b6040516105a59190612f68565b60405180910390f35b3480156105b9575f5ffd5b506105d460048036038101906105cf919061312c565b6116f7565b005b3480156105e1575f5ffd5b506105fc60048036038101906105f79190613296565b61170d565b005b348015610609575f5ffd5b50610612611732565b60405161061f91906130e9565b60405180910390f35b348015610633575f5ffd5b5061064e60048036038101906106499190612fbb565b611737565b60405161065b9190612f68565b60405180910390f35b34801561066f575f5ffd5b5061068a60048036038101906106859190612fbb565b61179d565b6040516106979190612e5a565b60405180910390f35b3480156106ab575f5ffd5b506106c660048036038101906106c19190612fbb565b61182f565b6040516106d391906130e9565b60405180910390f35b3480156106e7575f5ffd5b5061070260048036038101906106fd9190613316565b6118bf565b60405161070f9190612e5a565b60405180910390f35b348015610723575f5ffd5b5061073e60048036038101906107399190612ecd565b61194d565b60405161074b91906130e9565b60405180910390f35b34801561075f575f5ffd5b5061077a60048036038101906107759190612ecd565b611a48565b005b5f61078682611acc565b9050919050565b5f5f60085f8473ffffffffffffffffffffffffffffffffffffffff1673ffffffffffffffffffffffffffffffffffffffff1681526020019081526020015f205490505f81148061081057505f73ffffffffffffffffffffffffffffffffffffffff166107f882611bad565b73ffffffffffffffffffffffffffffffffffffffff16145b1561081e575f91505061083b565b6108278161179d565b15610835575f91505061083b565b60019150505b919050565b60605f805461084e90613381565b80601f016020809104026020016040519081016040528092919081815260200182805461087a90613381565b80156108c55780601f1061089c576101008083540402835291602001916108c5565b820191905f5260205f20905b8154815290600101906020018083116108a857829003601f168201915b5050505050905090565b5f6108d982611be6565b506108e382611c6c565b9050919050565b6108fc82826108f7611ca5565b611cac565b5050565b600b602052805f5260405f205f915054906101000a900460ff1681565b610925611cbe565b600b5f3373ffffffffffffffffffffffffffffffffffffffff1673ffffffffffffffffffffffffffffffffffffffff1681526020019081526020015f205f9054906101000a900460ff16156109af576040517f08c379a00000000000000000000000000000000000000000000000000000000081526004016109a6906133fb565b60405180910390fd5b5f6109b9336114d1565b146109f9576040517f08c379a00000000000000000000000000000000000000000000000000000000081526004016109f090613463565b60405180910390fd5b5f5f600a5f9054906101000a900473ffffffffffffffffffffffffffffffffffffffff1673ffffffffffffffffffffffffffffffffffffffff1663feaf968c6040518163ffffffff1660e01b815260040160a060405180830381865afa158015610a65573d5f5f3e3d5ffd5b505050506040513d601f19601f82011682018060405250810190610a899190613507565b509350509250505f8213610ad2576040517f08c379a0000000000000000000000000000000000000000000000000000000008152600401610ac9906135c8565b60405180910390fd5b6008600a5f9054906101000a900473ffffffffffffffffffffffffffffffffffffffff1673ffffffffffffffffffffffffffffffffffffffff1663313ce5676040518163ffffffff1660e01b8152600401602060405180830381865afa158015610b3e573d5f5f3e3d5ffd5b505050506040513d601f19601f82011682018060405250810190610b62919061361c565b60ff1614610ba5576040517f08c379a0000000000000000000000000000000000000000000000000000000008152600401610b9c90613691565b60405180910390fd5b610e108142610bb491906136dc565b10610bf4576040517f08c379a0000000000000000000000000000000000000000000000000000000008152600401610beb90613759565b60405180910390fd5b5f826a52b7d2dcc80cd2e40000006014610c0e9190613777565b610c1891906137e5565b905080341015610c5d576040517f08c379a0000000000000000000000000000000000000000000000000000000008152600401610c5490613885565b60405180910390fd5b6001600b5f3373ffffffffffffffffffffffffffffffffffffffff1673ffffffffffffffffffffffffffffffffffffffff1681526020019081526020015f205f6101000a81548160ff0219169083151502179055505f610cbb6115ac565b73ffffffffffffffffffffffffffffffffffffffff1634604051610cde906138d0565b5f6040518083038185875af1925050503d805f8114610d18576040519150601f19603f3d011682016040523d82523d5f602084013e610d1d565b606091505b5050905080610d61576040517f08c379a0000000000000000000000000000000000000000000000000000000008152600401610d589061392e565b60405180910390fd5b3373ffffffffffffffffffffffffffffffffffffffff167fcdd9acb9c1802ad855553f406af68fe06b6739ca50a6befdeaced4e0ab71b34f346014604051610daa92919061394c565b60405180910390a250505050565b5f73ffffffffffffffffffffffffffffffffffffffff168273ffffffffffffffffffffffffffffffffffffffff1603610e28575f6040517f64a0ae92000000000000000000000000000000000000000000000000000000008152600401610e1f9190612ff5565b60405180910390fd5b5f610e3b8383610e36611ca5565b611cff565b90508373ffffffffffffffffffffffffffffffffffffffff168173ffffffffffffffffffffffffffffffffffffffff1614610eb1578382826040517f64283d7b000000000000000000000000000000000000000000000000000000008152600401610ea893929190613973565b60405180910390fd5b50505050565b610ebf611e3f565b610ec7611cbe565b5f73ffffffffffffffffffffffffffffffffffffffff16610ee782611bad565b73ffffffffffffffffffffffffffffffffffffffff1603610f3d576040517f08c379a0000000000000000000000000000000000000000000000000000000008152600401610f34906139f2565b60405180910390fd5b610f468161179d565b15610f86576040517f08c379a0000000000000000000000000000000000000000000000000000000008152600401610f7d90613a5a565b60405180910390fd5b610e1042610f9491906136dc565b60095f8381526020019081526020015f20819055507f754f3aa765fa1f221ea409fddea972deff6ce410d141d5cded4fc7ec690710c081604051610fd891906130e9565b60405180910390a150565b610feb611e3f565b610ff3611ec6565b565b610ffd611e3f565b611005611cbe565b5f73ffffffffffffffffffffffffffffffffffffffff168273ffffffffffffffffffffffffffffffffffffffff1603611073576040517f08c379a000000000000000000000000000000000000000000000000000000000815260040161106a90613ac2565b60405180910390fd5b4281116110b5576040517f08c379a00000000000000000000000000000000000000000000000000000000081526004016110ac90613b50565b60405180910390fd5b5f6110bf836114d1565b146110ff576040517f08c379a00000000000000000000000000000000000000000000000000000000081526004016110f690613bb8565b60405180910390fd5b600b5f8373ffffffffffffffffffffffffffffffffffffffff1673ffffffffffffffffffffffffffffffffffffffff1681526020019081526020015f205f9054906101000a900460ff16611188576040517f08c379a000000000000000000000000000000000000000000000000000000000815260040161117f90613c20565b60405180910390fd5b5f600b5f8473ffffffffffffffffffffffffffffffffffffffff1673ffffffffffffffffffffffffffffffffffffffff1681526020019081526020015f205f6101000a81548160ff02191690831515021790555060075f81546111ea90613c3e565b919050819055505f60075490508160095f8381526020019081526020015f20819055506112178382611f28565b8060085f8573ffffffffffffffffffffffffffffffffffffffff1673ffffffffffffffffffffffffffffffffffffffff1681526020019081526020015f20819055508273ffffffffffffffffffffffffffffffffffffffff167f655ff37b06d138fc26fda07d435a40368e63b8d3cbd7835215334ff9e7fcd78282846040516112a192919061394c565b60405180910390a2505050565b6112b6611e3f565b6112be611cbe565b5f73ffffffffffffffffffffffffffffffffffffffff166112de83611bad565b73ffffffffffffffffffffffffffffffffffffffff1603611334576040517f08c379a000000000000000000000000000000000000000000000000000000000815260040161132b906139f2565b60405180910390fd5b5f8111611376576040517f08c379a000000000000000000000000000000000000000000000000000000000815260040161136d90613cf5565b60405180910390fd5b8060095f8481526020019081526020015f205f8282546113969190613d13565b925050819055507f0db48b23ad6f04f212b5fddef4017753a195535f0d61c4daa790b4f70f28c07f8260095f8581526020019081526020015f20546040516113df92919061394c565b60405180910390a15050565b61140583838360405180602001604052805f81525061170d565b505050565b611412611cbe565b5f60085f3373ffffffffffffffffffffffffffffffffffffffff1673ffffffffffffffffffffffffffffffffffffffff1681526020019081526020015f205490505f8103611495576040517f08c379a000000000000000000000000000000000000000000000000000000000815260040161148c90613d90565b60405180910390fd5b61149e81611f45565b50565b5f600754905090565b5f600660149054906101000a900460ff16905090565b5f6114ca82611be6565b9050919050565b5f5f73ffffffffffffffffffffffffffffffffffffffff168273ffffffffffffffffffffffffffffffffffffffff1603611542575f6040517f89c62b640000000000000000000000000000000000000000000000000000000081526004016115399190612ff5565b60405180910390fd5b60035f8373ffffffffffffffffffffffffffffffffffffffff1673ffffffffffffffffffffffffffffffffffffffff1681526020019081526020015f20549050919050565b61158f611e3f565b6115985f611fc7565b565b6115a2611e3f565b6115aa61208a565b565b5f60065f9054906101000a900473ffffffffffffffffffffffffffffffffffffffff16905090565b5f5f60085f8473ffffffffffffffffffffffffffffffffffffffff1673ffffffffffffffffffffffffffffffffffffffff1681526020019081526020015f205490505f8103611626575f915050611662565b5f73ffffffffffffffffffffffffffffffffffffffff1661164682611bad565b73ffffffffffffffffffffffffffffffffffffffff1614159150505b919050565b60606001805461167690613381565b80601f01602080910402602001604051908101604052809291908181526020018280546116a290613381565b80156116ed5780601f106116c4576101008083540402835291602001916116ed565b820191905f5260205f20905b8154815290600101906020018083116116d057829003601f168201915b5050505050905090565b611709611702611ca5565b83836120ed565b5050565b611718848484610db8565b61172c611723611ca5565b858585856122c6565b50505050565b601481565b606061174282611be6565b505f61174c612472565b90505f81511161176a5760405180602001604052805f815250611795565b8061177484612488565b604051602001611785929190613de8565b6040516020818303038152906040525b915050919050565b5f5f73ffffffffffffffffffffffffffffffffffffffff166117be83611bad565b73ffffffffffffffffffffffffffffffffffffffff1603611814576040517f08c379a000000000000000000000000000000000000000000000000000000000815260040161180b906139f2565b60405180910390fd5b60095f8381526020019081526020015f205442119050919050565b5f5f73ffffffffffffffffffffffffffffffffffffffff1661185083611bad565b73ffffffffffffffffffffffffffffffffffffffff16036118a6576040517f08c379a000000000000000000000000000000000000000000000000000000000815260040161189d906139f2565b60405180910390fd5b60095f8381526020019081526020015f20549050919050565b5f60055f8473ffffffffffffffffffffffffffffffffffffffff1673ffffffffffffffffffffffffffffffffffffffff1681526020019081526020015f205f8373ffffffffffffffffffffffffffffffffffffffff1673ffffffffffffffffffffffffffffffffffffffff1681526020019081526020015f205f9054906101000a900460ff16905092915050565b5f5f73ffffffffffffffffffffffffffffffffffffffff168273ffffffffffffffffffffffffffffffffffffffff16036119bc576040517f08c379a00000000000000000000000000000000000000000000000000000000081526004016119b390613e55565b60405180910390fd5b5f60085f8473ffffffffffffffffffffffffffffffffffffffff1673ffffffffffffffffffffffffffffffffffffffff1681526020019081526020015f205490505f8103611a3f576040517f08c379a0000000000000000000000000000000000000000000000000000000008152600401611a3690613ebd565b60405180910390fd5b80915050919050565b611a50611e3f565b5f73ffffffffffffffffffffffffffffffffffffffff168173ffffffffffffffffffffffffffffffffffffffff1603611ac0575f6040517f1e4fbdf7000000000000000000000000000000000000000000000000000000008152600401611ab79190612ff5565b60405180910390fd5b611ac981611fc7565b50565b5f7f80ac58cd000000000000000000000000000000000000000000000000000000007bffffffffffffffffffffffffffffffffffffffffffffffffffffffff1916827bffffffffffffffffffffffffffffffffffffffffffffffffffffffff19161480611b9657507f5b5e139f000000000000000000000000000000000000000000000000000000007bffffffffffffffffffffffffffffffffffffffffffffffffffffffff1916827bffffffffffffffffffffffffffffffffffffffffffffffffffffffff1916145b80611ba65750611ba582612552565b5b9050919050565b5f60025f8381526020019081526020015f205f9054906101000a900473ffffffffffffffffffffffffffffffffffffffff169050919050565b5f5f611bf183611bad565b90505f73ffffffffffffffffffffffffffffffffffffffff168173ffffffffffffffffffffffffffffffffffffffff1603611c6357826040517f7e273289000000000000000000000000000000000000000000000000000000008152600401611c5a91906130e9565b60405180910390fd5b80915050919050565b5f60045f8381526020019081526020015f205f9054906101000a900473ffffffffffffffffffffffffffffffffffffffff169050919050565b5f33905090565b611cb983838360016125bb565b505050565b611cc66114aa565b15611cfd576040517fd93c066500000000000000000000000000000000000000000000000000000000815260040160405180910390fd5b565b5f5f611d0a84611bad565b90505f73ffffffffffffffffffffffffffffffffffffffff168173ffffffffffffffffffffffffffffffffffffffff1614158015611d7457505f73ffffffffffffffffffffffffffffffffffffffff168573ffffffffffffffffffffffffffffffffffffffff1614155b15611db4576040517f08c379a0000000000000000000000000000000000000000000000000000000008152600401611dab90613f25565b60405180910390fd5b5f73ffffffffffffffffffffffffffffffffffffffff168173ffffffffffffffffffffffffffffffffffffffff1614611e2a575f60085f8373ffffffffffffffffffffffffffffffffffffffff1673ffffffffffffffffffffffffffffffffffffffff1681526020019081526020015f20819055505b611e3585858561277a565b9150509392505050565b611e47611ca5565b73ffffffffffffffffffffffffffffffffffffffff16611e656115ac565b73ffffffffffffffffffffffffffffffffffffffff1614611ec457611e88611ca5565b6040517f118cdaa7000000000000000000000000000000000000000000000000000000008152600401611ebb9190612ff5565b60405180910390fd5b565b611ece612985565b5f600660146101000a81548160ff0219169083151502179055507f5db9ee0a495bf2e6ff9c91a7834c1ba4fdd244a5e8aa4e537bd38aeae4b073aa611f11611ca5565b604051611f1e9190612ff5565b60405180910390a1565b611f41828260405180602001604052805f8152506129c5565b5050565b5f611f515f835f611cff565b90505f73ffffffffffffffffffffffffffffffffffffffff168173ffffffffffffffffffffffffffffffffffffffff1603611fc357816040517f7e273289000000000000000000000000000000000000000000000000000000008152600401611fba91906130e9565b60405180910390fd5b5050565b5f60065f9054906101000a900473ffffffffffffffffffffffffffffffffffffffff1690508160065f6101000a81548173ffffffffffffffffffffffffffffffffffffffff021916908373ffffffffffffffffffffffffffffffffffffffff1602179055508173ffffffffffffffffffffffffffffffffffffffff168173ffffffffffffffffffffffffffffffffffffffff167f8be0079c531659141344cd1fd0a4f28419497f9722a3daafe3b4186f6b6457e060405160405180910390a35050565b612092611cbe565b6001600660146101000a81548160ff0219169083151502179055507f62e78cea01bee320cd4e420270b5ea74000d11b0c9f74754ebdbfc544b05a2586120d6611ca5565b6040516120e39190612ff5565b60405180910390a1565b5f73ffffffffffffffffffffffffffffffffffffffff168373ffffffffffffffffffffffffffffffffffffffff160361215d575f6040517fa9fbf51f0000000000000000000000000000000000000000000000000000000081526004016121549190612ff5565b60405180910390fd5b5f73ffffffffffffffffffffffffffffffffffffffff168273ffffffffffffffffffffffffffffffffffffffff16036121cd57816040517f5b08ba180000000000000000000000000000000000000000000000000000000081526004016121c49190612ff5565b60405180910390fd5b8060055f8573ffffffffffffffffffffffffffffffffffffffff1673ffffffffffffffffffffffffffffffffffffffff1681526020019081526020015f205f8473ffffffffffffffffffffffffffffffffffffffff1673ffffffffffffffffffffffffffffffffffffffff1681526020019081526020015f205f6101000a81548160ff0219169083151502179055508173ffffffffffffffffffffffffffffffffffffffff168373ffffffffffffffffffffffffffffffffffffffff167f17307eab39ab6107e8899845ad3d59bd9653f200f220920489ca2b5937696c31836040516122b99190612e5a565b60405180910390a3505050565b5f8373ffffffffffffffffffffffffffffffffffffffff163b111561246b578273ffffffffffffffffffffffffffffffffffffffff1663150b7a02868685856040518563ffffffff1660e01b81526004016123249493929190613f95565b6020604051808303815f875af192505050801561235f57506040513d601f19601f8201168201806040525081019061235c9190613ff3565b60015b6123e0573d805f811461238d576040519150601f19603f3d011682016040523d82523d5f602084013e612392565b606091505b505f8151036123d857836040517f64a0ae920000000000000000000000000000000000000000000000000000000081526004016123cf9190612ff5565b60405180910390fd5b805160208201fd5b63150b7a0260e01b7bffffffffffffffffffffffffffffffffffffffffffffffffffffffff1916817bffffffffffffffffffffffffffffffffffffffffffffffffffffffff19161461246957836040517f64a0ae920000000000000000000000000000000000000000000000000000000081526004016124609190612ff5565b60405180910390fd5b505b5050505050565b606060405180602001604052805f815250905090565b60605f6001612496846129e8565b0190505f8167ffffffffffffffff8111156124b4576124b3613172565b5b6040519080825280601f01601f1916602001820160405280156124e65781602001600182028036833780820191505090505b5090505f82602083010190505b600115612547578080600190039150507f3031323334353637383961626364656600000000000000000000000000000000600a86061a8153600a858161253c5761253b6137b8565b5b0494505f85036124f3575b819350505050919050565b5f7f01ffc9a7000000000000000000000000000000000000000000000000000000007bffffffffffffffffffffffffffffffffffffffffffffffffffffffff1916827bffffffffffffffffffffffffffffffffffffffffffffffffffffffff1916149050919050565b80806125f357505f73ffffffffffffffffffffffffffffffffffffffff168273ffffffffffffffffffffffffffffffffffffffff1614155b15612725575f61260284611be6565b90505f73ffffffffffffffffffffffffffffffffffffffff168373ffffffffffffffffffffffffffffffffffffffff161415801561266c57508273ffffffffffffffffffffffffffffffffffffffff168173ffffffffffffffffffffffffffffffffffffffff1614155b801561267f575061267d81846118bf565b155b156126c157826040517fa9fbf51f0000000000000000000000000000000000000000000000000000000081526004016126b89190612ff5565b60405180910390fd5b811561272357838573ffffffffffffffffffffffffffffffffffffffff168273ffffffffffffffffffffffffffffffffffffffff167f8c5be1e5ebec7d5bd14f71427d1e84f3dd0314c0f7b2291e5b200ac8c7c3b92560405160405180910390a45b505b8360045f8581526020019081526020015f205f6101000a81548173ffffffffffffffffffffffffffffffffffffffff021916908373ffffffffffffffffffffffffffffffffffffffff16021790555050505050565b5f5f61278584611bad565b90505f73ffffffffffffffffffffffffffffffffffffffff168373ffffffffffffffffffffffffffffffffffffffff16146127c6576127c5818486612b39565b5b5f73ffffffffffffffffffffffffffffffffffffffff168173ffffffffffffffffffffffffffffffffffffffff1614612851576128055f855f5f6125bb565b600160035f8373ffffffffffffffffffffffffffffffffffffffff1673ffffffffffffffffffffffffffffffffffffffff1681526020019081526020015f205f82825403925050819055505b5f73ffffffffffffffffffffffffffffffffffffffff168573ffffffffffffffffffffffffffffffffffffffff16146128d057600160035f8773ffffffffffffffffffffffffffffffffffffffff1673ffffffffffffffffffffffffffffffffffffffff1681526020019081526020015f205f82825401925050819055505b8460025f8681526020019081526020015f205f6101000a81548173ffffffffffffffffffffffffffffffffffffffff021916908373ffffffffffffffffffffffffffffffffffffffff160217905550838573ffffffffffffffffffffffffffffffffffffffff168273ffffffffffffffffffffffffffffffffffffffff167fddf252ad1be2c89b69c2b068fc378daa952ba7f163c4a11628f55a4df523b3ef60405160405180910390a4809150509392505050565b61298d6114aa565b6129c3576040517f8dfc202b00000000000000000000000000000000000000000000000000000000815260040160405180910390fd5b565b6129cf8383612bfc565b6129e36129da611ca5565b5f8585856122c6565b505050565b5f5f5f90507a184f03e93ff9f4daa797ed6e38ed64bf6a1f0100000000000000008310612a44577a184f03e93ff9f4daa797ed6e38ed64bf6a1f0100000000000000008381612a3a57612a396137b8565b5b0492506040810190505b6d04ee2d6d415b85acef81000000008310612a81576d04ee2d6d415b85acef81000000008381612a7757612a766137b8565b5b0492506020810190505b662386f26fc100008310612ab057662386f26fc100008381612aa657612aa56137b8565b5b0492506010810190505b6305f5e1008310612ad9576305f5e1008381612acf57612ace6137b8565b5b0492506008810190505b6127108310612afe576127108381612af457612af36137b8565b5b0492506004810190505b60648310612b215760648381612b1757612b166137b8565b5b0492506002810190505b600a8310612b30576001810190505b80915050919050565b612b44838383612cef565b612bf7575f73ffffffffffffffffffffffffffffffffffffffff168373ffffffffffffffffffffffffffffffffffffffff1603612bb857806040517f7e273289000000000000000000000000000000000000000000000000000000008152600401612baf91906130e9565b60405180910390fd5b81816040517f177e802f000000000000000000000000000000000000000000000000000000008152600401612bee92919061401e565b60405180910390fd5b505050565b5f73ffffffffffffffffffffffffffffffffffffffff168273ffffffffffffffffffffffffffffffffffffffff1603612c6c575f6040517f64a0ae92000000000000000000000000000000000000000000000000000000008152600401612c639190612ff5565b60405180910390fd5b5f612c7883835f611cff565b90505f73ffffffffffffffffffffffffffffffffffffffff168173ffffffffffffffffffffffffffffffffffffffff1614612cea575f6040517f73c6ac6e000000000000000000000000000000000000000000000000000000008152600401612ce19190612ff5565b60405180910390fd5b505050565b5f5f73ffffffffffffffffffffffffffffffffffffffff168373ffffffffffffffffffffffffffffffffffffffff1614158015612da657508273ffffffffffffffffffffffffffffffffffffffff168473ffffffffffffffffffffffffffffffffffffffff161480612d675750612d6684846118bf565b5b80612da557508273ffffffffffffffffffffffffffffffffffffffff16612d8d83611c6c565b73ffffffffffffffffffffffffffffffffffffffff16145b5b90509392505050565b5f604051905090565b5f5ffd5b5f5ffd5b5f7fffffffff0000000000000000000000000000000000000000000000000000000082169050919050565b612df481612dc0565b8114612dfe575f5ffd5b50565b5f81359050612e0f81612deb565b92915050565b5f60208284031215612e2a57612e29612db8565b5b5f612e3784828501612e01565b91505092915050565b5f8115159050919050565b612e5481612e40565b82525050565b5f602082019050612e6d5f830184612e4b565b92915050565b5f73ffffffffffffffffffffffffffffffffffffffff82169050919050565b5f612e9c82612e73565b9050919050565b612eac81612e92565b8114612eb6575f5ffd5b50565b5f81359050612ec781612ea3565b92915050565b5f60208284031215612ee257612ee1612db8565b5b5f612eef84828501612eb9565b91505092915050565b5f81519050919050565b5f82825260208201905092915050565b8281835e5f83830152505050565b5f601f19601f8301169050919050565b5f612f3a82612ef8565b612f448185612f02565b9350612f54818560208601612f12565b612f5d81612f20565b840191505092915050565b5f6020820190508181035f830152612f808184612f30565b905092915050565b5f819050919050565b612f9a81612f88565b8114612fa4575f5ffd5b50565b5f81359050612fb581612f91565b92915050565b5f60208284031215612fd057612fcf612db8565b5b5f612fdd84828501612fa7565b91505092915050565b612fef81612e92565b82525050565b5f6020820190506130085f830184612fe6565b92915050565b5f5f6040838503121561302457613023612db8565b5b5f61303185828601612eb9565b925050602061304285828601612fa7565b9150509250929050565b5f5f5f6060848603121561306357613062612db8565b5b5f61307086828701612eb9565b935050602061308186828701612eb9565b925050604061309286828701612fa7565b9150509250925092565b5f5f604083850312156130b2576130b1612db8565b5b5f6130bf85828601612fa7565b92505060206130d085828601612fa7565b9150509250929050565b6130e381612f88565b82525050565b5f6020820190506130fc5f8301846130da565b92915050565b61310b81612e40565b8114613115575f5ffd5b50565b5f8135905061312681613102565b92915050565b5f5f6040838503121561314257613141612db8565b5b5f61314f85828601612eb9565b925050602061316085828601613118565b9150509250929050565b5f5ffd5b5f5ffd5b7f4e487b71000000000000000000000000000000000000000000000000000000005f52604160045260245ffd5b6131a882612f20565b810181811067ffffffffffffffff821117156131c7576131c6613172565b5b80604052505050565b5f6131d9612daf565b90506131e5828261319f565b919050565b5f67ffffffffffffffff82111561320457613203613172565b5b61320d82612f20565b9050602081019050919050565b828183375f83830152505050565b5f61323a613235846131ea565b6131d0565b9050828152602081018484840111156132565761325561316e565b5b61326184828561321a565b509392505050565b5f82601f83011261327d5761327c61316a565b5b813561328d848260208601613228565b91505092915050565b5f5f5f5f608085870312156132ae576132ad612db8565b5b5f6132bb87828801612eb9565b94505060206132cc87828801612eb9565b93505060406132dd87828801612fa7565b925050606085013567ffffffffffffffff8111156132fe576132fd612dbc565b5b61330a87828801613269565b91505092959194509250565b5f5f6040838503121561332c5761332b612db8565b5b5f61333985828601612eb9565b925050602061334a85828601612eb9565b9150509250929050565b7f4e487b71000000000000000000000000000000000000000000000000000000005f52602260045260245ffd5b5f600282049050600182168061339857607f821691505b6020821081036133ab576133aa613354565b5b50919050565b7f46656520616c72656164792070616964000000000000000000000000000000005f82015250565b5f6133e5601083612f02565b91506133f0826133b1565b602082019050919050565b5f6020820190508181035f830152613412816133d9565b9050919050565b7f416c726561647920686176652061206d65726368616e7420746f6b656e0000005f82015250565b5f61344d601d83612f02565b915061345882613419565b602082019050919050565b5f6020820190508181035f83015261347a81613441565b9050919050565b5f69ffffffffffffffffffff82169050919050565b61349f81613481565b81146134a9575f5ffd5b50565b5f815190506134ba81613496565b92915050565b5f819050919050565b6134d2816134c0565b81146134dc575f5ffd5b50565b5f815190506134ed816134c9565b92915050565b5f8151905061350181612f91565b92915050565b5f5f5f5f5f60a086880312156135205761351f612db8565b5b5f61352d888289016134ac565b955050602061353e888289016134df565b945050604061354f888289016134f3565b9350506060613560888289016134f3565b9250506080613571888289016134ac565b9150509295509295909350565b7f496e76616c69642070726963652066726f6d20436861696e6c696e6b000000005f82015250565b5f6135b2601c83612f02565b91506135bd8261357e565b602082019050919050565b5f6020820190508181035f8301526135df816135a6565b9050919050565b5f60ff82169050919050565b6135fb816135e6565b8114613605575f5ffd5b50565b5f81519050613616816135f2565b92915050565b5f6020828403121561363157613630612db8565b5b5f61363e84828501613608565b91505092915050565b7f556e6578706563746564207072696365206665656420646563696d616c7300005f82015250565b5f61367b601e83612f02565b915061368682613647565b602082019050919050565b5f6020820190508181035f8301526136a88161366f565b9050919050565b7f4e487b71000000000000000000000000000000000000000000000000000000005f52601160045260245ffd5b5f6136e682612f88565b91506136f183612f88565b9250828203905081811115613709576137086136af565b5b92915050565b7f5374616c652070726963652066656564000000000000000000000000000000005f82015250565b5f613743601083612f02565b915061374e8261370f565b602082019050919050565b5f6020820190508181035f83015261377081613737565b9050919050565b5f61378182612f88565b915061378c83612f88565b925082820261379a81612f88565b915082820484148315176137b1576137b06136af565b5b5092915050565b7f4e487b71000000000000000000000000000000000000000000000000000000005f52601260045260245ffd5b5f6137ef82612f88565b91506137fa83612f88565b92508261380a576138096137b8565b5b828204905092915050565b7f496e73756666696369656e742045544820666f72206d65726368616e742066655f8201527f6500000000000000000000000000000000000000000000000000000000000000602082015250565b5f61386f602183612f02565b915061387a82613815565b604082019050919050565b5f6020820190508181035f83015261389c81613863565b9050919050565b5f81905092915050565b50565b5f6138bb5f836138a3565b91506138c6826138ad565b5f82019050919050565b5f6138da826138b0565b9150819050919050565b7f466565207472616e73666572206661696c6564000000000000000000000000005f82015250565b5f613918601383612f02565b9150613923826138e4565b602082019050919050565b5f6020820190508181035f8301526139458161390c565b9050919050565b5f60408201905061395f5f8301856130da565b61396c60208301846130da565b9392505050565b5f6060820190506139865f830186612fe6565b61399360208301856130da565b6139a06040830184612fe6565b949350505050565b7f546f6b656e20646f6573206e6f742065786973740000000000000000000000005f82015250565b5f6139dc601483612f02565b91506139e7826139a8565b602082019050919050565b5f6020820190508181035f830152613a09816139d0565b9050919050565b7f546f6b656e20616c7265616479206578706972656400000000000000000000005f82015250565b5f613a44601583612f02565b9150613a4f82613a10565b602082019050919050565b5f6020820190508181035f830152613a7181613a38565b9050919050565b7f43616e6e6f74206d696e7420746f207a65726f206164647265737300000000005f82015250565b5f613aac601b83612f02565b9150613ab782613a78565b602082019050919050565b5f6020820190508181035f830152613ad981613aa0565b9050919050565b7f45787069726174696f6e206d75737420626520696e20746865206675747572655f8201527f2e00000000000000000000000000000000000000000000000000000000000000602082015250565b5f613b3a602183612f02565b9150613b4582613ae0565b604082019050919050565b5f6020820190508181035f830152613b6781613b2e565b9050919050565b7f5573657220616c726561647920686173206120746f6b656e00000000000000005f82015250565b5f613ba2601883612f02565b9150613bad82613b6e565b602082019050919050565b5f6020820190508181035f830152613bcf81613b96565b9050919050565b7f4d65726368616e7420666565206e6f74207061696400000000000000000000005f82015250565b5f613c0a601583612f02565b9150613c1582613bd6565b602082019050919050565b5f6020820190508181035f830152613c3781613bfe565b9050919050565b5f613c4882612f88565b91507fffffffffffffffffffffffffffffffffffffffffffffffffffffffffffffffff8203613c7a57613c796136af565b5b600182019050919050565b7f4164646974696f6e616c2074696d65206d7573742062652067726561746572205f8201527f7468616e207a65726f0000000000000000000000000000000000000000000000602082015250565b5f613cdf602983612f02565b9150613cea82613c85565b604082019050919050565b5f6020820190508181035f830152613d0c81613cd3565b9050919050565b5f613d1d82612f88565b9150613d2883612f88565b9250828201905080821115613d4057613d3f6136af565b5b92915050565b7f596f7520646f206e6f74206f776e206120746f6b656e000000000000000000005f82015250565b5f613d7a601683612f02565b9150613d8582613d46565b602082019050919050565b5f6020820190508181035f830152613da781613d6e565b9050919050565b5f81905092915050565b5f613dc282612ef8565b613dcc8185613dae565b9350613ddc818560208601612f12565b80840191505092915050565b5f613df38285613db8565b9150613dff8284613db8565b91508190509392505050565b7f496e76616c6964206164647265737300000000000000000000000000000000005f82015250565b5f613e3f600f83612f02565b9150613e4a82613e0b565b602082019050919050565b5f6020820190508181035f830152613e6c81613e33565b9050919050565b7f4f776e657220646f6573206e6f742068617665206120746f6b656e00000000005f82015250565b5f613ea7601b83612f02565b9150613eb282613e73565b602082019050919050565b5f6020820190508181035f830152613ed481613e9b565b9050919050565b7f5472616e7366657273206172652064697361626c6564000000000000000000005f82015250565b5f613f0f601683612f02565b9150613f1a82613edb565b602082019050919050565b5f6020820190508181035f830152613f3c81613f03565b9050919050565b5f81519050919050565b5f82825260208201905092915050565b5f613f6782613f43565b613f718185613f4d565b9350613f81818560208601612f12565b613f8a81612f20565b840191505092915050565b5f608082019050613fa85f830187612fe6565b613fb56020830186612fe6565b613fc260408301856130da565b8181036060830152613fd48184613f5d565b905095945050505050565b5f81519050613fed81612deb565b92915050565b5f6020828403121561400857614007612db8565b5b5f61401584828501613fdf565b91505092915050565b5f6040820190506140315f830185612fe6565b61403e60208301846130da565b939250505056fea2646970667358221220d327a97a6e3ae30bcaa9471cd82017b75d94525d98766cae508626618fb7784d64736f6c634300081b0033",
  "linkReferences": {},
  "deployedLinkReferences": {}
}