{
  "_format": "hh-sol-artifact-1",
  "contractName": "MerchantToken",
  "sourceName": "contracts/MerchantToken.sol",
  "abi": [
    {
      "inputs": [],
      "stateMutability": "nonpayable",
      "type": "constructor"
    },
    {
      "anonymous": false,
      "inputs": [
        {
          "indexed": true,
          "internalType": "address",
          "name": "owner",
          "type": "address"
        },
        {
          "indexed": true,
          "internalType": "address",
          "name": "approved",
          "type": "address"
        },
        {
          "indexed": true,
          "internalType": "uint256",
          "name": "tokenId",
          "type": "uint256"
        }
      ],
      "name": "Approval",
      "type": "event"
    },
    {
      "anonymous": false,
      "inputs": [
        {
          "indexed": true,
          "internalType": "address",
          "name": "owner",
          "type": "address"
        },
        {
          "indexed": true,
          "internalType": "address",
          "name": "operator",
          "type": "address"
        },
        {
          "indexed": false,
          "internalType": "bool",
          "name": "approved",
          "type": "bool"
        }
      ],
      "name": "ApprovalForAll",
      "type": "event"
    },
    {
      "anonymous": false,
      "inputs": [
        {
          "indexed": false,
          "internalType": "uint256",
          "name": "tokenId",
          "type": "uint256"
        }
      ],
      "name": "MerchantTokenExpired",
      "type": "event"
    },
    {
      "anonymous": false,
      "inputs": [
        {
          "indexed": true,
          "internalType": "address",
          "name": "to",
          "type": "address"
        },
        {
          "indexed": false,
          "internalType": "uint256",
          "name": "tokenId",
          "type": "uint256"
        },
        {
          "indexed": false,
          "internalType": "uint256",
          "name": "expiryTime",
          "type": "uint256"
        }
      ],
      "name": "MerchantTokenMinted",
      "type": "event"
    },
    {
      "anonymous": false,
      "inputs": [
        {
          "indexed": false,
          "internalType": "uint256",
          "name": "tokenId",
          "type": "uint256"
        },
        {
          "indexed": false,
          "internalType": "uint256",
          "name": "newExpirationTimestamp",
          "type": "uint256"
        }
      ],
      "name": "MerchantTokenRenewed",
      "type": "event"
    },
    {
      "anonymous": false,
      "inputs": [
        {
          "indexed": true,
          "internalType": "address",
          "name": "previousOwner",
          "type": "address"
        },
        {
          "indexed": true,
          "internalType": "address",
          "name": "newOwner",
          "type": "address"
        }
      ],
      "name": "OwnershipTransferred",
      "type": "event"
    },
    {
      "anonymous": false,
      "inputs": [
        {
          "indexed": false,
          "internalType": "address",
          "name": "account",
          "type": "address"
        }
      ],
      "name": "Paused",
      "type": "event"
    },
    {
      "anonymous": false,
      "inputs": [
        {
          "indexed": true,
          "internalType": "address",
          "name": "from",
          "type": "address"
        },
        {
          "indexed": true,
          "internalType": "address",
          "name": "to",
          "type": "address"
        },
        {
          "indexed": true,
          "internalType": "uint256",
          "name": "tokenId",
          "type": "uint256"
        }
      ],
      "name": "Transfer",
      "type": "event"
    },
    {
      "anonymous": false,
      "inputs": [
        {
          "indexed": false,
          "internalType": "address",
          "name": "account",
          "type": "address"
        }
      ],
      "name": "Unpaused",
      "type": "event"
    },
    {
      "inputs": [
        {
          "internalType": "uint256",
          "name": "tokenId",
          "type": "uint256"
        },
        {
          "internalType": "uint256",
          "name": "additionalTime",
          "type": "uint256"
        }
      ],
      "name": "addExpirationTime",
      "outputs": [],
      "stateMutability": "nonpayable",
      "type": "function"
    },
    {
      "inputs": [
        {
          "internalType": "address",
          "name": "to",
          "type": "address"
        },
        {
          "internalType": "uint256",
          "name": "tokenId",
          "type": "uint256"
        }
      ],
      "name": "approve",
      "outputs": [],
      "stateMutability": "nonpayable",
      "type": "function"
    },
    {
      "inputs": [
        {
          "internalType": "address",
          "name": "owner",
          "type": "address"
        }
      ],
      "name": "balanceOf",
      "outputs": [
        {
          "internalType": "uint256",
          "name": "",
          "type": "uint256"
        }
      ],
      "stateMutability": "view",
      "type": "function"
    },
    {
      "inputs": [],
      "name": "burn",
      "outputs": [],
      "stateMutability": "nonpayable",
      "type": "function"
    },
    {
      "inputs": [
        {
          "internalType": "uint256",
          "name": "tokenId",
          "type": "uint256"
        }
      ],
      "name": "getApproved",
      "outputs": [
        {
          "internalType": "address",
          "name": "",
          "type": "address"
        }
      ],
      "stateMutability": "view",
      "type": "function"
    },
    {
      "inputs": [],
      "name": "getCurrentTokenId",
      "outputs": [
        {
          "internalType": "uint256",
          "name": "",
          "type": "uint256"
        }
      ],
      "stateMutability": "view",
      "type": "function"
    },
    {
      "inputs": [
        {
          "internalType": "uint256",
          "name": "tokenId",
          "type": "uint256"
        }
      ],
      "name": "getExpirationTimestamp",
      "outputs": [
        {
          "internalType": "uint256",
          "name": "",
          "type": "uint256"
        }
      ],
      "stateMutability": "view",
      "type": "function"
    },
    {
      "inputs": [
        {
          "internalType": "address",
          "name": "owner",
          "type": "address"
        }
      ],
      "name": "getTokenIdByOwner",
      "outputs": [
        {
          "internalType": "uint256",
          "name": "",
          "type": "uint256"
        }
      ],
      "stateMutability": "view",
      "type": "function"
    },
    {
      "inputs": [
        {
          "internalType": "address",
          "name": "user",
          "type": "address"
        }
      ],
      "name": "hasValidMerchantToken",
      "outputs": [
        {
          "internalType": "bool",
          "name": "",
          "type": "bool"
        }
      ],
      "stateMutability": "view",
      "type": "function"
    },
    {
      "inputs": [
        {
          "internalType": "uint256",
          "name": "tokenId",
          "type": "uint256"
        }
      ],
      "name": "invalidateToken",
      "outputs": [],
      "stateMutability": "nonpayable",
      "type": "function"
    },
    {
      "inputs": [
        {
          "internalType": "address",
          "name": "owner",
          "type": "address"
        },
        {
          "internalType": "address",
          "name": "operator",
          "type": "address"
        }
      ],
      "name": "isApprovedForAll",
      "outputs": [
        {
          "internalType": "bool",
          "name": "",
          "type": "bool"
        }
      ],
      "stateMutability": "view",
      "type": "function"
    },
    {
      "inputs": [
        {
          "internalType": "uint256",
          "name": "tokenId",
          "type": "uint256"
        }
      ],
      "name": "isExpired",
      "outputs": [
        {
          "internalType": "bool",
          "name": "",
          "type": "bool"
        }
      ],
      "stateMutability": "view",
      "type": "function"
    },
    {
      "inputs": [
        {
          "internalType": "address",
          "name": "to",
          "type": "address"
        },
        {
          "internalType": "uint256",
          "name": "expirationTimestamp",
          "type": "uint256"
        }
      ],
      "name": "mint",
      "outputs": [],
      "stateMutability": "nonpayable",
      "type": "function"
    },
    {
      "inputs": [],
      "name": "name",
      "outputs": [
        {
          "internalType": "string",
          "name": "",
          "type": "string"
        }
      ],
      "stateMutability": "view",
      "type": "function"
    },
    {
      "inputs": [],
      "name": "owner",
      "outputs": [
        {
          "internalType": "address",
          "name": "",
          "type": "address"
        }
      ],
      "stateMutability": "view",
      "type": "function"
    },
    {
      "inputs": [
        {
          "internalType": "uint256",
          "name": "tokenId",
          "type": "uint256"
        }
      ],
      "name": "ownerOf",
      "outputs": [
        {
          "internalType": "address",
          "name": "",
          "type": "address"
        }
      ],
      "stateMutability": "view",
      "type": "function"
    },
    {
      "inputs": [],
      "name": "paused",
      "outputs": [
        {
          "internalType": "bool",
          "name": "",
          "type": "bool"
        }
      ],
      "stateMutability": "view",
      "type": "function"
    },
    {
      "inputs": [],
      "name": "renounceOwnership",
      "outputs": [],
      "stateMutability": "nonpayable",
      "type": "function"
    },
    {
      "inputs": [
        {
          "internalType": "address",
          "name": "from",
          "type": "address"
        },
        {
          "internalType": "address",
          "name": "to",
          "type": "address"
        },
        {
          "internalType": "uint256",
          "name": "tokenId",
          "type": "uint256"
        }
      ],
      "name": "safeTransferFrom",
      "outputs": [],
      "stateMutability": "nonpayable",
      "type": "function"
    },
    {
      "inputs": [
        {
          "internalType": "address",
          "name": "from",
          "type": "address"
        },
        {
          "internalType": "address",
          "name": "to",
          "type": "address"
        },
        {
          "internalType": "uint256",
          "name": "tokenId",
          "type": "uint256"
        },
        {
          "internalType": "bytes",
          "name": "data",
          "type": "bytes"
        }
      ],
      "name": "safeTransferFrom",
      "outputs": [],
      "stateMutability": "nonpayable",
      "type": "function"
    },
    {
      "inputs": [
        {
          "internalType": "address",
          "name": "operator",
          "type": "address"
        },
        {
          "internalType": "bool",
          "name": "approved",
          "type": "bool"
        }
      ],
      "name": "setApprovalForAll",
      "outputs": [],
      "stateMutability": "nonpayable",
      "type": "function"
    },
    {
      "inputs": [
        {
          "internalType": "bytes4",
          "name": "interfaceId",
          "type": "bytes4"
        }
      ],
      "name": "supportsInterface",
      "outputs": [
        {
          "internalType": "bool",
          "name": "",
          "type": "bool"
        }
      ],
      "stateMutability": "view",
      "type": "function"
    },
    {
      "inputs": [],
      "name": "symbol",
      "outputs": [
        {
          "internalType": "string",
          "name": "",
          "type": "string"
        }
      ],
      "stateMutability": "view",
      "type": "function"
    },
    {
      "inputs": [
        {
          "internalType": "uint256",
          "name": "tokenId",
          "type": "uint256"
        }
      ],
      "name": "tokenURI",
      "outputs": [
        {
          "internalType": "string",
          "name": "",
          "type": "string"
        }
      ],
      "stateMutability": "view",
      "type": "function"
    },
    {
      "inputs": [
        {
          "internalType": "address",
          "name": "from",
          "type": "address"
        },
        {
          "internalType": "address",
          "name": "to",
          "type": "address"
        },
        {
          "internalType": "uint256",
          "name": "tokenId",
          "type": "uint256"
        }
      ],
      "name": "transferFrom",
      "outputs": [],
      "stateMutability": "nonpayable",
      "type": "function"
    },
    {
      "inputs": [
        {
          "internalType": "address",
          "name": "newOwner",
          "type": "address"
        }
      ],
      "name": "transferOwnership",
      "outputs": [],
      "stateMutability": "nonpayable",
      "type": "function"
    }
  ],
  "bytecode": "0x608060405234801561001057600080fd5b506040518060400160405280601781526020017f4c6974746572636f696e4d65726368616e74546f6b656e0000000000000000008152506040518060400160405280600481526020017f4c584d5400000000000000000000000000000000000000000000000000000000815250816000908161008c91906103f9565b50806001908161009c91906103f9565b5050506100bb6100b06100db60201b60201c565b6100e360201b60201c565b6000600660146101000a81548160ff0219169083151502179055506104cb565b600033905090565b6000600660009054906101000a900473ffffffffffffffffffffffffffffffffffffffff16905081600660006101000a81548173ffffffffffffffffffffffffffffffffffffffff021916908373ffffffffffffffffffffffffffffffffffffffff1602179055508173ffffffffffffffffffffffffffffffffffffffff168173ffffffffffffffffffffffffffffffffffffffff167f8be0079c531659141344cd1fd0a4f28419497f9722a3daafe3b4186f6b6457e060405160405180910390a35050565b600081519050919050565b7f4e487b7100000000000000000000000000000000000000000000000000000000600052604160045260246000fd5b7f4e487b7100000000000000000000000000000000000000000000000000000000600052602260045260246000fd5b6000600282049050600182168061022a57607f821691505b60208210810361023d5761023c6101e3565b5b50919050565b60008190508160005260206000209050919050565b60006020601f8301049050919050565b600082821b905092915050565b6000600883026102a57fffffffffffffffffffffffffffffffffffffffffffffffffffffffffffffffff82610268565b6102af8683610268565b95508019841693508086168417925050509392505050565b6000819050919050565b6000819050919050565b60006102f66102f16102ec846102c7565b6102d1565b6102c7565b9050919050565b6000819050919050565b610310836102db565b61032461031c826102fd565b848454610275565b825550505050565b600090565b61033961032c565b610344818484610307565b505050565b5b818110156103685761035d600082610331565b60018101905061034a565b5050565b601f8211156103ad5761037e81610243565b61038784610258565b81016020851015610396578190505b6103aa6103a285610258565b830182610349565b50505b505050565b600082821c905092915050565b60006103d0600019846008026103b2565b1980831691505092915050565b60006103e983836103bf565b9150826002028217905092915050565b610402826101a9565b67ffffffffffffffff81111561041b5761041a6101b4565b5b6104258254610212565b61043082828561036c565b600060209050601f8311600181146104635760008415610451578287015190505b61045b85826103dd565b8655506104c3565b601f19841661047186610243565b60005b8281101561049957848901518255600182019150602085019450602081019050610474565b868310156104b657848901516104b2601f8916826103bf565b8355505b6001600288020188555050505b505050505050565b6139d4806104da6000396000f3fe608060405234801561001057600080fd5b506004361061018e5760003560e01c80636352211e116100de578063b88d4fde11610097578063d9e5896e11610071578063d9e5896e1461046d578063e985e9c51461049d578063ea557633146104cd578063f2fde38b146104fd5761018e565b8063b88d4fde146103f1578063c87b56dd1461040d578063d9548e531461043d5761018e565b80636352211e1461032f57806370a082311461035f578063715018a61461038f5780638da5cb5b1461039957806395d89b41146103b7578063a22cb465146103d55761018e565b8063393ed91a1161014b57806342842e0e1161012557806342842e0e146102cd57806344df8e70146102e957806356189236146102f35780635c975abb146103115761018e565b8063393ed91a1461027957806340c10f1914610295578063425604d6146102b15761018e565b806301ffc9a71461019357806302556a29146101c357806306fdde03146101f3578063081812fc14610211578063095ea7b31461024157806323b872dd1461025d575b600080fd5b6101ad60048036038101906101a891906125e2565b610519565b6040516101ba919061262a565b60405180910390f35b6101dd60048036038101906101d891906126a3565b61052b565b6040516101ea919061262a565b60405180910390f35b6101fb61059e565b6040516102089190612760565b60405180910390f35b61022b600480360381019061022691906127b8565b610630565b60405161023891906127f4565b60405180910390f35b61025b6004803603810190610256919061280f565b610676565b005b6102776004803603810190610272919061284f565b61078d565b005b610293600480360381019061028e91906127b8565b6107ed565b005b6102af60048036038101906102aa919061280f565b6108ed565b005b6102cb60048036038101906102c691906128a2565b610acc565b005b6102e760048036038101906102e2919061284f565b610be1565b005b6102f1610c01565b005b6102fb610c9c565b60405161030891906128f1565b60405180910390f35b610319610cad565b604051610326919061262a565b60405180910390f35b610349600480360381019061034491906127b8565b610cc4565b60405161035691906127f4565b60405180910390f35b610379600480360381019061037491906126a3565b610d4a565b60405161038691906128f1565b60405180910390f35b610397610e01565b005b6103a1610e15565b6040516103ae91906127f4565b60405180910390f35b6103bf610e3f565b6040516103cc9190612760565b60405180910390f35b6103ef60048036038101906103ea9190612938565b610ed1565b005b61040b60048036038101906104069190612aad565b610ee7565b005b610427600480360381019061042291906127b8565b610f49565b6040516104349190612760565b60405180910390f35b610457600480360381019061045291906127b8565b610fb1565b604051610464919061262a565b60405180910390f35b610487600480360381019061048291906127b8565b611018565b60405161049491906128f1565b60405180910390f35b6104b760048036038101906104b29190612b30565b61107d565b6040516104c4919061262a565b60405180910390f35b6104e760048036038101906104e291906126a3565b611111565b6040516104f491906128f1565b60405180910390f35b610517600480360381019061051291906126a3565b611211565b005b600061052482611294565b9050919050565b600080600860008473ffffffffffffffffffffffffffffffffffffffff1673ffffffffffffffffffffffffffffffffffffffff1681526020019081526020016000205490506000811480610584575061058381610fb1565b5b15610593576000915050610599565b60019150505b919050565b6060600080546105ad90612b9f565b80601f01602080910402602001604051908101604052809291908181526020018280546105d990612b9f565b80156106265780601f106105fb57610100808354040283529160200191610626565b820191906000526020600020905b81548152906001019060200180831161060957829003601f168201915b5050505050905090565b600061063b82611376565b6004600083815260200190815260200160002060009054906101000a900473ffffffffffffffffffffffffffffffffffffffff169050919050565b600061068182610cc4565b90508073ffffffffffffffffffffffffffffffffffffffff168373ffffffffffffffffffffffffffffffffffffffff16036106f1576040517f08c379a00000000000000000000000000000000000000000000000000000000081526004016106e890612c42565b60405180910390fd5b8073ffffffffffffffffffffffffffffffffffffffff166107106113c1565b73ffffffffffffffffffffffffffffffffffffffff16148061073f575061073e816107396113c1565b61107d565b5b61077e576040517f08c379a000000000000000000000000000000000000000000000000000000000815260040161077590612cd4565b60405180910390fd5b61078883836113c9565b505050565b61079e6107986113c1565b82611482565b6107dd576040517f08c379a00000000000000000000000000000000000000000000000000000000081526004016107d490612d66565b60405180910390fd5b6107e8838383611517565b505050565b6107f5611810565b6107fd61188e565b610806816118d8565b610845576040517f08c379a000000000000000000000000000000000000000000000000000000000815260040161083c90612dd2565b60405180910390fd5b61084e81610fb1565b1561088e576040517f08c379a000000000000000000000000000000000000000000000000000000000815260040161088590612e3e565b60405180910390fd5b610e104261089c9190612e8d565b60096000838152602001908152602001600020819055507f754f3aa765fa1f221ea409fddea972deff6ce410d141d5cded4fc7ec690710c0816040516108e291906128f1565b60405180910390a150565b6108f5611810565b6108fd61188e565b600073ffffffffffffffffffffffffffffffffffffffff168273ffffffffffffffffffffffffffffffffffffffff160361096c576040517f08c379a000000000000000000000000000000000000000000000000000000000815260040161096390612f0d565b60405180910390fd5b4281116109ae576040517f08c379a00000000000000000000000000000000000000000000000000000000081526004016109a590612f9f565b60405180910390fd5b60006109b983610d4a565b146109f9576040517f08c379a00000000000000000000000000000000000000000000000000000000081526004016109f09061300b565b60405180910390fd5b610a036007611919565b6000610a0f600761192f565b9050816009600083815260200190815260200160002081905550610a33838261193d565b80600860008573ffffffffffffffffffffffffffffffffffffffff1673ffffffffffffffffffffffffffffffffffffffff168152602001908152602001600020819055508273ffffffffffffffffffffffffffffffffffffffff167f655ff37b06d138fc26fda07d435a40368e63b8d3cbd7835215334ff9e7fcd7828284604051610abf92919061302b565b60405180910390a2505050565b610ad4611810565b610adc61188e565b610ae5826118d8565b610b24576040517f08c379a0000000000000000000000000000000000000000000000000000000008152600401610b1b90612dd2565b60405180910390fd5b60008111610b67576040517f08c379a0000000000000000000000000000000000000000000000000000000008152600401610b5e906130c6565b60405180910390fd5b80600960008481526020019081526020016000206000828254610b8a91906130e6565b925050819055507f0db48b23ad6f04f212b5fddef4017753a195535f0d61c4daa790b4f70f28c07f826009600085815260200190815260200160002054604051610bd592919061302b565b60405180910390a15050565b610bfc83838360405180602001604052806000815250610ee7565b505050565b610c0961188e565b6000600860003373ffffffffffffffffffffffffffffffffffffffff1673ffffffffffffffffffffffffffffffffffffffff16815260200190815260200160002054905060008103610c90576040517f08c379a0000000000000000000000000000000000000000000000000000000008152600401610c8790613166565b60405180910390fd5b610c998161195b565b50565b6000610ca8600761192f565b905090565b6000600660149054906101000a900460ff16905090565b600080610cd083611aa9565b9050600073ffffffffffffffffffffffffffffffffffffffff168173ffffffffffffffffffffffffffffffffffffffff1603610d41576040517f08c379a0000000000000000000000000000000000000000000000000000000008152600401610d38906131d2565b60405180910390fd5b80915050919050565b60008073ffffffffffffffffffffffffffffffffffffffff168273ffffffffffffffffffffffffffffffffffffffff1603610dba576040517f08c379a0000000000000000000000000000000000000000000000000000000008152600401610db190613264565b60405180910390fd5b600360008373ffffffffffffffffffffffffffffffffffffffff1673ffffffffffffffffffffffffffffffffffffffff168152602001908152602001600020549050919050565b610e09611810565b610e136000611ae6565b565b6000600660009054906101000a900473ffffffffffffffffffffffffffffffffffffffff16905090565b606060018054610e4e90612b9f565b80601f0160208091040260200160405190810160405280929190818152602001828054610e7a90612b9f565b8015610ec75780601f10610e9c57610100808354040283529160200191610ec7565b820191906000526020600020905b815481529060010190602001808311610eaa57829003601f168201915b5050505050905090565b610ee3610edc6113c1565b8383611bac565b5050565b610ef8610ef26113c1565b83611482565b610f37576040517f08c379a0000000000000000000000000000000000000000000000000000000008152600401610f2e90612d66565b60405180910390fd5b610f4384848484611d18565b50505050565b6060610f5482611376565b6000610f5e611d74565b90506000815111610f7e5760405180602001604052806000815250610fa9565b80610f8884611d8b565b604051602001610f999291906132c0565b6040516020818303038152906040525b915050919050565b6000610fbc826118d8565b610ffb576040517f08c379a0000000000000000000000000000000000000000000000000000000008152600401610ff290612dd2565b60405180910390fd5b600960008381526020019081526020016000205442119050919050565b6000611023826118d8565b611062576040517f08c379a000000000000000000000000000000000000000000000000000000000815260040161105990612dd2565b60405180910390fd5b60096000838152602001908152602001600020549050919050565b6000600560008473ffffffffffffffffffffffffffffffffffffffff1673ffffffffffffffffffffffffffffffffffffffff16815260200190815260200160002060008373ffffffffffffffffffffffffffffffffffffffff1673ffffffffffffffffffffffffffffffffffffffff16815260200190815260200160002060009054906101000a900460ff16905092915050565b60008073ffffffffffffffffffffffffffffffffffffffff168273ffffffffffffffffffffffffffffffffffffffff1603611181576040517f08c379a000000000000000000000000000000000000000000000000000000000815260040161117890613330565b60405180910390fd5b6000600860008473ffffffffffffffffffffffffffffffffffffffff1673ffffffffffffffffffffffffffffffffffffffff16815260200190815260200160002054905060008103611208576040517f08c379a00000000000000000000000000000000000000000000000000000000081526004016111ff9061339c565b60405180910390fd5b80915050919050565b611219611810565b600073ffffffffffffffffffffffffffffffffffffffff168173ffffffffffffffffffffffffffffffffffffffff1603611288576040517f08c379a000000000000000000000000000000000000000000000000000000000815260040161127f9061342e565b60405180910390fd5b61129181611ae6565b50565b60007f80ac58cd000000000000000000000000000000000000000000000000000000007bffffffffffffffffffffffffffffffffffffffffffffffffffffffff1916827bffffffffffffffffffffffffffffffffffffffffffffffffffffffff1916148061135f57507f5b5e139f000000000000000000000000000000000000000000000000000000007bffffffffffffffffffffffffffffffffffffffffffffffffffffffff1916827bffffffffffffffffffffffffffffffffffffffffffffffffffffffff1916145b8061136f575061136e82611e59565b5b9050919050565b61137f816118d8565b6113be576040517f08c379a00000000000000000000000000000000000000000000000000000000081526004016113b5906131d2565b60405180910390fd5b50565b600033905090565b816004600083815260200190815260200160002060006101000a81548173ffffffffffffffffffffffffffffffffffffffff021916908373ffffffffffffffffffffffffffffffffffffffff160217905550808273ffffffffffffffffffffffffffffffffffffffff1661143c83610cc4565b73ffffffffffffffffffffffffffffffffffffffff167f8c5be1e5ebec7d5bd14f71427d1e84f3dd0314c0f7b2291e5b200ac8c7c3b92560405160405180910390a45050565b60008061148e83610cc4565b90508073ffffffffffffffffffffffffffffffffffffffff168473ffffffffffffffffffffffffffffffffffffffff1614806114d057506114cf818561107d565b5b8061150e57508373ffffffffffffffffffffffffffffffffffffffff166114f684610630565b73ffffffffffffffffffffffffffffffffffffffff16145b91505092915050565b8273ffffffffffffffffffffffffffffffffffffffff1661153782610cc4565b73ffffffffffffffffffffffffffffffffffffffff161461158d576040517f08c379a0000000000000000000000000000000000000000000000000000000008152600401611584906134c0565b60405180910390fd5b600073ffffffffffffffffffffffffffffffffffffffff168273ffffffffffffffffffffffffffffffffffffffff16036115fc576040517f08c379a00000000000000000000000000000000000000000000000000000000081526004016115f390613552565b60405180910390fd5b6116098383836001611ec3565b8273ffffffffffffffffffffffffffffffffffffffff1661162982610cc4565b73ffffffffffffffffffffffffffffffffffffffff161461167f576040517f08c379a0000000000000000000000000000000000000000000000000000000008152600401611676906134c0565b60405180910390fd5b6004600082815260200190815260200160002060006101000a81549073ffffffffffffffffffffffffffffffffffffffff02191690556001600360008573ffffffffffffffffffffffffffffffffffffffff1673ffffffffffffffffffffffffffffffffffffffff168152602001908152602001600020600082825403925050819055506001600360008473ffffffffffffffffffffffffffffffffffffffff1673ffffffffffffffffffffffffffffffffffffffff16815260200190815260200160002060008282540192505081905550816002600083815260200190815260200160002060006101000a81548173ffffffffffffffffffffffffffffffffffffffff021916908373ffffffffffffffffffffffffffffffffffffffff160217905550808273ffffffffffffffffffffffffffffffffffffffff168473ffffffffffffffffffffffffffffffffffffffff167fddf252ad1be2c89b69c2b068fc378daa952ba7f163c4a11628f55a4df523b3ef60405160405180910390a461180b8383836001611ff5565b505050565b6118186113c1565b73ffffffffffffffffffffffffffffffffffffffff16611836610e15565b73ffffffffffffffffffffffffffffffffffffffff161461188c576040517f08c379a0000000000000000000000000000000000000000000000000000000008152600401611883906135be565b60405180910390fd5b565b611896610cad565b156118d6576040517f08c379a00000000000000000000000000000000000000000000000000000000081526004016118cd9061362a565b60405180910390fd5b565b60008073ffffffffffffffffffffffffffffffffffffffff166118fa83611aa9565b73ffffffffffffffffffffffffffffffffffffffff1614159050919050565b6001816000016000828254019250508190555050565b600081600001549050919050565b611957828260405180602001604052806000815250611ffb565b5050565b600061196682610cc4565b9050611976816000846001611ec3565b61197f82610cc4565b90506004600083815260200190815260200160002060006101000a81549073ffffffffffffffffffffffffffffffffffffffff02191690556001600360008373ffffffffffffffffffffffffffffffffffffffff1673ffffffffffffffffffffffffffffffffffffffff168152602001908152602001600020600082825403925050819055506002600083815260200190815260200160002060006101000a81549073ffffffffffffffffffffffffffffffffffffffff021916905581600073ffffffffffffffffffffffffffffffffffffffff168273ffffffffffffffffffffffffffffffffffffffff167fddf252ad1be2c89b69c2b068fc378daa952ba7f163c4a11628f55a4df523b3ef60405160405180910390a4611aa5816000846001611ff5565b5050565b60006002600083815260200190815260200160002060009054906101000a900473ffffffffffffffffffffffffffffffffffffffff169050919050565b6000600660009054906101000a900473ffffffffffffffffffffffffffffffffffffffff16905081600660006101000a81548173ffffffffffffffffffffffffffffffffffffffff021916908373ffffffffffffffffffffffffffffffffffffffff1602179055508173ffffffffffffffffffffffffffffffffffffffff168173ffffffffffffffffffffffffffffffffffffffff167f8be0079c531659141344cd1fd0a4f28419497f9722a3daafe3b4186f6b6457e060405160405180910390a35050565b8173ffffffffffffffffffffffffffffffffffffffff168373ffffffffffffffffffffffffffffffffffffffff1603611c1a576040517f08c379a0000000000000000000000000000000000000000000000000000000008152600401611c1190613696565b60405180910390fd5b80600560008573ffffffffffffffffffffffffffffffffffffffff1673ffffffffffffffffffffffffffffffffffffffff16815260200190815260200160002060008473ffffffffffffffffffffffffffffffffffffffff1673ffffffffffffffffffffffffffffffffffffffff16815260200190815260200160002060006101000a81548160ff0219169083151502179055508173ffffffffffffffffffffffffffffffffffffffff168373ffffffffffffffffffffffffffffffffffffffff167f17307eab39ab6107e8899845ad3d59bd9653f200f220920489ca2b5937696c3183604051611d0b919061262a565b60405180910390a3505050565b611d23848484611517565b611d2f84848484612056565b611d6e576040517f08c379a0000000000000000000000000000000000000000000000000000000008152600401611d6590613728565b60405180910390fd5b50505050565b606060405180602001604052806000815250905090565b606060006001611d9a846121dd565b01905060008167ffffffffffffffff811115611db957611db8612982565b5b6040519080825280601f01601f191660200182016040528015611deb5781602001600182028036833780820191505090505b509050600082602001820190505b600115611e4e578080600190039150507f3031323334353637383961626364656600000000000000000000000000000000600a86061a8153600a8581611e4257611e41613748565b5b04945060008503611df9575b819350505050919050565b60007f01ffc9a7000000000000000000000000000000000000000000000000000000007bffffffffffffffffffffffffffffffffffffffffffffffffffffffff1916827bffffffffffffffffffffffffffffffffffffffffffffffffffffffff1916149050919050565b611ecf84848484612330565b600073ffffffffffffffffffffffffffffffffffffffff168473ffffffffffffffffffffffffffffffffffffffff161480611f365750600073ffffffffffffffffffffffffffffffffffffffff168373ffffffffffffffffffffffffffffffffffffffff16145b611f75576040517f08c379a0000000000000000000000000000000000000000000000000000000008152600401611f6c906137c3565b60405180910390fd5b600073ffffffffffffffffffffffffffffffffffffffff168473ffffffffffffffffffffffffffffffffffffffff1614611fef576000600860008673ffffffffffffffffffffffffffffffffffffffff1673ffffffffffffffffffffffffffffffffffffffff168152602001908152602001600020819055505b50505050565b50505050565b6120058383612336565b6120126000848484612056565b612051576040517f08c379a000000000000000000000000000000000000000000000000000000000815260040161204890613728565b60405180910390fd5b505050565b60006120778473ffffffffffffffffffffffffffffffffffffffff16612553565b156121d0578373ffffffffffffffffffffffffffffffffffffffff1663150b7a026120a06113c1565b8786866040518563ffffffff1660e01b81526004016120c29493929190613838565b6020604051808303816000875af19250505080156120fe57506040513d601f19601f820116820180604052508101906120fb9190613899565b60015b612180573d806000811461212e576040519150601f19603f3d011682016040523d82523d6000602084013e612133565b606091505b506000815103612178576040517f08c379a000000000000000000000000000000000000000000000000000000000815260040161216f90613728565b60405180910390fd5b805181602001fd5b63150b7a0260e01b7bffffffffffffffffffffffffffffffffffffffffffffffffffffffff1916817bffffffffffffffffffffffffffffffffffffffffffffffffffffffff1916149150506121d5565b600190505b949350505050565b600080600090507a184f03e93ff9f4daa797ed6e38ed64bf6a1f010000000000000000831061223b577a184f03e93ff9f4daa797ed6e38ed64bf6a1f010000000000000000838161223157612230613748565b5b0492506040810190505b6d04ee2d6d415b85acef81000000008310612278576d04ee2d6d415b85acef8100000000838161226e5761226d613748565b5b0492506020810190505b662386f26fc1000083106122a757662386f26fc10000838161229d5761229c613748565b5b0492506010810190505b6305f5e10083106122d0576305f5e10083816122c6576122c5613748565b5b0492506008810190505b61271083106122f55761271083816122eb576122ea613748565b5b0492506004810190505b60648310612318576064838161230e5761230d613748565b5b0492506002810190505b600a8310612327576001810190505b80915050919050565b50505050565b600073ffffffffffffffffffffffffffffffffffffffff168273ffffffffffffffffffffffffffffffffffffffff16036123a5576040517f08c379a000000000000000000000000000000000000000000000000000000000815260040161239c90613912565b60405180910390fd5b6123ae816118d8565b156123ee576040517f08c379a00000000000000000000000000000000000000000000000000000000081526004016123e59061397e565b60405180910390fd5b6123fc600083836001611ec3565b612405816118d8565b15612445576040517f08c379a000000000000000000000000000000000000000000000000000000000815260040161243c9061397e565b60405180910390fd5b6001600360008473ffffffffffffffffffffffffffffffffffffffff1673ffffffffffffffffffffffffffffffffffffffff16815260200190815260200160002060008282540192505081905550816002600083815260200190815260200160002060006101000a81548173ffffffffffffffffffffffffffffffffffffffff021916908373ffffffffffffffffffffffffffffffffffffffff160217905550808273ffffffffffffffffffffffffffffffffffffffff16600073ffffffffffffffffffffffffffffffffffffffff167fddf252ad1be2c89b69c2b068fc378daa952ba7f163c4a11628f55a4df523b3ef60405160405180910390a461254f600083836001611ff5565b5050565b6000808273ffffffffffffffffffffffffffffffffffffffff163b119050919050565b6000604051905090565b600080fd5b600080fd5b60007fffffffff0000000000000000000000000000000000000000000000000000000082169050919050565b6125bf8161258a565b81146125ca57600080fd5b50565b6000813590506125dc816125b6565b92915050565b6000602082840312156125f8576125f7612580565b5b6000612606848285016125cd565b91505092915050565b60008115159050919050565b6126248161260f565b82525050565b600060208201905061263f600083018461261b565b92915050565b600073ffffffffffffffffffffffffffffffffffffffff82169050919050565b600061267082612645565b9050919050565b61268081612665565b811461268b57600080fd5b50565b60008135905061269d81612677565b92915050565b6000602082840312156126b9576126b8612580565b5b60006126c78482850161268e565b91505092915050565b600081519050919050565b600082825260208201905092915050565b60005b8381101561270a5780820151818401526020810190506126ef565b60008484015250505050565b6000601f19601f8301169050919050565b6000612732826126d0565b61273c81856126db565b935061274c8185602086016126ec565b61275581612716565b840191505092915050565b6000602082019050818103600083015261277a8184612727565b905092915050565b6000819050919050565b61279581612782565b81146127a057600080fd5b50565b6000813590506127b28161278c565b92915050565b6000602082840312156127ce576127cd612580565b5b60006127dc848285016127a3565b91505092915050565b6127ee81612665565b82525050565b600060208201905061280960008301846127e5565b92915050565b6000806040838503121561282657612825612580565b5b60006128348582860161268e565b9250506020612845858286016127a3565b9150509250929050565b60008060006060848603121561286857612867612580565b5b60006128768682870161268e565b93505060206128878682870161268e565b9250506040612898868287016127a3565b9150509250925092565b600080604083850312156128b9576128b8612580565b5b60006128c7858286016127a3565b92505060206128d8858286016127a3565b9150509250929050565b6128eb81612782565b82525050565b600060208201905061290660008301846128e2565b92915050565b6129158161260f565b811461292057600080fd5b50565b6000813590506129328161290c565b92915050565b6000806040838503121561294f5761294e612580565b5b600061295d8582860161268e565b925050602061296e85828601612923565b9150509250929050565b600080fd5b600080fd5b7f4e487b7100000000000000000000000000000000000000000000000000000000600052604160045260246000fd5b6129ba82612716565b810181811067ffffffffffffffff821117156129d9576129d8612982565b5b80604052505050565b60006129ec612576565b90506129f882826129b1565b919050565b600067ffffffffffffffff821115612a1857612a17612982565b5b612a2182612716565b9050602081019050919050565b82818337600083830152505050565b6000612a50612a4b846129fd565b6129e2565b905082815260208101848484011115612a6c57612a6b61297d565b5b612a77848285612a2e565b509392505050565b600082601f830112612a9457612a93612978565b5b8135612aa4848260208601612a3d565b91505092915050565b60008060008060808587031215612ac757612ac6612580565b5b6000612ad58782880161268e565b9450506020612ae68782880161268e565b9350506040612af7878288016127a3565b925050606085013567ffffffffffffffff811115612b1857612b17612585565b5b612b2487828801612a7f565b91505092959194509250565b60008060408385031215612b4757612b46612580565b5b6000612b558582860161268e565b9250506020612b668582860161268e565b9150509250929050565b7f4e487b7100000000000000000000000000000000000000000000000000000000600052602260045260246000fd5b60006002820490506001821680612bb757607f821691505b602082108103612bca57612bc9612b70565b5b50919050565b7f4552433732313a20617070726f76616c20746f2063757272656e74206f776e6560008201527f7200000000000000000000000000000000000000000000000000000000000000602082015250565b6000612c2c6021836126db565b9150612c3782612bd0565b604082019050919050565b60006020820190508181036000830152612c5b81612c1f565b9050919050565b7f4552433732313a20617070726f76652063616c6c6572206973206e6f7420746f60008201527f6b656e206f776e6572206f7220617070726f76656420666f7220616c6c000000602082015250565b6000612cbe603d836126db565b9150612cc982612c62565b604082019050919050565b60006020820190508181036000830152612ced81612cb1565b9050919050565b7f4552433732313a2063616c6c6572206973206e6f7420746f6b656e206f776e6560008201527f72206f7220617070726f76656400000000000000000000000000000000000000602082015250565b6000612d50602d836126db565b9150612d5b82612cf4565b604082019050919050565b60006020820190508181036000830152612d7f81612d43565b9050919050565b7f546f6b656e20646f6573206e6f74206578697374000000000000000000000000600082015250565b6000612dbc6014836126db565b9150612dc782612d86565b602082019050919050565b60006020820190508181036000830152612deb81612daf565b9050919050565b7f546f6b656e20616c726561647920657870697265640000000000000000000000600082015250565b6000612e286015836126db565b9150612e3382612df2565b602082019050919050565b60006020820190508181036000830152612e5781612e1b565b9050919050565b7f4e487b7100000000000000000000000000000000000000000000000000000000600052601160045260246000fd5b6000612e9882612782565b9150612ea383612782565b9250828203905081811115612ebb57612eba612e5e565b5b92915050565b7f43616e6e6f74206d696e7420746f207a65726f20616464726573730000000000600082015250565b6000612ef7601b836126db565b9150612f0282612ec1565b602082019050919050565b60006020820190508181036000830152612f2681612eea565b9050919050565b7f45787069726174696f6e206d75737420626520696e207468652066757475726560008201527f2e00000000000000000000000000000000000000000000000000000000000000602082015250565b6000612f896021836126db565b9150612f9482612f2d565b604082019050919050565b60006020820190508181036000830152612fb881612f7c565b9050919050565b7f5573657220616c726561647920686173206120746f6b656e0000000000000000600082015250565b6000612ff56018836126db565b915061300082612fbf565b602082019050919050565b6000602082019050818103600083015261302481612fe8565b9050919050565b600060408201905061304060008301856128e2565b61304d60208301846128e2565b9392505050565b7f4164646974696f6e616c2074696d65206d75737420626520677265617465722060008201527f7468616e207a65726f0000000000000000000000000000000000000000000000602082015250565b60006130b06029836126db565b91506130bb82613054565b604082019050919050565b600060208201905081810360008301526130df816130a3565b9050919050565b60006130f182612782565b91506130fc83612782565b925082820190508082111561311457613113612e5e565b5b92915050565b7f596f7520646f206e6f74206f776e206120746f6b656e00000000000000000000600082015250565b60006131506016836126db565b915061315b8261311a565b602082019050919050565b6000602082019050818103600083015261317f81613143565b9050919050565b7f4552433732313a20696e76616c696420746f6b656e2049440000000000000000600082015250565b60006131bc6018836126db565b91506131c782613186565b602082019050919050565b600060208201905081810360008301526131eb816131af565b9050919050565b7f4552433732313a2061646472657373207a65726f206973206e6f74206120766160008201527f6c6964206f776e65720000000000000000000000000000000000000000000000602082015250565b600061324e6029836126db565b9150613259826131f2565b604082019050919050565b6000602082019050818103600083015261327d81613241565b9050919050565b600081905092915050565b600061329a826126d0565b6132a48185613284565b93506132b48185602086016126ec565b80840191505092915050565b60006132cc828561328f565b91506132d8828461328f565b91508190509392505050565b7f496e76616c696420616464726573730000000000000000000000000000000000600082015250565b600061331a600f836126db565b9150613325826132e4565b602082019050919050565b600060208201905081810360008301526133498161330d565b9050919050565b7f4f776e657220646f6573206e6f742068617665206120746f6b656e0000000000600082015250565b6000613386601b836126db565b915061339182613350565b602082019050919050565b600060208201905081810360008301526133b581613379565b9050919050565b7f4f776e61626c653a206e6577206f776e657220697320746865207a65726f206160008201527f6464726573730000000000000000000000000000000000000000000000000000602082015250565b60006134186026836126db565b9150613423826133bc565b604082019050919050565b600060208201905081810360008301526134478161340b565b9050919050565b7f4552433732313a207472616e736665722066726f6d20696e636f72726563742060008201527f6f776e6572000000000000000000000000000000000000000000000000000000602082015250565b60006134aa6025836126db565b91506134b58261344e565b604082019050919050565b600060208201905081810360008301526134d98161349d565b9050919050565b7f4552433732313a207472616e7366657220746f20746865207a65726f2061646460008201527f7265737300000000000000000000000000000000000000000000000000000000602082015250565b600061353c6024836126db565b9150613547826134e0565b604082019050919050565b6000602082019050818103600083015261356b8161352f565b9050919050565b7f4f776e61626c653a2063616c6c6572206973206e6f7420746865206f776e6572600082015250565b60006135a86020836126db565b91506135b382613572565b602082019050919050565b600060208201905081810360008301526135d78161359b565b9050919050565b7f5061757361626c653a2070617573656400000000000000000000000000000000600082015250565b60006136146010836126db565b915061361f826135de565b602082019050919050565b6000602082019050818103600083015261364381613607565b9050919050565b7f4552433732313a20617070726f766520746f2063616c6c657200000000000000600082015250565b60006136806019836126db565b915061368b8261364a565b602082019050919050565b600060208201905081810360008301526136af81613673565b9050919050565b7f4552433732313a207472616e7366657220746f206e6f6e20455243373231526560008201527f63656976657220696d706c656d656e7465720000000000000000000000000000602082015250565b60006137126032836126db565b915061371d826136b6565b604082019050919050565b6000602082019050818103600083015261374181613705565b9050919050565b7f4e487b7100000000000000000000000000000000000000000000000000000000600052601260045260246000fd5b7f5472616e7366657273206172652064697361626c656400000000000000000000600082015250565b60006137ad6016836126db565b91506137b882613777565b602082019050919050565b600060208201905081810360008301526137dc816137a0565b9050919050565b600081519050919050565b600082825260208201905092915050565b600061380a826137e3565b61381481856137ee565b93506138248185602086016126ec565b61382d81612716565b840191505092915050565b600060808201905061384d60008301876127e5565b61385a60208301866127e5565b61386760408301856128e2565b818103606083015261387981846137ff565b905095945050505050565b600081519050613893816125b6565b92915050565b6000602082840312156138af576138ae612580565b5b60006138bd84828501613884565b91505092915050565b7f4552433732313a206d696e7420746f20746865207a65726f2061646472657373600082015250565b60006138fc6020836126db565b9150613907826138c6565b602082019050919050565b6000602082019050818103600083015261392b816138ef565b9050919050565b7f4552433732313a20746f6b656e20616c7265616479206d696e74656400000000600082015250565b6000613968601c836126db565b915061397382613932565b602082019050919050565b600060208201905081810360008301526139978161395b565b905091905056fea264697066735822122089a45cb95ce54579d05b3f78dbaa37cf1c6423672f7be656a507bfc1c3ffbf3264736f6c634300081b0033",
  "linkReferences": {},
  "deployedLinkReferences": {}
}