{
  "_format": "hh-sol-artifact-1",
  "contractName": "MerchantToken",
  "sourceName": "contracts/MerchantToken.sol",
  "abi": [
    {
      "inputs": [],
      "stateMutability": "nonpayable",
      "type": "constructor"
    },
    {
      "anonymous": false,
      "inputs": [
        {
          "indexed": true,
          "internalType": "address",
          "name": "owner",
          "type": "address"
        },
        {
          "indexed": true,
          "internalType": "address",
          "name": "approved",
          "type": "address"
        },
        {
          "indexed": true,
          "internalType": "uint256",
          "name": "tokenId",
          "type": "uint256"
        }
      ],
      "name": "Approval",
      "type": "event"
    },
    {
      "anonymous": false,
      "inputs": [
        {
          "indexed": true,
          "internalType": "address",
          "name": "owner",
          "type": "address"
        },
        {
          "indexed": true,
          "internalType": "address",
          "name": "operator",
          "type": "address"
        },
        {
          "indexed": false,
          "internalType": "bool",
          "name": "approved",
          "type": "bool"
        }
      ],
      "name": "ApprovalForAll",
      "type": "event"
    },
    {
      "anonymous": false,
      "inputs": [
        {
          "indexed": true,
          "internalType": "address",
          "name": "to",
          "type": "address"
        },
        {
          "indexed": false,
          "internalType": "uint256",
          "name": "tokenId",
          "type": "uint256"
        },
        {
          "indexed": false,
          "internalType": "uint256",
          "name": "expiryTime",
          "type": "uint256"
        }
      ],
      "name": "MerchantTokenMinted",
      "type": "event"
    },
    {
      "anonymous": false,
      "inputs": [
        {
          "indexed": true,
          "internalType": "address",
          "name": "previousOwner",
          "type": "address"
        },
        {
          "indexed": true,
          "internalType": "address",
          "name": "newOwner",
          "type": "address"
        }
      ],
      "name": "OwnershipTransferred",
      "type": "event"
    },
    {
      "anonymous": false,
      "inputs": [
        {
          "indexed": true,
          "internalType": "address",
          "name": "from",
          "type": "address"
        },
        {
          "indexed": true,
          "internalType": "address",
          "name": "to",
          "type": "address"
        },
        {
          "indexed": true,
          "internalType": "uint256",
          "name": "tokenId",
          "type": "uint256"
        }
      ],
      "name": "Transfer",
      "type": "event"
    },
    {
      "inputs": [],
      "name": "DEFAULT_EXPIRY_PERIOD",
      "outputs": [
        {
          "internalType": "uint256",
          "name": "",
          "type": "uint256"
        }
      ],
      "stateMutability": "view",
      "type": "function"
    },
    {
      "inputs": [
        {
          "internalType": "address",
          "name": "to",
          "type": "address"
        },
        {
          "internalType": "uint256",
          "name": "tokenId",
          "type": "uint256"
        }
      ],
      "name": "approve",
      "outputs": [],
      "stateMutability": "nonpayable",
      "type": "function"
    },
    {
      "inputs": [
        {
          "internalType": "address",
          "name": "owner",
          "type": "address"
        }
      ],
      "name": "balanceOf",
      "outputs": [
        {
          "internalType": "uint256",
          "name": "",
          "type": "uint256"
        }
      ],
      "stateMutability": "view",
      "type": "function"
    },
    {
      "inputs": [
        {
          "internalType": "uint256",
          "name": "tokenId",
          "type": "uint256"
        }
      ],
      "name": "getApproved",
      "outputs": [
        {
          "internalType": "address",
          "name": "",
          "type": "address"
        }
      ],
      "stateMutability": "view",
      "type": "function"
    },
    {
      "inputs": [
        {
          "internalType": "uint256",
          "name": "tokenId",
          "type": "uint256"
        }
      ],
      "name": "getExpiry",
      "outputs": [
        {
          "internalType": "uint256",
          "name": "",
          "type": "uint256"
        }
      ],
      "stateMutability": "view",
      "type": "function"
    },
    {
      "inputs": [
        {
          "internalType": "address",
          "name": "user",
          "type": "address"
        }
      ],
      "name": "hasValidMerchantToken",
      "outputs": [
        {
          "internalType": "bool",
          "name": "",
          "type": "bool"
        }
      ],
      "stateMutability": "view",
      "type": "function"
    },
    {
      "inputs": [
        {
          "internalType": "address",
          "name": "owner",
          "type": "address"
        },
        {
          "internalType": "address",
          "name": "operator",
          "type": "address"
        }
      ],
      "name": "isApprovedForAll",
      "outputs": [
        {
          "internalType": "bool",
          "name": "",
          "type": "bool"
        }
      ],
      "stateMutability": "view",
      "type": "function"
    },
    {
      "inputs": [
        {
          "internalType": "uint256",
          "name": "tokenId",
          "type": "uint256"
        }
      ],
      "name": "isExpired",
      "outputs": [
        {
          "internalType": "bool",
          "name": "",
          "type": "bool"
        }
      ],
      "stateMutability": "view",
      "type": "function"
    },
    {
      "inputs": [
        {
          "internalType": "address",
          "name": "to",
          "type": "address"
        }
      ],
      "name": "mint",
      "outputs": [],
      "stateMutability": "nonpayable",
      "type": "function"
    },
    {
      "inputs": [],
      "name": "name",
      "outputs": [
        {
          "internalType": "string",
          "name": "",
          "type": "string"
        }
      ],
      "stateMutability": "view",
      "type": "function"
    },
    {
      "inputs": [],
      "name": "owner",
      "outputs": [
        {
          "internalType": "address",
          "name": "",
          "type": "address"
        }
      ],
      "stateMutability": "view",
      "type": "function"
    },
    {
      "inputs": [
        {
          "internalType": "uint256",
          "name": "tokenId",
          "type": "uint256"
        }
      ],
      "name": "ownerOf",
      "outputs": [
        {
          "internalType": "address",
          "name": "",
          "type": "address"
        }
      ],
      "stateMutability": "view",
      "type": "function"
    },
    {
      "inputs": [],
      "name": "renounceOwnership",
      "outputs": [],
      "stateMutability": "nonpayable",
      "type": "function"
    },
    {
      "inputs": [
        {
          "internalType": "address",
          "name": "from",
          "type": "address"
        },
        {
          "internalType": "address",
          "name": "to",
          "type": "address"
        },
        {
          "internalType": "uint256",
          "name": "tokenId",
          "type": "uint256"
        }
      ],
      "name": "safeTransferFrom",
      "outputs": [],
      "stateMutability": "nonpayable",
      "type": "function"
    },
    {
      "inputs": [
        {
          "internalType": "address",
          "name": "from",
          "type": "address"
        },
        {
          "internalType": "address",
          "name": "to",
          "type": "address"
        },
        {
          "internalType": "uint256",
          "name": "tokenId",
          "type": "uint256"
        },
        {
          "internalType": "bytes",
          "name": "data",
          "type": "bytes"
        }
      ],
      "name": "safeTransferFrom",
      "outputs": [],
      "stateMutability": "nonpayable",
      "type": "function"
    },
    {
      "inputs": [
        {
          "internalType": "address",
          "name": "operator",
          "type": "address"
        },
        {
          "internalType": "bool",
          "name": "approved",
          "type": "bool"
        }
      ],
      "name": "setApprovalForAll",
      "outputs": [],
      "stateMutability": "nonpayable",
      "type": "function"
    },
    {
      "inputs": [
        {
          "internalType": "bytes4",
          "name": "interfaceId",
          "type": "bytes4"
        }
      ],
      "name": "supportsInterface",
      "outputs": [
        {
          "internalType": "bool",
          "name": "",
          "type": "bool"
        }
      ],
      "stateMutability": "view",
      "type": "function"
    },
    {
      "inputs": [],
      "name": "symbol",
      "outputs": [
        {
          "internalType": "string",
          "name": "",
          "type": "string"
        }
      ],
      "stateMutability": "view",
      "type": "function"
    },
    {
      "inputs": [
        {
          "internalType": "uint256",
          "name": "index",
          "type": "uint256"
        }
      ],
      "name": "tokenByIndex",
      "outputs": [
        {
          "internalType": "uint256",
          "name": "",
          "type": "uint256"
        }
      ],
      "stateMutability": "view",
      "type": "function"
    },
    {
      "inputs": [],
      "name": "tokenCounter",
      "outputs": [
        {
          "internalType": "uint256",
          "name": "",
          "type": "uint256"
        }
      ],
      "stateMutability": "view",
      "type": "function"
    },
    {
      "inputs": [
        {
          "internalType": "address",
          "name": "owner",
          "type": "address"
        },
        {
          "internalType": "uint256",
          "name": "index",
          "type": "uint256"
        }
      ],
      "name": "tokenOfOwnerByIndex",
      "outputs": [
        {
          "internalType": "uint256",
          "name": "",
          "type": "uint256"
        }
      ],
      "stateMutability": "view",
      "type": "function"
    },
    {
      "inputs": [
        {
          "internalType": "uint256",
          "name": "tokenId",
          "type": "uint256"
        }
      ],
      "name": "tokenURI",
      "outputs": [
        {
          "internalType": "string",
          "name": "",
          "type": "string"
        }
      ],
      "stateMutability": "view",
      "type": "function"
    },
    {
      "inputs": [],
      "name": "totalSupply",
      "outputs": [
        {
          "internalType": "uint256",
          "name": "",
          "type": "uint256"
        }
      ],
      "stateMutability": "view",
      "type": "function"
    },
    {
      "inputs": [
        {
          "internalType": "address",
          "name": "from",
          "type": "address"
        },
        {
          "internalType": "address",
          "name": "to",
          "type": "address"
        },
        {
          "internalType": "uint256",
          "name": "tokenId",
          "type": "uint256"
        }
      ],
      "name": "transferFrom",
      "outputs": [],
      "stateMutability": "nonpayable",
      "type": "function"
    },
    {
      "inputs": [
        {
          "internalType": "address",
          "name": "newOwner",
          "type": "address"
        }
      ],
      "name": "transferOwnership",
      "outputs": [],
      "stateMutability": "nonpayable",
      "type": "function"
    }
  ],
  "bytecode": "0x608060405234801561001057600080fd5b506040518060400160405280600d81526020017f4d65726368616e74546f6b656e000000000000000000000000000000000000008152506040518060400160405280600481526020017f4c434d5400000000000000000000000000000000000000000000000000000000815250816000908161008c91906103e6565b50806001908161009c91906103e6565b5050506100bb6100b06100c860201b60201c565b6100d060201b60201c565b6001600b819055506104b8565b600033905090565b6000600a60009054906101000a900473ffffffffffffffffffffffffffffffffffffffff16905081600a60006101000a81548173ffffffffffffffffffffffffffffffffffffffff021916908373ffffffffffffffffffffffffffffffffffffffff1602179055508173ffffffffffffffffffffffffffffffffffffffff168173ffffffffffffffffffffffffffffffffffffffff167f8be0079c531659141344cd1fd0a4f28419497f9722a3daafe3b4186f6b6457e060405160405180910390a35050565b600081519050919050565b7f4e487b7100000000000000000000000000000000000000000000000000000000600052604160045260246000fd5b7f4e487b7100000000000000000000000000000000000000000000000000000000600052602260045260246000fd5b6000600282049050600182168061021757607f821691505b60208210810361022a576102296101d0565b5b50919050565b60008190508160005260206000209050919050565b60006020601f8301049050919050565b600082821b905092915050565b6000600883026102927fffffffffffffffffffffffffffffffffffffffffffffffffffffffffffffffff82610255565b61029c8683610255565b95508019841693508086168417925050509392505050565b6000819050919050565b6000819050919050565b60006102e36102de6102d9846102b4565b6102be565b6102b4565b9050919050565b6000819050919050565b6102fd836102c8565b610311610309826102ea565b848454610262565b825550505050565b600090565b610326610319565b6103318184846102f4565b505050565b5b818110156103555761034a60008261031e565b600181019050610337565b5050565b601f82111561039a5761036b81610230565b61037484610245565b81016020851015610383578190505b61039761038f85610245565b830182610336565b50505b505050565b600082821c905092915050565b60006103bd6000198460080261039f565b1980831691505092915050565b60006103d683836103ac565b9150826002028217905092915050565b6103ef82610196565b67ffffffffffffffff811115610408576104076101a1565b5b61041282546101ff565b61041d828285610359565b600060209050601f831160018114610450576000841561043e578287015190505b61044885826103ca565b8655506104b0565b601f19841661045e86610230565b60005b8281101561048657848901518255600182019150602085019450602081019050610461565b868310156104a3578489015161049f601f8916826103ac565b8355505b6001600288020188555050505b505050505050565b61353e806104c76000396000f3fe608060405234801561001057600080fd5b50600436106101735760003560e01c80636a627842116100de578063a22cb46511610097578063d082e38111610071578063d082e38114610470578063d9548e531461048e578063e985e9c5146104be578063f2fde38b146104ee57610173565b8063a22cb46514610408578063b88d4fde14610424578063c87b56dd1461044057610173565b80636a6278421461035857806370a0823114610374578063715018a6146103a45780638da5cb5b146103ae57806395d89b41146103cc5780639611562e146103ea57610173565b806318160ddd1161013057806318160ddd1461027257806323b872dd146102905780632f745c59146102ac57806342842e0e146102dc5780634f6ccce7146102f85780636352211e1461032857610173565b806301ffc9a71461017857806302556a29146101a857806306fdde03146101d8578063081812fc146101f6578063095ea7b31461022657806313c7260814610242575b600080fd5b610192600480360381019061018d91906123fc565b61050a565b60405161019f9190612444565b60405180910390f35b6101c260048036038101906101bd91906124bd565b61051c565b6040516101cf9190612444565b60405180910390f35b6101e0610588565b6040516101ed919061257a565b60405180910390f35b610210600480360381019061020b91906125d2565b61061a565b60405161021d919061260e565b60405180910390f35b610240600480360381019061023b9190612629565b610660565b005b61025c600480360381019061025791906125d2565b610777565b6040516102699190612678565b60405180910390f35b61027a6107dc565b6040516102879190612678565b60405180910390f35b6102aa60048036038101906102a59190612693565b6107e9565b005b6102c660048036038101906102c19190612629565b610849565b6040516102d39190612678565b60405180910390f35b6102f660048036038101906102f19190612693565b6108ee565b005b610312600480360381019061030d91906125d2565b61090e565b60405161031f9190612678565b60405180910390f35b610342600480360381019061033d91906125d2565b61097f565b60405161034f919061260e565b60405180910390f35b610372600480360381019061036d91906124bd565b610a05565b005b61038e600480360381019061038991906124bd565b610ab9565b60405161039b9190612678565b60405180910390f35b6103ac610b70565b005b6103b6610b84565b6040516103c3919061260e565b60405180910390f35b6103d4610bae565b6040516103e1919061257a565b60405180910390f35b6103f2610c40565b6040516103ff9190612678565b60405180910390f35b610422600480360381019061041d9190612712565b610c48565b005b61043e60048036038101906104399190612887565b610c5e565b005b61045a600480360381019061045591906125d2565b610cc0565b604051610467919061257a565b60405180910390f35b610478610d28565b6040516104859190612678565b60405180910390f35b6104a860048036038101906104a391906125d2565b610d2e565b6040516104b59190612444565b60405180910390f35b6104d860048036038101906104d3919061290a565b610d95565b6040516104e59190612444565b60405180910390f35b610508600480360381019061050391906124bd565b610e29565b005b600061051582610eac565b9050919050565b60008061052883610ab9565b90506000810361053c576000915050610583565b60005b8181101561057c5760006105538583610849565b905061055e81610d2e565b61056e5760019350505050610583565b50808060010191505061053f565b5060009150505b919050565b60606000805461059790612979565b80601f01602080910402602001604051908101604052809291908181526020018280546105c390612979565b80156106105780601f106105e557610100808354040283529160200191610610565b820191906000526020600020905b8154815290600101906020018083116105f357829003601f168201915b5050505050905090565b600061062582610f26565b6004600083815260200190815260200160002060009054906101000a900473ffffffffffffffffffffffffffffffffffffffff169050919050565b600061066b8261097f565b90508073ffffffffffffffffffffffffffffffffffffffff168373ffffffffffffffffffffffffffffffffffffffff16036106db576040517f08c379a00000000000000000000000000000000000000000000000000000000081526004016106d290612a1c565b60405180910390fd5b8073ffffffffffffffffffffffffffffffffffffffff166106fa610f71565b73ffffffffffffffffffffffffffffffffffffffff161480610729575061072881610723610f71565b610d95565b5b610768576040517f08c379a000000000000000000000000000000000000000000000000000000000815260040161075f90612aae565b60405180910390fd5b6107728383610f79565b505050565b600061078282611032565b6107c1576040517f08c379a00000000000000000000000000000000000000000000000000000000081526004016107b890612b1a565b60405180910390fd5b600c6000838152602001908152602001600020549050919050565b6000600880549050905090565b6107fa6107f4610f71565b82611073565b610839576040517f08c379a000000000000000000000000000000000000000000000000000000000815260040161083090612bac565b60405180910390fd5b610844838383611108565b505050565b600061085483610ab9565b8210610895576040517f08c379a000000000000000000000000000000000000000000000000000000000815260040161088c90612c3e565b60405180910390fd5b600660008473ffffffffffffffffffffffffffffffffffffffff1673ffffffffffffffffffffffffffffffffffffffff168152602001908152602001600020600083815260200190815260200160002054905092915050565b61090983838360405180602001604052806000815250610c5e565b505050565b60006109186107dc565b8210610959576040517f08c379a000000000000000000000000000000000000000000000000000000000815260040161095090612cd0565b60405180910390fd5b6008828154811061096d5761096c612cf0565b5b90600052602060002001549050919050565b60008061098b83611401565b9050600073ffffffffffffffffffffffffffffffffffffffff168173ffffffffffffffffffffffffffffffffffffffff16036109fc576040517f08c379a00000000000000000000000000000000000000000000000000000000081526004016109f390612d6b565b60405180910390fd5b80915050919050565b610a0d61143e565b6000600b5490506001600b6000828254610a279190612dba565b9250508190555060006301e1338042610a409190612dba565b905080600c600084815260200190815260200160002081905550610a6483836114bc565b8273ffffffffffffffffffffffffffffffffffffffff167f655ff37b06d138fc26fda07d435a40368e63b8d3cbd7835215334ff9e7fcd7828383604051610aac929190612dee565b60405180910390a2505050565b60008073ffffffffffffffffffffffffffffffffffffffff168273ffffffffffffffffffffffffffffffffffffffff1603610b29576040517f08c379a0000000000000000000000000000000000000000000000000000000008152600401610b2090612e89565b60405180910390fd5b600360008373ffffffffffffffffffffffffffffffffffffffff1673ffffffffffffffffffffffffffffffffffffffff168152602001908152602001600020549050919050565b610b7861143e565b610b8260006114da565b565b6000600a60009054906101000a900473ffffffffffffffffffffffffffffffffffffffff16905090565b606060018054610bbd90612979565b80601f0160208091040260200160405190810160405280929190818152602001828054610be990612979565b8015610c365780601f10610c0b57610100808354040283529160200191610c36565b820191906000526020600020905b815481529060010190602001808311610c1957829003601f168201915b5050505050905090565b6301e1338081565b610c5a610c53610f71565b83836115a0565b5050565b610c6f610c69610f71565b83611073565b610cae576040517f08c379a0000000000000000000000000000000000000000000000000000000008152600401610ca590612bac565b60405180910390fd5b610cba8484848461170c565b50505050565b6060610ccb82610f26565b6000610cd5611768565b90506000815111610cf55760405180602001604052806000815250610d20565b80610cff8461177f565b604051602001610d10929190612ee5565b6040516020818303038152906040525b915050919050565b600b5481565b6000610d3982611032565b610d78576040517f08c379a0000000000000000000000000000000000000000000000000000000008152600401610d6f90612b1a565b60405180910390fd5b600c60008381526020019081526020016000205442119050919050565b6000600560008473ffffffffffffffffffffffffffffffffffffffff1673ffffffffffffffffffffffffffffffffffffffff16815260200190815260200160002060008373ffffffffffffffffffffffffffffffffffffffff1673ffffffffffffffffffffffffffffffffffffffff16815260200190815260200160002060009054906101000a900460ff16905092915050565b610e3161143e565b600073ffffffffffffffffffffffffffffffffffffffff168173ffffffffffffffffffffffffffffffffffffffff1603610ea0576040517f08c379a0000000000000000000000000000000000000000000000000000000008152600401610e9790612f7b565b60405180910390fd5b610ea9816114da565b50565b60007f780e9d63000000000000000000000000000000000000000000000000000000007bffffffffffffffffffffffffffffffffffffffffffffffffffffffff1916827bffffffffffffffffffffffffffffffffffffffffffffffffffffffff19161480610f1f5750610f1e8261184d565b5b9050919050565b610f2f81611032565b610f6e576040517f08c379a0000000000000000000000000000000000000000000000000000000008152600401610f6590612d6b565b60405180910390fd5b50565b600033905090565b816004600083815260200190815260200160002060006101000a81548173ffffffffffffffffffffffffffffffffffffffff021916908373ffffffffffffffffffffffffffffffffffffffff160217905550808273ffffffffffffffffffffffffffffffffffffffff16610fec8361097f565b73ffffffffffffffffffffffffffffffffffffffff167f8c5be1e5ebec7d5bd14f71427d1e84f3dd0314c0f7b2291e5b200ac8c7c3b92560405160405180910390a45050565b60008073ffffffffffffffffffffffffffffffffffffffff1661105483611401565b73ffffffffffffffffffffffffffffffffffffffff1614159050919050565b60008061107f8361097f565b90508073ffffffffffffffffffffffffffffffffffffffff168473ffffffffffffffffffffffffffffffffffffffff1614806110c157506110c08185610d95565b5b806110ff57508373ffffffffffffffffffffffffffffffffffffffff166110e78461061a565b73ffffffffffffffffffffffffffffffffffffffff16145b91505092915050565b8273ffffffffffffffffffffffffffffffffffffffff166111288261097f565b73ffffffffffffffffffffffffffffffffffffffff161461117e576040517f08c379a00000000000000000000000000000000000000000000000000000000081526004016111759061300d565b60405180910390fd5b600073ffffffffffffffffffffffffffffffffffffffff168273ffffffffffffffffffffffffffffffffffffffff16036111ed576040517f08c379a00000000000000000000000000000000000000000000000000000000081526004016111e49061309f565b60405180910390fd5b6111fa838383600161192f565b8273ffffffffffffffffffffffffffffffffffffffff1661121a8261097f565b73ffffffffffffffffffffffffffffffffffffffff1614611270576040517f08c379a00000000000000000000000000000000000000000000000000000000081526004016112679061300d565b60405180910390fd5b6004600082815260200190815260200160002060006101000a81549073ffffffffffffffffffffffffffffffffffffffff02191690556001600360008573ffffffffffffffffffffffffffffffffffffffff1673ffffffffffffffffffffffffffffffffffffffff168152602001908152602001600020600082825403925050819055506001600360008473ffffffffffffffffffffffffffffffffffffffff1673ffffffffffffffffffffffffffffffffffffffff16815260200190815260200160002060008282540192505081905550816002600083815260200190815260200160002060006101000a81548173ffffffffffffffffffffffffffffffffffffffff021916908373ffffffffffffffffffffffffffffffffffffffff160217905550808273ffffffffffffffffffffffffffffffffffffffff168473ffffffffffffffffffffffffffffffffffffffff167fddf252ad1be2c89b69c2b068fc378daa952ba7f163c4a11628f55a4df523b3ef60405160405180910390a46113fc8383836001611941565b505050565b60006002600083815260200190815260200160002060009054906101000a900473ffffffffffffffffffffffffffffffffffffffff169050919050565b611446610f71565b73ffffffffffffffffffffffffffffffffffffffff16611464610b84565b73ffffffffffffffffffffffffffffffffffffffff16146114ba576040517f08c379a00000000000000000000000000000000000000000000000000000000081526004016114b19061310b565b60405180910390fd5b565b6114d6828260405180602001604052806000815250611947565b5050565b6000600a60009054906101000a900473ffffffffffffffffffffffffffffffffffffffff16905081600a60006101000a81548173ffffffffffffffffffffffffffffffffffffffff021916908373ffffffffffffffffffffffffffffffffffffffff1602179055508173ffffffffffffffffffffffffffffffffffffffff168173ffffffffffffffffffffffffffffffffffffffff167f8be0079c531659141344cd1fd0a4f28419497f9722a3daafe3b4186f6b6457e060405160405180910390a35050565b8173ffffffffffffffffffffffffffffffffffffffff168373ffffffffffffffffffffffffffffffffffffffff160361160e576040517f08c379a000000000000000000000000000000000000000000000000000000000815260040161160590613177565b60405180910390fd5b80600560008573ffffffffffffffffffffffffffffffffffffffff1673ffffffffffffffffffffffffffffffffffffffff16815260200190815260200160002060008473ffffffffffffffffffffffffffffffffffffffff1673ffffffffffffffffffffffffffffffffffffffff16815260200190815260200160002060006101000a81548160ff0219169083151502179055508173ffffffffffffffffffffffffffffffffffffffff168373ffffffffffffffffffffffffffffffffffffffff167f17307eab39ab6107e8899845ad3d59bd9653f200f220920489ca2b5937696c31836040516116ff9190612444565b60405180910390a3505050565b611717848484611108565b611723848484846119a2565b611762576040517f08c379a000000000000000000000000000000000000000000000000000000000815260040161175990613209565b60405180910390fd5b50505050565b606060405180602001604052806000815250905090565b60606000600161178e84611b29565b01905060008167ffffffffffffffff8111156117ad576117ac61275c565b5b6040519080825280601f01601f1916602001820160405280156117df5781602001600182028036833780820191505090505b509050600082602001820190505b600115611842578080600190039150507f3031323334353637383961626364656600000000000000000000000000000000600a86061a8153600a858161183657611835613229565b5b049450600085036117ed575b819350505050919050565b60007f80ac58cd000000000000000000000000000000000000000000000000000000007bffffffffffffffffffffffffffffffffffffffffffffffffffffffff1916827bffffffffffffffffffffffffffffffffffffffffffffffffffffffff1916148061191857507f5b5e139f000000000000000000000000000000000000000000000000000000007bffffffffffffffffffffffffffffffffffffffffffffffffffffffff1916827bffffffffffffffffffffffffffffffffffffffffffffffffffffffff1916145b80611928575061192782611c7c565b5b9050919050565b61193b84848484611ce6565b50505050565b50505050565b6119518383611e44565b61195e60008484846119a2565b61199d576040517f08c379a000000000000000000000000000000000000000000000000000000000815260040161199490613209565b60405180910390fd5b505050565b60006119c38473ffffffffffffffffffffffffffffffffffffffff16612061565b15611b1c578373ffffffffffffffffffffffffffffffffffffffff1663150b7a026119ec610f71565b8786866040518563ffffffff1660e01b8152600401611a0e94939291906132ad565b6020604051808303816000875af1925050508015611a4a57506040513d601f19601f82011682018060405250810190611a47919061330e565b60015b611acc573d8060008114611a7a576040519150601f19603f3d011682016040523d82523d6000602084013e611a7f565b606091505b506000815103611ac4576040517f08c379a0000000000000000000000000000000000000000000000000000000008152600401611abb90613209565b60405180910390fd5b805181602001fd5b63150b7a0260e01b7bffffffffffffffffffffffffffffffffffffffffffffffffffffffff1916817bffffffffffffffffffffffffffffffffffffffffffffffffffffffff191614915050611b21565b600190505b949350505050565b600080600090507a184f03e93ff9f4daa797ed6e38ed64bf6a1f0100000000000000008310611b87577a184f03e93ff9f4daa797ed6e38ed64bf6a1f0100000000000000008381611b7d57611b7c613229565b5b0492506040810190505b6d04ee2d6d415b85acef81000000008310611bc4576d04ee2d6d415b85acef81000000008381611bba57611bb9613229565b5b0492506020810190505b662386f26fc100008310611bf357662386f26fc100008381611be957611be8613229565b5b0492506010810190505b6305f5e1008310611c1c576305f5e1008381611c1257611c11613229565b5b0492506008810190505b6127108310611c41576127108381611c3757611c36613229565b5b0492506004810190505b60648310611c645760648381611c5a57611c59613229565b5b0492506002810190505b600a8310611c73576001810190505b80915050919050565b60007f01ffc9a7000000000000000000000000000000000000000000000000000000007bffffffffffffffffffffffffffffffffffffffffffffffffffffffff1916827bffffffffffffffffffffffffffffffffffffffffffffffffffffffff1916149050919050565b611cf284848484612084565b6001811115611d36576040517f08c379a0000000000000000000000000000000000000000000000000000000008152600401611d2d906133ad565b60405180910390fd5b6000829050600073ffffffffffffffffffffffffffffffffffffffff168573ffffffffffffffffffffffffffffffffffffffff1603611d7d57611d788161208a565b611dbc565b8373ffffffffffffffffffffffffffffffffffffffff168573ffffffffffffffffffffffffffffffffffffffff1614611dbb57611dba85826120d3565b5b5b600073ffffffffffffffffffffffffffffffffffffffff168473ffffffffffffffffffffffffffffffffffffffff1603611dfe57611df981612240565b611e3d565b8473ffffffffffffffffffffffffffffffffffffffff168473ffffffffffffffffffffffffffffffffffffffff1614611e3c57611e3b8482612311565b5b5b5050505050565b600073ffffffffffffffffffffffffffffffffffffffff168273ffffffffffffffffffffffffffffffffffffffff1603611eb3576040517f08c379a0000000000000000000000000000000000000000000000000000000008152600401611eaa90613419565b60405180910390fd5b611ebc81611032565b15611efc576040517f08c379a0000000000000000000000000000000000000000000000000000000008152600401611ef390613485565b60405180910390fd5b611f0a60008383600161192f565b611f1381611032565b15611f53576040517f08c379a0000000000000000000000000000000000000000000000000000000008152600401611f4a90613485565b60405180910390fd5b6001600360008473ffffffffffffffffffffffffffffffffffffffff1673ffffffffffffffffffffffffffffffffffffffff16815260200190815260200160002060008282540192505081905550816002600083815260200190815260200160002060006101000a81548173ffffffffffffffffffffffffffffffffffffffff021916908373ffffffffffffffffffffffffffffffffffffffff160217905550808273ffffffffffffffffffffffffffffffffffffffff16600073ffffffffffffffffffffffffffffffffffffffff167fddf252ad1be2c89b69c2b068fc378daa952ba7f163c4a11628f55a4df523b3ef60405160405180910390a461205d600083836001611941565b5050565b6000808273ffffffffffffffffffffffffffffffffffffffff163b119050919050565b50505050565b6008805490506009600083815260200190815260200160002081905550600881908060018154018082558091505060019003906000526020600020016000909190919091505550565b600060016120e084610ab9565b6120ea91906134a5565b90506000600760008481526020019081526020016000205490508181146121cf576000600660008673ffffffffffffffffffffffffffffffffffffffff1673ffffffffffffffffffffffffffffffffffffffff168152602001908152602001600020600084815260200190815260200160002054905080600660008773ffffffffffffffffffffffffffffffffffffffff1673ffffffffffffffffffffffffffffffffffffffff168152602001908152602001600020600084815260200190815260200160002081905550816007600083815260200190815260200160002081905550505b6007600084815260200190815260200160002060009055600660008573ffffffffffffffffffffffffffffffffffffffff1673ffffffffffffffffffffffffffffffffffffffff16815260200190815260200160002060008381526020019081526020016000206000905550505050565b6000600160088054905061225491906134a5565b905060006009600084815260200190815260200160002054905060006008838154811061228457612283612cf0565b5b9060005260206000200154905080600883815481106122a6576122a5612cf0565b5b9060005260206000200181905550816009600083815260200190815260200160002081905550600960008581526020019081526020016000206000905560088054806122f5576122f46134d9565b5b6001900381819060005260206000200160009055905550505050565b600061231c83610ab9565b905081600660008573ffffffffffffffffffffffffffffffffffffffff1673ffffffffffffffffffffffffffffffffffffffff168152602001908152602001600020600083815260200190815260200160002081905550806007600084815260200190815260200160002081905550505050565b6000604051905090565b600080fd5b600080fd5b60007fffffffff0000000000000000000000000000000000000000000000000000000082169050919050565b6123d9816123a4565b81146123e457600080fd5b50565b6000813590506123f6816123d0565b92915050565b6000602082840312156124125761241161239a565b5b6000612420848285016123e7565b91505092915050565b60008115159050919050565b61243e81612429565b82525050565b60006020820190506124596000830184612435565b92915050565b600073ffffffffffffffffffffffffffffffffffffffff82169050919050565b600061248a8261245f565b9050919050565b61249a8161247f565b81146124a557600080fd5b50565b6000813590506124b781612491565b92915050565b6000602082840312156124d3576124d261239a565b5b60006124e1848285016124a8565b91505092915050565b600081519050919050565b600082825260208201905092915050565b60005b83811015612524578082015181840152602081019050612509565b60008484015250505050565b6000601f19601f8301169050919050565b600061254c826124ea565b61255681856124f5565b9350612566818560208601612506565b61256f81612530565b840191505092915050565b600060208201905081810360008301526125948184612541565b905092915050565b6000819050919050565b6125af8161259c565b81146125ba57600080fd5b50565b6000813590506125cc816125a6565b92915050565b6000602082840312156125e8576125e761239a565b5b60006125f6848285016125bd565b91505092915050565b6126088161247f565b82525050565b600060208201905061262360008301846125ff565b92915050565b600080604083850312156126405761263f61239a565b5b600061264e858286016124a8565b925050602061265f858286016125bd565b9150509250929050565b6126728161259c565b82525050565b600060208201905061268d6000830184612669565b92915050565b6000806000606084860312156126ac576126ab61239a565b5b60006126ba868287016124a8565b93505060206126cb868287016124a8565b92505060406126dc868287016125bd565b9150509250925092565b6126ef81612429565b81146126fa57600080fd5b50565b60008135905061270c816126e6565b92915050565b600080604083850312156127295761272861239a565b5b6000612737858286016124a8565b9250506020612748858286016126fd565b9150509250929050565b600080fd5b600080fd5b7f4e487b7100000000000000000000000000000000000000000000000000000000600052604160045260246000fd5b61279482612530565b810181811067ffffffffffffffff821117156127b3576127b261275c565b5b80604052505050565b60006127c6612390565b90506127d2828261278b565b919050565b600067ffffffffffffffff8211156127f2576127f161275c565b5b6127fb82612530565b9050602081019050919050565b82818337600083830152505050565b600061282a612825846127d7565b6127bc565b90508281526020810184848401111561284657612845612757565b5b612851848285612808565b509392505050565b600082601f83011261286e5761286d612752565b5b813561287e848260208601612817565b91505092915050565b600080600080608085870312156128a1576128a061239a565b5b60006128af878288016124a8565b94505060206128c0878288016124a8565b93505060406128d1878288016125bd565b925050606085013567ffffffffffffffff8111156128f2576128f161239f565b5b6128fe87828801612859565b91505092959194509250565b600080604083850312156129215761292061239a565b5b600061292f858286016124a8565b9250506020612940858286016124a8565b9150509250929050565b7f4e487b7100000000000000000000000000000000000000000000000000000000600052602260045260246000fd5b6000600282049050600182168061299157607f821691505b6020821081036129a4576129a361294a565b5b50919050565b7f4552433732313a20617070726f76616c20746f2063757272656e74206f776e6560008201527f7200000000000000000000000000000000000000000000000000000000000000602082015250565b6000612a066021836124f5565b9150612a11826129aa565b604082019050919050565b60006020820190508181036000830152612a35816129f9565b9050919050565b7f4552433732313a20617070726f76652063616c6c6572206973206e6f7420746f60008201527f6b656e206f776e6572206f7220617070726f76656420666f7220616c6c000000602082015250565b6000612a98603d836124f5565b9150612aa382612a3c565b604082019050919050565b60006020820190508181036000830152612ac781612a8b565b9050919050565b7f546f6b656e20646f6573206e6f74206578697374000000000000000000000000600082015250565b6000612b046014836124f5565b9150612b0f82612ace565b602082019050919050565b60006020820190508181036000830152612b3381612af7565b9050919050565b7f4552433732313a2063616c6c6572206973206e6f7420746f6b656e206f776e6560008201527f72206f7220617070726f76656400000000000000000000000000000000000000602082015250565b6000612b96602d836124f5565b9150612ba182612b3a565b604082019050919050565b60006020820190508181036000830152612bc581612b89565b9050919050565b7f455243373231456e756d657261626c653a206f776e657220696e646578206f7560008201527f74206f6620626f756e6473000000000000000000000000000000000000000000602082015250565b6000612c28602b836124f5565b9150612c3382612bcc565b604082019050919050565b60006020820190508181036000830152612c5781612c1b565b9050919050565b7f455243373231456e756d657261626c653a20676c6f62616c20696e646578206f60008201527f7574206f6620626f756e64730000000000000000000000000000000000000000602082015250565b6000612cba602c836124f5565b9150612cc582612c5e565b604082019050919050565b60006020820190508181036000830152612ce981612cad565b9050919050565b7f4e487b7100000000000000000000000000000000000000000000000000000000600052603260045260246000fd5b7f4552433732313a20696e76616c696420746f6b656e2049440000000000000000600082015250565b6000612d556018836124f5565b9150612d6082612d1f565b602082019050919050565b60006020820190508181036000830152612d8481612d48565b9050919050565b7f4e487b7100000000000000000000000000000000000000000000000000000000600052601160045260246000fd5b6000612dc58261259c565b9150612dd08361259c565b9250828201905080821115612de857612de7612d8b565b5b92915050565b6000604082019050612e036000830185612669565b612e106020830184612669565b9392505050565b7f4552433732313a2061646472657373207a65726f206973206e6f74206120766160008201527f6c6964206f776e65720000000000000000000000000000000000000000000000602082015250565b6000612e736029836124f5565b9150612e7e82612e17565b604082019050919050565b60006020820190508181036000830152612ea281612e66565b9050919050565b600081905092915050565b6000612ebf826124ea565b612ec98185612ea9565b9350612ed9818560208601612506565b80840191505092915050565b6000612ef18285612eb4565b9150612efd8284612eb4565b91508190509392505050565b7f4f776e61626c653a206e6577206f776e657220697320746865207a65726f206160008201527f6464726573730000000000000000000000000000000000000000000000000000602082015250565b6000612f656026836124f5565b9150612f7082612f09565b604082019050919050565b60006020820190508181036000830152612f9481612f58565b9050919050565b7f4552433732313a207472616e736665722066726f6d20696e636f72726563742060008201527f6f776e6572000000000000000000000000000000000000000000000000000000602082015250565b6000612ff76025836124f5565b915061300282612f9b565b604082019050919050565b6000602082019050818103600083015261302681612fea565b9050919050565b7f4552433732313a207472616e7366657220746f20746865207a65726f2061646460008201527f7265737300000000000000000000000000000000000000000000000000000000602082015250565b60006130896024836124f5565b91506130948261302d565b604082019050919050565b600060208201905081810360008301526130b88161307c565b9050919050565b7f4f776e61626c653a2063616c6c6572206973206e6f7420746865206f776e6572600082015250565b60006130f56020836124f5565b9150613100826130bf565b602082019050919050565b60006020820190508181036000830152613124816130e8565b9050919050565b7f4552433732313a20617070726f766520746f2063616c6c657200000000000000600082015250565b60006131616019836124f5565b915061316c8261312b565b602082019050919050565b6000602082019050818103600083015261319081613154565b9050919050565b7f4552433732313a207472616e7366657220746f206e6f6e20455243373231526560008201527f63656976657220696d706c656d656e7465720000000000000000000000000000602082015250565b60006131f36032836124f5565b91506131fe82613197565b604082019050919050565b60006020820190508181036000830152613222816131e6565b9050919050565b7f4e487b7100000000000000000000000000000000000000000000000000000000600052601260045260246000fd5b600081519050919050565b600082825260208201905092915050565b600061327f82613258565b6132898185613263565b9350613299818560208601612506565b6132a281612530565b840191505092915050565b60006080820190506132c260008301876125ff565b6132cf60208301866125ff565b6132dc6040830185612669565b81810360608301526132ee8184613274565b905095945050505050565b600081519050613308816123d0565b92915050565b6000602082840312156133245761332361239a565b5b6000613332848285016132f9565b91505092915050565b7f455243373231456e756d657261626c653a20636f6e736563757469766520747260008201527f616e7366657273206e6f7420737570706f727465640000000000000000000000602082015250565b60006133976035836124f5565b91506133a28261333b565b604082019050919050565b600060208201905081810360008301526133c68161338a565b9050919050565b7f4552433732313a206d696e7420746f20746865207a65726f2061646472657373600082015250565b60006134036020836124f5565b915061340e826133cd565b602082019050919050565b60006020820190508181036000830152613432816133f6565b9050919050565b7f4552433732313a20746f6b656e20616c7265616479206d696e74656400000000600082015250565b600061346f601c836124f5565b915061347a82613439565b602082019050919050565b6000602082019050818103600083015261349e81613462565b9050919050565b60006134b08261259c565b91506134bb8361259c565b92508282039050818111156134d3576134d2612d8b565b5b92915050565b7f4e487b7100000000000000000000000000000000000000000000000000000000600052603160045260246000fdfea26469706673582212202f0a72f34fba671f22acf37d52d43bfaa2d42b890d52bd1eaa581707ed5c777064736f6c634300081b0033",
  "linkReferences": {},
  "deployedLinkReferences": {}
}