{
  "_format": "hh-sol-artifact-1",
  "contractName": "MerchantToken",
  "sourceName": "contracts/MerchantToken.sol",
  "abi": [
    {
      "inputs": [],
      "stateMutability": "nonpayable",
      "type": "constructor"
    },
    {
      "anonymous": false,
      "inputs": [
        {
          "indexed": true,
          "internalType": "address",
          "name": "owner",
          "type": "address"
        },
        {
          "indexed": true,
          "internalType": "address",
          "name": "approved",
          "type": "address"
        },
        {
          "indexed": true,
          "internalType": "uint256",
          "name": "tokenId",
          "type": "uint256"
        }
      ],
      "name": "Approval",
      "type": "event"
    },
    {
      "anonymous": false,
      "inputs": [
        {
          "indexed": true,
          "internalType": "address",
          "name": "owner",
          "type": "address"
        },
        {
          "indexed": true,
          "internalType": "address",
          "name": "operator",
          "type": "address"
        },
        {
          "indexed": false,
          "internalType": "bool",
          "name": "approved",
          "type": "bool"
        }
      ],
      "name": "ApprovalForAll",
      "type": "event"
    },
    {
      "anonymous": false,
      "inputs": [
        {
          "indexed": false,
          "internalType": "uint256",
          "name": "tokenId",
          "type": "uint256"
        }
      ],
      "name": "MerchantTokenExpired",
      "type": "event"
    },
    {
      "anonymous": false,
      "inputs": [
        {
          "indexed": true,
          "internalType": "address",
          "name": "to",
          "type": "address"
        },
        {
          "indexed": false,
          "internalType": "uint256",
          "name": "tokenId",
          "type": "uint256"
        },
        {
          "indexed": false,
          "internalType": "uint256",
          "name": "expiryTime",
          "type": "uint256"
        }
      ],
      "name": "MerchantTokenMinted",
      "type": "event"
    },
    {
      "anonymous": false,
      "inputs": [
        {
          "indexed": false,
          "internalType": "uint256",
          "name": "tokenId",
          "type": "uint256"
        },
        {
          "indexed": false,
          "internalType": "uint256",
          "name": "newExpirationTimestamp",
          "type": "uint256"
        }
      ],
      "name": "MerchantTokenRenewed",
      "type": "event"
    },
    {
      "anonymous": false,
      "inputs": [
        {
          "indexed": true,
          "internalType": "address",
          "name": "previousOwner",
          "type": "address"
        },
        {
          "indexed": true,
          "internalType": "address",
          "name": "newOwner",
          "type": "address"
        }
      ],
      "name": "OwnershipTransferred",
      "type": "event"
    },
    {
      "anonymous": false,
      "inputs": [
        {
          "indexed": true,
          "internalType": "address",
          "name": "from",
          "type": "address"
        },
        {
          "indexed": true,
          "internalType": "address",
          "name": "to",
          "type": "address"
        },
        {
          "indexed": true,
          "internalType": "uint256",
          "name": "tokenId",
          "type": "uint256"
        }
      ],
      "name": "Transfer",
      "type": "event"
    },
    {
      "inputs": [],
      "name": "_tokenCounter",
      "outputs": [
        {
          "internalType": "uint256",
          "name": "",
          "type": "uint256"
        }
      ],
      "stateMutability": "view",
      "type": "function"
    },
    {
      "inputs": [
        {
          "internalType": "uint256",
          "name": "tokenId",
          "type": "uint256"
        },
        {
          "internalType": "uint256",
          "name": "additionalTime",
          "type": "uint256"
        }
      ],
      "name": "addExpirationTime",
      "outputs": [],
      "stateMutability": "nonpayable",
      "type": "function"
    },
    {
      "inputs": [
        {
          "internalType": "address",
          "name": "to",
          "type": "address"
        },
        {
          "internalType": "uint256",
          "name": "tokenId",
          "type": "uint256"
        }
      ],
      "name": "approve",
      "outputs": [],
      "stateMutability": "nonpayable",
      "type": "function"
    },
    {
      "inputs": [
        {
          "internalType": "address",
          "name": "owner",
          "type": "address"
        }
      ],
      "name": "balanceOf",
      "outputs": [
        {
          "internalType": "uint256",
          "name": "",
          "type": "uint256"
        }
      ],
      "stateMutability": "view",
      "type": "function"
    },
    {
      "inputs": [],
      "name": "burn",
      "outputs": [],
      "stateMutability": "nonpayable",
      "type": "function"
    },
    {
      "inputs": [
        {
          "internalType": "uint256",
          "name": "tokenId",
          "type": "uint256"
        }
      ],
      "name": "getApproved",
      "outputs": [
        {
          "internalType": "address",
          "name": "",
          "type": "address"
        }
      ],
      "stateMutability": "view",
      "type": "function"
    },
    {
      "inputs": [
        {
          "internalType": "uint256",
          "name": "tokenId",
          "type": "uint256"
        }
      ],
      "name": "getExpirationTimestamp",
      "outputs": [
        {
          "internalType": "uint256",
          "name": "",
          "type": "uint256"
        }
      ],
      "stateMutability": "view",
      "type": "function"
    },
    {
      "inputs": [
        {
          "internalType": "address",
          "name": "owner",
          "type": "address"
        }
      ],
      "name": "getTokenIdByOwner",
      "outputs": [
        {
          "internalType": "uint256",
          "name": "",
          "type": "uint256"
        }
      ],
      "stateMutability": "view",
      "type": "function"
    },
    {
      "inputs": [
        {
          "internalType": "address",
          "name": "user",
          "type": "address"
        }
      ],
      "name": "hasValidMerchantToken",
      "outputs": [
        {
          "internalType": "bool",
          "name": "",
          "type": "bool"
        }
      ],
      "stateMutability": "view",
      "type": "function"
    },
    {
      "inputs": [
        {
          "internalType": "uint256",
          "name": "tokenId",
          "type": "uint256"
        }
      ],
      "name": "invalidateToken",
      "outputs": [],
      "stateMutability": "nonpayable",
      "type": "function"
    },
    {
      "inputs": [
        {
          "internalType": "address",
          "name": "owner",
          "type": "address"
        },
        {
          "internalType": "address",
          "name": "operator",
          "type": "address"
        }
      ],
      "name": "isApprovedForAll",
      "outputs": [
        {
          "internalType": "bool",
          "name": "",
          "type": "bool"
        }
      ],
      "stateMutability": "view",
      "type": "function"
    },
    {
      "inputs": [
        {
          "internalType": "uint256",
          "name": "tokenId",
          "type": "uint256"
        }
      ],
      "name": "isExpired",
      "outputs": [
        {
          "internalType": "bool",
          "name": "",
          "type": "bool"
        }
      ],
      "stateMutability": "view",
      "type": "function"
    },
    {
      "inputs": [
        {
          "internalType": "address",
          "name": "to",
          "type": "address"
        },
        {
          "internalType": "uint256",
          "name": "expirationTimestamp",
          "type": "uint256"
        }
      ],
      "name": "mint",
      "outputs": [],
      "stateMutability": "nonpayable",
      "type": "function"
    },
    {
      "inputs": [],
      "name": "name",
      "outputs": [
        {
          "internalType": "string",
          "name": "",
          "type": "string"
        }
      ],
      "stateMutability": "view",
      "type": "function"
    },
    {
      "inputs": [],
      "name": "owner",
      "outputs": [
        {
          "internalType": "address",
          "name": "",
          "type": "address"
        }
      ],
      "stateMutability": "view",
      "type": "function"
    },
    {
      "inputs": [
        {
          "internalType": "uint256",
          "name": "tokenId",
          "type": "uint256"
        }
      ],
      "name": "ownerOf",
      "outputs": [
        {
          "internalType": "address",
          "name": "",
          "type": "address"
        }
      ],
      "stateMutability": "view",
      "type": "function"
    },
    {
      "inputs": [],
      "name": "renounceOwnership",
      "outputs": [],
      "stateMutability": "nonpayable",
      "type": "function"
    },
    {
      "inputs": [
        {
          "internalType": "address",
          "name": "from",
          "type": "address"
        },
        {
          "internalType": "address",
          "name": "to",
          "type": "address"
        },
        {
          "internalType": "uint256",
          "name": "tokenId",
          "type": "uint256"
        }
      ],
      "name": "safeTransferFrom",
      "outputs": [],
      "stateMutability": "nonpayable",
      "type": "function"
    },
    {
      "inputs": [
        {
          "internalType": "address",
          "name": "from",
          "type": "address"
        },
        {
          "internalType": "address",
          "name": "to",
          "type": "address"
        },
        {
          "internalType": "uint256",
          "name": "tokenId",
          "type": "uint256"
        },
        {
          "internalType": "bytes",
          "name": "data",
          "type": "bytes"
        }
      ],
      "name": "safeTransferFrom",
      "outputs": [],
      "stateMutability": "nonpayable",
      "type": "function"
    },
    {
      "inputs": [
        {
          "internalType": "address",
          "name": "operator",
          "type": "address"
        },
        {
          "internalType": "bool",
          "name": "approved",
          "type": "bool"
        }
      ],
      "name": "setApprovalForAll",
      "outputs": [],
      "stateMutability": "nonpayable",
      "type": "function"
    },
    {
      "inputs": [
        {
          "internalType": "bytes4",
          "name": "interfaceId",
          "type": "bytes4"
        }
      ],
      "name": "supportsInterface",
      "outputs": [
        {
          "internalType": "bool",
          "name": "",
          "type": "bool"
        }
      ],
      "stateMutability": "view",
      "type": "function"
    },
    {
      "inputs": [],
      "name": "symbol",
      "outputs": [
        {
          "internalType": "string",
          "name": "",
          "type": "string"
        }
      ],
      "stateMutability": "view",
      "type": "function"
    },
    {
      "inputs": [
        {
          "internalType": "uint256",
          "name": "tokenId",
          "type": "uint256"
        }
      ],
      "name": "tokenURI",
      "outputs": [
        {
          "internalType": "string",
          "name": "",
          "type": "string"
        }
      ],
      "stateMutability": "view",
      "type": "function"
    },
    {
      "inputs": [
        {
          "internalType": "address",
          "name": "from",
          "type": "address"
        },
        {
          "internalType": "address",
          "name": "to",
          "type": "address"
        },
        {
          "internalType": "uint256",
          "name": "tokenId",
          "type": "uint256"
        }
      ],
      "name": "transferFrom",
      "outputs": [],
      "stateMutability": "nonpayable",
      "type": "function"
    },
    {
      "inputs": [
        {
          "internalType": "address",
          "name": "newOwner",
          "type": "address"
        }
      ],
      "name": "transferOwnership",
      "outputs": [],
      "stateMutability": "nonpayable",
      "type": "function"
    }
  ],
  "bytecode": "0x608060405234801561001057600080fd5b506040518060400160405280601781526020017f4c6974746572636f696e4d65726368616e74546f6b656e0000000000000000008152506040518060400160405280600481526020017f4c584d5400000000000000000000000000000000000000000000000000000000815250816000908161008c91906103e6565b50806001908161009c91906103e6565b5050506100bb6100b06100c860201b60201c565b6100d060201b60201c565b60016007819055506104b8565b600033905090565b6000600660009054906101000a900473ffffffffffffffffffffffffffffffffffffffff16905081600660006101000a81548173ffffffffffffffffffffffffffffffffffffffff021916908373ffffffffffffffffffffffffffffffffffffffff1602179055508173ffffffffffffffffffffffffffffffffffffffff168173ffffffffffffffffffffffffffffffffffffffff167f8be0079c531659141344cd1fd0a4f28419497f9722a3daafe3b4186f6b6457e060405160405180910390a35050565b600081519050919050565b7f4e487b7100000000000000000000000000000000000000000000000000000000600052604160045260246000fd5b7f4e487b7100000000000000000000000000000000000000000000000000000000600052602260045260246000fd5b6000600282049050600182168061021757607f821691505b60208210810361022a576102296101d0565b5b50919050565b60008190508160005260206000209050919050565b60006020601f8301049050919050565b600082821b905092915050565b6000600883026102927fffffffffffffffffffffffffffffffffffffffffffffffffffffffffffffffff82610255565b61029c8683610255565b95508019841693508086168417925050509392505050565b6000819050919050565b6000819050919050565b60006102e36102de6102d9846102b4565b6102be565b6102b4565b9050919050565b6000819050919050565b6102fd836102c8565b610311610309826102ea565b848454610262565b825550505050565b600090565b610326610319565b6103318184846102f4565b505050565b5b818110156103555761034a60008261031e565b600181019050610337565b5050565b601f82111561039a5761036b81610230565b61037484610245565b81016020851015610383578190505b61039761038f85610245565b830182610336565b50505b505050565b600082821c905092915050565b60006103bd6000198460080261039f565b1980831691505092915050565b60006103d683836103ac565b9150826002028217905092915050565b6103ef82610196565b67ffffffffffffffff811115610408576104076101a1565b5b61041282546101ff565b61041d828285610359565b600060209050601f831160018114610450576000841561043e578287015190505b61044885826103ca565b8655506104b0565b601f19841661045e86610230565b60005b8281101561048657848901518255600182019150602085019450602081019050610461565b868310156104a3578489015161049f601f8916826103ac565b8355505b6001600288020188555050505b505050505050565b613888806104c76000396000f3fe608060405234801561001057600080fd5b50600436106101735760003560e01c806370a08231116100de578063b88d4fde11610097578063d9e5896e11610071578063d9e5896e14610434578063e985e9c514610464578063ea55763314610494578063f2fde38b146104c457610173565b8063b88d4fde146103b8578063c87b56dd146103d4578063d9548e531461040457610173565b806370a0823114610308578063715018a6146103385780638da5cb5b146103425780639230b2bc1461036057806395d89b411461037e578063a22cb4651461039c57610173565b8063393ed91a11610130578063393ed91a1461025e57806340c10f191461027a578063425604d61461029657806342842e0e146102b257806344df8e70146102ce5780636352211e146102d857610173565b806301ffc9a71461017857806302556a29146101a857806306fdde03146101d8578063081812fc146101f6578063095ea7b31461022657806323b872dd14610242575b600080fd5b610192600480360381019061018d9190612502565b6104e0565b60405161019f919061254a565b60405180910390f35b6101c260048036038101906101bd91906125c3565b6104f2565b6040516101cf919061254a565b60405180910390f35b6101e0610565565b6040516101ed9190612680565b60405180910390f35b610210600480360381019061020b91906126d8565b6105f7565b60405161021d9190612714565b60405180910390f35b610240600480360381019061023b919061272f565b61063d565b005b61025c6004803603810190610257919061276f565b610754565b005b610278600480360381019061027391906126d8565b6107b4565b005b610294600480360381019061028f919061272f565b6108ac565b005b6102b060048036038101906102ab91906127c2565b610a8c565b005b6102cc60048036038101906102c7919061276f565b610b99565b005b6102d6610bb9565b005b6102f260048036038101906102ed91906126d8565b610c4c565b6040516102ff9190612714565b60405180910390f35b610322600480360381019061031d91906125c3565b610cd2565b60405161032f9190612811565b60405180910390f35b610340610d89565b005b61034a610d9d565b6040516103579190612714565b60405180910390f35b610368610dc7565b6040516103759190612811565b60405180910390f35b610386610dcd565b6040516103939190612680565b60405180910390f35b6103b660048036038101906103b19190612858565b610e5f565b005b6103d260048036038101906103cd91906129cd565b610e75565b005b6103ee60048036038101906103e991906126d8565b610ed7565b6040516103fb9190612680565b60405180910390f35b61041e600480360381019061041991906126d8565b610f3f565b60405161042b919061254a565b60405180910390f35b61044e600480360381019061044991906126d8565b610fa6565b60405161045b9190612811565b60405180910390f35b61047e60048036038101906104799190612a50565b61100b565b60405161048b919061254a565b60405180910390f35b6104ae60048036038101906104a991906125c3565b61109f565b6040516104bb9190612811565b60405180910390f35b6104de60048036038101906104d991906125c3565b61119f565b005b60006104eb82611222565b9050919050565b600080600860008473ffffffffffffffffffffffffffffffffffffffff1673ffffffffffffffffffffffffffffffffffffffff168152602001908152602001600020549050600081148061054b575061054a81610f3f565b5b1561055a576000915050610560565b60019150505b919050565b60606000805461057490612abf565b80601f01602080910402602001604051908101604052809291908181526020018280546105a090612abf565b80156105ed5780601f106105c2576101008083540402835291602001916105ed565b820191906000526020600020905b8154815290600101906020018083116105d057829003601f168201915b5050505050905090565b600061060282611304565b6004600083815260200190815260200160002060009054906101000a900473ffffffffffffffffffffffffffffffffffffffff169050919050565b600061064882610c4c565b90508073ffffffffffffffffffffffffffffffffffffffff168373ffffffffffffffffffffffffffffffffffffffff16036106b8576040517f08c379a00000000000000000000000000000000000000000000000000000000081526004016106af90612b62565b60405180910390fd5b8073ffffffffffffffffffffffffffffffffffffffff166106d761134f565b73ffffffffffffffffffffffffffffffffffffffff16148061070657506107058161070061134f565b61100b565b5b610745576040517f08c379a000000000000000000000000000000000000000000000000000000000815260040161073c90612bf4565b60405180910390fd5b61074f8383611357565b505050565b61076561075f61134f565b82611410565b6107a4576040517f08c379a000000000000000000000000000000000000000000000000000000000815260040161079b90612c86565b60405180910390fd5b6107af8383836114a5565b505050565b6107bc61179e565b6107c58161181c565b610804576040517f08c379a00000000000000000000000000000000000000000000000000000000081526004016107fb90612cf2565b60405180910390fd5b61080d81610f3f565b1561084d576040517f08c379a000000000000000000000000000000000000000000000000000000000815260040161084490612d5e565b60405180910390fd5b610e104261085b9190612dad565b60096000838152602001908152602001600020819055507f754f3aa765fa1f221ea409fddea972deff6ce410d141d5cded4fc7ec690710c0816040516108a19190612811565b60405180910390a150565b6108b461179e565b600073ffffffffffffffffffffffffffffffffffffffff168273ffffffffffffffffffffffffffffffffffffffff1603610923576040517f08c379a000000000000000000000000000000000000000000000000000000000815260040161091a90612e2d565b60405180910390fd5b428111610965576040517f08c379a000000000000000000000000000000000000000000000000000000000815260040161095c90612ebf565b60405180910390fd5b600061097083610cd2565b146109b0576040517f08c379a00000000000000000000000000000000000000000000000000000000081526004016109a790612f2b565b60405180910390fd5b600060075490506001600760008282546109ca9190612f4b565b925050819055508160096000838152602001908152602001600020819055506109f3838261185d565b80600860008573ffffffffffffffffffffffffffffffffffffffff1673ffffffffffffffffffffffffffffffffffffffff168152602001908152602001600020819055508273ffffffffffffffffffffffffffffffffffffffff167f655ff37b06d138fc26fda07d435a40368e63b8d3cbd7835215334ff9e7fcd7828284604051610a7f929190612f7f565b60405180910390a2505050565b610a9461179e565b610a9d8261181c565b610adc576040517f08c379a0000000000000000000000000000000000000000000000000000000008152600401610ad390612cf2565b60405180910390fd5b60008111610b1f576040517f08c379a0000000000000000000000000000000000000000000000000000000008152600401610b169061301a565b60405180910390fd5b80600960008481526020019081526020016000206000828254610b429190612f4b565b925050819055507f0db48b23ad6f04f212b5fddef4017753a195535f0d61c4daa790b4f70f28c07f826009600085815260200190815260200160002054604051610b8d929190612f7f565b60405180910390a15050565b610bb483838360405180602001604052806000815250610e75565b505050565b6000600860003373ffffffffffffffffffffffffffffffffffffffff1673ffffffffffffffffffffffffffffffffffffffff16815260200190815260200160002054905060008103610c40576040517f08c379a0000000000000000000000000000000000000000000000000000000008152600401610c3790613086565b60405180910390fd5b610c498161187b565b50565b600080610c58836119c9565b9050600073ffffffffffffffffffffffffffffffffffffffff168173ffffffffffffffffffffffffffffffffffffffff1603610cc9576040517f08c379a0000000000000000000000000000000000000000000000000000000008152600401610cc0906130f2565b60405180910390fd5b80915050919050565b60008073ffffffffffffffffffffffffffffffffffffffff168273ffffffffffffffffffffffffffffffffffffffff1603610d42576040517f08c379a0000000000000000000000000000000000000000000000000000000008152600401610d3990613184565b60405180910390fd5b600360008373ffffffffffffffffffffffffffffffffffffffff1673ffffffffffffffffffffffffffffffffffffffff168152602001908152602001600020549050919050565b610d9161179e565b610d9b6000611a06565b565b6000600660009054906101000a900473ffffffffffffffffffffffffffffffffffffffff16905090565b60075481565b606060018054610ddc90612abf565b80601f0160208091040260200160405190810160405280929190818152602001828054610e0890612abf565b8015610e555780601f10610e2a57610100808354040283529160200191610e55565b820191906000526020600020905b815481529060010190602001808311610e3857829003601f168201915b5050505050905090565b610e71610e6a61134f565b8383611acc565b5050565b610e86610e8061134f565b83611410565b610ec5576040517f08c379a0000000000000000000000000000000000000000000000000000000008152600401610ebc90612c86565b60405180910390fd5b610ed184848484611c38565b50505050565b6060610ee282611304565b6000610eec611c94565b90506000815111610f0c5760405180602001604052806000815250610f37565b80610f1684611cab565b604051602001610f279291906131e0565b6040516020818303038152906040525b915050919050565b6000610f4a8261181c565b610f89576040517f08c379a0000000000000000000000000000000000000000000000000000000008152600401610f8090612cf2565b60405180910390fd5b600960008381526020019081526020016000205442119050919050565b6000610fb18261181c565b610ff0576040517f08c379a0000000000000000000000000000000000000000000000000000000008152600401610fe790612cf2565b60405180910390fd5b60096000838152602001908152602001600020549050919050565b6000600560008473ffffffffffffffffffffffffffffffffffffffff1673ffffffffffffffffffffffffffffffffffffffff16815260200190815260200160002060008373ffffffffffffffffffffffffffffffffffffffff1673ffffffffffffffffffffffffffffffffffffffff16815260200190815260200160002060009054906101000a900460ff16905092915050565b60008073ffffffffffffffffffffffffffffffffffffffff168273ffffffffffffffffffffffffffffffffffffffff160361110f576040517f08c379a000000000000000000000000000000000000000000000000000000000815260040161110690613250565b60405180910390fd5b6000600860008473ffffffffffffffffffffffffffffffffffffffff1673ffffffffffffffffffffffffffffffffffffffff16815260200190815260200160002054905060008103611196576040517f08c379a000000000000000000000000000000000000000000000000000000000815260040161118d906132bc565b60405180910390fd5b80915050919050565b6111a761179e565b600073ffffffffffffffffffffffffffffffffffffffff168173ffffffffffffffffffffffffffffffffffffffff1603611216576040517f08c379a000000000000000000000000000000000000000000000000000000000815260040161120d9061334e565b60405180910390fd5b61121f81611a06565b50565b60007f80ac58cd000000000000000000000000000000000000000000000000000000007bffffffffffffffffffffffffffffffffffffffffffffffffffffffff1916827bffffffffffffffffffffffffffffffffffffffffffffffffffffffff191614806112ed57507f5b5e139f000000000000000000000000000000000000000000000000000000007bffffffffffffffffffffffffffffffffffffffffffffffffffffffff1916827bffffffffffffffffffffffffffffffffffffffffffffffffffffffff1916145b806112fd57506112fc82611d79565b5b9050919050565b61130d8161181c565b61134c576040517f08c379a0000000000000000000000000000000000000000000000000000000008152600401611343906130f2565b60405180910390fd5b50565b600033905090565b816004600083815260200190815260200160002060006101000a81548173ffffffffffffffffffffffffffffffffffffffff021916908373ffffffffffffffffffffffffffffffffffffffff160217905550808273ffffffffffffffffffffffffffffffffffffffff166113ca83610c4c565b73ffffffffffffffffffffffffffffffffffffffff167f8c5be1e5ebec7d5bd14f71427d1e84f3dd0314c0f7b2291e5b200ac8c7c3b92560405160405180910390a45050565b60008061141c83610c4c565b90508073ffffffffffffffffffffffffffffffffffffffff168473ffffffffffffffffffffffffffffffffffffffff16148061145e575061145d818561100b565b5b8061149c57508373ffffffffffffffffffffffffffffffffffffffff16611484846105f7565b73ffffffffffffffffffffffffffffffffffffffff16145b91505092915050565b8273ffffffffffffffffffffffffffffffffffffffff166114c582610c4c565b73ffffffffffffffffffffffffffffffffffffffff161461151b576040517f08c379a0000000000000000000000000000000000000000000000000000000008152600401611512906133e0565b60405180910390fd5b600073ffffffffffffffffffffffffffffffffffffffff168273ffffffffffffffffffffffffffffffffffffffff160361158a576040517f08c379a000000000000000000000000000000000000000000000000000000000815260040161158190613472565b60405180910390fd5b6115978383836001611de3565b8273ffffffffffffffffffffffffffffffffffffffff166115b782610c4c565b73ffffffffffffffffffffffffffffffffffffffff161461160d576040517f08c379a0000000000000000000000000000000000000000000000000000000008152600401611604906133e0565b60405180910390fd5b6004600082815260200190815260200160002060006101000a81549073ffffffffffffffffffffffffffffffffffffffff02191690556001600360008573ffffffffffffffffffffffffffffffffffffffff1673ffffffffffffffffffffffffffffffffffffffff168152602001908152602001600020600082825403925050819055506001600360008473ffffffffffffffffffffffffffffffffffffffff1673ffffffffffffffffffffffffffffffffffffffff16815260200190815260200160002060008282540192505081905550816002600083815260200190815260200160002060006101000a81548173ffffffffffffffffffffffffffffffffffffffff021916908373ffffffffffffffffffffffffffffffffffffffff160217905550808273ffffffffffffffffffffffffffffffffffffffff168473ffffffffffffffffffffffffffffffffffffffff167fddf252ad1be2c89b69c2b068fc378daa952ba7f163c4a11628f55a4df523b3ef60405160405180910390a46117998383836001611f15565b505050565b6117a661134f565b73ffffffffffffffffffffffffffffffffffffffff166117c4610d9d565b73ffffffffffffffffffffffffffffffffffffffff161461181a576040517f08c379a0000000000000000000000000000000000000000000000000000000008152600401611811906134de565b60405180910390fd5b565b60008073ffffffffffffffffffffffffffffffffffffffff1661183e836119c9565b73ffffffffffffffffffffffffffffffffffffffff1614159050919050565b611877828260405180602001604052806000815250611f1b565b5050565b600061188682610c4c565b9050611896816000846001611de3565b61189f82610c4c565b90506004600083815260200190815260200160002060006101000a81549073ffffffffffffffffffffffffffffffffffffffff02191690556001600360008373ffffffffffffffffffffffffffffffffffffffff1673ffffffffffffffffffffffffffffffffffffffff168152602001908152602001600020600082825403925050819055506002600083815260200190815260200160002060006101000a81549073ffffffffffffffffffffffffffffffffffffffff021916905581600073ffffffffffffffffffffffffffffffffffffffff168273ffffffffffffffffffffffffffffffffffffffff167fddf252ad1be2c89b69c2b068fc378daa952ba7f163c4a11628f55a4df523b3ef60405160405180910390a46119c5816000846001611f15565b5050565b60006002600083815260200190815260200160002060009054906101000a900473ffffffffffffffffffffffffffffffffffffffff169050919050565b6000600660009054906101000a900473ffffffffffffffffffffffffffffffffffffffff16905081600660006101000a81548173ffffffffffffffffffffffffffffffffffffffff021916908373ffffffffffffffffffffffffffffffffffffffff1602179055508173ffffffffffffffffffffffffffffffffffffffff168173ffffffffffffffffffffffffffffffffffffffff167f8be0079c531659141344cd1fd0a4f28419497f9722a3daafe3b4186f6b6457e060405160405180910390a35050565b8173ffffffffffffffffffffffffffffffffffffffff168373ffffffffffffffffffffffffffffffffffffffff1603611b3a576040517f08c379a0000000000000000000000000000000000000000000000000000000008152600401611b319061354a565b60405180910390fd5b80600560008573ffffffffffffffffffffffffffffffffffffffff1673ffffffffffffffffffffffffffffffffffffffff16815260200190815260200160002060008473ffffffffffffffffffffffffffffffffffffffff1673ffffffffffffffffffffffffffffffffffffffff16815260200190815260200160002060006101000a81548160ff0219169083151502179055508173ffffffffffffffffffffffffffffffffffffffff168373ffffffffffffffffffffffffffffffffffffffff167f17307eab39ab6107e8899845ad3d59bd9653f200f220920489ca2b5937696c3183604051611c2b919061254a565b60405180910390a3505050565b611c438484846114a5565b611c4f84848484611f76565b611c8e576040517f08c379a0000000000000000000000000000000000000000000000000000000008152600401611c85906135dc565b60405180910390fd5b50505050565b606060405180602001604052806000815250905090565b606060006001611cba846120fd565b01905060008167ffffffffffffffff811115611cd957611cd86128a2565b5b6040519080825280601f01601f191660200182016040528015611d0b5781602001600182028036833780820191505090505b509050600082602001820190505b600115611d6e578080600190039150507f3031323334353637383961626364656600000000000000000000000000000000600a86061a8153600a8581611d6257611d616135fc565b5b04945060008503611d19575b819350505050919050565b60007f01ffc9a7000000000000000000000000000000000000000000000000000000007bffffffffffffffffffffffffffffffffffffffffffffffffffffffff1916827bffffffffffffffffffffffffffffffffffffffffffffffffffffffff1916149050919050565b611def84848484612250565b600073ffffffffffffffffffffffffffffffffffffffff168473ffffffffffffffffffffffffffffffffffffffff161480611e565750600073ffffffffffffffffffffffffffffffffffffffff168373ffffffffffffffffffffffffffffffffffffffff16145b611e95576040517f08c379a0000000000000000000000000000000000000000000000000000000008152600401611e8c90613677565b60405180910390fd5b600073ffffffffffffffffffffffffffffffffffffffff168473ffffffffffffffffffffffffffffffffffffffff1614611f0f576000600860008673ffffffffffffffffffffffffffffffffffffffff1673ffffffffffffffffffffffffffffffffffffffff168152602001908152602001600020819055505b50505050565b50505050565b611f258383612256565b611f326000848484611f76565b611f71576040517f08c379a0000000000000000000000000000000000000000000000000000000008152600401611f68906135dc565b60405180910390fd5b505050565b6000611f978473ffffffffffffffffffffffffffffffffffffffff16612473565b156120f0578373ffffffffffffffffffffffffffffffffffffffff1663150b7a02611fc061134f565b8786866040518563ffffffff1660e01b8152600401611fe294939291906136ec565b6020604051808303816000875af192505050801561201e57506040513d601f19601f8201168201806040525081019061201b919061374d565b60015b6120a0573d806000811461204e576040519150601f19603f3d011682016040523d82523d6000602084013e612053565b606091505b506000815103612098576040517f08c379a000000000000000000000000000000000000000000000000000000000815260040161208f906135dc565b60405180910390fd5b805181602001fd5b63150b7a0260e01b7bffffffffffffffffffffffffffffffffffffffffffffffffffffffff1916817bffffffffffffffffffffffffffffffffffffffffffffffffffffffff1916149150506120f5565b600190505b949350505050565b600080600090507a184f03e93ff9f4daa797ed6e38ed64bf6a1f010000000000000000831061215b577a184f03e93ff9f4daa797ed6e38ed64bf6a1f0100000000000000008381612151576121506135fc565b5b0492506040810190505b6d04ee2d6d415b85acef81000000008310612198576d04ee2d6d415b85acef8100000000838161218e5761218d6135fc565b5b0492506020810190505b662386f26fc1000083106121c757662386f26fc1000083816121bd576121bc6135fc565b5b0492506010810190505b6305f5e10083106121f0576305f5e10083816121e6576121e56135fc565b5b0492506008810190505b612710831061221557612710838161220b5761220a6135fc565b5b0492506004810190505b60648310612238576064838161222e5761222d6135fc565b5b0492506002810190505b600a8310612247576001810190505b80915050919050565b50505050565b600073ffffffffffffffffffffffffffffffffffffffff168273ffffffffffffffffffffffffffffffffffffffff16036122c5576040517f08c379a00000000000000000000000000000000000000000000000000000000081526004016122bc906137c6565b60405180910390fd5b6122ce8161181c565b1561230e576040517f08c379a000000000000000000000000000000000000000000000000000000000815260040161230590613832565b60405180910390fd5b61231c600083836001611de3565b6123258161181c565b15612365576040517f08c379a000000000000000000000000000000000000000000000000000000000815260040161235c90613832565b60405180910390fd5b6001600360008473ffffffffffffffffffffffffffffffffffffffff1673ffffffffffffffffffffffffffffffffffffffff16815260200190815260200160002060008282540192505081905550816002600083815260200190815260200160002060006101000a81548173ffffffffffffffffffffffffffffffffffffffff021916908373ffffffffffffffffffffffffffffffffffffffff160217905550808273ffffffffffffffffffffffffffffffffffffffff16600073ffffffffffffffffffffffffffffffffffffffff167fddf252ad1be2c89b69c2b068fc378daa952ba7f163c4a11628f55a4df523b3ef60405160405180910390a461246f600083836001611f15565b5050565b6000808273ffffffffffffffffffffffffffffffffffffffff163b119050919050565b6000604051905090565b600080fd5b600080fd5b60007fffffffff0000000000000000000000000000000000000000000000000000000082169050919050565b6124df816124aa565b81146124ea57600080fd5b50565b6000813590506124fc816124d6565b92915050565b600060208284031215612518576125176124a0565b5b6000612526848285016124ed565b91505092915050565b60008115159050919050565b6125448161252f565b82525050565b600060208201905061255f600083018461253b565b92915050565b600073ffffffffffffffffffffffffffffffffffffffff82169050919050565b600061259082612565565b9050919050565b6125a081612585565b81146125ab57600080fd5b50565b6000813590506125bd81612597565b92915050565b6000602082840312156125d9576125d86124a0565b5b60006125e7848285016125ae565b91505092915050565b600081519050919050565b600082825260208201905092915050565b60005b8381101561262a57808201518184015260208101905061260f565b60008484015250505050565b6000601f19601f8301169050919050565b6000612652826125f0565b61265c81856125fb565b935061266c81856020860161260c565b61267581612636565b840191505092915050565b6000602082019050818103600083015261269a8184612647565b905092915050565b6000819050919050565b6126b5816126a2565b81146126c057600080fd5b50565b6000813590506126d2816126ac565b92915050565b6000602082840312156126ee576126ed6124a0565b5b60006126fc848285016126c3565b91505092915050565b61270e81612585565b82525050565b60006020820190506127296000830184612705565b92915050565b60008060408385031215612746576127456124a0565b5b6000612754858286016125ae565b9250506020612765858286016126c3565b9150509250929050565b600080600060608486031215612788576127876124a0565b5b6000612796868287016125ae565b93505060206127a7868287016125ae565b92505060406127b8868287016126c3565b9150509250925092565b600080604083850312156127d9576127d86124a0565b5b60006127e7858286016126c3565b92505060206127f8858286016126c3565b9150509250929050565b61280b816126a2565b82525050565b60006020820190506128266000830184612802565b92915050565b6128358161252f565b811461284057600080fd5b50565b6000813590506128528161282c565b92915050565b6000806040838503121561286f5761286e6124a0565b5b600061287d858286016125ae565b925050602061288e85828601612843565b9150509250929050565b600080fd5b600080fd5b7f4e487b7100000000000000000000000000000000000000000000000000000000600052604160045260246000fd5b6128da82612636565b810181811067ffffffffffffffff821117156128f9576128f86128a2565b5b80604052505050565b600061290c612496565b905061291882826128d1565b919050565b600067ffffffffffffffff821115612938576129376128a2565b5b61294182612636565b9050602081019050919050565b82818337600083830152505050565b600061297061296b8461291d565b612902565b90508281526020810184848401111561298c5761298b61289d565b5b61299784828561294e565b509392505050565b600082601f8301126129b4576129b3612898565b5b81356129c484826020860161295d565b91505092915050565b600080600080608085870312156129e7576129e66124a0565b5b60006129f5878288016125ae565b9450506020612a06878288016125ae565b9350506040612a17878288016126c3565b925050606085013567ffffffffffffffff811115612a3857612a376124a5565b5b612a448782880161299f565b91505092959194509250565b60008060408385031215612a6757612a666124a0565b5b6000612a75858286016125ae565b9250506020612a86858286016125ae565b9150509250929050565b7f4e487b7100000000000000000000000000000000000000000000000000000000600052602260045260246000fd5b60006002820490506001821680612ad757607f821691505b602082108103612aea57612ae9612a90565b5b50919050565b7f4552433732313a20617070726f76616c20746f2063757272656e74206f776e6560008201527f7200000000000000000000000000000000000000000000000000000000000000602082015250565b6000612b4c6021836125fb565b9150612b5782612af0565b604082019050919050565b60006020820190508181036000830152612b7b81612b3f565b9050919050565b7f4552433732313a20617070726f76652063616c6c6572206973206e6f7420746f60008201527f6b656e206f776e6572206f7220617070726f76656420666f7220616c6c000000602082015250565b6000612bde603d836125fb565b9150612be982612b82565b604082019050919050565b60006020820190508181036000830152612c0d81612bd1565b9050919050565b7f4552433732313a2063616c6c6572206973206e6f7420746f6b656e206f776e6560008201527f72206f7220617070726f76656400000000000000000000000000000000000000602082015250565b6000612c70602d836125fb565b9150612c7b82612c14565b604082019050919050565b60006020820190508181036000830152612c9f81612c63565b9050919050565b7f546f6b656e20646f6573206e6f74206578697374000000000000000000000000600082015250565b6000612cdc6014836125fb565b9150612ce782612ca6565b602082019050919050565b60006020820190508181036000830152612d0b81612ccf565b9050919050565b7f546f6b656e20616c726561647920657870697265640000000000000000000000600082015250565b6000612d486015836125fb565b9150612d5382612d12565b602082019050919050565b60006020820190508181036000830152612d7781612d3b565b9050919050565b7f4e487b7100000000000000000000000000000000000000000000000000000000600052601160045260246000fd5b6000612db8826126a2565b9150612dc3836126a2565b9250828203905081811115612ddb57612dda612d7e565b5b92915050565b7f43616e6e6f74206d696e7420746f207a65726f20616464726573730000000000600082015250565b6000612e17601b836125fb565b9150612e2282612de1565b602082019050919050565b60006020820190508181036000830152612e4681612e0a565b9050919050565b7f45787069726174696f6e206d75737420626520696e207468652066757475726560008201527f2e00000000000000000000000000000000000000000000000000000000000000602082015250565b6000612ea96021836125fb565b9150612eb482612e4d565b604082019050919050565b60006020820190508181036000830152612ed881612e9c565b9050919050565b7f5573657220616c726561647920686173206120746f6b656e0000000000000000600082015250565b6000612f156018836125fb565b9150612f2082612edf565b602082019050919050565b60006020820190508181036000830152612f4481612f08565b9050919050565b6000612f56826126a2565b9150612f61836126a2565b9250828201905080821115612f7957612f78612d7e565b5b92915050565b6000604082019050612f946000830185612802565b612fa16020830184612802565b9392505050565b7f4164646974696f6e616c2074696d65206d75737420626520677265617465722060008201527f7468616e207a65726f0000000000000000000000000000000000000000000000602082015250565b60006130046029836125fb565b915061300f82612fa8565b604082019050919050565b6000602082019050818103600083015261303381612ff7565b9050919050565b7f596f7520646f206e6f74206f776e206120746f6b656e00000000000000000000600082015250565b60006130706016836125fb565b915061307b8261303a565b602082019050919050565b6000602082019050818103600083015261309f81613063565b9050919050565b7f4552433732313a20696e76616c696420746f6b656e2049440000000000000000600082015250565b60006130dc6018836125fb565b91506130e7826130a6565b602082019050919050565b6000602082019050818103600083015261310b816130cf565b9050919050565b7f4552433732313a2061646472657373207a65726f206973206e6f74206120766160008201527f6c6964206f776e65720000000000000000000000000000000000000000000000602082015250565b600061316e6029836125fb565b915061317982613112565b604082019050919050565b6000602082019050818103600083015261319d81613161565b9050919050565b600081905092915050565b60006131ba826125f0565b6131c481856131a4565b93506131d481856020860161260c565b80840191505092915050565b60006131ec82856131af565b91506131f882846131af565b91508190509392505050565b7f496e76616c696420616464726573730000000000000000000000000000000000600082015250565b600061323a600f836125fb565b915061324582613204565b602082019050919050565b600060208201905081810360008301526132698161322d565b9050919050565b7f4f776e657220646f6573206e6f742068617665206120746f6b656e0000000000600082015250565b60006132a6601b836125fb565b91506132b182613270565b602082019050919050565b600060208201905081810360008301526132d581613299565b9050919050565b7f4f776e61626c653a206e6577206f776e657220697320746865207a65726f206160008201527f6464726573730000000000000000000000000000000000000000000000000000602082015250565b60006133386026836125fb565b9150613343826132dc565b604082019050919050565b600060208201905081810360008301526133678161332b565b9050919050565b7f4552433732313a207472616e736665722066726f6d20696e636f72726563742060008201527f6f776e6572000000000000000000000000000000000000000000000000000000602082015250565b60006133ca6025836125fb565b91506133d58261336e565b604082019050919050565b600060208201905081810360008301526133f9816133bd565b9050919050565b7f4552433732313a207472616e7366657220746f20746865207a65726f2061646460008201527f7265737300000000000000000000000000000000000000000000000000000000602082015250565b600061345c6024836125fb565b915061346782613400565b604082019050919050565b6000602082019050818103600083015261348b8161344f565b9050919050565b7f4f776e61626c653a2063616c6c6572206973206e6f7420746865206f776e6572600082015250565b60006134c86020836125fb565b91506134d382613492565b602082019050919050565b600060208201905081810360008301526134f7816134bb565b9050919050565b7f4552433732313a20617070726f766520746f2063616c6c657200000000000000600082015250565b60006135346019836125fb565b915061353f826134fe565b602082019050919050565b6000602082019050818103600083015261356381613527565b9050919050565b7f4552433732313a207472616e7366657220746f206e6f6e20455243373231526560008201527f63656976657220696d706c656d656e7465720000000000000000000000000000602082015250565b60006135c66032836125fb565b91506135d18261356a565b604082019050919050565b600060208201905081810360008301526135f5816135b9565b9050919050565b7f4e487b7100000000000000000000000000000000000000000000000000000000600052601260045260246000fd5b7f5472616e7366657273206172652064697361626c656400000000000000000000600082015250565b60006136616016836125fb565b915061366c8261362b565b602082019050919050565b6000602082019050818103600083015261369081613654565b9050919050565b600081519050919050565b600082825260208201905092915050565b60006136be82613697565b6136c881856136a2565b93506136d881856020860161260c565b6136e181612636565b840191505092915050565b60006080820190506137016000830187612705565b61370e6020830186612705565b61371b6040830185612802565b818103606083015261372d81846136b3565b905095945050505050565b600081519050613747816124d6565b92915050565b600060208284031215613763576137626124a0565b5b600061377184828501613738565b91505092915050565b7f4552433732313a206d696e7420746f20746865207a65726f2061646472657373600082015250565b60006137b06020836125fb565b91506137bb8261377a565b602082019050919050565b600060208201905081810360008301526137df816137a3565b9050919050565b7f4552433732313a20746f6b656e20616c7265616479206d696e74656400000000600082015250565b600061381c601c836125fb565b9150613827826137e6565b602082019050919050565b6000602082019050818103600083015261384b8161380f565b905091905056fea264697066735822122007a24f5da6b97aefed6d85779d2009f9fc439ca0bdf800c620c58c9b58617d4a64736f6c634300081b0033",
  "linkReferences": {},
  "deployedLinkReferences": {}
}