{
  "_format": "hh-sol-artifact-1",
  "contractName": "MerchantToken",
  "sourceName": "contracts/MerchantToken.sol",
  "abi": [
    {
      "inputs": [],
      "stateMutability": "nonpayable",
      "type": "constructor"
    },
    {
      "anonymous": false,
      "inputs": [
        {
          "indexed": true,
          "internalType": "address",
          "name": "owner",
          "type": "address"
        },
        {
          "indexed": true,
          "internalType": "address",
          "name": "approved",
          "type": "address"
        },
        {
          "indexed": true,
          "internalType": "uint256",
          "name": "tokenId",
          "type": "uint256"
        }
      ],
      "name": "Approval",
      "type": "event"
    },
    {
      "anonymous": false,
      "inputs": [
        {
          "indexed": true,
          "internalType": "address",
          "name": "owner",
          "type": "address"
        },
        {
          "indexed": true,
          "internalType": "address",
          "name": "operator",
          "type": "address"
        },
        {
          "indexed": false,
          "internalType": "bool",
          "name": "approved",
          "type": "bool"
        }
      ],
      "name": "ApprovalForAll",
      "type": "event"
    },
    {
      "anonymous": false,
      "inputs": [
        {
          "indexed": false,
          "internalType": "uint256",
          "name": "tokenId",
          "type": "uint256"
        }
      ],
      "name": "MerchantTokenExpired",
      "type": "event"
    },
    {
      "anonymous": false,
      "inputs": [
        {
          "indexed": true,
          "internalType": "address",
          "name": "to",
          "type": "address"
        },
        {
          "indexed": false,
          "internalType": "uint256",
          "name": "tokenId",
          "type": "uint256"
        },
        {
          "indexed": false,
          "internalType": "uint256",
          "name": "expiryTime",
          "type": "uint256"
        }
      ],
      "name": "MerchantTokenMinted",
      "type": "event"
    },
    {
      "anonymous": false,
      "inputs": [
        {
          "indexed": false,
          "internalType": "uint256",
          "name": "tokenId",
          "type": "uint256"
        },
        {
          "indexed": false,
          "internalType": "uint256",
          "name": "newExpirationTimestamp",
          "type": "uint256"
        }
      ],
      "name": "MerchantTokenRenewed",
      "type": "event"
    },
    {
      "anonymous": false,
      "inputs": [
        {
          "indexed": true,
          "internalType": "address",
          "name": "previousOwner",
          "type": "address"
        },
        {
          "indexed": true,
          "internalType": "address",
          "name": "newOwner",
          "type": "address"
        }
      ],
      "name": "OwnershipTransferred",
      "type": "event"
    },
    {
      "anonymous": false,
      "inputs": [
        {
          "indexed": false,
          "internalType": "address",
          "name": "account",
          "type": "address"
        }
      ],
      "name": "Paused",
      "type": "event"
    },
    {
      "anonymous": false,
      "inputs": [
        {
          "indexed": true,
          "internalType": "address",
          "name": "from",
          "type": "address"
        },
        {
          "indexed": true,
          "internalType": "address",
          "name": "to",
          "type": "address"
        },
        {
          "indexed": true,
          "internalType": "uint256",
          "name": "tokenId",
          "type": "uint256"
        }
      ],
      "name": "Transfer",
      "type": "event"
    },
    {
      "anonymous": false,
      "inputs": [
        {
          "indexed": false,
          "internalType": "address",
          "name": "account",
          "type": "address"
        }
      ],
      "name": "Unpaused",
      "type": "event"
    },
    {
      "inputs": [
        {
          "internalType": "uint256",
          "name": "tokenId",
          "type": "uint256"
        },
        {
          "internalType": "uint256",
          "name": "additionalTime",
          "type": "uint256"
        }
      ],
      "name": "addExpirationTime",
      "outputs": [],
      "stateMutability": "nonpayable",
      "type": "function"
    },
    {
      "inputs": [
        {
          "internalType": "address",
          "name": "to",
          "type": "address"
        },
        {
          "internalType": "uint256",
          "name": "tokenId",
          "type": "uint256"
        }
      ],
      "name": "approve",
      "outputs": [],
      "stateMutability": "nonpayable",
      "type": "function"
    },
    {
      "inputs": [
        {
          "internalType": "address",
          "name": "owner",
          "type": "address"
        }
      ],
      "name": "balanceOf",
      "outputs": [
        {
          "internalType": "uint256",
          "name": "",
          "type": "uint256"
        }
      ],
      "stateMutability": "view",
      "type": "function"
    },
    {
      "inputs": [],
      "name": "burn",
      "outputs": [],
      "stateMutability": "nonpayable",
      "type": "function"
    },
    {
      "inputs": [
        {
          "internalType": "uint256",
          "name": "tokenId",
          "type": "uint256"
        }
      ],
      "name": "getApproved",
      "outputs": [
        {
          "internalType": "address",
          "name": "",
          "type": "address"
        }
      ],
      "stateMutability": "view",
      "type": "function"
    },
    {
      "inputs": [],
      "name": "getCurrentTokenId",
      "outputs": [
        {
          "internalType": "uint256",
          "name": "",
          "type": "uint256"
        }
      ],
      "stateMutability": "view",
      "type": "function"
    },
    {
      "inputs": [
        {
          "internalType": "uint256",
          "name": "tokenId",
          "type": "uint256"
        }
      ],
      "name": "getExpirationTimestamp",
      "outputs": [
        {
          "internalType": "uint256",
          "name": "",
          "type": "uint256"
        }
      ],
      "stateMutability": "view",
      "type": "function"
    },
    {
      "inputs": [
        {
          "internalType": "address",
          "name": "owner",
          "type": "address"
        }
      ],
      "name": "getTokenIdByOwner",
      "outputs": [
        {
          "internalType": "uint256",
          "name": "",
          "type": "uint256"
        }
      ],
      "stateMutability": "view",
      "type": "function"
    },
    {
      "inputs": [
        {
          "internalType": "address",
          "name": "user",
          "type": "address"
        }
      ],
      "name": "hasValidMerchantToken",
      "outputs": [
        {
          "internalType": "bool",
          "name": "",
          "type": "bool"
        }
      ],
      "stateMutability": "view",
      "type": "function"
    },
    {
      "inputs": [
        {
          "internalType": "uint256",
          "name": "tokenId",
          "type": "uint256"
        }
      ],
      "name": "invalidateToken",
      "outputs": [],
      "stateMutability": "nonpayable",
      "type": "function"
    },
    {
      "inputs": [
        {
          "internalType": "address",
          "name": "owner",
          "type": "address"
        },
        {
          "internalType": "address",
          "name": "operator",
          "type": "address"
        }
      ],
      "name": "isApprovedForAll",
      "outputs": [
        {
          "internalType": "bool",
          "name": "",
          "type": "bool"
        }
      ],
      "stateMutability": "view",
      "type": "function"
    },
    {
      "inputs": [
        {
          "internalType": "uint256",
          "name": "tokenId",
          "type": "uint256"
        }
      ],
      "name": "isExpired",
      "outputs": [
        {
          "internalType": "bool",
          "name": "",
          "type": "bool"
        }
      ],
      "stateMutability": "view",
      "type": "function"
    },
    {
      "inputs": [
        {
          "internalType": "address",
          "name": "to",
          "type": "address"
        },
        {
          "internalType": "uint256",
          "name": "expirationTimestamp",
          "type": "uint256"
        }
      ],
      "name": "mint",
      "outputs": [],
      "stateMutability": "nonpayable",
      "type": "function"
    },
    {
      "inputs": [],
      "name": "name",
      "outputs": [
        {
          "internalType": "string",
          "name": "",
          "type": "string"
        }
      ],
      "stateMutability": "view",
      "type": "function"
    },
    {
      "inputs": [],
      "name": "owner",
      "outputs": [
        {
          "internalType": "address",
          "name": "",
          "type": "address"
        }
      ],
      "stateMutability": "view",
      "type": "function"
    },
    {
      "inputs": [
        {
          "internalType": "uint256",
          "name": "tokenId",
          "type": "uint256"
        }
      ],
      "name": "ownerOf",
      "outputs": [
        {
          "internalType": "address",
          "name": "",
          "type": "address"
        }
      ],
      "stateMutability": "view",
      "type": "function"
    },
    {
      "inputs": [],
      "name": "pause",
      "outputs": [],
      "stateMutability": "nonpayable",
      "type": "function"
    },
    {
      "inputs": [],
      "name": "paused",
      "outputs": [
        {
          "internalType": "bool",
          "name": "",
          "type": "bool"
        }
      ],
      "stateMutability": "view",
      "type": "function"
    },
    {
      "inputs": [],
      "name": "renounceOwnership",
      "outputs": [],
      "stateMutability": "nonpayable",
      "type": "function"
    },
    {
      "inputs": [
        {
          "internalType": "address",
          "name": "from",
          "type": "address"
        },
        {
          "internalType": "address",
          "name": "to",
          "type": "address"
        },
        {
          "internalType": "uint256",
          "name": "tokenId",
          "type": "uint256"
        }
      ],
      "name": "safeTransferFrom",
      "outputs": [],
      "stateMutability": "nonpayable",
      "type": "function"
    },
    {
      "inputs": [
        {
          "internalType": "address",
          "name": "from",
          "type": "address"
        },
        {
          "internalType": "address",
          "name": "to",
          "type": "address"
        },
        {
          "internalType": "uint256",
          "name": "tokenId",
          "type": "uint256"
        },
        {
          "internalType": "bytes",
          "name": "data",
          "type": "bytes"
        }
      ],
      "name": "safeTransferFrom",
      "outputs": [],
      "stateMutability": "nonpayable",
      "type": "function"
    },
    {
      "inputs": [
        {
          "internalType": "address",
          "name": "operator",
          "type": "address"
        },
        {
          "internalType": "bool",
          "name": "approved",
          "type": "bool"
        }
      ],
      "name": "setApprovalForAll",
      "outputs": [],
      "stateMutability": "nonpayable",
      "type": "function"
    },
    {
      "inputs": [
        {
          "internalType": "bytes4",
          "name": "interfaceId",
          "type": "bytes4"
        }
      ],
      "name": "supportsInterface",
      "outputs": [
        {
          "internalType": "bool",
          "name": "",
          "type": "bool"
        }
      ],
      "stateMutability": "view",
      "type": "function"
    },
    {
      "inputs": [],
      "name": "symbol",
      "outputs": [
        {
          "internalType": "string",
          "name": "",
          "type": "string"
        }
      ],
      "stateMutability": "view",
      "type": "function"
    },
    {
      "inputs": [
        {
          "internalType": "uint256",
          "name": "tokenId",
          "type": "uint256"
        }
      ],
      "name": "tokenURI",
      "outputs": [
        {
          "internalType": "string",
          "name": "",
          "type": "string"
        }
      ],
      "stateMutability": "view",
      "type": "function"
    },
    {
      "inputs": [
        {
          "internalType": "address",
          "name": "from",
          "type": "address"
        },
        {
          "internalType": "address",
          "name": "to",
          "type": "address"
        },
        {
          "internalType": "uint256",
          "name": "tokenId",
          "type": "uint256"
        }
      ],
      "name": "transferFrom",
      "outputs": [],
      "stateMutability": "nonpayable",
      "type": "function"
    },
    {
      "inputs": [
        {
          "internalType": "address",
          "name": "newOwner",
          "type": "address"
        }
      ],
      "name": "transferOwnership",
      "outputs": [],
      "stateMutability": "nonpayable",
      "type": "function"
    },
    {
      "inputs": [],
      "name": "unpause",
      "outputs": [],
      "stateMutability": "nonpayable",
      "type": "function"
    }
  ],
  "bytecode": "0x608060405234801561001057600080fd5b506040518060400160405280601781526020017f4c6974746572636f696e4d65726368616e74546f6b656e0000000000000000008152506040518060400160405280600481526020017f4c584d5400000000000000000000000000000000000000000000000000000000815250816000908161008c91906103f9565b50806001908161009c91906103f9565b5050506100bb6100b06100db60201b60201c565b6100e360201b60201c565b6000600660146101000a81548160ff0219169083151502179055506104cb565b600033905090565b6000600660009054906101000a900473ffffffffffffffffffffffffffffffffffffffff16905081600660006101000a81548173ffffffffffffffffffffffffffffffffffffffff021916908373ffffffffffffffffffffffffffffffffffffffff1602179055508173ffffffffffffffffffffffffffffffffffffffff168173ffffffffffffffffffffffffffffffffffffffff167f8be0079c531659141344cd1fd0a4f28419497f9722a3daafe3b4186f6b6457e060405160405180910390a35050565b600081519050919050565b7f4e487b7100000000000000000000000000000000000000000000000000000000600052604160045260246000fd5b7f4e487b7100000000000000000000000000000000000000000000000000000000600052602260045260246000fd5b6000600282049050600182168061022a57607f821691505b60208210810361023d5761023c6101e3565b5b50919050565b60008190508160005260206000209050919050565b60006020601f8301049050919050565b600082821b905092915050565b6000600883026102a57fffffffffffffffffffffffffffffffffffffffffffffffffffffffffffffffff82610268565b6102af8683610268565b95508019841693508086168417925050509392505050565b6000819050919050565b6000819050919050565b60006102f66102f16102ec846102c7565b6102d1565b6102c7565b9050919050565b6000819050919050565b610310836102db565b61032461031c826102fd565b848454610275565b825550505050565b600090565b61033961032c565b610344818484610307565b505050565b5b818110156103685761035d600082610331565b60018101905061034a565b5050565b601f8211156103ad5761037e81610243565b61038784610258565b81016020851015610396578190505b6103aa6103a285610258565b830182610349565b50505b505050565b600082821c905092915050565b60006103d0600019846008026103b2565b1980831691505092915050565b60006103e983836103bf565b9150826002028217905092915050565b610402826101a9565b67ffffffffffffffff81111561041b5761041a6101b4565b5b6104258254610212565b61043082828561036c565b600060209050601f8311600181146104635760008415610451578287015190505b61045b85826103dd565b8655506104c3565b601f19841661047186610243565b60005b8281101561049957848901518255600182019150602085019450602081019050610474565b868310156104b657848901516104b2601f8916826103bf565b8355505b6001600288020188555050505b505050505050565b613bbd806104da6000396000f3fe608060405234801561001057600080fd5b50600436106101c45760003560e01c80636352211e116100f9578063b88d4fde11610097578063d9e5896e11610071578063d9e5896e146104b7578063e985e9c5146104e7578063ea55763314610517578063f2fde38b14610547576101c4565b8063b88d4fde1461043b578063c87b56dd14610457578063d9548e5314610487576101c4565b80638456cb59116100d35780638456cb59146103d95780638da5cb5b146103e357806395d89b4114610401578063a22cb4651461041f576101c4565b80636352211e1461036f57806370a082311461039f578063715018a6146103cf576101c4565b80633f4ba83a1161016657806342842e0e1161014057806342842e0e1461030d57806344df8e701461032957806356189236146103335780635c975abb14610351576101c4565b80633f4ba83a146102cb57806340c10f19146102d5578063425604d6146102f1576101c4565b8063081812fc116101a2578063081812fc14610247578063095ea7b31461027757806323b872dd14610293578063393ed91a146102af576101c4565b806301ffc9a7146101c957806302556a29146101f957806306fdde0314610229575b600080fd5b6101e360048036038101906101de919061275f565b610563565b6040516101f091906127a7565b60405180910390f35b610213600480360381019061020e9190612820565b610575565b60405161022091906127a7565b60405180910390f35b6102316105e8565b60405161023e91906128dd565b60405180910390f35b610261600480360381019061025c9190612935565b61067a565b60405161026e9190612971565b60405180910390f35b610291600480360381019061028c919061298c565b6106c0565b005b6102ad60048036038101906102a891906129cc565b6107d7565b005b6102c960048036038101906102c49190612935565b610837565b005b6102d3610937565b005b6102ef60048036038101906102ea919061298c565b610949565b005b61030b60048036038101906103069190612a1f565b610b28565b005b610327600480360381019061032291906129cc565b610c3d565b005b610331610c5d565b005b61033b610cf8565b6040516103489190612a6e565b60405180910390f35b610359610d09565b60405161036691906127a7565b60405180910390f35b61038960048036038101906103849190612935565b610d20565b6040516103969190612971565b60405180910390f35b6103b960048036038101906103b49190612820565b610da6565b6040516103c69190612a6e565b60405180910390f35b6103d7610e5d565b005b6103e1610e71565b005b6103eb610e83565b6040516103f89190612971565b60405180910390f35b610409610ead565b60405161041691906128dd565b60405180910390f35b61043960048036038101906104349190612ab5565b610f3f565b005b61045560048036038101906104509190612c2a565b610f55565b005b610471600480360381019061046c9190612935565b610fb7565b60405161047e91906128dd565b60405180910390f35b6104a1600480360381019061049c9190612935565b61101f565b6040516104ae91906127a7565b60405180910390f35b6104d160048036038101906104cc9190612935565b611086565b6040516104de9190612a6e565b60405180910390f35b61050160048036038101906104fc9190612cad565b6110eb565b60405161050e91906127a7565b60405180910390f35b610531600480360381019061052c9190612820565b61117f565b60405161053e9190612a6e565b60405180910390f35b610561600480360381019061055c9190612820565b61127f565b005b600061056e82611302565b9050919050565b600080600860008473ffffffffffffffffffffffffffffffffffffffff1673ffffffffffffffffffffffffffffffffffffffff16815260200190815260200160002054905060008114806105ce57506105cd8161101f565b5b156105dd5760009150506105e3565b60019150505b919050565b6060600080546105f790612d1c565b80601f016020809104026020016040519081016040528092919081815260200182805461062390612d1c565b80156106705780601f1061064557610100808354040283529160200191610670565b820191906000526020600020905b81548152906001019060200180831161065357829003601f168201915b5050505050905090565b6000610685826113e4565b6004600083815260200190815260200160002060009054906101000a900473ffffffffffffffffffffffffffffffffffffffff169050919050565b60006106cb82610d20565b90508073ffffffffffffffffffffffffffffffffffffffff168373ffffffffffffffffffffffffffffffffffffffff160361073b576040517f08c379a000000000000000000000000000000000000000000000000000000000815260040161073290612dbf565b60405180910390fd5b8073ffffffffffffffffffffffffffffffffffffffff1661075a61142f565b73ffffffffffffffffffffffffffffffffffffffff16148061078957506107888161078361142f565b6110eb565b5b6107c8576040517f08c379a00000000000000000000000000000000000000000000000000000000081526004016107bf90612e51565b60405180910390fd5b6107d28383611437565b505050565b6107e86107e261142f565b826114f0565b610827576040517f08c379a000000000000000000000000000000000000000000000000000000000815260040161081e90612ee3565b60405180910390fd5b610832838383611585565b505050565b61083f61187e565b6108476118fc565b61085081611946565b61088f576040517f08c379a000000000000000000000000000000000000000000000000000000000815260040161088690612f4f565b60405180910390fd5b6108988161101f565b156108d8576040517f08c379a00000000000000000000000000000000000000000000000000000000081526004016108cf90612fbb565b60405180910390fd5b610e10426108e6919061300a565b60096000838152602001908152602001600020819055507f754f3aa765fa1f221ea409fddea972deff6ce410d141d5cded4fc7ec690710c08160405161092c9190612a6e565b60405180910390a150565b61093f61187e565b610947611987565b565b61095161187e565b6109596118fc565b600073ffffffffffffffffffffffffffffffffffffffff168273ffffffffffffffffffffffffffffffffffffffff16036109c8576040517f08c379a00000000000000000000000000000000000000000000000000000000081526004016109bf9061308a565b60405180910390fd5b428111610a0a576040517f08c379a0000000000000000000000000000000000000000000000000000000008152600401610a019061311c565b60405180910390fd5b6000610a1583610da6565b14610a55576040517f08c379a0000000000000000000000000000000000000000000000000000000008152600401610a4c90613188565b60405180910390fd5b610a5f60076119ea565b6000610a6b6007611a00565b9050816009600083815260200190815260200160002081905550610a8f8382611a0e565b80600860008573ffffffffffffffffffffffffffffffffffffffff1673ffffffffffffffffffffffffffffffffffffffff168152602001908152602001600020819055508273ffffffffffffffffffffffffffffffffffffffff167f655ff37b06d138fc26fda07d435a40368e63b8d3cbd7835215334ff9e7fcd7828284604051610b1b9291906131a8565b60405180910390a2505050565b610b3061187e565b610b386118fc565b610b4182611946565b610b80576040517f08c379a0000000000000000000000000000000000000000000000000000000008152600401610b7790612f4f565b60405180910390fd5b60008111610bc3576040517f08c379a0000000000000000000000000000000000000000000000000000000008152600401610bba90613243565b60405180910390fd5b80600960008481526020019081526020016000206000828254610be69190613263565b925050819055507f0db48b23ad6f04f212b5fddef4017753a195535f0d61c4daa790b4f70f28c07f826009600085815260200190815260200160002054604051610c319291906131a8565b60405180910390a15050565b610c5883838360405180602001604052806000815250610f55565b505050565b610c656118fc565b6000600860003373ffffffffffffffffffffffffffffffffffffffff1673ffffffffffffffffffffffffffffffffffffffff16815260200190815260200160002054905060008103610cec576040517f08c379a0000000000000000000000000000000000000000000000000000000008152600401610ce3906132e3565b60405180910390fd5b610cf581611a2c565b50565b6000610d046007611a00565b905090565b6000600660149054906101000a900460ff16905090565b600080610d2c83611b7a565b9050600073ffffffffffffffffffffffffffffffffffffffff168173ffffffffffffffffffffffffffffffffffffffff1603610d9d576040517f08c379a0000000000000000000000000000000000000000000000000000000008152600401610d949061334f565b60405180910390fd5b80915050919050565b60008073ffffffffffffffffffffffffffffffffffffffff168273ffffffffffffffffffffffffffffffffffffffff1603610e16576040517f08c379a0000000000000000000000000000000000000000000000000000000008152600401610e0d906133e1565b60405180910390fd5b600360008373ffffffffffffffffffffffffffffffffffffffff1673ffffffffffffffffffffffffffffffffffffffff168152602001908152602001600020549050919050565b610e6561187e565b610e6f6000611bb7565b565b610e7961187e565b610e81611c7d565b565b6000600660009054906101000a900473ffffffffffffffffffffffffffffffffffffffff16905090565b606060018054610ebc90612d1c565b80601f0160208091040260200160405190810160405280929190818152602001828054610ee890612d1c565b8015610f355780601f10610f0a57610100808354040283529160200191610f35565b820191906000526020600020905b815481529060010190602001808311610f1857829003601f168201915b5050505050905090565b610f51610f4a61142f565b8383611ce0565b5050565b610f66610f6061142f565b836114f0565b610fa5576040517f08c379a0000000000000000000000000000000000000000000000000000000008152600401610f9c90612ee3565b60405180910390fd5b610fb184848484611e4c565b50505050565b6060610fc2826113e4565b6000610fcc611ea8565b90506000815111610fec5760405180602001604052806000815250611017565b80610ff684611ebf565b60405160200161100792919061343d565b6040516020818303038152906040525b915050919050565b600061102a82611946565b611069576040517f08c379a000000000000000000000000000000000000000000000000000000000815260040161106090612f4f565b60405180910390fd5b600960008381526020019081526020016000205442119050919050565b600061109182611946565b6110d0576040517f08c379a00000000000000000000000000000000000000000000000000000000081526004016110c790612f4f565b60405180910390fd5b60096000838152602001908152602001600020549050919050565b6000600560008473ffffffffffffffffffffffffffffffffffffffff1673ffffffffffffffffffffffffffffffffffffffff16815260200190815260200160002060008373ffffffffffffffffffffffffffffffffffffffff1673ffffffffffffffffffffffffffffffffffffffff16815260200190815260200160002060009054906101000a900460ff16905092915050565b60008073ffffffffffffffffffffffffffffffffffffffff168273ffffffffffffffffffffffffffffffffffffffff16036111ef576040517f08c379a00000000000000000000000000000000000000000000000000000000081526004016111e6906134ad565b60405180910390fd5b6000600860008473ffffffffffffffffffffffffffffffffffffffff1673ffffffffffffffffffffffffffffffffffffffff16815260200190815260200160002054905060008103611276576040517f08c379a000000000000000000000000000000000000000000000000000000000815260040161126d90613519565b60405180910390fd5b80915050919050565b61128761187e565b600073ffffffffffffffffffffffffffffffffffffffff168173ffffffffffffffffffffffffffffffffffffffff16036112f6576040517f08c379a00000000000000000000000000000000000000000000000000000000081526004016112ed906135ab565b60405180910390fd5b6112ff81611bb7565b50565b60007f80ac58cd000000000000000000000000000000000000000000000000000000007bffffffffffffffffffffffffffffffffffffffffffffffffffffffff1916827bffffffffffffffffffffffffffffffffffffffffffffffffffffffff191614806113cd57507f5b5e139f000000000000000000000000000000000000000000000000000000007bffffffffffffffffffffffffffffffffffffffffffffffffffffffff1916827bffffffffffffffffffffffffffffffffffffffffffffffffffffffff1916145b806113dd57506113dc82611f8d565b5b9050919050565b6113ed81611946565b61142c576040517f08c379a00000000000000000000000000000000000000000000000000000000081526004016114239061334f565b60405180910390fd5b50565b600033905090565b816004600083815260200190815260200160002060006101000a81548173ffffffffffffffffffffffffffffffffffffffff021916908373ffffffffffffffffffffffffffffffffffffffff160217905550808273ffffffffffffffffffffffffffffffffffffffff166114aa83610d20565b73ffffffffffffffffffffffffffffffffffffffff167f8c5be1e5ebec7d5bd14f71427d1e84f3dd0314c0f7b2291e5b200ac8c7c3b92560405160405180910390a45050565b6000806114fc83610d20565b90508073ffffffffffffffffffffffffffffffffffffffff168473ffffffffffffffffffffffffffffffffffffffff16148061153e575061153d81856110eb565b5b8061157c57508373ffffffffffffffffffffffffffffffffffffffff166115648461067a565b73ffffffffffffffffffffffffffffffffffffffff16145b91505092915050565b8273ffffffffffffffffffffffffffffffffffffffff166115a582610d20565b73ffffffffffffffffffffffffffffffffffffffff16146115fb576040517f08c379a00000000000000000000000000000000000000000000000000000000081526004016115f29061363d565b60405180910390fd5b600073ffffffffffffffffffffffffffffffffffffffff168273ffffffffffffffffffffffffffffffffffffffff160361166a576040517f08c379a0000000000000000000000000000000000000000000000000000000008152600401611661906136cf565b60405180910390fd5b6116778383836001611ff7565b8273ffffffffffffffffffffffffffffffffffffffff1661169782610d20565b73ffffffffffffffffffffffffffffffffffffffff16146116ed576040517f08c379a00000000000000000000000000000000000000000000000000000000081526004016116e49061363d565b60405180910390fd5b6004600082815260200190815260200160002060006101000a81549073ffffffffffffffffffffffffffffffffffffffff02191690556001600360008573ffffffffffffffffffffffffffffffffffffffff1673ffffffffffffffffffffffffffffffffffffffff168152602001908152602001600020600082825403925050819055506001600360008473ffffffffffffffffffffffffffffffffffffffff1673ffffffffffffffffffffffffffffffffffffffff16815260200190815260200160002060008282540192505081905550816002600083815260200190815260200160002060006101000a81548173ffffffffffffffffffffffffffffffffffffffff021916908373ffffffffffffffffffffffffffffffffffffffff160217905550808273ffffffffffffffffffffffffffffffffffffffff168473ffffffffffffffffffffffffffffffffffffffff167fddf252ad1be2c89b69c2b068fc378daa952ba7f163c4a11628f55a4df523b3ef60405160405180910390a46118798383836001612129565b505050565b61188661142f565b73ffffffffffffffffffffffffffffffffffffffff166118a4610e83565b73ffffffffffffffffffffffffffffffffffffffff16146118fa576040517f08c379a00000000000000000000000000000000000000000000000000000000081526004016118f19061373b565b60405180910390fd5b565b611904610d09565b15611944576040517f08c379a000000000000000000000000000000000000000000000000000000000815260040161193b906137a7565b60405180910390fd5b565b60008073ffffffffffffffffffffffffffffffffffffffff1661196883611b7a565b73ffffffffffffffffffffffffffffffffffffffff1614159050919050565b61198f61212f565b6000600660146101000a81548160ff0219169083151502179055507f5db9ee0a495bf2e6ff9c91a7834c1ba4fdd244a5e8aa4e537bd38aeae4b073aa6119d361142f565b6040516119e09190612971565b60405180910390a1565b6001816000016000828254019250508190555050565b600081600001549050919050565b611a28828260405180602001604052806000815250612178565b5050565b6000611a3782610d20565b9050611a47816000846001611ff7565b611a5082610d20565b90506004600083815260200190815260200160002060006101000a81549073ffffffffffffffffffffffffffffffffffffffff02191690556001600360008373ffffffffffffffffffffffffffffffffffffffff1673ffffffffffffffffffffffffffffffffffffffff168152602001908152602001600020600082825403925050819055506002600083815260200190815260200160002060006101000a81549073ffffffffffffffffffffffffffffffffffffffff021916905581600073ffffffffffffffffffffffffffffffffffffffff168273ffffffffffffffffffffffffffffffffffffffff167fddf252ad1be2c89b69c2b068fc378daa952ba7f163c4a11628f55a4df523b3ef60405160405180910390a4611b76816000846001612129565b5050565b60006002600083815260200190815260200160002060009054906101000a900473ffffffffffffffffffffffffffffffffffffffff169050919050565b6000600660009054906101000a900473ffffffffffffffffffffffffffffffffffffffff16905081600660006101000a81548173ffffffffffffffffffffffffffffffffffffffff021916908373ffffffffffffffffffffffffffffffffffffffff1602179055508173ffffffffffffffffffffffffffffffffffffffff168173ffffffffffffffffffffffffffffffffffffffff167f8be0079c531659141344cd1fd0a4f28419497f9722a3daafe3b4186f6b6457e060405160405180910390a35050565b611c856118fc565b6001600660146101000a81548160ff0219169083151502179055507f62e78cea01bee320cd4e420270b5ea74000d11b0c9f74754ebdbfc544b05a258611cc961142f565b604051611cd69190612971565b60405180910390a1565b8173ffffffffffffffffffffffffffffffffffffffff168373ffffffffffffffffffffffffffffffffffffffff1603611d4e576040517f08c379a0000000000000000000000000000000000000000000000000000000008152600401611d4590613813565b60405180910390fd5b80600560008573ffffffffffffffffffffffffffffffffffffffff1673ffffffffffffffffffffffffffffffffffffffff16815260200190815260200160002060008473ffffffffffffffffffffffffffffffffffffffff1673ffffffffffffffffffffffffffffffffffffffff16815260200190815260200160002060006101000a81548160ff0219169083151502179055508173ffffffffffffffffffffffffffffffffffffffff168373ffffffffffffffffffffffffffffffffffffffff167f17307eab39ab6107e8899845ad3d59bd9653f200f220920489ca2b5937696c3183604051611e3f91906127a7565b60405180910390a3505050565b611e57848484611585565b611e63848484846121d3565b611ea2576040517f08c379a0000000000000000000000000000000000000000000000000000000008152600401611e99906138a5565b60405180910390fd5b50505050565b606060405180602001604052806000815250905090565b606060006001611ece8461235a565b01905060008167ffffffffffffffff811115611eed57611eec612aff565b5b6040519080825280601f01601f191660200182016040528015611f1f5781602001600182028036833780820191505090505b509050600082602001820190505b600115611f82578080600190039150507f3031323334353637383961626364656600000000000000000000000000000000600a86061a8153600a8581611f7657611f756138c5565b5b04945060008503611f2d575b819350505050919050565b60007f01ffc9a7000000000000000000000000000000000000000000000000000000007bffffffffffffffffffffffffffffffffffffffffffffffffffffffff1916827bffffffffffffffffffffffffffffffffffffffffffffffffffffffff1916149050919050565b612003848484846124ad565b600073ffffffffffffffffffffffffffffffffffffffff168473ffffffffffffffffffffffffffffffffffffffff16148061206a5750600073ffffffffffffffffffffffffffffffffffffffff168373ffffffffffffffffffffffffffffffffffffffff16145b6120a9576040517f08c379a00000000000000000000000000000000000000000000000000000000081526004016120a090613940565b60405180910390fd5b600073ffffffffffffffffffffffffffffffffffffffff168473ffffffffffffffffffffffffffffffffffffffff1614612123576000600860008673ffffffffffffffffffffffffffffffffffffffff1673ffffffffffffffffffffffffffffffffffffffff168152602001908152602001600020819055505b50505050565b50505050565b612137610d09565b612176576040517f08c379a000000000000000000000000000000000000000000000000000000000815260040161216d906139ac565b60405180910390fd5b565b61218283836124b3565b61218f60008484846121d3565b6121ce576040517f08c379a00000000000000000000000000000000000000000000000000000000081526004016121c5906138a5565b60405180910390fd5b505050565b60006121f48473ffffffffffffffffffffffffffffffffffffffff166126d0565b1561234d578373ffffffffffffffffffffffffffffffffffffffff1663150b7a0261221d61142f565b8786866040518563ffffffff1660e01b815260040161223f9493929190613a21565b6020604051808303816000875af192505050801561227b57506040513d601f19601f820116820180604052508101906122789190613a82565b60015b6122fd573d80600081146122ab576040519150601f19603f3d011682016040523d82523d6000602084013e6122b0565b606091505b5060008151036122f5576040517f08c379a00000000000000000000000000000000000000000000000000000000081526004016122ec906138a5565b60405180910390fd5b805181602001fd5b63150b7a0260e01b7bffffffffffffffffffffffffffffffffffffffffffffffffffffffff1916817bffffffffffffffffffffffffffffffffffffffffffffffffffffffff191614915050612352565b600190505b949350505050565b600080600090507a184f03e93ff9f4daa797ed6e38ed64bf6a1f01000000000000000083106123b8577a184f03e93ff9f4daa797ed6e38ed64bf6a1f01000000000000000083816123ae576123ad6138c5565b5b0492506040810190505b6d04ee2d6d415b85acef810000000083106123f5576d04ee2d6d415b85acef810000000083816123eb576123ea6138c5565b5b0492506020810190505b662386f26fc10000831061242457662386f26fc10000838161241a576124196138c5565b5b0492506010810190505b6305f5e100831061244d576305f5e1008381612443576124426138c5565b5b0492506008810190505b6127108310612472576127108381612468576124676138c5565b5b0492506004810190505b60648310612495576064838161248b5761248a6138c5565b5b0492506002810190505b600a83106124a4576001810190505b80915050919050565b50505050565b600073ffffffffffffffffffffffffffffffffffffffff168273ffffffffffffffffffffffffffffffffffffffff1603612522576040517f08c379a000000000000000000000000000000000000000000000000000000000815260040161251990613afb565b60405180910390fd5b61252b81611946565b1561256b576040517f08c379a000000000000000000000000000000000000000000000000000000000815260040161256290613b67565b60405180910390fd5b612579600083836001611ff7565b61258281611946565b156125c2576040517f08c379a00000000000000000000000000000000000000000000000000000000081526004016125b990613b67565b60405180910390fd5b6001600360008473ffffffffffffffffffffffffffffffffffffffff1673ffffffffffffffffffffffffffffffffffffffff16815260200190815260200160002060008282540192505081905550816002600083815260200190815260200160002060006101000a81548173ffffffffffffffffffffffffffffffffffffffff021916908373ffffffffffffffffffffffffffffffffffffffff160217905550808273ffffffffffffffffffffffffffffffffffffffff16600073ffffffffffffffffffffffffffffffffffffffff167fddf252ad1be2c89b69c2b068fc378daa952ba7f163c4a11628f55a4df523b3ef60405160405180910390a46126cc600083836001612129565b5050565b6000808273ffffffffffffffffffffffffffffffffffffffff163b119050919050565b6000604051905090565b600080fd5b600080fd5b60007fffffffff0000000000000000000000000000000000000000000000000000000082169050919050565b61273c81612707565b811461274757600080fd5b50565b60008135905061275981612733565b92915050565b600060208284031215612775576127746126fd565b5b60006127838482850161274a565b91505092915050565b60008115159050919050565b6127a18161278c565b82525050565b60006020820190506127bc6000830184612798565b92915050565b600073ffffffffffffffffffffffffffffffffffffffff82169050919050565b60006127ed826127c2565b9050919050565b6127fd816127e2565b811461280857600080fd5b50565b60008135905061281a816127f4565b92915050565b600060208284031215612836576128356126fd565b5b60006128448482850161280b565b91505092915050565b600081519050919050565b600082825260208201905092915050565b60005b8381101561288757808201518184015260208101905061286c565b60008484015250505050565b6000601f19601f8301169050919050565b60006128af8261284d565b6128b98185612858565b93506128c9818560208601612869565b6128d281612893565b840191505092915050565b600060208201905081810360008301526128f781846128a4565b905092915050565b6000819050919050565b612912816128ff565b811461291d57600080fd5b50565b60008135905061292f81612909565b92915050565b60006020828403121561294b5761294a6126fd565b5b600061295984828501612920565b91505092915050565b61296b816127e2565b82525050565b60006020820190506129866000830184612962565b92915050565b600080604083850312156129a3576129a26126fd565b5b60006129b18582860161280b565b92505060206129c285828601612920565b9150509250929050565b6000806000606084860312156129e5576129e46126fd565b5b60006129f38682870161280b565b9350506020612a048682870161280b565b9250506040612a1586828701612920565b9150509250925092565b60008060408385031215612a3657612a356126fd565b5b6000612a4485828601612920565b9250506020612a5585828601612920565b9150509250929050565b612a68816128ff565b82525050565b6000602082019050612a836000830184612a5f565b92915050565b612a928161278c565b8114612a9d57600080fd5b50565b600081359050612aaf81612a89565b92915050565b60008060408385031215612acc57612acb6126fd565b5b6000612ada8582860161280b565b9250506020612aeb85828601612aa0565b9150509250929050565b600080fd5b600080fd5b7f4e487b7100000000000000000000000000000000000000000000000000000000600052604160045260246000fd5b612b3782612893565b810181811067ffffffffffffffff82111715612b5657612b55612aff565b5b80604052505050565b6000612b696126f3565b9050612b758282612b2e565b919050565b600067ffffffffffffffff821115612b9557612b94612aff565b5b612b9e82612893565b9050602081019050919050565b82818337600083830152505050565b6000612bcd612bc884612b7a565b612b5f565b905082815260208101848484011115612be957612be8612afa565b5b612bf4848285612bab565b509392505050565b600082601f830112612c1157612c10612af5565b5b8135612c21848260208601612bba565b91505092915050565b60008060008060808587031215612c4457612c436126fd565b5b6000612c528782880161280b565b9450506020612c638782880161280b565b9350506040612c7487828801612920565b925050606085013567ffffffffffffffff811115612c9557612c94612702565b5b612ca187828801612bfc565b91505092959194509250565b60008060408385031215612cc457612cc36126fd565b5b6000612cd28582860161280b565b9250506020612ce38582860161280b565b9150509250929050565b7f4e487b7100000000000000000000000000000000000000000000000000000000600052602260045260246000fd5b60006002820490506001821680612d3457607f821691505b602082108103612d4757612d46612ced565b5b50919050565b7f4552433732313a20617070726f76616c20746f2063757272656e74206f776e6560008201527f7200000000000000000000000000000000000000000000000000000000000000602082015250565b6000612da9602183612858565b9150612db482612d4d565b604082019050919050565b60006020820190508181036000830152612dd881612d9c565b9050919050565b7f4552433732313a20617070726f76652063616c6c6572206973206e6f7420746f60008201527f6b656e206f776e6572206f7220617070726f76656420666f7220616c6c000000602082015250565b6000612e3b603d83612858565b9150612e4682612ddf565b604082019050919050565b60006020820190508181036000830152612e6a81612e2e565b9050919050565b7f4552433732313a2063616c6c6572206973206e6f7420746f6b656e206f776e6560008201527f72206f7220617070726f76656400000000000000000000000000000000000000602082015250565b6000612ecd602d83612858565b9150612ed882612e71565b604082019050919050565b60006020820190508181036000830152612efc81612ec0565b9050919050565b7f546f6b656e20646f6573206e6f74206578697374000000000000000000000000600082015250565b6000612f39601483612858565b9150612f4482612f03565b602082019050919050565b60006020820190508181036000830152612f6881612f2c565b9050919050565b7f546f6b656e20616c726561647920657870697265640000000000000000000000600082015250565b6000612fa5601583612858565b9150612fb082612f6f565b602082019050919050565b60006020820190508181036000830152612fd481612f98565b9050919050565b7f4e487b7100000000000000000000000000000000000000000000000000000000600052601160045260246000fd5b6000613015826128ff565b9150613020836128ff565b925082820390508181111561303857613037612fdb565b5b92915050565b7f43616e6e6f74206d696e7420746f207a65726f20616464726573730000000000600082015250565b6000613074601b83612858565b915061307f8261303e565b602082019050919050565b600060208201905081810360008301526130a381613067565b9050919050565b7f45787069726174696f6e206d75737420626520696e207468652066757475726560008201527f2e00000000000000000000000000000000000000000000000000000000000000602082015250565b6000613106602183612858565b9150613111826130aa565b604082019050919050565b60006020820190508181036000830152613135816130f9565b9050919050565b7f5573657220616c726561647920686173206120746f6b656e0000000000000000600082015250565b6000613172601883612858565b915061317d8261313c565b602082019050919050565b600060208201905081810360008301526131a181613165565b9050919050565b60006040820190506131bd6000830185612a5f565b6131ca6020830184612a5f565b9392505050565b7f4164646974696f6e616c2074696d65206d75737420626520677265617465722060008201527f7468616e207a65726f0000000000000000000000000000000000000000000000602082015250565b600061322d602983612858565b9150613238826131d1565b604082019050919050565b6000602082019050818103600083015261325c81613220565b9050919050565b600061326e826128ff565b9150613279836128ff565b925082820190508082111561329157613290612fdb565b5b92915050565b7f596f7520646f206e6f74206f776e206120746f6b656e00000000000000000000600082015250565b60006132cd601683612858565b91506132d882613297565b602082019050919050565b600060208201905081810360008301526132fc816132c0565b9050919050565b7f4552433732313a20696e76616c696420746f6b656e2049440000000000000000600082015250565b6000613339601883612858565b915061334482613303565b602082019050919050565b600060208201905081810360008301526133688161332c565b9050919050565b7f4552433732313a2061646472657373207a65726f206973206e6f74206120766160008201527f6c6964206f776e65720000000000000000000000000000000000000000000000602082015250565b60006133cb602983612858565b91506133d68261336f565b604082019050919050565b600060208201905081810360008301526133fa816133be565b9050919050565b600081905092915050565b60006134178261284d565b6134218185613401565b9350613431818560208601612869565b80840191505092915050565b6000613449828561340c565b9150613455828461340c565b91508190509392505050565b7f496e76616c696420616464726573730000000000000000000000000000000000600082015250565b6000613497600f83612858565b91506134a282613461565b602082019050919050565b600060208201905081810360008301526134c68161348a565b9050919050565b7f4f776e657220646f6573206e6f742068617665206120746f6b656e0000000000600082015250565b6000613503601b83612858565b915061350e826134cd565b602082019050919050565b60006020820190508181036000830152613532816134f6565b9050919050565b7f4f776e61626c653a206e6577206f776e657220697320746865207a65726f206160008201527f6464726573730000000000000000000000000000000000000000000000000000602082015250565b6000613595602683612858565b91506135a082613539565b604082019050919050565b600060208201905081810360008301526135c481613588565b9050919050565b7f4552433732313a207472616e736665722066726f6d20696e636f72726563742060008201527f6f776e6572000000000000000000000000000000000000000000000000000000602082015250565b6000613627602583612858565b9150613632826135cb565b604082019050919050565b600060208201905081810360008301526136568161361a565b9050919050565b7f4552433732313a207472616e7366657220746f20746865207a65726f2061646460008201527f7265737300000000000000000000000000000000000000000000000000000000602082015250565b60006136b9602483612858565b91506136c48261365d565b604082019050919050565b600060208201905081810360008301526136e8816136ac565b9050919050565b7f4f776e61626c653a2063616c6c6572206973206e6f7420746865206f776e6572600082015250565b6000613725602083612858565b9150613730826136ef565b602082019050919050565b6000602082019050818103600083015261375481613718565b9050919050565b7f5061757361626c653a2070617573656400000000000000000000000000000000600082015250565b6000613791601083612858565b915061379c8261375b565b602082019050919050565b600060208201905081810360008301526137c081613784565b9050919050565b7f4552433732313a20617070726f766520746f2063616c6c657200000000000000600082015250565b60006137fd601983612858565b9150613808826137c7565b602082019050919050565b6000602082019050818103600083015261382c816137f0565b9050919050565b7f4552433732313a207472616e7366657220746f206e6f6e20455243373231526560008201527f63656976657220696d706c656d656e7465720000000000000000000000000000602082015250565b600061388f603283612858565b915061389a82613833565b604082019050919050565b600060208201905081810360008301526138be81613882565b9050919050565b7f4e487b7100000000000000000000000000000000000000000000000000000000600052601260045260246000fd5b7f5472616e7366657273206172652064697361626c656400000000000000000000600082015250565b600061392a601683612858565b9150613935826138f4565b602082019050919050565b600060208201905081810360008301526139598161391d565b9050919050565b7f5061757361626c653a206e6f7420706175736564000000000000000000000000600082015250565b6000613996601483612858565b91506139a182613960565b602082019050919050565b600060208201905081810360008301526139c581613989565b9050919050565b600081519050919050565b600082825260208201905092915050565b60006139f3826139cc565b6139fd81856139d7565b9350613a0d818560208601612869565b613a1681612893565b840191505092915050565b6000608082019050613a366000830187612962565b613a436020830186612962565b613a506040830185612a5f565b8181036060830152613a6281846139e8565b905095945050505050565b600081519050613a7c81612733565b92915050565b600060208284031215613a9857613a976126fd565b5b6000613aa684828501613a6d565b91505092915050565b7f4552433732313a206d696e7420746f20746865207a65726f2061646472657373600082015250565b6000613ae5602083612858565b9150613af082613aaf565b602082019050919050565b60006020820190508181036000830152613b1481613ad8565b9050919050565b7f4552433732313a20746f6b656e20616c7265616479206d696e74656400000000600082015250565b6000613b51601c83612858565b9150613b5c82613b1b565b602082019050919050565b60006020820190508181036000830152613b8081613b44565b905091905056fea2646970667358221220cac475b5b294b6c0e3a00afa7c5b6d899160e2f860b1883e54b1fa34ef00056f64736f6c634300081b0033",
  "linkReferences": {},
  "deployedLinkReferences": {}
}