{
  "_format": "hh-sol-artifact-1",
  "contractName": "Littercoin",
  "sourceName": "contracts/Littercoin.sol",
  "abi": [
    {
      "inputs": [
        {
          "internalType": "address",
          "name": "_priceFeed",
          "type": "address"
        }
      ],
      "stateMutability": "nonpayable",
      "type": "constructor"
    },
    {
      "inputs": [],
      "name": "InvalidShortString",
      "type": "error"
    },
    {
      "inputs": [
        {
          "internalType": "string",
          "name": "str",
          "type": "string"
        }
      ],
      "name": "StringTooLong",
      "type": "error"
    },
    {
      "anonymous": false,
      "inputs": [
        {
          "indexed": true,
          "internalType": "address",
          "name": "owner",
          "type": "address"
        },
        {
          "indexed": true,
          "internalType": "address",
          "name": "approved",
          "type": "address"
        },
        {
          "indexed": true,
          "internalType": "uint256",
          "name": "tokenId",
          "type": "uint256"
        }
      ],
      "name": "Approval",
      "type": "event"
    },
    {
      "anonymous": false,
      "inputs": [
        {
          "indexed": true,
          "internalType": "address",
          "name": "owner",
          "type": "address"
        },
        {
          "indexed": true,
          "internalType": "address",
          "name": "operator",
          "type": "address"
        },
        {
          "indexed": false,
          "internalType": "bool",
          "name": "approved",
          "type": "bool"
        }
      ],
      "name": "ApprovalForAll",
      "type": "event"
    },
    {
      "anonymous": false,
      "inputs": [
        {
          "indexed": true,
          "internalType": "address",
          "name": "user",
          "type": "address"
        },
        {
          "indexed": false,
          "internalType": "uint256",
          "name": "tokensToBurn",
          "type": "uint256"
        },
        {
          "indexed": false,
          "internalType": "uint256",
          "name": "ethAmount",
          "type": "uint256"
        }
      ],
      "name": "BurnLittercoin",
      "type": "event"
    },
    {
      "anonymous": false,
      "inputs": [],
      "name": "EIP712DomainChanged",
      "type": "event"
    },
    {
      "anonymous": false,
      "inputs": [
        {
          "indexed": true,
          "internalType": "address",
          "name": "user",
          "type": "address"
        },
        {
          "indexed": false,
          "internalType": "uint256",
          "name": "amount",
          "type": "uint256"
        }
      ],
      "name": "Mint",
      "type": "event"
    },
    {
      "anonymous": false,
      "inputs": [
        {
          "indexed": true,
          "internalType": "address",
          "name": "previousOwner",
          "type": "address"
        },
        {
          "indexed": true,
          "internalType": "address",
          "name": "newOwner",
          "type": "address"
        }
      ],
      "name": "OwnershipTransferred",
      "type": "event"
    },
    {
      "anonymous": false,
      "inputs": [
        {
          "indexed": false,
          "internalType": "address",
          "name": "account",
          "type": "address"
        }
      ],
      "name": "Paused",
      "type": "event"
    },
    {
      "anonymous": false,
      "inputs": [
        {
          "indexed": true,
          "internalType": "address",
          "name": "user",
          "type": "address"
        },
        {
          "indexed": false,
          "internalType": "uint256",
          "name": "rewardAmount",
          "type": "uint256"
        }
      ],
      "name": "Reward",
      "type": "event"
    },
    {
      "anonymous": false,
      "inputs": [
        {
          "indexed": true,
          "internalType": "address",
          "name": "from",
          "type": "address"
        },
        {
          "indexed": true,
          "internalType": "address",
          "name": "to",
          "type": "address"
        },
        {
          "indexed": true,
          "internalType": "uint256",
          "name": "tokenId",
          "type": "uint256"
        }
      ],
      "name": "Transfer",
      "type": "event"
    },
    {
      "anonymous": false,
      "inputs": [
        {
          "indexed": false,
          "internalType": "address",
          "name": "account",
          "type": "address"
        }
      ],
      "name": "Unpaused",
      "type": "event"
    },
    {
      "inputs": [],
      "name": "MAX_MINT_AMOUNT",
      "outputs": [
        {
          "internalType": "uint256",
          "name": "",
          "type": "uint256"
        }
      ],
      "stateMutability": "view",
      "type": "function"
    },
    {
      "inputs": [
        {
          "internalType": "address",
          "name": "to",
          "type": "address"
        },
        {
          "internalType": "uint256",
          "name": "tokenId",
          "type": "uint256"
        }
      ],
      "name": "approve",
      "outputs": [],
      "stateMutability": "nonpayable",
      "type": "function"
    },
    {
      "inputs": [
        {
          "internalType": "address",
          "name": "owner",
          "type": "address"
        }
      ],
      "name": "balanceOf",
      "outputs": [
        {
          "internalType": "uint256",
          "name": "",
          "type": "uint256"
        }
      ],
      "stateMutability": "view",
      "type": "function"
    },
    {
      "inputs": [
        {
          "internalType": "uint256[]",
          "name": "tokenIds",
          "type": "uint256[]"
        }
      ],
      "name": "burnLittercoin",
      "outputs": [],
      "stateMutability": "nonpayable",
      "type": "function"
    },
    {
      "inputs": [],
      "name": "eip712Domain",
      "outputs": [
        {
          "internalType": "bytes1",
          "name": "fields",
          "type": "bytes1"
        },
        {
          "internalType": "string",
          "name": "name",
          "type": "string"
        },
        {
          "internalType": "string",
          "name": "version",
          "type": "string"
        },
        {
          "internalType": "uint256",
          "name": "chainId",
          "type": "uint256"
        },
        {
          "internalType": "address",
          "name": "verifyingContract",
          "type": "address"
        },
        {
          "internalType": "bytes32",
          "name": "salt",
          "type": "bytes32"
        },
        {
          "internalType": "uint256[]",
          "name": "extensions",
          "type": "uint256[]"
        }
      ],
      "stateMutability": "view",
      "type": "function"
    },
    {
      "inputs": [
        {
          "internalType": "uint256",
          "name": "tokenId",
          "type": "uint256"
        }
      ],
      "name": "exists",
      "outputs": [
        {
          "internalType": "bool",
          "name": "",
          "type": "bool"
        }
      ],
      "stateMutability": "view",
      "type": "function"
    },
    {
      "inputs": [
        {
          "internalType": "uint256",
          "name": "tokenId",
          "type": "uint256"
        }
      ],
      "name": "getApproved",
      "outputs": [
        {
          "internalType": "address",
          "name": "",
          "type": "address"
        }
      ],
      "stateMutability": "view",
      "type": "function"
    },
    {
      "inputs": [],
      "name": "getCurrentTokenId",
      "outputs": [
        {
          "internalType": "uint256",
          "name": "",
          "type": "uint256"
        }
      ],
      "stateMutability": "view",
      "type": "function"
    },
    {
      "inputs": [],
      "name": "getMerchantTokenAddress",
      "outputs": [
        {
          "internalType": "address",
          "name": "",
          "type": "address"
        }
      ],
      "stateMutability": "view",
      "type": "function"
    },
    {
      "inputs": [],
      "name": "getRewardTokenAddress",
      "outputs": [
        {
          "internalType": "address",
          "name": "",
          "type": "address"
        }
      ],
      "stateMutability": "view",
      "type": "function"
    },
    {
      "inputs": [
        {
          "internalType": "address",
          "name": "owner",
          "type": "address"
        },
        {
          "internalType": "address",
          "name": "operator",
          "type": "address"
        }
      ],
      "name": "isApprovedForAll",
      "outputs": [
        {
          "internalType": "bool",
          "name": "",
          "type": "bool"
        }
      ],
      "stateMutability": "view",
      "type": "function"
    },
    {
      "inputs": [],
      "name": "merchantToken",
      "outputs": [
        {
          "internalType": "contract MerchantToken",
          "name": "",
          "type": "address"
        }
      ],
      "stateMutability": "view",
      "type": "function"
    },
    {
      "inputs": [
        {
          "internalType": "uint256",
          "name": "amount",
          "type": "uint256"
        },
        {
          "internalType": "uint256",
          "name": "nonce",
          "type": "uint256"
        },
        {
          "internalType": "uint256",
          "name": "expiry",
          "type": "uint256"
        },
        {
          "internalType": "bytes",
          "name": "signature",
          "type": "bytes"
        }
      ],
      "name": "mint",
      "outputs": [],
      "stateMutability": "nonpayable",
      "type": "function"
    },
    {
      "inputs": [],
      "name": "name",
      "outputs": [
        {
          "internalType": "string",
          "name": "",
          "type": "string"
        }
      ],
      "stateMutability": "view",
      "type": "function"
    },
    {
      "inputs": [],
      "name": "owner",
      "outputs": [
        {
          "internalType": "address",
          "name": "",
          "type": "address"
        }
      ],
      "stateMutability": "view",
      "type": "function"
    },
    {
      "inputs": [
        {
          "internalType": "uint256",
          "name": "tokenId",
          "type": "uint256"
        }
      ],
      "name": "ownerOf",
      "outputs": [
        {
          "internalType": "address",
          "name": "",
          "type": "address"
        }
      ],
      "stateMutability": "view",
      "type": "function"
    },
    {
      "inputs": [],
      "name": "pause",
      "outputs": [],
      "stateMutability": "nonpayable",
      "type": "function"
    },
    {
      "inputs": [],
      "name": "paused",
      "outputs": [
        {
          "internalType": "bool",
          "name": "",
          "type": "bool"
        }
      ],
      "stateMutability": "view",
      "type": "function"
    },
    {
      "inputs": [],
      "name": "renounceOwnership",
      "outputs": [],
      "stateMutability": "nonpayable",
      "type": "function"
    },
    {
      "inputs": [],
      "name": "rewardToken",
      "outputs": [
        {
          "internalType": "contract OLMRewardToken",
          "name": "",
          "type": "address"
        }
      ],
      "stateMutability": "view",
      "type": "function"
    },
    {
      "inputs": [
        {
          "internalType": "address",
          "name": "from",
          "type": "address"
        },
        {
          "internalType": "address",
          "name": "to",
          "type": "address"
        },
        {
          "internalType": "uint256",
          "name": "tokenId",
          "type": "uint256"
        }
      ],
      "name": "safeTransferFrom",
      "outputs": [],
      "stateMutability": "nonpayable",
      "type": "function"
    },
    {
      "inputs": [
        {
          "internalType": "address",
          "name": "from",
          "type": "address"
        },
        {
          "internalType": "address",
          "name": "to",
          "type": "address"
        },
        {
          "internalType": "uint256",
          "name": "tokenId",
          "type": "uint256"
        },
        {
          "internalType": "bytes",
          "name": "data",
          "type": "bytes"
        }
      ],
      "name": "safeTransferFrom",
      "outputs": [],
      "stateMutability": "nonpayable",
      "type": "function"
    },
    {
      "inputs": [
        {
          "internalType": "address",
          "name": "operator",
          "type": "address"
        },
        {
          "internalType": "bool",
          "name": "approved",
          "type": "bool"
        }
      ],
      "name": "setApprovalForAll",
      "outputs": [],
      "stateMutability": "nonpayable",
      "type": "function"
    },
    {
      "inputs": [
        {
          "internalType": "bytes4",
          "name": "interfaceId",
          "type": "bytes4"
        }
      ],
      "name": "supportsInterface",
      "outputs": [
        {
          "internalType": "bool",
          "name": "",
          "type": "bool"
        }
      ],
      "stateMutability": "view",
      "type": "function"
    },
    {
      "inputs": [],
      "name": "symbol",
      "outputs": [
        {
          "internalType": "string",
          "name": "",
          "type": "string"
        }
      ],
      "stateMutability": "view",
      "type": "function"
    },
    {
      "inputs": [
        {
          "internalType": "uint256",
          "name": "index",
          "type": "uint256"
        }
      ],
      "name": "tokenByIndex",
      "outputs": [
        {
          "internalType": "uint256",
          "name": "",
          "type": "uint256"
        }
      ],
      "stateMutability": "view",
      "type": "function"
    },
    {
      "inputs": [
        {
          "internalType": "address",
          "name": "owner",
          "type": "address"
        },
        {
          "internalType": "uint256",
          "name": "index",
          "type": "uint256"
        }
      ],
      "name": "tokenOfOwnerByIndex",
      "outputs": [
        {
          "internalType": "uint256",
          "name": "",
          "type": "uint256"
        }
      ],
      "stateMutability": "view",
      "type": "function"
    },
    {
      "inputs": [
        {
          "internalType": "uint256",
          "name": "",
          "type": "uint256"
        }
      ],
      "name": "tokenTransferred",
      "outputs": [
        {
          "internalType": "bool",
          "name": "",
          "type": "bool"
        }
      ],
      "stateMutability": "view",
      "type": "function"
    },
    {
      "inputs": [
        {
          "internalType": "uint256",
          "name": "tokenId",
          "type": "uint256"
        }
      ],
      "name": "tokenURI",
      "outputs": [
        {
          "internalType": "string",
          "name": "",
          "type": "string"
        }
      ],
      "stateMutability": "view",
      "type": "function"
    },
    {
      "inputs": [],
      "name": "totalSupply",
      "outputs": [
        {
          "internalType": "uint256",
          "name": "",
          "type": "uint256"
        }
      ],
      "stateMutability": "view",
      "type": "function"
    },
    {
      "inputs": [
        {
          "internalType": "address",
          "name": "from",
          "type": "address"
        },
        {
          "internalType": "address",
          "name": "to",
          "type": "address"
        },
        {
          "internalType": "uint256",
          "name": "tokenId",
          "type": "uint256"
        }
      ],
      "name": "transferFrom",
      "outputs": [],
      "stateMutability": "nonpayable",
      "type": "function"
    },
    {
      "inputs": [
        {
          "internalType": "address",
          "name": "newOwner",
          "type": "address"
        }
      ],
      "name": "transferOwnership",
      "outputs": [],
      "stateMutability": "nonpayable",
      "type": "function"
    },
    {
      "inputs": [],
      "name": "unpause",
      "outputs": [],
      "stateMutability": "nonpayable",
      "type": "function"
    },
    {
      "inputs": [
        {
          "internalType": "uint256",
          "name": "",
          "type": "uint256"
        }
      ],
      "name": "usedNonces",
      "outputs": [
        {
          "internalType": "bool",
          "name": "",
          "type": "bool"
        }
      ],
      "stateMutability": "view",
      "type": "function"
    },
    {
      "stateMutability": "payable",
      "type": "receive"
    }
  ],
  "bytecode": "0x61016060405234801561001157600080fd5b5060405161cbcc38038061cbcc833981810160405281019061003391906106b1565b6040518060400160405280600a81526020017f4c6974746572636f696e000000000000000000000000000000000000000000008152506040518060400160405280600181526020017f31000000000000000000000000000000000000000000000000000000000000008152506040518060400160405280600a81526020017f4c6974746572636f696e000000000000000000000000000000000000000000008152506040518060400160405280600781526020017f4c49545445525800000000000000000000000000000000000000000000000000815250816000908161011a919061092e565b50806001908161012a919061092e565b50505061014961013e61044960201b60201c565b61045160201b60201c565b6001600b819055506000600c60006101000a81548160ff021916908315150217905550610180600d8361051760201b90919060201c565b610120818152505061019c600e8261051760201b90919060201c565b6101408181525050818051906020012060e08181525050808051906020012061010081815250504660a081815250506101d961056760201b60201c565b608081815250503073ffffffffffffffffffffffffffffffffffffffff1660c08173ffffffffffffffffffffffffffffffffffffffff1681525050505060405161022290610634565b604051809103906000f08015801561023e573d6000803e3d6000fd5b50601260006101000a81548173ffffffffffffffffffffffffffffffffffffffff021916908373ffffffffffffffffffffffffffffffffffffffff160217905550601260009054906101000a900473ffffffffffffffffffffffffffffffffffffffff1673ffffffffffffffffffffffffffffffffffffffff1663f2fde38b306040518263ffffffff1660e01b81526004016102da9190610a0f565b600060405180830381600087803b1580156102f457600080fd5b505af1158015610308573d6000803e3d6000fd5b5050505060405161031890610641565b604051809103906000f080158015610334573d6000803e3d6000fd5b50601360006101000a81548173ffffffffffffffffffffffffffffffffffffffff021916908373ffffffffffffffffffffffffffffffffffffffff160217905550601360009054906101000a900473ffffffffffffffffffffffffffffffffffffffff1673ffffffffffffffffffffffffffffffffffffffff1663f2fde38b336040518263ffffffff1660e01b81526004016103d09190610a0f565b600060405180830381600087803b1580156103ea57600080fd5b505af11580156103fe573d6000803e3d6000fd5b5050505080601460006101000a81548173ffffffffffffffffffffffffffffffffffffffff021916908373ffffffffffffffffffffffffffffffffffffffff16021790555050610be3565b600033905090565b6000600a60009054906101000a900473ffffffffffffffffffffffffffffffffffffffff16905081600a60006101000a81548173ffffffffffffffffffffffffffffffffffffffff021916908373ffffffffffffffffffffffffffffffffffffffff1602179055508173ffffffffffffffffffffffffffffffffffffffff168173ffffffffffffffffffffffffffffffffffffffff167f8be0079c531659141344cd1fd0a4f28419497f9722a3daafe3b4186f6b6457e060405160405180910390a35050565b600060208351101561053957610532836105c260201b60201c565b9050610561565b826105498361062a60201b60201c565b6000019081610558919061092e565b5060ff60001b90505b92915050565b60007f8b73c3c69bb8fe3d512ecc4cf759cc79239f7b179b0ffacaa9a75d522b39400f60e0516101005146306040516020016105a7959493929190610a52565b60405160208183030381529060405280519060200120905090565b600080829050601f8151111561060f57826040517f305a27a90000000000000000000000000000000000000000000000000000000081526004016106069190610b2a565b60405180910390fd5b80518161061b90610b7c565b60001c1760001b915050919050565b6000819050919050565b611c9f80616df283390190565b61413b80618a9183390190565b600080fd5b600073ffffffffffffffffffffffffffffffffffffffff82169050919050565b600061067e82610653565b9050919050565b61068e81610673565b811461069957600080fd5b50565b6000815190506106ab81610685565b92915050565b6000602082840312156106c7576106c661064e565b5b60006106d58482850161069c565b91505092915050565b600081519050919050565b7f4e487b7100000000000000000000000000000000000000000000000000000000600052604160045260246000fd5b7f4e487b7100000000000000000000000000000000000000000000000000000000600052602260045260246000fd5b6000600282049050600182168061075f57607f821691505b60208210810361077257610771610718565b5b50919050565b60008190508160005260206000209050919050565b60006020601f8301049050919050565b600082821b905092915050565b6000600883026107da7fffffffffffffffffffffffffffffffffffffffffffffffffffffffffffffffff8261079d565b6107e4868361079d565b95508019841693508086168417925050509392505050565b6000819050919050565b6000819050919050565b600061082b610826610821846107fc565b610806565b6107fc565b9050919050565b6000819050919050565b61084583610810565b61085961085182610832565b8484546107aa565b825550505050565b600090565b61086e610861565b61087981848461083c565b505050565b5b8181101561089d57610892600082610866565b60018101905061087f565b5050565b601f8211156108e2576108b381610778565b6108bc8461078d565b810160208510156108cb578190505b6108df6108d78561078d565b83018261087e565b50505b505050565b600082821c905092915050565b6000610905600019846008026108e7565b1980831691505092915050565b600061091e83836108f4565b9150826002028217905092915050565b610937826106de565b67ffffffffffffffff8111156109505761094f6106e9565b5b61095a8254610747565b6109658282856108a1565b600060209050601f8311600181146109985760008415610986578287015190505b6109908582610912565b8655506109f8565b601f1984166109a686610778565b60005b828110156109ce578489015182556001820191506020850194506020810190506109a9565b868310156109eb57848901516109e7601f8916826108f4565b8355505b6001600288020188555050505b505050505050565b610a0981610673565b82525050565b6000602082019050610a246000830184610a00565b92915050565b6000819050919050565b610a3d81610a2a565b82525050565b610a4c816107fc565b82525050565b600060a082019050610a676000830188610a34565b610a746020830187610a34565b610a816040830186610a34565b610a8e6060830185610a43565b610a9b6080830184610a00565b9695505050505050565b600082825260208201905092915050565b60005b83811015610ad4578082015181840152602081019050610ab9565b60008484015250505050565b6000601f19601f8301169050919050565b6000610afc826106de565b610b068185610aa5565b9350610b16818560208601610ab6565b610b1f81610ae0565b840191505092915050565b60006020820190508181036000830152610b448184610af1565b905092915050565b600081519050919050565b6000819050602082019050919050565b6000610b738251610a2a565b80915050919050565b6000610b8782610b4c565b82610b9184610b57565b9050610b9c81610b67565b92506020821015610bdc57610bd77fffffffffffffffffffffffffffffffffffffffffffffffffffffffffffffffff8360200360080261079d565b831692505b5050919050565b60805160a05160c05160e0516101005161012051610140516161b5610c3d6000396000611828015260006117f401526000613dfc01526000613ddb015260006136440152600061369a015260006136c301526161b56000f3fe6080604052600436106101fd5760003560e01c806370a082311161010d57806399e117a0116100a0578063e985e9c51161006f578063e985e9c514610a6c578063ee876a6c14610aa9578063f2fde38b14610ae6578063f7c618c114610b0f578063fa9b701814610b3a5761052a565b806399e117a0146109b2578063a22cb465146109dd578063b88d4fde14610a06578063c87b56dd14610a2f5761052a565b806384b0196e116100dc57806384b0196e146109005780638c1a1f77146109315780638da5cb5b1461095c57806395d89b41146109875761052a565b806370a082311461086a578063715018a6146108a7578063744c0f93146108be5780638456cb59146108e95761052a565b80633f4ba83a116101905780634f6ccce71161015f5780634f6ccce71461075d578063561892361461079a5780635c975abb146107c55780636352211e146107f05780636717e41c1461082d5761052a565b80633f4ba83a146106b757806342842e0e146106ce5780634a9eee69146106f75780634f558e79146107205761052a565b806318160ddd116101cc57806318160ddd146105fd5780631edf9acd1461062857806323b872dd146106515780632f745c591461067a5761052a565b806301ffc9a71461052f57806306fdde031461056c578063081812fc14610597578063095ea7b3146105d45761052a565b3661052a5761020a610b65565b610212610bb4565b6000349050600080601460009054906101000a900473ffffffffffffffffffffffffffffffffffffffff1673ffffffffffffffffffffffffffffffffffffffff1663feaf968c6040518163ffffffff1660e01b815260040160a060405180830381865afa158015610287573d6000803e3d6000fd5b505050506040513d601f19601f820116820180604052508101906102ab9190613f0e565b50935050925050600082136102f5576040517f08c379a00000000000000000000000000000000000000000000000000000000081526004016102ec90613fe6565b60405180910390fd5b6008601460009054906101000a900473ffffffffffffffffffffffffffffffffffffffff1673ffffffffffffffffffffffffffffffffffffffff1663313ce5676040518163ffffffff1660e01b8152600401602060405180830381865afa158015610364573d6000803e3d6000fd5b505050506040513d601f19601f82011682018060405250810190610388919061403f565b60ff16146103cb576040517f08c379a00000000000000000000000000000000000000000000000000000000081526004016103c2906140b8565b60405180910390fd5b610e1081426103da9190614107565b1061041a576040517f08c379a000000000000000000000000000000000000000000000000000000000815260040161041190614187565b60405180910390fd5b600082905060006305f5e100828661043291906141a7565b61043c9190614218565b9050601260009054906101000a900473ffffffffffffffffffffffffffffffffffffffff1673ffffffffffffffffffffffffffffffffffffffff166340c10f1933836040518363ffffffff1660e01b815260040161049b929190614299565b600060405180830381600087803b1580156104b557600080fd5b505af11580156104c9573d6000803e3d6000fd5b505050503373ffffffffffffffffffffffffffffffffffffffff167f619caafabdd75649b302ba8419e48cccf64f37f1983ac4727cfb38b57703ffc98260405161051391906142c2565b60405180910390a25050505050610528610bfe565b005b600080fd5b34801561053b57600080fd5b5061055660048036038101906105519190614335565b610c08565b604051610563919061437d565b60405180910390f35b34801561057857600080fd5b50610581610c1a565b60405161058e9190614417565b60405180910390f35b3480156105a357600080fd5b506105be60048036038101906105b9919061444e565b610cac565b6040516105cb919061447b565b60405180910390f35b3480156105e057600080fd5b506105fb60048036038101906105f691906144c2565b610cf2565b005b34801561060957600080fd5b50610612610e09565b60405161061f91906142c2565b60405180910390f35b34801561063457600080fd5b5061064f600480360381019061064a9190614567565b610e16565b005b34801561065d57600080fd5b50610678600480360381019061067391906145b4565b611205565b005b34801561068657600080fd5b506106a1600480360381019061069c91906144c2565b611265565b6040516106ae91906142c2565b60405180910390f35b3480156106c357600080fd5b506106cc61130a565b005b3480156106da57600080fd5b506106f560048036038101906106f091906145b4565b61131c565b005b34801561070357600080fd5b5061071e60048036038101906107199190614737565b61133c565b005b34801561072c57600080fd5b506107476004803603810190610742919061444e565b611589565b604051610754919061437d565b60405180910390f35b34801561076957600080fd5b50610784600480360381019061077f919061444e565b61159b565b60405161079191906142c2565b60405180910390f35b3480156107a657600080fd5b506107af61160c565b6040516107bc91906142c2565b60405180910390f35b3480156107d157600080fd5b506107da61161d565b6040516107e7919061437d565b60405180910390f35b3480156107fc57600080fd5b506108176004803603810190610812919061444e565b611634565b604051610824919061447b565b60405180910390f35b34801561083957600080fd5b50610854600480360381019061084f919061444e565b6116ba565b604051610861919061437d565b60405180910390f35b34801561087657600080fd5b50610891600480360381019061088c91906147ba565b6116da565b60405161089e91906142c2565b60405180910390f35b3480156108b357600080fd5b506108bc611791565b005b3480156108ca57600080fd5b506108d36117a5565b6040516108e0919061447b565b60405180910390f35b3480156108f557600080fd5b506108fe6117cf565b005b34801561090c57600080fd5b506109156117e1565b60405161092897969594939291906148f9565b60405180910390f35b34801561093d57600080fd5b506109466118e3565b60405161095391906149dc565b60405180910390f35b34801561096857600080fd5b50610971611909565b60405161097e919061447b565b60405180910390f35b34801561099357600080fd5b5061099c611933565b6040516109a99190614417565b60405180910390f35b3480156109be57600080fd5b506109c76119c5565b6040516109d4919061447b565b60405180910390f35b3480156109e957600080fd5b50610a0460048036038101906109ff9190614a23565b6119ef565b005b348015610a1257600080fd5b50610a2d6004803603810190610a289190614a63565b611a05565b005b348015610a3b57600080fd5b50610a566004803603810190610a51919061444e565b611a67565b604051610a639190614417565b60405180910390f35b348015610a7857600080fd5b50610a936004803603810190610a8e9190614ae6565b611acf565b604051610aa0919061437d565b60405180910390f35b348015610ab557600080fd5b50610ad06004803603810190610acb919061444e565b611b63565b604051610add919061437d565b60405180910390f35b348015610af257600080fd5b50610b0d6004803603810190610b0891906147ba565b611b83565b005b348015610b1b57600080fd5b50610b24611c06565b604051610b319190614b47565b60405180910390f35b348015610b4657600080fd5b50610b4f611c2c565b604051610b5c91906142c2565b60405180910390f35b6002600b5403610baa576040517f08c379a0000000000000000000000000000000000000000000000000000000008152600401610ba190614bae565b60405180910390fd5b6002600b81905550565b610bbc61161d565b15610bfc576040517f08c379a0000000000000000000000000000000000000000000000000000000008152600401610bf390614c1a565b60405180910390fd5b565b6001600b81905550565b6000610c1382611c31565b9050919050565b606060008054610c2990614c69565b80601f0160208091040260200160405190810160405280929190818152602001828054610c5590614c69565b8015610ca25780601f10610c7757610100808354040283529160200191610ca2565b820191906000526020600020905b815481529060010190602001808311610c8557829003601f168201915b5050505050905090565b6000610cb782611cab565b6004600083815260200190815260200160002060009054906101000a900473ffffffffffffffffffffffffffffffffffffffff169050919050565b6000610cfd82611634565b90508073ffffffffffffffffffffffffffffffffffffffff168373ffffffffffffffffffffffffffffffffffffffff1603610d6d576040517f08c379a0000000000000000000000000000000000000000000000000000000008152600401610d6490614d0c565b60405180910390fd5b8073ffffffffffffffffffffffffffffffffffffffff16610d8c611cf6565b73ffffffffffffffffffffffffffffffffffffffff161480610dbb5750610dba81610db5611cf6565b611acf565b5b610dfa576040517f08c379a0000000000000000000000000000000000000000000000000000000008152600401610df190614d9e565b60405180910390fd5b610e048383611cfe565b505050565b6000600880549050905090565b610e1e610b65565b610e26610bb4565b601360009054906101000a900473ffffffffffffffffffffffffffffffffffffffff1673ffffffffffffffffffffffffffffffffffffffff1663952e5cb4336040518263ffffffff1660e01b8152600401610e81919061447b565b602060405180830381865afa158015610e9e573d6000803e3d6000fd5b505050506040513d601f19601f82011682018060405250810190610ec29190614dd3565b610f01576040517f08c379a0000000000000000000000000000000000000000000000000000000008152600401610ef890614e4c565b60405180910390fd5b600082829050905060008111610f4c576040517f08c379a0000000000000000000000000000000000000000000000000000000008152600401610f4390614eb8565b60405180910390fd5b6000610f56610e09565b905060008111610f9b576040517f08c379a0000000000000000000000000000000000000000000000000000000008152600401610f9290614f24565b60405180910390fd5b600047905060008111610fe3576040517f08c379a0000000000000000000000000000000000000000000000000000000008152600401610fda90614f90565b60405180910390fd5b60005b8381101561109957600086868381811061100357611002614fb0565b5b9050602002013590503373ffffffffffffffffffffffffffffffffffffffff1661102c82611634565b73ffffffffffffffffffffffffffffffffffffffff1614611082576040517f08c379a000000000000000000000000000000000000000000000000000000000815260040161107990615051565b60405180910390fd5b61108b81611db7565b508080600101915050610fe6565b5060008284836110a991906141a7565b6110b39190614218565b9050600081116110f8576040517f08c379a00000000000000000000000000000000000000000000000000000000081526004016110ef906150bd565b60405180910390fd5b60003373ffffffffffffffffffffffffffffffffffffffff168260405161111e9061510e565b60006040518083038185875af1925050503d806000811461115b576040519150601f19603f3d011682016040523d82523d6000602084013e611160565b606091505b50509050806111a4576040517f08c379a000000000000000000000000000000000000000000000000000000000815260040161119b9061516f565b60405180910390fd5b3373ffffffffffffffffffffffffffffffffffffffff167f62c43c4ca6239525d02ec5d50013da458e2aabd6147394ddd139edae8d84439b86846040516111ec92919061518f565b60405180910390a25050505050611201610bfe565b5050565b611216611210611cf6565b82611f05565b611255576040517f08c379a000000000000000000000000000000000000000000000000000000000815260040161124c9061522a565b60405180910390fd5b611260838383611f9a565b505050565b6000611270836116da565b82106112b1576040517f08c379a00000000000000000000000000000000000000000000000000000000081526004016112a8906152bc565b60405180910390fd5b600660008473ffffffffffffffffffffffffffffffffffffffff1673ffffffffffffffffffffffffffffffffffffffff168152602001908152602001600020600083815260200190815260200160002054905092915050565b611312612293565b61131a612311565b565b61133783838360405180602001604052806000815250611a05565b505050565b611344610bb4565b6000841180156113555750600a8411155b611394576040517f08c379a000000000000000000000000000000000000000000000000000000000815260040161138b90615328565b60405180910390fd5b814211156113d7576040517f08c379a00000000000000000000000000000000000000000000000000000000081526004016113ce90615394565b60405180910390fd5b6010600084815260200190815260200160002060009054906101000a900460ff1615611438576040517f08c379a000000000000000000000000000000000000000000000000000000000815260040161142f90615400565b60405180910390fd5b60016010600085815260200190815260200160002060006101000a81548160ff021916908315150217905550600061147233868686612374565b9050600061148082846123d7565b905061148a611909565b73ffffffffffffffffffffffffffffffffffffffff168173ffffffffffffffffffffffffffffffffffffffff16146114f7576040517f08c379a00000000000000000000000000000000000000000000000000000000081526004016114ee9061546c565b60405180910390fd5b60005b868110156115325761150c600f6123fe565b6000611518600f612414565b90506115243382612422565b5080806001019150506114fa565b503373ffffffffffffffffffffffffffffffffffffffff167f0f6798a560793a54c3bcfe86a93cde1e73087d944c0ea20544137d41213968858760405161157991906142c2565b60405180910390a2505050505050565b600061159482612440565b9050919050565b60006115a5610e09565b82106115e6576040517f08c379a00000000000000000000000000000000000000000000000000000000081526004016115dd906154fe565b60405180910390fd5b600882815481106115fa576115f9614fb0565b5b90600052602060002001549050919050565b6000611618600f612414565b905090565b6000600c60009054906101000a900460ff16905090565b60008061164083612481565b9050600073ffffffffffffffffffffffffffffffffffffffff168173ffffffffffffffffffffffffffffffffffffffff16036116b1576040517f08c379a00000000000000000000000000000000000000000000000000000000081526004016116a89061556a565b60405180910390fd5b80915050919050565b60106020528060005260406000206000915054906101000a900460ff1681565b60008073ffffffffffffffffffffffffffffffffffffffff168273ffffffffffffffffffffffffffffffffffffffff160361174a576040517f08c379a0000000000000000000000000000000000000000000000000000000008152600401611741906155fc565b60405180910390fd5b600360008373ffffffffffffffffffffffffffffffffffffffff1673ffffffffffffffffffffffffffffffffffffffff168152602001908152602001600020549050919050565b611799612293565b6117a360006124be565b565b6000601360009054906101000a900473ffffffffffffffffffffffffffffffffffffffff16905090565b6117d7612293565b6117df612584565b565b600060608060008060006060611821600d7f00000000000000000000000000000000000000000000000000000000000000006125e790919063ffffffff16565b611855600e7f00000000000000000000000000000000000000000000000000000000000000006125e790919063ffffffff16565b46306000801b600067ffffffffffffffff8111156118765761187561460c565b5b6040519080825280602002602001820160405280156118a45781602001602082028036833780820191505090505b507f0f00000000000000000000000000000000000000000000000000000000000000959493929190965096509650965096509650965090919293949596565b601360009054906101000a900473ffffffffffffffffffffffffffffffffffffffff1681565b6000600a60009054906101000a900473ffffffffffffffffffffffffffffffffffffffff16905090565b60606001805461194290614c69565b80601f016020809104026020016040519081016040528092919081815260200182805461196e90614c69565b80156119bb5780601f10611990576101008083540402835291602001916119bb565b820191906000526020600020905b81548152906001019060200180831161199e57829003601f168201915b5050505050905090565b6000601260009054906101000a900473ffffffffffffffffffffffffffffffffffffffff16905090565b611a016119fa611cf6565b8383612697565b5050565b611a16611a10611cf6565b83611f05565b611a55576040517f08c379a0000000000000000000000000000000000000000000000000000000008152600401611a4c9061522a565b60405180910390fd5b611a6184848484612803565b50505050565b6060611a7282611cab565b6000611a7c61285f565b90506000815111611a9c5760405180602001604052806000815250611ac7565b80611aa684612876565b604051602001611ab7929190615658565b6040516020818303038152906040525b915050919050565b6000600560008473ffffffffffffffffffffffffffffffffffffffff1673ffffffffffffffffffffffffffffffffffffffff16815260200190815260200160002060008373ffffffffffffffffffffffffffffffffffffffff1673ffffffffffffffffffffffffffffffffffffffff16815260200190815260200160002060009054906101000a900460ff16905092915050565b60116020528060005260406000206000915054906101000a900460ff1681565b611b8b612293565b600073ffffffffffffffffffffffffffffffffffffffff168173ffffffffffffffffffffffffffffffffffffffff1603611bfa576040517f08c379a0000000000000000000000000000000000000000000000000000000008152600401611bf1906156ee565b60405180910390fd5b611c03816124be565b50565b601260009054906101000a900473ffffffffffffffffffffffffffffffffffffffff1681565b600a81565b60007f780e9d63000000000000000000000000000000000000000000000000000000007bffffffffffffffffffffffffffffffffffffffffffffffffffffffff1916827bffffffffffffffffffffffffffffffffffffffffffffffffffffffff19161480611ca45750611ca382612944565b5b9050919050565b611cb481612440565b611cf3576040517f08c379a0000000000000000000000000000000000000000000000000000000008152600401611cea9061556a565b60405180910390fd5b50565b600033905090565b816004600083815260200190815260200160002060006101000a81548173ffffffffffffffffffffffffffffffffffffffff021916908373ffffffffffffffffffffffffffffffffffffffff160217905550808273ffffffffffffffffffffffffffffffffffffffff16611d7183611634565b73ffffffffffffffffffffffffffffffffffffffff167f8c5be1e5ebec7d5bd14f71427d1e84f3dd0314c0f7b2291e5b200ac8c7c3b92560405160405180910390a45050565b6000611dc282611634565b9050611dd2816000846001612a26565b611ddb82611634565b90506004600083815260200190815260200160002060006101000a81549073ffffffffffffffffffffffffffffffffffffffff02191690556001600360008373ffffffffffffffffffffffffffffffffffffffff1673ffffffffffffffffffffffffffffffffffffffff168152602001908152602001600020600082825403925050819055506002600083815260200190815260200160002060006101000a81549073ffffffffffffffffffffffffffffffffffffffff021916905581600073ffffffffffffffffffffffffffffffffffffffff168273ffffffffffffffffffffffffffffffffffffffff167fddf252ad1be2c89b69c2b068fc378daa952ba7f163c4a11628f55a4df523b3ef60405160405180910390a4611f01816000846001612eaf565b5050565b600080611f1183611634565b90508073ffffffffffffffffffffffffffffffffffffffff168473ffffffffffffffffffffffffffffffffffffffff161480611f535750611f528185611acf565b5b80611f9157508373ffffffffffffffffffffffffffffffffffffffff16611f7984610cac565b73ffffffffffffffffffffffffffffffffffffffff16145b91505092915050565b8273ffffffffffffffffffffffffffffffffffffffff16611fba82611634565b73ffffffffffffffffffffffffffffffffffffffff1614612010576040517f08c379a000000000000000000000000000000000000000000000000000000000815260040161200790615780565b60405180910390fd5b600073ffffffffffffffffffffffffffffffffffffffff168273ffffffffffffffffffffffffffffffffffffffff160361207f576040517f08c379a000000000000000000000000000000000000000000000000000000000815260040161207690615812565b60405180910390fd5b61208c8383836001612a26565b8273ffffffffffffffffffffffffffffffffffffffff166120ac82611634565b73ffffffffffffffffffffffffffffffffffffffff1614612102576040517f08c379a00000000000000000000000000000000000000000000000000000000081526004016120f990615780565b60405180910390fd5b6004600082815260200190815260200160002060006101000a81549073ffffffffffffffffffffffffffffffffffffffff02191690556001600360008573ffffffffffffffffffffffffffffffffffffffff1673ffffffffffffffffffffffffffffffffffffffff168152602001908152602001600020600082825403925050819055506001600360008473ffffffffffffffffffffffffffffffffffffffff1673ffffffffffffffffffffffffffffffffffffffff16815260200190815260200160002060008282540192505081905550816002600083815260200190815260200160002060006101000a81548173ffffffffffffffffffffffffffffffffffffffff021916908373ffffffffffffffffffffffffffffffffffffffff160217905550808273ffffffffffffffffffffffffffffffffffffffff168473ffffffffffffffffffffffffffffffffffffffff167fddf252ad1be2c89b69c2b068fc378daa952ba7f163c4a11628f55a4df523b3ef60405160405180910390a461228e8383836001612eaf565b505050565b61229b611cf6565b73ffffffffffffffffffffffffffffffffffffffff166122b9611909565b73ffffffffffffffffffffffffffffffffffffffff161461230f576040517f08c379a00000000000000000000000000000000000000000000000000000000081526004016123069061587e565b60405180910390fd5b565b612319612eb5565b6000600c60006101000a81548160ff0219169083151502179055507f5db9ee0a495bf2e6ff9c91a7834c1ba4fdd244a5e8aa4e537bd38aeae4b073aa61235d611cf6565b60405161236a919061447b565b60405180910390a1565b60006123cd7f03f7573be9d8d6deb7485602bb9f74900abea290cc280a6102b605c39dd9fbe0868686866040516020016123b295949392919061589e565b60405160208183030381529060405280519060200120612efe565b9050949350505050565b60008060006123e68585612f18565b915091506123f381612f69565b819250505092915050565b6001816000016000828254019250508190555050565b600081600001549050919050565b61243c8282604051806020016040528060008152506130cf565b5050565b60008073ffffffffffffffffffffffffffffffffffffffff1661246283612481565b73ffffffffffffffffffffffffffffffffffffffff1614159050919050565b60006002600083815260200190815260200160002060009054906101000a900473ffffffffffffffffffffffffffffffffffffffff169050919050565b6000600a60009054906101000a900473ffffffffffffffffffffffffffffffffffffffff16905081600a60006101000a81548173ffffffffffffffffffffffffffffffffffffffff021916908373ffffffffffffffffffffffffffffffffffffffff1602179055508173ffffffffffffffffffffffffffffffffffffffff168173ffffffffffffffffffffffffffffffffffffffff167f8be0079c531659141344cd1fd0a4f28419497f9722a3daafe3b4186f6b6457e060405160405180910390a35050565b61258c610bb4565b6001600c60006101000a81548160ff0219169083151502179055507f62e78cea01bee320cd4e420270b5ea74000d11b0c9f74754ebdbfc544b05a2586125d0611cf6565b6040516125dd919061447b565b60405180910390a1565b606060ff60001b8314612604576125fd8361312a565b9050612691565b81805461261090614c69565b80601f016020809104026020016040519081016040528092919081815260200182805461263c90614c69565b80156126895780601f1061265e57610100808354040283529160200191612689565b820191906000526020600020905b81548152906001019060200180831161266c57829003601f168201915b505050505090505b92915050565b8173ffffffffffffffffffffffffffffffffffffffff168373ffffffffffffffffffffffffffffffffffffffff1603612705576040517f08c379a00000000000000000000000000000000000000000000000000000000081526004016126fc9061593d565b60405180910390fd5b80600560008573ffffffffffffffffffffffffffffffffffffffff1673ffffffffffffffffffffffffffffffffffffffff16815260200190815260200160002060008473ffffffffffffffffffffffffffffffffffffffff1673ffffffffffffffffffffffffffffffffffffffff16815260200190815260200160002060006101000a81548160ff0219169083151502179055508173ffffffffffffffffffffffffffffffffffffffff168373ffffffffffffffffffffffffffffffffffffffff167f17307eab39ab6107e8899845ad3d59bd9653f200f220920489ca2b5937696c31836040516127f6919061437d565b60405180910390a3505050565b61280e848484611f9a565b61281a8484848461319e565b612859576040517f08c379a0000000000000000000000000000000000000000000000000000000008152600401612850906159cf565b60405180910390fd5b50505050565b606060405180602001604052806000815250905090565b60606000600161288584613325565b01905060008167ffffffffffffffff8111156128a4576128a361460c565b5b6040519080825280601f01601f1916602001820160405280156128d65781602001600182028036833780820191505090505b509050600082602001820190505b600115612939578080600190039150507f3031323334353637383961626364656600000000000000000000000000000000600a86061a8153600a858161292d5761292c6141e9565b5b049450600085036128e4575b819350505050919050565b60007f80ac58cd000000000000000000000000000000000000000000000000000000007bffffffffffffffffffffffffffffffffffffffffffffffffffffffff1916827bffffffffffffffffffffffffffffffffffffffffffffffffffffffff19161480612a0f57507f5b5e139f000000000000000000000000000000000000000000000000000000007bffffffffffffffffffffffffffffffffffffffffffffffffffffffff1916827bffffffffffffffffffffffffffffffffffffffffffffffffffffffff1916145b80612a1f5750612a1e82613478565b5b9050919050565b612a2e610bb4565b612a3a848484846134e2565b600073ffffffffffffffffffffffffffffffffffffffff168473ffffffffffffffffffffffffffffffffffffffff1603612b4f57601360009054906101000a900473ffffffffffffffffffffffffffffffffffffffff1673ffffffffffffffffffffffffffffffffffffffff166302556a29846040518263ffffffff1660e01b8152600401612ac9919061447b565b602060405180830381865afa158015612ae6573d6000803e3d6000fd5b505050506040513d601f19601f82011682018060405250810190612b0a9190614dd3565b15612b4a576040517f08c379a0000000000000000000000000000000000000000000000000000000008152600401612b4190615a3b565b60405180910390fd5b612ea9565b600073ffffffffffffffffffffffffffffffffffffffff168373ffffffffffffffffffffffffffffffffffffffff1603612c6357601360009054906101000a900473ffffffffffffffffffffffffffffffffffffffff1673ffffffffffffffffffffffffffffffffffffffff1663952e5cb4856040518263ffffffff1660e01b8152600401612bde919061447b565b602060405180830381865afa158015612bfb573d6000803e3d6000fd5b505050506040513d601f19601f82011682018060405250810190612c1f9190614dd3565b612c5e576040517f08c379a0000000000000000000000000000000000000000000000000000000008152600401612c5590615aa7565b60405180910390fd5b612ea8565b6011600083815260200190815260200160002060009054906101000a900460ff1615612cc4576040517f08c379a0000000000000000000000000000000000000000000000000000000008152600401612cbb90615b39565b60405180910390fd5b601360009054906101000a900473ffffffffffffffffffffffffffffffffffffffff1673ffffffffffffffffffffffffffffffffffffffff166302556a29856040518263ffffffff1660e01b8152600401612d1f919061447b565b602060405180830381865afa158015612d3c573d6000803e3d6000fd5b505050506040513d601f19601f82011682018060405250810190612d609190614dd3565b15612da0576040517f08c379a0000000000000000000000000000000000000000000000000000000008152600401612d9790615ba5565b60405180910390fd5b601360009054906101000a900473ffffffffffffffffffffffffffffffffffffffff1673ffffffffffffffffffffffffffffffffffffffff166302556a29846040518263ffffffff1660e01b8152600401612dfb919061447b565b602060405180830381865afa158015612e18573d6000803e3d6000fd5b505050506040513d601f19601f82011682018060405250810190612e3c9190614dd3565b612e7b576040517f08c379a0000000000000000000000000000000000000000000000000000000008152600401612e7290615c37565b60405180910390fd5b60016011600084815260200190815260200160002060006101000a81548160ff0219169083151502179055505b5b50505050565b50505050565b612ebd61161d565b612efc576040517f08c379a0000000000000000000000000000000000000000000000000000000008152600401612ef390615ca3565b60405180910390fd5b565b6000612f11612f0b613640565b836136f7565b9050919050565b6000806041835103612f595760008060006020860151925060408601519150606086015160001a9050612f4d87828585613738565b94509450505050612f62565b60006002915091505b9250929050565b60006004811115612f7d57612f7c615cc3565b5b816004811115612f9057612f8f615cc3565b5b03156130cc5760016004811115612faa57612fa9615cc3565b5b816004811115612fbd57612fbc615cc3565b5b03612ffd576040517f08c379a0000000000000000000000000000000000000000000000000000000008152600401612ff490615d3e565b60405180910390fd5b6002600481111561301157613010615cc3565b5b81600481111561302457613023615cc3565b5b03613064576040517f08c379a000000000000000000000000000000000000000000000000000000000815260040161305b90615daa565b60405180910390fd5b6003600481111561307857613077615cc3565b5b81600481111561308b5761308a615cc3565b5b036130cb576040517f08c379a00000000000000000000000000000000000000000000000000000000081526004016130c290615e3c565b60405180910390fd5b5b50565b6130d9838361381a565b6130e6600084848461319e565b613125576040517f08c379a000000000000000000000000000000000000000000000000000000000815260040161311c906159cf565b60405180910390fd5b505050565b6060600061313783613a37565b90506000602067ffffffffffffffff8111156131565761315561460c565b5b6040519080825280601f01601f1916602001820160405280156131885781602001600182028036833780820191505090505b5090508181528360208201528092505050919050565b60006131bf8473ffffffffffffffffffffffffffffffffffffffff16613a87565b15613318578373ffffffffffffffffffffffffffffffffffffffff1663150b7a026131e8611cf6565b8786866040518563ffffffff1660e01b815260040161320a9493929190615eb1565b6020604051808303816000875af192505050801561324657506040513d601f19601f820116820180604052508101906132439190615f12565b60015b6132c8573d8060008114613276576040519150601f19603f3d011682016040523d82523d6000602084013e61327b565b606091505b5060008151036132c0576040517f08c379a00000000000000000000000000000000000000000000000000000000081526004016132b7906159cf565b60405180910390fd5b805181602001fd5b63150b7a0260e01b7bffffffffffffffffffffffffffffffffffffffffffffffffffffffff1916817bffffffffffffffffffffffffffffffffffffffffffffffffffffffff19161491505061331d565b600190505b949350505050565b600080600090507a184f03e93ff9f4daa797ed6e38ed64bf6a1f0100000000000000008310613383577a184f03e93ff9f4daa797ed6e38ed64bf6a1f0100000000000000008381613379576133786141e9565b5b0492506040810190505b6d04ee2d6d415b85acef810000000083106133c0576d04ee2d6d415b85acef810000000083816133b6576133b56141e9565b5b0492506020810190505b662386f26fc1000083106133ef57662386f26fc1000083816133e5576133e46141e9565b5b0492506010810190505b6305f5e1008310613418576305f5e100838161340e5761340d6141e9565b5b0492506008810190505b612710831061343d576127108381613433576134326141e9565b5b0492506004810190505b606483106134605760648381613456576134556141e9565b5b0492506002810190505b600a831061346f576001810190505b80915050919050565b60007f01ffc9a7000000000000000000000000000000000000000000000000000000007bffffffffffffffffffffffffffffffffffffffffffffffffffffffff1916827bffffffffffffffffffffffffffffffffffffffffffffffffffffffff1916149050919050565b6134ee84848484613aaa565b6001811115613532576040517f08c379a000000000000000000000000000000000000000000000000000000000815260040161352990615fb1565b60405180910390fd5b6000829050600073ffffffffffffffffffffffffffffffffffffffff168573ffffffffffffffffffffffffffffffffffffffff16036135795761357481613ab0565b6135b8565b8373ffffffffffffffffffffffffffffffffffffffff168573ffffffffffffffffffffffffffffffffffffffff16146135b7576135b68582613af9565b5b5b600073ffffffffffffffffffffffffffffffffffffffff168473ffffffffffffffffffffffffffffffffffffffff16036135fa576135f581613c66565b613639565b8473ffffffffffffffffffffffffffffffffffffffff168473ffffffffffffffffffffffffffffffffffffffff1614613638576136378482613d37565b5b5b5050505050565b60007f000000000000000000000000000000000000000000000000000000000000000073ffffffffffffffffffffffffffffffffffffffff163073ffffffffffffffffffffffffffffffffffffffff161480156136bc57507f000000000000000000000000000000000000000000000000000000000000000046145b156136e9577f000000000000000000000000000000000000000000000000000000000000000090506136f4565b6136f1613db6565b90505b90565b60006040517f190100000000000000000000000000000000000000000000000000000000000081528360028201528260228201526042812091505092915050565b6000807f7fffffffffffffffffffffffffffffff5d576e7357a4501ddfe92f46681b20a08360001c1115613773576000600391509150613811565b6000600187878787604051600081526020016040526040516137989493929190615fe0565b6020604051602081039080840390855afa1580156137ba573d6000803e3d6000fd5b505050602060405103519050600073ffffffffffffffffffffffffffffffffffffffff168173ffffffffffffffffffffffffffffffffffffffff160361380857600060019250925050613811565b80600092509250505b94509492505050565b600073ffffffffffffffffffffffffffffffffffffffff168273ffffffffffffffffffffffffffffffffffffffff1603613889576040517f08c379a000000000000000000000000000000000000000000000000000000000815260040161388090616071565b60405180910390fd5b61389281612440565b156138d2576040517f08c379a00000000000000000000000000000000000000000000000000000000081526004016138c9906160dd565b60405180910390fd5b6138e0600083836001612a26565b6138e981612440565b15613929576040517f08c379a0000000000000000000000000000000000000000000000000000000008152600401613920906160dd565b60405180910390fd5b6001600360008473ffffffffffffffffffffffffffffffffffffffff1673ffffffffffffffffffffffffffffffffffffffff16815260200190815260200160002060008282540192505081905550816002600083815260200190815260200160002060006101000a81548173ffffffffffffffffffffffffffffffffffffffff021916908373ffffffffffffffffffffffffffffffffffffffff160217905550808273ffffffffffffffffffffffffffffffffffffffff16600073ffffffffffffffffffffffffffffffffffffffff167fddf252ad1be2c89b69c2b068fc378daa952ba7f163c4a11628f55a4df523b3ef60405160405180910390a4613a33600083836001612eaf565b5050565b60008060ff8360001c169050601f811115613a7e576040517fb3512b0c00000000000000000000000000000000000000000000000000000000815260040160405180910390fd5b80915050919050565b6000808273ffffffffffffffffffffffffffffffffffffffff163b119050919050565b50505050565b6008805490506009600083815260200190815260200160002081905550600881908060018154018082558091505060019003906000526020600020016000909190919091505550565b60006001613b06846116da565b613b109190614107565b9050600060076000848152602001908152602001600020549050818114613bf5576000600660008673ffffffffffffffffffffffffffffffffffffffff1673ffffffffffffffffffffffffffffffffffffffff168152602001908152602001600020600084815260200190815260200160002054905080600660008773ffffffffffffffffffffffffffffffffffffffff1673ffffffffffffffffffffffffffffffffffffffff168152602001908152602001600020600084815260200190815260200160002081905550816007600083815260200190815260200160002081905550505b6007600084815260200190815260200160002060009055600660008573ffffffffffffffffffffffffffffffffffffffff1673ffffffffffffffffffffffffffffffffffffffff16815260200190815260200160002060008381526020019081526020016000206000905550505050565b60006001600880549050613c7a9190614107565b9050600060096000848152602001908152602001600020549050600060088381548110613caa57613ca9614fb0565b5b906000526020600020015490508060088381548110613ccc57613ccb614fb0565b5b906000526020600020018190555081600960008381526020019081526020016000208190555060096000858152602001908152602001600020600090556008805480613d1b57613d1a6160fd565b5b6001900381819060005260206000200160009055905550505050565b6000613d42836116da565b905081600660008573ffffffffffffffffffffffffffffffffffffffff1673ffffffffffffffffffffffffffffffffffffffff168152602001908152602001600020600083815260200190815260200160002081905550806007600084815260200190815260200160002081905550505050565b60007f8b73c3c69bb8fe3d512ecc4cf759cc79239f7b179b0ffacaa9a75d522b39400f7f00000000000000000000000000000000000000000000000000000000000000007f00000000000000000000000000000000000000000000000000000000000000004630604051602001613e3195949392919061612c565b60405160208183030381529060405280519060200120905090565b6000604051905090565b600080fd5b600080fd5b600069ffffffffffffffffffff82169050919050565b613e7f81613e60565b8114613e8a57600080fd5b50565b600081519050613e9c81613e76565b92915050565b6000819050919050565b613eb581613ea2565b8114613ec057600080fd5b50565b600081519050613ed281613eac565b92915050565b6000819050919050565b613eeb81613ed8565b8114613ef657600080fd5b50565b600081519050613f0881613ee2565b92915050565b600080600080600060a08688031215613f2a57613f29613e56565b5b6000613f3888828901613e8d565b9550506020613f4988828901613ec3565b9450506040613f5a88828901613ef9565b9350506060613f6b88828901613ef9565b9250506080613f7c88828901613e8d565b9150509295509295909350565b600082825260208201905092915050565b7f496e76616c69642070726963652066726f6d20436861696e6c696e6b00000000600082015250565b6000613fd0601c83613f89565b9150613fdb82613f9a565b602082019050919050565b60006020820190508181036000830152613fff81613fc3565b9050919050565b600060ff82169050919050565b61401c81614006565b811461402757600080fd5b50565b60008151905061403981614013565b92915050565b60006020828403121561405557614054613e56565b5b60006140638482850161402a565b91505092915050565b7f556e6578706563746564207072696365206665656420646563696d616c730000600082015250565b60006140a2601e83613f89565b91506140ad8261406c565b602082019050919050565b600060208201905081810360008301526140d181614095565b9050919050565b7f4e487b7100000000000000000000000000000000000000000000000000000000600052601160045260246000fd5b600061411282613ed8565b915061411d83613ed8565b9250828203905081811115614135576141346140d8565b5b92915050565b7f5374616c65207072696365206665656400000000000000000000000000000000600082015250565b6000614171601083613f89565b915061417c8261413b565b602082019050919050565b600060208201905081810360008301526141a081614164565b9050919050565b60006141b282613ed8565b91506141bd83613ed8565b92508282026141cb81613ed8565b915082820484148315176141e2576141e16140d8565b5b5092915050565b7f4e487b7100000000000000000000000000000000000000000000000000000000600052601260045260246000fd5b600061422382613ed8565b915061422e83613ed8565b92508261423e5761423d6141e9565b5b828204905092915050565b600073ffffffffffffffffffffffffffffffffffffffff82169050919050565b600061427482614249565b9050919050565b61428481614269565b82525050565b61429381613ed8565b82525050565b60006040820190506142ae600083018561427b565b6142bb602083018461428a565b9392505050565b60006020820190506142d7600083018461428a565b92915050565b60007fffffffff0000000000000000000000000000000000000000000000000000000082169050919050565b614312816142dd565b811461431d57600080fd5b50565b60008135905061432f81614309565b92915050565b60006020828403121561434b5761434a613e56565b5b600061435984828501614320565b91505092915050565b60008115159050919050565b61437781614362565b82525050565b6000602082019050614392600083018461436e565b92915050565b600081519050919050565b60005b838110156143c15780820151818401526020810190506143a6565b60008484015250505050565b6000601f19601f8301169050919050565b60006143e982614398565b6143f38185613f89565b93506144038185602086016143a3565b61440c816143cd565b840191505092915050565b6000602082019050818103600083015261443181846143de565b905092915050565b60008135905061444881613ee2565b92915050565b60006020828403121561446457614463613e56565b5b600061447284828501614439565b91505092915050565b6000602082019050614490600083018461427b565b92915050565b61449f81614269565b81146144aa57600080fd5b50565b6000813590506144bc81614496565b92915050565b600080604083850312156144d9576144d8613e56565b5b60006144e7858286016144ad565b92505060206144f885828601614439565b9150509250929050565b600080fd5b600080fd5b600080fd5b60008083601f84011261452757614526614502565b5b8235905067ffffffffffffffff81111561454457614543614507565b5b6020830191508360208202830111156145605761455f61450c565b5b9250929050565b6000806020838503121561457e5761457d613e56565b5b600083013567ffffffffffffffff81111561459c5761459b613e5b565b5b6145a885828601614511565b92509250509250929050565b6000806000606084860312156145cd576145cc613e56565b5b60006145db868287016144ad565b93505060206145ec868287016144ad565b92505060406145fd86828701614439565b9150509250925092565b600080fd5b7f4e487b7100000000000000000000000000000000000000000000000000000000600052604160045260246000fd5b614644826143cd565b810181811067ffffffffffffffff821117156146635761466261460c565b5b80604052505050565b6000614676613e4c565b9050614682828261463b565b919050565b600067ffffffffffffffff8211156146a2576146a161460c565b5b6146ab826143cd565b9050602081019050919050565b82818337600083830152505050565b60006146da6146d584614687565b61466c565b9050828152602081018484840111156146f6576146f5614607565b5b6147018482856146b8565b509392505050565b600082601f83011261471e5761471d614502565b5b813561472e8482602086016146c7565b91505092915050565b6000806000806080858703121561475157614750613e56565b5b600061475f87828801614439565b945050602061477087828801614439565b935050604061478187828801614439565b925050606085013567ffffffffffffffff8111156147a2576147a1613e5b565b5b6147ae87828801614709565b91505092959194509250565b6000602082840312156147d0576147cf613e56565b5b60006147de848285016144ad565b91505092915050565b60007fff0000000000000000000000000000000000000000000000000000000000000082169050919050565b61481c816147e7565b82525050565b6000819050919050565b61483581614822565b82525050565b600081519050919050565b600082825260208201905092915050565b6000819050602082019050919050565b61487081613ed8565b82525050565b60006148828383614867565b60208301905092915050565b6000602082019050919050565b60006148a68261483b565b6148b08185614846565b93506148bb83614857565b8060005b838110156148ec5781516148d38882614876565b97506148de8361488e565b9250506001810190506148bf565b5085935050505092915050565b600060e08201905061490e600083018a614813565b818103602083015261492081896143de565b9050818103604083015261493481886143de565b9050614943606083018761428a565b614950608083018661427b565b61495d60a083018561482c565b81810360c083015261496f818461489b565b905098975050505050505050565b6000819050919050565b60006149a261499d61499884614249565b61497d565b614249565b9050919050565b60006149b482614987565b9050919050565b60006149c6826149a9565b9050919050565b6149d6816149bb565b82525050565b60006020820190506149f160008301846149cd565b92915050565b614a0081614362565b8114614a0b57600080fd5b50565b600081359050614a1d816149f7565b92915050565b60008060408385031215614a3a57614a39613e56565b5b6000614a48858286016144ad565b9250506020614a5985828601614a0e565b9150509250929050565b60008060008060808587031215614a7d57614a7c613e56565b5b6000614a8b878288016144ad565b9450506020614a9c878288016144ad565b9350506040614aad87828801614439565b925050606085013567ffffffffffffffff811115614ace57614acd613e5b565b5b614ada87828801614709565b91505092959194509250565b60008060408385031215614afd57614afc613e56565b5b6000614b0b858286016144ad565b9250506020614b1c858286016144ad565b9150509250929050565b6000614b31826149a9565b9050919050565b614b4181614b26565b82525050565b6000602082019050614b5c6000830184614b38565b92915050565b7f5265656e7472616e637947756172643a207265656e7472616e742063616c6c00600082015250565b6000614b98601f83613f89565b9150614ba382614b62565b602082019050919050565b60006020820190508181036000830152614bc781614b8b565b9050919050565b7f5061757361626c653a2070617573656400000000000000000000000000000000600082015250565b6000614c04601083613f89565b9150614c0f82614bce565b602082019050919050565b60006020820190508181036000830152614c3381614bf7565b9050919050565b7f4e487b7100000000000000000000000000000000000000000000000000000000600052602260045260246000fd5b60006002820490506001821680614c8157607f821691505b602082108103614c9457614c93614c3a565b5b50919050565b7f4552433732313a20617070726f76616c20746f2063757272656e74206f776e6560008201527f7200000000000000000000000000000000000000000000000000000000000000602082015250565b6000614cf6602183613f89565b9150614d0182614c9a565b604082019050919050565b60006020820190508181036000830152614d2581614ce9565b9050919050565b7f4552433732313a20617070726f76652063616c6c6572206973206e6f7420746f60008201527f6b656e206f776e6572206f7220617070726f76656420666f7220616c6c000000602082015250565b6000614d88603d83613f89565b9150614d9382614d2c565b604082019050919050565b60006020820190508181036000830152614db781614d7b565b9050919050565b600081519050614dcd816149f7565b92915050565b600060208284031215614de957614de8613e56565b5b6000614df784828501614dbe565b91505092915050565b7f4d75737420686f6c642061204d65726368616e7420546f6b656e2e0000000000600082015250565b6000614e36601b83613f89565b9150614e4182614e00565b602082019050919050565b60006020820190508181036000830152614e6581614e29565b9050919050565b7f4e6f20746f6b656e732070726f76696465642e00000000000000000000000000600082015250565b6000614ea2601383613f89565b9150614ead82614e6c565b602082019050919050565b60006020820190508181036000830152614ed181614e95565b9050919050565b7f4e6f20746f6b656e7320696e2063697263756c6174696f6e2e00000000000000600082015250565b6000614f0e601983613f89565b9150614f1982614ed8565b602082019050919050565b60006020820190508181036000830152614f3d81614f01565b9050919050565b7f4e6f7420656e6f7567682045544820696e20636f6e74726163742e0000000000600082015250565b6000614f7a601b83613f89565b9150614f8582614f44565b602082019050919050565b60006020820190508181036000830152614fa981614f6d565b9050919050565b7f4e487b7100000000000000000000000000000000000000000000000000000000600052603260045260246000fd5b7f43616c6c6572206d757374206f776e20616c6c20746f6b656e73206265696e6760008201527f2072656465656d65642e00000000000000000000000000000000000000000000602082015250565b600061503b602a83613f89565b915061504682614fdf565b604082019050919050565b6000602082019050818103600083015261506a8161502e565b9050919050565b7f45544820616d6f756e7420746f6f20736d616c6c20746f2072656465656d0000600082015250565b60006150a7601e83613f89565b91506150b282615071565b602082019050919050565b600060208201905081810360008301526150d68161509a565b9050919050565b600081905092915050565b50565b60006150f86000836150dd565b9150615103826150e8565b600082019050919050565b6000615119826150eb565b9150819050919050565b7f5472616e73666572206661696c65640000000000000000000000000000000000600082015250565b6000615159600f83613f89565b915061516482615123565b602082019050919050565b600060208201905081810360008301526151888161514c565b9050919050565b60006040820190506151a4600083018561428a565b6151b1602083018461428a565b9392505050565b7f4552433732313a2063616c6c6572206973206e6f7420746f6b656e206f776e6560008201527f72206f7220617070726f76656400000000000000000000000000000000000000602082015250565b6000615214602d83613f89565b915061521f826151b8565b604082019050919050565b6000602082019050818103600083015261524381615207565b9050919050565b7f455243373231456e756d657261626c653a206f776e657220696e646578206f7560008201527f74206f6620626f756e6473000000000000000000000000000000000000000000602082015250565b60006152a6602b83613f89565b91506152b18261524a565b604082019050919050565b600060208201905081810360008301526152d581615299565b9050919050565b7f416d6f756e74206d757374206265206265747765656e203120616e6420313000600082015250565b6000615312601f83613f89565b915061531d826152dc565b602082019050919050565b6000602082019050818103600083015261534181615305565b9050919050565b7f5369676e61747572652068617320657870697265640000000000000000000000600082015250565b600061537e601583613f89565b915061538982615348565b602082019050919050565b600060208201905081810360008301526153ad81615371565b9050919050565b7f4e6f6e636520616c726561647920757365640000000000000000000000000000600082015250565b60006153ea601283613f89565b91506153f5826153b4565b602082019050919050565b60006020820190508181036000830152615419816153dd565b9050919050565b7f496e76616c6964207369676e6174757265000000000000000000000000000000600082015250565b6000615456601183613f89565b915061546182615420565b602082019050919050565b6000602082019050818103600083015261548581615449565b9050919050565b7f455243373231456e756d657261626c653a20676c6f62616c20696e646578206f60008201527f7574206f6620626f756e64730000000000000000000000000000000000000000602082015250565b60006154e8602c83613f89565b91506154f38261548c565b604082019050919050565b60006020820190508181036000830152615517816154db565b9050919050565b7f4552433732313a20696e76616c696420746f6b656e2049440000000000000000600082015250565b6000615554601883613f89565b915061555f8261551e565b602082019050919050565b6000602082019050818103600083015261558381615547565b9050919050565b7f4552433732313a2061646472657373207a65726f206973206e6f74206120766160008201527f6c6964206f776e65720000000000000000000000000000000000000000000000602082015250565b60006155e6602983613f89565b91506155f18261558a565b604082019050919050565b60006020820190508181036000830152615615816155d9565b9050919050565b600081905092915050565b600061563282614398565b61563c818561561c565b935061564c8185602086016143a3565b80840191505092915050565b60006156648285615627565b91506156708284615627565b91508190509392505050565b7f4f776e61626c653a206e6577206f776e657220697320746865207a65726f206160008201527f6464726573730000000000000000000000000000000000000000000000000000602082015250565b60006156d8602683613f89565b91506156e38261567c565b604082019050919050565b60006020820190508181036000830152615707816156cb565b9050919050565b7f4552433732313a207472616e736665722066726f6d20696e636f72726563742060008201527f6f776e6572000000000000000000000000000000000000000000000000000000602082015250565b600061576a602583613f89565b91506157758261570e565b604082019050919050565b600060208201905081810360008301526157998161575d565b9050919050565b7f4552433732313a207472616e7366657220746f20746865207a65726f2061646460008201527f7265737300000000000000000000000000000000000000000000000000000000602082015250565b60006157fc602483613f89565b9150615807826157a0565b604082019050919050565b6000602082019050818103600083015261582b816157ef565b9050919050565b7f4f776e61626c653a2063616c6c6572206973206e6f7420746865206f776e6572600082015250565b6000615868602083613f89565b915061587382615832565b602082019050919050565b600060208201905081810360008301526158978161585b565b9050919050565b600060a0820190506158b3600083018861482c565b6158c0602083018761427b565b6158cd604083018661428a565b6158da606083018561428a565b6158e7608083018461428a565b9695505050505050565b7f4552433732313a20617070726f766520746f2063616c6c657200000000000000600082015250565b6000615927601983613f89565b9150615932826158f1565b602082019050919050565b600060208201905081810360008301526159568161591a565b9050919050565b7f4552433732313a207472616e7366657220746f206e6f6e20455243373231526560008201527f63656976657220696d706c656d656e7465720000000000000000000000000000602082015250565b60006159b9603283613f89565b91506159c48261595d565b604082019050919050565b600060208201905081810360008301526159e8816159ac565b9050919050565b7f4d65726368616e74732063616e6e6f74206d696e74204c6974746572636f696e600082015250565b6000615a25602083613f89565b9150615a30826159ef565b602082019050919050565b60006020820190508181036000830152615a5481615a18565b9050919050565b7f4f6e6c79206d65726368616e74732063616e206275726e20746f6b656e730000600082015250565b6000615a91601e83613f89565b9150615a9c82615a5b565b602082019050919050565b60006020820190508181036000830152615ac081615a84565b9050919050565b7f546f6b656e2068617320616c7265616479206265656e207472616e736665727260008201527f6564000000000000000000000000000000000000000000000000000000000000602082015250565b6000615b23602283613f89565b9150615b2e82615ac7565b604082019050919050565b60006020820190508181036000830152615b5281615b16565b9050919050565b7f4d65726368616e74732063616e6e6f74207472616e7366657220746f6b656e73600082015250565b6000615b8f602083613f89565b9150615b9a82615b59565b602082019050919050565b60006020820190508181036000830152615bbe81615b82565b9050919050565b7f526563697069656e74206d75737420626520612076616c6964206d657263686160008201527f6e74000000000000000000000000000000000000000000000000000000000000602082015250565b6000615c21602283613f89565b9150615c2c82615bc5565b604082019050919050565b60006020820190508181036000830152615c5081615c14565b9050919050565b7f5061757361626c653a206e6f7420706175736564000000000000000000000000600082015250565b6000615c8d601483613f89565b9150615c9882615c57565b602082019050919050565b60006020820190508181036000830152615cbc81615c80565b9050919050565b7f4e487b7100000000000000000000000000000000000000000000000000000000600052602160045260246000fd5b7f45434453413a20696e76616c6964207369676e61747572650000000000000000600082015250565b6000615d28601883613f89565b9150615d3382615cf2565b602082019050919050565b60006020820190508181036000830152615d5781615d1b565b9050919050565b7f45434453413a20696e76616c6964207369676e6174757265206c656e67746800600082015250565b6000615d94601f83613f89565b9150615d9f82615d5e565b602082019050919050565b60006020820190508181036000830152615dc381615d87565b9050919050565b7f45434453413a20696e76616c6964207369676e6174757265202773272076616c60008201527f7565000000000000000000000000000000000000000000000000000000000000602082015250565b6000615e26602283613f89565b9150615e3182615dca565b604082019050919050565b60006020820190508181036000830152615e5581615e19565b9050919050565b600081519050919050565b600082825260208201905092915050565b6000615e8382615e5c565b615e8d8185615e67565b9350615e9d8185602086016143a3565b615ea6816143cd565b840191505092915050565b6000608082019050615ec6600083018761427b565b615ed3602083018661427b565b615ee0604083018561428a565b8181036060830152615ef28184615e78565b905095945050505050565b600081519050615f0c81614309565b92915050565b600060208284031215615f2857615f27613e56565b5b6000615f3684828501615efd565b91505092915050565b7f455243373231456e756d657261626c653a20636f6e736563757469766520747260008201527f616e7366657273206e6f7420737570706f727465640000000000000000000000602082015250565b6000615f9b603583613f89565b9150615fa682615f3f565b604082019050919050565b60006020820190508181036000830152615fca81615f8e565b9050919050565b615fda81614006565b82525050565b6000608082019050615ff5600083018761482c565b6160026020830186615fd1565b61600f604083018561482c565b61601c606083018461482c565b95945050505050565b7f4552433732313a206d696e7420746f20746865207a65726f2061646472657373600082015250565b600061605b602083613f89565b915061606682616025565b602082019050919050565b6000602082019050818103600083015261608a8161604e565b9050919050565b7f4552433732313a20746f6b656e20616c7265616479206d696e74656400000000600082015250565b60006160c7601c83613f89565b91506160d282616091565b602082019050919050565b600060208201905081810360008301526160f6816160ba565b9050919050565b7f4e487b7100000000000000000000000000000000000000000000000000000000600052603160045260246000fd5b600060a082019050616141600083018861482c565b61614e602083018761482c565b61615b604083018661482c565b616168606083018561428a565b616175608083018461427b565b969550505050505056fea2646970667358221220832ff5bde092069b4a900f8716dd11f7bd5829f4546d0fb46e6196cd64fdb0ce64736f6c634300081b0033608060405234801561001057600080fd5b506040518060400160405280601081526020017f4f4c4d2052657761726420546f6b656e000000000000000000000000000000008152506040518060400160405280600581526020017f4f4c4d5254000000000000000000000000000000000000000000000000000000815250816003908161008c91906103de565b50806004908161009c91906103de565b5050506100bb6100b06100c060201b60201c565b6100c860201b60201c565b6104b0565b600033905090565b6000600560009054906101000a900473ffffffffffffffffffffffffffffffffffffffff16905081600560006101000a81548173ffffffffffffffffffffffffffffffffffffffff021916908373ffffffffffffffffffffffffffffffffffffffff1602179055508173ffffffffffffffffffffffffffffffffffffffff168173ffffffffffffffffffffffffffffffffffffffff167f8be0079c531659141344cd1fd0a4f28419497f9722a3daafe3b4186f6b6457e060405160405180910390a35050565b600081519050919050565b7f4e487b7100000000000000000000000000000000000000000000000000000000600052604160045260246000fd5b7f4e487b7100000000000000000000000000000000000000000000000000000000600052602260045260246000fd5b6000600282049050600182168061020f57607f821691505b602082108103610222576102216101c8565b5b50919050565b60008190508160005260206000209050919050565b60006020601f8301049050919050565b600082821b905092915050565b60006008830261028a7fffffffffffffffffffffffffffffffffffffffffffffffffffffffffffffffff8261024d565b610294868361024d565b95508019841693508086168417925050509392505050565b6000819050919050565b6000819050919050565b60006102db6102d66102d1846102ac565b6102b6565b6102ac565b9050919050565b6000819050919050565b6102f5836102c0565b610309610301826102e2565b84845461025a565b825550505050565b600090565b61031e610311565b6103298184846102ec565b505050565b5b8181101561034d57610342600082610316565b60018101905061032f565b5050565b601f8211156103925761036381610228565b61036c8461023d565b8101602085101561037b578190505b61038f6103878561023d565b83018261032e565b50505b505050565b600082821c905092915050565b60006103b560001984600802610397565b1980831691505092915050565b60006103ce83836103a4565b9150826002028217905092915050565b6103e78261018e565b67ffffffffffffffff811115610400576103ff610199565b5b61040a82546101f7565b610415828285610351565b600060209050601f8311600181146104485760008415610436578287015190505b61044085826103c2565b8655506104a8565b601f19841661045686610228565b60005b8281101561047e57848901518255600182019150602085019450602081019050610459565b8683101561049b5784890151610497601f8916826103a4565b8355505b6001600288020188555050505b505050505050565b6117e0806104bf6000396000f3fe608060405234801561001057600080fd5b50600436106100f55760003560e01c806370a0823111610097578063a457c2d711610066578063a457c2d714610276578063a9059cbb146102a6578063dd62ed3e146102d6578063f2fde38b14610306576100f5565b806370a0823114610200578063715018a6146102305780638da5cb5b1461023a57806395d89b4114610258576100f5565b806323b872dd116100d357806323b872dd14610166578063313ce5671461019657806339509351146101b457806340c10f19146101e4576100f5565b806306fdde03146100fa578063095ea7b31461011857806318160ddd14610148575b600080fd5b610102610322565b60405161010f9190610f29565b60405180910390f35b610132600480360381019061012d9190610fe4565b6103b4565b60405161013f919061103f565b60405180910390f35b6101506103d7565b60405161015d9190611069565b60405180910390f35b610180600480360381019061017b9190611084565b6103e1565b60405161018d919061103f565b60405180910390f35b61019e610410565b6040516101ab91906110f3565b60405180910390f35b6101ce60048036038101906101c99190610fe4565b610419565b6040516101db919061103f565b60405180910390f35b6101fe60048036038101906101f99190610fe4565b610450565b005b61021a6004803603810190610215919061110e565b610466565b6040516102279190611069565b60405180910390f35b6102386104ae565b005b6102426104c2565b60405161024f919061114a565b60405180910390f35b6102606104ec565b60405161026d9190610f29565b60405180910390f35b610290600480360381019061028b9190610fe4565b61057e565b60405161029d919061103f565b60405180910390f35b6102c060048036038101906102bb9190610fe4565b6105f5565b6040516102cd919061103f565b60405180910390f35b6102f060048036038101906102eb9190611165565b610618565b6040516102fd9190611069565b60405180910390f35b610320600480360381019061031b919061110e565b61069f565b005b606060038054610331906111d4565b80601f016020809104026020016040519081016040528092919081815260200182805461035d906111d4565b80156103aa5780601f1061037f576101008083540402835291602001916103aa565b820191906000526020600020905b81548152906001019060200180831161038d57829003601f168201915b5050505050905090565b6000806103bf610722565b90506103cc81858561072a565b600191505092915050565b6000600254905090565b6000806103ec610722565b90506103f98582856108f3565b61040485858561097f565b60019150509392505050565b60006012905090565b600080610424610722565b90506104458185856104368589610618565b6104409190611234565b61072a565b600191505092915050565b610458610bf5565b6104628282610c73565b5050565b60008060008373ffffffffffffffffffffffffffffffffffffffff1673ffffffffffffffffffffffffffffffffffffffff168152602001908152602001600020549050919050565b6104b6610bf5565b6104c06000610dc9565b565b6000600560009054906101000a900473ffffffffffffffffffffffffffffffffffffffff16905090565b6060600480546104fb906111d4565b80601f0160208091040260200160405190810160405280929190818152602001828054610527906111d4565b80156105745780601f1061054957610100808354040283529160200191610574565b820191906000526020600020905b81548152906001019060200180831161055757829003601f168201915b5050505050905090565b600080610589610722565b905060006105978286610618565b9050838110156105dc576040517f08c379a00000000000000000000000000000000000000000000000000000000081526004016105d3906112da565b60405180910390fd5b6105e9828686840361072a565b60019250505092915050565b600080610600610722565b905061060d81858561097f565b600191505092915050565b6000600160008473ffffffffffffffffffffffffffffffffffffffff1673ffffffffffffffffffffffffffffffffffffffff16815260200190815260200160002060008373ffffffffffffffffffffffffffffffffffffffff1673ffffffffffffffffffffffffffffffffffffffff16815260200190815260200160002054905092915050565b6106a7610bf5565b600073ffffffffffffffffffffffffffffffffffffffff168173ffffffffffffffffffffffffffffffffffffffff1603610716576040517f08c379a000000000000000000000000000000000000000000000000000000000815260040161070d9061136c565b60405180910390fd5b61071f81610dc9565b50565b600033905090565b600073ffffffffffffffffffffffffffffffffffffffff168373ffffffffffffffffffffffffffffffffffffffff1603610799576040517f08c379a0000000000000000000000000000000000000000000000000000000008152600401610790906113fe565b60405180910390fd5b600073ffffffffffffffffffffffffffffffffffffffff168273ffffffffffffffffffffffffffffffffffffffff1603610808576040517f08c379a00000000000000000000000000000000000000000000000000000000081526004016107ff90611490565b60405180910390fd5b80600160008573ffffffffffffffffffffffffffffffffffffffff1673ffffffffffffffffffffffffffffffffffffffff16815260200190815260200160002060008473ffffffffffffffffffffffffffffffffffffffff1673ffffffffffffffffffffffffffffffffffffffff168152602001908152602001600020819055508173ffffffffffffffffffffffffffffffffffffffff168373ffffffffffffffffffffffffffffffffffffffff167f8c5be1e5ebec7d5bd14f71427d1e84f3dd0314c0f7b2291e5b200ac8c7c3b925836040516108e69190611069565b60405180910390a3505050565b60006108ff8484610618565b90507fffffffffffffffffffffffffffffffffffffffffffffffffffffffffffffffff8114610979578181101561096b576040517f08c379a0000000000000000000000000000000000000000000000000000000008152600401610962906114fc565b60405180910390fd5b610978848484840361072a565b5b50505050565b600073ffffffffffffffffffffffffffffffffffffffff168373ffffffffffffffffffffffffffffffffffffffff16036109ee576040517f08c379a00000000000000000000000000000000000000000000000000000000081526004016109e59061158e565b60405180910390fd5b600073ffffffffffffffffffffffffffffffffffffffff168273ffffffffffffffffffffffffffffffffffffffff1603610a5d576040517f08c379a0000000000000000000000000000000000000000000000000000000008152600401610a5490611620565b60405180910390fd5b610a68838383610e8f565b60008060008573ffffffffffffffffffffffffffffffffffffffff1673ffffffffffffffffffffffffffffffffffffffff16815260200190815260200160002054905081811015610aee576040517f08c379a0000000000000000000000000000000000000000000000000000000008152600401610ae5906116b2565b60405180910390fd5b8181036000808673ffffffffffffffffffffffffffffffffffffffff1673ffffffffffffffffffffffffffffffffffffffff16815260200190815260200160002081905550816000808573ffffffffffffffffffffffffffffffffffffffff1673ffffffffffffffffffffffffffffffffffffffff168152602001908152602001600020600082825401925050819055508273ffffffffffffffffffffffffffffffffffffffff168473ffffffffffffffffffffffffffffffffffffffff167fddf252ad1be2c89b69c2b068fc378daa952ba7f163c4a11628f55a4df523b3ef84604051610bdc9190611069565b60405180910390a3610bef848484610e94565b50505050565b610bfd610722565b73ffffffffffffffffffffffffffffffffffffffff16610c1b6104c2565b73ffffffffffffffffffffffffffffffffffffffff1614610c71576040517f08c379a0000000000000000000000000000000000000000000000000000000008152600401610c689061171e565b60405180910390fd5b565b600073ffffffffffffffffffffffffffffffffffffffff168273ffffffffffffffffffffffffffffffffffffffff1603610ce2576040517f08c379a0000000000000000000000000000000000000000000000000000000008152600401610cd99061178a565b60405180910390fd5b610cee60008383610e8f565b8060026000828254610d009190611234565b92505081905550806000808473ffffffffffffffffffffffffffffffffffffffff1673ffffffffffffffffffffffffffffffffffffffff168152602001908152602001600020600082825401925050819055508173ffffffffffffffffffffffffffffffffffffffff16600073ffffffffffffffffffffffffffffffffffffffff167fddf252ad1be2c89b69c2b068fc378daa952ba7f163c4a11628f55a4df523b3ef83604051610db19190611069565b60405180910390a3610dc560008383610e94565b5050565b6000600560009054906101000a900473ffffffffffffffffffffffffffffffffffffffff16905081600560006101000a81548173ffffffffffffffffffffffffffffffffffffffff021916908373ffffffffffffffffffffffffffffffffffffffff1602179055508173ffffffffffffffffffffffffffffffffffffffff168173ffffffffffffffffffffffffffffffffffffffff167f8be0079c531659141344cd1fd0a4f28419497f9722a3daafe3b4186f6b6457e060405160405180910390a35050565b505050565b505050565b600081519050919050565b600082825260208201905092915050565b60005b83811015610ed3578082015181840152602081019050610eb8565b60008484015250505050565b6000601f19601f8301169050919050565b6000610efb82610e99565b610f058185610ea4565b9350610f15818560208601610eb5565b610f1e81610edf565b840191505092915050565b60006020820190508181036000830152610f438184610ef0565b905092915050565b600080fd5b600073ffffffffffffffffffffffffffffffffffffffff82169050919050565b6000610f7b82610f50565b9050919050565b610f8b81610f70565b8114610f9657600080fd5b50565b600081359050610fa881610f82565b92915050565b6000819050919050565b610fc181610fae565b8114610fcc57600080fd5b50565b600081359050610fde81610fb8565b92915050565b60008060408385031215610ffb57610ffa610f4b565b5b600061100985828601610f99565b925050602061101a85828601610fcf565b9150509250929050565b60008115159050919050565b61103981611024565b82525050565b60006020820190506110546000830184611030565b92915050565b61106381610fae565b82525050565b600060208201905061107e600083018461105a565b92915050565b60008060006060848603121561109d5761109c610f4b565b5b60006110ab86828701610f99565b93505060206110bc86828701610f99565b92505060406110cd86828701610fcf565b9150509250925092565b600060ff82169050919050565b6110ed816110d7565b82525050565b600060208201905061110860008301846110e4565b92915050565b60006020828403121561112457611123610f4b565b5b600061113284828501610f99565b91505092915050565b61114481610f70565b82525050565b600060208201905061115f600083018461113b565b92915050565b6000806040838503121561117c5761117b610f4b565b5b600061118a85828601610f99565b925050602061119b85828601610f99565b9150509250929050565b7f4e487b7100000000000000000000000000000000000000000000000000000000600052602260045260246000fd5b600060028204905060018216806111ec57607f821691505b6020821081036111ff576111fe6111a5565b5b50919050565b7f4e487b7100000000000000000000000000000000000000000000000000000000600052601160045260246000fd5b600061123f82610fae565b915061124a83610fae565b925082820190508082111561126257611261611205565b5b92915050565b7f45524332303a2064656372656173656420616c6c6f77616e63652062656c6f7760008201527f207a65726f000000000000000000000000000000000000000000000000000000602082015250565b60006112c4602583610ea4565b91506112cf82611268565b604082019050919050565b600060208201905081810360008301526112f3816112b7565b9050919050565b7f4f776e61626c653a206e6577206f776e657220697320746865207a65726f206160008201527f6464726573730000000000000000000000000000000000000000000000000000602082015250565b6000611356602683610ea4565b9150611361826112fa565b604082019050919050565b6000602082019050818103600083015261138581611349565b9050919050565b7f45524332303a20617070726f76652066726f6d20746865207a65726f2061646460008201527f7265737300000000000000000000000000000000000000000000000000000000602082015250565b60006113e8602483610ea4565b91506113f38261138c565b604082019050919050565b60006020820190508181036000830152611417816113db565b9050919050565b7f45524332303a20617070726f766520746f20746865207a65726f20616464726560008201527f7373000000000000000000000000000000000000000000000000000000000000602082015250565b600061147a602283610ea4565b91506114858261141e565b604082019050919050565b600060208201905081810360008301526114a98161146d565b9050919050565b7f45524332303a20696e73756666696369656e7420616c6c6f77616e6365000000600082015250565b60006114e6601d83610ea4565b91506114f1826114b0565b602082019050919050565b60006020820190508181036000830152611515816114d9565b9050919050565b7f45524332303a207472616e736665722066726f6d20746865207a65726f20616460008201527f6472657373000000000000000000000000000000000000000000000000000000602082015250565b6000611578602583610ea4565b91506115838261151c565b604082019050919050565b600060208201905081810360008301526115a78161156b565b9050919050565b7f45524332303a207472616e7366657220746f20746865207a65726f206164647260008201527f6573730000000000000000000000000000000000000000000000000000000000602082015250565b600061160a602383610ea4565b9150611615826115ae565b604082019050919050565b60006020820190508181036000830152611639816115fd565b9050919050565b7f45524332303a207472616e7366657220616d6f756e742065786365656473206260008201527f616c616e63650000000000000000000000000000000000000000000000000000602082015250565b600061169c602683610ea4565b91506116a782611640565b604082019050919050565b600060208201905081810360008301526116cb8161168f565b9050919050565b7f4f776e61626c653a2063616c6c6572206973206e6f7420746865206f776e6572600082015250565b6000611708602083610ea4565b9150611713826116d2565b602082019050919050565b60006020820190508181036000830152611737816116fb565b9050919050565b7f45524332303a206d696e7420746f20746865207a65726f206164647265737300600082015250565b6000611774601f83610ea4565b915061177f8261173e565b602082019050919050565b600060208201905081810360008301526117a381611767565b905091905056fea2646970667358221220af20ee9085baea6d3365493d9a9c372a7cee3e7ac2647d892ac51a03d58530b864736f6c634300081b0033608060405234801561001057600080fd5b506040518060400160405280601781526020017f4c6974746572636f696e4d65726368616e74546f6b656e0000000000000000008152506040518060400160405280600481526020017f4c584d5400000000000000000000000000000000000000000000000000000000815250816000908161008c91906103f9565b50806001908161009c91906103f9565b5050506100bb6100b06100db60201b60201c565b6100e360201b60201c565b6000600660146101000a81548160ff0219169083151502179055506104cb565b600033905090565b6000600660009054906101000a900473ffffffffffffffffffffffffffffffffffffffff16905081600660006101000a81548173ffffffffffffffffffffffffffffffffffffffff021916908373ffffffffffffffffffffffffffffffffffffffff1602179055508173ffffffffffffffffffffffffffffffffffffffff168173ffffffffffffffffffffffffffffffffffffffff167f8be0079c531659141344cd1fd0a4f28419497f9722a3daafe3b4186f6b6457e060405160405180910390a35050565b600081519050919050565b7f4e487b7100000000000000000000000000000000000000000000000000000000600052604160045260246000fd5b7f4e487b7100000000000000000000000000000000000000000000000000000000600052602260045260246000fd5b6000600282049050600182168061022a57607f821691505b60208210810361023d5761023c6101e3565b5b50919050565b60008190508160005260206000209050919050565b60006020601f8301049050919050565b600082821b905092915050565b6000600883026102a57fffffffffffffffffffffffffffffffffffffffffffffffffffffffffffffffff82610268565b6102af8683610268565b95508019841693508086168417925050509392505050565b6000819050919050565b6000819050919050565b60006102f66102f16102ec846102c7565b6102d1565b6102c7565b9050919050565b6000819050919050565b610310836102db565b61032461031c826102fd565b848454610275565b825550505050565b600090565b61033961032c565b610344818484610307565b505050565b5b818110156103685761035d600082610331565b60018101905061034a565b5050565b601f8211156103ad5761037e81610243565b61038784610258565b81016020851015610396578190505b6103aa6103a285610258565b830182610349565b50505b505050565b600082821c905092915050565b60006103d0600019846008026103b2565b1980831691505092915050565b60006103e983836103bf565b9150826002028217905092915050565b610402826101a9565b67ffffffffffffffff81111561041b5761041a6101b4565b5b6104258254610212565b61043082828561036c565b600060209050601f8311600181146104635760008415610451578287015190505b61045b85826103dd565b8655506104c3565b601f19841661047186610243565b60005b8281101561049957848901518255600182019150602085019450602081019050610474565b868310156104b657848901516104b2601f8916826103bf565b8355505b6001600288020188555050505b505050505050565b613c61806104da6000396000f3fe608060405234801561001057600080fd5b50600436106101cf5760003560e01c80636352211e11610104578063a22cb465116100a2578063d9e5896e11610071578063d9e5896e146104f2578063e985e9c514610522578063ea55763314610552578063f2fde38b14610582576101cf565b8063a22cb4651461045a578063b88d4fde14610476578063c87b56dd14610492578063d9548e53146104c2576101cf565b80638456cb59116100de5780638456cb59146103e45780638da5cb5b146103ee578063952e5cb41461040c57806395d89b411461043c576101cf565b80636352211e1461037a57806370a08231146103aa578063715018a6146103da576101cf565b80633f4ba83a1161017157806342842e0e1161014b57806342842e0e1461031857806344df8e7014610334578063561892361461033e5780635c975abb1461035c576101cf565b80633f4ba83a146102d657806340c10f19146102e0578063425604d6146102fc576101cf565b8063081812fc116101ad578063081812fc14610252578063095ea7b31461028257806323b872dd1461029e578063393ed91a146102ba576101cf565b806301ffc9a7146101d457806302556a291461020457806306fdde0314610234575b600080fd5b6101ee60048036038101906101e99190612803565b61059e565b6040516101fb919061284b565b60405180910390f35b61021e600480360381019061021991906128c4565b6105b0565b60405161022b919061284b565b60405180910390f35b61023c610623565b6040516102499190612981565b60405180910390f35b61026c600480360381019061026791906129d9565b6106b5565b6040516102799190612a15565b60405180910390f35b61029c60048036038101906102979190612a30565b6106fb565b005b6102b860048036038101906102b39190612a70565b610812565b005b6102d460048036038101906102cf91906129d9565b610872565b005b6102de610972565b005b6102fa60048036038101906102f59190612a30565b610984565b005b61031660048036038101906103119190612ac3565b610b63565b005b610332600480360381019061032d9190612a70565b610c78565b005b61033c610c98565b005b610346610d33565b6040516103539190612b12565b60405180910390f35b610364610d44565b604051610371919061284b565b60405180910390f35b610394600480360381019061038f91906129d9565b610d5b565b6040516103a19190612a15565b60405180910390f35b6103c460048036038101906103bf91906128c4565b610de1565b6040516103d19190612b12565b60405180910390f35b6103e2610e98565b005b6103ec610eac565b005b6103f6610ebe565b6040516104039190612a15565b60405180910390f35b610426600480360381019061042191906128c4565b610ee8565b604051610433919061284b565b60405180910390f35b610444610f51565b6040516104519190612981565b60405180910390f35b610474600480360381019061046f9190612b59565b610fe3565b005b610490600480360381019061048b9190612cce565b610ff9565b005b6104ac60048036038101906104a791906129d9565b61105b565b6040516104b99190612981565b60405180910390f35b6104dc60048036038101906104d791906129d9565b6110c3565b6040516104e9919061284b565b60405180910390f35b61050c600480360381019061050791906129d9565b61112a565b6040516105199190612b12565b60405180910390f35b61053c60048036038101906105379190612d51565b61118f565b604051610549919061284b565b60405180910390f35b61056c600480360381019061056791906128c4565b611223565b6040516105799190612b12565b60405180910390f35b61059c600480360381019061059791906128c4565b611323565b005b60006105a9826113a6565b9050919050565b600080600860008473ffffffffffffffffffffffffffffffffffffffff1673ffffffffffffffffffffffffffffffffffffffff16815260200190815260200160002054905060008114806106095750610608816110c3565b5b1561061857600091505061061e565b60019150505b919050565b60606000805461063290612dc0565b80601f016020809104026020016040519081016040528092919081815260200182805461065e90612dc0565b80156106ab5780601f10610680576101008083540402835291602001916106ab565b820191906000526020600020905b81548152906001019060200180831161068e57829003601f168201915b5050505050905090565b60006106c082611488565b6004600083815260200190815260200160002060009054906101000a900473ffffffffffffffffffffffffffffffffffffffff169050919050565b600061070682610d5b565b90508073ffffffffffffffffffffffffffffffffffffffff168373ffffffffffffffffffffffffffffffffffffffff1603610776576040517f08c379a000000000000000000000000000000000000000000000000000000000815260040161076d90612e63565b60405180910390fd5b8073ffffffffffffffffffffffffffffffffffffffff166107956114d3565b73ffffffffffffffffffffffffffffffffffffffff1614806107c457506107c3816107be6114d3565b61118f565b5b610803576040517f08c379a00000000000000000000000000000000000000000000000000000000081526004016107fa90612ef5565b60405180910390fd5b61080d83836114db565b505050565b61082361081d6114d3565b82611594565b610862576040517f08c379a000000000000000000000000000000000000000000000000000000000815260040161085990612f87565b60405180910390fd5b61086d838383611629565b505050565b61087a611922565b6108826119a0565b61088b816119ea565b6108ca576040517f08c379a00000000000000000000000000000000000000000000000000000000081526004016108c190612ff3565b60405180910390fd5b6108d3816110c3565b15610913576040517f08c379a000000000000000000000000000000000000000000000000000000000815260040161090a9061305f565b60405180910390fd5b610e104261092191906130ae565b60096000838152602001908152602001600020819055507f754f3aa765fa1f221ea409fddea972deff6ce410d141d5cded4fc7ec690710c0816040516109679190612b12565b60405180910390a150565b61097a611922565b610982611a2b565b565b61098c611922565b6109946119a0565b600073ffffffffffffffffffffffffffffffffffffffff168273ffffffffffffffffffffffffffffffffffffffff1603610a03576040517f08c379a00000000000000000000000000000000000000000000000000000000081526004016109fa9061312e565b60405180910390fd5b428111610a45576040517f08c379a0000000000000000000000000000000000000000000000000000000008152600401610a3c906131c0565b60405180910390fd5b6000610a5083610de1565b14610a90576040517f08c379a0000000000000000000000000000000000000000000000000000000008152600401610a879061322c565b60405180910390fd5b610a9a6007611a8e565b6000610aa66007611aa4565b9050816009600083815260200190815260200160002081905550610aca8382611ab2565b80600860008573ffffffffffffffffffffffffffffffffffffffff1673ffffffffffffffffffffffffffffffffffffffff168152602001908152602001600020819055508273ffffffffffffffffffffffffffffffffffffffff167f655ff37b06d138fc26fda07d435a40368e63b8d3cbd7835215334ff9e7fcd7828284604051610b5692919061324c565b60405180910390a2505050565b610b6b611922565b610b736119a0565b610b7c826119ea565b610bbb576040517f08c379a0000000000000000000000000000000000000000000000000000000008152600401610bb290612ff3565b60405180910390fd5b60008111610bfe576040517f08c379a0000000000000000000000000000000000000000000000000000000008152600401610bf5906132e7565b60405180910390fd5b80600960008481526020019081526020016000206000828254610c219190613307565b925050819055507f0db48b23ad6f04f212b5fddef4017753a195535f0d61c4daa790b4f70f28c07f826009600085815260200190815260200160002054604051610c6c92919061324c565b60405180910390a15050565b610c9383838360405180602001604052806000815250610ff9565b505050565b610ca06119a0565b6000600860003373ffffffffffffffffffffffffffffffffffffffff1673ffffffffffffffffffffffffffffffffffffffff16815260200190815260200160002054905060008103610d27576040517f08c379a0000000000000000000000000000000000000000000000000000000008152600401610d1e90613387565b60405180910390fd5b610d3081611ad0565b50565b6000610d3f6007611aa4565b905090565b6000600660149054906101000a900460ff16905090565b600080610d6783611c1e565b9050600073ffffffffffffffffffffffffffffffffffffffff168173ffffffffffffffffffffffffffffffffffffffff1603610dd8576040517f08c379a0000000000000000000000000000000000000000000000000000000008152600401610dcf906133f3565b60405180910390fd5b80915050919050565b60008073ffffffffffffffffffffffffffffffffffffffff168273ffffffffffffffffffffffffffffffffffffffff1603610e51576040517f08c379a0000000000000000000000000000000000000000000000000000000008152600401610e4890613485565b60405180910390fd5b600360008373ffffffffffffffffffffffffffffffffffffffff1673ffffffffffffffffffffffffffffffffffffffff168152602001908152602001600020549050919050565b610ea0611922565b610eaa6000611c5b565b565b610eb4611922565b610ebc611d21565b565b6000600660009054906101000a900473ffffffffffffffffffffffffffffffffffffffff16905090565b600080600860008473ffffffffffffffffffffffffffffffffffffffff1673ffffffffffffffffffffffffffffffffffffffff16815260200190815260200160002054905060008103610f3f576000915050610f4c565b610f48816119ea565b9150505b919050565b606060018054610f6090612dc0565b80601f0160208091040260200160405190810160405280929190818152602001828054610f8c90612dc0565b8015610fd95780601f10610fae57610100808354040283529160200191610fd9565b820191906000526020600020905b815481529060010190602001808311610fbc57829003601f168201915b5050505050905090565b610ff5610fee6114d3565b8383611d84565b5050565b61100a6110046114d3565b83611594565b611049576040517f08c379a000000000000000000000000000000000000000000000000000000000815260040161104090612f87565b60405180910390fd5b61105584848484611ef0565b50505050565b606061106682611488565b6000611070611f4c565b9050600081511161109057604051806020016040528060008152506110bb565b8061109a84611f63565b6040516020016110ab9291906134e1565b6040516020818303038152906040525b915050919050565b60006110ce826119ea565b61110d576040517f08c379a000000000000000000000000000000000000000000000000000000000815260040161110490612ff3565b60405180910390fd5b600960008381526020019081526020016000205442119050919050565b6000611135826119ea565b611174576040517f08c379a000000000000000000000000000000000000000000000000000000000815260040161116b90612ff3565b60405180910390fd5b60096000838152602001908152602001600020549050919050565b6000600560008473ffffffffffffffffffffffffffffffffffffffff1673ffffffffffffffffffffffffffffffffffffffff16815260200190815260200160002060008373ffffffffffffffffffffffffffffffffffffffff1673ffffffffffffffffffffffffffffffffffffffff16815260200190815260200160002060009054906101000a900460ff16905092915050565b60008073ffffffffffffffffffffffffffffffffffffffff168273ffffffffffffffffffffffffffffffffffffffff1603611293576040517f08c379a000000000000000000000000000000000000000000000000000000000815260040161128a90613551565b60405180910390fd5b6000600860008473ffffffffffffffffffffffffffffffffffffffff1673ffffffffffffffffffffffffffffffffffffffff1681526020019081526020016000205490506000810361131a576040517f08c379a0000000000000000000000000000000000000000000000000000000008152600401611311906135bd565b60405180910390fd5b80915050919050565b61132b611922565b600073ffffffffffffffffffffffffffffffffffffffff168173ffffffffffffffffffffffffffffffffffffffff160361139a576040517f08c379a00000000000000000000000000000000000000000000000000000000081526004016113919061364f565b60405180910390fd5b6113a381611c5b565b50565b60007f80ac58cd000000000000000000000000000000000000000000000000000000007bffffffffffffffffffffffffffffffffffffffffffffffffffffffff1916827bffffffffffffffffffffffffffffffffffffffffffffffffffffffff1916148061147157507f5b5e139f000000000000000000000000000000000000000000000000000000007bffffffffffffffffffffffffffffffffffffffffffffffffffffffff1916827bffffffffffffffffffffffffffffffffffffffffffffffffffffffff1916145b80611481575061148082612031565b5b9050919050565b611491816119ea565b6114d0576040517f08c379a00000000000000000000000000000000000000000000000000000000081526004016114c7906133f3565b60405180910390fd5b50565b600033905090565b816004600083815260200190815260200160002060006101000a81548173ffffffffffffffffffffffffffffffffffffffff021916908373ffffffffffffffffffffffffffffffffffffffff160217905550808273ffffffffffffffffffffffffffffffffffffffff1661154e83610d5b565b73ffffffffffffffffffffffffffffffffffffffff167f8c5be1e5ebec7d5bd14f71427d1e84f3dd0314c0f7b2291e5b200ac8c7c3b92560405160405180910390a45050565b6000806115a083610d5b565b90508073ffffffffffffffffffffffffffffffffffffffff168473ffffffffffffffffffffffffffffffffffffffff1614806115e257506115e1818561118f565b5b8061162057508373ffffffffffffffffffffffffffffffffffffffff16611608846106b5565b73ffffffffffffffffffffffffffffffffffffffff16145b91505092915050565b8273ffffffffffffffffffffffffffffffffffffffff1661164982610d5b565b73ffffffffffffffffffffffffffffffffffffffff161461169f576040517f08c379a0000000000000000000000000000000000000000000000000000000008152600401611696906136e1565b60405180910390fd5b600073ffffffffffffffffffffffffffffffffffffffff168273ffffffffffffffffffffffffffffffffffffffff160361170e576040517f08c379a000000000000000000000000000000000000000000000000000000000815260040161170590613773565b60405180910390fd5b61171b838383600161209b565b8273ffffffffffffffffffffffffffffffffffffffff1661173b82610d5b565b73ffffffffffffffffffffffffffffffffffffffff1614611791576040517f08c379a0000000000000000000000000000000000000000000000000000000008152600401611788906136e1565b60405180910390fd5b6004600082815260200190815260200160002060006101000a81549073ffffffffffffffffffffffffffffffffffffffff02191690556001600360008573ffffffffffffffffffffffffffffffffffffffff1673ffffffffffffffffffffffffffffffffffffffff168152602001908152602001600020600082825403925050819055506001600360008473ffffffffffffffffffffffffffffffffffffffff1673ffffffffffffffffffffffffffffffffffffffff16815260200190815260200160002060008282540192505081905550816002600083815260200190815260200160002060006101000a81548173ffffffffffffffffffffffffffffffffffffffff021916908373ffffffffffffffffffffffffffffffffffffffff160217905550808273ffffffffffffffffffffffffffffffffffffffff168473ffffffffffffffffffffffffffffffffffffffff167fddf252ad1be2c89b69c2b068fc378daa952ba7f163c4a11628f55a4df523b3ef60405160405180910390a461191d83838360016121cd565b505050565b61192a6114d3565b73ffffffffffffffffffffffffffffffffffffffff16611948610ebe565b73ffffffffffffffffffffffffffffffffffffffff161461199e576040517f08c379a0000000000000000000000000000000000000000000000000000000008152600401611995906137df565b60405180910390fd5b565b6119a8610d44565b156119e8576040517f08c379a00000000000000000000000000000000000000000000000000000000081526004016119df9061384b565b60405180910390fd5b565b60008073ffffffffffffffffffffffffffffffffffffffff16611a0c83611c1e565b73ffffffffffffffffffffffffffffffffffffffff1614159050919050565b611a336121d3565b6000600660146101000a81548160ff0219169083151502179055507f5db9ee0a495bf2e6ff9c91a7834c1ba4fdd244a5e8aa4e537bd38aeae4b073aa611a776114d3565b604051611a849190612a15565b60405180910390a1565b6001816000016000828254019250508190555050565b600081600001549050919050565b611acc82826040518060200160405280600081525061221c565b5050565b6000611adb82610d5b565b9050611aeb81600084600161209b565b611af482610d5b565b90506004600083815260200190815260200160002060006101000a81549073ffffffffffffffffffffffffffffffffffffffff02191690556001600360008373ffffffffffffffffffffffffffffffffffffffff1673ffffffffffffffffffffffffffffffffffffffff168152602001908152602001600020600082825403925050819055506002600083815260200190815260200160002060006101000a81549073ffffffffffffffffffffffffffffffffffffffff021916905581600073ffffffffffffffffffffffffffffffffffffffff168273ffffffffffffffffffffffffffffffffffffffff167fddf252ad1be2c89b69c2b068fc378daa952ba7f163c4a11628f55a4df523b3ef60405160405180910390a4611c1a8160008460016121cd565b5050565b60006002600083815260200190815260200160002060009054906101000a900473ffffffffffffffffffffffffffffffffffffffff169050919050565b6000600660009054906101000a900473ffffffffffffffffffffffffffffffffffffffff16905081600660006101000a81548173ffffffffffffffffffffffffffffffffffffffff021916908373ffffffffffffffffffffffffffffffffffffffff1602179055508173ffffffffffffffffffffffffffffffffffffffff168173ffffffffffffffffffffffffffffffffffffffff167f8be0079c531659141344cd1fd0a4f28419497f9722a3daafe3b4186f6b6457e060405160405180910390a35050565b611d296119a0565b6001600660146101000a81548160ff0219169083151502179055507f62e78cea01bee320cd4e420270b5ea74000d11b0c9f74754ebdbfc544b05a258611d6d6114d3565b604051611d7a9190612a15565b60405180910390a1565b8173ffffffffffffffffffffffffffffffffffffffff168373ffffffffffffffffffffffffffffffffffffffff1603611df2576040517f08c379a0000000000000000000000000000000000000000000000000000000008152600401611de9906138b7565b60405180910390fd5b80600560008573ffffffffffffffffffffffffffffffffffffffff1673ffffffffffffffffffffffffffffffffffffffff16815260200190815260200160002060008473ffffffffffffffffffffffffffffffffffffffff1673ffffffffffffffffffffffffffffffffffffffff16815260200190815260200160002060006101000a81548160ff0219169083151502179055508173ffffffffffffffffffffffffffffffffffffffff168373ffffffffffffffffffffffffffffffffffffffff167f17307eab39ab6107e8899845ad3d59bd9653f200f220920489ca2b5937696c3183604051611ee3919061284b565b60405180910390a3505050565b611efb848484611629565b611f0784848484612277565b611f46576040517f08c379a0000000000000000000000000000000000000000000000000000000008152600401611f3d90613949565b60405180910390fd5b50505050565b606060405180602001604052806000815250905090565b606060006001611f72846123fe565b01905060008167ffffffffffffffff811115611f9157611f90612ba3565b5b6040519080825280601f01601f191660200182016040528015611fc35781602001600182028036833780820191505090505b509050600082602001820190505b600115612026578080600190039150507f3031323334353637383961626364656600000000000000000000000000000000600a86061a8153600a858161201a57612019613969565b5b04945060008503611fd1575b819350505050919050565b60007f01ffc9a7000000000000000000000000000000000000000000000000000000007bffffffffffffffffffffffffffffffffffffffffffffffffffffffff1916827bffffffffffffffffffffffffffffffffffffffffffffffffffffffff1916149050919050565b6120a784848484612551565b600073ffffffffffffffffffffffffffffffffffffffff168473ffffffffffffffffffffffffffffffffffffffff16148061210e5750600073ffffffffffffffffffffffffffffffffffffffff168373ffffffffffffffffffffffffffffffffffffffff16145b61214d576040517f08c379a0000000000000000000000000000000000000000000000000000000008152600401612144906139e4565b60405180910390fd5b600073ffffffffffffffffffffffffffffffffffffffff168473ffffffffffffffffffffffffffffffffffffffff16146121c7576000600860008673ffffffffffffffffffffffffffffffffffffffff1673ffffffffffffffffffffffffffffffffffffffff168152602001908152602001600020819055505b50505050565b50505050565b6121db610d44565b61221a576040517f08c379a000000000000000000000000000000000000000000000000000000000815260040161221190613a50565b60405180910390fd5b565b6122268383612557565b6122336000848484612277565b612272576040517f08c379a000000000000000000000000000000000000000000000000000000000815260040161226990613949565b60405180910390fd5b505050565b60006122988473ffffffffffffffffffffffffffffffffffffffff16612774565b156123f1578373ffffffffffffffffffffffffffffffffffffffff1663150b7a026122c16114d3565b8786866040518563ffffffff1660e01b81526004016122e39493929190613ac5565b6020604051808303816000875af192505050801561231f57506040513d601f19601f8201168201806040525081019061231c9190613b26565b60015b6123a1573d806000811461234f576040519150601f19603f3d011682016040523d82523d6000602084013e612354565b606091505b506000815103612399576040517f08c379a000000000000000000000000000000000000000000000000000000000815260040161239090613949565b60405180910390fd5b805181602001fd5b63150b7a0260e01b7bffffffffffffffffffffffffffffffffffffffffffffffffffffffff1916817bffffffffffffffffffffffffffffffffffffffffffffffffffffffff1916149150506123f6565b600190505b949350505050565b600080600090507a184f03e93ff9f4daa797ed6e38ed64bf6a1f010000000000000000831061245c577a184f03e93ff9f4daa797ed6e38ed64bf6a1f010000000000000000838161245257612451613969565b5b0492506040810190505b6d04ee2d6d415b85acef81000000008310612499576d04ee2d6d415b85acef8100000000838161248f5761248e613969565b5b0492506020810190505b662386f26fc1000083106124c857662386f26fc1000083816124be576124bd613969565b5b0492506010810190505b6305f5e10083106124f1576305f5e10083816124e7576124e6613969565b5b0492506008810190505b612710831061251657612710838161250c5761250b613969565b5b0492506004810190505b60648310612539576064838161252f5761252e613969565b5b0492506002810190505b600a8310612548576001810190505b80915050919050565b50505050565b600073ffffffffffffffffffffffffffffffffffffffff168273ffffffffffffffffffffffffffffffffffffffff16036125c6576040517f08c379a00000000000000000000000000000000000000000000000000000000081526004016125bd90613b9f565b60405180910390fd5b6125cf816119ea565b1561260f576040517f08c379a000000000000000000000000000000000000000000000000000000000815260040161260690613c0b565b60405180910390fd5b61261d60008383600161209b565b612626816119ea565b15612666576040517f08c379a000000000000000000000000000000000000000000000000000000000815260040161265d90613c0b565b60405180910390fd5b6001600360008473ffffffffffffffffffffffffffffffffffffffff1673ffffffffffffffffffffffffffffffffffffffff16815260200190815260200160002060008282540192505081905550816002600083815260200190815260200160002060006101000a81548173ffffffffffffffffffffffffffffffffffffffff021916908373ffffffffffffffffffffffffffffffffffffffff160217905550808273ffffffffffffffffffffffffffffffffffffffff16600073ffffffffffffffffffffffffffffffffffffffff167fddf252ad1be2c89b69c2b068fc378daa952ba7f163c4a11628f55a4df523b3ef60405160405180910390a46127706000838360016121cd565b5050565b6000808273ffffffffffffffffffffffffffffffffffffffff163b119050919050565b6000604051905090565b600080fd5b600080fd5b60007fffffffff0000000000000000000000000000000000000000000000000000000082169050919050565b6127e0816127ab565b81146127eb57600080fd5b50565b6000813590506127fd816127d7565b92915050565b600060208284031215612819576128186127a1565b5b6000612827848285016127ee565b91505092915050565b60008115159050919050565b61284581612830565b82525050565b6000602082019050612860600083018461283c565b92915050565b600073ffffffffffffffffffffffffffffffffffffffff82169050919050565b600061289182612866565b9050919050565b6128a181612886565b81146128ac57600080fd5b50565b6000813590506128be81612898565b92915050565b6000602082840312156128da576128d96127a1565b5b60006128e8848285016128af565b91505092915050565b600081519050919050565b600082825260208201905092915050565b60005b8381101561292b578082015181840152602081019050612910565b60008484015250505050565b6000601f19601f8301169050919050565b6000612953826128f1565b61295d81856128fc565b935061296d81856020860161290d565b61297681612937565b840191505092915050565b6000602082019050818103600083015261299b8184612948565b905092915050565b6000819050919050565b6129b6816129a3565b81146129c157600080fd5b50565b6000813590506129d3816129ad565b92915050565b6000602082840312156129ef576129ee6127a1565b5b60006129fd848285016129c4565b91505092915050565b612a0f81612886565b82525050565b6000602082019050612a2a6000830184612a06565b92915050565b60008060408385031215612a4757612a466127a1565b5b6000612a55858286016128af565b9250506020612a66858286016129c4565b9150509250929050565b600080600060608486031215612a8957612a886127a1565b5b6000612a97868287016128af565b9350506020612aa8868287016128af565b9250506040612ab9868287016129c4565b9150509250925092565b60008060408385031215612ada57612ad96127a1565b5b6000612ae8858286016129c4565b9250506020612af9858286016129c4565b9150509250929050565b612b0c816129a3565b82525050565b6000602082019050612b276000830184612b03565b92915050565b612b3681612830565b8114612b4157600080fd5b50565b600081359050612b5381612b2d565b92915050565b60008060408385031215612b7057612b6f6127a1565b5b6000612b7e858286016128af565b9250506020612b8f85828601612b44565b9150509250929050565b600080fd5b600080fd5b7f4e487b7100000000000000000000000000000000000000000000000000000000600052604160045260246000fd5b612bdb82612937565b810181811067ffffffffffffffff82111715612bfa57612bf9612ba3565b5b80604052505050565b6000612c0d612797565b9050612c198282612bd2565b919050565b600067ffffffffffffffff821115612c3957612c38612ba3565b5b612c4282612937565b9050602081019050919050565b82818337600083830152505050565b6000612c71612c6c84612c1e565b612c03565b905082815260208101848484011115612c8d57612c8c612b9e565b5b612c98848285612c4f565b509392505050565b600082601f830112612cb557612cb4612b99565b5b8135612cc5848260208601612c5e565b91505092915050565b60008060008060808587031215612ce857612ce76127a1565b5b6000612cf6878288016128af565b9450506020612d07878288016128af565b9350506040612d18878288016129c4565b925050606085013567ffffffffffffffff811115612d3957612d386127a6565b5b612d4587828801612ca0565b91505092959194509250565b60008060408385031215612d6857612d676127a1565b5b6000612d76858286016128af565b9250506020612d87858286016128af565b9150509250929050565b7f4e487b7100000000000000000000000000000000000000000000000000000000600052602260045260246000fd5b60006002820490506001821680612dd857607f821691505b602082108103612deb57612dea612d91565b5b50919050565b7f4552433732313a20617070726f76616c20746f2063757272656e74206f776e6560008201527f7200000000000000000000000000000000000000000000000000000000000000602082015250565b6000612e4d6021836128fc565b9150612e5882612df1565b604082019050919050565b60006020820190508181036000830152612e7c81612e40565b9050919050565b7f4552433732313a20617070726f76652063616c6c6572206973206e6f7420746f60008201527f6b656e206f776e6572206f7220617070726f76656420666f7220616c6c000000602082015250565b6000612edf603d836128fc565b9150612eea82612e83565b604082019050919050565b60006020820190508181036000830152612f0e81612ed2565b9050919050565b7f4552433732313a2063616c6c6572206973206e6f7420746f6b656e206f776e6560008201527f72206f7220617070726f76656400000000000000000000000000000000000000602082015250565b6000612f71602d836128fc565b9150612f7c82612f15565b604082019050919050565b60006020820190508181036000830152612fa081612f64565b9050919050565b7f546f6b656e20646f6573206e6f74206578697374000000000000000000000000600082015250565b6000612fdd6014836128fc565b9150612fe882612fa7565b602082019050919050565b6000602082019050818103600083015261300c81612fd0565b9050919050565b7f546f6b656e20616c726561647920657870697265640000000000000000000000600082015250565b60006130496015836128fc565b915061305482613013565b602082019050919050565b600060208201905081810360008301526130788161303c565b9050919050565b7f4e487b7100000000000000000000000000000000000000000000000000000000600052601160045260246000fd5b60006130b9826129a3565b91506130c4836129a3565b92508282039050818111156130dc576130db61307f565b5b92915050565b7f43616e6e6f74206d696e7420746f207a65726f20616464726573730000000000600082015250565b6000613118601b836128fc565b9150613123826130e2565b602082019050919050565b600060208201905081810360008301526131478161310b565b9050919050565b7f45787069726174696f6e206d75737420626520696e207468652066757475726560008201527f2e00000000000000000000000000000000000000000000000000000000000000602082015250565b60006131aa6021836128fc565b91506131b58261314e565b604082019050919050565b600060208201905081810360008301526131d98161319d565b9050919050565b7f5573657220616c726561647920686173206120746f6b656e0000000000000000600082015250565b60006132166018836128fc565b9150613221826131e0565b602082019050919050565b6000602082019050818103600083015261324581613209565b9050919050565b60006040820190506132616000830185612b03565b61326e6020830184612b03565b9392505050565b7f4164646974696f6e616c2074696d65206d75737420626520677265617465722060008201527f7468616e207a65726f0000000000000000000000000000000000000000000000602082015250565b60006132d16029836128fc565b91506132dc82613275565b604082019050919050565b60006020820190508181036000830152613300816132c4565b9050919050565b6000613312826129a3565b915061331d836129a3565b92508282019050808211156133355761333461307f565b5b92915050565b7f596f7520646f206e6f74206f776e206120746f6b656e00000000000000000000600082015250565b60006133716016836128fc565b915061337c8261333b565b602082019050919050565b600060208201905081810360008301526133a081613364565b9050919050565b7f4552433732313a20696e76616c696420746f6b656e2049440000000000000000600082015250565b60006133dd6018836128fc565b91506133e8826133a7565b602082019050919050565b6000602082019050818103600083015261340c816133d0565b9050919050565b7f4552433732313a2061646472657373207a65726f206973206e6f74206120766160008201527f6c6964206f776e65720000000000000000000000000000000000000000000000602082015250565b600061346f6029836128fc565b915061347a82613413565b604082019050919050565b6000602082019050818103600083015261349e81613462565b9050919050565b600081905092915050565b60006134bb826128f1565b6134c581856134a5565b93506134d581856020860161290d565b80840191505092915050565b60006134ed82856134b0565b91506134f982846134b0565b91508190509392505050565b7f496e76616c696420616464726573730000000000000000000000000000000000600082015250565b600061353b600f836128fc565b915061354682613505565b602082019050919050565b6000602082019050818103600083015261356a8161352e565b9050919050565b7f4f776e657220646f6573206e6f742068617665206120746f6b656e0000000000600082015250565b60006135a7601b836128fc565b91506135b282613571565b602082019050919050565b600060208201905081810360008301526135d68161359a565b9050919050565b7f4f776e61626c653a206e6577206f776e657220697320746865207a65726f206160008201527f6464726573730000000000000000000000000000000000000000000000000000602082015250565b60006136396026836128fc565b9150613644826135dd565b604082019050919050565b600060208201905081810360008301526136688161362c565b9050919050565b7f4552433732313a207472616e736665722066726f6d20696e636f72726563742060008201527f6f776e6572000000000000000000000000000000000000000000000000000000602082015250565b60006136cb6025836128fc565b91506136d68261366f565b604082019050919050565b600060208201905081810360008301526136fa816136be565b9050919050565b7f4552433732313a207472616e7366657220746f20746865207a65726f2061646460008201527f7265737300000000000000000000000000000000000000000000000000000000602082015250565b600061375d6024836128fc565b915061376882613701565b604082019050919050565b6000602082019050818103600083015261378c81613750565b9050919050565b7f4f776e61626c653a2063616c6c6572206973206e6f7420746865206f776e6572600082015250565b60006137c96020836128fc565b91506137d482613793565b602082019050919050565b600060208201905081810360008301526137f8816137bc565b9050919050565b7f5061757361626c653a2070617573656400000000000000000000000000000000600082015250565b60006138356010836128fc565b9150613840826137ff565b602082019050919050565b6000602082019050818103600083015261386481613828565b9050919050565b7f4552433732313a20617070726f766520746f2063616c6c657200000000000000600082015250565b60006138a16019836128fc565b91506138ac8261386b565b602082019050919050565b600060208201905081810360008301526138d081613894565b9050919050565b7f4552433732313a207472616e7366657220746f206e6f6e20455243373231526560008201527f63656976657220696d706c656d656e7465720000000000000000000000000000602082015250565b60006139336032836128fc565b915061393e826138d7565b604082019050919050565b6000602082019050818103600083015261396281613926565b9050919050565b7f4e487b7100000000000000000000000000000000000000000000000000000000600052601260045260246000fd5b7f5472616e7366657273206172652064697361626c656400000000000000000000600082015250565b60006139ce6016836128fc565b91506139d982613998565b602082019050919050565b600060208201905081810360008301526139fd816139c1565b9050919050565b7f5061757361626c653a206e6f7420706175736564000000000000000000000000600082015250565b6000613a3a6014836128fc565b9150613a4582613a04565b602082019050919050565b60006020820190508181036000830152613a6981613a2d565b9050919050565b600081519050919050565b600082825260208201905092915050565b6000613a9782613a70565b613aa18185613a7b565b9350613ab181856020860161290d565b613aba81612937565b840191505092915050565b6000608082019050613ada6000830187612a06565b613ae76020830186612a06565b613af46040830185612b03565b8181036060830152613b068184613a8c565b905095945050505050565b600081519050613b20816127d7565b92915050565b600060208284031215613b3c57613b3b6127a1565b5b6000613b4a84828501613b11565b91505092915050565b7f4552433732313a206d696e7420746f20746865207a65726f2061646472657373600082015250565b6000613b896020836128fc565b9150613b9482613b53565b602082019050919050565b60006020820190508181036000830152613bb881613b7c565b9050919050565b7f4552433732313a20746f6b656e20616c7265616479206d696e74656400000000600082015250565b6000613bf5601c836128fc565b9150613c0082613bbf565b602082019050919050565b60006020820190508181036000830152613c2481613be8565b905091905056fea2646970667358221220053842d4db3b9684451b9890517df8c743f4e05bfe44dbc01d99fc806767811564736f6c634300081b0033",
  "linkReferences": {},
  "deployedLinkReferences": {}
}