{
  "_format": "hh-sol-artifact-1",
  "contractName": "Littercoin",
  "sourceName": "contracts/Littercoin.sol",
  "abi": [
    {
      "inputs": [
        {
          "internalType": "address",
          "name": "_priceFeed",
          "type": "address"
        }
      ],
      "stateMutability": "nonpayable",
      "type": "constructor"
    },
    {
      "anonymous": false,
      "inputs": [
        {
          "indexed": true,
          "internalType": "address",
          "name": "owner",
          "type": "address"
        },
        {
          "indexed": true,
          "internalType": "address",
          "name": "spender",
          "type": "address"
        },
        {
          "indexed": false,
          "internalType": "uint256",
          "name": "value",
          "type": "uint256"
        }
      ],
      "name": "Approval",
      "type": "event"
    },
    {
      "anonymous": false,
      "inputs": [
        {
          "indexed": true,
          "internalType": "address",
          "name": "user",
          "type": "address"
        },
        {
          "indexed": false,
          "internalType": "uint256",
          "name": "amount",
          "type": "uint256"
        }
      ],
      "name": "Mint",
      "type": "event"
    },
    {
      "anonymous": false,
      "inputs": [
        {
          "indexed": true,
          "internalType": "address",
          "name": "previousOwner",
          "type": "address"
        },
        {
          "indexed": true,
          "internalType": "address",
          "name": "newOwner",
          "type": "address"
        }
      ],
      "name": "OwnershipTransferred",
      "type": "event"
    },
    {
      "anonymous": false,
      "inputs": [
        {
          "indexed": true,
          "internalType": "address",
          "name": "user",
          "type": "address"
        },
        {
          "indexed": false,
          "internalType": "uint256",
          "name": "littercoinAmount",
          "type": "uint256"
        },
        {
          "indexed": false,
          "internalType": "uint256",
          "name": "ethAmount",
          "type": "uint256"
        }
      ],
      "name": "Redeem",
      "type": "event"
    },
    {
      "anonymous": false,
      "inputs": [
        {
          "indexed": true,
          "internalType": "address",
          "name": "user",
          "type": "address"
        },
        {
          "indexed": false,
          "internalType": "uint256",
          "name": "rewardAmount",
          "type": "uint256"
        }
      ],
      "name": "Reward",
      "type": "event"
    },
    {
      "anonymous": false,
      "inputs": [
        {
          "indexed": true,
          "internalType": "address",
          "name": "from",
          "type": "address"
        },
        {
          "indexed": true,
          "internalType": "address",
          "name": "to",
          "type": "address"
        },
        {
          "indexed": false,
          "internalType": "uint256",
          "name": "value",
          "type": "uint256"
        }
      ],
      "name": "Transfer",
      "type": "event"
    },
    {
      "inputs": [
        {
          "internalType": "address",
          "name": "owner",
          "type": "address"
        },
        {
          "internalType": "address",
          "name": "spender",
          "type": "address"
        }
      ],
      "name": "allowance",
      "outputs": [
        {
          "internalType": "uint256",
          "name": "",
          "type": "uint256"
        }
      ],
      "stateMutability": "view",
      "type": "function"
    },
    {
      "inputs": [
        {
          "internalType": "address",
          "name": "spender",
          "type": "address"
        },
        {
          "internalType": "uint256",
          "name": "amount",
          "type": "uint256"
        }
      ],
      "name": "approve",
      "outputs": [
        {
          "internalType": "bool",
          "name": "",
          "type": "bool"
        }
      ],
      "stateMutability": "nonpayable",
      "type": "function"
    },
    {
      "inputs": [
        {
          "internalType": "address",
          "name": "account",
          "type": "address"
        }
      ],
      "name": "balanceOf",
      "outputs": [
        {
          "internalType": "uint256",
          "name": "",
          "type": "uint256"
        }
      ],
      "stateMutability": "view",
      "type": "function"
    },
    {
      "inputs": [],
      "name": "decimals",
      "outputs": [
        {
          "internalType": "uint8",
          "name": "",
          "type": "uint8"
        }
      ],
      "stateMutability": "view",
      "type": "function"
    },
    {
      "inputs": [
        {
          "internalType": "address",
          "name": "spender",
          "type": "address"
        },
        {
          "internalType": "uint256",
          "name": "subtractedValue",
          "type": "uint256"
        }
      ],
      "name": "decreaseAllowance",
      "outputs": [
        {
          "internalType": "bool",
          "name": "",
          "type": "bool"
        }
      ],
      "stateMutability": "nonpayable",
      "type": "function"
    },
    {
      "inputs": [],
      "name": "getMerchantTokenAddress",
      "outputs": [
        {
          "internalType": "address",
          "name": "",
          "type": "address"
        }
      ],
      "stateMutability": "view",
      "type": "function"
    },
    {
      "inputs": [],
      "name": "getRewardTokenAddress",
      "outputs": [
        {
          "internalType": "address",
          "name": "",
          "type": "address"
        }
      ],
      "stateMutability": "view",
      "type": "function"
    },
    {
      "inputs": [
        {
          "internalType": "address",
          "name": "user",
          "type": "address"
        }
      ],
      "name": "hasMerchantToken",
      "outputs": [
        {
          "internalType": "bool",
          "name": "",
          "type": "bool"
        }
      ],
      "stateMutability": "view",
      "type": "function"
    },
    {
      "inputs": [
        {
          "internalType": "address",
          "name": "spender",
          "type": "address"
        },
        {
          "internalType": "uint256",
          "name": "addedValue",
          "type": "uint256"
        }
      ],
      "name": "increaseAllowance",
      "outputs": [
        {
          "internalType": "bool",
          "name": "",
          "type": "bool"
        }
      ],
      "stateMutability": "nonpayable",
      "type": "function"
    },
    {
      "inputs": [
        {
          "internalType": "address",
          "name": "",
          "type": "address"
        }
      ],
      "name": "littercoinAmounts",
      "outputs": [
        {
          "internalType": "uint256",
          "name": "",
          "type": "uint256"
        }
      ],
      "stateMutability": "view",
      "type": "function"
    },
    {
      "inputs": [],
      "name": "merchantToken",
      "outputs": [
        {
          "internalType": "contract MerchantToken",
          "name": "",
          "type": "address"
        }
      ],
      "stateMutability": "view",
      "type": "function"
    },
    {
      "inputs": [
        {
          "internalType": "uint256",
          "name": "amount",
          "type": "uint256"
        }
      ],
      "name": "mint",
      "outputs": [],
      "stateMutability": "nonpayable",
      "type": "function"
    },
    {
      "inputs": [],
      "name": "name",
      "outputs": [
        {
          "internalType": "string",
          "name": "",
          "type": "string"
        }
      ],
      "stateMutability": "view",
      "type": "function"
    },
    {
      "inputs": [],
      "name": "owner",
      "outputs": [
        {
          "internalType": "address",
          "name": "",
          "type": "address"
        }
      ],
      "stateMutability": "view",
      "type": "function"
    },
    {
      "inputs": [
        {
          "internalType": "uint256",
          "name": "amount",
          "type": "uint256"
        }
      ],
      "name": "redeemLittercoin",
      "outputs": [],
      "stateMutability": "nonpayable",
      "type": "function"
    },
    {
      "inputs": [],
      "name": "renounceOwnership",
      "outputs": [],
      "stateMutability": "nonpayable",
      "type": "function"
    },
    {
      "inputs": [],
      "name": "rewardToken",
      "outputs": [
        {
          "internalType": "contract OLMRewardToken",
          "name": "",
          "type": "address"
        }
      ],
      "stateMutability": "view",
      "type": "function"
    },
    {
      "inputs": [],
      "name": "symbol",
      "outputs": [
        {
          "internalType": "string",
          "name": "",
          "type": "string"
        }
      ],
      "stateMutability": "view",
      "type": "function"
    },
    {
      "inputs": [],
      "name": "totalSupply",
      "outputs": [
        {
          "internalType": "uint256",
          "name": "",
          "type": "uint256"
        }
      ],
      "stateMutability": "view",
      "type": "function"
    },
    {
      "inputs": [
        {
          "internalType": "address",
          "name": "to",
          "type": "address"
        },
        {
          "internalType": "uint256",
          "name": "amount",
          "type": "uint256"
        }
      ],
      "name": "transfer",
      "outputs": [
        {
          "internalType": "bool",
          "name": "",
          "type": "bool"
        }
      ],
      "stateMutability": "nonpayable",
      "type": "function"
    },
    {
      "inputs": [
        {
          "internalType": "address",
          "name": "from",
          "type": "address"
        },
        {
          "internalType": "address",
          "name": "to",
          "type": "address"
        },
        {
          "internalType": "uint256",
          "name": "amount",
          "type": "uint256"
        }
      ],
      "name": "transferFrom",
      "outputs": [
        {
          "internalType": "bool",
          "name": "",
          "type": "bool"
        }
      ],
      "stateMutability": "nonpayable",
      "type": "function"
    },
    {
      "inputs": [
        {
          "internalType": "address",
          "name": "newOwner",
          "type": "address"
        }
      ],
      "name": "transferOwnership",
      "outputs": [],
      "stateMutability": "nonpayable",
      "type": "function"
    },
    {
      "stateMutability": "payable",
      "type": "receive"
    }
  ],
  "bytecode": "0x608060405234801561001057600080fd5b506040516183b23803806183b283398181016040528101906100329190610462565b6040518060400160405280600a81526020017f4c6974746572636f696e000000000000000000000000000000000000000000008152506040518060400160405280600781526020017f4c4954544552580000000000000000000000000000000000000000000000000081525081600390816100ad91906106df565b5080600490816100bd91906106df565b5050506100dc6100d161031760201b60201c565b61031f60201b60201c565b60016006819055506040516100f0906103e5565b604051809103906000f08015801561010c573d6000803e3d6000fd5b50600860006101000a81548173ffffffffffffffffffffffffffffffffffffffff021916908373ffffffffffffffffffffffffffffffffffffffff160217905550600860009054906101000a900473ffffffffffffffffffffffffffffffffffffffff1673ffffffffffffffffffffffffffffffffffffffff1663f2fde38b306040518263ffffffff1660e01b81526004016101a891906107c0565b600060405180830381600087803b1580156101c257600080fd5b505af11580156101d6573d6000803e3d6000fd5b505050506040516101e6906103f2565b604051809103906000f080158015610202573d6000803e3d6000fd5b50600960006101000a81548173ffffffffffffffffffffffffffffffffffffffff021916908373ffffffffffffffffffffffffffffffffffffffff160217905550600960009054906101000a900473ffffffffffffffffffffffffffffffffffffffff1673ffffffffffffffffffffffffffffffffffffffff1663f2fde38b336040518263ffffffff1660e01b815260040161029e91906107c0565b600060405180830381600087803b1580156102b857600080fd5b505af11580156102cc573d6000803e3d6000fd5b5050505080600a60006101000a81548173ffffffffffffffffffffffffffffffffffffffff021916908373ffffffffffffffffffffffffffffffffffffffff160217905550506107db565b600033905090565b6000600560009054906101000a900473ffffffffffffffffffffffffffffffffffffffff16905081600560006101000a81548173ffffffffffffffffffffffffffffffffffffffff021916908373ffffffffffffffffffffffffffffffffffffffff1602179055508173ffffffffffffffffffffffffffffffffffffffff168173ffffffffffffffffffffffffffffffffffffffff167f8be0079c531659141344cd1fd0a4f28419497f9722a3daafe3b4186f6b6457e060405160405180910390a35050565b611c9f80612dc583390190565b61394e80614a6483390190565b600080fd5b600073ffffffffffffffffffffffffffffffffffffffff82169050919050565b600061042f82610404565b9050919050565b61043f81610424565b811461044a57600080fd5b50565b60008151905061045c81610436565b92915050565b600060208284031215610478576104776103ff565b5b60006104868482850161044d565b91505092915050565b600081519050919050565b7f4e487b7100000000000000000000000000000000000000000000000000000000600052604160045260246000fd5b7f4e487b7100000000000000000000000000000000000000000000000000000000600052602260045260246000fd5b6000600282049050600182168061051057607f821691505b602082108103610523576105226104c9565b5b50919050565b60008190508160005260206000209050919050565b60006020601f8301049050919050565b600082821b905092915050565b60006008830261058b7fffffffffffffffffffffffffffffffffffffffffffffffffffffffffffffffff8261054e565b610595868361054e565b95508019841693508086168417925050509392505050565b6000819050919050565b6000819050919050565b60006105dc6105d76105d2846105ad565b6105b7565b6105ad565b9050919050565b6000819050919050565b6105f6836105c1565b61060a610602826105e3565b84845461055b565b825550505050565b600090565b61061f610612565b61062a8184846105ed565b505050565b5b8181101561064e57610643600082610617565b600181019050610630565b5050565b601f8211156106935761066481610529565b61066d8461053e565b8101602085101561067c578190505b6106906106888561053e565b83018261062f565b50505b505050565b600082821c905092915050565b60006106b660001984600802610698565b1980831691505092915050565b60006106cf83836106a5565b9150826002028217905092915050565b6106e88261048f565b67ffffffffffffffff8111156107015761070061049a565b5b61070b82546104f8565b610716828285610652565b600060209050601f8311600181146107495760008415610737578287015190505b61074185826106c3565b8655506107a9565b601f19841661075786610529565b60005b8281101561077f5784890151825560018201915060208501945060208101905061075a565b8683101561079c5784890151610798601f8916826106a5565b8355505b6001600288020188555050505b505050505050565b6107ba81610424565b82525050565b60006020820190506107d560008301846107b1565b92915050565b6125db806107ea6000396000f3fe6080604052600436106101395760003560e01c80638da5cb5b116100ab578063a0712d681161006f578063a0712d6814610634578063a457c2d71461065d578063a9059cbb1461069a578063dd62ed3e146106d7578063f2fde38b14610714578063f7c618c11461073d57610329565b80638da5cb5b1461054d57806392cfe6ca14610578578063952e5cb4146105a157806395d89b41146105de57806399e117a01461060957610329565b806339509351116100fd57806339509351146104295780634a4e74081461046657806370a08231146104a3578063715018a6146104e0578063744c0f93146104f75780638c1a1f771461052257610329565b806306fdde031461032e578063095ea7b31461035957806318160ddd1461039657806323b872dd146103c1578063313ce567146103fe57610329565b366103295760003490506000600a60009054906101000a900473ffffffffffffffffffffffffffffffffffffffff1673ffffffffffffffffffffffffffffffffffffffff1663feaf968c6040518163ffffffff1660e01b815260040160a060405180830381865afa1580156101b2573d6000803e3d6000fd5b505050506040513d601f19601f820116820180604052508101906101d691906117b3565b5050509150506000811361021f576040517f08c379a00000000000000000000000000000000000000000000000000000000081526004016102169061188b565b60405180910390fd5b600081905060006a52b7d2dcc80cd2e4000000828561023e91906118da565b610248919061194b565b9050600860009054906101000a900473ffffffffffffffffffffffffffffffffffffffff1673ffffffffffffffffffffffffffffffffffffffff166340c10f1933836040518363ffffffff1660e01b81526004016102a79291906119cc565b600060405180830381600087803b1580156102c157600080fd5b505af11580156102d5573d6000803e3d6000fd5b505050503373ffffffffffffffffffffffffffffffffffffffff167f619caafabdd75649b302ba8419e48cccf64f37f1983ac4727cfb38b57703ffc98260405161031f91906119f5565b60405180910390a2005b600080fd5b34801561033a57600080fd5b50610343610768565b6040516103509190611a8f565b60405180910390f35b34801561036557600080fd5b50610380600480360381019061037b9190611af2565b6107fa565b60405161038d9190611b4d565b60405180910390f35b3480156103a257600080fd5b506103ab61081d565b6040516103b891906119f5565b60405180910390f35b3480156103cd57600080fd5b506103e860048036038101906103e39190611b68565b610827565b6040516103f59190611b4d565b60405180910390f35b34801561040a57600080fd5b50610413610856565b6040516104209190611bd7565b60405180910390f35b34801561043557600080fd5b50610450600480360381019061044b9190611af2565b61085f565b60405161045d9190611b4d565b60405180910390f35b34801561047257600080fd5b5061048d60048036038101906104889190611bf2565b610896565b60405161049a91906119f5565b60405180910390f35b3480156104af57600080fd5b506104ca60048036038101906104c59190611bf2565b6108ae565b6040516104d791906119f5565b60405180910390f35b3480156104ec57600080fd5b506104f56108f6565b005b34801561050357600080fd5b5061050c61090a565b6040516105199190611c1f565b60405180910390f35b34801561052e57600080fd5b50610537610934565b6040516105449190611c99565b60405180910390f35b34801561055957600080fd5b5061056261095a565b60405161056f9190611c1f565b60405180910390f35b34801561058457600080fd5b5061059f600480360381019061059a9190611cb4565b610984565b005b3480156105ad57600080fd5b506105c860048036038101906105c39190611bf2565b610b0f565b6040516105d59190611b4d565b60405180910390f35b3480156105ea57600080fd5b506105f3610bb6565b6040516106009190611a8f565b60405180910390f35b34801561061557600080fd5b5061061e610c48565b60405161062b9190611c1f565b60405180910390f35b34801561064057600080fd5b5061065b60048036038101906106569190611cb4565b610c72565b005b34801561066957600080fd5b50610684600480360381019061067f9190611af2565b610d66565b6040516106919190611b4d565b60405180910390f35b3480156106a657600080fd5b506106c160048036038101906106bc9190611af2565b610ddd565b6040516106ce9190611b4d565b60405180910390f35b3480156106e357600080fd5b506106fe60048036038101906106f99190611ce1565b610e00565b60405161070b91906119f5565b60405180910390f35b34801561072057600080fd5b5061073b60048036038101906107369190611bf2565b610e87565b005b34801561074957600080fd5b50610752610f0a565b60405161075f9190611d42565b60405180910390f35b60606003805461077790611d8c565b80601f01602080910402602001604051908101604052809291908181526020018280546107a390611d8c565b80156107f05780601f106107c5576101008083540402835291602001916107f0565b820191906000526020600020905b8154815290600101906020018083116107d357829003601f168201915b5050505050905090565b600080610805610f30565b9050610812818585610f38565b600191505092915050565b6000600254905090565b600080610832610f30565b905061083f858285611101565b61084a85858561118d565b60019150509392505050565b60006012905090565b60008061086a610f30565b905061088b81858561087c8589610e00565b6108869190611dbd565b610f38565b600191505092915050565b60076020528060005260406000206000915090505481565b60008060008373ffffffffffffffffffffffffffffffffffffffff1673ffffffffffffffffffffffffffffffffffffffff168152602001908152602001600020549050919050565b6108fe611403565b6109086000611481565b565b6000600960009054906101000a900473ffffffffffffffffffffffffffffffffffffffff16905090565b600960009054906101000a900473ffffffffffffffffffffffffffffffffffffffff1681565b6000600560009054906101000a900473ffffffffffffffffffffffffffffffffffffffff16905090565b61098c611547565b61099533610b0f565b6109d4576040517f08c379a00000000000000000000000000000000000000000000000000000000081526004016109cb90611e3d565b60405180910390fd5b806109de336108ae565b1015610a1f576040517f08c379a0000000000000000000000000000000000000000000000000000000008152600401610a1690611ea9565b60405180910390fd5b80471015610a62576040517f08c379a0000000000000000000000000000000000000000000000000000000008152600401610a5990611f15565b60405180910390fd5b610a6d33308361118d565b3373ffffffffffffffffffffffffffffffffffffffff166108fc829081150290604051600060405180830381858888f19350505050158015610ab3573d6000803e3d6000fd5b503373ffffffffffffffffffffffffffffffffffffffff167fe5b754fb1abb7f01b499791d0b820ae3b6af3424ac1c59768edb53f4ec31a9298283604051610afc929190611f35565b60405180910390a2610b0c611596565b50565b600080600960009054906101000a900473ffffffffffffffffffffffffffffffffffffffff1673ffffffffffffffffffffffffffffffffffffffff166370a08231846040518263ffffffff1660e01b8152600401610b6d9190611c1f565b602060405180830381865afa158015610b8a573d6000803e3d6000fd5b505050506040513d601f19601f82011682018060405250810190610bae9190611f5e565b119050919050565b606060048054610bc590611d8c565b80601f0160208091040260200160405190810160405280929190818152602001828054610bf190611d8c565b8015610c3e5780601f10610c1357610100808354040283529160200191610c3e565b820191906000526020600020905b815481529060010190602001808311610c2157829003601f168201915b5050505050905090565b6000600860009054906101000a900473ffffffffffffffffffffffffffffffffffffffff16905090565b60008111610cb5576040517f08c379a0000000000000000000000000000000000000000000000000000000008152600401610cac90611fd7565b60405180910390fd5b80600760003373ffffffffffffffffffffffffffffffffffffffff1673ffffffffffffffffffffffffffffffffffffffff1681526020019081526020016000206000828254610d049190611dbd565b92505081905550610d1533826115a0565b3373ffffffffffffffffffffffffffffffffffffffff167f0f6798a560793a54c3bcfe86a93cde1e73087d944c0ea20544137d412139688582604051610d5b91906119f5565b60405180910390a250565b600080610d71610f30565b90506000610d7f8286610e00565b905083811015610dc4576040517f08c379a0000000000000000000000000000000000000000000000000000000008152600401610dbb90612069565b60405180910390fd5b610dd18286868403610f38565b60019250505092915050565b600080610de8610f30565b9050610df581858561118d565b600191505092915050565b6000600160008473ffffffffffffffffffffffffffffffffffffffff1673ffffffffffffffffffffffffffffffffffffffff16815260200190815260200160002060008373ffffffffffffffffffffffffffffffffffffffff1673ffffffffffffffffffffffffffffffffffffffff16815260200190815260200160002054905092915050565b610e8f611403565b600073ffffffffffffffffffffffffffffffffffffffff168173ffffffffffffffffffffffffffffffffffffffff1603610efe576040517f08c379a0000000000000000000000000000000000000000000000000000000008152600401610ef5906120fb565b60405180910390fd5b610f0781611481565b50565b600860009054906101000a900473ffffffffffffffffffffffffffffffffffffffff1681565b600033905090565b600073ffffffffffffffffffffffffffffffffffffffff168373ffffffffffffffffffffffffffffffffffffffff1603610fa7576040517f08c379a0000000000000000000000000000000000000000000000000000000008152600401610f9e9061218d565b60405180910390fd5b600073ffffffffffffffffffffffffffffffffffffffff168273ffffffffffffffffffffffffffffffffffffffff1603611016576040517f08c379a000000000000000000000000000000000000000000000000000000000815260040161100d9061221f565b60405180910390fd5b80600160008573ffffffffffffffffffffffffffffffffffffffff1673ffffffffffffffffffffffffffffffffffffffff16815260200190815260200160002060008473ffffffffffffffffffffffffffffffffffffffff1673ffffffffffffffffffffffffffffffffffffffff168152602001908152602001600020819055508173ffffffffffffffffffffffffffffffffffffffff168373ffffffffffffffffffffffffffffffffffffffff167f8c5be1e5ebec7d5bd14f71427d1e84f3dd0314c0f7b2291e5b200ac8c7c3b925836040516110f491906119f5565b60405180910390a3505050565b600061110d8484610e00565b90507fffffffffffffffffffffffffffffffffffffffffffffffffffffffffffffffff81146111875781811015611179576040517f08c379a00000000000000000000000000000000000000000000000000000000081526004016111709061228b565b60405180910390fd5b6111868484848403610f38565b5b50505050565b600073ffffffffffffffffffffffffffffffffffffffff168373ffffffffffffffffffffffffffffffffffffffff16036111fc576040517f08c379a00000000000000000000000000000000000000000000000000000000081526004016111f39061231d565b60405180910390fd5b600073ffffffffffffffffffffffffffffffffffffffff168273ffffffffffffffffffffffffffffffffffffffff160361126b576040517f08c379a0000000000000000000000000000000000000000000000000000000008152600401611262906123af565b60405180910390fd5b6112768383836116f6565b60008060008573ffffffffffffffffffffffffffffffffffffffff1673ffffffffffffffffffffffffffffffffffffffff168152602001908152602001600020549050818110156112fc576040517f08c379a00000000000000000000000000000000000000000000000000000000081526004016112f390612441565b60405180910390fd5b8181036000808673ffffffffffffffffffffffffffffffffffffffff1673ffffffffffffffffffffffffffffffffffffffff16815260200190815260200160002081905550816000808573ffffffffffffffffffffffffffffffffffffffff1673ffffffffffffffffffffffffffffffffffffffff168152602001908152602001600020600082825401925050819055508273ffffffffffffffffffffffffffffffffffffffff168473ffffffffffffffffffffffffffffffffffffffff167fddf252ad1be2c89b69c2b068fc378daa952ba7f163c4a11628f55a4df523b3ef846040516113ea91906119f5565b60405180910390a36113fd8484846116fb565b50505050565b61140b610f30565b73ffffffffffffffffffffffffffffffffffffffff1661142961095a565b73ffffffffffffffffffffffffffffffffffffffff161461147f576040517f08c379a0000000000000000000000000000000000000000000000000000000008152600401611476906124ad565b60405180910390fd5b565b6000600560009054906101000a900473ffffffffffffffffffffffffffffffffffffffff16905081600560006101000a81548173ffffffffffffffffffffffffffffffffffffffff021916908373ffffffffffffffffffffffffffffffffffffffff1602179055508173ffffffffffffffffffffffffffffffffffffffff168173ffffffffffffffffffffffffffffffffffffffff167f8be0079c531659141344cd1fd0a4f28419497f9722a3daafe3b4186f6b6457e060405160405180910390a35050565b60026006540361158c576040517f08c379a000000000000000000000000000000000000000000000000000000000815260040161158390612519565b60405180910390fd5b6002600681905550565b6001600681905550565b600073ffffffffffffffffffffffffffffffffffffffff168273ffffffffffffffffffffffffffffffffffffffff160361160f576040517f08c379a000000000000000000000000000000000000000000000000000000000815260040161160690612585565b60405180910390fd5b61161b600083836116f6565b806002600082825461162d9190611dbd565b92505081905550806000808473ffffffffffffffffffffffffffffffffffffffff1673ffffffffffffffffffffffffffffffffffffffff168152602001908152602001600020600082825401925050819055508173ffffffffffffffffffffffffffffffffffffffff16600073ffffffffffffffffffffffffffffffffffffffff167fddf252ad1be2c89b69c2b068fc378daa952ba7f163c4a11628f55a4df523b3ef836040516116de91906119f5565b60405180910390a36116f2600083836116fb565b5050565b505050565b505050565b600080fd5b600069ffffffffffffffffffff82169050919050565b61172481611705565b811461172f57600080fd5b50565b6000815190506117418161171b565b92915050565b6000819050919050565b61175a81611747565b811461176557600080fd5b50565b60008151905061177781611751565b92915050565b6000819050919050565b6117908161177d565b811461179b57600080fd5b50565b6000815190506117ad81611787565b92915050565b600080600080600060a086880312156117cf576117ce611700565b5b60006117dd88828901611732565b95505060206117ee88828901611768565b94505060406117ff8882890161179e565b93505060606118108882890161179e565b925050608061182188828901611732565b9150509295509295909350565b600082825260208201905092915050565b7f496e76616c69642070726963652066726f6d20436861696e6c696e6b00000000600082015250565b6000611875601c8361182e565b91506118808261183f565b602082019050919050565b600060208201905081810360008301526118a481611868565b9050919050565b7f4e487b7100000000000000000000000000000000000000000000000000000000600052601160045260246000fd5b60006118e58261177d565b91506118f08361177d565b92508282026118fe8161177d565b91508282048414831517611915576119146118ab565b5b5092915050565b7f4e487b7100000000000000000000000000000000000000000000000000000000600052601260045260246000fd5b60006119568261177d565b91506119618361177d565b9250826119715761197061191c565b5b828204905092915050565b600073ffffffffffffffffffffffffffffffffffffffff82169050919050565b60006119a78261197c565b9050919050565b6119b78161199c565b82525050565b6119c68161177d565b82525050565b60006040820190506119e160008301856119ae565b6119ee60208301846119bd565b9392505050565b6000602082019050611a0a60008301846119bd565b92915050565b600081519050919050565b60005b83811015611a39578082015181840152602081019050611a1e565b60008484015250505050565b6000601f19601f8301169050919050565b6000611a6182611a10565b611a6b818561182e565b9350611a7b818560208601611a1b565b611a8481611a45565b840191505092915050565b60006020820190508181036000830152611aa98184611a56565b905092915050565b611aba8161199c565b8114611ac557600080fd5b50565b600081359050611ad781611ab1565b92915050565b600081359050611aec81611787565b92915050565b60008060408385031215611b0957611b08611700565b5b6000611b1785828601611ac8565b9250506020611b2885828601611add565b9150509250929050565b60008115159050919050565b611b4781611b32565b82525050565b6000602082019050611b626000830184611b3e565b92915050565b600080600060608486031215611b8157611b80611700565b5b6000611b8f86828701611ac8565b9350506020611ba086828701611ac8565b9250506040611bb186828701611add565b9150509250925092565b600060ff82169050919050565b611bd181611bbb565b82525050565b6000602082019050611bec6000830184611bc8565b92915050565b600060208284031215611c0857611c07611700565b5b6000611c1684828501611ac8565b91505092915050565b6000602082019050611c3460008301846119ae565b92915050565b6000819050919050565b6000611c5f611c5a611c558461197c565b611c3a565b61197c565b9050919050565b6000611c7182611c44565b9050919050565b6000611c8382611c66565b9050919050565b611c9381611c78565b82525050565b6000602082019050611cae6000830184611c8a565b92915050565b600060208284031215611cca57611cc9611700565b5b6000611cd884828501611add565b91505092915050565b60008060408385031215611cf857611cf7611700565b5b6000611d0685828601611ac8565b9250506020611d1785828601611ac8565b9150509250929050565b6000611d2c82611c66565b9050919050565b611d3c81611d21565b82525050565b6000602082019050611d576000830184611d33565b92915050565b7f4e487b7100000000000000000000000000000000000000000000000000000000600052602260045260246000fd5b60006002820490506001821680611da457607f821691505b602082108103611db757611db6611d5d565b5b50919050565b6000611dc88261177d565b9150611dd38361177d565b9250828201905080821115611deb57611dea6118ab565b5b92915050565b7f4d75737420686f6c642061204d65726368616e7420546f6b656e000000000000600082015250565b6000611e27601a8361182e565b9150611e3282611df1565b602082019050919050565b60006020820190508181036000830152611e5681611e1a565b9050919050565b7f496e73756666696369656e74204c6974746572636f696e2062616c616e636500600082015250565b6000611e93601f8361182e565b9150611e9e82611e5d565b602082019050919050565b60006020820190508181036000830152611ec281611e86565b9050919050565b7f4e6f7420656e6f7567682045544820696e20636f6e7472616374000000000000600082015250565b6000611eff601a8361182e565b9150611f0a82611ec9565b602082019050919050565b60006020820190508181036000830152611f2e81611ef2565b9050919050565b6000604082019050611f4a60008301856119bd565b611f5760208301846119bd565b9392505050565b600060208284031215611f7457611f73611700565b5b6000611f828482850161179e565b91505092915050565b7f416d6f756e74206d7573742062652067726561746572207468616e207a65726f600082015250565b6000611fc160208361182e565b9150611fcc82611f8b565b602082019050919050565b60006020820190508181036000830152611ff081611fb4565b9050919050565b7f45524332303a2064656372656173656420616c6c6f77616e63652062656c6f7760008201527f207a65726f000000000000000000000000000000000000000000000000000000602082015250565b600061205360258361182e565b915061205e82611ff7565b604082019050919050565b6000602082019050818103600083015261208281612046565b9050919050565b7f4f776e61626c653a206e6577206f776e657220697320746865207a65726f206160008201527f6464726573730000000000000000000000000000000000000000000000000000602082015250565b60006120e560268361182e565b91506120f082612089565b604082019050919050565b60006020820190508181036000830152612114816120d8565b9050919050565b7f45524332303a20617070726f76652066726f6d20746865207a65726f2061646460008201527f7265737300000000000000000000000000000000000000000000000000000000602082015250565b600061217760248361182e565b91506121828261211b565b604082019050919050565b600060208201905081810360008301526121a68161216a565b9050919050565b7f45524332303a20617070726f766520746f20746865207a65726f20616464726560008201527f7373000000000000000000000000000000000000000000000000000000000000602082015250565b600061220960228361182e565b9150612214826121ad565b604082019050919050565b60006020820190508181036000830152612238816121fc565b9050919050565b7f45524332303a20696e73756666696369656e7420616c6c6f77616e6365000000600082015250565b6000612275601d8361182e565b91506122808261223f565b602082019050919050565b600060208201905081810360008301526122a481612268565b9050919050565b7f45524332303a207472616e736665722066726f6d20746865207a65726f20616460008201527f6472657373000000000000000000000000000000000000000000000000000000602082015250565b600061230760258361182e565b9150612312826122ab565b604082019050919050565b60006020820190508181036000830152612336816122fa565b9050919050565b7f45524332303a207472616e7366657220746f20746865207a65726f206164647260008201527f6573730000000000000000000000000000000000000000000000000000000000602082015250565b600061239960238361182e565b91506123a48261233d565b604082019050919050565b600060208201905081810360008301526123c88161238c565b9050919050565b7f45524332303a207472616e7366657220616d6f756e742065786365656473206260008201527f616c616e63650000000000000000000000000000000000000000000000000000602082015250565b600061242b60268361182e565b9150612436826123cf565b604082019050919050565b6000602082019050818103600083015261245a8161241e565b9050919050565b7f4f776e61626c653a2063616c6c6572206973206e6f7420746865206f776e6572600082015250565b600061249760208361182e565b91506124a282612461565b602082019050919050565b600060208201905081810360008301526124c68161248a565b9050919050565b7f5265656e7472616e637947756172643a207265656e7472616e742063616c6c00600082015250565b6000612503601f8361182e565b915061250e826124cd565b602082019050919050565b60006020820190508181036000830152612532816124f6565b9050919050565b7f45524332303a206d696e7420746f20746865207a65726f206164647265737300600082015250565b600061256f601f8361182e565b915061257a82612539565b602082019050919050565b6000602082019050818103600083015261259e81612562565b905091905056fea26469706673582212204b37b0cc9bcd23faa5f7ccd3f59407fc2532516389d766258bfed326ddfcec7c64736f6c634300081b0033608060405234801561001057600080fd5b506040518060400160405280601081526020017f4f4c4d2052657761726420546f6b656e000000000000000000000000000000008152506040518060400160405280600581526020017f4f4c4d5254000000000000000000000000000000000000000000000000000000815250816003908161008c91906103de565b50806004908161009c91906103de565b5050506100bb6100b06100c060201b60201c565b6100c860201b60201c565b6104b0565b600033905090565b6000600560009054906101000a900473ffffffffffffffffffffffffffffffffffffffff16905081600560006101000a81548173ffffffffffffffffffffffffffffffffffffffff021916908373ffffffffffffffffffffffffffffffffffffffff1602179055508173ffffffffffffffffffffffffffffffffffffffff168173ffffffffffffffffffffffffffffffffffffffff167f8be0079c531659141344cd1fd0a4f28419497f9722a3daafe3b4186f6b6457e060405160405180910390a35050565b600081519050919050565b7f4e487b7100000000000000000000000000000000000000000000000000000000600052604160045260246000fd5b7f4e487b7100000000000000000000000000000000000000000000000000000000600052602260045260246000fd5b6000600282049050600182168061020f57607f821691505b602082108103610222576102216101c8565b5b50919050565b60008190508160005260206000209050919050565b60006020601f8301049050919050565b600082821b905092915050565b60006008830261028a7fffffffffffffffffffffffffffffffffffffffffffffffffffffffffffffffff8261024d565b610294868361024d565b95508019841693508086168417925050509392505050565b6000819050919050565b6000819050919050565b60006102db6102d66102d1846102ac565b6102b6565b6102ac565b9050919050565b6000819050919050565b6102f5836102c0565b610309610301826102e2565b84845461025a565b825550505050565b600090565b61031e610311565b6103298184846102ec565b505050565b5b8181101561034d57610342600082610316565b60018101905061032f565b5050565b601f8211156103925761036381610228565b61036c8461023d565b8101602085101561037b578190505b61038f6103878561023d565b83018261032e565b50505b505050565b600082821c905092915050565b60006103b560001984600802610397565b1980831691505092915050565b60006103ce83836103a4565b9150826002028217905092915050565b6103e78261018e565b67ffffffffffffffff811115610400576103ff610199565b5b61040a82546101f7565b610415828285610351565b600060209050601f8311600181146104485760008415610436578287015190505b61044085826103c2565b8655506104a8565b601f19841661045686610228565b60005b8281101561047e57848901518255600182019150602085019450602081019050610459565b8683101561049b5784890151610497601f8916826103a4565b8355505b6001600288020188555050505b505050505050565b6117e0806104bf6000396000f3fe608060405234801561001057600080fd5b50600436106100f55760003560e01c806370a0823111610097578063a457c2d711610066578063a457c2d714610276578063a9059cbb146102a6578063dd62ed3e146102d6578063f2fde38b14610306576100f5565b806370a0823114610200578063715018a6146102305780638da5cb5b1461023a57806395d89b4114610258576100f5565b806323b872dd116100d357806323b872dd14610166578063313ce5671461019657806339509351146101b457806340c10f19146101e4576100f5565b806306fdde03146100fa578063095ea7b31461011857806318160ddd14610148575b600080fd5b610102610322565b60405161010f9190610f29565b60405180910390f35b610132600480360381019061012d9190610fe4565b6103b4565b60405161013f919061103f565b60405180910390f35b6101506103d7565b60405161015d9190611069565b60405180910390f35b610180600480360381019061017b9190611084565b6103e1565b60405161018d919061103f565b60405180910390f35b61019e610410565b6040516101ab91906110f3565b60405180910390f35b6101ce60048036038101906101c99190610fe4565b610419565b6040516101db919061103f565b60405180910390f35b6101fe60048036038101906101f99190610fe4565b610450565b005b61021a6004803603810190610215919061110e565b610466565b6040516102279190611069565b60405180910390f35b6102386104ae565b005b6102426104c2565b60405161024f919061114a565b60405180910390f35b6102606104ec565b60405161026d9190610f29565b60405180910390f35b610290600480360381019061028b9190610fe4565b61057e565b60405161029d919061103f565b60405180910390f35b6102c060048036038101906102bb9190610fe4565b6105f5565b6040516102cd919061103f565b60405180910390f35b6102f060048036038101906102eb9190611165565b610618565b6040516102fd9190611069565b60405180910390f35b610320600480360381019061031b919061110e565b61069f565b005b606060038054610331906111d4565b80601f016020809104026020016040519081016040528092919081815260200182805461035d906111d4565b80156103aa5780601f1061037f576101008083540402835291602001916103aa565b820191906000526020600020905b81548152906001019060200180831161038d57829003601f168201915b5050505050905090565b6000806103bf610722565b90506103cc81858561072a565b600191505092915050565b6000600254905090565b6000806103ec610722565b90506103f98582856108f3565b61040485858561097f565b60019150509392505050565b60006012905090565b600080610424610722565b90506104458185856104368589610618565b6104409190611234565b61072a565b600191505092915050565b610458610bf5565b6104628282610c73565b5050565b60008060008373ffffffffffffffffffffffffffffffffffffffff1673ffffffffffffffffffffffffffffffffffffffff168152602001908152602001600020549050919050565b6104b6610bf5565b6104c06000610dc9565b565b6000600560009054906101000a900473ffffffffffffffffffffffffffffffffffffffff16905090565b6060600480546104fb906111d4565b80601f0160208091040260200160405190810160405280929190818152602001828054610527906111d4565b80156105745780601f1061054957610100808354040283529160200191610574565b820191906000526020600020905b81548152906001019060200180831161055757829003601f168201915b5050505050905090565b600080610589610722565b905060006105978286610618565b9050838110156105dc576040517f08c379a00000000000000000000000000000000000000000000000000000000081526004016105d3906112da565b60405180910390fd5b6105e9828686840361072a565b60019250505092915050565b600080610600610722565b905061060d81858561097f565b600191505092915050565b6000600160008473ffffffffffffffffffffffffffffffffffffffff1673ffffffffffffffffffffffffffffffffffffffff16815260200190815260200160002060008373ffffffffffffffffffffffffffffffffffffffff1673ffffffffffffffffffffffffffffffffffffffff16815260200190815260200160002054905092915050565b6106a7610bf5565b600073ffffffffffffffffffffffffffffffffffffffff168173ffffffffffffffffffffffffffffffffffffffff1603610716576040517f08c379a000000000000000000000000000000000000000000000000000000000815260040161070d9061136c565b60405180910390fd5b61071f81610dc9565b50565b600033905090565b600073ffffffffffffffffffffffffffffffffffffffff168373ffffffffffffffffffffffffffffffffffffffff1603610799576040517f08c379a0000000000000000000000000000000000000000000000000000000008152600401610790906113fe565b60405180910390fd5b600073ffffffffffffffffffffffffffffffffffffffff168273ffffffffffffffffffffffffffffffffffffffff1603610808576040517f08c379a00000000000000000000000000000000000000000000000000000000081526004016107ff90611490565b60405180910390fd5b80600160008573ffffffffffffffffffffffffffffffffffffffff1673ffffffffffffffffffffffffffffffffffffffff16815260200190815260200160002060008473ffffffffffffffffffffffffffffffffffffffff1673ffffffffffffffffffffffffffffffffffffffff168152602001908152602001600020819055508173ffffffffffffffffffffffffffffffffffffffff168373ffffffffffffffffffffffffffffffffffffffff167f8c5be1e5ebec7d5bd14f71427d1e84f3dd0314c0f7b2291e5b200ac8c7c3b925836040516108e69190611069565b60405180910390a3505050565b60006108ff8484610618565b90507fffffffffffffffffffffffffffffffffffffffffffffffffffffffffffffffff8114610979578181101561096b576040517f08c379a0000000000000000000000000000000000000000000000000000000008152600401610962906114fc565b60405180910390fd5b610978848484840361072a565b5b50505050565b600073ffffffffffffffffffffffffffffffffffffffff168373ffffffffffffffffffffffffffffffffffffffff16036109ee576040517f08c379a00000000000000000000000000000000000000000000000000000000081526004016109e59061158e565b60405180910390fd5b600073ffffffffffffffffffffffffffffffffffffffff168273ffffffffffffffffffffffffffffffffffffffff1603610a5d576040517f08c379a0000000000000000000000000000000000000000000000000000000008152600401610a5490611620565b60405180910390fd5b610a68838383610e8f565b60008060008573ffffffffffffffffffffffffffffffffffffffff1673ffffffffffffffffffffffffffffffffffffffff16815260200190815260200160002054905081811015610aee576040517f08c379a0000000000000000000000000000000000000000000000000000000008152600401610ae5906116b2565b60405180910390fd5b8181036000808673ffffffffffffffffffffffffffffffffffffffff1673ffffffffffffffffffffffffffffffffffffffff16815260200190815260200160002081905550816000808573ffffffffffffffffffffffffffffffffffffffff1673ffffffffffffffffffffffffffffffffffffffff168152602001908152602001600020600082825401925050819055508273ffffffffffffffffffffffffffffffffffffffff168473ffffffffffffffffffffffffffffffffffffffff167fddf252ad1be2c89b69c2b068fc378daa952ba7f163c4a11628f55a4df523b3ef84604051610bdc9190611069565b60405180910390a3610bef848484610e94565b50505050565b610bfd610722565b73ffffffffffffffffffffffffffffffffffffffff16610c1b6104c2565b73ffffffffffffffffffffffffffffffffffffffff1614610c71576040517f08c379a0000000000000000000000000000000000000000000000000000000008152600401610c689061171e565b60405180910390fd5b565b600073ffffffffffffffffffffffffffffffffffffffff168273ffffffffffffffffffffffffffffffffffffffff1603610ce2576040517f08c379a0000000000000000000000000000000000000000000000000000000008152600401610cd99061178a565b60405180910390fd5b610cee60008383610e8f565b8060026000828254610d009190611234565b92505081905550806000808473ffffffffffffffffffffffffffffffffffffffff1673ffffffffffffffffffffffffffffffffffffffff168152602001908152602001600020600082825401925050819055508173ffffffffffffffffffffffffffffffffffffffff16600073ffffffffffffffffffffffffffffffffffffffff167fddf252ad1be2c89b69c2b068fc378daa952ba7f163c4a11628f55a4df523b3ef83604051610db19190611069565b60405180910390a3610dc560008383610e94565b5050565b6000600560009054906101000a900473ffffffffffffffffffffffffffffffffffffffff16905081600560006101000a81548173ffffffffffffffffffffffffffffffffffffffff021916908373ffffffffffffffffffffffffffffffffffffffff1602179055508173ffffffffffffffffffffffffffffffffffffffff168173ffffffffffffffffffffffffffffffffffffffff167f8be0079c531659141344cd1fd0a4f28419497f9722a3daafe3b4186f6b6457e060405160405180910390a35050565b505050565b505050565b600081519050919050565b600082825260208201905092915050565b60005b83811015610ed3578082015181840152602081019050610eb8565b60008484015250505050565b6000601f19601f8301169050919050565b6000610efb82610e99565b610f058185610ea4565b9350610f15818560208601610eb5565b610f1e81610edf565b840191505092915050565b60006020820190508181036000830152610f438184610ef0565b905092915050565b600080fd5b600073ffffffffffffffffffffffffffffffffffffffff82169050919050565b6000610f7b82610f50565b9050919050565b610f8b81610f70565b8114610f9657600080fd5b50565b600081359050610fa881610f82565b92915050565b6000819050919050565b610fc181610fae565b8114610fcc57600080fd5b50565b600081359050610fde81610fb8565b92915050565b60008060408385031215610ffb57610ffa610f4b565b5b600061100985828601610f99565b925050602061101a85828601610fcf565b9150509250929050565b60008115159050919050565b61103981611024565b82525050565b60006020820190506110546000830184611030565b92915050565b61106381610fae565b82525050565b600060208201905061107e600083018461105a565b92915050565b60008060006060848603121561109d5761109c610f4b565b5b60006110ab86828701610f99565b93505060206110bc86828701610f99565b92505060406110cd86828701610fcf565b9150509250925092565b600060ff82169050919050565b6110ed816110d7565b82525050565b600060208201905061110860008301846110e4565b92915050565b60006020828403121561112457611123610f4b565b5b600061113284828501610f99565b91505092915050565b61114481610f70565b82525050565b600060208201905061115f600083018461113b565b92915050565b6000806040838503121561117c5761117b610f4b565b5b600061118a85828601610f99565b925050602061119b85828601610f99565b9150509250929050565b7f4e487b7100000000000000000000000000000000000000000000000000000000600052602260045260246000fd5b600060028204905060018216806111ec57607f821691505b6020821081036111ff576111fe6111a5565b5b50919050565b7f4e487b7100000000000000000000000000000000000000000000000000000000600052601160045260246000fd5b600061123f82610fae565b915061124a83610fae565b925082820190508082111561126257611261611205565b5b92915050565b7f45524332303a2064656372656173656420616c6c6f77616e63652062656c6f7760008201527f207a65726f000000000000000000000000000000000000000000000000000000602082015250565b60006112c4602583610ea4565b91506112cf82611268565b604082019050919050565b600060208201905081810360008301526112f3816112b7565b9050919050565b7f4f776e61626c653a206e6577206f776e657220697320746865207a65726f206160008201527f6464726573730000000000000000000000000000000000000000000000000000602082015250565b6000611356602683610ea4565b9150611361826112fa565b604082019050919050565b6000602082019050818103600083015261138581611349565b9050919050565b7f45524332303a20617070726f76652066726f6d20746865207a65726f2061646460008201527f7265737300000000000000000000000000000000000000000000000000000000602082015250565b60006113e8602483610ea4565b91506113f38261138c565b604082019050919050565b60006020820190508181036000830152611417816113db565b9050919050565b7f45524332303a20617070726f766520746f20746865207a65726f20616464726560008201527f7373000000000000000000000000000000000000000000000000000000000000602082015250565b600061147a602283610ea4565b91506114858261141e565b604082019050919050565b600060208201905081810360008301526114a98161146d565b9050919050565b7f45524332303a20696e73756666696369656e7420616c6c6f77616e6365000000600082015250565b60006114e6601d83610ea4565b91506114f1826114b0565b602082019050919050565b60006020820190508181036000830152611515816114d9565b9050919050565b7f45524332303a207472616e736665722066726f6d20746865207a65726f20616460008201527f6472657373000000000000000000000000000000000000000000000000000000602082015250565b6000611578602583610ea4565b91506115838261151c565b604082019050919050565b600060208201905081810360008301526115a78161156b565b9050919050565b7f45524332303a207472616e7366657220746f20746865207a65726f206164647260008201527f6573730000000000000000000000000000000000000000000000000000000000602082015250565b600061160a602383610ea4565b9150611615826115ae565b604082019050919050565b60006020820190508181036000830152611639816115fd565b9050919050565b7f45524332303a207472616e7366657220616d6f756e742065786365656473206260008201527f616c616e63650000000000000000000000000000000000000000000000000000602082015250565b600061169c602683610ea4565b91506116a782611640565b604082019050919050565b600060208201905081810360008301526116cb8161168f565b9050919050565b7f4f776e61626c653a2063616c6c6572206973206e6f7420746865206f776e6572600082015250565b6000611708602083610ea4565b9150611713826116d2565b602082019050919050565b60006020820190508181036000830152611737816116fb565b9050919050565b7f45524332303a206d696e7420746f20746865207a65726f206164647265737300600082015250565b6000611774601f83610ea4565b915061177f8261173e565b602082019050919050565b600060208201905081810360008301526117a381611767565b905091905056fea2646970667358221220af20ee9085baea6d3365493d9a9c372a7cee3e7ac2647d892ac51a03d58530b864736f6c634300081b0033608060405234801561001057600080fd5b506040518060400160405280600d81526020017f4d65726368616e74546f6b656e000000000000000000000000000000000000008152506040518060400160405280600481526020017f4c434d5400000000000000000000000000000000000000000000000000000000815250816000908161008c91906103e6565b50806001908161009c91906103e6565b5050506100bb6100b06100c860201b60201c565b6100d060201b60201c565b6001600b819055506104b8565b600033905090565b6000600a60009054906101000a900473ffffffffffffffffffffffffffffffffffffffff16905081600a60006101000a81548173ffffffffffffffffffffffffffffffffffffffff021916908373ffffffffffffffffffffffffffffffffffffffff1602179055508173ffffffffffffffffffffffffffffffffffffffff168173ffffffffffffffffffffffffffffffffffffffff167f8be0079c531659141344cd1fd0a4f28419497f9722a3daafe3b4186f6b6457e060405160405180910390a35050565b600081519050919050565b7f4e487b7100000000000000000000000000000000000000000000000000000000600052604160045260246000fd5b7f4e487b7100000000000000000000000000000000000000000000000000000000600052602260045260246000fd5b6000600282049050600182168061021757607f821691505b60208210810361022a576102296101d0565b5b50919050565b60008190508160005260206000209050919050565b60006020601f8301049050919050565b600082821b905092915050565b6000600883026102927fffffffffffffffffffffffffffffffffffffffffffffffffffffffffffffffff82610255565b61029c8683610255565b95508019841693508086168417925050509392505050565b6000819050919050565b6000819050919050565b60006102e36102de6102d9846102b4565b6102be565b6102b4565b9050919050565b6000819050919050565b6102fd836102c8565b610311610309826102ea565b848454610262565b825550505050565b600090565b610326610319565b6103318184846102f4565b505050565b5b818110156103555761034a60008261031e565b600181019050610337565b5050565b601f82111561039a5761036b81610230565b61037484610245565b81016020851015610383578190505b61039761038f85610245565b830182610336565b50505b505050565b600082821c905092915050565b60006103bd6000198460080261039f565b1980831691505092915050565b60006103d683836103ac565b9150826002028217905092915050565b6103ef82610196565b67ffffffffffffffff811115610408576104076101a1565b5b61041282546101ff565b61041d828285610359565b600060209050601f831160018114610450576000841561043e578287015190505b61044885826103ca565b8655506104b0565b601f19841661045e86610230565b60005b8281101561048657848901518255600182019150602085019450602081019050610461565b868310156104a3578489015161049f601f8916826103ac565b8355505b6001600288020188555050505b505050505050565b613487806104c76000396000f3fe608060405234801561001057600080fd5b50600436106101585760003560e01c806370a08231116100c3578063b88d4fde1161007c578063b88d4fde146103d9578063c87b56dd146103f5578063d082e38114610425578063d9548e5314610443578063e985e9c514610473578063f2fde38b146104a357610158565b806370a0823114610329578063715018a6146103595780638da5cb5b1461036357806395d89b41146103815780639611562e1461039f578063a22cb465146103bd57610158565b806323b872dd1161011557806323b872dd146102455780632f745c591461026157806342842e0e146102915780634f6ccce7146102ad5780636352211e146102dd5780636a6278421461030d57610158565b806301ffc9a71461015d57806306fdde031461018d578063081812fc146101ab578063095ea7b3146101db57806313c72608146101f757806318160ddd14610227575b600080fd5b61017760048036038101906101729190612345565b6104bf565b604051610184919061238d565b60405180910390f35b6101956104d1565b6040516101a29190612438565b60405180910390f35b6101c560048036038101906101c09190612490565b610563565b6040516101d291906124fe565b60405180910390f35b6101f560048036038101906101f09190612545565b6105a9565b005b610211600480360381019061020c9190612490565b6106c0565b60405161021e9190612594565b60405180910390f35b61022f610725565b60405161023c9190612594565b60405180910390f35b61025f600480360381019061025a91906125af565b610732565b005b61027b60048036038101906102769190612545565b610792565b6040516102889190612594565b60405180910390f35b6102ab60048036038101906102a691906125af565b610837565b005b6102c760048036038101906102c29190612490565b610857565b6040516102d49190612594565b60405180910390f35b6102f760048036038101906102f29190612490565b6108c8565b60405161030491906124fe565b60405180910390f35b61032760048036038101906103229190612602565b61094e565b005b610343600480360381019061033e9190612602565b610a02565b6040516103509190612594565b60405180910390f35b610361610ab9565b005b61036b610acd565b60405161037891906124fe565b60405180910390f35b610389610af7565b6040516103969190612438565b60405180910390f35b6103a7610b89565b6040516103b49190612594565b60405180910390f35b6103d760048036038101906103d2919061265b565b610b91565b005b6103f360048036038101906103ee91906127d0565b610ba7565b005b61040f600480360381019061040a9190612490565b610c09565b60405161041c9190612438565b60405180910390f35b61042d610c71565b60405161043a9190612594565b60405180910390f35b61045d60048036038101906104589190612490565b610c77565b60405161046a919061238d565b60405180910390f35b61048d60048036038101906104889190612853565b610cde565b60405161049a919061238d565b60405180910390f35b6104bd60048036038101906104b89190612602565b610d72565b005b60006104ca82610df5565b9050919050565b6060600080546104e0906128c2565b80601f016020809104026020016040519081016040528092919081815260200182805461050c906128c2565b80156105595780601f1061052e57610100808354040283529160200191610559565b820191906000526020600020905b81548152906001019060200180831161053c57829003601f168201915b5050505050905090565b600061056e82610e6f565b6004600083815260200190815260200160002060009054906101000a900473ffffffffffffffffffffffffffffffffffffffff169050919050565b60006105b4826108c8565b90508073ffffffffffffffffffffffffffffffffffffffff168373ffffffffffffffffffffffffffffffffffffffff1603610624576040517f08c379a000000000000000000000000000000000000000000000000000000000815260040161061b90612965565b60405180910390fd5b8073ffffffffffffffffffffffffffffffffffffffff16610643610eba565b73ffffffffffffffffffffffffffffffffffffffff16148061067257506106718161066c610eba565b610cde565b5b6106b1576040517f08c379a00000000000000000000000000000000000000000000000000000000081526004016106a8906129f7565b60405180910390fd5b6106bb8383610ec2565b505050565b60006106cb82610f7b565b61070a576040517f08c379a000000000000000000000000000000000000000000000000000000000815260040161070190612a63565b60405180910390fd5b600c6000838152602001908152602001600020549050919050565b6000600880549050905090565b61074361073d610eba565b82610fbc565b610782576040517f08c379a000000000000000000000000000000000000000000000000000000000815260040161077990612af5565b60405180910390fd5b61078d838383611051565b505050565b600061079d83610a02565b82106107de576040517f08c379a00000000000000000000000000000000000000000000000000000000081526004016107d590612b87565b60405180910390fd5b600660008473ffffffffffffffffffffffffffffffffffffffff1673ffffffffffffffffffffffffffffffffffffffff168152602001908152602001600020600083815260200190815260200160002054905092915050565b61085283838360405180602001604052806000815250610ba7565b505050565b6000610861610725565b82106108a2576040517f08c379a000000000000000000000000000000000000000000000000000000000815260040161089990612c19565b60405180910390fd5b600882815481106108b6576108b5612c39565b5b90600052602060002001549050919050565b6000806108d48361134a565b9050600073ffffffffffffffffffffffffffffffffffffffff168173ffffffffffffffffffffffffffffffffffffffff1603610945576040517f08c379a000000000000000000000000000000000000000000000000000000000815260040161093c90612cb4565b60405180910390fd5b80915050919050565b610956611387565b6000600b5490506001600b60008282546109709190612d03565b9250508190555060006301e13380426109899190612d03565b905080600c6000848152602001908152602001600020819055506109ad8383611405565b8273ffffffffffffffffffffffffffffffffffffffff167f655ff37b06d138fc26fda07d435a40368e63b8d3cbd7835215334ff9e7fcd78283836040516109f5929190612d37565b60405180910390a2505050565b60008073ffffffffffffffffffffffffffffffffffffffff168273ffffffffffffffffffffffffffffffffffffffff1603610a72576040517f08c379a0000000000000000000000000000000000000000000000000000000008152600401610a6990612dd2565b60405180910390fd5b600360008373ffffffffffffffffffffffffffffffffffffffff1673ffffffffffffffffffffffffffffffffffffffff168152602001908152602001600020549050919050565b610ac1611387565b610acb6000611423565b565b6000600a60009054906101000a900473ffffffffffffffffffffffffffffffffffffffff16905090565b606060018054610b06906128c2565b80601f0160208091040260200160405190810160405280929190818152602001828054610b32906128c2565b8015610b7f5780601f10610b5457610100808354040283529160200191610b7f565b820191906000526020600020905b815481529060010190602001808311610b6257829003601f168201915b5050505050905090565b6301e1338081565b610ba3610b9c610eba565b83836114e9565b5050565b610bb8610bb2610eba565b83610fbc565b610bf7576040517f08c379a0000000000000000000000000000000000000000000000000000000008152600401610bee90612af5565b60405180910390fd5b610c0384848484611655565b50505050565b6060610c1482610e6f565b6000610c1e6116b1565b90506000815111610c3e5760405180602001604052806000815250610c69565b80610c48846116c8565b604051602001610c59929190612e2e565b6040516020818303038152906040525b915050919050565b600b5481565b6000610c8282610f7b565b610cc1576040517f08c379a0000000000000000000000000000000000000000000000000000000008152600401610cb890612a63565b60405180910390fd5b600c60008381526020019081526020016000205442119050919050565b6000600560008473ffffffffffffffffffffffffffffffffffffffff1673ffffffffffffffffffffffffffffffffffffffff16815260200190815260200160002060008373ffffffffffffffffffffffffffffffffffffffff1673ffffffffffffffffffffffffffffffffffffffff16815260200190815260200160002060009054906101000a900460ff16905092915050565b610d7a611387565b600073ffffffffffffffffffffffffffffffffffffffff168173ffffffffffffffffffffffffffffffffffffffff1603610de9576040517f08c379a0000000000000000000000000000000000000000000000000000000008152600401610de090612ec4565b60405180910390fd5b610df281611423565b50565b60007f780e9d63000000000000000000000000000000000000000000000000000000007bffffffffffffffffffffffffffffffffffffffffffffffffffffffff1916827bffffffffffffffffffffffffffffffffffffffffffffffffffffffff19161480610e685750610e6782611796565b5b9050919050565b610e7881610f7b565b610eb7576040517f08c379a0000000000000000000000000000000000000000000000000000000008152600401610eae90612cb4565b60405180910390fd5b50565b600033905090565b816004600083815260200190815260200160002060006101000a81548173ffffffffffffffffffffffffffffffffffffffff021916908373ffffffffffffffffffffffffffffffffffffffff160217905550808273ffffffffffffffffffffffffffffffffffffffff16610f35836108c8565b73ffffffffffffffffffffffffffffffffffffffff167f8c5be1e5ebec7d5bd14f71427d1e84f3dd0314c0f7b2291e5b200ac8c7c3b92560405160405180910390a45050565b60008073ffffffffffffffffffffffffffffffffffffffff16610f9d8361134a565b73ffffffffffffffffffffffffffffffffffffffff1614159050919050565b600080610fc8836108c8565b90508073ffffffffffffffffffffffffffffffffffffffff168473ffffffffffffffffffffffffffffffffffffffff16148061100a57506110098185610cde565b5b8061104857508373ffffffffffffffffffffffffffffffffffffffff1661103084610563565b73ffffffffffffffffffffffffffffffffffffffff16145b91505092915050565b8273ffffffffffffffffffffffffffffffffffffffff16611071826108c8565b73ffffffffffffffffffffffffffffffffffffffff16146110c7576040517f08c379a00000000000000000000000000000000000000000000000000000000081526004016110be90612f56565b60405180910390fd5b600073ffffffffffffffffffffffffffffffffffffffff168273ffffffffffffffffffffffffffffffffffffffff1603611136576040517f08c379a000000000000000000000000000000000000000000000000000000000815260040161112d90612fe8565b60405180910390fd5b6111438383836001611878565b8273ffffffffffffffffffffffffffffffffffffffff16611163826108c8565b73ffffffffffffffffffffffffffffffffffffffff16146111b9576040517f08c379a00000000000000000000000000000000000000000000000000000000081526004016111b090612f56565b60405180910390fd5b6004600082815260200190815260200160002060006101000a81549073ffffffffffffffffffffffffffffffffffffffff02191690556001600360008573ffffffffffffffffffffffffffffffffffffffff1673ffffffffffffffffffffffffffffffffffffffff168152602001908152602001600020600082825403925050819055506001600360008473ffffffffffffffffffffffffffffffffffffffff1673ffffffffffffffffffffffffffffffffffffffff16815260200190815260200160002060008282540192505081905550816002600083815260200190815260200160002060006101000a81548173ffffffffffffffffffffffffffffffffffffffff021916908373ffffffffffffffffffffffffffffffffffffffff160217905550808273ffffffffffffffffffffffffffffffffffffffff168473ffffffffffffffffffffffffffffffffffffffff167fddf252ad1be2c89b69c2b068fc378daa952ba7f163c4a11628f55a4df523b3ef60405160405180910390a4611345838383600161188a565b505050565b60006002600083815260200190815260200160002060009054906101000a900473ffffffffffffffffffffffffffffffffffffffff169050919050565b61138f610eba565b73ffffffffffffffffffffffffffffffffffffffff166113ad610acd565b73ffffffffffffffffffffffffffffffffffffffff1614611403576040517f08c379a00000000000000000000000000000000000000000000000000000000081526004016113fa90613054565b60405180910390fd5b565b61141f828260405180602001604052806000815250611890565b5050565b6000600a60009054906101000a900473ffffffffffffffffffffffffffffffffffffffff16905081600a60006101000a81548173ffffffffffffffffffffffffffffffffffffffff021916908373ffffffffffffffffffffffffffffffffffffffff1602179055508173ffffffffffffffffffffffffffffffffffffffff168173ffffffffffffffffffffffffffffffffffffffff167f8be0079c531659141344cd1fd0a4f28419497f9722a3daafe3b4186f6b6457e060405160405180910390a35050565b8173ffffffffffffffffffffffffffffffffffffffff168373ffffffffffffffffffffffffffffffffffffffff1603611557576040517f08c379a000000000000000000000000000000000000000000000000000000000815260040161154e906130c0565b60405180910390fd5b80600560008573ffffffffffffffffffffffffffffffffffffffff1673ffffffffffffffffffffffffffffffffffffffff16815260200190815260200160002060008473ffffffffffffffffffffffffffffffffffffffff1673ffffffffffffffffffffffffffffffffffffffff16815260200190815260200160002060006101000a81548160ff0219169083151502179055508173ffffffffffffffffffffffffffffffffffffffff168373ffffffffffffffffffffffffffffffffffffffff167f17307eab39ab6107e8899845ad3d59bd9653f200f220920489ca2b5937696c3183604051611648919061238d565b60405180910390a3505050565b611660848484611051565b61166c848484846118eb565b6116ab576040517f08c379a00000000000000000000000000000000000000000000000000000000081526004016116a290613152565b60405180910390fd5b50505050565b606060405180602001604052806000815250905090565b6060600060016116d784611a72565b01905060008167ffffffffffffffff8111156116f6576116f56126a5565b5b6040519080825280601f01601f1916602001820160405280156117285781602001600182028036833780820191505090505b509050600082602001820190505b60011561178b578080600190039150507f3031323334353637383961626364656600000000000000000000000000000000600a86061a8153600a858161177f5761177e613172565b5b04945060008503611736575b819350505050919050565b60007f80ac58cd000000000000000000000000000000000000000000000000000000007bffffffffffffffffffffffffffffffffffffffffffffffffffffffff1916827bffffffffffffffffffffffffffffffffffffffffffffffffffffffff1916148061186157507f5b5e139f000000000000000000000000000000000000000000000000000000007bffffffffffffffffffffffffffffffffffffffffffffffffffffffff1916827bffffffffffffffffffffffffffffffffffffffffffffffffffffffff1916145b80611871575061187082611bc5565b5b9050919050565b61188484848484611c2f565b50505050565b50505050565b61189a8383611d8d565b6118a760008484846118eb565b6118e6576040517f08c379a00000000000000000000000000000000000000000000000000000000081526004016118dd90613152565b60405180910390fd5b505050565b600061190c8473ffffffffffffffffffffffffffffffffffffffff16611faa565b15611a65578373ffffffffffffffffffffffffffffffffffffffff1663150b7a02611935610eba565b8786866040518563ffffffff1660e01b815260040161195794939291906131f6565b6020604051808303816000875af192505050801561199357506040513d601f19601f820116820180604052508101906119909190613257565b60015b611a15573d80600081146119c3576040519150601f19603f3d011682016040523d82523d6000602084013e6119c8565b606091505b506000815103611a0d576040517f08c379a0000000000000000000000000000000000000000000000000000000008152600401611a0490613152565b60405180910390fd5b805181602001fd5b63150b7a0260e01b7bffffffffffffffffffffffffffffffffffffffffffffffffffffffff1916817bffffffffffffffffffffffffffffffffffffffffffffffffffffffff191614915050611a6a565b600190505b949350505050565b600080600090507a184f03e93ff9f4daa797ed6e38ed64bf6a1f0100000000000000008310611ad0577a184f03e93ff9f4daa797ed6e38ed64bf6a1f0100000000000000008381611ac657611ac5613172565b5b0492506040810190505b6d04ee2d6d415b85acef81000000008310611b0d576d04ee2d6d415b85acef81000000008381611b0357611b02613172565b5b0492506020810190505b662386f26fc100008310611b3c57662386f26fc100008381611b3257611b31613172565b5b0492506010810190505b6305f5e1008310611b65576305f5e1008381611b5b57611b5a613172565b5b0492506008810190505b6127108310611b8a576127108381611b8057611b7f613172565b5b0492506004810190505b60648310611bad5760648381611ba357611ba2613172565b5b0492506002810190505b600a8310611bbc576001810190505b80915050919050565b60007f01ffc9a7000000000000000000000000000000000000000000000000000000007bffffffffffffffffffffffffffffffffffffffffffffffffffffffff1916827bffffffffffffffffffffffffffffffffffffffffffffffffffffffff1916149050919050565b611c3b84848484611fcd565b6001811115611c7f576040517f08c379a0000000000000000000000000000000000000000000000000000000008152600401611c76906132f6565b60405180910390fd5b6000829050600073ffffffffffffffffffffffffffffffffffffffff168573ffffffffffffffffffffffffffffffffffffffff1603611cc657611cc181611fd3565b611d05565b8373ffffffffffffffffffffffffffffffffffffffff168573ffffffffffffffffffffffffffffffffffffffff1614611d0457611d03858261201c565b5b5b600073ffffffffffffffffffffffffffffffffffffffff168473ffffffffffffffffffffffffffffffffffffffff1603611d4757611d4281612189565b611d86565b8473ffffffffffffffffffffffffffffffffffffffff168473ffffffffffffffffffffffffffffffffffffffff1614611d8557611d84848261225a565b5b5b5050505050565b600073ffffffffffffffffffffffffffffffffffffffff168273ffffffffffffffffffffffffffffffffffffffff1603611dfc576040517f08c379a0000000000000000000000000000000000000000000000000000000008152600401611df390613362565b60405180910390fd5b611e0581610f7b565b15611e45576040517f08c379a0000000000000000000000000000000000000000000000000000000008152600401611e3c906133ce565b60405180910390fd5b611e53600083836001611878565b611e5c81610f7b565b15611e9c576040517f08c379a0000000000000000000000000000000000000000000000000000000008152600401611e93906133ce565b60405180910390fd5b6001600360008473ffffffffffffffffffffffffffffffffffffffff1673ffffffffffffffffffffffffffffffffffffffff16815260200190815260200160002060008282540192505081905550816002600083815260200190815260200160002060006101000a81548173ffffffffffffffffffffffffffffffffffffffff021916908373ffffffffffffffffffffffffffffffffffffffff160217905550808273ffffffffffffffffffffffffffffffffffffffff16600073ffffffffffffffffffffffffffffffffffffffff167fddf252ad1be2c89b69c2b068fc378daa952ba7f163c4a11628f55a4df523b3ef60405160405180910390a4611fa660008383600161188a565b5050565b6000808273ffffffffffffffffffffffffffffffffffffffff163b119050919050565b50505050565b6008805490506009600083815260200190815260200160002081905550600881908060018154018082558091505060019003906000526020600020016000909190919091505550565b6000600161202984610a02565b61203391906133ee565b9050600060076000848152602001908152602001600020549050818114612118576000600660008673ffffffffffffffffffffffffffffffffffffffff1673ffffffffffffffffffffffffffffffffffffffff168152602001908152602001600020600084815260200190815260200160002054905080600660008773ffffffffffffffffffffffffffffffffffffffff1673ffffffffffffffffffffffffffffffffffffffff168152602001908152602001600020600084815260200190815260200160002081905550816007600083815260200190815260200160002081905550505b6007600084815260200190815260200160002060009055600660008573ffffffffffffffffffffffffffffffffffffffff1673ffffffffffffffffffffffffffffffffffffffff16815260200190815260200160002060008381526020019081526020016000206000905550505050565b6000600160088054905061219d91906133ee565b90506000600960008481526020019081526020016000205490506000600883815481106121cd576121cc612c39565b5b9060005260206000200154905080600883815481106121ef576121ee612c39565b5b90600052602060002001819055508160096000838152602001908152602001600020819055506009600085815260200190815260200160002060009055600880548061223e5761223d613422565b5b6001900381819060005260206000200160009055905550505050565b600061226583610a02565b905081600660008573ffffffffffffffffffffffffffffffffffffffff1673ffffffffffffffffffffffffffffffffffffffff168152602001908152602001600020600083815260200190815260200160002081905550806007600084815260200190815260200160002081905550505050565b6000604051905090565b600080fd5b600080fd5b60007fffffffff0000000000000000000000000000000000000000000000000000000082169050919050565b612322816122ed565b811461232d57600080fd5b50565b60008135905061233f81612319565b92915050565b60006020828403121561235b5761235a6122e3565b5b600061236984828501612330565b91505092915050565b60008115159050919050565b61238781612372565b82525050565b60006020820190506123a2600083018461237e565b92915050565b600081519050919050565b600082825260208201905092915050565b60005b838110156123e25780820151818401526020810190506123c7565b60008484015250505050565b6000601f19601f8301169050919050565b600061240a826123a8565b61241481856123b3565b93506124248185602086016123c4565b61242d816123ee565b840191505092915050565b6000602082019050818103600083015261245281846123ff565b905092915050565b6000819050919050565b61246d8161245a565b811461247857600080fd5b50565b60008135905061248a81612464565b92915050565b6000602082840312156124a6576124a56122e3565b5b60006124b48482850161247b565b91505092915050565b600073ffffffffffffffffffffffffffffffffffffffff82169050919050565b60006124e8826124bd565b9050919050565b6124f8816124dd565b82525050565b600060208201905061251360008301846124ef565b92915050565b612522816124dd565b811461252d57600080fd5b50565b60008135905061253f81612519565b92915050565b6000806040838503121561255c5761255b6122e3565b5b600061256a85828601612530565b925050602061257b8582860161247b565b9150509250929050565b61258e8161245a565b82525050565b60006020820190506125a96000830184612585565b92915050565b6000806000606084860312156125c8576125c76122e3565b5b60006125d686828701612530565b93505060206125e786828701612530565b92505060406125f88682870161247b565b9150509250925092565b600060208284031215612618576126176122e3565b5b600061262684828501612530565b91505092915050565b61263881612372565b811461264357600080fd5b50565b6000813590506126558161262f565b92915050565b60008060408385031215612672576126716122e3565b5b600061268085828601612530565b925050602061269185828601612646565b9150509250929050565b600080fd5b600080fd5b7f4e487b7100000000000000000000000000000000000000000000000000000000600052604160045260246000fd5b6126dd826123ee565b810181811067ffffffffffffffff821117156126fc576126fb6126a5565b5b80604052505050565b600061270f6122d9565b905061271b82826126d4565b919050565b600067ffffffffffffffff82111561273b5761273a6126a5565b5b612744826123ee565b9050602081019050919050565b82818337600083830152505050565b600061277361276e84612720565b612705565b90508281526020810184848401111561278f5761278e6126a0565b5b61279a848285612751565b509392505050565b600082601f8301126127b7576127b661269b565b5b81356127c7848260208601612760565b91505092915050565b600080600080608085870312156127ea576127e96122e3565b5b60006127f887828801612530565b945050602061280987828801612530565b935050604061281a8782880161247b565b925050606085013567ffffffffffffffff81111561283b5761283a6122e8565b5b612847878288016127a2565b91505092959194509250565b6000806040838503121561286a576128696122e3565b5b600061287885828601612530565b925050602061288985828601612530565b9150509250929050565b7f4e487b7100000000000000000000000000000000000000000000000000000000600052602260045260246000fd5b600060028204905060018216806128da57607f821691505b6020821081036128ed576128ec612893565b5b50919050565b7f4552433732313a20617070726f76616c20746f2063757272656e74206f776e6560008201527f7200000000000000000000000000000000000000000000000000000000000000602082015250565b600061294f6021836123b3565b915061295a826128f3565b604082019050919050565b6000602082019050818103600083015261297e81612942565b9050919050565b7f4552433732313a20617070726f76652063616c6c6572206973206e6f7420746f60008201527f6b656e206f776e6572206f7220617070726f76656420666f7220616c6c000000602082015250565b60006129e1603d836123b3565b91506129ec82612985565b604082019050919050565b60006020820190508181036000830152612a10816129d4565b9050919050565b7f546f6b656e20646f6573206e6f74206578697374000000000000000000000000600082015250565b6000612a4d6014836123b3565b9150612a5882612a17565b602082019050919050565b60006020820190508181036000830152612a7c81612a40565b9050919050565b7f4552433732313a2063616c6c6572206973206e6f7420746f6b656e206f776e6560008201527f72206f7220617070726f76656400000000000000000000000000000000000000602082015250565b6000612adf602d836123b3565b9150612aea82612a83565b604082019050919050565b60006020820190508181036000830152612b0e81612ad2565b9050919050565b7f455243373231456e756d657261626c653a206f776e657220696e646578206f7560008201527f74206f6620626f756e6473000000000000000000000000000000000000000000602082015250565b6000612b71602b836123b3565b9150612b7c82612b15565b604082019050919050565b60006020820190508181036000830152612ba081612b64565b9050919050565b7f455243373231456e756d657261626c653a20676c6f62616c20696e646578206f60008201527f7574206f6620626f756e64730000000000000000000000000000000000000000602082015250565b6000612c03602c836123b3565b9150612c0e82612ba7565b604082019050919050565b60006020820190508181036000830152612c3281612bf6565b9050919050565b7f4e487b7100000000000000000000000000000000000000000000000000000000600052603260045260246000fd5b7f4552433732313a20696e76616c696420746f6b656e2049440000000000000000600082015250565b6000612c9e6018836123b3565b9150612ca982612c68565b602082019050919050565b60006020820190508181036000830152612ccd81612c91565b9050919050565b7f4e487b7100000000000000000000000000000000000000000000000000000000600052601160045260246000fd5b6000612d0e8261245a565b9150612d198361245a565b9250828201905080821115612d3157612d30612cd4565b5b92915050565b6000604082019050612d4c6000830185612585565b612d596020830184612585565b9392505050565b7f4552433732313a2061646472657373207a65726f206973206e6f74206120766160008201527f6c6964206f776e65720000000000000000000000000000000000000000000000602082015250565b6000612dbc6029836123b3565b9150612dc782612d60565b604082019050919050565b60006020820190508181036000830152612deb81612daf565b9050919050565b600081905092915050565b6000612e08826123a8565b612e128185612df2565b9350612e228185602086016123c4565b80840191505092915050565b6000612e3a8285612dfd565b9150612e468284612dfd565b91508190509392505050565b7f4f776e61626c653a206e6577206f776e657220697320746865207a65726f206160008201527f6464726573730000000000000000000000000000000000000000000000000000602082015250565b6000612eae6026836123b3565b9150612eb982612e52565b604082019050919050565b60006020820190508181036000830152612edd81612ea1565b9050919050565b7f4552433732313a207472616e736665722066726f6d20696e636f72726563742060008201527f6f776e6572000000000000000000000000000000000000000000000000000000602082015250565b6000612f406025836123b3565b9150612f4b82612ee4565b604082019050919050565b60006020820190508181036000830152612f6f81612f33565b9050919050565b7f4552433732313a207472616e7366657220746f20746865207a65726f2061646460008201527f7265737300000000000000000000000000000000000000000000000000000000602082015250565b6000612fd26024836123b3565b9150612fdd82612f76565b604082019050919050565b6000602082019050818103600083015261300181612fc5565b9050919050565b7f4f776e61626c653a2063616c6c6572206973206e6f7420746865206f776e6572600082015250565b600061303e6020836123b3565b915061304982613008565b602082019050919050565b6000602082019050818103600083015261306d81613031565b9050919050565b7f4552433732313a20617070726f766520746f2063616c6c657200000000000000600082015250565b60006130aa6019836123b3565b91506130b582613074565b602082019050919050565b600060208201905081810360008301526130d98161309d565b9050919050565b7f4552433732313a207472616e7366657220746f206e6f6e20455243373231526560008201527f63656976657220696d706c656d656e7465720000000000000000000000000000602082015250565b600061313c6032836123b3565b9150613147826130e0565b604082019050919050565b6000602082019050818103600083015261316b8161312f565b9050919050565b7f4e487b7100000000000000000000000000000000000000000000000000000000600052601260045260246000fd5b600081519050919050565b600082825260208201905092915050565b60006131c8826131a1565b6131d281856131ac565b93506131e28185602086016123c4565b6131eb816123ee565b840191505092915050565b600060808201905061320b60008301876124ef565b61321860208301866124ef565b6132256040830185612585565b818103606083015261323781846131bd565b905095945050505050565b60008151905061325181612319565b92915050565b60006020828403121561326d5761326c6122e3565b5b600061327b84828501613242565b91505092915050565b7f455243373231456e756d657261626c653a20636f6e736563757469766520747260008201527f616e7366657273206e6f7420737570706f727465640000000000000000000000602082015250565b60006132e06035836123b3565b91506132eb82613284565b604082019050919050565b6000602082019050818103600083015261330f816132d3565b9050919050565b7f4552433732313a206d696e7420746f20746865207a65726f2061646472657373600082015250565b600061334c6020836123b3565b915061335782613316565b602082019050919050565b6000602082019050818103600083015261337b8161333f565b9050919050565b7f4552433732313a20746f6b656e20616c7265616479206d696e74656400000000600082015250565b60006133b8601c836123b3565b91506133c382613382565b602082019050919050565b600060208201905081810360008301526133e7816133ab565b9050919050565b60006133f98261245a565b91506134048361245a565b925082820390508181111561341c5761341b612cd4565b5b92915050565b7f4e487b7100000000000000000000000000000000000000000000000000000000600052603160045260246000fdfea2646970667358221220111cbd916737b083a0c2fd4d34bc9c53beeba439db68f49b77591b3ea198e4d564736f6c634300081b0033",
  "linkReferences": {},
  "deployedLinkReferences": {}
}