{
  "_format": "hh-sol-artifact-1",
  "contractName": "Littercoin",
  "sourceName": "contracts/Littercoin.sol",
  "abi": [
    {
      "inputs": [
        {
          "internalType": "address",
          "name": "_priceFeed",
          "type": "address"
        }
      ],
      "stateMutability": "nonpayable",
      "type": "constructor"
    },
    {
      "inputs": [],
      "name": "ECDSAInvalidSignature",
      "type": "error"
    },
    {
      "inputs": [
        {
          "internalType": "uint256",
          "name": "length",
          "type": "uint256"
        }
      ],
      "name": "ECDSAInvalidSignatureLength",
      "type": "error"
    },
    {
      "inputs": [
        {
          "internalType": "bytes32",
          "name": "s",
          "type": "bytes32"
        }
      ],
      "name": "ECDSAInvalidSignatureS",
      "type": "error"
    },
    {
      "inputs": [],
      "name": "ERC721EnumerableForbiddenBatchMint",
      "type": "error"
    },
    {
      "inputs": [
        {
          "internalType": "address",
          "name": "sender",
          "type": "address"
        },
        {
          "internalType": "uint256",
          "name": "tokenId",
          "type": "uint256"
        },
        {
          "internalType": "address",
          "name": "owner",
          "type": "address"
        }
      ],
      "name": "ERC721IncorrectOwner",
      "type": "error"
    },
    {
      "inputs": [
        {
          "internalType": "address",
          "name": "operator",
          "type": "address"
        },
        {
          "internalType": "uint256",
          "name": "tokenId",
          "type": "uint256"
        }
      ],
      "name": "ERC721InsufficientApproval",
      "type": "error"
    },
    {
      "inputs": [
        {
          "internalType": "address",
          "name": "approver",
          "type": "address"
        }
      ],
      "name": "ERC721InvalidApprover",
      "type": "error"
    },
    {
      "inputs": [
        {
          "internalType": "address",
          "name": "operator",
          "type": "address"
        }
      ],
      "name": "ERC721InvalidOperator",
      "type": "error"
    },
    {
      "inputs": [
        {
          "internalType": "address",
          "name": "owner",
          "type": "address"
        }
      ],
      "name": "ERC721InvalidOwner",
      "type": "error"
    },
    {
      "inputs": [
        {
          "internalType": "address",
          "name": "receiver",
          "type": "address"
        }
      ],
      "name": "ERC721InvalidReceiver",
      "type": "error"
    },
    {
      "inputs": [
        {
          "internalType": "address",
          "name": "sender",
          "type": "address"
        }
      ],
      "name": "ERC721InvalidSender",
      "type": "error"
    },
    {
      "inputs": [
        {
          "internalType": "uint256",
          "name": "tokenId",
          "type": "uint256"
        }
      ],
      "name": "ERC721NonexistentToken",
      "type": "error"
    },
    {
      "inputs": [
        {
          "internalType": "address",
          "name": "owner",
          "type": "address"
        },
        {
          "internalType": "uint256",
          "name": "index",
          "type": "uint256"
        }
      ],
      "name": "ERC721OutOfBoundsIndex",
      "type": "error"
    },
    {
      "inputs": [],
      "name": "EnforcedPause",
      "type": "error"
    },
    {
      "inputs": [],
      "name": "ExpectedPause",
      "type": "error"
    },
    {
      "inputs": [],
      "name": "InvalidShortString",
      "type": "error"
    },
    {
      "inputs": [
        {
          "internalType": "address",
          "name": "owner",
          "type": "address"
        }
      ],
      "name": "OwnableInvalidOwner",
      "type": "error"
    },
    {
      "inputs": [
        {
          "internalType": "address",
          "name": "account",
          "type": "address"
        }
      ],
      "name": "OwnableUnauthorizedAccount",
      "type": "error"
    },
    {
      "inputs": [],
      "name": "ReentrancyGuardReentrantCall",
      "type": "error"
    },
    {
      "inputs": [
        {
          "internalType": "string",
          "name": "str",
          "type": "string"
        }
      ],
      "name": "StringTooLong",
      "type": "error"
    },
    {
      "anonymous": false,
      "inputs": [
        {
          "indexed": true,
          "internalType": "address",
          "name": "owner",
          "type": "address"
        },
        {
          "indexed": true,
          "internalType": "address",
          "name": "approved",
          "type": "address"
        },
        {
          "indexed": true,
          "internalType": "uint256",
          "name": "tokenId",
          "type": "uint256"
        }
      ],
      "name": "Approval",
      "type": "event"
    },
    {
      "anonymous": false,
      "inputs": [
        {
          "indexed": true,
          "internalType": "address",
          "name": "owner",
          "type": "address"
        },
        {
          "indexed": true,
          "internalType": "address",
          "name": "operator",
          "type": "address"
        },
        {
          "indexed": false,
          "internalType": "bool",
          "name": "approved",
          "type": "bool"
        }
      ],
      "name": "ApprovalForAll",
      "type": "event"
    },
    {
      "anonymous": false,
      "inputs": [
        {
          "indexed": true,
          "internalType": "address",
          "name": "user",
          "type": "address"
        },
        {
          "indexed": false,
          "internalType": "uint256",
          "name": "tokensToBurn",
          "type": "uint256"
        },
        {
          "indexed": false,
          "internalType": "uint256",
          "name": "ethAmount",
          "type": "uint256"
        }
      ],
      "name": "BurnLittercoin",
      "type": "event"
    },
    {
      "anonymous": false,
      "inputs": [
        {
          "indexed": true,
          "internalType": "address",
          "name": "owner",
          "type": "address"
        },
        {
          "indexed": false,
          "internalType": "uint256",
          "name": "taxAmount",
          "type": "uint256"
        }
      ],
      "name": "BurnTaxCollected",
      "type": "event"
    },
    {
      "anonymous": false,
      "inputs": [],
      "name": "EIP712DomainChanged",
      "type": "event"
    },
    {
      "anonymous": false,
      "inputs": [
        {
          "indexed": true,
          "internalType": "address",
          "name": "user",
          "type": "address"
        },
        {
          "indexed": false,
          "internalType": "uint256",
          "name": "amount",
          "type": "uint256"
        }
      ],
      "name": "Mint",
      "type": "event"
    },
    {
      "anonymous": false,
      "inputs": [
        {
          "indexed": true,
          "internalType": "address",
          "name": "previousOwner",
          "type": "address"
        },
        {
          "indexed": true,
          "internalType": "address",
          "name": "newOwner",
          "type": "address"
        }
      ],
      "name": "OwnershipTransferred",
      "type": "event"
    },
    {
      "anonymous": false,
      "inputs": [
        {
          "indexed": false,
          "internalType": "address",
          "name": "account",
          "type": "address"
        }
      ],
      "name": "Paused",
      "type": "event"
    },
    {
      "anonymous": false,
      "inputs": [
        {
          "indexed": true,
          "internalType": "address",
          "name": "oldFeed",
          "type": "address"
        },
        {
          "indexed": true,
          "internalType": "address",
          "name": "newFeed",
          "type": "address"
        }
      ],
      "name": "PriceFeedUpdated",
      "type": "event"
    },
    {
      "anonymous": false,
      "inputs": [
        {
          "indexed": true,
          "internalType": "address",
          "name": "user",
          "type": "address"
        },
        {
          "indexed": false,
          "internalType": "uint256",
          "name": "rewardAmount",
          "type": "uint256"
        }
      ],
      "name": "Reward",
      "type": "event"
    },
    {
      "anonymous": false,
      "inputs": [
        {
          "indexed": false,
          "internalType": "uint256",
          "name": "taxAmount",
          "type": "uint256"
        }
      ],
      "name": "TaxAccumulated",
      "type": "event"
    },
    {
      "anonymous": false,
      "inputs": [
        {
          "indexed": true,
          "internalType": "address",
          "name": "from",
          "type": "address"
        },
        {
          "indexed": true,
          "internalType": "address",
          "name": "to",
          "type": "address"
        },
        {
          "indexed": true,
          "internalType": "uint256",
          "name": "tokenId",
          "type": "uint256"
        }
      ],
      "name": "Transfer",
      "type": "event"
    },
    {
      "anonymous": false,
      "inputs": [
        {
          "indexed": false,
          "internalType": "address",
          "name": "account",
          "type": "address"
        }
      ],
      "name": "Unpaused",
      "type": "event"
    },
    {
      "inputs": [],
      "name": "BPS_DENOMINATOR",
      "outputs": [
        {
          "internalType": "uint256",
          "name": "",
          "type": "uint256"
        }
      ],
      "stateMutability": "view",
      "type": "function"
    },
    {
      "inputs": [],
      "name": "BURN_TAX_BPS",
      "outputs": [
        {
          "internalType": "uint256",
          "name": "",
          "type": "uint256"
        }
      ],
      "stateMutability": "view",
      "type": "function"
    },
    {
      "inputs": [],
      "name": "MAX_BURN_AMOUNT",
      "outputs": [
        {
          "internalType": "uint256",
          "name": "",
          "type": "uint256"
        }
      ],
      "stateMutability": "view",
      "type": "function"
    },
    {
      "inputs": [],
      "name": "MAX_MINT_AMOUNT",
      "outputs": [
        {
          "internalType": "uint256",
          "name": "",
          "type": "uint256"
        }
      ],
      "stateMutability": "view",
      "type": "function"
    },
    {
      "inputs": [],
      "name": "accumulatedTax",
      "outputs": [
        {
          "internalType": "uint256",
          "name": "",
          "type": "uint256"
        }
      ],
      "stateMutability": "view",
      "type": "function"
    },
    {
      "inputs": [
        {
          "internalType": "address",
          "name": "to",
          "type": "address"
        },
        {
          "internalType": "uint256",
          "name": "tokenId",
          "type": "uint256"
        }
      ],
      "name": "approve",
      "outputs": [],
      "stateMutability": "nonpayable",
      "type": "function"
    },
    {
      "inputs": [
        {
          "internalType": "address",
          "name": "owner",
          "type": "address"
        }
      ],
      "name": "balanceOf",
      "outputs": [
        {
          "internalType": "uint256",
          "name": "",
          "type": "uint256"
        }
      ],
      "stateMutability": "view",
      "type": "function"
    },
    {
      "inputs": [
        {
          "internalType": "uint256[]",
          "name": "tokenIds",
          "type": "uint256[]"
        }
      ],
      "name": "burnLittercoin",
      "outputs": [],
      "stateMutability": "nonpayable",
      "type": "function"
    },
    {
      "inputs": [],
      "name": "donate",
      "outputs": [],
      "stateMutability": "payable",
      "type": "function"
    },
    {
      "inputs": [],
      "name": "eip712Domain",
      "outputs": [
        {
          "internalType": "bytes1",
          "name": "fields",
          "type": "bytes1"
        },
        {
          "internalType": "string",
          "name": "name",
          "type": "string"
        },
        {
          "internalType": "string",
          "name": "version",
          "type": "string"
        },
        {
          "internalType": "uint256",
          "name": "chainId",
          "type": "uint256"
        },
        {
          "internalType": "address",
          "name": "verifyingContract",
          "type": "address"
        },
        {
          "internalType": "bytes32",
          "name": "salt",
          "type": "bytes32"
        },
        {
          "internalType": "uint256[]",
          "name": "extensions",
          "type": "uint256[]"
        }
      ],
      "stateMutability": "view",
      "type": "function"
    },
    {
      "inputs": [
        {
          "internalType": "uint256",
          "name": "tokenId",
          "type": "uint256"
        }
      ],
      "name": "exists",
      "outputs": [
        {
          "internalType": "bool",
          "name": "",
          "type": "bool"
        }
      ],
      "stateMutability": "view",
      "type": "function"
    },
    {
      "inputs": [
        {
          "internalType": "uint256",
          "name": "tokenId",
          "type": "uint256"
        }
      ],
      "name": "getApproved",
      "outputs": [
        {
          "internalType": "address",
          "name": "",
          "type": "address"
        }
      ],
      "stateMutability": "view",
      "type": "function"
    },
    {
      "inputs": [],
      "name": "getCurrentTokenId",
      "outputs": [
        {
          "internalType": "uint256",
          "name": "",
          "type": "uint256"
        }
      ],
      "stateMutability": "view",
      "type": "function"
    },
    {
      "inputs": [],
      "name": "getMerchantTokenAddress",
      "outputs": [
        {
          "internalType": "address",
          "name": "",
          "type": "address"
        }
      ],
      "stateMutability": "view",
      "type": "function"
    },
    {
      "inputs": [],
      "name": "getRewardTokenAddress",
      "outputs": [
        {
          "internalType": "address",
          "name": "",
          "type": "address"
        }
      ],
      "stateMutability": "view",
      "type": "function"
    },
    {
      "inputs": [
        {
          "internalType": "address",
          "name": "owner",
          "type": "address"
        },
        {
          "internalType": "address",
          "name": "operator",
          "type": "address"
        }
      ],
      "name": "isApprovedForAll",
      "outputs": [
        {
          "internalType": "bool",
          "name": "",
          "type": "bool"
        }
      ],
      "stateMutability": "view",
      "type": "function"
    },
    {
      "inputs": [],
      "name": "merchantToken",
      "outputs": [
        {
          "internalType": "contract MerchantToken",
          "name": "",
          "type": "address"
        }
      ],
      "stateMutability": "view",
      "type": "function"
    },
    {
      "inputs": [
        {
          "internalType": "uint256",
          "name": "amount",
          "type": "uint256"
        },
        {
          "internalType": "uint256",
          "name": "nonce",
          "type": "uint256"
        },
        {
          "internalType": "uint256",
          "name": "expiry",
          "type": "uint256"
        },
        {
          "internalType": "bytes",
          "name": "signature",
          "type": "bytes"
        }
      ],
      "name": "mint",
      "outputs": [],
      "stateMutability": "nonpayable",
      "type": "function"
    },
    {
      "inputs": [],
      "name": "name",
      "outputs": [
        {
          "internalType": "string",
          "name": "",
          "type": "string"
        }
      ],
      "stateMutability": "view",
      "type": "function"
    },
    {
      "inputs": [],
      "name": "owner",
      "outputs": [
        {
          "internalType": "address",
          "name": "",
          "type": "address"
        }
      ],
      "stateMutability": "view",
      "type": "function"
    },
    {
      "inputs": [
        {
          "internalType": "uint256",
          "name": "tokenId",
          "type": "uint256"
        }
      ],
      "name": "ownerOf",
      "outputs": [
        {
          "internalType": "address",
          "name": "",
          "type": "address"
        }
      ],
      "stateMutability": "view",
      "type": "function"
    },
    {
      "inputs": [],
      "name": "pause",
      "outputs": [],
      "stateMutability": "nonpayable",
      "type": "function"
    },
    {
      "inputs": [],
      "name": "paused",
      "outputs": [
        {
          "internalType": "bool",
          "name": "",
          "type": "bool"
        }
      ],
      "stateMutability": "view",
      "type": "function"
    },
    {
      "inputs": [],
      "name": "renounceOwnership",
      "outputs": [],
      "stateMutability": "nonpayable",
      "type": "function"
    },
    {
      "inputs": [],
      "name": "rewardToken",
      "outputs": [
        {
          "internalType": "contract OLMThankYouToken",
          "name": "",
          "type": "address"
        }
      ],
      "stateMutability": "view",
      "type": "function"
    },
    {
      "inputs": [
        {
          "internalType": "address",
          "name": "from",
          "type": "address"
        },
        {
          "internalType": "address",
          "name": "to",
          "type": "address"
        },
        {
          "internalType": "uint256",
          "name": "tokenId",
          "type": "uint256"
        }
      ],
      "name": "safeTransferFrom",
      "outputs": [],
      "stateMutability": "nonpayable",
      "type": "function"
    },
    {
      "inputs": [
        {
          "internalType": "address",
          "name": "from",
          "type": "address"
        },
        {
          "internalType": "address",
          "name": "to",
          "type": "address"
        },
        {
          "internalType": "uint256",
          "name": "tokenId",
          "type": "uint256"
        },
        {
          "internalType": "bytes",
          "name": "data",
          "type": "bytes"
        }
      ],
      "name": "safeTransferFrom",
      "outputs": [],
      "stateMutability": "nonpayable",
      "type": "function"
    },
    {
      "inputs": [
        {
          "internalType": "address",
          "name": "operator",
          "type": "address"
        },
        {
          "internalType": "bool",
          "name": "approved",
          "type": "bool"
        }
      ],
      "name": "setApprovalForAll",
      "outputs": [],
      "stateMutability": "nonpayable",
      "type": "function"
    },
    {
      "inputs": [
        {
          "internalType": "address",
          "name": "_priceFeed",
          "type": "address"
        }
      ],
      "name": "setPriceFeed",
      "outputs": [],
      "stateMutability": "nonpayable",
      "type": "function"
    },
    {
      "inputs": [
        {
          "internalType": "bytes4",
          "name": "interfaceId",
          "type": "bytes4"
        }
      ],
      "name": "supportsInterface",
      "outputs": [
        {
          "internalType": "bool",
          "name": "",
          "type": "bool"
        }
      ],
      "stateMutability": "view",
      "type": "function"
    },
    {
      "inputs": [],
      "name": "symbol",
      "outputs": [
        {
          "internalType": "string",
          "name": "",
          "type": "string"
        }
      ],
      "stateMutability": "view",
      "type": "function"
    },
    {
      "inputs": [
        {
          "internalType": "uint256",
          "name": "index",
          "type": "uint256"
        }
      ],
      "name": "tokenByIndex",
      "outputs": [
        {
          "internalType": "uint256",
          "name": "",
          "type": "uint256"
        }
      ],
      "stateMutability": "view",
      "type": "function"
    },
    {
      "inputs": [
        {
          "internalType": "address",
          "name": "owner",
          "type": "address"
        },
        {
          "internalType": "uint256",
          "name": "index",
          "type": "uint256"
        }
      ],
      "name": "tokenOfOwnerByIndex",
      "outputs": [
        {
          "internalType": "uint256",
          "name": "",
          "type": "uint256"
        }
      ],
      "stateMutability": "view",
      "type": "function"
    },
    {
      "inputs": [
        {
          "internalType": "uint256",
          "name": "",
          "type": "uint256"
        }
      ],
      "name": "tokenTransferred",
      "outputs": [
        {
          "internalType": "bool",
          "name": "",
          "type": "bool"
        }
      ],
      "stateMutability": "view",
      "type": "function"
    },
    {
      "inputs": [
        {
          "internalType": "uint256",
          "name": "tokenId",
          "type": "uint256"
        }
      ],
      "name": "tokenURI",
      "outputs": [
        {
          "internalType": "string",
          "name": "",
          "type": "string"
        }
      ],
      "stateMutability": "view",
      "type": "function"
    },
    {
      "inputs": [],
      "name": "totalSupply",
      "outputs": [
        {
          "internalType": "uint256",
          "name": "",
          "type": "uint256"
        }
      ],
      "stateMutability": "view",
      "type": "function"
    },
    {
      "inputs": [
        {
          "internalType": "address",
          "name": "from",
          "type": "address"
        },
        {
          "internalType": "address",
          "name": "to",
          "type": "address"
        },
        {
          "internalType": "uint256",
          "name": "tokenId",
          "type": "uint256"
        }
      ],
      "name": "transferFrom",
      "outputs": [],
      "stateMutability": "nonpayable",
      "type": "function"
    },
    {
      "inputs": [
        {
          "internalType": "address",
          "name": "newOwner",
          "type": "address"
        }
      ],
      "name": "transferOwnership",
      "outputs": [],
      "stateMutability": "nonpayable",
      "type": "function"
    },
    {
      "inputs": [],
      "name": "unpause",
      "outputs": [],
      "stateMutability": "nonpayable",
      "type": "function"
    },
    {
      "inputs": [
        {
          "internalType": "address",
          "name": "",
          "type": "address"
        },
        {
          "internalType": "uint256",
          "name": "",
          "type": "uint256"
        }
      ],
      "name": "usedNonces",
      "outputs": [
        {
          "internalType": "bool",
          "name": "",
          "type": "bool"
        }
      ],
      "stateMutability": "view",
      "type": "function"
    },
    {
      "inputs": [],
      "name": "withdrawTax",
      "outputs": [],
      "stateMutability": "nonpayable",
      "type": "function"
    },
    {
      "stateMutability": "payable",
      "type": "receive"
    }
  ],
  "bytecode": "0x610160604052348015610010575f5ffd5b506040516168ef3803806168ef83398101604081905261002f9161035f565b6040518060400160405280600a8152602001692634ba3a32b931b7b4b760b11b815250604051806040016040528060018152602001603160f81b815250336040518060400160405280600a8152602001692634ba3a32b931b7b4b760b11b8152506040518060400160405280600781526020016609892a8a88aa4b60cb1b815250815f90816100be919061042f565b5060016100cb828261042f565b5050506001600160a01b0381166100fc57604051631e4fbdf760e01b81525f60048201526024015b60405180910390fd5b61010581610285565b5061011182600b6102d6565b6101205261012081600c6102d6565b61014052815160208084019190912060e052815190820120610100524660a0526101ac60e05161010051604080517f8b73c3c69bb8fe3d512ecc4cf759cc79239f7b179b0ffacaa9a75d522b39400f60208201529081019290925260608201524660808201523060a08201525f9060c00160405160208183030381529060405280519060200120905090565b60805250503060c08190526040516101c390610345565b6001600160a01b039091168152602001604051809103905ff0801580156101ec573d5f5f3e3d5ffd5b5060115f6101000a8154816001600160a01b0302191690836001600160a01b03160217905550338160405161022090610352565b6001600160a01b03928316815291166020820152604001604051809103905ff080158015610250573d5f5f3e3d5ffd5b50601280546001600160a01b039283166001600160a01b03199182161790915560138054939092169216919091179055610545565b600a80546001600160a01b038381166001600160a01b0319831681179093556040519116919082907f8be0079c531659141344cd1fd0a4f28419497f9722a3daafe3b4186f6b6457e0905f90a35050565b5f6020835110156102f1576102ea83610308565b9050610302565b816102fc848261042f565b5060ff90505b92915050565b5f5f829050601f81511115610332578260405163305a27a960e01b81526004016100f391906104ed565b805161033d82610522565b179392505050565b610b4d8061386783390190565b61253b806143b483390190565b5f6020828403121561036f575f5ffd5b81516001600160a01b0381168114610385575f5ffd5b9392505050565b634e487b7160e01b5f52604160045260245ffd5b600181811c908216806103b457607f821691505b6020821081036103d257634e487b7160e01b5f52602260045260245ffd5b50919050565b601f82111561042a578282111561042a57805f5260205f20601f840160051c602085101561040357505f5b90810190601f840160051c035f5b81811015610426575f83820155600101610411565b5050505b505050565b81516001600160401b038111156104485761044861038c565b61045c8161045684546103a0565b846103d8565b6020601f82116001811461048e575f83156104775750848201515b5f19600385901b1c1916600184901b1784556104e6565b5f84815260208120601f198516915b828110156104bd578785015182556020948501946001909201910161049d565b50848210156104da57868401515f19600387901b60f8161c191681555b505060018360011b0184555b5050505050565b602081525f82518060208401528060208501604085015e5f604082850101526040601f19601f83011684010191505092915050565b805160208083015191908110156103d2575f1960209190910360031b1b16919050565b60805160a05160c05160e0516101005161012051610140516132d16105965f395f611c2201525f611bf001525f612a1d01525f6129f501525f61295001525f61297a01525f6129a401526132d15ff3fe608060405260043610610241575f3560e01c8063724e78da11610134578063b88d4fde116100b3578063ed88c68e11610078578063ed88c68e1461068a578063ee876a6c14610692578063f2fde38b146106c0578063f7c618c1146106df578063f9c0a3c3146106fe578063fa9b701814610713575f5ffd5b8063b88d4fde14610604578063c87b56dd14610623578063dfa20f0a14610642578063e1a4521814610656578063e985e9c51461066b575f5ffd5b80638c1a1f77116100f95780638c1a1f77146105785780638da5cb5b1461059757806395d89b41146105b457806399e117a0146105c8578063a22cb465146105e5575f5ffd5b8063724e78da146104ec578063744c0f931461050b57806377cf2c74146105285780638456cb591461053d57806384b0196e14610551575f5ffd5b80634a9eee69116101c05780636352211e116101855780636352211e1461044d5780636a8a68941461046c5780636e7de4c6146104a557806370a08231146104b9578063715018a6146104d8575f5ffd5b80634a9eee69146103a75780634f558e79146103c65780634f6ccce7146103fc578063561892361461041b5780635c975abb1461042f575f5ffd5b80631edf9acd116102065780631edf9acd1461031757806323b872dd146103365780632f745c59146103555780633f4ba83a1461037457806342842e0e14610388575f5ffd5b806301ffc9a71461024c57806306fdde0314610280578063081812fc146102a1578063095ea7b3146102d857806318160ddd146102f9575f5ffd5b3661024857005b5f5ffd5b348015610257575f5ffd5b5061026b610266366004612c73565b610727565b60405190151581526020015b60405180910390f35b34801561028b575f5ffd5b50610294610737565b6040516102779190612cbc565b3480156102ac575f5ffd5b506102c06102bb366004612cce565b6107c6565b6040516001600160a01b039091168152602001610277565b3480156102e3575f5ffd5b506102f76102f2366004612d00565b6107ed565b005b348015610304575f5ffd5b506008545b604051908152602001610277565b348015610322575f5ffd5b506102f7610331366004612d28565b6107fc565b348015610341575f5ffd5b506102f7610350366004612d99565b610d68565b348015610360575f5ffd5b5061030961036f366004612d00565b610df1565b34801561037f575f5ffd5b506102f7610e54565b348015610393575f5ffd5b506102f76103a2366004612d99565b610e66565b3480156103b2575f5ffd5b506102f76103c1366004612e72565b610e85565b3480156103d1575f5ffd5b5061026b6103e0366004612cce565b5f908152600260205260409020546001600160a01b0316151590565b348015610407575f5ffd5b50610309610416366004612cce565b6110a7565b348015610426575f5ffd5b50600d54610309565b34801561043a575f5ffd5b50600a54600160a01b900460ff1661026b565b348015610458575f5ffd5b506102c0610467366004612cce565b6110fc565b348015610477575f5ffd5b5061026b610486366004612d00565b600e60209081525f928352604080842090915290825290205460ff1681565b3480156104b0575f5ffd5b50610309603281565b3480156104c4575f5ffd5b506103096104d3366004612ec8565b611106565b3480156104e3575f5ffd5b506102f761114b565b3480156104f7575f5ffd5b506102f7610506366004612ec8565b61115c565b348015610516575f5ffd5b506012546001600160a01b03166102c0565b348015610533575f5ffd5b506103096101a481565b348015610548575f5ffd5b506102f76111fd565b34801561055c575f5ffd5b5061056561120d565b6040516102779796959493929190612ee1565b348015610583575f5ffd5b506012546102c0906001600160a01b031681565b3480156105a2575f5ffd5b50600a546001600160a01b03166102c0565b3480156105bf575f5ffd5b5061029461124f565b3480156105d3575f5ffd5b506011546001600160a01b03166102c0565b3480156105f0575f5ffd5b506102f76105ff366004612f84565b61125e565b34801561060f575f5ffd5b506102f761061e366004612fb9565b611269565b34801561062e575f5ffd5b5061029461063d366004612cce565b611281565b34801561064d575f5ffd5b506102f76112f2565b348015610661575f5ffd5b5061030961271081565b348015610676575f5ffd5b5061026b610685366004613005565b611437565b6102f7611464565b34801561069d575f5ffd5b5061026b6106ac366004612cce565b600f6020525f908152604090205460ff1681565b3480156106cb575f5ffd5b506102f76106da366004612ec8565b611486565b3480156106ea575f5ffd5b506011546102c0906001600160a01b031681565b348015610709575f5ffd5b5061030960105481565b34801561071e575f5ffd5b50610309600a81565b5f610731826114c3565b92915050565b60605f805461074590613036565b80601f016020809104026020016040519081016040528092919081815260200182805461077190613036565b80156107bc5780601f10610793576101008083540402835291602001916107bc565b820191905f5260205f20905b81548152906001019060200180831161079f57829003601f168201915b5050505050905090565b5f6107d0826114e7565b505f828152600460205260409020546001600160a01b0316610731565b6107f882823361151f565b5050565b61080461152c565b61080c611561565b60125460405163254b972d60e21b81523360048201526001600160a01b039091169063952e5cb490602401602060405180830381865afa158015610852573d5f5f3e3d5ffd5b505050506040513d601f19601f82011682018060405250810190610876919061306e565b6108c75760405162461bcd60e51b815260206004820152601b60248201527f4d75737420686f6c642061204d65726368616e7420546f6b656e2e000000000060448201526064015b60405180910390fd5b808061090b5760405162461bcd60e51b81526020600482015260136024820152722737903a37b5b2b73990383937bb34b232b21760691b60448201526064016108be565b603281111561095c5760405162461bcd60e51b815260206004820152601b60248201527f546f6f206d616e7920746f6b656e7320696e206f6e65206275726e000000000060448201526064016108be565b5f61096660085490565b90505f81116109b75760405162461bcd60e51b815260206004820152601960248201527f4e6f20746f6b656e7320696e2063697263756c6174696f6e2e0000000000000060448201526064016108be565b5f601054476109c6919061309d565b90505f8111610a175760405162461bcd60e51b815260206004820152601b60248201527f4e6f7420656e6f7567682045544820696e20636f6e74726163742e000000000060448201526064016108be565b5f5b83811015610af8575f868683818110610a3457610a346130b0565b905060200201359050336001600160a01b0316610a50826110fc565b6001600160a01b031614610ab95760405162461bcd60e51b815260206004820152602a60248201527f43616c6c6572206d757374206f776e20616c6c20746f6b656e73206265696e67604482015269103932b232b2b6b2b21760b11b60648201526084016108be565b5f818152600f602052604090205460ff16610ae65760405162461bcd60e51b81526004016108be906130c4565b610aef8161158c565b50600101610a19565b505f82610b058584613109565b610b0f9190613120565b90505f8111610b605760405162461bcd60e51b815260206004820152601e60248201527f45544820616d6f756e7420746f6f20736d616c6c20746f2072656465656d000060448201526064016108be565b5f612710610b706101a484613109565b610b7a9190613120565b90505f610b87828461309d565b90508115610c97575f610ba2600a546001600160a01b031690565b6001600160a01b0316836040515f6040518083038185875af1925050503d805f8114610be9576040519150601f19603f3d011682016040523d82523d5f602084013e610bee565b606091505b505090508015610c4b57600a546001600160a01b03166001600160a01b03167f20cc6c5a2098012d92c13fcf18a1c51b47fd8a02cb55cd515a83ec3fb01cae6e84604051610c3e91815260200190565b60405180910390a2610c95565b8260105f828254610c5c919061313f565b90915550506040518381527fb71b5be68b646251eb1765fecef250f3598298eee1994c846614ca2a0f115e779060200160405180910390a15b505b6040515f90339083908381818185875af1925050503d805f8114610cd6576040519150601f19603f3d011682016040523d82523d5f602084013e610cdb565b606091505b5050905080610d1e5760405162461bcd60e51b815260206004820152600f60248201526e151c985b9cd9995c8819985a5b1959608a1b60448201526064016108be565b604080518881526020810184905233917f62c43c4ca6239525d02ec5d50013da458e2aabd6147394ddd139edae8d84439b910160405180910390a2505050505050506107f86115c4565b6001600160a01b038216610d9157604051633250574960e11b81525f60048201526024016108be565b5f610d9d8383336115ee565b9050836001600160a01b0316816001600160a01b031614610deb576040516364283d7b60e01b81526001600160a01b03808616600483015260248201849052821660448201526064016108be565b50505050565b5f610dfb83611106565b8210610e2c5760405163295f44f760e21b81526001600160a01b0384166004820152602481018390526044016108be565b506001600160a01b03919091165f908152600660209081526040808320938352929052205490565b610e5c6119d6565b610e64611a03565b565b610e8083838360405180602001604052805f815250611269565b505050565b610e8d611561565b5f84118015610e9d5750600a8411155b610ee95760405162461bcd60e51b815260206004820152601f60248201527f416d6f756e74206d757374206265206265747765656e203120616e642031300060448201526064016108be565b81421115610f315760405162461bcd60e51b815260206004820152601560248201527414da59db985d1d5c99481a185cc8195e1c1a5c9959605a1b60448201526064016108be565b335f908152600e6020908152604080832086845290915290205460ff1615610f905760405162461bcd60e51b8152602060048201526012602482015271139bdb98d948185b1c9958591e481d5cd95960721b60448201526064016108be565b335f818152600e602090815260408083208784529091528120805460ff1916600117905590610fc190868686611a58565b90505f610fce8284611acc565b9050610fe2600a546001600160a01b031690565b6001600160a01b0316816001600160a01b0316146110365760405162461bcd60e51b8152602060048201526011602482015270496e76616c6964207369676e617475726560781b60448201526064016108be565b5f5b8681101561106857600d5f815461104e90613152565b90915550600d5461105f3382611af4565b50600101611038565b5060405186815233907f0f6798a560793a54c3bcfe86a93cde1e73087d944c0ea20544137d4121396885906020015b60405180910390a2505050505050565b5f6110b160085490565b82106110d95760405163295f44f760e21b81525f6004820152602481018390526044016108be565b600882815481106110ec576110ec6130b0565b905f5260205f2001549050919050565b5f610731826114e7565b5f6001600160a01b038216611130576040516322718ad960e21b81525f60048201526024016108be565b506001600160a01b03165f9081526003602052604090205490565b6111536119d6565b610e645f611b55565b6111646119d6565b6001600160a01b0381166111ac5760405162461bcd60e51b815260206004820152600f60248201526e496e76616c6964206164647265737360881b60448201526064016108be565b601380546001600160a01b038381166001600160a01b0319831681179093556040519116919082907fa8abe0398416476db5b05737cd4da3b3cbde5012d978a6a6c3fd49d321753536905f90a35050565b6112056119d6565b610e64611ba6565b5f6060805f5f5f606061121e611be9565b611226611c1b565b604080515f80825260208201909252600f60f81b9b939a50919850469750309650945092509050565b60606001805461074590613036565b6107f8338383611c48565b611274848484610d68565b610deb3385858585611d0f565b606061128c826114e7565b505f6112a260408051602081019091525f815290565b90505f8151116112c05760405180602001604052805f8152506112eb565b806112ca84611e37565b6040516020016112db929190613181565b6040516020818303038152906040525b9392505050565b6112fa6119d6565b61130261152c565b601054806113475760405162461bcd60e51b81526020600482015260126024820152714e6f2074617820746f20776974686472617760701b60448201526064016108be565b5f6010819055600a546040516001600160a01b039091169083908381818185875af1925050503d805f8114611397576040519150601f19603f3d011682016040523d82523d5f602084013e61139c565b606091505b50509050806113df5760405162461bcd60e51b815260206004820152600f60248201526e15da5d1a191c985dc819985a5b1959608a1b60448201526064016108be565b600a546001600160a01b03166001600160a01b03167f20cc6c5a2098012d92c13fcf18a1c51b47fd8a02cb55cd515a83ec3fb01cae6e8360405161142591815260200190565b60405180910390a25050610e646115c4565b6001600160a01b039182165f90815260056020908152604080832093909416825291909152205460ff1690565b61146c61152c565b611474611561565b61147e3334611ec7565b610e646115c4565b61148e6119d6565b6001600160a01b0381166114b757604051631e4fbdf760e01b81525f60048201526024016108be565b6114c081611b55565b50565b5f6001600160e01b0319821663780e9d6360e01b148061073157506107318261219c565b5f818152600260205260408120546001600160a01b03168061073157604051637e27328960e01b8152600481018490526024016108be565b610e8083838360016121eb565b6115346122ef565b610e6460017f9b779b17422d0df92223018b32b4d1fa46e071723d6817e2486d003becc55f005b9061232f565b600a54600160a01b900460ff1615610e645760405163d93c066560e01b815260040160405180910390fd5b5f6115985f835f6115ee565b90506001600160a01b0381166107f857604051637e27328960e01b8152600481018390526024016108be565b610e645f7f9b779b17422d0df92223018b32b4d1fa46e071723d6817e2486d003becc55f0061155b565b5f6115f7611561565b5f838152600260205260409020546001600160a01b0316806116d15760125460405163254b972d60e21b81526001600160a01b0387811660048301529091169063952e5cb490602401602060405180830381865afa15801561165b573d5f5f3e3d5ffd5b505050506040513d601f19601f8201168201806040525081019061167f919061306e565b156116cc5760405162461bcd60e51b815260206004820181905260248201527f4d65726368616e74732063616e6e6f74206d696e74204c6974746572636f696e60448201526064016108be565b6119c2565b6001600160a01b0385166117c45760125460405163254b972d60e21b81526001600160a01b0383811660048301529091169063952e5cb490602401602060405180830381865afa158015611727573d5f5f3e3d5ffd5b505050506040513d601f19601f8201168201806040525081019061174b919061306e565b6117975760405162461bcd60e51b815260206004820152601e60248201527f4f6e6c79206d65726368616e74732063616e206275726e20746f6b656e73000060448201526064016108be565b5f848152600f602052604090205460ff166116cc5760405162461bcd60e51b81526004016108be906130c4565b5f848152600f602052604090205460ff161561182d5760405162461bcd60e51b815260206004820152602260248201527f546f6b656e2068617320616c7265616479206265656e207472616e7366657272604482015261195960f21b60648201526084016108be565b6012546040516302556a2960e01b81526001600160a01b038381166004830152909116906302556a2990602401602060405180830381865afa158015611875573d5f5f3e3d5ffd5b505050506040513d601f19601f82011682018060405250810190611899919061306e565b156118e65760405162461bcd60e51b815260206004820181905260248201527f4d65726368616e74732063616e6e6f74207472616e7366657220746f6b656e7360448201526064016108be565b6012546040516302556a2960e01b81526001600160a01b038781166004830152909116906302556a2990602401602060405180830381865afa15801561192e573d5f5f3e3d5ffd5b505050506040513d601f19601f82011682018060405250810190611952919061306e565b6119a95760405162461bcd60e51b815260206004820152602260248201527f526563697069656e74206d75737420626520612076616c6964206d65726368616044820152611b9d60f21b60648201526084016108be565b5f848152600f60205260409020805460ff191660011790555b6119cd858585612336565b95945050505050565b600a546001600160a01b03163314610e645760405163118cdaa760e01b81523360048201526024016108be565b611a0b612409565b600a805460ff60a01b191690557f5db9ee0a495bf2e6ff9c91a7834c1ba4fdd244a5e8aa4e537bd38aeae4b073aa335b6040516001600160a01b03909116815260200160405180910390a1565b604080517f03f7573be9d8d6deb7485602bb9f74900abea290cc280a6102b605c39dd9fbe060208201526001600160a01b03861691810191909152606081018490526080810183905260a081018290525f906119cd9060c00160405160208183030381529060405280519060200120612433565b5f5f5f5f611ada868661245f565b925092509250611aea82826124a8565b5090949350505050565b6001600160a01b038216611b1d57604051633250574960e11b81525f60048201526024016108be565b5f611b2983835f6115ee565b90506001600160a01b03811615610e80576040516339e3563760e11b81525f60048201526024016108be565b600a80546001600160a01b038381166001600160a01b0319831681179093556040519116919082907f8be0079c531659141344cd1fd0a4f28419497f9722a3daafe3b4186f6b6457e0905f90a35050565b611bae611561565b600a805460ff60a01b1916600160a01b1790557f62e78cea01bee320cd4e420270b5ea74000d11b0c9f74754ebdbfc544b05a258611a3b3390565b6060611c167f0000000000000000000000000000000000000000000000000000000000000000600b612560565b905090565b6060611c167f0000000000000000000000000000000000000000000000000000000000000000600c612560565b6001600160a01b038316611c715760405163a9fbf51f60e01b81525f60048201526024016108be565b6001600160a01b038216611ca357604051630b61174360e31b81526001600160a01b03831660048201526024016108be565b6001600160a01b038381165f81815260056020908152604080832094871680845294825291829020805460ff191686151590811790915591519182527f17307eab39ab6107e8899845ad3d59bd9653f200f220920489ca2b5937696c31910160405180910390a3505050565b6001600160a01b0383163b15611e3057604051630a85bd0160e11b81526001600160a01b0384169063150b7a0290611d51908890889087908790600401613195565b6020604051808303815f875af1925050508015611d8b575060408051601f3d908101601f19168201909252611d88918101906131d1565b60015b611df2573d808015611db8576040519150601f19603f3d011682016040523d82523d5f602084013e611dbd565b606091505b5080515f03611dea57604051633250574960e11b81526001600160a01b03851660048201526024016108be565b805160208201fd5b6001600160e01b03198116630a85bd0160e11b14611e2e57604051633250574960e11b81526001600160a01b03851660048201526024016108be565b505b5050505050565b60605f611e4383612609565b60010190505f8167ffffffffffffffff811115611e6257611e62612dd3565b6040519080825280601f01601f191660200182016040528015611e8c576020820181803683370190505b5090508181016020015b5f19016f181899199a1a9b1b9c1cb0b131b232b360811b600a86061a8153600a8504945084611e9657509392505050565b5f8111611f045760405162461bcd60e51b815260206004820152600b60248201526a139bc8115512081cd95b9d60aa1b60448201526064016108be565b5f5f60135f9054906101000a90046001600160a01b03166001600160a01b031663feaf968c6040518163ffffffff1660e01b815260040160a060405180830381865afa158015611f56573d5f5f3e3d5ffd5b505050506040513d601f19601f82011682018060405250810190611f7a9190613205565b509350509250505f8213611fd05760405162461bcd60e51b815260206004820152601c60248201527f496e76616c69642070726963652066726f6d20436861696e6c696e6b0000000060448201526064016108be565b60135f9054906101000a90046001600160a01b03166001600160a01b031663313ce5676040518163ffffffff1660e01b8152600401602060405180830381865afa158015612020573d5f5f3e3d5ffd5b505050506040513d601f19601f820116820180604052508101906120449190613253565b60ff166008146120965760405162461bcd60e51b815260206004820152601e60248201527f556e6578706563746564207072696365206665656420646563696d616c73000060448201526064016108be565b610e106120a3824261309d565b106120e35760405162461bcd60e51b815260206004820152601060248201526f14dd185b19481c1c9a58d9481999595960821b60448201526064016108be565b815f6305f5e1006120f48387613109565b6120fe9190613120565b6011546040516340c10f1960e01b81526001600160a01b038981166004830152602482018490529293509116906340c10f19906044015f604051808303815f87803b15801561214b575f5ffd5b505af115801561215d573d5f5f3e3d5ffd5b50505050856001600160a01b03167f619caafabdd75649b302ba8419e48cccf64f37f1983ac4727cfb38b57703ffc98260405161109791815260200190565b5f6001600160e01b031982166380ac58cd60e01b14806121cc57506001600160e01b03198216635b5e139f60e01b145b8061073157506301ffc9a760e01b6001600160e01b0319831614610731565b80806121ff57506001600160a01b03821615155b156122c0575f61220e846114e7565b90506001600160a01b0383161580159061223a5750826001600160a01b0316816001600160a01b031614155b801561224d575061224b8184611437565b155b156122765760405163a9fbf51f60e01b81526001600160a01b03841660048201526024016108be565b81156122be5783856001600160a01b0316826001600160a01b03167f8c5be1e5ebec7d5bd14f71427d1e84f3dd0314c0f7b2291e5b200ac8c7c3b92560405160405180910390a45b505b50505f90815260046020526040902080546001600160a01b0319166001600160a01b0392909216919091179055565b7f9b779b17422d0df92223018b32b4d1fa46e071723d6817e2486d003becc55f005c15610e6457604051633ee5aeb560e01b815260040160405180910390fd5b80825d5050565b5f5f6123438585856126e0565b90506001600160a01b03811661239f5761239a84600880545f838152600960205260408120829055600182018355919091527ff3f7a9fe364faab93b216da50a3214154f22a0a2b415b23a84c8169e8b636ee30155565b6123c2565b846001600160a01b0316816001600160a01b0316146123c2576123c281856127d2565b6001600160a01b0385166123de576123d98461284f565b612401565b846001600160a01b0316816001600160a01b0316146124015761240185856128f6565b949350505050565b600a54600160a01b900460ff16610e6457604051638dfc202b60e01b815260040160405180910390fd5b5f61073161243f612944565b8360405161190160f01b8152600281019290925260228201526042902090565b5f5f5f8351604103612496576020840151604085015160608601515f1a61248888828585612a6d565b9550955095505050506124a1565b505081515f91506002905b9250925092565b5f8260038111156124bb576124bb613273565b036124c4575050565b60018260038111156124d8576124d8613273565b036124f65760405163f645eedf60e01b815260040160405180910390fd5b600282600381111561250a5761250a613273565b0361252b5760405163fce698f760e01b8152600481018290526024016108be565b600382600381111561253f5761253f613273565b036107f8576040516335e2f38360e21b8152600481018290526024016108be565b606060ff831461257a5761257383612b35565b9050610731565b81805461258690613036565b80601f01602080910402602001604051908101604052809291908181526020018280546125b290613036565b80156125fd5780601f106125d4576101008083540402835291602001916125fd565b820191905f5260205f20905b8154815290600101906020018083116125e057829003601f168201915b50505050509050610731565b5f8072184f03e93ff9f4daa797ed6e38ed64bf6a1f0160401b83106126475772184f03e93ff9f4daa797ed6e38ed64bf6a1f0160401b830492506040015b6d04ee2d6d415b85acef81000000008310612673576d04ee2d6d415b85acef8100000000830492506020015b662386f26fc10000831061269157662386f26fc10000830492506010015b6305f5e10083106126a9576305f5e100830492506008015b61271083106126bd57612710830492506004015b606483106126cf576064830492506002015b600a83106107315760010192915050565b5f828152600260205260408120546001600160a01b039081169083161561270c5761270c818486612b72565b6001600160a01b03811615612746576127275f855f5f6121eb565b6001600160a01b0381165f90815260036020526040902080545f190190555b6001600160a01b03851615612774576001600160a01b0385165f908152600360205260409020805460010190555b5f8481526002602052604080822080546001600160a01b0319166001600160a01b0389811691821790925591518793918516917fddf252ad1be2c89b69c2b068fc378daa952ba7f163c4a11628f55a4df523b3ef91a4949350505050565b5f6127dc83611106565b5f838152600760209081526040808320546001600160a01b0388168452600690925290912091925090818314612831575f83815260208281526040808320548584528184208190558352600790915290208290555b5f938452600760209081526040808620869055938552525081205550565b6008545f906128609060019061309d565b5f8381526009602052604081205460088054939450909284908110612887576128876130b0565b905f5260205f200154905080600883815481106128a6576128a66130b0565b5f9182526020808320909101929092558281526009909152604080822084905585825281205560088054806128dd576128dd613287565b600190038181905f5260205f20015f9055905550505050565b5f600161290284611106565b61290c919061309d565b6001600160a01b039093165f908152600660209081526040808320868452825280832085905593825260079052919091209190915550565b5f306001600160a01b037f00000000000000000000000000000000000000000000000000000000000000001614801561299c57507f000000000000000000000000000000000000000000000000000000000000000046145b156129c657507f000000000000000000000000000000000000000000000000000000000000000090565b611c16604080517f8b73c3c69bb8fe3d512ecc4cf759cc79239f7b179b0ffacaa9a75d522b39400f60208201527f0000000000000000000000000000000000000000000000000000000000000000918101919091527f000000000000000000000000000000000000000000000000000000000000000060608201524660808201523060a08201525f9060c00160405160208183030381529060405280519060200120905090565b5f80807f7fffffffffffffffffffffffffffffff5d576e7357a4501ddfe92f46681b20a0841115612aa657505f91506003905082612b2b565b604080515f808252602082018084528a905260ff891692820192909252606081018790526080810186905260019060a0016020604051602081039080840390855afa158015612af7573d5f5f3e3d5ffd5b5050604051601f1901519150506001600160a01b038116612b2257505f925060019150829050612b2b565b92505f91508190505b9450945094915050565b60605f612b4183612bd6565b6040805160208082528183019092529192505f91906020820181803683375050509182525060208101929092525090565b612b7d838383612bfd565b610e80576001600160a01b038316612bab57604051637e27328960e01b8152600481018290526024016108be565b60405163177e802f60e01b81526001600160a01b0383166004820152602481018290526044016108be565b5f60ff8216601f81111561073157604051632cd44ac360e21b815260040160405180910390fd5b5f6001600160a01b038316158015906124015750826001600160a01b0316846001600160a01b03161480612c365750612c368484611437565b806124015750505f908152600460205260409020546001600160a01b03908116911614919050565b6001600160e01b0319811681146114c0575f5ffd5b5f60208284031215612c83575f5ffd5b81356112eb81612c5e565b5f81518084528060208401602086015e5f602082860101526020601f19601f83011685010191505092915050565b602081525f6112eb6020830184612c8e565b5f60208284031215612cde575f5ffd5b5035919050565b80356001600160a01b0381168114612cfb575f5ffd5b919050565b5f5f60408385031215612d11575f5ffd5b612d1a83612ce5565b946020939093013593505050565b5f5f60208385031215612d39575f5ffd5b823567ffffffffffffffff811115612d4f575f5ffd5b8301601f81018513612d5f575f5ffd5b803567ffffffffffffffff811115612d75575f5ffd5b8560208260051b8401011115612d89575f5ffd5b6020919091019590945092505050565b5f5f5f60608486031215612dab575f5ffd5b612db484612ce5565b9250612dc260208501612ce5565b929592945050506040919091013590565b634e487b7160e01b5f52604160045260245ffd5b5f82601f830112612df6575f5ffd5b813567ffffffffffffffff811115612e1057612e10612dd3565b604051601f8201601f19908116603f0116810167ffffffffffffffff81118282101715612e3f57612e3f612dd3565b604052818152838201602001851015612e56575f5ffd5b816020850160208301375f918101602001919091529392505050565b5f5f5f5f60808587031215612e85575f5ffd5b843593506020850135925060408501359150606085013567ffffffffffffffff811115612eb0575f5ffd5b612ebc87828801612de7565b91505092959194509250565b5f60208284031215612ed8575f5ffd5b6112eb82612ce5565b60ff60f81b8816815260e060208201525f612eff60e0830189612c8e565b8281036040840152612f118189612c8e565b606084018890526001600160a01b038716608085015260a0840186905283810360c0850152845180825260208087019350909101905f5b81811015612f66578351835260209384019390920191600101612f48565b50909b9a5050505050505050505050565b80151581146114c0575f5ffd5b5f5f60408385031215612f95575f5ffd5b612f9e83612ce5565b91506020830135612fae81612f77565b809150509250929050565b5f5f5f5f60808587031215612fcc575f5ffd5b612fd585612ce5565b9350612fe360208601612ce5565b925060408501359150606085013567ffffffffffffffff811115612eb0575f5ffd5b5f5f60408385031215613016575f5ffd5b61301f83612ce5565b915061302d60208401612ce5565b90509250929050565b600181811c9082168061304a57607f821691505b60208210810361306857634e487b7160e01b5f52602260045260245ffd5b50919050565b5f6020828403121561307e575f5ffd5b81516112eb81612f77565b634e487b7160e01b5f52601160045260245ffd5b8181038181111561073157610731613089565b634e487b7160e01b5f52603260045260245ffd5b60208082526025908201527f546f6b656e206d757374206265207472616e73666572726564206265666f726560408201526410313ab93760d91b606082015260800190565b808202811582820484141761073157610731613089565b5f8261313a57634e487b7160e01b5f52601260045260245ffd5b500490565b8082018082111561073157610731613089565b5f6001820161316357613163613089565b5060010190565b5f81518060208401855e5f93019283525090919050565b5f61240161318f838661316a565b8461316a565b6001600160a01b03858116825284166020820152604081018390526080606082018190525f906131c790830184612c8e565b9695505050505050565b5f602082840312156131e1575f5ffd5b81516112eb81612c5e565b805169ffffffffffffffffffff81168114612cfb575f5ffd5b5f5f5f5f5f60a08688031215613219575f5ffd5b613222866131ec565b60208701516040880151606089015192975090955093509150613247608087016131ec565b90509295509295909350565b5f60208284031215613263575f5ffd5b815160ff811681146112eb575f5ffd5b634e487b7160e01b5f52602160045260245ffd5b634e487b7160e01b5f52603160045260245ffdfea2646970667358221220547516b51b80b9a20481e0723b41d48f799b64afa939ac734344280137c9ebfa64736f6c63430008220033608060405234801561000f575f5ffd5b50604051610b4d380380610b4d83398101604081905261002e91610130565b806040518060400160405280601381526020017f4f4c4d205468616e6b20596f7520546f6b656e00000000000000000000000000815250604051806040016040528060058152602001644f4c4d545960d81b81525081600390816100929190610200565b50600461009f8282610200565b5050506001600160a01b0381166100cf57604051631e4fbdf760e01b81525f600482015260240160405180910390fd5b6100d8816100df565b50506102be565b600580546001600160a01b038381166001600160a01b0319831681179093556040519116919082907f8be0079c531659141344cd1fd0a4f28419497f9722a3daafe3b4186f6b6457e0905f90a35050565b5f60208284031215610140575f5ffd5b81516001600160a01b0381168114610156575f5ffd5b9392505050565b634e487b7160e01b5f52604160045260245ffd5b600181811c9082168061018557607f821691505b6020821081036101a357634e487b7160e01b5f52602260045260245ffd5b50919050565b601f8211156101fb57828211156101fb57805f5260205f20601f840160051c60208510156101d457505f5b90810190601f840160051c035f5b818110156101f7575f838201556001016101e2565b5050505b505050565b81516001600160401b038111156102195761021961015d565b61022d816102278454610171565b846101a9565b6020601f82116001811461025f575f83156102485750848201515b5f19600385901b1c1916600184901b1784556102b7565b5f84815260208120601f198516915b8281101561028e578785015182556020948501946001909201910161026e565b50848210156102ab57868401515f19600387901b60f8161c191681555b505060018360011b0184555b5050505050565b610882806102cb5f395ff3fe608060405234801561000f575f5ffd5b50600436106100cb575f3560e01c806370a082311161008857806395d89b411161006357806395d89b41146101a4578063a9059cbb146101ac578063dd62ed3e146101bf578063f2fde38b146101f7575f5ffd5b806370a0823114610159578063715018a6146101815780638da5cb5b14610189575f5ffd5b806306fdde03146100cf578063095ea7b3146100ed57806318160ddd1461011057806323b872dd14610122578063313ce5671461013557806340c10f1914610144575b5f5ffd5b6100d761020a565b6040516100e491906106f2565b60405180910390f35b6101006100fb366004610742565b61029a565b60405190151581526020016100e4565b6002545b6040519081526020016100e4565b61010061013036600461076a565b6102b3565b604051601281526020016100e4565b610157610152366004610742565b6102d6565b005b6101146101673660046107a4565b6001600160a01b03165f9081526020819052604090205490565b6101576102ec565b6005546040516001600160a01b0390911681526020016100e4565b6100d76102ff565b6101006101ba366004610742565b61030e565b6101146101cd3660046107c4565b6001600160a01b039182165f90815260016020908152604080832093909416825291909152205490565b6101576102053660046107a4565b61031b565b606060038054610219906107f5565b80601f0160208091040260200160405190810160405280929190818152602001828054610245906107f5565b80156102905780601f1061026757610100808354040283529160200191610290565b820191905f5260205f20905b81548152906001019060200180831161027357829003601f168201915b5050505050905090565b5f336102a781858561035d565b60019150505b92915050565b5f336102c085828561036f565b6102cb8585856103eb565b506001949350505050565b6102de610448565b6102e88282610475565b5050565b6102f4610448565b6102fd5f6104a9565b565b606060048054610219906107f5565b5f336102a78185856103eb565b610323610448565b6001600160a01b03811661035157604051631e4fbdf760e01b81525f60048201526024015b60405180910390fd5b61035a816104a9565b50565b61036a83838360016104fa565b505050565b6001600160a01b038381165f908152600160209081526040808320938616835292905220545f198110156103e557818110156103d757604051637dc7a0d960e11b81526001600160a01b03841660048201526024810182905260448101839052606401610348565b6103e584848484035f6104fa565b50505050565b6001600160a01b03831661041457604051634b637e8f60e11b81525f6004820152602401610348565b6001600160a01b03821661043d5760405163ec442f0560e01b81525f6004820152602401610348565b61036a8383836105cc565b6005546001600160a01b031633146102fd5760405163118cdaa760e01b8152336004820152602401610348565b6001600160a01b03821661049e5760405163ec442f0560e01b81525f6004820152602401610348565b6102e85f83836105cc565b600580546001600160a01b038381166001600160a01b0319831681179093556040519116919082907f8be0079c531659141344cd1fd0a4f28419497f9722a3daafe3b4186f6b6457e0905f90a35050565b6001600160a01b0384166105235760405163e602df0560e01b81525f6004820152602401610348565b6001600160a01b03831661054c57604051634a1406b160e11b81525f6004820152602401610348565b6001600160a01b038085165f90815260016020908152604080832093871683529290522082905580156103e557826001600160a01b0316846001600160a01b03167f8c5be1e5ebec7d5bd14f71427d1e84f3dd0314c0f7b2291e5b200ac8c7c3b925846040516105be91815260200190565b60405180910390a350505050565b6001600160a01b0383166105f6578060025f8282546105eb919061082d565b909155506106669050565b6001600160a01b0383165f90815260208190526040902054818110156106485760405163391434e360e21b81526001600160a01b03851660048201526024810182905260448101839052606401610348565b6001600160a01b0384165f9081526020819052604090209082900390555b6001600160a01b038216610682576002805482900390556106a0565b6001600160a01b0382165f9081526020819052604090208054820190555b816001600160a01b0316836001600160a01b03167fddf252ad1be2c89b69c2b068fc378daa952ba7f163c4a11628f55a4df523b3ef836040516106e591815260200190565b60405180910390a3505050565b602081525f82518060208401528060208501604085015e5f604082850101526040601f19601f83011684010191505092915050565b80356001600160a01b038116811461073d575f5ffd5b919050565b5f5f60408385031215610753575f5ffd5b61075c83610727565b946020939093013593505050565b5f5f5f6060848603121561077c575f5ffd5b61078584610727565b925061079360208501610727565b929592945050506040919091013590565b5f602082840312156107b4575f5ffd5b6107bd82610727565b9392505050565b5f5f604083850312156107d5575f5ffd5b6107de83610727565b91506107ec60208401610727565b90509250929050565b600181811c9082168061080957607f821691505b60208210810361082757634e487b7160e01b5f52602260045260245ffd5b50919050565b808201808211156102ad57634e487b7160e01b5f52601160045260245ffdfea26469706673582212202dcf3b1ec1948ac31def0f18ab88e4246ff45177c7d2ca9ac18add58eb844a3564736f6c63430008220033608060405234801561000f575f5ffd5b5060405161253b38038061253b83398101604081905261002e91610169565b816040518060400160405280601781526020017f4c6974746572636f696e4d65726368616e74546f6b656e000000000000000000815250604051806040016040528060048152602001631316135560e21b815250815f9081610090919061023d565b50600161009d828261023d565b5050506001600160a01b0381166100cd57604051631e4fbdf760e01b81525f600482015260240160405180910390fd5b6100d6816100fd565b50600a80546001600160a01b0319166001600160a01b0392909216919091179055506102fb565b600680546001600160a01b038381166001600160a01b0319831681179093556040519116919082907f8be0079c531659141344cd1fd0a4f28419497f9722a3daafe3b4186f6b6457e0905f90a35050565b80516001600160a01b0381168114610164575f5ffd5b919050565b5f5f6040838503121561017a575f5ffd5b6101838361014e565b91506101916020840161014e565b90509250929050565b634e487b7160e01b5f52604160045260245ffd5b600181811c908216806101c257607f821691505b6020821081036101e057634e487b7160e01b5f52602260045260245ffd5b50919050565b601f821115610238578282111561023857805f5260205f20601f840160051c602085101561021157505f5b90810190601f840160051c035f5b81811015610234575f8382015560010161021f565b5050505b505050565b81516001600160401b038111156102565761025661019a565b61026a8161026484546101ae565b846101e6565b6020601f82116001811461029c575f83156102855750848201515b5f19600385901b1c1916600184901b1784556102f4565b5f84815260208120601f198516915b828110156102cb57878501518255602094850194600190920191016102ab565b50848210156102e857868401515f19600387901b60f8161c191681555b505060018360011b0184555b5050505050565b612233806103085f395ff3fe6080604052600436106101e6575f3560e01c80636352211e11610108578063a22cb4651161009d578063d9548e531161006d578063d9548e531461052c578063d9e5896e1461054b578063e985e9c51461056a578063ea55763314610589578063f2fde38b146105a8575f5ffd5b8063a22cb465146104c0578063b88d4fde146104da578063c22c56b1146104f9578063c87b56dd1461050d575f5ffd5b80638456cb59116100d85780638456cb591461045c5780638da5cb5b14610470578063952e5cb41461048d57806395d89b41146104ac575f5ffd5b80636352211e146103eb57806370a082311461040a578063715018a614610429578063724e78da1461043d575f5ffd5b8063393ed91a1161017e57806342842e0e1161014e57806342842e0e1461037c57806344df8e701461039b57806356189236146103af5780635c975abb146103cd575f5ffd5b8063393ed91a1461030b5780633f4ba83a1461032a57806340c10f191461033e578063425604d61461035d575f5ffd5b8063095ea7b3116101b9578063095ea7b3146102955780631a561d7d146102b657806323456258146102e457806323b872dd146102ec575f5ffd5b806301ffc9a7146101ea57806302556a291461021e57806306fdde031461023d578063081812fc1461025e575b5f5ffd5b3480156101f5575f5ffd5b50610209610204366004611d83565b6105c7565b60405190151581526020015b60405180910390f35b348015610229575f5ffd5b50610209610238366004611db9565b6105d7565b348015610248575f5ffd5b50610251610638565b6040516102159190611e00565b348015610269575f5ffd5b5061027d610278366004611e12565b6106c7565b6040516001600160a01b039091168152602001610215565b3480156102a0575f5ffd5b506102b46102af366004611e29565b6106ee565b005b3480156102c1575f5ffd5b506102096102d0366004611db9565b600b6020525f908152604090205460ff1681565b6102b461073b565b3480156102f7575f5ffd5b506102b4610306366004611e51565b610be2565b348015610316575f5ffd5b506102b4610325366004611e12565b610c6b565b348015610335575f5ffd5b506102b4610d4c565b348015610349575f5ffd5b506102b4610358366004611e29565b610d5e565b348015610368575f5ffd5b506102b4610377366004611e8b565b610f7b565b348015610387575f5ffd5b506102b4610396366004611e51565b611088565b3480156103a6575f5ffd5b506102b46110a7565b3480156103ba575f5ffd5b506007545b604051908152602001610215565b3480156103d8575f5ffd5b50600654600160a01b900460ff16610209565b3480156103f6575f5ffd5b5061027d610405366004611e12565b611113565b348015610415575f5ffd5b506103bf610424366004611db9565b61111d565b348015610434575f5ffd5b506102b4611162565b348015610448575f5ffd5b506102b4610457366004611db9565b611173565b348015610467575f5ffd5b506102b4611214565b34801561047b575f5ffd5b506006546001600160a01b031661027d565b348015610498575f5ffd5b506102096104a7366004611db9565b611224565b3480156104b7575f5ffd5b50610251611267565b3480156104cb575f5ffd5b506102b46102af366004611eab565b3480156104e5575f5ffd5b506102b46104f4366004611ef8565b611276565b348015610504575f5ffd5b506103bf601481565b348015610518575f5ffd5b50610251610527366004611e12565b61128e565b348015610537575f5ffd5b50610209610546366004611e12565b6112ff565b348015610556575f5ffd5b506103bf610565366004611e12565b611344565b348015610575575f5ffd5b50610209610584366004611fd5565b611387565b348015610594575f5ffd5b506103bf6105a3366004611db9565b6113b4565b3480156105b3575f5ffd5b506102b46105c2366004611db9565b611465565b5f6105d18261149f565b92915050565b6001600160a01b0381165f9081526008602052604081205480158061060c57505f610601826114ee565b6001600160a01b0316145b1561061957505f92915050565b610622816112ff565b1561062f57505f92915050565b50600192915050565b60605f805461064690612006565b80601f016020809104026020016040519081016040528092919081815260200182805461067290612006565b80156106bd5780601f10610694576101008083540402835291602001916106bd565b820191905f5260205f20905b8154815290600101906020018083116106a057829003601f168201915b5050505050905090565b5f6106d182611508565b505f828152600460205260409020546001600160a01b03166105d1565b60405162461bcd60e51b815260206004820152601d60248201527f536f756c626f756e643a20617070726f76616c732064697361626c656400000060448201526064015b60405180910390fd5b61074361153f565b335f908152600b602052604090205460ff16156107955760405162461bcd60e51b815260206004820152601060248201526f11995948185b1c9958591e481c185a5960821b6044820152606401610732565b61079e3361111d565b156107eb5760405162461bcd60e51b815260206004820152601d60248201527f416c726561647920686176652061206d65726368616e7420746f6b656e0000006044820152606401610732565b5f5f600a5f9054906101000a90046001600160a01b03166001600160a01b031663feaf968c6040518163ffffffff1660e01b815260040160a060405180830381865afa15801561083d573d5f5f3e3d5ffd5b505050506040513d601f19601f820116820180604052508101906108619190612057565b509350509250505f82136108b75760405162461bcd60e51b815260206004820152601c60248201527f496e76616c69642070726963652066726f6d20436861696e6c696e6b000000006044820152606401610732565b600a5f9054906101000a90046001600160a01b03166001600160a01b031663313ce5676040518163ffffffff1660e01b8152600401602060405180830381865afa158015610907573d5f5f3e3d5ffd5b505050506040513d601f19601f8201168201806040525081019061092b91906120a5565b60ff1660081461097d5760405162461bcd60e51b815260206004820152601e60248201527f556e6578706563746564207072696365206665656420646563696d616c7300006044820152606401610732565b610e1061098a82426120d9565b106109ca5760405162461bcd60e51b815260206004820152601060248201526f14dd185b19481c1c9a58d9481999595960821b6044820152606401610732565b5f826109e260146a52b7d2dcc80cd2e40000006120ec565b6109ec9190612103565b905080341015610a485760405162461bcd60e51b815260206004820152602160248201527f496e73756666696369656e742045544820666f72206d65726368616e742066656044820152606560f81b6064820152608401610732565b335f908152600b60205260408120805460ff19166001179055610a736006546001600160a01b031690565b6001600160a01b0316826040515f6040518083038185875af1925050503d805f8114610aba576040519150601f19603f3d011682016040523d82523d5f602084013e610abf565b606091505b5050905080610b065760405162461bcd60e51b8152602060048201526013602482015272119959481d1c985b9cd9995c8819985a5b1959606a1b6044820152606401610732565b5f610b1183346120d9565b90508015610ba0576040515f90339083908381818185875af1925050503d805f8114610b58576040519150601f19603f3d011682016040523d82523d5f602084013e610b5d565b606091505b5050905080610b9e5760405162461bcd60e51b815260206004820152600d60248201526c1499599d5b990819985a5b1959609a1b6044820152606401610732565b505b604080518481526014602082015233917fcdd9acb9c1802ad855553f406af68fe06b6739ca50a6befdeaced4e0ab71b34f910160405180910390a25050505050565b6001600160a01b038216610c0b57604051633250574960e11b81525f6004820152602401610732565b5f610c1783833361156a565b9050836001600160a01b0316816001600160a01b031614610c65576040516364283d7b60e01b81526001600160a01b0380861660048301526024820184905282166044820152606401610732565b50505050565b610c73611619565b610c7b61153f565b5f610c85826114ee565b6001600160a01b031603610cab5760405162461bcd60e51b815260040161073290612122565b610cb4816112ff565b15610cf95760405162461bcd60e51b8152602060048201526015602482015274151bdad95b88185b1c9958591e48195e1c1a5c9959605a1b6044820152606401610732565b610d05610e10426120d9565b5f8281526009602090815260409182902092909255518281527f754f3aa765fa1f221ea409fddea972deff6ce410d141d5cded4fc7ec690710c0910160405180910390a150565b610d54611619565b610d5c611646565b565b610d66611619565b610d6e61153f565b6001600160a01b038216610dc45760405162461bcd60e51b815260206004820152601b60248201527f43616e6e6f74206d696e7420746f207a65726f206164647265737300000000006044820152606401610732565b428111610e1d5760405162461bcd60e51b815260206004820152602160248201527f45787069726174696f6e206d75737420626520696e20746865206675747572656044820152601760f91b6064820152608401610732565b610e268261111d565b15610e735760405162461bcd60e51b815260206004820152601860248201527f5573657220616c726561647920686173206120746f6b656e00000000000000006044820152606401610732565b6001600160a01b0382165f908152600b602052604090205460ff16610ed25760405162461bcd60e51b815260206004820152601560248201527413595c98da185b9d08199959481b9bdd081c185a59605a1b6044820152606401610732565b6001600160a01b0382165f908152600b60205260408120805460ff1916905560078054909190610f0190612150565b909155506007545f818152600960205260409020829055610f22838261169b565b6001600160a01b0383165f8181526008602090815260409182902084905581518481529081018590527f655ff37b06d138fc26fda07d435a40368e63b8d3cbd7835215334ff9e7fcd782910160405180910390a2505050565b610f83611619565b610f8b61153f565b5f610f95836114ee565b6001600160a01b031603610fbb5760405162461bcd60e51b815260040161073290612122565b5f811161101c5760405162461bcd60e51b815260206004820152602960248201527f4164646974696f6e616c2074696d65206d7573742062652067726561746572206044820152687468616e207a65726f60b81b6064820152608401610732565b5f8281526009602052604081208054839290611039908490612168565b90915550505f82815260096020908152604091829020548251858152918201527f0db48b23ad6f04f212b5fddef4017753a195535f0d61c4daa790b4f70f28c07f910160405180910390a15050565b6110a283838360405180602001604052805f815250611276565b505050565b6110af61153f565b335f90815260086020526040812054908190036111075760405162461bcd60e51b81526020600482015260166024820152752cb7ba903237903737ba1037bbb71030903a37b5b2b760511b6044820152606401610732565b611110816116b8565b50565b5f6105d182611508565b5f6001600160a01b038216611147576040516322718ad960e21b81525f6004820152602401610732565b506001600160a01b03165f9081526003602052604090205490565b61116a611619565b610d5c5f6116f0565b61117b611619565b6001600160a01b0381166111c35760405162461bcd60e51b815260206004820152600f60248201526e496e76616c6964206164647265737360881b6044820152606401610732565b600a80546001600160a01b038381166001600160a01b0319831681179093556040519116919082907fa8abe0398416476db5b05737cd4da3b3cbde5012d978a6a6c3fd49d321753536905f90a35050565b61121c611619565b610d5c611741565b6001600160a01b0381165f9081526008602052604081205480820361124b57505f92915050565b5f611255826114ee565b6001600160a01b031614159392505050565b60606001805461064690612006565b611281848484610be2565b610c653385858585611784565b606061129982611508565b505f6112af60408051602081019091525f815290565b90505f8151116112cd5760405180602001604052805f8152506112f8565b806112d7846118ac565b6040516020016112e8929190612192565b6040516020818303038152906040525b9392505050565b5f8061130a836114ee565b6001600160a01b0316036113305760405162461bcd60e51b815260040161073290612122565b505f90815260096020526040902054421190565b5f8061134f836114ee565b6001600160a01b0316036113755760405162461bcd60e51b815260040161073290612122565b505f9081526009602052604090205490565b6001600160a01b039182165f90815260056020908152604080832093909416825291909152205460ff1690565b5f6001600160a01b0382166113fd5760405162461bcd60e51b815260206004820152600f60248201526e496e76616c6964206164647265737360881b6044820152606401610732565b6001600160a01b0382165f90815260086020526040812054908190036105d15760405162461bcd60e51b815260206004820152601b60248201527f4f776e657220646f6573206e6f742068617665206120746f6b656e00000000006044820152606401610732565b61146d611619565b6001600160a01b03811661149657604051631e4fbdf760e01b81525f6004820152602401610732565b611110816116f0565b5f6001600160e01b031982166380ac58cd60e01b14806114cf57506001600160e01b03198216635b5e139f60e01b145b806105d157506301ffc9a760e01b6001600160e01b03198316146105d1565b5f908152600260205260409020546001600160a01b031690565b5f5f611513836114ee565b90506001600160a01b0381166105d157604051637e27328960e01b815260048101849052602401610732565b600654600160a01b900460ff1615610d5c5760405163d93c066560e01b815260040160405180910390fd5b5f5f611575846114ee565b90506001600160a01b0381161580159061159757506001600160a01b03851615155b156115dd5760405162461bcd60e51b8152602060048201526016602482015275151c985b9cd9995c9cc8185c9948191a5cd8589b195960521b6044820152606401610732565b6001600160a01b03811615611605576001600160a01b0381165f908152600860205260408120555b61161085858561193c565b95945050505050565b6006546001600160a01b03163314610d5c5760405163118cdaa760e01b8152336004820152602401610732565b61164e611a29565b6006805460ff60a01b191690557f5db9ee0a495bf2e6ff9c91a7834c1ba4fdd244a5e8aa4e537bd38aeae4b073aa335b6040516001600160a01b03909116815260200160405180910390a1565b6116b4828260405180602001604052805f815250611a53565b5050565b5f6116c45f835f61156a565b90506001600160a01b0381166116b457604051637e27328960e01b815260048101839052602401610732565b600680546001600160a01b038381166001600160a01b0319831681179093556040519116919082907f8be0079c531659141344cd1fd0a4f28419497f9722a3daafe3b4186f6b6457e0905f90a35050565b61174961153f565b6006805460ff60a01b1916600160a01b1790557f62e78cea01bee320cd4e420270b5ea74000d11b0c9f74754ebdbfc544b05a25861167e3390565b6001600160a01b0383163b156118a557604051630a85bd0160e11b81526001600160a01b0384169063150b7a02906117c69088908890879087906004016121a6565b6020604051808303815f875af1925050508015611800575060408051601f3d908101601f191682019092526117fd918101906121e2565b60015b611867573d80801561182d576040519150601f19603f3d011682016040523d82523d5f602084013e611832565b606091505b5080515f0361185f57604051633250574960e11b81526001600160a01b0385166004820152602401610732565b805160208201fd5b6001600160e01b03198116630a85bd0160e11b146118a357604051633250574960e11b81526001600160a01b0385166004820152602401610732565b505b5050505050565b60605f6118b883611a6a565b60010190505f8167ffffffffffffffff8111156118d7576118d7611ee4565b6040519080825280601f01601f191660200182016040528015611901576020820181803683370190505b5090508181016020015b5f19016f181899199a1a9b1b9c1cb0b131b232b360811b600a86061a8153600a850494508461190b57509392505050565b5f5f611947846114ee565b90506001600160a01b0383161561196357611963818486611b41565b6001600160a01b0381161561199d5761197e5f855f5f611ba5565b6001600160a01b0381165f90815260036020526040902080545f190190555b6001600160a01b038516156119cb576001600160a01b0385165f908152600360205260409020805460010190555b5f8481526002602052604080822080546001600160a01b0319166001600160a01b0389811691821790925591518793918516917fddf252ad1be2c89b69c2b068fc378daa952ba7f163c4a11628f55a4df523b3ef91a4949350505050565b600654600160a01b900460ff16610d5c57604051638dfc202b60e01b815260040160405180910390fd5b611a5d8383611ca9565b6110a2335f858585611784565b5f8072184f03e93ff9f4daa797ed6e38ed64bf6a1f0160401b8310611aa85772184f03e93ff9f4daa797ed6e38ed64bf6a1f0160401b830492506040015b6d04ee2d6d415b85acef81000000008310611ad4576d04ee2d6d415b85acef8100000000830492506020015b662386f26fc100008310611af257662386f26fc10000830492506010015b6305f5e1008310611b0a576305f5e100830492506008015b6127108310611b1e57612710830492506004015b60648310611b30576064830492506002015b600a83106105d15760010192915050565b611b4c838383611d0a565b6110a2576001600160a01b038316611b7a57604051637e27328960e01b815260048101829052602401610732565b60405163177e802f60e01b81526001600160a01b038316600482015260248101829052604401610732565b8080611bb957506001600160a01b03821615155b15611c7a575f611bc884611508565b90506001600160a01b03831615801590611bf45750826001600160a01b0316816001600160a01b031614155b8015611c075750611c058184611387565b155b15611c305760405163a9fbf51f60e01b81526001600160a01b0384166004820152602401610732565b8115611c785783856001600160a01b0316826001600160a01b03167f8c5be1e5ebec7d5bd14f71427d1e84f3dd0314c0f7b2291e5b200ac8c7c3b92560405160405180910390a45b505b50505f90815260046020526040902080546001600160a01b0319166001600160a01b0392909216919091179055565b6001600160a01b038216611cd257604051633250574960e11b81525f6004820152602401610732565b5f611cde83835f61156a565b90506001600160a01b038116156110a2576040516339e3563760e11b81525f6004820152602401610732565b5f6001600160a01b03831615801590611d665750826001600160a01b0316846001600160a01b03161480611d435750611d438484611387565b80611d6657505f828152600460205260409020546001600160a01b038481169116145b949350505050565b6001600160e01b031981168114611110575f5ffd5b5f60208284031215611d93575f5ffd5b81356112f881611d6e565b80356001600160a01b0381168114611db4575f5ffd5b919050565b5f60208284031215611dc9575f5ffd5b6112f882611d9e565b5f81518084528060208401602086015e5f602082860101526020601f19601f83011685010191505092915050565b602081525f6112f86020830184611dd2565b5f60208284031215611e22575f5ffd5b5035919050565b5f5f60408385031215611e3a575f5ffd5b611e4383611d9e565b946020939093013593505050565b5f5f5f60608486031215611e63575f5ffd5b611e6c84611d9e565b9250611e7a60208501611d9e565b929592945050506040919091013590565b5f5f60408385031215611e9c575f5ffd5b50508035926020909101359150565b5f5f60408385031215611ebc575f5ffd5b611ec583611d9e565b915060208301358015158114611ed9575f5ffd5b809150509250929050565b634e487b7160e01b5f52604160045260245ffd5b5f5f5f5f60808587031215611f0b575f5ffd5b611f1485611d9e565b9350611f2260208601611d9e565b925060408501359150606085013567ffffffffffffffff811115611f44575f5ffd5b8501601f81018713611f54575f5ffd5b803567ffffffffffffffff811115611f6e57611f6e611ee4565b604051601f8201601f19908116603f0116810167ffffffffffffffff81118282101715611f9d57611f9d611ee4565b604052818152828201602001891015611fb4575f5ffd5b816020840160208301375f6020838301015280935050505092959194509250565b5f5f60408385031215611fe6575f5ffd5b611fef83611d9e565b9150611ffd60208401611d9e565b90509250929050565b600181811c9082168061201a57607f821691505b60208210810361203857634e487b7160e01b5f52602260045260245ffd5b50919050565b805169ffffffffffffffffffff81168114611db4575f5ffd5b5f5f5f5f5f60a0868803121561206b575f5ffd5b6120748661203e565b602087015160408801516060890151929750909550935091506120996080870161203e565b90509295509295909350565b5f602082840312156120b5575f5ffd5b815160ff811681146112f8575f5ffd5b634e487b7160e01b5f52601160045260245ffd5b818103818111156105d1576105d16120c5565b80820281158282048414176105d1576105d16120c5565b5f8261211d57634e487b7160e01b5f52601260045260245ffd5b500490565b602080825260149082015273151bdad95b88191bd95cc81b9bdd08195e1a5cdd60621b604082015260600190565b5f60018201612161576121616120c5565b5060010190565b808201808211156105d1576105d16120c5565b5f81518060208401855e5f93019283525090919050565b5f611d666121a0838661217b565b8461217b565b6001600160a01b03858116825284166020820152604081018390526080606082018190525f906121d890830184611dd2565b9695505050505050565b5f602082840312156121f2575f5ffd5b81516112f881611d6e56fea2646970667358221220ef123fb2fe39aff45aa7b5f214d650da97356c6d178d08a5cb7af69919b9e65564736f6c63430008220033",
  "linkReferences": {},
  "deployedLinkReferences": {}
}