{
  "_format": "hh-sol-artifact-1",
  "contractName": "Littercoin",
  "sourceName": "contracts/Littercoin.sol",
  "abi": [
    {
      "inputs": [
        {
          "internalType": "address",
          "name": "_priceFeed",
          "type": "address"
        }
      ],
      "stateMutability": "nonpayable",
      "type": "constructor"
    },
    {
      "inputs": [],
      "name": "ECDSAInvalidSignature",
      "type": "error"
    },
    {
      "inputs": [
        {
          "internalType": "uint256",
          "name": "length",
          "type": "uint256"
        }
      ],
      "name": "ECDSAInvalidSignatureLength",
      "type": "error"
    },
    {
      "inputs": [
        {
          "internalType": "bytes32",
          "name": "s",
          "type": "bytes32"
        }
      ],
      "name": "ECDSAInvalidSignatureS",
      "type": "error"
    },
    {
      "inputs": [],
      "name": "ERC721EnumerableForbiddenBatchMint",
      "type": "error"
    },
    {
      "inputs": [
        {
          "internalType": "address",
          "name": "sender",
          "type": "address"
        },
        {
          "internalType": "uint256",
          "name": "tokenId",
          "type": "uint256"
        },
        {
          "internalType": "address",
          "name": "owner",
          "type": "address"
        }
      ],
      "name": "ERC721IncorrectOwner",
      "type": "error"
    },
    {
      "inputs": [
        {
          "internalType": "address",
          "name": "operator",
          "type": "address"
        },
        {
          "internalType": "uint256",
          "name": "tokenId",
          "type": "uint256"
        }
      ],
      "name": "ERC721InsufficientApproval",
      "type": "error"
    },
    {
      "inputs": [
        {
          "internalType": "address",
          "name": "approver",
          "type": "address"
        }
      ],
      "name": "ERC721InvalidApprover",
      "type": "error"
    },
    {
      "inputs": [
        {
          "internalType": "address",
          "name": "operator",
          "type": "address"
        }
      ],
      "name": "ERC721InvalidOperator",
      "type": "error"
    },
    {
      "inputs": [
        {
          "internalType": "address",
          "name": "owner",
          "type": "address"
        }
      ],
      "name": "ERC721InvalidOwner",
      "type": "error"
    },
    {
      "inputs": [
        {
          "internalType": "address",
          "name": "receiver",
          "type": "address"
        }
      ],
      "name": "ERC721InvalidReceiver",
      "type": "error"
    },
    {
      "inputs": [
        {
          "internalType": "address",
          "name": "sender",
          "type": "address"
        }
      ],
      "name": "ERC721InvalidSender",
      "type": "error"
    },
    {
      "inputs": [
        {
          "internalType": "uint256",
          "name": "tokenId",
          "type": "uint256"
        }
      ],
      "name": "ERC721NonexistentToken",
      "type": "error"
    },
    {
      "inputs": [
        {
          "internalType": "address",
          "name": "owner",
          "type": "address"
        },
        {
          "internalType": "uint256",
          "name": "index",
          "type": "uint256"
        }
      ],
      "name": "ERC721OutOfBoundsIndex",
      "type": "error"
    },
    {
      "inputs": [],
      "name": "EnforcedPause",
      "type": "error"
    },
    {
      "inputs": [],
      "name": "ExpectedPause",
      "type": "error"
    },
    {
      "inputs": [],
      "name": "InvalidShortString",
      "type": "error"
    },
    {
      "inputs": [
        {
          "internalType": "address",
          "name": "owner",
          "type": "address"
        }
      ],
      "name": "OwnableInvalidOwner",
      "type": "error"
    },
    {
      "inputs": [
        {
          "internalType": "address",
          "name": "account",
          "type": "address"
        }
      ],
      "name": "OwnableUnauthorizedAccount",
      "type": "error"
    },
    {
      "inputs": [],
      "name": "ReentrancyGuardReentrantCall",
      "type": "error"
    },
    {
      "inputs": [
        {
          "internalType": "string",
          "name": "str",
          "type": "string"
        }
      ],
      "name": "StringTooLong",
      "type": "error"
    },
    {
      "anonymous": false,
      "inputs": [
        {
          "indexed": true,
          "internalType": "address",
          "name": "owner",
          "type": "address"
        },
        {
          "indexed": true,
          "internalType": "address",
          "name": "approved",
          "type": "address"
        },
        {
          "indexed": true,
          "internalType": "uint256",
          "name": "tokenId",
          "type": "uint256"
        }
      ],
      "name": "Approval",
      "type": "event"
    },
    {
      "anonymous": false,
      "inputs": [
        {
          "indexed": true,
          "internalType": "address",
          "name": "owner",
          "type": "address"
        },
        {
          "indexed": true,
          "internalType": "address",
          "name": "operator",
          "type": "address"
        },
        {
          "indexed": false,
          "internalType": "bool",
          "name": "approved",
          "type": "bool"
        }
      ],
      "name": "ApprovalForAll",
      "type": "event"
    },
    {
      "anonymous": false,
      "inputs": [
        {
          "indexed": true,
          "internalType": "address",
          "name": "user",
          "type": "address"
        },
        {
          "indexed": false,
          "internalType": "uint256",
          "name": "tokensToBurn",
          "type": "uint256"
        },
        {
          "indexed": false,
          "internalType": "uint256",
          "name": "ethAmount",
          "type": "uint256"
        }
      ],
      "name": "BurnLittercoin",
      "type": "event"
    },
    {
      "anonymous": false,
      "inputs": [
        {
          "indexed": true,
          "internalType": "address",
          "name": "owner",
          "type": "address"
        },
        {
          "indexed": false,
          "internalType": "uint256",
          "name": "taxAmount",
          "type": "uint256"
        }
      ],
      "name": "BurnTaxCollected",
      "type": "event"
    },
    {
      "anonymous": false,
      "inputs": [],
      "name": "EIP712DomainChanged",
      "type": "event"
    },
    {
      "anonymous": false,
      "inputs": [
        {
          "indexed": true,
          "internalType": "address",
          "name": "user",
          "type": "address"
        },
        {
          "indexed": false,
          "internalType": "uint256",
          "name": "amount",
          "type": "uint256"
        }
      ],
      "name": "Mint",
      "type": "event"
    },
    {
      "anonymous": false,
      "inputs": [
        {
          "indexed": true,
          "internalType": "address",
          "name": "previousOwner",
          "type": "address"
        },
        {
          "indexed": true,
          "internalType": "address",
          "name": "newOwner",
          "type": "address"
        }
      ],
      "name": "OwnershipTransferred",
      "type": "event"
    },
    {
      "anonymous": false,
      "inputs": [
        {
          "indexed": false,
          "internalType": "address",
          "name": "account",
          "type": "address"
        }
      ],
      "name": "Paused",
      "type": "event"
    },
    {
      "anonymous": false,
      "inputs": [
        {
          "indexed": true,
          "internalType": "address",
          "name": "user",
          "type": "address"
        },
        {
          "indexed": false,
          "internalType": "uint256",
          "name": "rewardAmount",
          "type": "uint256"
        }
      ],
      "name": "Reward",
      "type": "event"
    },
    {
      "anonymous": false,
      "inputs": [
        {
          "indexed": true,
          "internalType": "address",
          "name": "from",
          "type": "address"
        },
        {
          "indexed": true,
          "internalType": "address",
          "name": "to",
          "type": "address"
        },
        {
          "indexed": true,
          "internalType": "uint256",
          "name": "tokenId",
          "type": "uint256"
        }
      ],
      "name": "Transfer",
      "type": "event"
    },
    {
      "anonymous": false,
      "inputs": [
        {
          "indexed": false,
          "internalType": "address",
          "name": "account",
          "type": "address"
        }
      ],
      "name": "Unpaused",
      "type": "event"
    },
    {
      "inputs": [],
      "name": "BPS_DENOMINATOR",
      "outputs": [
        {
          "internalType": "uint256",
          "name": "",
          "type": "uint256"
        }
      ],
      "stateMutability": "view",
      "type": "function"
    },
    {
      "inputs": [],
      "name": "BURN_TAX_BPS",
      "outputs": [
        {
          "internalType": "uint256",
          "name": "",
          "type": "uint256"
        }
      ],
      "stateMutability": "view",
      "type": "function"
    },
    {
      "inputs": [],
      "name": "MAX_MINT_AMOUNT",
      "outputs": [
        {
          "internalType": "uint256",
          "name": "",
          "type": "uint256"
        }
      ],
      "stateMutability": "view",
      "type": "function"
    },
    {
      "inputs": [
        {
          "internalType": "address",
          "name": "to",
          "type": "address"
        },
        {
          "internalType": "uint256",
          "name": "tokenId",
          "type": "uint256"
        }
      ],
      "name": "approve",
      "outputs": [],
      "stateMutability": "nonpayable",
      "type": "function"
    },
    {
      "inputs": [
        {
          "internalType": "address",
          "name": "owner",
          "type": "address"
        }
      ],
      "name": "balanceOf",
      "outputs": [
        {
          "internalType": "uint256",
          "name": "",
          "type": "uint256"
        }
      ],
      "stateMutability": "view",
      "type": "function"
    },
    {
      "inputs": [
        {
          "internalType": "uint256[]",
          "name": "tokenIds",
          "type": "uint256[]"
        }
      ],
      "name": "burnLittercoin",
      "outputs": [],
      "stateMutability": "nonpayable",
      "type": "function"
    },
    {
      "inputs": [],
      "name": "eip712Domain",
      "outputs": [
        {
          "internalType": "bytes1",
          "name": "fields",
          "type": "bytes1"
        },
        {
          "internalType": "string",
          "name": "name",
          "type": "string"
        },
        {
          "internalType": "string",
          "name": "version",
          "type": "string"
        },
        {
          "internalType": "uint256",
          "name": "chainId",
          "type": "uint256"
        },
        {
          "internalType": "address",
          "name": "verifyingContract",
          "type": "address"
        },
        {
          "internalType": "bytes32",
          "name": "salt",
          "type": "bytes32"
        },
        {
          "internalType": "uint256[]",
          "name": "extensions",
          "type": "uint256[]"
        }
      ],
      "stateMutability": "view",
      "type": "function"
    },
    {
      "inputs": [
        {
          "internalType": "uint256",
          "name": "tokenId",
          "type": "uint256"
        }
      ],
      "name": "exists",
      "outputs": [
        {
          "internalType": "bool",
          "name": "",
          "type": "bool"
        }
      ],
      "stateMutability": "view",
      "type": "function"
    },
    {
      "inputs": [
        {
          "internalType": "uint256",
          "name": "tokenId",
          "type": "uint256"
        }
      ],
      "name": "getApproved",
      "outputs": [
        {
          "internalType": "address",
          "name": "",
          "type": "address"
        }
      ],
      "stateMutability": "view",
      "type": "function"
    },
    {
      "inputs": [],
      "name": "getCurrentTokenId",
      "outputs": [
        {
          "internalType": "uint256",
          "name": "",
          "type": "uint256"
        }
      ],
      "stateMutability": "view",
      "type": "function"
    },
    {
      "inputs": [],
      "name": "getMerchantTokenAddress",
      "outputs": [
        {
          "internalType": "address",
          "name": "",
          "type": "address"
        }
      ],
      "stateMutability": "view",
      "type": "function"
    },
    {
      "inputs": [],
      "name": "getRewardTokenAddress",
      "outputs": [
        {
          "internalType": "address",
          "name": "",
          "type": "address"
        }
      ],
      "stateMutability": "view",
      "type": "function"
    },
    {
      "inputs": [
        {
          "internalType": "address",
          "name": "owner",
          "type": "address"
        },
        {
          "internalType": "address",
          "name": "operator",
          "type": "address"
        }
      ],
      "name": "isApprovedForAll",
      "outputs": [
        {
          "internalType": "bool",
          "name": "",
          "type": "bool"
        }
      ],
      "stateMutability": "view",
      "type": "function"
    },
    {
      "inputs": [],
      "name": "merchantToken",
      "outputs": [
        {
          "internalType": "contract MerchantToken",
          "name": "",
          "type": "address"
        }
      ],
      "stateMutability": "view",
      "type": "function"
    },
    {
      "inputs": [
        {
          "internalType": "uint256",
          "name": "amount",
          "type": "uint256"
        },
        {
          "internalType": "uint256",
          "name": "nonce",
          "type": "uint256"
        },
        {
          "internalType": "uint256",
          "name": "expiry",
          "type": "uint256"
        },
        {
          "internalType": "bytes",
          "name": "signature",
          "type": "bytes"
        }
      ],
      "name": "mint",
      "outputs": [],
      "stateMutability": "nonpayable",
      "type": "function"
    },
    {
      "inputs": [],
      "name": "name",
      "outputs": [
        {
          "internalType": "string",
          "name": "",
          "type": "string"
        }
      ],
      "stateMutability": "view",
      "type": "function"
    },
    {
      "inputs": [],
      "name": "owner",
      "outputs": [
        {
          "internalType": "address",
          "name": "",
          "type": "address"
        }
      ],
      "stateMutability": "view",
      "type": "function"
    },
    {
      "inputs": [
        {
          "internalType": "uint256",
          "name": "tokenId",
          "type": "uint256"
        }
      ],
      "name": "ownerOf",
      "outputs": [
        {
          "internalType": "address",
          "name": "",
          "type": "address"
        }
      ],
      "stateMutability": "view",
      "type": "function"
    },
    {
      "inputs": [],
      "name": "pause",
      "outputs": [],
      "stateMutability": "nonpayable",
      "type": "function"
    },
    {
      "inputs": [],
      "name": "paused",
      "outputs": [
        {
          "internalType": "bool",
          "name": "",
          "type": "bool"
        }
      ],
      "stateMutability": "view",
      "type": "function"
    },
    {
      "inputs": [],
      "name": "renounceOwnership",
      "outputs": [],
      "stateMutability": "nonpayable",
      "type": "function"
    },
    {
      "inputs": [],
      "name": "rewardToken",
      "outputs": [
        {
          "internalType": "contract OLMThankYouToken",
          "name": "",
          "type": "address"
        }
      ],
      "stateMutability": "view",
      "type": "function"
    },
    {
      "inputs": [
        {
          "internalType": "address",
          "name": "from",
          "type": "address"
        },
        {
          "internalType": "address",
          "name": "to",
          "type": "address"
        },
        {
          "internalType": "uint256",
          "name": "tokenId",
          "type": "uint256"
        }
      ],
      "name": "safeTransferFrom",
      "outputs": [],
      "stateMutability": "nonpayable",
      "type": "function"
    },
    {
      "inputs": [
        {
          "internalType": "address",
          "name": "from",
          "type": "address"
        },
        {
          "internalType": "address",
          "name": "to",
          "type": "address"
        },
        {
          "internalType": "uint256",
          "name": "tokenId",
          "type": "uint256"
        },
        {
          "internalType": "bytes",
          "name": "data",
          "type": "bytes"
        }
      ],
      "name": "safeTransferFrom",
      "outputs": [],
      "stateMutability": "nonpayable",
      "type": "function"
    },
    {
      "inputs": [
        {
          "internalType": "address",
          "name": "operator",
          "type": "address"
        },
        {
          "internalType": "bool",
          "name": "approved",
          "type": "bool"
        }
      ],
      "name": "setApprovalForAll",
      "outputs": [],
      "stateMutability": "nonpayable",
      "type": "function"
    },
    {
      "inputs": [
        {
          "internalType": "bytes4",
          "name": "interfaceId",
          "type": "bytes4"
        }
      ],
      "name": "supportsInterface",
      "outputs": [
        {
          "internalType": "bool",
          "name": "",
          "type": "bool"
        }
      ],
      "stateMutability": "view",
      "type": "function"
    },
    {
      "inputs": [],
      "name": "symbol",
      "outputs": [
        {
          "internalType": "string",
          "name": "",
          "type": "string"
        }
      ],
      "stateMutability": "view",
      "type": "function"
    },
    {
      "inputs": [
        {
          "internalType": "uint256",
          "name": "index",
          "type": "uint256"
        }
      ],
      "name": "tokenByIndex",
      "outputs": [
        {
          "internalType": "uint256",
          "name": "",
          "type": "uint256"
        }
      ],
      "stateMutability": "view",
      "type": "function"
    },
    {
      "inputs": [
        {
          "internalType": "address",
          "name": "owner",
          "type": "address"
        },
        {
          "internalType": "uint256",
          "name": "index",
          "type": "uint256"
        }
      ],
      "name": "tokenOfOwnerByIndex",
      "outputs": [
        {
          "internalType": "uint256",
          "name": "",
          "type": "uint256"
        }
      ],
      "stateMutability": "view",
      "type": "function"
    },
    {
      "inputs": [
        {
          "internalType": "uint256",
          "name": "",
          "type": "uint256"
        }
      ],
      "name": "tokenTransferred",
      "outputs": [
        {
          "internalType": "bool",
          "name": "",
          "type": "bool"
        }
      ],
      "stateMutability": "view",
      "type": "function"
    },
    {
      "inputs": [
        {
          "internalType": "uint256",
          "name": "tokenId",
          "type": "uint256"
        }
      ],
      "name": "tokenURI",
      "outputs": [
        {
          "internalType": "string",
          "name": "",
          "type": "string"
        }
      ],
      "stateMutability": "view",
      "type": "function"
    },
    {
      "inputs": [],
      "name": "totalSupply",
      "outputs": [
        {
          "internalType": "uint256",
          "name": "",
          "type": "uint256"
        }
      ],
      "stateMutability": "view",
      "type": "function"
    },
    {
      "inputs": [
        {
          "internalType": "address",
          "name": "from",
          "type": "address"
        },
        {
          "internalType": "address",
          "name": "to",
          "type": "address"
        },
        {
          "internalType": "uint256",
          "name": "tokenId",
          "type": "uint256"
        }
      ],
      "name": "transferFrom",
      "outputs": [],
      "stateMutability": "nonpayable",
      "type": "function"
    },
    {
      "inputs": [
        {
          "internalType": "address",
          "name": "newOwner",
          "type": "address"
        }
      ],
      "name": "transferOwnership",
      "outputs": [],
      "stateMutability": "nonpayable",
      "type": "function"
    },
    {
      "inputs": [],
      "name": "unpause",
      "outputs": [],
      "stateMutability": "nonpayable",
      "type": "function"
    },
    {
      "inputs": [
        {
          "internalType": "uint256",
          "name": "",
          "type": "uint256"
        }
      ],
      "name": "usedNonces",
      "outputs": [
        {
          "internalType": "bool",
          "name": "",
          "type": "bool"
        }
      ],
      "stateMutability": "view",
      "type": "function"
    },
    {
      "stateMutability": "payable",
      "type": "receive"
    }
  ],
  "bytecode": "0x610160604052348015610010575f5ffd5b5060405161be7438038061be7483398181016040528101906100329190610624565b6040518060400160405280600a81526020017f4c6974746572636f696e000000000000000000000000000000000000000000008152506040518060400160405280600181526020017f3100000000000000000000000000000000000000000000000000000000000000815250336040518060400160405280600a81526020017f4c6974746572636f696e000000000000000000000000000000000000000000008152506040518060400160405280600781526020017f4c49545445525800000000000000000000000000000000000000000000000000815250815f9081610119919061088c565b508060019081610129919061088c565b5050505f73ffffffffffffffffffffffffffffffffffffffff168173ffffffffffffffffffffffffffffffffffffffff160361019c575f6040517f1e4fbdf7000000000000000000000000000000000000000000000000000000008152600401610193919061096a565b60405180910390fd5b6101ab816103a260201b60201c565b5060016101ca6101bf61046560201b60201c565b61048e60201b60201c565b5f01819055506101e4600b8361049760201b90919060201c565b6101208181525050610200600c8261049760201b90919060201c565b6101408181525050818051906020012060e08181525050808051906020012061010081815250504660a0818152505061023d6104e460201b60201c565b608081815250503073ffffffffffffffffffffffffffffffffffffffff1660c08173ffffffffffffffffffffffffffffffffffffffff1681525050505030604051610287906105ac565b610291919061096a565b604051809103905ff0801580156102aa573d5f5f3e3d5ffd5b5060105f6101000a81548173ffffffffffffffffffffffffffffffffffffffff021916908373ffffffffffffffffffffffffffffffffffffffff16021790555033816040516102f8906105b9565b610303929190610983565b604051809103905ff08015801561031c573d5f5f3e3d5ffd5b5060115f6101000a81548173ffffffffffffffffffffffffffffffffffffffff021916908373ffffffffffffffffffffffffffffffffffffffff1602179055508060125f6101000a81548173ffffffffffffffffffffffffffffffffffffffff021916908373ffffffffffffffffffffffffffffffffffffffff16021790555050610b3b565b5f600a5f9054906101000a900473ffffffffffffffffffffffffffffffffffffffff16905081600a5f6101000a81548173ffffffffffffffffffffffffffffffffffffffff021916908373ffffffffffffffffffffffffffffffffffffffff1602179055508173ffffffffffffffffffffffffffffffffffffffff168173ffffffffffffffffffffffffffffffffffffffff167f8be0079c531659141344cd1fd0a4f28419497f9722a3daafe3b4186f6b6457e060405160405180910390a35050565b5f7f9b779b17422d0df92223018b32b4d1fa46e071723d6817e2486d003becc55f005f1b905090565b5f819050919050565b5f6020835110156104b8576104b18361053e60201b60201c565b90506104de565b826104c8836105a360201b60201c565b5f0190816104d6919061088c565b5060ff5f1b90505b92915050565b5f7f8b73c3c69bb8fe3d512ecc4cf759cc79239f7b179b0ffacaa9a75d522b39400f60e0516101005146306040516020016105239594939291906109d1565b60405160208183030381529060405280519060200120905090565b5f5f829050601f8151111561058a57826040517f305a27a90000000000000000000000000000000000000000000000000000000081526004016105819190610a88565b60405180910390fd5b80518161059690610ad5565b5f1c175f1b915050919050565b5f819050919050565b6116ef806160e483390190565b6146a1806177d383390190565b5f5ffd5b5f73ffffffffffffffffffffffffffffffffffffffff82169050919050565b5f6105f3826105ca565b9050919050565b610603816105e9565b811461060d575f5ffd5b50565b5f8151905061061e816105fa565b92915050565b5f60208284031215610639576106386105c6565b5b5f61064684828501610610565b91505092915050565b5f81519050919050565b7f4e487b71000000000000000000000000000000000000000000000000000000005f52604160045260245ffd5b7f4e487b71000000000000000000000000000000000000000000000000000000005f52602260045260245ffd5b5f60028204905060018216806106ca57607f821691505b6020821081036106dd576106dc610686565b5b50919050565b5f819050815f5260205f209050919050565b5f6020601f8301049050919050565b5f82821b905092915050565b5f6008830261073f7fffffffffffffffffffffffffffffffffffffffffffffffffffffffffffffffff82610704565b6107498683610704565b95508019841693508086168417925050509392505050565b5f819050919050565b5f819050919050565b5f61078d61078861078384610761565b61076a565b610761565b9050919050565b5f819050919050565b6107a683610773565b6107ba6107b282610794565b848454610710565b825550505050565b5f5f905090565b6107d16107c2565b6107dc81848461079d565b505050565b5b818110156107ff576107f45f826107c9565b6001810190506107e2565b5050565b601f82111561084457610815816106e3565b61081e846106f5565b8101602085101561082d578190505b610841610839856106f5565b8301826107e1565b50505b505050565b5f82821c905092915050565b5f6108645f1984600802610849565b1980831691505092915050565b5f61087c8383610855565b9150826002028217905092915050565b6108958261064f565b67ffffffffffffffff8111156108ae576108ad610659565b5b6108b882546106b3565b6108c3828285610803565b5f60209050601f8311600181146108f4575f84156108e2578287015190505b6108ec8582610871565b865550610953565b601f198416610902866106e3565b5f5b8281101561092957848901518255600182019150602085019450602081019050610904565b868310156109465784890151610942601f891682610855565b8355505b6001600288020188555050505b505050505050565b610964816105e9565b82525050565b5f60208201905061097d5f83018461095b565b92915050565b5f6040820190506109965f83018561095b565b6109a3602083018461095b565b9392505050565b5f819050919050565b6109bc816109aa565b82525050565b6109cb81610761565b82525050565b5f60a0820190506109e45f8301886109b3565b6109f160208301876109b3565b6109fe60408301866109b3565b610a0b60608301856109c2565b610a18608083018461095b565b9695505050505050565b5f82825260208201905092915050565b8281835e5f83830152505050565b5f601f19601f8301169050919050565b5f610a5a8261064f565b610a648185610a22565b9350610a74818560208601610a32565b610a7d81610a40565b840191505092915050565b5f6020820190508181035f830152610aa08184610a50565b905092915050565b5f81519050919050565b5f819050602082019050919050565b5f610acc82516109aa565b80915050919050565b5f610adf82610aa8565b82610ae984610ab2565b9050610af481610ac1565b92506020821015610b3457610b2f7fffffffffffffffffffffffffffffffffffffffffffffffffffffffffffffffff83602003600802610704565b831692505b5050919050565b60805160a05160c05160e051610100516101205161014051615558610b8c5f395f6125e101525f6125a601525f613b9c01525f613b7b01525f61375501525f6137ab01525f6137d401526155585ff3fe608060405260043610610212575f3560e01c8063715018a611610117578063a22cb4651161009f578063e985e9c51161006e578063e985e9c514610aa6578063ee876a6c14610ae2578063f2fde38b14610b1e578063f7c618c114610b46578063fa9b701814610b705761052e565b8063a22cb465146109f0578063b88d4fde14610a18578063c87b56dd14610a40578063e1a4521814610a7c5761052e565b806384b0196e116100e657806384b0196e146109185780638c1a1f77146109485780638da5cb5b1461097257806395d89b411461099c57806399e117a0146109c65761052e565b8063715018a614610898578063744c0f93146108ae57806377cf2c74146108d85780638456cb59146109025761052e565b806342842e0e1161019a578063561892361161016957806356189236146107905780635c975abb146107ba5780636352211e146107e45780636717e41c1461082057806370a082311461085c5761052e565b806342842e0e146106c85780634a9eee69146106f05780634f558e79146107185780634f6ccce7146107545761052e565b806318160ddd116101e157806318160ddd146105fc5780631edf9acd1461062657806323b872dd1461064e5780632f745c59146106765780633f4ba83a146106b25761052e565b806301ffc9a71461053257806306fdde031461056e578063081812fc14610598578063095ea7b3146105d45761052e565b3661052e5761021f610b9a565b610227610bbc565b5f3490505f5f60125f9054906101000a900473ffffffffffffffffffffffffffffffffffffffff1673ffffffffffffffffffffffffffffffffffffffff1663feaf968c6040518163ffffffff1660e01b815260040160a060405180830381865afa158015610297573d5f5f3e3d5ffd5b505050506040513d601f19601f820116820180604052508101906102bb9190613db0565b509350509250505f8213610304576040517f08c379a00000000000000000000000000000000000000000000000000000000081526004016102fb90613e81565b60405180910390fd5b600860125f9054906101000a900473ffffffffffffffffffffffffffffffffffffffff1673ffffffffffffffffffffffffffffffffffffffff1663313ce5676040518163ffffffff1660e01b8152600401602060405180830381865afa158015610370573d5f5f3e3d5ffd5b505050506040513d601f19601f820116820180604052508101906103949190613ed5565b60ff16146103d7576040517f08c379a00000000000000000000000000000000000000000000000000000000081526004016103ce90613f4a565b60405180910390fd5b610e1081426103e69190613f95565b10610426576040517f08c379a000000000000000000000000000000000000000000000000000000000815260040161041d90614012565b60405180910390fd5b5f8290505f6305f5e100828661043c9190614030565b610446919061409e565b905060105f9054906101000a900473ffffffffffffffffffffffffffffffffffffffff1673ffffffffffffffffffffffffffffffffffffffff166340c10f1933836040518363ffffffff1660e01b81526004016104a492919061411c565b5f604051808303815f87803b1580156104bb575f5ffd5b505af11580156104cd573d5f5f3e3d5ffd5b505050503373ffffffffffffffffffffffffffffffffffffffff167f619caafabdd75649b302ba8419e48cccf64f37f1983ac4727cfb38b57703ffc9826040516105179190614143565b60405180910390a2505050505061052c610bfd565b005b5f5ffd5b34801561053d575f5ffd5b50610558600480360381019061055391906141b1565b610c17565b60405161056591906141f6565b60405180910390f35b348015610579575f5ffd5b50610582610c28565b60405161058f919061426f565b60405180910390f35b3480156105a3575f5ffd5b506105be60048036038101906105b991906142a3565b610cb7565b6040516105cb91906142ce565b60405180910390f35b3480156105df575f5ffd5b506105fa60048036038101906105f59190614311565b610cd2565b005b348015610607575f5ffd5b50610610610ce8565b60405161061d9190614143565b60405180910390f35b348015610631575f5ffd5b5061064c600480360381019061064791906143b0565b610cf4565b005b348015610659575f5ffd5b50610674600480360381019061066f91906143fb565b611212565b005b348015610681575f5ffd5b5061069c60048036038101906106979190614311565b611311565b6040516106a99190614143565b60405180910390f35b3480156106bd575f5ffd5b506106c66113b5565b005b3480156106d3575f5ffd5b506106ee60048036038101906106e991906143fb565b6113c7565b005b3480156106fb575f5ffd5b5061071660048036038101906107119190614573565b6113e6565b005b348015610723575f5ffd5b5061073e600480360381019061073991906142a3565b61162f565b60405161074b91906141f6565b60405180910390f35b34801561075f575f5ffd5b5061077a600480360381019061077591906142a3565b61166f565b6040516107879190614143565b60405180910390f35b34801561079b575f5ffd5b506107a46116e1565b6040516107b19190614143565b60405180910390f35b3480156107c5575f5ffd5b506107ce6116ea565b6040516107db91906141f6565b60405180910390f35b3480156107ef575f5ffd5b5061080a600480360381019061080591906142a3565b611700565b60405161081791906142ce565b60405180910390f35b34801561082b575f5ffd5b50610846600480360381019061084191906142a3565b611711565b60405161085391906141f6565b60405180910390f35b348015610867575f5ffd5b50610882600480360381019061087d91906145f3565b61172e565b60405161088f9190614143565b60405180910390f35b3480156108a3575f5ffd5b506108ac6117e4565b005b3480156108b9575f5ffd5b506108c26117f7565b6040516108cf91906142ce565b60405180910390f35b3480156108e3575f5ffd5b506108ec61181f565b6040516108f99190614143565b60405180910390f35b34801561090d575f5ffd5b50610916611825565b005b348015610923575f5ffd5b5061092c611837565b60405161093f9796959493929190614727565b60405180910390f35b348015610953575f5ffd5b5061095c6118dc565b6040516109699190614804565b60405180910390f35b34801561097d575f5ffd5b50610986611901565b60405161099391906142ce565b60405180910390f35b3480156109a7575f5ffd5b506109b0611929565b6040516109bd919061426f565b60405180910390f35b3480156109d1575f5ffd5b506109da6119b9565b6040516109e791906142ce565b60405180910390f35b3480156109fb575f5ffd5b50610a166004803603810190610a119190614847565b6119e1565b005b348015610a23575f5ffd5b50610a3e6004803603810190610a399190614885565b6119f7565b005b348015610a4b575f5ffd5b50610a666004803603810190610a6191906142a3565b611a1c565b604051610a73919061426f565b60405180910390f35b348015610a87575f5ffd5b50610a90611a82565b604051610a9d9190614143565b60405180910390f35b348015610ab1575f5ffd5b50610acc6004803603810190610ac79190614905565b611a88565b604051610ad991906141f6565b60405180910390f35b348015610aed575f5ffd5b50610b086004803603810190610b0391906142a3565b611b16565b604051610b1591906141f6565b60405180910390f35b348015610b29575f5ffd5b50610b446004803603810190610b3f91906145f3565b611b33565b005b348015610b51575f5ffd5b50610b5a611bb7565b604051610b679190614963565b60405180910390f35b348015610b7b575f5ffd5b50610b84611bdc565b604051610b919190614143565b60405180910390f35b610ba2611be1565b6002610bb4610baf611c22565b611c4b565b5f0181905550565b610bc46116ea565b15610bfb576040517fd93c066500000000000000000000000000000000000000000000000000000000815260040160405180910390fd5b565b6001610c0f610c0a611c22565b611c4b565b5f0181905550565b5f610c2182611c54565b9050919050565b60605f8054610c36906149a9565b80601f0160208091040260200160405190810160405280929190818152602001828054610c62906149a9565b8015610cad5780601f10610c8457610100808354040283529160200191610cad565b820191905f5260205f20905b815481529060010190602001808311610c9057829003601f168201915b5050505050905090565b5f610cc182611ccd565b50610ccb82611d53565b9050919050565b610ce48282610cdf611d8c565b611d93565b5050565b5f600880549050905090565b610cfc610b9a565b610d04610bbc565b60115f9054906101000a900473ffffffffffffffffffffffffffffffffffffffff1673ffffffffffffffffffffffffffffffffffffffff1663952e5cb4336040518263ffffffff1660e01b8152600401610d5e91906142ce565b602060405180830381865afa158015610d79573d5f5f3e3d5ffd5b505050506040513d601f19601f82011682018060405250810190610d9d91906149ed565b610ddc576040517f08c379a0000000000000000000000000000000000000000000000000000000008152600401610dd390614a62565b60405180910390fd5b5f8282905090505f8111610e25576040517f08c379a0000000000000000000000000000000000000000000000000000000008152600401610e1c90614aca565b60405180910390fd5b5f610e2e610ce8565b90505f8111610e72576040517f08c379a0000000000000000000000000000000000000000000000000000000008152600401610e6990614b32565b60405180910390fd5b5f4790505f8111610eb8576040517f08c379a0000000000000000000000000000000000000000000000000000000008152600401610eaf90614b9a565b60405180910390fd5b5f5f90505b83811015610f6f575f868683818110610ed957610ed8614bb8565b5b9050602002013590503373ffffffffffffffffffffffffffffffffffffffff16610f0282611700565b73ffffffffffffffffffffffffffffffffffffffff1614610f58576040517f08c379a0000000000000000000000000000000000000000000000000000000008152600401610f4f90614c55565b60405180910390fd5b610f6181611da5565b508080600101915050610ebd565b505f828483610f7e9190614030565b610f88919061409e565b90505f8111610fcc576040517f08c379a0000000000000000000000000000000000000000000000000000000008152600401610fc390614cbd565b60405180910390fd5b5f6127106101a483610fde9190614030565b610fe8919061409e565b90505f8183610ff79190613f95565b90505f821115611107575f61100a611901565b73ffffffffffffffffffffffffffffffffffffffff168360405161102d90614d08565b5f6040518083038185875af1925050503d805f8114611067576040519150601f19603f3d011682016040523d82523d5f602084013e61106c565b606091505b50509050806110b0576040517f08c379a00000000000000000000000000000000000000000000000000000000081526004016110a790614d66565b60405180910390fd5b6110b8611901565b73ffffffffffffffffffffffffffffffffffffffff167f20cc6c5a2098012d92c13fcf18a1c51b47fd8a02cb55cd515a83ec3fb01cae6e846040516110fd9190614143565b60405180910390a2505b5f3373ffffffffffffffffffffffffffffffffffffffff168260405161112c90614d08565b5f6040518083038185875af1925050503d805f8114611166576040519150601f19603f3d011682016040523d82523d5f602084013e61116b565b606091505b50509050806111af576040517f08c379a00000000000000000000000000000000000000000000000000000000081526004016111a690614dce565b60405180910390fd5b3373ffffffffffffffffffffffffffffffffffffffff167f62c43c4ca6239525d02ec5d50013da458e2aabd6147394ddd139edae8d84439b88846040516111f7929190614dec565b60405180910390a25050505050505061120e610bfd565b5050565b5f73ffffffffffffffffffffffffffffffffffffffff168273ffffffffffffffffffffffffffffffffffffffff1603611282575f6040517f64a0ae9200000000000000000000000000000000000000000000000000000000815260040161127991906142ce565b60405180910390fd5b5f6112958383611290611d8c565b611e27565b90508373ffffffffffffffffffffffffffffffffffffffff168173ffffffffffffffffffffffffffffffffffffffff161461130b578382826040517f64283d7b00000000000000000000000000000000000000000000000000000000815260040161130293929190614e13565b60405180910390fd5b50505050565b5f61131b8361172e565b82106113605782826040517fa57d13dc00000000000000000000000000000000000000000000000000000000815260040161135792919061411c565b60405180910390fd5b60065f8473ffffffffffffffffffffffffffffffffffffffff1673ffffffffffffffffffffffffffffffffffffffff1681526020019081526020015f205f8381526020019081526020015f2054905092915050565b6113bd6122ac565b6113c5612333565b565b6113e183838360405180602001604052805f8152506119f7565b505050565b6113ee610bbc565b5f841180156113fe5750600a8411155b61143d576040517f08c379a000000000000000000000000000000000000000000000000000000000815260040161143490614e92565b60405180910390fd5b81421115611480576040517f08c379a000000000000000000000000000000000000000000000000000000000815260040161147790614efa565b60405180910390fd5b600e5f8481526020019081526020015f205f9054906101000a900460ff16156114de576040517f08c379a00000000000000000000000000000000000000000000000000000000081526004016114d590614f62565b60405180910390fd5b6001600e5f8581526020019081526020015f205f6101000a81548160ff0219169083151502179055505f61151433868686612395565b90505f61152182846123f7565b905061152b611901565b73ffffffffffffffffffffffffffffffffffffffff168173ffffffffffffffffffffffffffffffffffffffff1614611598576040517f08c379a000000000000000000000000000000000000000000000000000000000815260040161158f90614fca565b60405180910390fd5b5f5f90505b868110156115d857600d5f81546115b390614fe8565b919050819055505f600d5490506115ca3382612421565b50808060010191505061159d565b503373ffffffffffffffffffffffffffffffffffffffff167f0f6798a560793a54c3bcfe86a93cde1e73087d944c0ea20544137d41213968858760405161161f9190614143565b60405180910390a2505050505050565b5f5f73ffffffffffffffffffffffffffffffffffffffff166116508361243e565b73ffffffffffffffffffffffffffffffffffffffff1614159050919050565b5f611678610ce8565b82106116bd575f826040517fa57d13dc0000000000000000000000000000000000000000000000000000000081526004016116b492919061411c565b60405180910390fd5b600882815481106116d1576116d0614bb8565b5b905f5260205f2001549050919050565b5f600d54905090565b5f600a60149054906101000a900460ff16905090565b5f61170a82611ccd565b9050919050565b600e602052805f5260405f205f915054906101000a900460ff1681565b5f5f73ffffffffffffffffffffffffffffffffffffffff168273ffffffffffffffffffffffffffffffffffffffff160361179f575f6040517f89c62b6400000000000000000000000000000000000000000000000000000000815260040161179691906142ce565b60405180910390fd5b60035f8373ffffffffffffffffffffffffffffffffffffffff1673ffffffffffffffffffffffffffffffffffffffff1681526020019081526020015f20549050919050565b6117ec6122ac565b6117f55f612477565b565b5f60115f9054906101000a900473ffffffffffffffffffffffffffffffffffffffff16905090565b6101a481565b61182d6122ac565b61183561253a565b565b5f6060805f5f5f606061184861259d565b6118506125d8565b46305f5f1b5f67ffffffffffffffff81111561186f5761186e61444f565b5b60405190808252806020026020018201604052801561189d5781602001602082028036833780820191505090505b507f0f00000000000000000000000000000000000000000000000000000000000000959493929190965096509650965096509650965090919293949596565b60115f9054906101000a900473ffffffffffffffffffffffffffffffffffffffff1681565b5f600a5f9054906101000a900473ffffffffffffffffffffffffffffffffffffffff16905090565b606060018054611938906149a9565b80601f0160208091040260200160405190810160405280929190818152602001828054611964906149a9565b80156119af5780601f10611986576101008083540402835291602001916119af565b820191905f5260205f20905b81548152906001019060200180831161199257829003601f168201915b5050505050905090565b5f60105f9054906101000a900473ffffffffffffffffffffffffffffffffffffffff16905090565b6119f36119ec611d8c565b8383612613565b5050565b611a02848484611212565b611a16611a0d611d8c565b858585856127ec565b50505050565b6060611a2782611ccd565b505f611a31612998565b90505f815111611a4f5760405180602001604052805f815250611a7a565b80611a59846129ae565b604051602001611a6a929190615069565b6040516020818303038152906040525b915050919050565b61271081565b5f60055f8473ffffffffffffffffffffffffffffffffffffffff1673ffffffffffffffffffffffffffffffffffffffff1681526020019081526020015f205f8373ffffffffffffffffffffffffffffffffffffffff1673ffffffffffffffffffffffffffffffffffffffff1681526020019081526020015f205f9054906101000a900460ff16905092915050565b600f602052805f5260405f205f915054906101000a900460ff1681565b611b3b6122ac565b5f73ffffffffffffffffffffffffffffffffffffffff168173ffffffffffffffffffffffffffffffffffffffff1603611bab575f6040517f1e4fbdf7000000000000000000000000000000000000000000000000000000008152600401611ba291906142ce565b60405180910390fd5b611bb481612477565b50565b60105f9054906101000a900473ffffffffffffffffffffffffffffffffffffffff1681565b600a81565b611be9612a78565b15611c20576040517f3ee5aeb500000000000000000000000000000000000000000000000000000000815260040160405180910390fd5b565b5f7f9b779b17422d0df92223018b32b4d1fa46e071723d6817e2486d003becc55f005f1b905090565b5f819050919050565b5f7f780e9d63000000000000000000000000000000000000000000000000000000007bffffffffffffffffffffffffffffffffffffffffffffffffffffffff1916827bffffffffffffffffffffffffffffffffffffffffffffffffffffffff19161480611cc65750611cc582612a94565b5b9050919050565b5f5f611cd88361243e565b90505f73ffffffffffffffffffffffffffffffffffffffff168173ffffffffffffffffffffffffffffffffffffffff1603611d4a57826040517f7e273289000000000000000000000000000000000000000000000000000000008152600401611d419190614143565b60405180910390fd5b80915050919050565b5f60045f8381526020019081526020015f205f9054906101000a900473ffffffffffffffffffffffffffffffffffffffff169050919050565b5f33905090565b611da08383836001612b75565b505050565b5f611db15f835f611e27565b90505f73ffffffffffffffffffffffffffffffffffffffff168173ffffffffffffffffffffffffffffffffffffffff1603611e2357816040517f7e273289000000000000000000000000000000000000000000000000000000008152600401611e1a9190614143565b60405180910390fd5b5050565b5f611e30610bbc565b5f611e3a8461243e565b90505f73ffffffffffffffffffffffffffffffffffffffff168173ffffffffffffffffffffffffffffffffffffffff1603611f4d5760115f9054906101000a900473ffffffffffffffffffffffffffffffffffffffff1673ffffffffffffffffffffffffffffffffffffffff166302556a29866040518263ffffffff1660e01b8152600401611ec991906142ce565b602060405180830381865afa158015611ee4573d5f5f3e3d5ffd5b505050506040513d601f19601f82011682018060405250810190611f0891906149ed565b15611f48576040517f08c379a0000000000000000000000000000000000000000000000000000000008152600401611f3f906150d6565b60405180910390fd5b612297565b5f73ffffffffffffffffffffffffffffffffffffffff168573ffffffffffffffffffffffffffffffffffffffff160361205d5760115f9054906101000a900473ffffffffffffffffffffffffffffffffffffffff1673ffffffffffffffffffffffffffffffffffffffff1663952e5cb4826040518263ffffffff1660e01b8152600401611fda91906142ce565b602060405180830381865afa158015611ff5573d5f5f3e3d5ffd5b505050506040513d601f19601f8201168201806040525081019061201991906149ed565b612058576040517f08c379a000000000000000000000000000000000000000000000000000000000815260040161204f9061513e565b60405180910390fd5b612296565b600f5f8581526020019081526020015f205f9054906101000a900460ff16156120bb576040517f08c379a00000000000000000000000000000000000000000000000000000000081526004016120b2906151cc565b60405180910390fd5b60115f9054906101000a900473ffffffffffffffffffffffffffffffffffffffff1673ffffffffffffffffffffffffffffffffffffffff166302556a29826040518263ffffffff1660e01b815260040161211591906142ce565b602060405180830381865afa158015612130573d5f5f3e3d5ffd5b505050506040513d601f19601f8201168201806040525081019061215491906149ed565b15612194576040517f08c379a000000000000000000000000000000000000000000000000000000000815260040161218b90615234565b60405180910390fd5b60115f9054906101000a900473ffffffffffffffffffffffffffffffffffffffff1673ffffffffffffffffffffffffffffffffffffffff166302556a29866040518263ffffffff1660e01b81526004016121ee91906142ce565b602060405180830381865afa158015612209573d5f5f3e3d5ffd5b505050506040513d601f19601f8201168201806040525081019061222d91906149ed565b61226c576040517f08c379a0000000000000000000000000000000000000000000000000000000008152600401612263906152c2565b60405180910390fd5b6001600f5f8681526020019081526020015f205f6101000a81548160ff0219169083151502179055505b5b6122a2858585612d34565b9150509392505050565b6122b4611d8c565b73ffffffffffffffffffffffffffffffffffffffff166122d2611901565b73ffffffffffffffffffffffffffffffffffffffff1614612331576122f5611d8c565b6040517f118cdaa700000000000000000000000000000000000000000000000000000000815260040161232891906142ce565b60405180910390fd5b565b61233b612e4e565b5f600a60146101000a81548160ff0219169083151502179055507f5db9ee0a495bf2e6ff9c91a7834c1ba4fdd244a5e8aa4e537bd38aeae4b073aa61237e611d8c565b60405161238b91906142ce565b60405180910390a1565b5f6123ed7f03f7573be9d8d6deb7485602bb9f74900abea290cc280a6102b605c39dd9fbe0868686866040516020016123d29594939291906152e0565b60405160208183030381529060405280519060200120612e8e565b9050949350505050565b5f5f5f5f6124058686612ea7565b9250925092506124158282612efc565b82935050505092915050565b61243a828260405180602001604052805f81525061305e565b5050565b5f60025f8381526020019081526020015f205f9054906101000a900473ffffffffffffffffffffffffffffffffffffffff169050919050565b5f600a5f9054906101000a900473ffffffffffffffffffffffffffffffffffffffff16905081600a5f6101000a81548173ffffffffffffffffffffffffffffffffffffffff021916908373ffffffffffffffffffffffffffffffffffffffff1602179055508173ffffffffffffffffffffffffffffffffffffffff168173ffffffffffffffffffffffffffffffffffffffff167f8be0079c531659141344cd1fd0a4f28419497f9722a3daafe3b4186f6b6457e060405160405180910390a35050565b612542610bbc565b6001600a60146101000a81548160ff0219169083151502179055507f62e78cea01bee320cd4e420270b5ea74000d11b0c9f74754ebdbfc544b05a258612586611d8c565b60405161259391906142ce565b60405180910390a1565b60606125d3600b7f000000000000000000000000000000000000000000000000000000000000000061308190919063ffffffff16565b905090565b606061260e600c7f000000000000000000000000000000000000000000000000000000000000000061308190919063ffffffff16565b905090565b5f73ffffffffffffffffffffffffffffffffffffffff168373ffffffffffffffffffffffffffffffffffffffff1603612683575f6040517fa9fbf51f00000000000000000000000000000000000000000000000000000000815260040161267a91906142ce565b60405180910390fd5b5f73ffffffffffffffffffffffffffffffffffffffff168273ffffffffffffffffffffffffffffffffffffffff16036126f357816040517f5b08ba180000000000000000000000000000000000000000000000000000000081526004016126ea91906142ce565b60405180910390fd5b8060055f8573ffffffffffffffffffffffffffffffffffffffff1673ffffffffffffffffffffffffffffffffffffffff1681526020019081526020015f205f8473ffffffffffffffffffffffffffffffffffffffff1673ffffffffffffffffffffffffffffffffffffffff1681526020019081526020015f205f6101000a81548160ff0219169083151502179055508173ffffffffffffffffffffffffffffffffffffffff168373ffffffffffffffffffffffffffffffffffffffff167f17307eab39ab6107e8899845ad3d59bd9653f200f220920489ca2b5937696c31836040516127df91906141f6565b60405180910390a3505050565b5f8373ffffffffffffffffffffffffffffffffffffffff163b1115612991578273ffffffffffffffffffffffffffffffffffffffff1663150b7a02868685856040518563ffffffff1660e01b815260040161284a9493929190615383565b6020604051808303815f875af192505050801561288557506040513d601f19601f8201168201806040525081019061288291906153e1565b60015b612906573d805f81146128b3576040519150601f19603f3d011682016040523d82523d5f602084013e6128b8565b606091505b505f8151036128fe57836040517f64a0ae920000000000000000000000000000000000000000000000000000000081526004016128f591906142ce565b60405180910390fd5b805160208201fd5b63150b7a0260e01b7bffffffffffffffffffffffffffffffffffffffffffffffffffffffff1916817bffffffffffffffffffffffffffffffffffffffffffffffffffffffff19161461298f57836040517f64a0ae9200000000000000000000000000000000000000000000000000000000815260040161298691906142ce565b60405180910390fd5b505b5050505050565b606060405180602001604052805f815250905090565b60605f60016129bc8461312e565b0190505f8167ffffffffffffffff8111156129da576129d961444f565b5b6040519080825280601f01601f191660200182016040528015612a0c5781602001600182028036833780820191505090505b5090505f82602083010190505b600115612a6d578080600190039150507f3031323334353637383961626364656600000000000000000000000000000000600a86061a8153600a8581612a6257612a61614071565b5b0494505f8503612a19575b819350505050919050565b5f6002612a8b612a86611c22565b611c4b565b5f015414905090565b5f7f80ac58cd000000000000000000000000000000000000000000000000000000007bffffffffffffffffffffffffffffffffffffffffffffffffffffffff1916827bffffffffffffffffffffffffffffffffffffffffffffffffffffffff19161480612b5e57507f5b5e139f000000000000000000000000000000000000000000000000000000007bffffffffffffffffffffffffffffffffffffffffffffffffffffffff1916827bffffffffffffffffffffffffffffffffffffffffffffffffffffffff1916145b80612b6e5750612b6d8261327f565b5b9050919050565b8080612bad57505f73ffffffffffffffffffffffffffffffffffffffff168273ffffffffffffffffffffffffffffffffffffffff1614155b15612cdf575f612bbc84611ccd565b90505f73ffffffffffffffffffffffffffffffffffffffff168373ffffffffffffffffffffffffffffffffffffffff1614158015612c2657508273ffffffffffffffffffffffffffffffffffffffff168173ffffffffffffffffffffffffffffffffffffffff1614155b8015612c395750612c378184611a88565b155b15612c7b57826040517fa9fbf51f000000000000000000000000000000000000000000000000000000008152600401612c7291906142ce565b60405180910390fd5b8115612cdd57838573ffffffffffffffffffffffffffffffffffffffff168273ffffffffffffffffffffffffffffffffffffffff167f8c5be1e5ebec7d5bd14f71427d1e84f3dd0314c0f7b2291e5b200ac8c7c3b92560405160405180910390a45b505b8360045f8581526020019081526020015f205f6101000a81548173ffffffffffffffffffffffffffffffffffffffff021916908373ffffffffffffffffffffffffffffffffffffffff16021790555050505050565b5f5f612d418585856132e8565b90505f73ffffffffffffffffffffffffffffffffffffffff168173ffffffffffffffffffffffffffffffffffffffff1603612d8457612d7f846134f3565b612dc3565b8473ffffffffffffffffffffffffffffffffffffffff168173ffffffffffffffffffffffffffffffffffffffff1614612dc257612dc18185613537565b5b5b5f73ffffffffffffffffffffffffffffffffffffffff168573ffffffffffffffffffffffffffffffffffffffff1603612e0457612dff8461360e565b612e43565b8473ffffffffffffffffffffffffffffffffffffffff168173ffffffffffffffffffffffffffffffffffffffff1614612e4257612e4185856136ce565b5b5b809150509392505050565b612e566116ea565b612e8c576040517f8dfc202b00000000000000000000000000000000000000000000000000000000815260040160405180910390fd5b565b5f612ea0612e9a613752565b83613808565b9050919050565b5f5f5f6041845103612ee7575f5f5f602087015192506040870151915060608701515f1a9050612ed988828585613848565b955095509550505050612ef5565b5f600285515f1b9250925092505b9250925092565b5f6003811115612f0f57612f0e61540c565b5b826003811115612f2257612f2161540c565b5b031561305a5760016003811115612f3c57612f3b61540c565b5b826003811115612f4f57612f4e61540c565b5b03612f86576040517ff645eedf00000000000000000000000000000000000000000000000000000000815260040160405180910390fd5b60026003811115612f9a57612f9961540c565b5b826003811115612fad57612fac61540c565b5b03612ff157805f1c6040517ffce698f7000000000000000000000000000000000000000000000000000000008152600401612fe89190614143565b60405180910390fd5b6003808111156130045761300361540c565b5b8260038111156130175761301661540c565b5b0361305957806040517fd78bce0c0000000000000000000000000000000000000000000000000000000081526004016130509190615439565b60405180910390fd5b5b5050565b613068838361392f565b61307c613073611d8c565b5f8585856127ec565b505050565b606060ff5f1b831461309d5761309683613a22565b9050613128565b8180546130a9906149a9565b80601f01602080910402602001604051908101604052809291908181526020018280546130d5906149a9565b80156131205780601f106130f757610100808354040283529160200191613120565b820191905f5260205f20905b81548152906001019060200180831161310357829003601f168201915b505050505090505b92915050565b5f5f5f90507a184f03e93ff9f4daa797ed6e38ed64bf6a1f010000000000000000831061318a577a184f03e93ff9f4daa797ed6e38ed64bf6a1f01000000000000000083816131805761317f614071565b5b0492506040810190505b6d04ee2d6d415b85acef810000000083106131c7576d04ee2d6d415b85acef810000000083816131bd576131bc614071565b5b0492506020810190505b662386f26fc1000083106131f657662386f26fc1000083816131ec576131eb614071565b5b0492506010810190505b6305f5e100831061321f576305f5e100838161321557613214614071565b5b0492506008810190505b612710831061324457612710838161323a57613239614071565b5b0492506004810190505b60648310613267576064838161325d5761325c614071565b5b0492506002810190505b600a8310613276576001810190505b80915050919050565b5f7f01ffc9a7000000000000000000000000000000000000000000000000000000007bffffffffffffffffffffffffffffffffffffffffffffffffffffffff1916827bffffffffffffffffffffffffffffffffffffffffffffffffffffffff1916149050919050565b5f5f6132f38461243e565b90505f73ffffffffffffffffffffffffffffffffffffffff168373ffffffffffffffffffffffffffffffffffffffff161461333457613333818486613a94565b5b5f73ffffffffffffffffffffffffffffffffffffffff168173ffffffffffffffffffffffffffffffffffffffff16146133bf576133735f855f5f612b75565b600160035f8373ffffffffffffffffffffffffffffffffffffffff1673ffffffffffffffffffffffffffffffffffffffff1681526020019081526020015f205f82825403925050819055505b5f73ffffffffffffffffffffffffffffffffffffffff168573ffffffffffffffffffffffffffffffffffffffff161461343e57600160035f8773ffffffffffffffffffffffffffffffffffffffff1673ffffffffffffffffffffffffffffffffffffffff1681526020019081526020015f205f82825401925050819055505b8460025f8681526020019081526020015f205f6101000a81548173ffffffffffffffffffffffffffffffffffffffff021916908373ffffffffffffffffffffffffffffffffffffffff160217905550838573ffffffffffffffffffffffffffffffffffffffff168273ffffffffffffffffffffffffffffffffffffffff167fddf252ad1be2c89b69c2b068fc378daa952ba7f163c4a11628f55a4df523b3ef60405160405180910390a4809150509392505050565b60088054905060095f8381526020019081526020015f2081905550600881908060018154018082558091505060019003905f5260205f20015f909190919091505550565b5f6135418361172e565b90505f60075f8481526020019081526020015f205490505f60065f8673ffffffffffffffffffffffffffffffffffffffff1673ffffffffffffffffffffffffffffffffffffffff1681526020019081526020015f2090508282146135e0575f815f8581526020019081526020015f2054905080825f8581526020019081526020015f20819055508260075f8381526020019081526020015f2081905550505b60075f8581526020019081526020015f205f9055805f8481526020019081526020015f205f90555050505050565b5f60016008805490506136219190613f95565b90505f60095f8481526020019081526020015f205490505f6008838154811061364d5761364c614bb8565b5b905f5260205f2001549050806008838154811061366d5761366c614bb8565b5b905f5260205f2001819055508160095f8381526020019081526020015f208190555060095f8581526020019081526020015f205f905560088054806136b5576136b4615452565b5b600190038181905f5260205f20015f9055905550505050565b5f60016136da8461172e565b6136e49190613f95565b90508160065f8573ffffffffffffffffffffffffffffffffffffffff1673ffffffffffffffffffffffffffffffffffffffff1681526020019081526020015f205f8381526020019081526020015f20819055508060075f8481526020019081526020015f2081905550505050565b5f7f000000000000000000000000000000000000000000000000000000000000000073ffffffffffffffffffffffffffffffffffffffff163073ffffffffffffffffffffffffffffffffffffffff161480156137cd57507f000000000000000000000000000000000000000000000000000000000000000046145b156137fa577f00000000000000000000000000000000000000000000000000000000000000009050613805565b613802613b57565b90505b90565b5f6040517f190100000000000000000000000000000000000000000000000000000000000081528360028201528260228201526042812091505092915050565b5f5f5f7f7fffffffffffffffffffffffffffffff5d576e7357a4501ddfe92f46681b20a0845f1c1115613884575f600385925092509250613925565b5f6001888888886040515f81526020016040526040516138a7949392919061548e565b6020604051602081039080840390855afa1580156138c7573d5f5f3e3d5ffd5b5050506020604051035190505f73ffffffffffffffffffffffffffffffffffffffff168173ffffffffffffffffffffffffffffffffffffffff1603613918575f60015f5f1b93509350935050613925565b805f5f5f1b935093509350505b9450945094915050565b5f73ffffffffffffffffffffffffffffffffffffffff168273ffffffffffffffffffffffffffffffffffffffff160361399f575f6040517f64a0ae9200000000000000000000000000000000000000000000000000000000815260040161399691906142ce565b60405180910390fd5b5f6139ab83835f611e27565b90505f73ffffffffffffffffffffffffffffffffffffffff168173ffffffffffffffffffffffffffffffffffffffff1614613a1d575f6040517f73c6ac6e000000000000000000000000000000000000000000000000000000008152600401613a1491906142ce565b60405180910390fd5b505050565b60605f613a2e83613bec565b90505f602067ffffffffffffffff811115613a4c57613a4b61444f565b5b6040519080825280601f01601f191660200182016040528015613a7e5781602001600182028036833780820191505090505b5090508181528360208201528092505050919050565b613a9f838383613c3a565b613b52575f73ffffffffffffffffffffffffffffffffffffffff168373ffffffffffffffffffffffffffffffffffffffff1603613b1357806040517f7e273289000000000000000000000000000000000000000000000000000000008152600401613b0a9190614143565b60405180910390fd5b81816040517f177e802f000000000000000000000000000000000000000000000000000000008152600401613b4992919061411c565b60405180910390fd5b505050565b5f7f8b73c3c69bb8fe3d512ecc4cf759cc79239f7b179b0ffacaa9a75d522b39400f7f00000000000000000000000000000000000000000000000000000000000000007f00000000000000000000000000000000000000000000000000000000000000004630604051602001613bd19594939291906154d1565b60405160208183030381529060405280519060200120905090565b5f5f60ff835f1c169050601f811115613c31576040517fb3512b0c00000000000000000000000000000000000000000000000000000000815260040160405180910390fd5b80915050919050565b5f5f73ffffffffffffffffffffffffffffffffffffffff168373ffffffffffffffffffffffffffffffffffffffff1614158015613cf157508273ffffffffffffffffffffffffffffffffffffffff168473ffffffffffffffffffffffffffffffffffffffff161480613cb25750613cb18484611a88565b5b80613cf057508273ffffffffffffffffffffffffffffffffffffffff16613cd883611d53565b73ffffffffffffffffffffffffffffffffffffffff16145b5b90509392505050565b5f604051905090565b5f5ffd5b5f5ffd5b5f69ffffffffffffffffffff82169050919050565b613d2981613d0b565b8114613d33575f5ffd5b50565b5f81519050613d4481613d20565b92915050565b5f819050919050565b613d5c81613d4a565b8114613d66575f5ffd5b50565b5f81519050613d7781613d53565b92915050565b5f819050919050565b613d8f81613d7d565b8114613d99575f5ffd5b50565b5f81519050613daa81613d86565b92915050565b5f5f5f5f5f60a08688031215613dc957613dc8613d03565b5b5f613dd688828901613d36565b9550506020613de788828901613d69565b9450506040613df888828901613d9c565b9350506060613e0988828901613d9c565b9250506080613e1a88828901613d36565b9150509295509295909350565b5f82825260208201905092915050565b7f496e76616c69642070726963652066726f6d20436861696e6c696e6b000000005f82015250565b5f613e6b601c83613e27565b9150613e7682613e37565b602082019050919050565b5f6020820190508181035f830152613e9881613e5f565b9050919050565b5f60ff82169050919050565b613eb481613e9f565b8114613ebe575f5ffd5b50565b5f81519050613ecf81613eab565b92915050565b5f60208284031215613eea57613ee9613d03565b5b5f613ef784828501613ec1565b91505092915050565b7f556e6578706563746564207072696365206665656420646563696d616c7300005f82015250565b5f613f34601e83613e27565b9150613f3f82613f00565b602082019050919050565b5f6020820190508181035f830152613f6181613f28565b9050919050565b7f4e487b71000000000000000000000000000000000000000000000000000000005f52601160045260245ffd5b5f613f9f82613d7d565b9150613faa83613d7d565b9250828203905081811115613fc257613fc1613f68565b5b92915050565b7f5374616c652070726963652066656564000000000000000000000000000000005f82015250565b5f613ffc601083613e27565b915061400782613fc8565b602082019050919050565b5f6020820190508181035f83015261402981613ff0565b9050919050565b5f61403a82613d7d565b915061404583613d7d565b925082820261405381613d7d565b9150828204841483151761406a57614069613f68565b5b5092915050565b7f4e487b71000000000000000000000000000000000000000000000000000000005f52601260045260245ffd5b5f6140a882613d7d565b91506140b383613d7d565b9250826140c3576140c2614071565b5b828204905092915050565b5f73ffffffffffffffffffffffffffffffffffffffff82169050919050565b5f6140f7826140ce565b9050919050565b614107816140ed565b82525050565b61411681613d7d565b82525050565b5f60408201905061412f5f8301856140fe565b61413c602083018461410d565b9392505050565b5f6020820190506141565f83018461410d565b92915050565b5f7fffffffff0000000000000000000000000000000000000000000000000000000082169050919050565b6141908161415c565b811461419a575f5ffd5b50565b5f813590506141ab81614187565b92915050565b5f602082840312156141c6576141c5613d03565b5b5f6141d38482850161419d565b91505092915050565b5f8115159050919050565b6141f0816141dc565b82525050565b5f6020820190506142095f8301846141e7565b92915050565b5f81519050919050565b8281835e5f83830152505050565b5f601f19601f8301169050919050565b5f6142418261420f565b61424b8185613e27565b935061425b818560208601614219565b61426481614227565b840191505092915050565b5f6020820190508181035f8301526142878184614237565b905092915050565b5f8135905061429d81613d86565b92915050565b5f602082840312156142b8576142b7613d03565b5b5f6142c58482850161428f565b91505092915050565b5f6020820190506142e15f8301846140fe565b92915050565b6142f0816140ed565b81146142fa575f5ffd5b50565b5f8135905061430b816142e7565b92915050565b5f5f6040838503121561432757614326613d03565b5b5f614334858286016142fd565b92505060206143458582860161428f565b9150509250929050565b5f5ffd5b5f5ffd5b5f5ffd5b5f5f83601f8401126143705761436f61434f565b5b8235905067ffffffffffffffff81111561438d5761438c614353565b5b6020830191508360208202830111156143a9576143a8614357565b5b9250929050565b5f5f602083850312156143c6576143c5613d03565b5b5f83013567ffffffffffffffff8111156143e3576143e2613d07565b5b6143ef8582860161435b565b92509250509250929050565b5f5f5f6060848603121561441257614411613d03565b5b5f61441f868287016142fd565b9350506020614430868287016142fd565b92505060406144418682870161428f565b9150509250925092565b5f5ffd5b7f4e487b71000000000000000000000000000000000000000000000000000000005f52604160045260245ffd5b61448582614227565b810181811067ffffffffffffffff821117156144a4576144a361444f565b5b80604052505050565b5f6144b6613cfa565b90506144c2828261447c565b919050565b5f67ffffffffffffffff8211156144e1576144e061444f565b5b6144ea82614227565b9050602081019050919050565b828183375f83830152505050565b5f614517614512846144c7565b6144ad565b9050828152602081018484840111156145335761453261444b565b5b61453e8482856144f7565b509392505050565b5f82601f83011261455a5761455961434f565b5b813561456a848260208601614505565b91505092915050565b5f5f5f5f6080858703121561458b5761458a613d03565b5b5f6145988782880161428f565b94505060206145a98782880161428f565b93505060406145ba8782880161428f565b925050606085013567ffffffffffffffff8111156145db576145da613d07565b5b6145e787828801614546565b91505092959194509250565b5f6020828403121561460857614607613d03565b5b5f614615848285016142fd565b91505092915050565b5f7fff0000000000000000000000000000000000000000000000000000000000000082169050919050565b6146528161461e565b82525050565b5f819050919050565b61466a81614658565b82525050565b5f81519050919050565b5f82825260208201905092915050565b5f819050602082019050919050565b6146a281613d7d565b82525050565b5f6146b38383614699565b60208301905092915050565b5f602082019050919050565b5f6146d582614670565b6146df818561467a565b93506146ea8361468a565b805f5b8381101561471a57815161470188826146a8565b975061470c836146bf565b9250506001810190506146ed565b5085935050505092915050565b5f60e08201905061473a5f83018a614649565b818103602083015261474c8189614237565b905081810360408301526147608188614237565b905061476f606083018761410d565b61477c60808301866140fe565b61478960a0830185614661565b81810360c083015261479b81846146cb565b905098975050505050505050565b5f819050919050565b5f6147cc6147c76147c2846140ce565b6147a9565b6140ce565b9050919050565b5f6147dd826147b2565b9050919050565b5f6147ee826147d3565b9050919050565b6147fe816147e4565b82525050565b5f6020820190506148175f8301846147f5565b92915050565b614826816141dc565b8114614830575f5ffd5b50565b5f813590506148418161481d565b92915050565b5f5f6040838503121561485d5761485c613d03565b5b5f61486a858286016142fd565b925050602061487b85828601614833565b9150509250929050565b5f5f5f5f6080858703121561489d5761489c613d03565b5b5f6148aa878288016142fd565b94505060206148bb878288016142fd565b93505060406148cc8782880161428f565b925050606085013567ffffffffffffffff8111156148ed576148ec613d07565b5b6148f987828801614546565b91505092959194509250565b5f5f6040838503121561491b5761491a613d03565b5b5f614928858286016142fd565b9250506020614939858286016142fd565b9150509250929050565b5f61494d826147d3565b9050919050565b61495d81614943565b82525050565b5f6020820190506149765f830184614954565b92915050565b7f4e487b71000000000000000000000000000000000000000000000000000000005f52602260045260245ffd5b5f60028204905060018216806149c057607f821691505b6020821081036149d3576149d261497c565b5b50919050565b5f815190506149e78161481d565b92915050565b5f60208284031215614a0257614a01613d03565b5b5f614a0f848285016149d9565b91505092915050565b7f4d75737420686f6c642061204d65726368616e7420546f6b656e2e00000000005f82015250565b5f614a4c601b83613e27565b9150614a5782614a18565b602082019050919050565b5f6020820190508181035f830152614a7981614a40565b9050919050565b7f4e6f20746f6b656e732070726f76696465642e000000000000000000000000005f82015250565b5f614ab4601383613e27565b9150614abf82614a80565b602082019050919050565b5f6020820190508181035f830152614ae181614aa8565b9050919050565b7f4e6f20746f6b656e7320696e2063697263756c6174696f6e2e000000000000005f82015250565b5f614b1c601983613e27565b9150614b2782614ae8565b602082019050919050565b5f6020820190508181035f830152614b4981614b10565b9050919050565b7f4e6f7420656e6f7567682045544820696e20636f6e74726163742e00000000005f82015250565b5f614b84601b83613e27565b9150614b8f82614b50565b602082019050919050565b5f6020820190508181035f830152614bb181614b78565b9050919050565b7f4e487b71000000000000000000000000000000000000000000000000000000005f52603260045260245ffd5b7f43616c6c6572206d757374206f776e20616c6c20746f6b656e73206265696e675f8201527f2072656465656d65642e00000000000000000000000000000000000000000000602082015250565b5f614c3f602a83613e27565b9150614c4a82614be5565b604082019050919050565b5f6020820190508181035f830152614c6c81614c33565b9050919050565b7f45544820616d6f756e7420746f6f20736d616c6c20746f2072656465656d00005f82015250565b5f614ca7601e83613e27565b9150614cb282614c73565b602082019050919050565b5f6020820190508181035f830152614cd481614c9b565b9050919050565b5f81905092915050565b50565b5f614cf35f83614cdb565b9150614cfe82614ce5565b5f82019050919050565b5f614d1282614ce8565b9150819050919050565b7f546178207472616e73666572206661696c6564000000000000000000000000005f82015250565b5f614d50601383613e27565b9150614d5b82614d1c565b602082019050919050565b5f6020820190508181035f830152614d7d81614d44565b9050919050565b7f5472616e73666572206661696c656400000000000000000000000000000000005f82015250565b5f614db8600f83613e27565b9150614dc382614d84565b602082019050919050565b5f6020820190508181035f830152614de581614dac565b9050919050565b5f604082019050614dff5f83018561410d565b614e0c602083018461410d565b9392505050565b5f606082019050614e265f8301866140fe565b614e33602083018561410d565b614e4060408301846140fe565b949350505050565b7f416d6f756e74206d757374206265206265747765656e203120616e64203130005f82015250565b5f614e7c601f83613e27565b9150614e8782614e48565b602082019050919050565b5f6020820190508181035f830152614ea981614e70565b9050919050565b7f5369676e617475726520686173206578706972656400000000000000000000005f82015250565b5f614ee4601583613e27565b9150614eef82614eb0565b602082019050919050565b5f6020820190508181035f830152614f1181614ed8565b9050919050565b7f4e6f6e636520616c7265616479207573656400000000000000000000000000005f82015250565b5f614f4c601283613e27565b9150614f5782614f18565b602082019050919050565b5f6020820190508181035f830152614f7981614f40565b9050919050565b7f496e76616c6964207369676e61747572650000000000000000000000000000005f82015250565b5f614fb4601183613e27565b9150614fbf82614f80565b602082019050919050565b5f6020820190508181035f830152614fe181614fa8565b9050919050565b5f614ff282613d7d565b91507fffffffffffffffffffffffffffffffffffffffffffffffffffffffffffffffff820361502457615023613f68565b5b600182019050919050565b5f81905092915050565b5f6150438261420f565b61504d818561502f565b935061505d818560208601614219565b80840191505092915050565b5f6150748285615039565b91506150808284615039565b91508190509392505050565b7f4d65726368616e74732063616e6e6f74206d696e74204c6974746572636f696e5f82015250565b5f6150c0602083613e27565b91506150cb8261508c565b602082019050919050565b5f6020820190508181035f8301526150ed816150b4565b9050919050565b7f4f6e6c79206d65726368616e74732063616e206275726e20746f6b656e7300005f82015250565b5f615128601e83613e27565b9150615133826150f4565b602082019050919050565b5f6020820190508181035f8301526151558161511c565b9050919050565b7f546f6b656e2068617320616c7265616479206265656e207472616e73666572725f8201527f6564000000000000000000000000000000000000000000000000000000000000602082015250565b5f6151b6602283613e27565b91506151c18261515c565b604082019050919050565b5f6020820190508181035f8301526151e3816151aa565b9050919050565b7f4d65726368616e74732063616e6e6f74207472616e7366657220746f6b656e735f82015250565b5f61521e602083613e27565b9150615229826151ea565b602082019050919050565b5f6020820190508181035f83015261524b81615212565b9050919050565b7f526563697069656e74206d75737420626520612076616c6964206d65726368615f8201527f6e74000000000000000000000000000000000000000000000000000000000000602082015250565b5f6152ac602283613e27565b91506152b782615252565b604082019050919050565b5f6020820190508181035f8301526152d9816152a0565b9050919050565b5f60a0820190506152f35f830188614661565b61530060208301876140fe565b61530d604083018661410d565b61531a606083018561410d565b615327608083018461410d565b9695505050505050565b5f81519050919050565b5f82825260208201905092915050565b5f61535582615331565b61535f818561533b565b935061536f818560208601614219565b61537881614227565b840191505092915050565b5f6080820190506153965f8301876140fe565b6153a360208301866140fe565b6153b0604083018561410d565b81810360608301526153c2818461534b565b905095945050505050565b5f815190506153db81614187565b92915050565b5f602082840312156153f6576153f5613d03565b5b5f615403848285016153cd565b91505092915050565b7f4e487b71000000000000000000000000000000000000000000000000000000005f52602160045260245ffd5b5f60208201905061544c5f830184614661565b92915050565b7f4e487b71000000000000000000000000000000000000000000000000000000005f52603160045260245ffd5b61548881613e9f565b82525050565b5f6080820190506154a15f830187614661565b6154ae602083018661547f565b6154bb6040830185614661565b6154c86060830184614661565b95945050505050565b5f60a0820190506154e45f830188614661565b6154f16020830187614661565b6154fe6040830186614661565b61550b606083018561410d565b61551860808301846140fe565b969550505050505056fea26469706673582212204c1ad0cc7ce229144fc07595dc1882fa7137639ccc536e165b7b5de45196036e64736f6c634300081b0033608060405234801561000f575f5ffd5b506040516116ef3803806116ef83398181016040528101906100319190610267565b806040518060400160405280601381526020017f4f4c4d205468616e6b20596f7520546f6b656e000000000000000000000000008152506040518060400160405280600581526020017f4f4c4d545900000000000000000000000000000000000000000000000000000081525081600390816100ad91906104cf565b5080600490816100bd91906104cf565b5050505f73ffffffffffffffffffffffffffffffffffffffff168173ffffffffffffffffffffffffffffffffffffffff1603610130575f6040517f1e4fbdf700000000000000000000000000000000000000000000000000000000815260040161012791906105ad565b60405180910390fd5b61013f8161014660201b60201c565b50506105c6565b5f60055f9054906101000a900473ffffffffffffffffffffffffffffffffffffffff1690508160055f6101000a81548173ffffffffffffffffffffffffffffffffffffffff021916908373ffffffffffffffffffffffffffffffffffffffff1602179055508173ffffffffffffffffffffffffffffffffffffffff168173ffffffffffffffffffffffffffffffffffffffff167f8be0079c531659141344cd1fd0a4f28419497f9722a3daafe3b4186f6b6457e060405160405180910390a35050565b5f5ffd5b5f73ffffffffffffffffffffffffffffffffffffffff82169050919050565b5f6102368261020d565b9050919050565b6102468161022c565b8114610250575f5ffd5b50565b5f815190506102618161023d565b92915050565b5f6020828403121561027c5761027b610209565b5b5f61028984828501610253565b91505092915050565b5f81519050919050565b7f4e487b71000000000000000000000000000000000000000000000000000000005f52604160045260245ffd5b7f4e487b71000000000000000000000000000000000000000000000000000000005f52602260045260245ffd5b5f600282049050600182168061030d57607f821691505b6020821081036103205761031f6102c9565b5b50919050565b5f819050815f5260205f209050919050565b5f6020601f8301049050919050565b5f82821b905092915050565b5f600883026103827fffffffffffffffffffffffffffffffffffffffffffffffffffffffffffffffff82610347565b61038c8683610347565b95508019841693508086168417925050509392505050565b5f819050919050565b5f819050919050565b5f6103d06103cb6103c6846103a4565b6103ad565b6103a4565b9050919050565b5f819050919050565b6103e9836103b6565b6103fd6103f5826103d7565b848454610353565b825550505050565b5f5f905090565b610414610405565b61041f8184846103e0565b505050565b5b81811015610442576104375f8261040c565b600181019050610425565b5050565b601f8211156104875761045881610326565b61046184610338565b81016020851015610470578190505b61048461047c85610338565b830182610424565b50505b505050565b5f82821c905092915050565b5f6104a75f198460080261048c565b1980831691505092915050565b5f6104bf8383610498565b9150826002028217905092915050565b6104d882610292565b67ffffffffffffffff8111156104f1576104f061029c565b5b6104fb82546102f6565b610506828285610446565b5f60209050601f831160018114610537575f8415610525578287015190505b61052f85826104b4565b865550610596565b601f19841661054586610326565b5f5b8281101561056c57848901518255600182019150602085019450602081019050610547565b868310156105895784890151610585601f891682610498565b8355505b6001600288020188555050505b505050505050565b6105a78161022c565b82525050565b5f6020820190506105c05f83018461059e565b92915050565b61111c806105d35f395ff3fe608060405234801561000f575f5ffd5b50600436106100cd575f3560e01c806370a082311161008a57806395d89b411161006457806395d89b41146101ff578063a9059cbb1461021d578063dd62ed3e1461024d578063f2fde38b1461027d576100cd565b806370a08231146101a7578063715018a6146101d75780638da5cb5b146101e1576100cd565b806306fdde03146100d1578063095ea7b3146100ef57806318160ddd1461011f57806323b872dd1461013d578063313ce5671461016d57806340c10f191461018b575b5f5ffd5b6100d9610299565b6040516100e69190610d95565b60405180910390f35b61010960048036038101906101049190610e46565b610329565b6040516101169190610e9e565b60405180910390f35b61012761034b565b6040516101349190610ec6565b60405180910390f35b61015760048036038101906101529190610edf565b610354565b6040516101649190610e9e565b60405180910390f35b610175610382565b6040516101829190610f4a565b60405180910390f35b6101a560048036038101906101a09190610e46565b61038a565b005b6101c160048036038101906101bc9190610f63565b6103a0565b6040516101ce9190610ec6565b60405180910390f35b6101df6103e5565b005b6101e96103f8565b6040516101f69190610f9d565b60405180910390f35b610207610420565b6040516102149190610d95565b60405180910390f35b61023760048036038101906102329190610e46565b6104b0565b6040516102449190610e9e565b60405180910390f35b61026760048036038101906102629190610fb6565b6104d2565b6040516102749190610ec6565b60405180910390f35b61029760048036038101906102929190610f63565b610554565b005b6060600380546102a890611021565b80601f01602080910402602001604051908101604052809291908181526020018280546102d490611021565b801561031f5780601f106102f65761010080835404028352916020019161031f565b820191905f5260205f20905b81548152906001019060200180831161030257829003601f168201915b5050505050905090565b5f5f6103336105d8565b90506103408185856105df565b600191505092915050565b5f600254905090565b5f5f61035e6105d8565b905061036b8582856105f1565b610376858585610684565b60019150509392505050565b5f6012905090565b610392610774565b61039c82826107fb565b5050565b5f5f5f8373ffffffffffffffffffffffffffffffffffffffff1673ffffffffffffffffffffffffffffffffffffffff1681526020019081526020015f20549050919050565b6103ed610774565b6103f65f61087a565b565b5f60055f9054906101000a900473ffffffffffffffffffffffffffffffffffffffff16905090565b60606004805461042f90611021565b80601f016020809104026020016040519081016040528092919081815260200182805461045b90611021565b80156104a65780601f1061047d576101008083540402835291602001916104a6565b820191905f5260205f20905b81548152906001019060200180831161048957829003601f168201915b5050505050905090565b5f5f6104ba6105d8565b90506104c7818585610684565b600191505092915050565b5f60015f8473ffffffffffffffffffffffffffffffffffffffff1673ffffffffffffffffffffffffffffffffffffffff1681526020019081526020015f205f8373ffffffffffffffffffffffffffffffffffffffff1673ffffffffffffffffffffffffffffffffffffffff1681526020019081526020015f2054905092915050565b61055c610774565b5f73ffffffffffffffffffffffffffffffffffffffff168173ffffffffffffffffffffffffffffffffffffffff16036105cc575f6040517f1e4fbdf70000000000000000000000000000000000000000000000000000000081526004016105c39190610f9d565b60405180910390fd5b6105d58161087a565b50565b5f33905090565b6105ec838383600161093d565b505050565b5f6105fc84846104d2565b90507fffffffffffffffffffffffffffffffffffffffffffffffffffffffffffffffff81101561067e578181101561066f578281836040517ffb8f41b200000000000000000000000000000000000000000000000000000000815260040161066693929190611051565b60405180910390fd5b61067d84848484035f61093d565b5b50505050565b5f73ffffffffffffffffffffffffffffffffffffffff168373ffffffffffffffffffffffffffffffffffffffff16036106f4575f6040517f96c6fd1e0000000000000000000000000000000000000000000000000000000081526004016106eb9190610f9d565b60405180910390fd5b5f73ffffffffffffffffffffffffffffffffffffffff168273ffffffffffffffffffffffffffffffffffffffff1603610764575f6040517fec442f0500000000000000000000000000000000000000000000000000000000815260040161075b9190610f9d565b60405180910390fd5b61076f838383610b0c565b505050565b61077c6105d8565b73ffffffffffffffffffffffffffffffffffffffff1661079a6103f8565b73ffffffffffffffffffffffffffffffffffffffff16146107f9576107bd6105d8565b6040517f118cdaa70000000000000000000000000000000000000000000000000000000081526004016107f09190610f9d565b60405180910390fd5b565b5f73ffffffffffffffffffffffffffffffffffffffff168273ffffffffffffffffffffffffffffffffffffffff160361086b575f6040517fec442f050000000000000000000000000000000000000000000000000000000081526004016108629190610f9d565b60405180910390fd5b6108765f8383610b0c565b5050565b5f60055f9054906101000a900473ffffffffffffffffffffffffffffffffffffffff1690508160055f6101000a81548173ffffffffffffffffffffffffffffffffffffffff021916908373ffffffffffffffffffffffffffffffffffffffff1602179055508173ffffffffffffffffffffffffffffffffffffffff168173ffffffffffffffffffffffffffffffffffffffff167f8be0079c531659141344cd1fd0a4f28419497f9722a3daafe3b4186f6b6457e060405160405180910390a35050565b5f73ffffffffffffffffffffffffffffffffffffffff168473ffffffffffffffffffffffffffffffffffffffff16036109ad575f6040517fe602df050000000000000000000000000000000000000000000000000000000081526004016109a49190610f9d565b60405180910390fd5b5f73ffffffffffffffffffffffffffffffffffffffff168373ffffffffffffffffffffffffffffffffffffffff1603610a1d575f6040517f94280d62000000000000000000000000000000000000000000000000000000008152600401610a149190610f9d565b60405180910390fd5b8160015f8673ffffffffffffffffffffffffffffffffffffffff1673ffffffffffffffffffffffffffffffffffffffff1681526020019081526020015f205f8573ffffffffffffffffffffffffffffffffffffffff1673ffffffffffffffffffffffffffffffffffffffff1681526020019081526020015f20819055508015610b06578273ffffffffffffffffffffffffffffffffffffffff168473ffffffffffffffffffffffffffffffffffffffff167f8c5be1e5ebec7d5bd14f71427d1e84f3dd0314c0f7b2291e5b200ac8c7c3b92584604051610afd9190610ec6565b60405180910390a35b50505050565b5f73ffffffffffffffffffffffffffffffffffffffff168373ffffffffffffffffffffffffffffffffffffffff1603610b5c578060025f828254610b5091906110b3565b92505081905550610c2a565b5f5f5f8573ffffffffffffffffffffffffffffffffffffffff1673ffffffffffffffffffffffffffffffffffffffff1681526020019081526020015f2054905081811015610be5578381836040517fe450d38c000000000000000000000000000000000000000000000000000000008152600401610bdc93929190611051565b60405180910390fd5b8181035f5f8673ffffffffffffffffffffffffffffffffffffffff1673ffffffffffffffffffffffffffffffffffffffff1681526020019081526020015f2081905550505b5f73ffffffffffffffffffffffffffffffffffffffff168273ffffffffffffffffffffffffffffffffffffffff1603610c71578060025f8282540392505081905550610cbb565b805f5f8473ffffffffffffffffffffffffffffffffffffffff1673ffffffffffffffffffffffffffffffffffffffff1681526020019081526020015f205f82825401925050819055505b8173ffffffffffffffffffffffffffffffffffffffff168373ffffffffffffffffffffffffffffffffffffffff167fddf252ad1be2c89b69c2b068fc378daa952ba7f163c4a11628f55a4df523b3ef83604051610d189190610ec6565b60405180910390a3505050565b5f81519050919050565b5f82825260208201905092915050565b8281835e5f83830152505050565b5f601f19601f8301169050919050565b5f610d6782610d25565b610d718185610d2f565b9350610d81818560208601610d3f565b610d8a81610d4d565b840191505092915050565b5f6020820190508181035f830152610dad8184610d5d565b905092915050565b5f5ffd5b5f73ffffffffffffffffffffffffffffffffffffffff82169050919050565b5f610de282610db9565b9050919050565b610df281610dd8565b8114610dfc575f5ffd5b50565b5f81359050610e0d81610de9565b92915050565b5f819050919050565b610e2581610e13565b8114610e2f575f5ffd5b50565b5f81359050610e4081610e1c565b92915050565b5f5f60408385031215610e5c57610e5b610db5565b5b5f610e6985828601610dff565b9250506020610e7a85828601610e32565b9150509250929050565b5f8115159050919050565b610e9881610e84565b82525050565b5f602082019050610eb15f830184610e8f565b92915050565b610ec081610e13565b82525050565b5f602082019050610ed95f830184610eb7565b92915050565b5f5f5f60608486031215610ef657610ef5610db5565b5b5f610f0386828701610dff565b9350506020610f1486828701610dff565b9250506040610f2586828701610e32565b9150509250925092565b5f60ff82169050919050565b610f4481610f2f565b82525050565b5f602082019050610f5d5f830184610f3b565b92915050565b5f60208284031215610f7857610f77610db5565b5b5f610f8584828501610dff565b91505092915050565b610f9781610dd8565b82525050565b5f602082019050610fb05f830184610f8e565b92915050565b5f5f60408385031215610fcc57610fcb610db5565b5b5f610fd985828601610dff565b9250506020610fea85828601610dff565b9150509250929050565b7f4e487b71000000000000000000000000000000000000000000000000000000005f52602260045260245ffd5b5f600282049050600182168061103857607f821691505b60208210810361104b5761104a610ff4565b5b50919050565b5f6060820190506110645f830186610f8e565b6110716020830185610eb7565b61107e6040830184610eb7565b949350505050565b7f4e487b71000000000000000000000000000000000000000000000000000000005f52601160045260245ffd5b5f6110bd82610e13565b91506110c883610e13565b92508282019050808211156110e0576110df611086565b5b9291505056fea26469706673582212207454b16db1629c10119e010b044fdaee204ba4bbb3adef06554009686716eaf564736f6c634300081b0033608060405234801561000f575f5ffd5b506040516146a13803806146a1833981810160405281019061003191906102a7565b816040518060400160405280601781526020017f4c6974746572636f696e4d65726368616e74546f6b656e0000000000000000008152506040518060400160405280600481526020017f4c584d5400000000000000000000000000000000000000000000000000000000815250815f90816100ac9190610522565b5080600190816100bc9190610522565b5050505f73ffffffffffffffffffffffffffffffffffffffff168173ffffffffffffffffffffffffffffffffffffffff160361012f575f6040517f1e4fbdf70000000000000000000000000000000000000000000000000000000081526004016101269190610600565b60405180910390fd5b61013e8161018660201b60201c565b5080600a5f6101000a81548173ffffffffffffffffffffffffffffffffffffffff021916908373ffffffffffffffffffffffffffffffffffffffff1602179055505050610619565b5f60065f9054906101000a900473ffffffffffffffffffffffffffffffffffffffff1690508160065f6101000a81548173ffffffffffffffffffffffffffffffffffffffff021916908373ffffffffffffffffffffffffffffffffffffffff1602179055508173ffffffffffffffffffffffffffffffffffffffff168173ffffffffffffffffffffffffffffffffffffffff167f8be0079c531659141344cd1fd0a4f28419497f9722a3daafe3b4186f6b6457e060405160405180910390a35050565b5f5ffd5b5f73ffffffffffffffffffffffffffffffffffffffff82169050919050565b5f6102768261024d565b9050919050565b6102868161026c565b8114610290575f5ffd5b50565b5f815190506102a18161027d565b92915050565b5f5f604083850312156102bd576102bc610249565b5b5f6102ca85828601610293565b92505060206102db85828601610293565b9150509250929050565b5f81519050919050565b7f4e487b71000000000000000000000000000000000000000000000000000000005f52604160045260245ffd5b7f4e487b71000000000000000000000000000000000000000000000000000000005f52602260045260245ffd5b5f600282049050600182168061036057607f821691505b6020821081036103735761037261031c565b5b50919050565b5f819050815f5260205f209050919050565b5f6020601f8301049050919050565b5f82821b905092915050565b5f600883026103d57fffffffffffffffffffffffffffffffffffffffffffffffffffffffffffffffff8261039a565b6103df868361039a565b95508019841693508086168417925050509392505050565b5f819050919050565b5f819050919050565b5f61042361041e610419846103f7565b610400565b6103f7565b9050919050565b5f819050919050565b61043c83610409565b6104506104488261042a565b8484546103a6565b825550505050565b5f5f905090565b610467610458565b610472818484610433565b505050565b5b818110156104955761048a5f8261045f565b600181019050610478565b5050565b601f8211156104da576104ab81610379565b6104b48461038b565b810160208510156104c3578190505b6104d76104cf8561038b565b830182610477565b50505b505050565b5f82821c905092915050565b5f6104fa5f19846008026104df565b1980831691505092915050565b5f61051283836104eb565b9150826002028217905092915050565b61052b826102e5565b67ffffffffffffffff811115610544576105436102ef565b5b61054e8254610349565b610559828285610499565b5f60209050601f83116001811461058a575f8415610578578287015190505b6105828582610507565b8655506105e9565b601f19841661059886610379565b5f5b828110156105bf5784890151825560018201915060208501945060208101905061059a565b868310156105dc57848901516105d8601f8916826104eb565b8355505b6001600288020188555050505b505050505050565b6105fa8161026c565b82525050565b5f6020820190506106135f8301846105f1565b92915050565b61407b806106265f395ff3fe6080604052600436106101e2575f3560e01c80636352211e11610101578063b88d4fde11610094578063d9e5896e11610063578063d9e5896e146106a0578063e985e9c5146106dc578063ea55763314610718578063f2fde38b14610754576101e2565b8063b88d4fde146105d6578063c22c56b1146105fe578063c87b56dd14610628578063d9548e5314610664576101e2565b80638da5cb5b116100d05780638da5cb5b1461051e578063952e5cb41461054857806395d89b4114610584578063a22cb465146105ae576101e2565b80636352211e1461047a57806370a08231146104b6578063715018a6146104f25780638456cb5914610508576101e2565b8063393ed91a1161017957806342842e0e1161014857806342842e0e146103e857806344df8e701461041057806356189236146104265780635c975abb14610450576101e2565b8063393ed91a1461035a5780633f4ba83a1461038257806340c10f1914610398578063425604d6146103c0576101e2565b8063095ea7b3116101b5578063095ea7b3146102c45780631a561d7d146102ec578063234562581461032857806323b872dd14610332576101e2565b806301ffc9a7146101e657806302556a291461022257806306fdde031461025e578063081812fc14610288575b5f5ffd5b3480156101f1575f5ffd5b5061020c60048036038101906102079190612e15565b61077c565b6040516102199190612e5a565b60405180910390f35b34801561022d575f5ffd5b5061024860048036038101906102439190612ecd565b61078d565b6040516102559190612e5a565b60405180910390f35b348015610269575f5ffd5b50610272610840565b60405161027f9190612f68565b60405180910390f35b348015610293575f5ffd5b506102ae60048036038101906102a99190612fbb565b6108cf565b6040516102bb9190612ff5565b60405180910390f35b3480156102cf575f5ffd5b506102ea60048036038101906102e5919061300e565b6108ea565b005b3480156102f7575f5ffd5b50610312600480360381019061030d9190612ecd565b610900565b60405161031f9190612e5a565b60405180910390f35b61033061091d565b005b34801561033d575f5ffd5b506103586004803603810190610353919061304c565b610db8565b005b348015610365575f5ffd5b50610380600480360381019061037b9190612fbb565b610eb7565b005b34801561038d575f5ffd5b50610396610fe3565b005b3480156103a3575f5ffd5b506103be60048036038101906103b9919061300e565b610ff5565b005b3480156103cb575f5ffd5b506103e660048036038101906103e1919061309c565b6112ae565b005b3480156103f3575f5ffd5b5061040e6004803603810190610409919061304c565b6113eb565b005b34801561041b575f5ffd5b5061042461140a565b005b348015610431575f5ffd5b5061043a6114a1565b60405161044791906130e9565b60405180910390f35b34801561045b575f5ffd5b506104646114aa565b6040516104719190612e5a565b60405180910390f35b348015610485575f5ffd5b506104a0600480360381019061049b9190612fbb565b6114c0565b6040516104ad9190612ff5565b60405180910390f35b3480156104c1575f5ffd5b506104dc60048036038101906104d79190612ecd565b6114d1565b6040516104e991906130e9565b60405180910390f35b3480156104fd575f5ffd5b50610506611587565b005b348015610513575f5ffd5b5061051c61159a565b005b348015610529575f5ffd5b506105326115ac565b60405161053f9190612ff5565b60405180910390f35b348015610553575f5ffd5b5061056e60048036038101906105699190612ecd565b6115d4565b60405161057b9190612e5a565b60405180910390f35b34801561058f575f5ffd5b50610598611667565b6040516105a59190612f68565b60405180910390f35b3480156105b9575f5ffd5b506105d460048036038101906105cf919061312c565b6116f7565b005b3480156105e1575f5ffd5b506105fc60048036038101906105f79190613296565b61170d565b005b348015610609575f5ffd5b50610612611732565b60405161061f91906130e9565b60405180910390f35b348015610633575f5ffd5b5061064e60048036038101906106499190612fbb565b611737565b60405161065b9190612f68565b60405180910390f35b34801561066f575f5ffd5b5061068a60048036038101906106859190612fbb565b61179d565b6040516106979190612e5a565b60405180910390f35b3480156106ab575f5ffd5b506106c660048036038101906106c19190612fbb565b61182f565b6040516106d391906130e9565b60405180910390f35b3480156106e7575f5ffd5b5061070260048036038101906106fd9190613316565b6118bf565b60405161070f9190612e5a565b60405180910390f35b348015610723575f5ffd5b5061073e60048036038101906107399190612ecd565b61194d565b60405161074b91906130e9565b60405180910390f35b34801561075f575f5ffd5b5061077a60048036038101906107759190612ecd565b611a48565b005b5f61078682611acc565b9050919050565b5f5f60085f8473ffffffffffffffffffffffffffffffffffffffff1673ffffffffffffffffffffffffffffffffffffffff1681526020019081526020015f205490505f81148061081057505f73ffffffffffffffffffffffffffffffffffffffff166107f882611bad565b73ffffffffffffffffffffffffffffffffffffffff16145b1561081e575f91505061083b565b6108278161179d565b15610835575f91505061083b565b60019150505b919050565b60605f805461084e90613381565b80601f016020809104026020016040519081016040528092919081815260200182805461087a90613381565b80156108c55780601f1061089c576101008083540402835291602001916108c5565b820191905f5260205f20905b8154815290600101906020018083116108a857829003601f168201915b5050505050905090565b5f6108d982611be6565b506108e382611c6c565b9050919050565b6108fc82826108f7611ca5565b611cac565b5050565b600b602052805f5260405f205f915054906101000a900460ff1681565b610925611cbe565b600b5f3373ffffffffffffffffffffffffffffffffffffffff1673ffffffffffffffffffffffffffffffffffffffff1681526020019081526020015f205f9054906101000a900460ff16156109af576040517f08c379a00000000000000000000000000000000000000000000000000000000081526004016109a6906133fb565b60405180910390fd5b5f6109b9336114d1565b146109f9576040517f08c379a00000000000000000000000000000000000000000000000000000000081526004016109f090613463565b60405180910390fd5b5f5f600a5f9054906101000a900473ffffffffffffffffffffffffffffffffffffffff1673ffffffffffffffffffffffffffffffffffffffff1663feaf968c6040518163ffffffff1660e01b815260040160a060405180830381865afa158015610a65573d5f5f3e3d5ffd5b505050506040513d601f19601f82011682018060405250810190610a899190613507565b509350509250505f8213610ad2576040517f08c379a0000000000000000000000000000000000000000000000000000000008152600401610ac9906135c8565b60405180910390fd5b6008600a5f9054906101000a900473ffffffffffffffffffffffffffffffffffffffff1673ffffffffffffffffffffffffffffffffffffffff1663313ce5676040518163ffffffff1660e01b8152600401602060405180830381865afa158015610b3e573d5f5f3e3d5ffd5b505050506040513d601f19601f82011682018060405250810190610b62919061361c565b60ff1614610ba5576040517f08c379a0000000000000000000000000000000000000000000000000000000008152600401610b9c90613691565b60405180910390fd5b610e108142610bb491906136dc565b10610bf4576040517f08c379a0000000000000000000000000000000000000000000000000000000008152600401610beb90613759565b60405180910390fd5b5f826a52b7d2dcc80cd2e40000006014610c0e9190613777565b610c1891906137e5565b905080341015610c5d576040517f08c379a0000000000000000000000000000000000000000000000000000000008152600401610c5490613885565b60405180910390fd5b6001600b5f3373ffffffffffffffffffffffffffffffffffffffff1673ffffffffffffffffffffffffffffffffffffffff1681526020019081526020015f205f6101000a81548160ff0219169083151502179055505f610cbb6115ac565b73ffffffffffffffffffffffffffffffffffffffff1634604051610cde906138d0565b5f6040518083038185875af1925050503d805f8114610d18576040519150601f19603f3d011682016040523d82523d5f602084013e610d1d565b606091505b5050905080610d61576040517f08c379a0000000000000000000000000000000000000000000000000000000008152600401610d589061392e565b60405180910390fd5b3373ffffffffffffffffffffffffffffffffffffffff167fcdd9acb9c1802ad855553f406af68fe06b6739ca50a6befdeaced4e0ab71b34f346014604051610daa92919061394c565b60405180910390a250505050565b5f73ffffffffffffffffffffffffffffffffffffffff168273ffffffffffffffffffffffffffffffffffffffff1603610e28575f6040517f64a0ae92000000000000000000000000000000000000000000000000000000008152600401610e1f9190612ff5565b60405180910390fd5b5f610e3b8383610e36611ca5565b611cff565b90508373ffffffffffffffffffffffffffffffffffffffff168173ffffffffffffffffffffffffffffffffffffffff1614610eb1578382826040517f64283d7b000000000000000000000000000000000000000000000000000000008152600401610ea893929190613973565b60405180910390fd5b50505050565b610ebf611e3f565b610ec7611cbe565b5f73ffffffffffffffffffffffffffffffffffffffff16610ee782611bad565b73ffffffffffffffffffffffffffffffffffffffff1603610f3d576040517f08c379a0000000000000000000000000000000000000000000000000000000008152600401610f34906139f2565b60405180910390fd5b610f468161179d565b15610f86576040517f08c379a0000000000000000000000000000000000000000000000000000000008152600401610f7d90613a5a565b60405180910390fd5b610e1042610f9491906136dc565b60095f8381526020019081526020015f20819055507f754f3aa765fa1f221ea409fddea972deff6ce410d141d5cded4fc7ec690710c081604051610fd891906130e9565b60405180910390a150565b610feb611e3f565b610ff3611ec6565b565b610ffd611e3f565b611005611cbe565b5f73ffffffffffffffffffffffffffffffffffffffff168273ffffffffffffffffffffffffffffffffffffffff1603611073576040517f08c379a000000000000000000000000000000000000000000000000000000000815260040161106a90613ac2565b60405180910390fd5b4281116110b5576040517f08c379a00000000000000000000000000000000000000000000000000000000081526004016110ac90613b50565b60405180910390fd5b5f6110bf836114d1565b146110ff576040517f08c379a00000000000000000000000000000000000000000000000000000000081526004016110f690613bb8565b60405180910390fd5b600b5f8373ffffffffffffffffffffffffffffffffffffffff1673ffffffffffffffffffffffffffffffffffffffff1681526020019081526020015f205f9054906101000a900460ff16611188576040517f08c379a000000000000000000000000000000000000000000000000000000000815260040161117f90613c20565b60405180910390fd5b5f600b5f8473ffffffffffffffffffffffffffffffffffffffff1673ffffffffffffffffffffffffffffffffffffffff1681526020019081526020015f205f6101000a81548160ff02191690831515021790555060075f81546111ea90613c3e565b919050819055505f60075490508160095f8381526020019081526020015f20819055506112178382611f28565b8060085f8573ffffffffffffffffffffffffffffffffffffffff1673ffffffffffffffffffffffffffffffffffffffff1681526020019081526020015f20819055508273ffffffffffffffffffffffffffffffffffffffff167f655ff37b06d138fc26fda07d435a40368e63b8d3cbd7835215334ff9e7fcd78282846040516112a192919061394c565b60405180910390a2505050565b6112b6611e3f565b6112be611cbe565b5f73ffffffffffffffffffffffffffffffffffffffff166112de83611bad565b73ffffffffffffffffffffffffffffffffffffffff1603611334576040517f08c379a000000000000000000000000000000000000000000000000000000000815260040161132b906139f2565b60405180910390fd5b5f8111611376576040517f08c379a000000000000000000000000000000000000000000000000000000000815260040161136d90613cf5565b60405180910390fd5b8060095f8481526020019081526020015f205f8282546113969190613d13565b925050819055507f0db48b23ad6f04f212b5fddef4017753a195535f0d61c4daa790b4f70f28c07f8260095f8581526020019081526020015f20546040516113df92919061394c565b60405180910390a15050565b61140583838360405180602001604052805f81525061170d565b505050565b611412611cbe565b5f60085f3373ffffffffffffffffffffffffffffffffffffffff1673ffffffffffffffffffffffffffffffffffffffff1681526020019081526020015f205490505f8103611495576040517f08c379a000000000000000000000000000000000000000000000000000000000815260040161148c90613d90565b60405180910390fd5b61149e81611f45565b50565b5f600754905090565b5f600660149054906101000a900460ff16905090565b5f6114ca82611be6565b9050919050565b5f5f73ffffffffffffffffffffffffffffffffffffffff168273ffffffffffffffffffffffffffffffffffffffff1603611542575f6040517f89c62b640000000000000000000000000000000000000000000000000000000081526004016115399190612ff5565b60405180910390fd5b60035f8373ffffffffffffffffffffffffffffffffffffffff1673ffffffffffffffffffffffffffffffffffffffff1681526020019081526020015f20549050919050565b61158f611e3f565b6115985f611fc7565b565b6115a2611e3f565b6115aa61208a565b565b5f60065f9054906101000a900473ffffffffffffffffffffffffffffffffffffffff16905090565b5f5f60085f8473ffffffffffffffffffffffffffffffffffffffff1673ffffffffffffffffffffffffffffffffffffffff1681526020019081526020015f205490505f8103611626575f915050611662565b5f73ffffffffffffffffffffffffffffffffffffffff1661164682611bad565b73ffffffffffffffffffffffffffffffffffffffff1614159150505b919050565b60606001805461167690613381565b80601f01602080910402602001604051908101604052809291908181526020018280546116a290613381565b80156116ed5780601f106116c4576101008083540402835291602001916116ed565b820191905f5260205f20905b8154815290600101906020018083116116d057829003601f168201915b5050505050905090565b611709611702611ca5565b83836120ed565b5050565b611718848484610db8565b61172c611723611ca5565b858585856122c6565b50505050565b601481565b606061174282611be6565b505f61174c612472565b90505f81511161176a5760405180602001604052805f815250611795565b8061177484612488565b604051602001611785929190613de8565b6040516020818303038152906040525b915050919050565b5f5f73ffffffffffffffffffffffffffffffffffffffff166117be83611bad565b73ffffffffffffffffffffffffffffffffffffffff1603611814576040517f08c379a000000000000000000000000000000000000000000000000000000000815260040161180b906139f2565b60405180910390fd5b60095f8381526020019081526020015f205442119050919050565b5f5f73ffffffffffffffffffffffffffffffffffffffff1661185083611bad565b73ffffffffffffffffffffffffffffffffffffffff16036118a6576040517f08c379a000000000000000000000000000000000000000000000000000000000815260040161189d906139f2565b60405180910390fd5b60095f8381526020019081526020015f20549050919050565b5f60055f8473ffffffffffffffffffffffffffffffffffffffff1673ffffffffffffffffffffffffffffffffffffffff1681526020019081526020015f205f8373ffffffffffffffffffffffffffffffffffffffff1673ffffffffffffffffffffffffffffffffffffffff1681526020019081526020015f205f9054906101000a900460ff16905092915050565b5f5f73ffffffffffffffffffffffffffffffffffffffff168273ffffffffffffffffffffffffffffffffffffffff16036119bc576040517f08c379a00000000000000000000000000000000000000000000000000000000081526004016119b390613e55565b60405180910390fd5b5f60085f8473ffffffffffffffffffffffffffffffffffffffff1673ffffffffffffffffffffffffffffffffffffffff1681526020019081526020015f205490505f8103611a3f576040517f08c379a0000000000000000000000000000000000000000000000000000000008152600401611a3690613ebd565b60405180910390fd5b80915050919050565b611a50611e3f565b5f73ffffffffffffffffffffffffffffffffffffffff168173ffffffffffffffffffffffffffffffffffffffff1603611ac0575f6040517f1e4fbdf7000000000000000000000000000000000000000000000000000000008152600401611ab79190612ff5565b60405180910390fd5b611ac981611fc7565b50565b5f7f80ac58cd000000000000000000000000000000000000000000000000000000007bffffffffffffffffffffffffffffffffffffffffffffffffffffffff1916827bffffffffffffffffffffffffffffffffffffffffffffffffffffffff19161480611b9657507f5b5e139f000000000000000000000000000000000000000000000000000000007bffffffffffffffffffffffffffffffffffffffffffffffffffffffff1916827bffffffffffffffffffffffffffffffffffffffffffffffffffffffff1916145b80611ba65750611ba582612552565b5b9050919050565b5f60025f8381526020019081526020015f205f9054906101000a900473ffffffffffffffffffffffffffffffffffffffff169050919050565b5f5f611bf183611bad565b90505f73ffffffffffffffffffffffffffffffffffffffff168173ffffffffffffffffffffffffffffffffffffffff1603611c6357826040517f7e273289000000000000000000000000000000000000000000000000000000008152600401611c5a91906130e9565b60405180910390fd5b80915050919050565b5f60045f8381526020019081526020015f205f9054906101000a900473ffffffffffffffffffffffffffffffffffffffff169050919050565b5f33905090565b611cb983838360016125bb565b505050565b611cc66114aa565b15611cfd576040517fd93c066500000000000000000000000000000000000000000000000000000000815260040160405180910390fd5b565b5f5f611d0a84611bad565b90505f73ffffffffffffffffffffffffffffffffffffffff168173ffffffffffffffffffffffffffffffffffffffff1614158015611d7457505f73ffffffffffffffffffffffffffffffffffffffff168573ffffffffffffffffffffffffffffffffffffffff1614155b15611db4576040517f08c379a0000000000000000000000000000000000000000000000000000000008152600401611dab90613f25565b60405180910390fd5b5f73ffffffffffffffffffffffffffffffffffffffff168173ffffffffffffffffffffffffffffffffffffffff1614611e2a575f60085f8373ffffffffffffffffffffffffffffffffffffffff1673ffffffffffffffffffffffffffffffffffffffff1681526020019081526020015f20819055505b611e3585858561277a565b9150509392505050565b611e47611ca5565b73ffffffffffffffffffffffffffffffffffffffff16611e656115ac565b73ffffffffffffffffffffffffffffffffffffffff1614611ec457611e88611ca5565b6040517f118cdaa7000000000000000000000000000000000000000000000000000000008152600401611ebb9190612ff5565b60405180910390fd5b565b611ece612985565b5f600660146101000a81548160ff0219169083151502179055507f5db9ee0a495bf2e6ff9c91a7834c1ba4fdd244a5e8aa4e537bd38aeae4b073aa611f11611ca5565b604051611f1e9190612ff5565b60405180910390a1565b611f41828260405180602001604052805f8152506129c5565b5050565b5f611f515f835f611cff565b90505f73ffffffffffffffffffffffffffffffffffffffff168173ffffffffffffffffffffffffffffffffffffffff1603611fc357816040517f7e273289000000000000000000000000000000000000000000000000000000008152600401611fba91906130e9565b60405180910390fd5b5050565b5f60065f9054906101000a900473ffffffffffffffffffffffffffffffffffffffff1690508160065f6101000a81548173ffffffffffffffffffffffffffffffffffffffff021916908373ffffffffffffffffffffffffffffffffffffffff1602179055508173ffffffffffffffffffffffffffffffffffffffff168173ffffffffffffffffffffffffffffffffffffffff167f8be0079c531659141344cd1fd0a4f28419497f9722a3daafe3b4186f6b6457e060405160405180910390a35050565b612092611cbe565b6001600660146101000a81548160ff0219169083151502179055507f62e78cea01bee320cd4e420270b5ea74000d11b0c9f74754ebdbfc544b05a2586120d6611ca5565b6040516120e39190612ff5565b60405180910390a1565b5f73ffffffffffffffffffffffffffffffffffffffff168373ffffffffffffffffffffffffffffffffffffffff160361215d575f6040517fa9fbf51f0000000000000000000000000000000000000000000000000000000081526004016121549190612ff5565b60405180910390fd5b5f73ffffffffffffffffffffffffffffffffffffffff168273ffffffffffffffffffffffffffffffffffffffff16036121cd57816040517f5b08ba180000000000000000000000000000000000000000000000000000000081526004016121c49190612ff5565b60405180910390fd5b8060055f8573ffffffffffffffffffffffffffffffffffffffff1673ffffffffffffffffffffffffffffffffffffffff1681526020019081526020015f205f8473ffffffffffffffffffffffffffffffffffffffff1673ffffffffffffffffffffffffffffffffffffffff1681526020019081526020015f205f6101000a81548160ff0219169083151502179055508173ffffffffffffffffffffffffffffffffffffffff168373ffffffffffffffffffffffffffffffffffffffff167f17307eab39ab6107e8899845ad3d59bd9653f200f220920489ca2b5937696c31836040516122b99190612e5a565b60405180910390a3505050565b5f8373ffffffffffffffffffffffffffffffffffffffff163b111561246b578273ffffffffffffffffffffffffffffffffffffffff1663150b7a02868685856040518563ffffffff1660e01b81526004016123249493929190613f95565b6020604051808303815f875af192505050801561235f57506040513d601f19601f8201168201806040525081019061235c9190613ff3565b60015b6123e0573d805f811461238d576040519150601f19603f3d011682016040523d82523d5f602084013e612392565b606091505b505f8151036123d857836040517f64a0ae920000000000000000000000000000000000000000000000000000000081526004016123cf9190612ff5565b60405180910390fd5b805160208201fd5b63150b7a0260e01b7bffffffffffffffffffffffffffffffffffffffffffffffffffffffff1916817bffffffffffffffffffffffffffffffffffffffffffffffffffffffff19161461246957836040517f64a0ae920000000000000000000000000000000000000000000000000000000081526004016124609190612ff5565b60405180910390fd5b505b5050505050565b606060405180602001604052805f815250905090565b60605f6001612496846129e8565b0190505f8167ffffffffffffffff8111156124b4576124b3613172565b5b6040519080825280601f01601f1916602001820160405280156124e65781602001600182028036833780820191505090505b5090505f82602083010190505b600115612547578080600190039150507f3031323334353637383961626364656600000000000000000000000000000000600a86061a8153600a858161253c5761253b6137b8565b5b0494505f85036124f3575b819350505050919050565b5f7f01ffc9a7000000000000000000000000000000000000000000000000000000007bffffffffffffffffffffffffffffffffffffffffffffffffffffffff1916827bffffffffffffffffffffffffffffffffffffffffffffffffffffffff1916149050919050565b80806125f357505f73ffffffffffffffffffffffffffffffffffffffff168273ffffffffffffffffffffffffffffffffffffffff1614155b15612725575f61260284611be6565b90505f73ffffffffffffffffffffffffffffffffffffffff168373ffffffffffffffffffffffffffffffffffffffff161415801561266c57508273ffffffffffffffffffffffffffffffffffffffff168173ffffffffffffffffffffffffffffffffffffffff1614155b801561267f575061267d81846118bf565b155b156126c157826040517fa9fbf51f0000000000000000000000000000000000000000000000000000000081526004016126b89190612ff5565b60405180910390fd5b811561272357838573ffffffffffffffffffffffffffffffffffffffff168273ffffffffffffffffffffffffffffffffffffffff167f8c5be1e5ebec7d5bd14f71427d1e84f3dd0314c0f7b2291e5b200ac8c7c3b92560405160405180910390a45b505b8360045f8581526020019081526020015f205f6101000a81548173ffffffffffffffffffffffffffffffffffffffff021916908373ffffffffffffffffffffffffffffffffffffffff16021790555050505050565b5f5f61278584611bad565b90505f73ffffffffffffffffffffffffffffffffffffffff168373ffffffffffffffffffffffffffffffffffffffff16146127c6576127c5818486612b39565b5b5f73ffffffffffffffffffffffffffffffffffffffff168173ffffffffffffffffffffffffffffffffffffffff1614612851576128055f855f5f6125bb565b600160035f8373ffffffffffffffffffffffffffffffffffffffff1673ffffffffffffffffffffffffffffffffffffffff1681526020019081526020015f205f82825403925050819055505b5f73ffffffffffffffffffffffffffffffffffffffff168573ffffffffffffffffffffffffffffffffffffffff16146128d057600160035f8773ffffffffffffffffffffffffffffffffffffffff1673ffffffffffffffffffffffffffffffffffffffff1681526020019081526020015f205f82825401925050819055505b8460025f8681526020019081526020015f205f6101000a81548173ffffffffffffffffffffffffffffffffffffffff021916908373ffffffffffffffffffffffffffffffffffffffff160217905550838573ffffffffffffffffffffffffffffffffffffffff168273ffffffffffffffffffffffffffffffffffffffff167fddf252ad1be2c89b69c2b068fc378daa952ba7f163c4a11628f55a4df523b3ef60405160405180910390a4809150509392505050565b61298d6114aa565b6129c3576040517f8dfc202b00000000000000000000000000000000000000000000000000000000815260040160405180910390fd5b565b6129cf8383612bfc565b6129e36129da611ca5565b5f8585856122c6565b505050565b5f5f5f90507a184f03e93ff9f4daa797ed6e38ed64bf6a1f0100000000000000008310612a44577a184f03e93ff9f4daa797ed6e38ed64bf6a1f0100000000000000008381612a3a57612a396137b8565b5b0492506040810190505b6d04ee2d6d415b85acef81000000008310612a81576d04ee2d6d415b85acef81000000008381612a7757612a766137b8565b5b0492506020810190505b662386f26fc100008310612ab057662386f26fc100008381612aa657612aa56137b8565b5b0492506010810190505b6305f5e1008310612ad9576305f5e1008381612acf57612ace6137b8565b5b0492506008810190505b6127108310612afe576127108381612af457612af36137b8565b5b0492506004810190505b60648310612b215760648381612b1757612b166137b8565b5b0492506002810190505b600a8310612b30576001810190505b80915050919050565b612b44838383612cef565b612bf7575f73ffffffffffffffffffffffffffffffffffffffff168373ffffffffffffffffffffffffffffffffffffffff1603612bb857806040517f7e273289000000000000000000000000000000000000000000000000000000008152600401612baf91906130e9565b60405180910390fd5b81816040517f177e802f000000000000000000000000000000000000000000000000000000008152600401612bee92919061401e565b60405180910390fd5b505050565b5f73ffffffffffffffffffffffffffffffffffffffff168273ffffffffffffffffffffffffffffffffffffffff1603612c6c575f6040517f64a0ae92000000000000000000000000000000000000000000000000000000008152600401612c639190612ff5565b60405180910390fd5b5f612c7883835f611cff565b90505f73ffffffffffffffffffffffffffffffffffffffff168173ffffffffffffffffffffffffffffffffffffffff1614612cea575f6040517f73c6ac6e000000000000000000000000000000000000000000000000000000008152600401612ce19190612ff5565b60405180910390fd5b505050565b5f5f73ffffffffffffffffffffffffffffffffffffffff168373ffffffffffffffffffffffffffffffffffffffff1614158015612da657508273ffffffffffffffffffffffffffffffffffffffff168473ffffffffffffffffffffffffffffffffffffffff161480612d675750612d6684846118bf565b5b80612da557508273ffffffffffffffffffffffffffffffffffffffff16612d8d83611c6c565b73ffffffffffffffffffffffffffffffffffffffff16145b5b90509392505050565b5f604051905090565b5f5ffd5b5f5ffd5b5f7fffffffff0000000000000000000000000000000000000000000000000000000082169050919050565b612df481612dc0565b8114612dfe575f5ffd5b50565b5f81359050612e0f81612deb565b92915050565b5f60208284031215612e2a57612e29612db8565b5b5f612e3784828501612e01565b91505092915050565b5f8115159050919050565b612e5481612e40565b82525050565b5f602082019050612e6d5f830184612e4b565b92915050565b5f73ffffffffffffffffffffffffffffffffffffffff82169050919050565b5f612e9c82612e73565b9050919050565b612eac81612e92565b8114612eb6575f5ffd5b50565b5f81359050612ec781612ea3565b92915050565b5f60208284031215612ee257612ee1612db8565b5b5f612eef84828501612eb9565b91505092915050565b5f81519050919050565b5f82825260208201905092915050565b8281835e5f83830152505050565b5f601f19601f8301169050919050565b5f612f3a82612ef8565b612f448185612f02565b9350612f54818560208601612f12565b612f5d81612f20565b840191505092915050565b5f6020820190508181035f830152612f808184612f30565b905092915050565b5f819050919050565b612f9a81612f88565b8114612fa4575f5ffd5b50565b5f81359050612fb581612f91565b92915050565b5f60208284031215612fd057612fcf612db8565b5b5f612fdd84828501612fa7565b91505092915050565b612fef81612e92565b82525050565b5f6020820190506130085f830184612fe6565b92915050565b5f5f6040838503121561302457613023612db8565b5b5f61303185828601612eb9565b925050602061304285828601612fa7565b9150509250929050565b5f5f5f6060848603121561306357613062612db8565b5b5f61307086828701612eb9565b935050602061308186828701612eb9565b925050604061309286828701612fa7565b9150509250925092565b5f5f604083850312156130b2576130b1612db8565b5b5f6130bf85828601612fa7565b92505060206130d085828601612fa7565b9150509250929050565b6130e381612f88565b82525050565b5f6020820190506130fc5f8301846130da565b92915050565b61310b81612e40565b8114613115575f5ffd5b50565b5f8135905061312681613102565b92915050565b5f5f6040838503121561314257613141612db8565b5b5f61314f85828601612eb9565b925050602061316085828601613118565b9150509250929050565b5f5ffd5b5f5ffd5b7f4e487b71000000000000000000000000000000000000000000000000000000005f52604160045260245ffd5b6131a882612f20565b810181811067ffffffffffffffff821117156131c7576131c6613172565b5b80604052505050565b5f6131d9612daf565b90506131e5828261319f565b919050565b5f67ffffffffffffffff82111561320457613203613172565b5b61320d82612f20565b9050602081019050919050565b828183375f83830152505050565b5f61323a613235846131ea565b6131d0565b9050828152602081018484840111156132565761325561316e565b5b61326184828561321a565b509392505050565b5f82601f83011261327d5761327c61316a565b5b813561328d848260208601613228565b91505092915050565b5f5f5f5f608085870312156132ae576132ad612db8565b5b5f6132bb87828801612eb9565b94505060206132cc87828801612eb9565b93505060406132dd87828801612fa7565b925050606085013567ffffffffffffffff8111156132fe576132fd612dbc565b5b61330a87828801613269565b91505092959194509250565b5f5f6040838503121561332c5761332b612db8565b5b5f61333985828601612eb9565b925050602061334a85828601612eb9565b9150509250929050565b7f4e487b71000000000000000000000000000000000000000000000000000000005f52602260045260245ffd5b5f600282049050600182168061339857607f821691505b6020821081036133ab576133aa613354565b5b50919050565b7f46656520616c72656164792070616964000000000000000000000000000000005f82015250565b5f6133e5601083612f02565b91506133f0826133b1565b602082019050919050565b5f6020820190508181035f830152613412816133d9565b9050919050565b7f416c726561647920686176652061206d65726368616e7420746f6b656e0000005f82015250565b5f61344d601d83612f02565b915061345882613419565b602082019050919050565b5f6020820190508181035f83015261347a81613441565b9050919050565b5f69ffffffffffffffffffff82169050919050565b61349f81613481565b81146134a9575f5ffd5b50565b5f815190506134ba81613496565b92915050565b5f819050919050565b6134d2816134c0565b81146134dc575f5ffd5b50565b5f815190506134ed816134c9565b92915050565b5f8151905061350181612f91565b92915050565b5f5f5f5f5f60a086880312156135205761351f612db8565b5b5f61352d888289016134ac565b955050602061353e888289016134df565b945050604061354f888289016134f3565b9350506060613560888289016134f3565b9250506080613571888289016134ac565b9150509295509295909350565b7f496e76616c69642070726963652066726f6d20436861696e6c696e6b000000005f82015250565b5f6135b2601c83612f02565b91506135bd8261357e565b602082019050919050565b5f6020820190508181035f8301526135df816135a6565b9050919050565b5f60ff82169050919050565b6135fb816135e6565b8114613605575f5ffd5b50565b5f81519050613616816135f2565b92915050565b5f6020828403121561363157613630612db8565b5b5f61363e84828501613608565b91505092915050565b7f556e6578706563746564207072696365206665656420646563696d616c7300005f82015250565b5f61367b601e83612f02565b915061368682613647565b602082019050919050565b5f6020820190508181035f8301526136a88161366f565b9050919050565b7f4e487b71000000000000000000000000000000000000000000000000000000005f52601160045260245ffd5b5f6136e682612f88565b91506136f183612f88565b9250828203905081811115613709576137086136af565b5b92915050565b7f5374616c652070726963652066656564000000000000000000000000000000005f82015250565b5f613743601083612f02565b915061374e8261370f565b602082019050919050565b5f6020820190508181035f83015261377081613737565b9050919050565b5f61378182612f88565b915061378c83612f88565b925082820261379a81612f88565b915082820484148315176137b1576137b06136af565b5b5092915050565b7f4e487b71000000000000000000000000000000000000000000000000000000005f52601260045260245ffd5b5f6137ef82612f88565b91506137fa83612f88565b92508261380a576138096137b8565b5b828204905092915050565b7f496e73756666696369656e742045544820666f72206d65726368616e742066655f8201527f6500000000000000000000000000000000000000000000000000000000000000602082015250565b5f61386f602183612f02565b915061387a82613815565b604082019050919050565b5f6020820190508181035f83015261389c81613863565b9050919050565b5f81905092915050565b50565b5f6138bb5f836138a3565b91506138c6826138ad565b5f82019050919050565b5f6138da826138b0565b9150819050919050565b7f466565207472616e73666572206661696c6564000000000000000000000000005f82015250565b5f613918601383612f02565b9150613923826138e4565b602082019050919050565b5f6020820190508181035f8301526139458161390c565b9050919050565b5f60408201905061395f5f8301856130da565b61396c60208301846130da565b9392505050565b5f6060820190506139865f830186612fe6565b61399360208301856130da565b6139a06040830184612fe6565b949350505050565b7f546f6b656e20646f6573206e6f742065786973740000000000000000000000005f82015250565b5f6139dc601483612f02565b91506139e7826139a8565b602082019050919050565b5f6020820190508181035f830152613a09816139d0565b9050919050565b7f546f6b656e20616c7265616479206578706972656400000000000000000000005f82015250565b5f613a44601583612f02565b9150613a4f82613a10565b602082019050919050565b5f6020820190508181035f830152613a7181613a38565b9050919050565b7f43616e6e6f74206d696e7420746f207a65726f206164647265737300000000005f82015250565b5f613aac601b83612f02565b9150613ab782613a78565b602082019050919050565b5f6020820190508181035f830152613ad981613aa0565b9050919050565b7f45787069726174696f6e206d75737420626520696e20746865206675747572655f8201527f2e00000000000000000000000000000000000000000000000000000000000000602082015250565b5f613b3a602183612f02565b9150613b4582613ae0565b604082019050919050565b5f6020820190508181035f830152613b6781613b2e565b9050919050565b7f5573657220616c726561647920686173206120746f6b656e00000000000000005f82015250565b5f613ba2601883612f02565b9150613bad82613b6e565b602082019050919050565b5f6020820190508181035f830152613bcf81613b96565b9050919050565b7f4d65726368616e7420666565206e6f74207061696400000000000000000000005f82015250565b5f613c0a601583612f02565b9150613c1582613bd6565b602082019050919050565b5f6020820190508181035f830152613c3781613bfe565b9050919050565b5f613c4882612f88565b91507fffffffffffffffffffffffffffffffffffffffffffffffffffffffffffffffff8203613c7a57613c796136af565b5b600182019050919050565b7f4164646974696f6e616c2074696d65206d7573742062652067726561746572205f8201527f7468616e207a65726f0000000000000000000000000000000000000000000000602082015250565b5f613cdf602983612f02565b9150613cea82613c85565b604082019050919050565b5f6020820190508181035f830152613d0c81613cd3565b9050919050565b5f613d1d82612f88565b9150613d2883612f88565b9250828201905080821115613d4057613d3f6136af565b5b92915050565b7f596f7520646f206e6f74206f776e206120746f6b656e000000000000000000005f82015250565b5f613d7a601683612f02565b9150613d8582613d46565b602082019050919050565b5f6020820190508181035f830152613da781613d6e565b9050919050565b5f81905092915050565b5f613dc282612ef8565b613dcc8185613dae565b9350613ddc818560208601612f12565b80840191505092915050565b5f613df38285613db8565b9150613dff8284613db8565b91508190509392505050565b7f496e76616c6964206164647265737300000000000000000000000000000000005f82015250565b5f613e3f600f83612f02565b9150613e4a82613e0b565b602082019050919050565b5f6020820190508181035f830152613e6c81613e33565b9050919050565b7f4f776e657220646f6573206e6f742068617665206120746f6b656e00000000005f82015250565b5f613ea7601b83612f02565b9150613eb282613e73565b602082019050919050565b5f6020820190508181035f830152613ed481613e9b565b9050919050565b7f5472616e7366657273206172652064697361626c6564000000000000000000005f82015250565b5f613f0f601683612f02565b9150613f1a82613edb565b602082019050919050565b5f6020820190508181035f830152613f3c81613f03565b9050919050565b5f81519050919050565b5f82825260208201905092915050565b5f613f6782613f43565b613f718185613f4d565b9350613f81818560208601612f12565b613f8a81612f20565b840191505092915050565b5f608082019050613fa85f830187612fe6565b613fb56020830186612fe6565b613fc260408301856130da565b8181036060830152613fd48184613f5d565b905095945050505050565b5f81519050613fed81612deb565b92915050565b5f6020828403121561400857614007612db8565b5b5f61401584828501613fdf565b91505092915050565b5f6040820190506140315f830185612fe6565b61403e60208301846130da565b939250505056fea2646970667358221220d327a97a6e3ae30bcaa9471cd82017b75d94525d98766cae508626618fb7784d64736f6c634300081b0033",
  "linkReferences": {},
  "deployedLinkReferences": {}
}