{
  "_format": "hh-sol-artifact-1",
  "contractName": "Littercoin",
  "sourceName": "contracts/Littercoin.sol",
  "abi": [
    {
      "inputs": [
        {
          "internalType": "address",
          "name": "_priceFeed",
          "type": "address"
        }
      ],
      "stateMutability": "nonpayable",
      "type": "constructor"
    },
    {
      "anonymous": false,
      "inputs": [
        {
          "indexed": true,
          "internalType": "address",
          "name": "owner",
          "type": "address"
        },
        {
          "indexed": true,
          "internalType": "address",
          "name": "approved",
          "type": "address"
        },
        {
          "indexed": true,
          "internalType": "uint256",
          "name": "tokenId",
          "type": "uint256"
        }
      ],
      "name": "Approval",
      "type": "event"
    },
    {
      "anonymous": false,
      "inputs": [
        {
          "indexed": true,
          "internalType": "address",
          "name": "owner",
          "type": "address"
        },
        {
          "indexed": true,
          "internalType": "address",
          "name": "operator",
          "type": "address"
        },
        {
          "indexed": false,
          "internalType": "bool",
          "name": "approved",
          "type": "bool"
        }
      ],
      "name": "ApprovalForAll",
      "type": "event"
    },
    {
      "anonymous": false,
      "inputs": [
        {
          "indexed": true,
          "internalType": "address",
          "name": "user",
          "type": "address"
        },
        {
          "indexed": false,
          "internalType": "uint256",
          "name": "tokensToBurn",
          "type": "uint256"
        },
        {
          "indexed": false,
          "internalType": "uint256",
          "name": "ethAmount",
          "type": "uint256"
        }
      ],
      "name": "BurnLittercoin",
      "type": "event"
    },
    {
      "anonymous": false,
      "inputs": [
        {
          "indexed": true,
          "internalType": "address",
          "name": "user",
          "type": "address"
        },
        {
          "indexed": false,
          "internalType": "uint256",
          "name": "amount",
          "type": "uint256"
        }
      ],
      "name": "Mint",
      "type": "event"
    },
    {
      "anonymous": false,
      "inputs": [
        {
          "indexed": true,
          "internalType": "address",
          "name": "previousOwner",
          "type": "address"
        },
        {
          "indexed": true,
          "internalType": "address",
          "name": "newOwner",
          "type": "address"
        }
      ],
      "name": "OwnershipTransferred",
      "type": "event"
    },
    {
      "anonymous": false,
      "inputs": [
        {
          "indexed": false,
          "internalType": "address",
          "name": "account",
          "type": "address"
        }
      ],
      "name": "Paused",
      "type": "event"
    },
    {
      "anonymous": false,
      "inputs": [
        {
          "indexed": true,
          "internalType": "address",
          "name": "user",
          "type": "address"
        },
        {
          "indexed": false,
          "internalType": "uint256",
          "name": "rewardAmount",
          "type": "uint256"
        }
      ],
      "name": "Reward",
      "type": "event"
    },
    {
      "anonymous": false,
      "inputs": [
        {
          "indexed": true,
          "internalType": "address",
          "name": "from",
          "type": "address"
        },
        {
          "indexed": true,
          "internalType": "address",
          "name": "to",
          "type": "address"
        },
        {
          "indexed": true,
          "internalType": "uint256",
          "name": "tokenId",
          "type": "uint256"
        }
      ],
      "name": "Transfer",
      "type": "event"
    },
    {
      "anonymous": false,
      "inputs": [
        {
          "indexed": false,
          "internalType": "address",
          "name": "account",
          "type": "address"
        }
      ],
      "name": "Unpaused",
      "type": "event"
    },
    {
      "inputs": [],
      "name": "MAX_MINT_AMOUNT",
      "outputs": [
        {
          "internalType": "uint256",
          "name": "",
          "type": "uint256"
        }
      ],
      "stateMutability": "view",
      "type": "function"
    },
    {
      "inputs": [],
      "name": "MAX_TRANSACTIONS",
      "outputs": [
        {
          "internalType": "uint256",
          "name": "",
          "type": "uint256"
        }
      ],
      "stateMutability": "view",
      "type": "function"
    },
    {
      "inputs": [
        {
          "internalType": "address",
          "name": "to",
          "type": "address"
        },
        {
          "internalType": "uint256",
          "name": "tokenId",
          "type": "uint256"
        }
      ],
      "name": "approve",
      "outputs": [],
      "stateMutability": "nonpayable",
      "type": "function"
    },
    {
      "inputs": [
        {
          "internalType": "address",
          "name": "owner",
          "type": "address"
        }
      ],
      "name": "balanceOf",
      "outputs": [
        {
          "internalType": "uint256",
          "name": "",
          "type": "uint256"
        }
      ],
      "stateMutability": "view",
      "type": "function"
    },
    {
      "inputs": [
        {
          "internalType": "uint256[]",
          "name": "tokenIds",
          "type": "uint256[]"
        }
      ],
      "name": "burnLittercoin",
      "outputs": [],
      "stateMutability": "nonpayable",
      "type": "function"
    },
    {
      "inputs": [
        {
          "internalType": "uint256",
          "name": "tokenId",
          "type": "uint256"
        }
      ],
      "name": "exists",
      "outputs": [
        {
          "internalType": "bool",
          "name": "",
          "type": "bool"
        }
      ],
      "stateMutability": "view",
      "type": "function"
    },
    {
      "inputs": [
        {
          "internalType": "uint256",
          "name": "tokenId",
          "type": "uint256"
        }
      ],
      "name": "getApproved",
      "outputs": [
        {
          "internalType": "address",
          "name": "",
          "type": "address"
        }
      ],
      "stateMutability": "view",
      "type": "function"
    },
    {
      "inputs": [],
      "name": "getCurrentTokenId",
      "outputs": [
        {
          "internalType": "uint256",
          "name": "",
          "type": "uint256"
        }
      ],
      "stateMutability": "view",
      "type": "function"
    },
    {
      "inputs": [],
      "name": "getMerchantTokenAddress",
      "outputs": [
        {
          "internalType": "address",
          "name": "",
          "type": "address"
        }
      ],
      "stateMutability": "view",
      "type": "function"
    },
    {
      "inputs": [],
      "name": "getRewardTokenAddress",
      "outputs": [
        {
          "internalType": "address",
          "name": "",
          "type": "address"
        }
      ],
      "stateMutability": "view",
      "type": "function"
    },
    {
      "inputs": [
        {
          "internalType": "address",
          "name": "owner",
          "type": "address"
        },
        {
          "internalType": "address",
          "name": "operator",
          "type": "address"
        }
      ],
      "name": "isApprovedForAll",
      "outputs": [
        {
          "internalType": "bool",
          "name": "",
          "type": "bool"
        }
      ],
      "stateMutability": "view",
      "type": "function"
    },
    {
      "inputs": [],
      "name": "merchantToken",
      "outputs": [
        {
          "internalType": "contract MerchantToken",
          "name": "",
          "type": "address"
        }
      ],
      "stateMutability": "view",
      "type": "function"
    },
    {
      "inputs": [
        {
          "internalType": "uint256",
          "name": "amount",
          "type": "uint256"
        },
        {
          "internalType": "uint256",
          "name": "nonce",
          "type": "uint256"
        },
        {
          "internalType": "uint256",
          "name": "expiry",
          "type": "uint256"
        },
        {
          "internalType": "bytes",
          "name": "signature",
          "type": "bytes"
        }
      ],
      "name": "mint",
      "outputs": [],
      "stateMutability": "nonpayable",
      "type": "function"
    },
    {
      "inputs": [],
      "name": "name",
      "outputs": [
        {
          "internalType": "string",
          "name": "",
          "type": "string"
        }
      ],
      "stateMutability": "view",
      "type": "function"
    },
    {
      "inputs": [],
      "name": "owner",
      "outputs": [
        {
          "internalType": "address",
          "name": "",
          "type": "address"
        }
      ],
      "stateMutability": "view",
      "type": "function"
    },
    {
      "inputs": [
        {
          "internalType": "uint256",
          "name": "tokenId",
          "type": "uint256"
        }
      ],
      "name": "ownerOf",
      "outputs": [
        {
          "internalType": "address",
          "name": "",
          "type": "address"
        }
      ],
      "stateMutability": "view",
      "type": "function"
    },
    {
      "inputs": [],
      "name": "pause",
      "outputs": [],
      "stateMutability": "nonpayable",
      "type": "function"
    },
    {
      "inputs": [],
      "name": "paused",
      "outputs": [
        {
          "internalType": "bool",
          "name": "",
          "type": "bool"
        }
      ],
      "stateMutability": "view",
      "type": "function"
    },
    {
      "inputs": [],
      "name": "renounceOwnership",
      "outputs": [],
      "stateMutability": "nonpayable",
      "type": "function"
    },
    {
      "inputs": [],
      "name": "rewardToken",
      "outputs": [
        {
          "internalType": "contract OLMRewardToken",
          "name": "",
          "type": "address"
        }
      ],
      "stateMutability": "view",
      "type": "function"
    },
    {
      "inputs": [
        {
          "internalType": "address",
          "name": "from",
          "type": "address"
        },
        {
          "internalType": "address",
          "name": "to",
          "type": "address"
        },
        {
          "internalType": "uint256",
          "name": "tokenId",
          "type": "uint256"
        }
      ],
      "name": "safeTransferFrom",
      "outputs": [],
      "stateMutability": "nonpayable",
      "type": "function"
    },
    {
      "inputs": [
        {
          "internalType": "address",
          "name": "from",
          "type": "address"
        },
        {
          "internalType": "address",
          "name": "to",
          "type": "address"
        },
        {
          "internalType": "uint256",
          "name": "tokenId",
          "type": "uint256"
        },
        {
          "internalType": "bytes",
          "name": "data",
          "type": "bytes"
        }
      ],
      "name": "safeTransferFrom",
      "outputs": [],
      "stateMutability": "nonpayable",
      "type": "function"
    },
    {
      "inputs": [
        {
          "internalType": "address",
          "name": "operator",
          "type": "address"
        },
        {
          "internalType": "bool",
          "name": "approved",
          "type": "bool"
        }
      ],
      "name": "setApprovalForAll",
      "outputs": [],
      "stateMutability": "nonpayable",
      "type": "function"
    },
    {
      "inputs": [
        {
          "internalType": "bytes4",
          "name": "interfaceId",
          "type": "bytes4"
        }
      ],
      "name": "supportsInterface",
      "outputs": [
        {
          "internalType": "bool",
          "name": "",
          "type": "bool"
        }
      ],
      "stateMutability": "view",
      "type": "function"
    },
    {
      "inputs": [],
      "name": "symbol",
      "outputs": [
        {
          "internalType": "string",
          "name": "",
          "type": "string"
        }
      ],
      "stateMutability": "view",
      "type": "function"
    },
    {
      "inputs": [
        {
          "internalType": "uint256",
          "name": "index",
          "type": "uint256"
        }
      ],
      "name": "tokenByIndex",
      "outputs": [
        {
          "internalType": "uint256",
          "name": "",
          "type": "uint256"
        }
      ],
      "stateMutability": "view",
      "type": "function"
    },
    {
      "inputs": [
        {
          "internalType": "address",
          "name": "owner",
          "type": "address"
        },
        {
          "internalType": "uint256",
          "name": "index",
          "type": "uint256"
        }
      ],
      "name": "tokenOfOwnerByIndex",
      "outputs": [
        {
          "internalType": "uint256",
          "name": "",
          "type": "uint256"
        }
      ],
      "stateMutability": "view",
      "type": "function"
    },
    {
      "inputs": [
        {
          "internalType": "uint256",
          "name": "tokenId",
          "type": "uint256"
        }
      ],
      "name": "tokenURI",
      "outputs": [
        {
          "internalType": "string",
          "name": "",
          "type": "string"
        }
      ],
      "stateMutability": "view",
      "type": "function"
    },
    {
      "inputs": [],
      "name": "totalSupply",
      "outputs": [
        {
          "internalType": "uint256",
          "name": "",
          "type": "uint256"
        }
      ],
      "stateMutability": "view",
      "type": "function"
    },
    {
      "inputs": [
        {
          "internalType": "uint256",
          "name": "",
          "type": "uint256"
        }
      ],
      "name": "transferCount",
      "outputs": [
        {
          "internalType": "uint8",
          "name": "",
          "type": "uint8"
        }
      ],
      "stateMutability": "view",
      "type": "function"
    },
    {
      "inputs": [
        {
          "internalType": "address",
          "name": "from",
          "type": "address"
        },
        {
          "internalType": "address",
          "name": "to",
          "type": "address"
        },
        {
          "internalType": "uint256",
          "name": "tokenId",
          "type": "uint256"
        }
      ],
      "name": "transferFrom",
      "outputs": [],
      "stateMutability": "nonpayable",
      "type": "function"
    },
    {
      "inputs": [
        {
          "internalType": "address",
          "name": "newOwner",
          "type": "address"
        }
      ],
      "name": "transferOwnership",
      "outputs": [],
      "stateMutability": "nonpayable",
      "type": "function"
    },
    {
      "inputs": [],
      "name": "unpause",
      "outputs": [],
      "stateMutability": "nonpayable",
      "type": "function"
    },
    {
      "inputs": [
        {
          "internalType": "uint256",
          "name": "",
          "type": "uint256"
        }
      ],
      "name": "usedNonces",
      "outputs": [
        {
          "internalType": "bool",
          "name": "",
          "type": "bool"
        }
      ],
      "stateMutability": "view",
      "type": "function"
    },
    {
      "stateMutability": "payable",
      "type": "receive"
    }
  ],
  "bytecode": "0x608060405234801561001057600080fd5b5060405161baa338038061baa38339818101604052810190610032919061047d565b6040518060400160405280600a81526020017f4c6974746572636f696e000000000000000000000000000000000000000000008152506040518060400160405280600781526020017f4c4954544552580000000000000000000000000000000000000000000000000081525081600090816100ad91906106fa565b5080600190816100bd91906106fa565b5050506100dc6100d161033260201b60201c565b61033a60201b60201c565b6001600b819055506000600c60006101000a81548160ff02191690831515021790555060405161010b90610400565b604051809103906000f080158015610127573d6000803e3d6000fd5b50601060006101000a81548173ffffffffffffffffffffffffffffffffffffffff021916908373ffffffffffffffffffffffffffffffffffffffff160217905550601060009054906101000a900473ffffffffffffffffffffffffffffffffffffffff1673ffffffffffffffffffffffffffffffffffffffff1663f2fde38b306040518263ffffffff1660e01b81526004016101c391906107db565b600060405180830381600087803b1580156101dd57600080fd5b505af11580156101f1573d6000803e3d6000fd5b505050506040516102019061040d565b604051809103906000f08015801561021d573d6000803e3d6000fd5b50601160006101000a81548173ffffffffffffffffffffffffffffffffffffffff021916908373ffffffffffffffffffffffffffffffffffffffff160217905550601160009054906101000a900473ffffffffffffffffffffffffffffffffffffffff1673ffffffffffffffffffffffffffffffffffffffff1663f2fde38b336040518263ffffffff1660e01b81526004016102b991906107db565b600060405180830381600087803b1580156102d357600080fd5b505af11580156102e7573d6000803e3d6000fd5b5050505080601260006101000a81548173ffffffffffffffffffffffffffffffffffffffff021916908373ffffffffffffffffffffffffffffffffffffffff160217905550506107f6565b600033905090565b6000600a60009054906101000a900473ffffffffffffffffffffffffffffffffffffffff16905081600a60006101000a81548173ffffffffffffffffffffffffffffffffffffffff021916908373ffffffffffffffffffffffffffffffffffffffff1602179055508173ffffffffffffffffffffffffffffffffffffffff168173ffffffffffffffffffffffffffffffffffffffff167f8be0079c531659141344cd1fd0a4f28419497f9722a3daafe3b4186f6b6457e060405160405180910390a35050565b611c9f8061609783390190565b613d6d80617d3683390190565b600080fd5b600073ffffffffffffffffffffffffffffffffffffffff82169050919050565b600061044a8261041f565b9050919050565b61045a8161043f565b811461046557600080fd5b50565b60008151905061047781610451565b92915050565b6000602082840312156104935761049261041a565b5b60006104a184828501610468565b91505092915050565b600081519050919050565b7f4e487b7100000000000000000000000000000000000000000000000000000000600052604160045260246000fd5b7f4e487b7100000000000000000000000000000000000000000000000000000000600052602260045260246000fd5b6000600282049050600182168061052b57607f821691505b60208210810361053e5761053d6104e4565b5b50919050565b60008190508160005260206000209050919050565b60006020601f8301049050919050565b600082821b905092915050565b6000600883026105a67fffffffffffffffffffffffffffffffffffffffffffffffffffffffffffffffff82610569565b6105b08683610569565b95508019841693508086168417925050509392505050565b6000819050919050565b6000819050919050565b60006105f76105f26105ed846105c8565b6105d2565b6105c8565b9050919050565b6000819050919050565b610611836105dc565b61062561061d826105fe565b848454610576565b825550505050565b600090565b61063a61062d565b610645818484610608565b505050565b5b818110156106695761065e600082610632565b60018101905061064b565b5050565b601f8211156106ae5761067f81610544565b61068884610559565b81016020851015610697578190505b6106ab6106a385610559565b83018261064a565b50505b505050565b600082821c905092915050565b60006106d1600019846008026106b3565b1980831691505092915050565b60006106ea83836106c0565b9150826002028217905092915050565b610703826104aa565b67ffffffffffffffff81111561071c5761071b6104b5565b5b6107268254610513565b61073182828561066d565b600060209050601f8311600181146107645760008415610752578287015190505b61075c85826106de565b8655506107c4565b601f19841661077286610544565b60005b8281101561079a57848901518255600182019150602085019450602081019050610775565b868310156107b757848901516107b3601f8916826106c0565b8355505b6001600288020188555050505b505050505050565b6107d58161043f565b82525050565b60006020820190506107f060008301846107cc565b92915050565b615892806108056000396000f3fe6080604052600436106101fd5760003560e01c806370a082311161010d578063a22cb465116100a0578063ec02ef571161006f578063ec02ef5714610a6d578063f2fde38b14610aaa578063f568c6c514610ad3578063f7c618c114610afe578063fa9b701814610b295761051f565b8063a22cb465146109a1578063b88d4fde146109ca578063c87b56dd146109f3578063e985e9c514610a305761051f565b80638c1a1f77116100dc5780638c1a1f77146108f55780638da5cb5b1461092057806395d89b411461094b57806399e117a0146109765761051f565b806370a082311461085f578063715018a61461089c578063744c0f93146108b35780638456cb59146108de5761051f565b80633f4ba83a116101905780634f6ccce71161015f5780634f6ccce714610752578063561892361461078f5780635c975abb146107ba5780636352211e146107e55780636717e41c146108225761051f565b80633f4ba83a146106ac57806342842e0e146106c35780634a9eee69146106ec5780634f558e79146107155761051f565b806318160ddd116101cc57806318160ddd146105f25780631edf9acd1461061d57806323b872dd146106465780632f745c591461066f5761051f565b806301ffc9a71461052457806306fdde0314610561578063081812fc1461058c578063095ea7b3146105c95761051f565b3661051f5761020a610b54565b610212610ba3565b15610252576040517f08c379a000000000000000000000000000000000000000000000000000000000815260040161024990613878565b60405180910390fd5b60003490506000601260009054906101000a900473ffffffffffffffffffffffffffffffffffffffff1673ffffffffffffffffffffffffffffffffffffffff1663feaf968c6040518163ffffffff1660e01b815260040160a060405180830381865afa1580156102c6573d6000803e3d6000fd5b505050506040513d601f19601f820116820180604052508101906102ea919061395a565b50505091505060008113610333576040517f08c379a000000000000000000000000000000000000000000000000000000000815260040161032a90613a21565b60405180910390fd5b6008601260009054906101000a900473ffffffffffffffffffffffffffffffffffffffff1673ffffffffffffffffffffffffffffffffffffffff1663313ce5676040518163ffffffff1660e01b8152600401602060405180830381865afa1580156103a2573d6000803e3d6000fd5b505050506040513d601f19601f820116820180604052508101906103c69190613a7a565b60ff1614610409576040517f08c379a000000000000000000000000000000000000000000000000000000000815260040161040090613af3565b60405180910390fd5b600081905060006a52b7d2dcc80cd2e400000082856104289190613b42565b6104329190613bb3565b9050601060009054906101000a900473ffffffffffffffffffffffffffffffffffffffff1673ffffffffffffffffffffffffffffffffffffffff166340c10f1933836040518363ffffffff1660e01b8152600401610491929190613c34565b600060405180830381600087803b1580156104ab57600080fd5b505af11580156104bf573d6000803e3d6000fd5b505050503373ffffffffffffffffffffffffffffffffffffffff167f619caafabdd75649b302ba8419e48cccf64f37f1983ac4727cfb38b57703ffc9826040516105099190613c5d565b60405180910390a25050505061051d610bba565b005b600080fd5b34801561053057600080fd5b5061054b60048036038101906105469190613cd0565b610bc4565b6040516105589190613d18565b60405180910390f35b34801561056d57600080fd5b50610576610bd6565b6040516105839190613db2565b60405180910390f35b34801561059857600080fd5b506105b360048036038101906105ae9190613de9565b610c68565b6040516105c09190613e16565b60405180910390f35b3480156105d557600080fd5b506105f060048036038101906105eb9190613e5d565b610cae565b005b3480156105fe57600080fd5b50610607610dc5565b6040516106149190613c5d565b60405180910390f35b34801561062957600080fd5b50610644600480360381019061063f9190613f02565b610dd2565b005b34801561065257600080fd5b5061066d60048036038101906106689190613f4f565b611207565b005b34801561067b57600080fd5b5061069660048036038101906106919190613e5d565b611267565b6040516106a39190613c5d565b60405180910390f35b3480156106b857600080fd5b506106c161130c565b005b3480156106cf57600080fd5b506106ea60048036038101906106e59190613f4f565b61131e565b005b3480156106f857600080fd5b50610713600480360381019061070e91906140d2565b61133e565b005b34801561072157600080fd5b5061073c60048036038101906107379190613de9565b6115e1565b6040516107499190613d18565b60405180910390f35b34801561075e57600080fd5b5061077960048036038101906107749190613de9565b6115f3565b6040516107869190613c5d565b60405180910390f35b34801561079b57600080fd5b506107a4611664565b6040516107b19190613c5d565b60405180910390f35b3480156107c657600080fd5b506107cf610ba3565b6040516107dc9190613d18565b60405180910390f35b3480156107f157600080fd5b5061080c60048036038101906108079190613de9565b611675565b6040516108199190613e16565b60405180910390f35b34801561082e57600080fd5b5061084960048036038101906108449190613de9565b6116fb565b6040516108569190613d18565b60405180910390f35b34801561086b57600080fd5b5061088660048036038101906108819190614155565b61171b565b6040516108939190613c5d565b60405180910390f35b3480156108a857600080fd5b506108b16117d2565b005b3480156108bf57600080fd5b506108c86117e6565b6040516108d59190613e16565b60405180910390f35b3480156108ea57600080fd5b506108f3611810565b005b34801561090157600080fd5b5061090a611822565b60405161091791906141e1565b60405180910390f35b34801561092c57600080fd5b50610935611848565b6040516109429190613e16565b60405180910390f35b34801561095757600080fd5b50610960611872565b60405161096d9190613db2565b60405180910390f35b34801561098257600080fd5b5061098b611904565b6040516109989190613e16565b60405180910390f35b3480156109ad57600080fd5b506109c860048036038101906109c39190614228565b61192e565b005b3480156109d657600080fd5b506109f160048036038101906109ec9190614268565b611944565b005b3480156109ff57600080fd5b50610a1a6004803603810190610a159190613de9565b6119a6565b604051610a279190613db2565b60405180910390f35b348015610a3c57600080fd5b50610a576004803603810190610a5291906142eb565b611a0e565b604051610a649190613d18565b60405180910390f35b348015610a7957600080fd5b50610a946004803603810190610a8f9190613de9565b611aa2565b604051610aa1919061433a565b60405180910390f35b348015610ab657600080fd5b50610ad16004803603810190610acc9190614155565b611ac2565b005b348015610adf57600080fd5b50610ae8611b45565b604051610af59190613c5d565b60405180910390f35b348015610b0a57600080fd5b50610b13611b4a565b604051610b209190614376565b60405180910390f35b348015610b3557600080fd5b50610b3e611b70565b604051610b4b9190613c5d565b60405180910390f35b6002600b5403610b99576040517f08c379a0000000000000000000000000000000000000000000000000000000008152600401610b90906143dd565b60405180910390fd5b6002600b81905550565b6000600c60009054906101000a900460ff16905090565b6001600b81905550565b6000610bcf82611b75565b9050919050565b606060008054610be59061442c565b80601f0160208091040260200160405190810160405280929190818152602001828054610c119061442c565b8015610c5e5780601f10610c3357610100808354040283529160200191610c5e565b820191906000526020600020905b815481529060010190602001808311610c4157829003601f168201915b5050505050905090565b6000610c7382611bef565b6004600083815260200190815260200160002060009054906101000a900473ffffffffffffffffffffffffffffffffffffffff169050919050565b6000610cb982611675565b90508073ffffffffffffffffffffffffffffffffffffffff168373ffffffffffffffffffffffffffffffffffffffff1603610d29576040517f08c379a0000000000000000000000000000000000000000000000000000000008152600401610d20906144cf565b60405180910390fd5b8073ffffffffffffffffffffffffffffffffffffffff16610d48611c3a565b73ffffffffffffffffffffffffffffffffffffffff161480610d775750610d7681610d71611c3a565b611a0e565b5b610db6576040517f08c379a0000000000000000000000000000000000000000000000000000000008152600401610dad90614561565b60405180910390fd5b610dc08383611c42565b505050565b6000600880549050905090565b610dda610b54565b610de2611cfb565b601160009054906101000a900473ffffffffffffffffffffffffffffffffffffffff1673ffffffffffffffffffffffffffffffffffffffff166302556a29336040518263ffffffff1660e01b8152600401610e3d9190613e16565b602060405180830381865afa158015610e5a573d6000803e3d6000fd5b505050506040513d601f19601f82011682018060405250810190610e7e9190614596565b610ebd576040517f08c379a0000000000000000000000000000000000000000000000000000000008152600401610eb490614635565b60405180910390fd5b600082829050905060008111610f08576040517f08c379a0000000000000000000000000000000000000000000000000000000008152600401610eff906146a1565b60405180910390fd5b6000610f12610dc5565b905060008111610f57576040517f08c379a0000000000000000000000000000000000000000000000000000000008152600401610f4e9061470d565b60405180910390fd5b600047905060008111610f9f576040517f08c379a0000000000000000000000000000000000000000000000000000000008152600401610f9690614779565b60405180910390fd5b60005b838110156110de576000868683818110610fbf57610fbe614799565b5b9050602002013590503373ffffffffffffffffffffffffffffffffffffffff16610fe882611675565b73ffffffffffffffffffffffffffffffffffffffff161461103e576040517f08c379a00000000000000000000000000000000000000000000000000000000081526004016110359061483a565b60405180910390fd5b6002600f600083815260200190815260200160002060009054906101000a900460ff1660ff16146110a4576040517f08c379a000000000000000000000000000000000000000000000000000000000815260040161109b906148cc565b60405180910390fd5b6110ad81611d45565b600f600082815260200190815260200160002060006101000a81549060ff0219169055508080600101915050610fa2565b5060008284836110ee9190613b42565b6110f89190613bb3565b905060003373ffffffffffffffffffffffffffffffffffffffff16826040516111209061491d565b60006040518083038185875af1925050503d806000811461115d576040519150601f19603f3d011682016040523d82523d6000602084013e611162565b606091505b50509050806111a6576040517f08c379a000000000000000000000000000000000000000000000000000000000815260040161119d9061497e565b60405180910390fd5b3373ffffffffffffffffffffffffffffffffffffffff167f62c43c4ca6239525d02ec5d50013da458e2aabd6147394ddd139edae8d84439b86846040516111ee92919061499e565b60405180910390a25050505050611203610bba565b5050565b611218611212611c3a565b82611e93565b611257576040517f08c379a000000000000000000000000000000000000000000000000000000000815260040161124e90614a39565b60405180910390fd5b611262838383611f28565b505050565b60006112728361171b565b82106112b3576040517f08c379a00000000000000000000000000000000000000000000000000000000081526004016112aa90614acb565b60405180910390fd5b600660008473ffffffffffffffffffffffffffffffffffffffff1673ffffffffffffffffffffffffffffffffffffffff168152602001908152602001600020600083815260200190815260200160002054905092915050565b611314612221565b61131c61229f565b565b61133983838360405180602001604052806000815250611944565b505050565b611346611cfb565b6000841180156113575750600a8411155b611396576040517f08c379a000000000000000000000000000000000000000000000000000000000815260040161138d90614b5d565b60405180910390fd5b814211156113d9576040517f08c379a00000000000000000000000000000000000000000000000000000000081526004016113d090614bc9565b60405180910390fd5b600e600084815260200190815260200160002060009054906101000a900460ff161561143a576040517f08c379a000000000000000000000000000000000000000000000000000000000815260040161143190614c35565b60405180910390fd5b6001600e600085815260200190815260200160002060006101000a81548160ff02191690831515021790555060003385858560405160200161147f9493929190614c55565b60405160208183030381529060405280519060200120905060006114ab6114a583612302565b84612338565b90506114b5611848565b73ffffffffffffffffffffffffffffffffffffffff168173ffffffffffffffffffffffffffffffffffffffff1614611522576040517f08c379a000000000000000000000000000000000000000000000000000000000815260040161151990614ce6565b60405180910390fd5b60005b8681101561158a57611537600d61235f565b6000611543600d612375565b905061154f3382612383565b6001600f600083815260200190815260200160002060006101000a81548160ff021916908360ff160217905550508080600101915050611525565b503373ffffffffffffffffffffffffffffffffffffffff167f0f6798a560793a54c3bcfe86a93cde1e73087d944c0ea20544137d4121396885876040516115d19190613c5d565b60405180910390a2505050505050565b60006115ec826123a1565b9050919050565b60006115fd610dc5565b821061163e576040517f08c379a000000000000000000000000000000000000000000000000000000000815260040161163590614d78565b60405180910390fd5b6008828154811061165257611651614799565b5b90600052602060002001549050919050565b6000611670600d612375565b905090565b600080611681836123e2565b9050600073ffffffffffffffffffffffffffffffffffffffff168173ffffffffffffffffffffffffffffffffffffffff16036116f2576040517f08c379a00000000000000000000000000000000000000000000000000000000081526004016116e990614de4565b60405180910390fd5b80915050919050565b600e6020528060005260406000206000915054906101000a900460ff1681565b60008073ffffffffffffffffffffffffffffffffffffffff168273ffffffffffffffffffffffffffffffffffffffff160361178b576040517f08c379a000000000000000000000000000000000000000000000000000000000815260040161178290614e76565b60405180910390fd5b600360008373ffffffffffffffffffffffffffffffffffffffff1673ffffffffffffffffffffffffffffffffffffffff168152602001908152602001600020549050919050565b6117da612221565b6117e4600061241f565b565b6000601160009054906101000a900473ffffffffffffffffffffffffffffffffffffffff16905090565b611818612221565b6118206124e5565b565b601160009054906101000a900473ffffffffffffffffffffffffffffffffffffffff1681565b6000600a60009054906101000a900473ffffffffffffffffffffffffffffffffffffffff16905090565b6060600180546118819061442c565b80601f01602080910402602001604051908101604052809291908181526020018280546118ad9061442c565b80156118fa5780601f106118cf576101008083540402835291602001916118fa565b820191906000526020600020905b8154815290600101906020018083116118dd57829003601f168201915b5050505050905090565b6000601060009054906101000a900473ffffffffffffffffffffffffffffffffffffffff16905090565b611940611939611c3a565b8383612548565b5050565b61195561194f611c3a565b83611e93565b611994576040517f08c379a000000000000000000000000000000000000000000000000000000000815260040161198b90614a39565b60405180910390fd5b6119a0848484846126b4565b50505050565b60606119b182611bef565b60006119bb612710565b905060008151116119db5760405180602001604052806000815250611a06565b806119e584612727565b6040516020016119f6929190614ed2565b6040516020818303038152906040525b915050919050565b6000600560008473ffffffffffffffffffffffffffffffffffffffff1673ffffffffffffffffffffffffffffffffffffffff16815260200190815260200160002060008373ffffffffffffffffffffffffffffffffffffffff1673ffffffffffffffffffffffffffffffffffffffff16815260200190815260200160002060009054906101000a900460ff16905092915050565b600f6020528060005260406000206000915054906101000a900460ff1681565b611aca612221565b600073ffffffffffffffffffffffffffffffffffffffff168173ffffffffffffffffffffffffffffffffffffffff1603611b39576040517f08c379a0000000000000000000000000000000000000000000000000000000008152600401611b3090614f68565b60405180910390fd5b611b428161241f565b50565b600381565b601060009054906101000a900473ffffffffffffffffffffffffffffffffffffffff1681565b600a81565b60007f780e9d63000000000000000000000000000000000000000000000000000000007bffffffffffffffffffffffffffffffffffffffffffffffffffffffff1916827bffffffffffffffffffffffffffffffffffffffffffffffffffffffff19161480611be85750611be7826127f5565b5b9050919050565b611bf8816123a1565b611c37576040517f08c379a0000000000000000000000000000000000000000000000000000000008152600401611c2e90614de4565b60405180910390fd5b50565b600033905090565b816004600083815260200190815260200160002060006101000a81548173ffffffffffffffffffffffffffffffffffffffff021916908373ffffffffffffffffffffffffffffffffffffffff160217905550808273ffffffffffffffffffffffffffffffffffffffff16611cb583611675565b73ffffffffffffffffffffffffffffffffffffffff167f8c5be1e5ebec7d5bd14f71427d1e84f3dd0314c0f7b2291e5b200ac8c7c3b92560405160405180910390a45050565b611d03610ba3565b15611d43576040517f08c379a0000000000000000000000000000000000000000000000000000000008152600401611d3a90613878565b60405180910390fd5b565b6000611d5082611675565b9050611d608160008460016128d7565b611d6982611675565b90506004600083815260200190815260200160002060006101000a81549073ffffffffffffffffffffffffffffffffffffffff02191690556001600360008373ffffffffffffffffffffffffffffffffffffffff1673ffffffffffffffffffffffffffffffffffffffff168152602001908152602001600020600082825403925050819055506002600083815260200190815260200160002060006101000a81549073ffffffffffffffffffffffffffffffffffffffff021916905581600073ffffffffffffffffffffffffffffffffffffffff168273ffffffffffffffffffffffffffffffffffffffff167fddf252ad1be2c89b69c2b068fc378daa952ba7f163c4a11628f55a4df523b3ef60405160405180910390a4611e8f816000846001612aea565b5050565b600080611e9f83611675565b90508073ffffffffffffffffffffffffffffffffffffffff168473ffffffffffffffffffffffffffffffffffffffff161480611ee15750611ee08185611a0e565b5b80611f1f57508373ffffffffffffffffffffffffffffffffffffffff16611f0784610c68565b73ffffffffffffffffffffffffffffffffffffffff16145b91505092915050565b8273ffffffffffffffffffffffffffffffffffffffff16611f4882611675565b73ffffffffffffffffffffffffffffffffffffffff1614611f9e576040517f08c379a0000000000000000000000000000000000000000000000000000000008152600401611f9590614ffa565b60405180910390fd5b600073ffffffffffffffffffffffffffffffffffffffff168273ffffffffffffffffffffffffffffffffffffffff160361200d576040517f08c379a00000000000000000000000000000000000000000000000000000000081526004016120049061508c565b60405180910390fd5b61201a83838360016128d7565b8273ffffffffffffffffffffffffffffffffffffffff1661203a82611675565b73ffffffffffffffffffffffffffffffffffffffff1614612090576040517f08c379a000000000000000000000000000000000000000000000000000000000815260040161208790614ffa565b60405180910390fd5b6004600082815260200190815260200160002060006101000a81549073ffffffffffffffffffffffffffffffffffffffff02191690556001600360008573ffffffffffffffffffffffffffffffffffffffff1673ffffffffffffffffffffffffffffffffffffffff168152602001908152602001600020600082825403925050819055506001600360008473ffffffffffffffffffffffffffffffffffffffff1673ffffffffffffffffffffffffffffffffffffffff16815260200190815260200160002060008282540192505081905550816002600083815260200190815260200160002060006101000a81548173ffffffffffffffffffffffffffffffffffffffff021916908373ffffffffffffffffffffffffffffffffffffffff160217905550808273ffffffffffffffffffffffffffffffffffffffff168473ffffffffffffffffffffffffffffffffffffffff167fddf252ad1be2c89b69c2b068fc378daa952ba7f163c4a11628f55a4df523b3ef60405160405180910390a461221c8383836001612aea565b505050565b612229611c3a565b73ffffffffffffffffffffffffffffffffffffffff16612247611848565b73ffffffffffffffffffffffffffffffffffffffff161461229d576040517f08c379a0000000000000000000000000000000000000000000000000000000008152600401612294906150f8565b60405180910390fd5b565b6122a7612af0565b6000600c60006101000a81548160ff0219169083151502179055507f5db9ee0a495bf2e6ff9c91a7834c1ba4fdd244a5e8aa4e537bd38aeae4b073aa6122eb611c3a565b6040516122f89190613e16565b60405180910390a1565b60007f19457468657265756d205369676e6564204d6573736167653a0a33320000000060005281601c52603c6000209050919050565b60008060006123478585612b39565b9150915061235481612b8a565b819250505092915050565b6001816000016000828254019250508190555050565b600081600001549050919050565b61239d828260405180602001604052806000815250612cf0565b5050565b60008073ffffffffffffffffffffffffffffffffffffffff166123c3836123e2565b73ffffffffffffffffffffffffffffffffffffffff1614159050919050565b60006002600083815260200190815260200160002060009054906101000a900473ffffffffffffffffffffffffffffffffffffffff169050919050565b6000600a60009054906101000a900473ffffffffffffffffffffffffffffffffffffffff16905081600a60006101000a81548173ffffffffffffffffffffffffffffffffffffffff021916908373ffffffffffffffffffffffffffffffffffffffff1602179055508173ffffffffffffffffffffffffffffffffffffffff168173ffffffffffffffffffffffffffffffffffffffff167f8be0079c531659141344cd1fd0a4f28419497f9722a3daafe3b4186f6b6457e060405160405180910390a35050565b6124ed611cfb565b6001600c60006101000a81548160ff0219169083151502179055507f62e78cea01bee320cd4e420270b5ea74000d11b0c9f74754ebdbfc544b05a258612531611c3a565b60405161253e9190613e16565b60405180910390a1565b8173ffffffffffffffffffffffffffffffffffffffff168373ffffffffffffffffffffffffffffffffffffffff16036125b6576040517f08c379a00000000000000000000000000000000000000000000000000000000081526004016125ad90615164565b60405180910390fd5b80600560008573ffffffffffffffffffffffffffffffffffffffff1673ffffffffffffffffffffffffffffffffffffffff16815260200190815260200160002060008473ffffffffffffffffffffffffffffffffffffffff1673ffffffffffffffffffffffffffffffffffffffff16815260200190815260200160002060006101000a81548160ff0219169083151502179055508173ffffffffffffffffffffffffffffffffffffffff168373ffffffffffffffffffffffffffffffffffffffff167f17307eab39ab6107e8899845ad3d59bd9653f200f220920489ca2b5937696c31836040516126a79190613d18565b60405180910390a3505050565b6126bf848484611f28565b6126cb84848484612d4b565b61270a576040517f08c379a0000000000000000000000000000000000000000000000000000000008152600401612701906151f6565b60405180910390fd5b50505050565b606060405180602001604052806000815250905090565b60606000600161273684612ed2565b01905060008167ffffffffffffffff81111561275557612754613fa7565b5b6040519080825280601f01601f1916602001820160405280156127875781602001600182028036833780820191505090505b509050600082602001820190505b6001156127ea578080600190039150507f3031323334353637383961626364656600000000000000000000000000000000600a86061a8153600a85816127de576127dd613b84565b5b04945060008503612795575b819350505050919050565b60007f80ac58cd000000000000000000000000000000000000000000000000000000007bffffffffffffffffffffffffffffffffffffffffffffffffffffffff1916827bffffffffffffffffffffffffffffffffffffffffffffffffffffffff191614806128c057507f5b5e139f000000000000000000000000000000000000000000000000000000007bffffffffffffffffffffffffffffffffffffffffffffffffffffffff1916827bffffffffffffffffffffffffffffffffffffffffffffffffffffffff1916145b806128d057506128cf82613025565b5b9050919050565b6128df611cfb565b6128eb8484848461308f565b600073ffffffffffffffffffffffffffffffffffffffff168473ffffffffffffffffffffffffffffffffffffffff16141580156129555750600073ffffffffffffffffffffffffffffffffffffffff168373ffffffffffffffffffffffffffffffffffffffff1614155b15612ae4576001600f600084815260200190815260200160002060009054906101000a900460ff1660ff16146129c0576040517f08c379a00000000000000000000000000000000000000000000000000000000081526004016129b790615262565b60405180910390fd5b601160009054906101000a900473ffffffffffffffffffffffffffffffffffffffff1673ffffffffffffffffffffffffffffffffffffffff166302556a29846040518263ffffffff1660e01b8152600401612a1b9190613e16565b602060405180830381865afa158015612a38573d6000803e3d6000fd5b505050506040513d601f19601f82011682018060405250810190612a5c9190614596565b612a9b576040517f08c379a0000000000000000000000000000000000000000000000000000000008152600401612a92906152f4565b60405180910390fd5b6001600f600084815260200190815260200160002060008282829054906101000a900460ff16612acb9190615314565b92506101000a81548160ff021916908360ff1602179055505b50505050565b50505050565b612af8610ba3565b612b37576040517f08c379a0000000000000000000000000000000000000000000000000000000008152600401612b2e90615395565b60405180910390fd5b565b6000806041835103612b7a5760008060006020860151925060408601519150606086015160001a9050612b6e878285856131ed565b94509450505050612b83565b60006002915091505b9250929050565b60006004811115612b9e57612b9d6153b5565b5b816004811115612bb157612bb06153b5565b5b0315612ced5760016004811115612bcb57612bca6153b5565b5b816004811115612bde57612bdd6153b5565b5b03612c1e576040517f08c379a0000000000000000000000000000000000000000000000000000000008152600401612c1590615430565b60405180910390fd5b60026004811115612c3257612c316153b5565b5b816004811115612c4557612c446153b5565b5b03612c85576040517f08c379a0000000000000000000000000000000000000000000000000000000008152600401612c7c9061549c565b60405180910390fd5b60036004811115612c9957612c986153b5565b5b816004811115612cac57612cab6153b5565b5b03612cec576040517f08c379a0000000000000000000000000000000000000000000000000000000008152600401612ce39061552e565b60405180910390fd5b5b50565b612cfa83836132cf565b612d076000848484612d4b565b612d46576040517f08c379a0000000000000000000000000000000000000000000000000000000008152600401612d3d906151f6565b60405180910390fd5b505050565b6000612d6c8473ffffffffffffffffffffffffffffffffffffffff166134ec565b15612ec5578373ffffffffffffffffffffffffffffffffffffffff1663150b7a02612d95611c3a565b8786866040518563ffffffff1660e01b8152600401612db794939291906155a3565b6020604051808303816000875af1925050508015612df357506040513d601f19601f82011682018060405250810190612df09190615604565b60015b612e75573d8060008114612e23576040519150601f19603f3d011682016040523d82523d6000602084013e612e28565b606091505b506000815103612e6d576040517f08c379a0000000000000000000000000000000000000000000000000000000008152600401612e64906151f6565b60405180910390fd5b805181602001fd5b63150b7a0260e01b7bffffffffffffffffffffffffffffffffffffffffffffffffffffffff1916817bffffffffffffffffffffffffffffffffffffffffffffffffffffffff191614915050612eca565b600190505b949350505050565b600080600090507a184f03e93ff9f4daa797ed6e38ed64bf6a1f0100000000000000008310612f30577a184f03e93ff9f4daa797ed6e38ed64bf6a1f0100000000000000008381612f2657612f25613b84565b5b0492506040810190505b6d04ee2d6d415b85acef81000000008310612f6d576d04ee2d6d415b85acef81000000008381612f6357612f62613b84565b5b0492506020810190505b662386f26fc100008310612f9c57662386f26fc100008381612f9257612f91613b84565b5b0492506010810190505b6305f5e1008310612fc5576305f5e1008381612fbb57612fba613b84565b5b0492506008810190505b6127108310612fea576127108381612fe057612fdf613b84565b5b0492506004810190505b6064831061300d576064838161300357613002613b84565b5b0492506002810190505b600a831061301c576001810190505b80915050919050565b60007f01ffc9a7000000000000000000000000000000000000000000000000000000007bffffffffffffffffffffffffffffffffffffffffffffffffffffffff1916827bffffffffffffffffffffffffffffffffffffffffffffffffffffffff1916149050919050565b61309b8484848461350f565b60018111156130df576040517f08c379a00000000000000000000000000000000000000000000000000000000081526004016130d6906156a3565b60405180910390fd5b6000829050600073ffffffffffffffffffffffffffffffffffffffff168573ffffffffffffffffffffffffffffffffffffffff16036131265761312181613515565b613165565b8373ffffffffffffffffffffffffffffffffffffffff168573ffffffffffffffffffffffffffffffffffffffff161461316457613163858261355e565b5b5b600073ffffffffffffffffffffffffffffffffffffffff168473ffffffffffffffffffffffffffffffffffffffff16036131a7576131a2816136cb565b6131e6565b8473ffffffffffffffffffffffffffffffffffffffff168473ffffffffffffffffffffffffffffffffffffffff16146131e5576131e4848261379c565b5b5b5050505050565b6000807f7fffffffffffffffffffffffffffffff5d576e7357a4501ddfe92f46681b20a08360001c11156132285760006003915091506132c6565b60006001878787876040516000815260200160405260405161324d94939291906156dc565b6020604051602081039080840390855afa15801561326f573d6000803e3d6000fd5b505050602060405103519050600073ffffffffffffffffffffffffffffffffffffffff168173ffffffffffffffffffffffffffffffffffffffff16036132bd576000600192509250506132c6565b80600092509250505b94509492505050565b600073ffffffffffffffffffffffffffffffffffffffff168273ffffffffffffffffffffffffffffffffffffffff160361333e576040517f08c379a00000000000000000000000000000000000000000000000000000000081526004016133359061576d565b60405180910390fd5b613347816123a1565b15613387576040517f08c379a000000000000000000000000000000000000000000000000000000000815260040161337e906157d9565b60405180910390fd5b6133956000838360016128d7565b61339e816123a1565b156133de576040517f08c379a00000000000000000000000000000000000000000000000000000000081526004016133d5906157d9565b60405180910390fd5b6001600360008473ffffffffffffffffffffffffffffffffffffffff1673ffffffffffffffffffffffffffffffffffffffff16815260200190815260200160002060008282540192505081905550816002600083815260200190815260200160002060006101000a81548173ffffffffffffffffffffffffffffffffffffffff021916908373ffffffffffffffffffffffffffffffffffffffff160217905550808273ffffffffffffffffffffffffffffffffffffffff16600073ffffffffffffffffffffffffffffffffffffffff167fddf252ad1be2c89b69c2b068fc378daa952ba7f163c4a11628f55a4df523b3ef60405160405180910390a46134e8600083836001612aea565b5050565b6000808273ffffffffffffffffffffffffffffffffffffffff163b119050919050565b50505050565b6008805490506009600083815260200190815260200160002081905550600881908060018154018082558091505060019003906000526020600020016000909190919091505550565b6000600161356b8461171b565b61357591906157f9565b905060006007600084815260200190815260200160002054905081811461365a576000600660008673ffffffffffffffffffffffffffffffffffffffff1673ffffffffffffffffffffffffffffffffffffffff168152602001908152602001600020600084815260200190815260200160002054905080600660008773ffffffffffffffffffffffffffffffffffffffff1673ffffffffffffffffffffffffffffffffffffffff168152602001908152602001600020600084815260200190815260200160002081905550816007600083815260200190815260200160002081905550505b6007600084815260200190815260200160002060009055600660008573ffffffffffffffffffffffffffffffffffffffff1673ffffffffffffffffffffffffffffffffffffffff16815260200190815260200160002060008381526020019081526020016000206000905550505050565b600060016008805490506136df91906157f9565b905060006009600084815260200190815260200160002054905060006008838154811061370f5761370e614799565b5b90600052602060002001549050806008838154811061373157613730614799565b5b9060005260206000200181905550816009600083815260200190815260200160002081905550600960008581526020019081526020016000206000905560088054806137805761377f61582d565b5b6001900381819060005260206000200160009055905550505050565b60006137a78361171b565b905081600660008573ffffffffffffffffffffffffffffffffffffffff1673ffffffffffffffffffffffffffffffffffffffff168152602001908152602001600020600083815260200190815260200160002081905550806007600084815260200190815260200160002081905550505050565b600082825260208201905092915050565b7f5061757361626c653a2070617573656400000000000000000000000000000000600082015250565b600061386260108361381b565b915061386d8261382c565b602082019050919050565b6000602082019050818103600083015261389181613855565b9050919050565b6000604051905090565b600080fd5b600080fd5b600069ffffffffffffffffffff82169050919050565b6138cb816138ac565b81146138d657600080fd5b50565b6000815190506138e8816138c2565b92915050565b6000819050919050565b613901816138ee565b811461390c57600080fd5b50565b60008151905061391e816138f8565b92915050565b6000819050919050565b61393781613924565b811461394257600080fd5b50565b6000815190506139548161392e565b92915050565b600080600080600060a08688031215613976576139756138a2565b5b6000613984888289016138d9565b95505060206139958882890161390f565b94505060406139a688828901613945565b93505060606139b788828901613945565b92505060806139c8888289016138d9565b9150509295509295909350565b7f496e76616c69642070726963652066726f6d20436861696e6c696e6b00000000600082015250565b6000613a0b601c8361381b565b9150613a16826139d5565b602082019050919050565b60006020820190508181036000830152613a3a816139fe565b9050919050565b600060ff82169050919050565b613a5781613a41565b8114613a6257600080fd5b50565b600081519050613a7481613a4e565b92915050565b600060208284031215613a9057613a8f6138a2565b5b6000613a9e84828501613a65565b91505092915050565b7f556e6578706563746564207072696365206665656420646563696d616c730000600082015250565b6000613add601e8361381b565b9150613ae882613aa7565b602082019050919050565b60006020820190508181036000830152613b0c81613ad0565b9050919050565b7f4e487b7100000000000000000000000000000000000000000000000000000000600052601160045260246000fd5b6000613b4d82613924565b9150613b5883613924565b9250828202613b6681613924565b91508282048414831517613b7d57613b7c613b13565b5b5092915050565b7f4e487b7100000000000000000000000000000000000000000000000000000000600052601260045260246000fd5b6000613bbe82613924565b9150613bc983613924565b925082613bd957613bd8613b84565b5b828204905092915050565b600073ffffffffffffffffffffffffffffffffffffffff82169050919050565b6000613c0f82613be4565b9050919050565b613c1f81613c04565b82525050565b613c2e81613924565b82525050565b6000604082019050613c496000830185613c16565b613c566020830184613c25565b9392505050565b6000602082019050613c726000830184613c25565b92915050565b60007fffffffff0000000000000000000000000000000000000000000000000000000082169050919050565b613cad81613c78565b8114613cb857600080fd5b50565b600081359050613cca81613ca4565b92915050565b600060208284031215613ce657613ce56138a2565b5b6000613cf484828501613cbb565b91505092915050565b60008115159050919050565b613d1281613cfd565b82525050565b6000602082019050613d2d6000830184613d09565b92915050565b600081519050919050565b60005b83811015613d5c578082015181840152602081019050613d41565b60008484015250505050565b6000601f19601f8301169050919050565b6000613d8482613d33565b613d8e818561381b565b9350613d9e818560208601613d3e565b613da781613d68565b840191505092915050565b60006020820190508181036000830152613dcc8184613d79565b905092915050565b600081359050613de38161392e565b92915050565b600060208284031215613dff57613dfe6138a2565b5b6000613e0d84828501613dd4565b91505092915050565b6000602082019050613e2b6000830184613c16565b92915050565b613e3a81613c04565b8114613e4557600080fd5b50565b600081359050613e5781613e31565b92915050565b60008060408385031215613e7457613e736138a2565b5b6000613e8285828601613e48565b9250506020613e9385828601613dd4565b9150509250929050565b600080fd5b600080fd5b600080fd5b60008083601f840112613ec257613ec1613e9d565b5b8235905067ffffffffffffffff811115613edf57613ede613ea2565b5b602083019150836020820283011115613efb57613efa613ea7565b5b9250929050565b60008060208385031215613f1957613f186138a2565b5b600083013567ffffffffffffffff811115613f3757613f366138a7565b5b613f4385828601613eac565b92509250509250929050565b600080600060608486031215613f6857613f676138a2565b5b6000613f7686828701613e48565b9350506020613f8786828701613e48565b9250506040613f9886828701613dd4565b9150509250925092565b600080fd5b7f4e487b7100000000000000000000000000000000000000000000000000000000600052604160045260246000fd5b613fdf82613d68565b810181811067ffffffffffffffff82111715613ffe57613ffd613fa7565b5b80604052505050565b6000614011613898565b905061401d8282613fd6565b919050565b600067ffffffffffffffff82111561403d5761403c613fa7565b5b61404682613d68565b9050602081019050919050565b82818337600083830152505050565b600061407561407084614022565b614007565b90508281526020810184848401111561409157614090613fa2565b5b61409c848285614053565b509392505050565b600082601f8301126140b9576140b8613e9d565b5b81356140c9848260208601614062565b91505092915050565b600080600080608085870312156140ec576140eb6138a2565b5b60006140fa87828801613dd4565b945050602061410b87828801613dd4565b935050604061411c87828801613dd4565b925050606085013567ffffffffffffffff81111561413d5761413c6138a7565b5b614149878288016140a4565b91505092959194509250565b60006020828403121561416b5761416a6138a2565b5b600061417984828501613e48565b91505092915050565b6000819050919050565b60006141a76141a261419d84613be4565b614182565b613be4565b9050919050565b60006141b98261418c565b9050919050565b60006141cb826141ae565b9050919050565b6141db816141c0565b82525050565b60006020820190506141f660008301846141d2565b92915050565b61420581613cfd565b811461421057600080fd5b50565b600081359050614222816141fc565b92915050565b6000806040838503121561423f5761423e6138a2565b5b600061424d85828601613e48565b925050602061425e85828601614213565b9150509250929050565b60008060008060808587031215614282576142816138a2565b5b600061429087828801613e48565b94505060206142a187828801613e48565b93505060406142b287828801613dd4565b925050606085013567ffffffffffffffff8111156142d3576142d26138a7565b5b6142df878288016140a4565b91505092959194509250565b60008060408385031215614302576143016138a2565b5b600061431085828601613e48565b925050602061432185828601613e48565b9150509250929050565b61433481613a41565b82525050565b600060208201905061434f600083018461432b565b92915050565b6000614360826141ae565b9050919050565b61437081614355565b82525050565b600060208201905061438b6000830184614367565b92915050565b7f5265656e7472616e637947756172643a207265656e7472616e742063616c6c00600082015250565b60006143c7601f8361381b565b91506143d282614391565b602082019050919050565b600060208201905081810360008301526143f6816143ba565b9050919050565b7f4e487b7100000000000000000000000000000000000000000000000000000000600052602260045260246000fd5b6000600282049050600182168061444457607f821691505b602082108103614457576144566143fd565b5b50919050565b7f4552433732313a20617070726f76616c20746f2063757272656e74206f776e6560008201527f7200000000000000000000000000000000000000000000000000000000000000602082015250565b60006144b960218361381b565b91506144c48261445d565b604082019050919050565b600060208201905081810360008301526144e8816144ac565b9050919050565b7f4552433732313a20617070726f76652063616c6c6572206973206e6f7420746f60008201527f6b656e206f776e6572206f7220617070726f76656420666f7220616c6c000000602082015250565b600061454b603d8361381b565b9150614556826144ef565b604082019050919050565b6000602082019050818103600083015261457a8161453e565b9050919050565b600081519050614590816141fc565b92915050565b6000602082840312156145ac576145ab6138a2565b5b60006145ba84828501614581565b91505092915050565b7f4d75737420686f6c6420612076616c6964204d65726368616e7420546f6b656e60008201527f2e00000000000000000000000000000000000000000000000000000000000000602082015250565b600061461f60218361381b565b915061462a826145c3565b604082019050919050565b6000602082019050818103600083015261464e81614612565b9050919050565b7f4e6f20746f6b656e732070726f76696465642e00000000000000000000000000600082015250565b600061468b60138361381b565b915061469682614655565b602082019050919050565b600060208201905081810360008301526146ba8161467e565b9050919050565b7f4e6f20746f6b656e7320696e2063697263756c6174696f6e2e00000000000000600082015250565b60006146f760198361381b565b9150614702826146c1565b602082019050919050565b60006020820190508181036000830152614726816146ea565b9050919050565b7f4e6f7420656e6f7567682045544820696e20636f6e74726163742e0000000000600082015250565b6000614763601b8361381b565b915061476e8261472d565b602082019050919050565b6000602082019050818103600083015261479281614756565b9050919050565b7f4e487b7100000000000000000000000000000000000000000000000000000000600052603260045260246000fd5b7f43616c6c6572206d757374206f776e20616c6c20746f6b656e73206265696e6760008201527f2072656465656d65642e00000000000000000000000000000000000000000000602082015250565b6000614824602a8361381b565b915061482f826147c8565b604082019050919050565b6000602082019050818103600083015261485381614817565b9050919050565b7f546f6b656e206973206e6f7420696e20612076616c696420737461746520746f60008201527f206275726e2e0000000000000000000000000000000000000000000000000000602082015250565b60006148b660268361381b565b91506148c18261485a565b604082019050919050565b600060208201905081810360008301526148e5816148a9565b9050919050565b600081905092915050565b50565b60006149076000836148ec565b9150614912826148f7565b600082019050919050565b6000614928826148fa565b9150819050919050565b7f5472616e73666572206661696c65640000000000000000000000000000000000600082015250565b6000614968600f8361381b565b915061497382614932565b602082019050919050565b600060208201905081810360008301526149978161495b565b9050919050565b60006040820190506149b36000830185613c25565b6149c06020830184613c25565b9392505050565b7f4552433732313a2063616c6c6572206973206e6f7420746f6b656e206f776e6560008201527f72206f7220617070726f76656400000000000000000000000000000000000000602082015250565b6000614a23602d8361381b565b9150614a2e826149c7565b604082019050919050565b60006020820190508181036000830152614a5281614a16565b9050919050565b7f455243373231456e756d657261626c653a206f776e657220696e646578206f7560008201527f74206f6620626f756e6473000000000000000000000000000000000000000000602082015250565b6000614ab5602b8361381b565b9150614ac082614a59565b604082019050919050565b60006020820190508181036000830152614ae481614aa8565b9050919050565b7f416d6f756e74206d7573742062652067726561746572207468616e207a65726f60008201527f20616e64206c657373207468616e203130000000000000000000000000000000602082015250565b6000614b4760318361381b565b9150614b5282614aeb565b604082019050919050565b60006020820190508181036000830152614b7681614b3a565b9050919050565b7f5369676e61747572652068617320657870697265640000000000000000000000600082015250565b6000614bb360158361381b565b9150614bbe82614b7d565b602082019050919050565b60006020820190508181036000830152614be281614ba6565b9050919050565b7f4e6f6e636520616c726561647920757365640000000000000000000000000000600082015250565b6000614c1f60128361381b565b9150614c2a82614be9565b602082019050919050565b60006020820190508181036000830152614c4e81614c12565b9050919050565b6000608082019050614c6a6000830187613c16565b614c776020830186613c25565b614c846040830185613c25565b614c916060830184613c25565b95945050505050565b7f496e76616c6964207369676e6174757265000000000000000000000000000000600082015250565b6000614cd060118361381b565b9150614cdb82614c9a565b602082019050919050565b60006020820190508181036000830152614cff81614cc3565b9050919050565b7f455243373231456e756d657261626c653a20676c6f62616c20696e646578206f60008201527f7574206f6620626f756e64730000000000000000000000000000000000000000602082015250565b6000614d62602c8361381b565b9150614d6d82614d06565b604082019050919050565b60006020820190508181036000830152614d9181614d55565b9050919050565b7f4552433732313a20696e76616c696420746f6b656e2049440000000000000000600082015250565b6000614dce60188361381b565b9150614dd982614d98565b602082019050919050565b60006020820190508181036000830152614dfd81614dc1565b9050919050565b7f4552433732313a2061646472657373207a65726f206973206e6f74206120766160008201527f6c6964206f776e65720000000000000000000000000000000000000000000000602082015250565b6000614e6060298361381b565b9150614e6b82614e04565b604082019050919050565b60006020820190508181036000830152614e8f81614e53565b9050919050565b600081905092915050565b6000614eac82613d33565b614eb68185614e96565b9350614ec6818560208601613d3e565b80840191505092915050565b6000614ede8285614ea1565b9150614eea8284614ea1565b91508190509392505050565b7f4f776e61626c653a206e6577206f776e657220697320746865207a65726f206160008201527f6464726573730000000000000000000000000000000000000000000000000000602082015250565b6000614f5260268361381b565b9150614f5d82614ef6565b604082019050919050565b60006020820190508181036000830152614f8181614f45565b9050919050565b7f4552433732313a207472616e736665722066726f6d20696e636f72726563742060008201527f6f776e6572000000000000000000000000000000000000000000000000000000602082015250565b6000614fe460258361381b565b9150614fef82614f88565b604082019050919050565b6000602082019050818103600083015261501381614fd7565b9050919050565b7f4552433732313a207472616e7366657220746f20746865207a65726f2061646460008201527f7265737300000000000000000000000000000000000000000000000000000000602082015250565b600061507660248361381b565b91506150818261501a565b604082019050919050565b600060208201905081810360008301526150a581615069565b9050919050565b7f4f776e61626c653a2063616c6c6572206973206e6f7420746865206f776e6572600082015250565b60006150e260208361381b565b91506150ed826150ac565b602082019050919050565b60006020820190508181036000830152615111816150d5565b9050919050565b7f4552433732313a20617070726f766520746f2063616c6c657200000000000000600082015250565b600061514e60198361381b565b915061515982615118565b602082019050919050565b6000602082019050818103600083015261517d81615141565b9050919050565b7f4552433732313a207472616e7366657220746f206e6f6e20455243373231526560008201527f63656976657220696d706c656d656e7465720000000000000000000000000000602082015250565b60006151e060328361381b565b91506151eb82615184565b604082019050919050565b6000602082019050818103600083015261520f816151d3565b9050919050565b7f496e76616c6964207472616e7366657200000000000000000000000000000000600082015250565b600061524c60108361381b565b915061525782615216565b602082019050919050565b6000602082019050818103600083015261527b8161523f565b9050919050565b7f526563697069656e74206d75737420626520612076616c6964206d657263686160008201527f6e74000000000000000000000000000000000000000000000000000000000000602082015250565b60006152de60228361381b565b91506152e982615282565b604082019050919050565b6000602082019050818103600083015261530d816152d1565b9050919050565b600061531f82613a41565b915061532a83613a41565b9250828201905060ff81111561534357615342613b13565b5b92915050565b7f5061757361626c653a206e6f7420706175736564000000000000000000000000600082015250565b600061537f60148361381b565b915061538a82615349565b602082019050919050565b600060208201905081810360008301526153ae81615372565b9050919050565b7f4e487b7100000000000000000000000000000000000000000000000000000000600052602160045260246000fd5b7f45434453413a20696e76616c6964207369676e61747572650000000000000000600082015250565b600061541a60188361381b565b9150615425826153e4565b602082019050919050565b600060208201905081810360008301526154498161540d565b9050919050565b7f45434453413a20696e76616c6964207369676e6174757265206c656e67746800600082015250565b6000615486601f8361381b565b915061549182615450565b602082019050919050565b600060208201905081810360008301526154b581615479565b9050919050565b7f45434453413a20696e76616c6964207369676e6174757265202773272076616c60008201527f7565000000000000000000000000000000000000000000000000000000000000602082015250565b600061551860228361381b565b9150615523826154bc565b604082019050919050565b600060208201905081810360008301526155478161550b565b9050919050565b600081519050919050565b600082825260208201905092915050565b60006155758261554e565b61557f8185615559565b935061558f818560208601613d3e565b61559881613d68565b840191505092915050565b60006080820190506155b86000830187613c16565b6155c56020830186613c16565b6155d26040830185613c25565b81810360608301526155e4818461556a565b905095945050505050565b6000815190506155fe81613ca4565b92915050565b60006020828403121561561a576156196138a2565b5b6000615628848285016155ef565b91505092915050565b7f455243373231456e756d657261626c653a20636f6e736563757469766520747260008201527f616e7366657273206e6f7420737570706f727465640000000000000000000000602082015250565b600061568d60358361381b565b915061569882615631565b604082019050919050565b600060208201905081810360008301526156bc81615680565b9050919050565b6000819050919050565b6156d6816156c3565b82525050565b60006080820190506156f160008301876156cd565b6156fe602083018661432b565b61570b60408301856156cd565b61571860608301846156cd565b95945050505050565b7f4552433732313a206d696e7420746f20746865207a65726f2061646472657373600082015250565b600061575760208361381b565b915061576282615721565b602082019050919050565b600060208201905081810360008301526157868161574a565b9050919050565b7f4552433732313a20746f6b656e20616c7265616479206d696e74656400000000600082015250565b60006157c3601c8361381b565b91506157ce8261578d565b602082019050919050565b600060208201905081810360008301526157f2816157b6565b9050919050565b600061580482613924565b915061580f83613924565b925082820390508181111561582757615826613b13565b5b92915050565b7f4e487b7100000000000000000000000000000000000000000000000000000000600052603160045260246000fdfea2646970667358221220ee9e375c5d943c4187c151196dcea02a730eed23419e04d3edd4b708d778052b64736f6c634300081b0033608060405234801561001057600080fd5b506040518060400160405280601081526020017f4f4c4d2052657761726420546f6b656e000000000000000000000000000000008152506040518060400160405280600581526020017f4f4c4d5254000000000000000000000000000000000000000000000000000000815250816003908161008c91906103de565b50806004908161009c91906103de565b5050506100bb6100b06100c060201b60201c565b6100c860201b60201c565b6104b0565b600033905090565b6000600560009054906101000a900473ffffffffffffffffffffffffffffffffffffffff16905081600560006101000a81548173ffffffffffffffffffffffffffffffffffffffff021916908373ffffffffffffffffffffffffffffffffffffffff1602179055508173ffffffffffffffffffffffffffffffffffffffff168173ffffffffffffffffffffffffffffffffffffffff167f8be0079c531659141344cd1fd0a4f28419497f9722a3daafe3b4186f6b6457e060405160405180910390a35050565b600081519050919050565b7f4e487b7100000000000000000000000000000000000000000000000000000000600052604160045260246000fd5b7f4e487b7100000000000000000000000000000000000000000000000000000000600052602260045260246000fd5b6000600282049050600182168061020f57607f821691505b602082108103610222576102216101c8565b5b50919050565b60008190508160005260206000209050919050565b60006020601f8301049050919050565b600082821b905092915050565b60006008830261028a7fffffffffffffffffffffffffffffffffffffffffffffffffffffffffffffffff8261024d565b610294868361024d565b95508019841693508086168417925050509392505050565b6000819050919050565b6000819050919050565b60006102db6102d66102d1846102ac565b6102b6565b6102ac565b9050919050565b6000819050919050565b6102f5836102c0565b610309610301826102e2565b84845461025a565b825550505050565b600090565b61031e610311565b6103298184846102ec565b505050565b5b8181101561034d57610342600082610316565b60018101905061032f565b5050565b601f8211156103925761036381610228565b61036c8461023d565b8101602085101561037b578190505b61038f6103878561023d565b83018261032e565b50505b505050565b600082821c905092915050565b60006103b560001984600802610397565b1980831691505092915050565b60006103ce83836103a4565b9150826002028217905092915050565b6103e78261018e565b67ffffffffffffffff811115610400576103ff610199565b5b61040a82546101f7565b610415828285610351565b600060209050601f8311600181146104485760008415610436578287015190505b61044085826103c2565b8655506104a8565b601f19841661045686610228565b60005b8281101561047e57848901518255600182019150602085019450602081019050610459565b8683101561049b5784890151610497601f8916826103a4565b8355505b6001600288020188555050505b505050505050565b6117e0806104bf6000396000f3fe608060405234801561001057600080fd5b50600436106100f55760003560e01c806370a0823111610097578063a457c2d711610066578063a457c2d714610276578063a9059cbb146102a6578063dd62ed3e146102d6578063f2fde38b14610306576100f5565b806370a0823114610200578063715018a6146102305780638da5cb5b1461023a57806395d89b4114610258576100f5565b806323b872dd116100d357806323b872dd14610166578063313ce5671461019657806339509351146101b457806340c10f19146101e4576100f5565b806306fdde03146100fa578063095ea7b31461011857806318160ddd14610148575b600080fd5b610102610322565b60405161010f9190610f29565b60405180910390f35b610132600480360381019061012d9190610fe4565b6103b4565b60405161013f919061103f565b60405180910390f35b6101506103d7565b60405161015d9190611069565b60405180910390f35b610180600480360381019061017b9190611084565b6103e1565b60405161018d919061103f565b60405180910390f35b61019e610410565b6040516101ab91906110f3565b60405180910390f35b6101ce60048036038101906101c99190610fe4565b610419565b6040516101db919061103f565b60405180910390f35b6101fe60048036038101906101f99190610fe4565b610450565b005b61021a6004803603810190610215919061110e565b610466565b6040516102279190611069565b60405180910390f35b6102386104ae565b005b6102426104c2565b60405161024f919061114a565b60405180910390f35b6102606104ec565b60405161026d9190610f29565b60405180910390f35b610290600480360381019061028b9190610fe4565b61057e565b60405161029d919061103f565b60405180910390f35b6102c060048036038101906102bb9190610fe4565b6105f5565b6040516102cd919061103f565b60405180910390f35b6102f060048036038101906102eb9190611165565b610618565b6040516102fd9190611069565b60405180910390f35b610320600480360381019061031b919061110e565b61069f565b005b606060038054610331906111d4565b80601f016020809104026020016040519081016040528092919081815260200182805461035d906111d4565b80156103aa5780601f1061037f576101008083540402835291602001916103aa565b820191906000526020600020905b81548152906001019060200180831161038d57829003601f168201915b5050505050905090565b6000806103bf610722565b90506103cc81858561072a565b600191505092915050565b6000600254905090565b6000806103ec610722565b90506103f98582856108f3565b61040485858561097f565b60019150509392505050565b60006012905090565b600080610424610722565b90506104458185856104368589610618565b6104409190611234565b61072a565b600191505092915050565b610458610bf5565b6104628282610c73565b5050565b60008060008373ffffffffffffffffffffffffffffffffffffffff1673ffffffffffffffffffffffffffffffffffffffff168152602001908152602001600020549050919050565b6104b6610bf5565b6104c06000610dc9565b565b6000600560009054906101000a900473ffffffffffffffffffffffffffffffffffffffff16905090565b6060600480546104fb906111d4565b80601f0160208091040260200160405190810160405280929190818152602001828054610527906111d4565b80156105745780601f1061054957610100808354040283529160200191610574565b820191906000526020600020905b81548152906001019060200180831161055757829003601f168201915b5050505050905090565b600080610589610722565b905060006105978286610618565b9050838110156105dc576040517f08c379a00000000000000000000000000000000000000000000000000000000081526004016105d3906112da565b60405180910390fd5b6105e9828686840361072a565b60019250505092915050565b600080610600610722565b905061060d81858561097f565b600191505092915050565b6000600160008473ffffffffffffffffffffffffffffffffffffffff1673ffffffffffffffffffffffffffffffffffffffff16815260200190815260200160002060008373ffffffffffffffffffffffffffffffffffffffff1673ffffffffffffffffffffffffffffffffffffffff16815260200190815260200160002054905092915050565b6106a7610bf5565b600073ffffffffffffffffffffffffffffffffffffffff168173ffffffffffffffffffffffffffffffffffffffff1603610716576040517f08c379a000000000000000000000000000000000000000000000000000000000815260040161070d9061136c565b60405180910390fd5b61071f81610dc9565b50565b600033905090565b600073ffffffffffffffffffffffffffffffffffffffff168373ffffffffffffffffffffffffffffffffffffffff1603610799576040517f08c379a0000000000000000000000000000000000000000000000000000000008152600401610790906113fe565b60405180910390fd5b600073ffffffffffffffffffffffffffffffffffffffff168273ffffffffffffffffffffffffffffffffffffffff1603610808576040517f08c379a00000000000000000000000000000000000000000000000000000000081526004016107ff90611490565b60405180910390fd5b80600160008573ffffffffffffffffffffffffffffffffffffffff1673ffffffffffffffffffffffffffffffffffffffff16815260200190815260200160002060008473ffffffffffffffffffffffffffffffffffffffff1673ffffffffffffffffffffffffffffffffffffffff168152602001908152602001600020819055508173ffffffffffffffffffffffffffffffffffffffff168373ffffffffffffffffffffffffffffffffffffffff167f8c5be1e5ebec7d5bd14f71427d1e84f3dd0314c0f7b2291e5b200ac8c7c3b925836040516108e69190611069565b60405180910390a3505050565b60006108ff8484610618565b90507fffffffffffffffffffffffffffffffffffffffffffffffffffffffffffffffff8114610979578181101561096b576040517f08c379a0000000000000000000000000000000000000000000000000000000008152600401610962906114fc565b60405180910390fd5b610978848484840361072a565b5b50505050565b600073ffffffffffffffffffffffffffffffffffffffff168373ffffffffffffffffffffffffffffffffffffffff16036109ee576040517f08c379a00000000000000000000000000000000000000000000000000000000081526004016109e59061158e565b60405180910390fd5b600073ffffffffffffffffffffffffffffffffffffffff168273ffffffffffffffffffffffffffffffffffffffff1603610a5d576040517f08c379a0000000000000000000000000000000000000000000000000000000008152600401610a5490611620565b60405180910390fd5b610a68838383610e8f565b60008060008573ffffffffffffffffffffffffffffffffffffffff1673ffffffffffffffffffffffffffffffffffffffff16815260200190815260200160002054905081811015610aee576040517f08c379a0000000000000000000000000000000000000000000000000000000008152600401610ae5906116b2565b60405180910390fd5b8181036000808673ffffffffffffffffffffffffffffffffffffffff1673ffffffffffffffffffffffffffffffffffffffff16815260200190815260200160002081905550816000808573ffffffffffffffffffffffffffffffffffffffff1673ffffffffffffffffffffffffffffffffffffffff168152602001908152602001600020600082825401925050819055508273ffffffffffffffffffffffffffffffffffffffff168473ffffffffffffffffffffffffffffffffffffffff167fddf252ad1be2c89b69c2b068fc378daa952ba7f163c4a11628f55a4df523b3ef84604051610bdc9190611069565b60405180910390a3610bef848484610e94565b50505050565b610bfd610722565b73ffffffffffffffffffffffffffffffffffffffff16610c1b6104c2565b73ffffffffffffffffffffffffffffffffffffffff1614610c71576040517f08c379a0000000000000000000000000000000000000000000000000000000008152600401610c689061171e565b60405180910390fd5b565b600073ffffffffffffffffffffffffffffffffffffffff168273ffffffffffffffffffffffffffffffffffffffff1603610ce2576040517f08c379a0000000000000000000000000000000000000000000000000000000008152600401610cd99061178a565b60405180910390fd5b610cee60008383610e8f565b8060026000828254610d009190611234565b92505081905550806000808473ffffffffffffffffffffffffffffffffffffffff1673ffffffffffffffffffffffffffffffffffffffff168152602001908152602001600020600082825401925050819055508173ffffffffffffffffffffffffffffffffffffffff16600073ffffffffffffffffffffffffffffffffffffffff167fddf252ad1be2c89b69c2b068fc378daa952ba7f163c4a11628f55a4df523b3ef83604051610db19190611069565b60405180910390a3610dc560008383610e94565b5050565b6000600560009054906101000a900473ffffffffffffffffffffffffffffffffffffffff16905081600560006101000a81548173ffffffffffffffffffffffffffffffffffffffff021916908373ffffffffffffffffffffffffffffffffffffffff1602179055508173ffffffffffffffffffffffffffffffffffffffff168173ffffffffffffffffffffffffffffffffffffffff167f8be0079c531659141344cd1fd0a4f28419497f9722a3daafe3b4186f6b6457e060405160405180910390a35050565b505050565b505050565b600081519050919050565b600082825260208201905092915050565b60005b83811015610ed3578082015181840152602081019050610eb8565b60008484015250505050565b6000601f19601f8301169050919050565b6000610efb82610e99565b610f058185610ea4565b9350610f15818560208601610eb5565b610f1e81610edf565b840191505092915050565b60006020820190508181036000830152610f438184610ef0565b905092915050565b600080fd5b600073ffffffffffffffffffffffffffffffffffffffff82169050919050565b6000610f7b82610f50565b9050919050565b610f8b81610f70565b8114610f9657600080fd5b50565b600081359050610fa881610f82565b92915050565b6000819050919050565b610fc181610fae565b8114610fcc57600080fd5b50565b600081359050610fde81610fb8565b92915050565b60008060408385031215610ffb57610ffa610f4b565b5b600061100985828601610f99565b925050602061101a85828601610fcf565b9150509250929050565b60008115159050919050565b61103981611024565b82525050565b60006020820190506110546000830184611030565b92915050565b61106381610fae565b82525050565b600060208201905061107e600083018461105a565b92915050565b60008060006060848603121561109d5761109c610f4b565b5b60006110ab86828701610f99565b93505060206110bc86828701610f99565b92505060406110cd86828701610fcf565b9150509250925092565b600060ff82169050919050565b6110ed816110d7565b82525050565b600060208201905061110860008301846110e4565b92915050565b60006020828403121561112457611123610f4b565b5b600061113284828501610f99565b91505092915050565b61114481610f70565b82525050565b600060208201905061115f600083018461113b565b92915050565b6000806040838503121561117c5761117b610f4b565b5b600061118a85828601610f99565b925050602061119b85828601610f99565b9150509250929050565b7f4e487b7100000000000000000000000000000000000000000000000000000000600052602260045260246000fd5b600060028204905060018216806111ec57607f821691505b6020821081036111ff576111fe6111a5565b5b50919050565b7f4e487b7100000000000000000000000000000000000000000000000000000000600052601160045260246000fd5b600061123f82610fae565b915061124a83610fae565b925082820190508082111561126257611261611205565b5b92915050565b7f45524332303a2064656372656173656420616c6c6f77616e63652062656c6f7760008201527f207a65726f000000000000000000000000000000000000000000000000000000602082015250565b60006112c4602583610ea4565b91506112cf82611268565b604082019050919050565b600060208201905081810360008301526112f3816112b7565b9050919050565b7f4f776e61626c653a206e6577206f776e657220697320746865207a65726f206160008201527f6464726573730000000000000000000000000000000000000000000000000000602082015250565b6000611356602683610ea4565b9150611361826112fa565b604082019050919050565b6000602082019050818103600083015261138581611349565b9050919050565b7f45524332303a20617070726f76652066726f6d20746865207a65726f2061646460008201527f7265737300000000000000000000000000000000000000000000000000000000602082015250565b60006113e8602483610ea4565b91506113f38261138c565b604082019050919050565b60006020820190508181036000830152611417816113db565b9050919050565b7f45524332303a20617070726f766520746f20746865207a65726f20616464726560008201527f7373000000000000000000000000000000000000000000000000000000000000602082015250565b600061147a602283610ea4565b91506114858261141e565b604082019050919050565b600060208201905081810360008301526114a98161146d565b9050919050565b7f45524332303a20696e73756666696369656e7420616c6c6f77616e6365000000600082015250565b60006114e6601d83610ea4565b91506114f1826114b0565b602082019050919050565b60006020820190508181036000830152611515816114d9565b9050919050565b7f45524332303a207472616e736665722066726f6d20746865207a65726f20616460008201527f6472657373000000000000000000000000000000000000000000000000000000602082015250565b6000611578602583610ea4565b91506115838261151c565b604082019050919050565b600060208201905081810360008301526115a78161156b565b9050919050565b7f45524332303a207472616e7366657220746f20746865207a65726f206164647260008201527f6573730000000000000000000000000000000000000000000000000000000000602082015250565b600061160a602383610ea4565b9150611615826115ae565b604082019050919050565b60006020820190508181036000830152611639816115fd565b9050919050565b7f45524332303a207472616e7366657220616d6f756e742065786365656473206260008201527f616c616e63650000000000000000000000000000000000000000000000000000602082015250565b600061169c602683610ea4565b91506116a782611640565b604082019050919050565b600060208201905081810360008301526116cb8161168f565b9050919050565b7f4f776e61626c653a2063616c6c6572206973206e6f7420746865206f776e6572600082015250565b6000611708602083610ea4565b9150611713826116d2565b602082019050919050565b60006020820190508181036000830152611737816116fb565b9050919050565b7f45524332303a206d696e7420746f20746865207a65726f206164647265737300600082015250565b6000611774601f83610ea4565b915061177f8261173e565b602082019050919050565b600060208201905081810360008301526117a381611767565b905091905056fea2646970667358221220af20ee9085baea6d3365493d9a9c372a7cee3e7ac2647d892ac51a03d58530b864736f6c634300081b0033608060405234801561001057600080fd5b506040518060400160405280601781526020017f4c6974746572636f696e4d65726368616e74546f6b656e0000000000000000008152506040518060400160405280600481526020017f4c584d5400000000000000000000000000000000000000000000000000000000815250816000908161008c91906103de565b50806001908161009c91906103de565b5050506100bb6100b06100c060201b60201c565b6100c860201b60201c565b6104b0565b600033905090565b6000600660009054906101000a900473ffffffffffffffffffffffffffffffffffffffff16905081600660006101000a81548173ffffffffffffffffffffffffffffffffffffffff021916908373ffffffffffffffffffffffffffffffffffffffff1602179055508173ffffffffffffffffffffffffffffffffffffffff168173ffffffffffffffffffffffffffffffffffffffff167f8be0079c531659141344cd1fd0a4f28419497f9722a3daafe3b4186f6b6457e060405160405180910390a35050565b600081519050919050565b7f4e487b7100000000000000000000000000000000000000000000000000000000600052604160045260246000fd5b7f4e487b7100000000000000000000000000000000000000000000000000000000600052602260045260246000fd5b6000600282049050600182168061020f57607f821691505b602082108103610222576102216101c8565b5b50919050565b60008190508160005260206000209050919050565b60006020601f8301049050919050565b600082821b905092915050565b60006008830261028a7fffffffffffffffffffffffffffffffffffffffffffffffffffffffffffffffff8261024d565b610294868361024d565b95508019841693508086168417925050509392505050565b6000819050919050565b6000819050919050565b60006102db6102d66102d1846102ac565b6102b6565b6102ac565b9050919050565b6000819050919050565b6102f5836102c0565b610309610301826102e2565b84845461025a565b825550505050565b600090565b61031e610311565b6103298184846102ec565b505050565b5b8181101561034d57610342600082610316565b60018101905061032f565b5050565b601f8211156103925761036381610228565b61036c8461023d565b8101602085101561037b578190505b61038f6103878561023d565b83018261032e565b50505b505050565b600082821c905092915050565b60006103b560001984600802610397565b1980831691505092915050565b60006103ce83836103a4565b9150826002028217905092915050565b6103e78261018e565b67ffffffffffffffff811115610400576103ff610199565b5b61040a82546101f7565b610415828285610351565b600060209050601f8311600181146104485760008415610436578287015190505b61044085826103c2565b8655506104a8565b601f19841661045686610228565b60005b8281101561047e57848901518255600182019150602085019450602081019050610459565b8683101561049b5784890151610497601f8916826103a4565b8355505b6001600288020188555050505b505050505050565b6138ae806104bf6000396000f3fe608060405234801561001057600080fd5b50600436106101735760003560e01c80636352211e116100de578063b88d4fde11610097578063d9e5896e11610071578063d9e5896e14610434578063e985e9c514610464578063ea55763314610494578063f2fde38b146104c457610173565b8063b88d4fde146103b8578063c87b56dd146103d4578063d9548e531461040457610173565b80636352211e146102f657806370a0823114610326578063715018a6146103565780638da5cb5b1461036057806395d89b411461037e578063a22cb4651461039c57610173565b8063393ed91a11610130578063393ed91a1461025e57806340c10f191461027a578063425604d61461029657806342842e0e146102b257806344df8e70146102ce57806356189236146102d857610173565b806301ffc9a71461017857806302556a29146101a857806306fdde03146101d8578063081812fc146101f6578063095ea7b31461022657806323b872dd14610242575b600080fd5b610192600480360381019061018d9190612528565b6104e0565b60405161019f9190612570565b60405180910390f35b6101c260048036038101906101bd91906125e9565b6104f2565b6040516101cf9190612570565b60405180910390f35b6101e0610565565b6040516101ed91906126a6565b60405180910390f35b610210600480360381019061020b91906126fe565b6105f7565b60405161021d919061273a565b60405180910390f35b610240600480360381019061023b9190612755565b61063d565b005b61025c60048036038101906102579190612795565b610754565b005b610278600480360381019061027391906126fe565b6107b4565b005b610294600480360381019061028f9190612755565b6108ac565b005b6102b060048036038101906102ab91906127e8565b610a83565b005b6102cc60048036038101906102c79190612795565b610b90565b005b6102d6610bb0565b005b6102e0610c43565b6040516102ed9190612837565b60405180910390f35b610310600480360381019061030b91906126fe565b610c54565b60405161031d919061273a565b60405180910390f35b610340600480360381019061033b91906125e9565b610cda565b60405161034d9190612837565b60405180910390f35b61035e610d91565b005b610368610da5565b604051610375919061273a565b60405180910390f35b610386610dcf565b60405161039391906126a6565b60405180910390f35b6103b660048036038101906103b1919061287e565b610e61565b005b6103d260048036038101906103cd91906129f3565b610e77565b005b6103ee60048036038101906103e991906126fe565b610ed9565b6040516103fb91906126a6565b60405180910390f35b61041e600480360381019061041991906126fe565b610f41565b60405161042b9190612570565b60405180910390f35b61044e600480360381019061044991906126fe565b610fa8565b60405161045b9190612837565b60405180910390f35b61047e60048036038101906104799190612a76565b61100d565b60405161048b9190612570565b60405180910390f35b6104ae60048036038101906104a991906125e9565b6110a1565b6040516104bb9190612837565b60405180910390f35b6104de60048036038101906104d991906125e9565b6111a1565b005b60006104eb82611224565b9050919050565b600080600860008473ffffffffffffffffffffffffffffffffffffffff1673ffffffffffffffffffffffffffffffffffffffff168152602001908152602001600020549050600081148061054b575061054a81610f41565b5b1561055a576000915050610560565b60019150505b919050565b60606000805461057490612ae5565b80601f01602080910402602001604051908101604052809291908181526020018280546105a090612ae5565b80156105ed5780601f106105c2576101008083540402835291602001916105ed565b820191906000526020600020905b8154815290600101906020018083116105d057829003601f168201915b5050505050905090565b600061060282611306565b6004600083815260200190815260200160002060009054906101000a900473ffffffffffffffffffffffffffffffffffffffff169050919050565b600061064882610c54565b90508073ffffffffffffffffffffffffffffffffffffffff168373ffffffffffffffffffffffffffffffffffffffff16036106b8576040517f08c379a00000000000000000000000000000000000000000000000000000000081526004016106af90612b88565b60405180910390fd5b8073ffffffffffffffffffffffffffffffffffffffff166106d7611351565b73ffffffffffffffffffffffffffffffffffffffff161480610706575061070581610700611351565b61100d565b5b610745576040517f08c379a000000000000000000000000000000000000000000000000000000000815260040161073c90612c1a565b60405180910390fd5b61074f8383611359565b505050565b61076561075f611351565b82611412565b6107a4576040517f08c379a000000000000000000000000000000000000000000000000000000000815260040161079b90612cac565b60405180910390fd5b6107af8383836114a7565b505050565b6107bc6117a0565b6107c58161181e565b610804576040517f08c379a00000000000000000000000000000000000000000000000000000000081526004016107fb90612d18565b60405180910390fd5b61080d81610f41565b1561084d576040517f08c379a000000000000000000000000000000000000000000000000000000000815260040161084490612d84565b60405180910390fd5b610e104261085b9190612dd3565b60096000838152602001908152602001600020819055507f754f3aa765fa1f221ea409fddea972deff6ce410d141d5cded4fc7ec690710c0816040516108a19190612837565b60405180910390a150565b6108b46117a0565b600073ffffffffffffffffffffffffffffffffffffffff168273ffffffffffffffffffffffffffffffffffffffff1603610923576040517f08c379a000000000000000000000000000000000000000000000000000000000815260040161091a90612e53565b60405180910390fd5b428111610965576040517f08c379a000000000000000000000000000000000000000000000000000000000815260040161095c90612ee5565b60405180910390fd5b600061097083610cda565b146109b0576040517f08c379a00000000000000000000000000000000000000000000000000000000081526004016109a790612f51565b60405180910390fd5b6109ba600761185f565b60006109c66007611875565b90508160096000838152602001908152602001600020819055506109ea8382611883565b80600860008573ffffffffffffffffffffffffffffffffffffffff1673ffffffffffffffffffffffffffffffffffffffff168152602001908152602001600020819055508273ffffffffffffffffffffffffffffffffffffffff167f655ff37b06d138fc26fda07d435a40368e63b8d3cbd7835215334ff9e7fcd7828284604051610a76929190612f71565b60405180910390a2505050565b610a8b6117a0565b610a948261181e565b610ad3576040517f08c379a0000000000000000000000000000000000000000000000000000000008152600401610aca90612d18565b60405180910390fd5b60008111610b16576040517f08c379a0000000000000000000000000000000000000000000000000000000008152600401610b0d9061300c565b60405180910390fd5b80600960008481526020019081526020016000206000828254610b39919061302c565b925050819055507f0db48b23ad6f04f212b5fddef4017753a195535f0d61c4daa790b4f70f28c07f826009600085815260200190815260200160002054604051610b84929190612f71565b60405180910390a15050565b610bab83838360405180602001604052806000815250610e77565b505050565b6000600860003373ffffffffffffffffffffffffffffffffffffffff1673ffffffffffffffffffffffffffffffffffffffff16815260200190815260200160002054905060008103610c37576040517f08c379a0000000000000000000000000000000000000000000000000000000008152600401610c2e906130ac565b60405180910390fd5b610c40816118a1565b50565b6000610c4f6007611875565b905090565b600080610c60836119ef565b9050600073ffffffffffffffffffffffffffffffffffffffff168173ffffffffffffffffffffffffffffffffffffffff1603610cd1576040517f08c379a0000000000000000000000000000000000000000000000000000000008152600401610cc890613118565b60405180910390fd5b80915050919050565b60008073ffffffffffffffffffffffffffffffffffffffff168273ffffffffffffffffffffffffffffffffffffffff1603610d4a576040517f08c379a0000000000000000000000000000000000000000000000000000000008152600401610d41906131aa565b60405180910390fd5b600360008373ffffffffffffffffffffffffffffffffffffffff1673ffffffffffffffffffffffffffffffffffffffff168152602001908152602001600020549050919050565b610d996117a0565b610da36000611a2c565b565b6000600660009054906101000a900473ffffffffffffffffffffffffffffffffffffffff16905090565b606060018054610dde90612ae5565b80601f0160208091040260200160405190810160405280929190818152602001828054610e0a90612ae5565b8015610e575780601f10610e2c57610100808354040283529160200191610e57565b820191906000526020600020905b815481529060010190602001808311610e3a57829003601f168201915b5050505050905090565b610e73610e6c611351565b8383611af2565b5050565b610e88610e82611351565b83611412565b610ec7576040517f08c379a0000000000000000000000000000000000000000000000000000000008152600401610ebe90612cac565b60405180910390fd5b610ed384848484611c5e565b50505050565b6060610ee482611306565b6000610eee611cba565b90506000815111610f0e5760405180602001604052806000815250610f39565b80610f1884611cd1565b604051602001610f29929190613206565b6040516020818303038152906040525b915050919050565b6000610f4c8261181e565b610f8b576040517f08c379a0000000000000000000000000000000000000000000000000000000008152600401610f8290612d18565b60405180910390fd5b600960008381526020019081526020016000205442119050919050565b6000610fb38261181e565b610ff2576040517f08c379a0000000000000000000000000000000000000000000000000000000008152600401610fe990612d18565b60405180910390fd5b60096000838152602001908152602001600020549050919050565b6000600560008473ffffffffffffffffffffffffffffffffffffffff1673ffffffffffffffffffffffffffffffffffffffff16815260200190815260200160002060008373ffffffffffffffffffffffffffffffffffffffff1673ffffffffffffffffffffffffffffffffffffffff16815260200190815260200160002060009054906101000a900460ff16905092915050565b60008073ffffffffffffffffffffffffffffffffffffffff168273ffffffffffffffffffffffffffffffffffffffff1603611111576040517f08c379a000000000000000000000000000000000000000000000000000000000815260040161110890613276565b60405180910390fd5b6000600860008473ffffffffffffffffffffffffffffffffffffffff1673ffffffffffffffffffffffffffffffffffffffff16815260200190815260200160002054905060008103611198576040517f08c379a000000000000000000000000000000000000000000000000000000000815260040161118f906132e2565b60405180910390fd5b80915050919050565b6111a96117a0565b600073ffffffffffffffffffffffffffffffffffffffff168173ffffffffffffffffffffffffffffffffffffffff1603611218576040517f08c379a000000000000000000000000000000000000000000000000000000000815260040161120f90613374565b60405180910390fd5b61122181611a2c565b50565b60007f80ac58cd000000000000000000000000000000000000000000000000000000007bffffffffffffffffffffffffffffffffffffffffffffffffffffffff1916827bffffffffffffffffffffffffffffffffffffffffffffffffffffffff191614806112ef57507f5b5e139f000000000000000000000000000000000000000000000000000000007bffffffffffffffffffffffffffffffffffffffffffffffffffffffff1916827bffffffffffffffffffffffffffffffffffffffffffffffffffffffff1916145b806112ff57506112fe82611d9f565b5b9050919050565b61130f8161181e565b61134e576040517f08c379a000000000000000000000000000000000000000000000000000000000815260040161134590613118565b60405180910390fd5b50565b600033905090565b816004600083815260200190815260200160002060006101000a81548173ffffffffffffffffffffffffffffffffffffffff021916908373ffffffffffffffffffffffffffffffffffffffff160217905550808273ffffffffffffffffffffffffffffffffffffffff166113cc83610c54565b73ffffffffffffffffffffffffffffffffffffffff167f8c5be1e5ebec7d5bd14f71427d1e84f3dd0314c0f7b2291e5b200ac8c7c3b92560405160405180910390a45050565b60008061141e83610c54565b90508073ffffffffffffffffffffffffffffffffffffffff168473ffffffffffffffffffffffffffffffffffffffff161480611460575061145f818561100d565b5b8061149e57508373ffffffffffffffffffffffffffffffffffffffff16611486846105f7565b73ffffffffffffffffffffffffffffffffffffffff16145b91505092915050565b8273ffffffffffffffffffffffffffffffffffffffff166114c782610c54565b73ffffffffffffffffffffffffffffffffffffffff161461151d576040517f08c379a000000000000000000000000000000000000000000000000000000000815260040161151490613406565b60405180910390fd5b600073ffffffffffffffffffffffffffffffffffffffff168273ffffffffffffffffffffffffffffffffffffffff160361158c576040517f08c379a000000000000000000000000000000000000000000000000000000000815260040161158390613498565b60405180910390fd5b6115998383836001611e09565b8273ffffffffffffffffffffffffffffffffffffffff166115b982610c54565b73ffffffffffffffffffffffffffffffffffffffff161461160f576040517f08c379a000000000000000000000000000000000000000000000000000000000815260040161160690613406565b60405180910390fd5b6004600082815260200190815260200160002060006101000a81549073ffffffffffffffffffffffffffffffffffffffff02191690556001600360008573ffffffffffffffffffffffffffffffffffffffff1673ffffffffffffffffffffffffffffffffffffffff168152602001908152602001600020600082825403925050819055506001600360008473ffffffffffffffffffffffffffffffffffffffff1673ffffffffffffffffffffffffffffffffffffffff16815260200190815260200160002060008282540192505081905550816002600083815260200190815260200160002060006101000a81548173ffffffffffffffffffffffffffffffffffffffff021916908373ffffffffffffffffffffffffffffffffffffffff160217905550808273ffffffffffffffffffffffffffffffffffffffff168473ffffffffffffffffffffffffffffffffffffffff167fddf252ad1be2c89b69c2b068fc378daa952ba7f163c4a11628f55a4df523b3ef60405160405180910390a461179b8383836001611f3b565b505050565b6117a8611351565b73ffffffffffffffffffffffffffffffffffffffff166117c6610da5565b73ffffffffffffffffffffffffffffffffffffffff161461181c576040517f08c379a000000000000000000000000000000000000000000000000000000000815260040161181390613504565b60405180910390fd5b565b60008073ffffffffffffffffffffffffffffffffffffffff16611840836119ef565b73ffffffffffffffffffffffffffffffffffffffff1614159050919050565b6001816000016000828254019250508190555050565b600081600001549050919050565b61189d828260405180602001604052806000815250611f41565b5050565b60006118ac82610c54565b90506118bc816000846001611e09565b6118c582610c54565b90506004600083815260200190815260200160002060006101000a81549073ffffffffffffffffffffffffffffffffffffffff02191690556001600360008373ffffffffffffffffffffffffffffffffffffffff1673ffffffffffffffffffffffffffffffffffffffff168152602001908152602001600020600082825403925050819055506002600083815260200190815260200160002060006101000a81549073ffffffffffffffffffffffffffffffffffffffff021916905581600073ffffffffffffffffffffffffffffffffffffffff168273ffffffffffffffffffffffffffffffffffffffff167fddf252ad1be2c89b69c2b068fc378daa952ba7f163c4a11628f55a4df523b3ef60405160405180910390a46119eb816000846001611f3b565b5050565b60006002600083815260200190815260200160002060009054906101000a900473ffffffffffffffffffffffffffffffffffffffff169050919050565b6000600660009054906101000a900473ffffffffffffffffffffffffffffffffffffffff16905081600660006101000a81548173ffffffffffffffffffffffffffffffffffffffff021916908373ffffffffffffffffffffffffffffffffffffffff1602179055508173ffffffffffffffffffffffffffffffffffffffff168173ffffffffffffffffffffffffffffffffffffffff167f8be0079c531659141344cd1fd0a4f28419497f9722a3daafe3b4186f6b6457e060405160405180910390a35050565b8173ffffffffffffffffffffffffffffffffffffffff168373ffffffffffffffffffffffffffffffffffffffff1603611b60576040517f08c379a0000000000000000000000000000000000000000000000000000000008152600401611b5790613570565b60405180910390fd5b80600560008573ffffffffffffffffffffffffffffffffffffffff1673ffffffffffffffffffffffffffffffffffffffff16815260200190815260200160002060008473ffffffffffffffffffffffffffffffffffffffff1673ffffffffffffffffffffffffffffffffffffffff16815260200190815260200160002060006101000a81548160ff0219169083151502179055508173ffffffffffffffffffffffffffffffffffffffff168373ffffffffffffffffffffffffffffffffffffffff167f17307eab39ab6107e8899845ad3d59bd9653f200f220920489ca2b5937696c3183604051611c519190612570565b60405180910390a3505050565b611c698484846114a7565b611c7584848484611f9c565b611cb4576040517f08c379a0000000000000000000000000000000000000000000000000000000008152600401611cab90613602565b60405180910390fd5b50505050565b606060405180602001604052806000815250905090565b606060006001611ce084612123565b01905060008167ffffffffffffffff811115611cff57611cfe6128c8565b5b6040519080825280601f01601f191660200182016040528015611d315781602001600182028036833780820191505090505b509050600082602001820190505b600115611d94578080600190039150507f3031323334353637383961626364656600000000000000000000000000000000600a86061a8153600a8581611d8857611d87613622565b5b04945060008503611d3f575b819350505050919050565b60007f01ffc9a7000000000000000000000000000000000000000000000000000000007bffffffffffffffffffffffffffffffffffffffffffffffffffffffff1916827bffffffffffffffffffffffffffffffffffffffffffffffffffffffff1916149050919050565b611e1584848484612276565b600073ffffffffffffffffffffffffffffffffffffffff168473ffffffffffffffffffffffffffffffffffffffff161480611e7c5750600073ffffffffffffffffffffffffffffffffffffffff168373ffffffffffffffffffffffffffffffffffffffff16145b611ebb576040517f08c379a0000000000000000000000000000000000000000000000000000000008152600401611eb29061369d565b60405180910390fd5b600073ffffffffffffffffffffffffffffffffffffffff168473ffffffffffffffffffffffffffffffffffffffff1614611f35576000600860008673ffffffffffffffffffffffffffffffffffffffff1673ffffffffffffffffffffffffffffffffffffffff168152602001908152602001600020819055505b50505050565b50505050565b611f4b838361227c565b611f586000848484611f9c565b611f97576040517f08c379a0000000000000000000000000000000000000000000000000000000008152600401611f8e90613602565b60405180910390fd5b505050565b6000611fbd8473ffffffffffffffffffffffffffffffffffffffff16612499565b15612116578373ffffffffffffffffffffffffffffffffffffffff1663150b7a02611fe6611351565b8786866040518563ffffffff1660e01b81526004016120089493929190613712565b6020604051808303816000875af192505050801561204457506040513d601f19601f820116820180604052508101906120419190613773565b60015b6120c6573d8060008114612074576040519150601f19603f3d011682016040523d82523d6000602084013e612079565b606091505b5060008151036120be576040517f08c379a00000000000000000000000000000000000000000000000000000000081526004016120b590613602565b60405180910390fd5b805181602001fd5b63150b7a0260e01b7bffffffffffffffffffffffffffffffffffffffffffffffffffffffff1916817bffffffffffffffffffffffffffffffffffffffffffffffffffffffff19161491505061211b565b600190505b949350505050565b600080600090507a184f03e93ff9f4daa797ed6e38ed64bf6a1f0100000000000000008310612181577a184f03e93ff9f4daa797ed6e38ed64bf6a1f010000000000000000838161217757612176613622565b5b0492506040810190505b6d04ee2d6d415b85acef810000000083106121be576d04ee2d6d415b85acef810000000083816121b4576121b3613622565b5b0492506020810190505b662386f26fc1000083106121ed57662386f26fc1000083816121e3576121e2613622565b5b0492506010810190505b6305f5e1008310612216576305f5e100838161220c5761220b613622565b5b0492506008810190505b612710831061223b57612710838161223157612230613622565b5b0492506004810190505b6064831061225e576064838161225457612253613622565b5b0492506002810190505b600a831061226d576001810190505b80915050919050565b50505050565b600073ffffffffffffffffffffffffffffffffffffffff168273ffffffffffffffffffffffffffffffffffffffff16036122eb576040517f08c379a00000000000000000000000000000000000000000000000000000000081526004016122e2906137ec565b60405180910390fd5b6122f48161181e565b15612334576040517f08c379a000000000000000000000000000000000000000000000000000000000815260040161232b90613858565b60405180910390fd5b612342600083836001611e09565b61234b8161181e565b1561238b576040517f08c379a000000000000000000000000000000000000000000000000000000000815260040161238290613858565b60405180910390fd5b6001600360008473ffffffffffffffffffffffffffffffffffffffff1673ffffffffffffffffffffffffffffffffffffffff16815260200190815260200160002060008282540192505081905550816002600083815260200190815260200160002060006101000a81548173ffffffffffffffffffffffffffffffffffffffff021916908373ffffffffffffffffffffffffffffffffffffffff160217905550808273ffffffffffffffffffffffffffffffffffffffff16600073ffffffffffffffffffffffffffffffffffffffff167fddf252ad1be2c89b69c2b068fc378daa952ba7f163c4a11628f55a4df523b3ef60405160405180910390a4612495600083836001611f3b565b5050565b6000808273ffffffffffffffffffffffffffffffffffffffff163b119050919050565b6000604051905090565b600080fd5b600080fd5b60007fffffffff0000000000000000000000000000000000000000000000000000000082169050919050565b612505816124d0565b811461251057600080fd5b50565b600081359050612522816124fc565b92915050565b60006020828403121561253e5761253d6124c6565b5b600061254c84828501612513565b91505092915050565b60008115159050919050565b61256a81612555565b82525050565b60006020820190506125856000830184612561565b92915050565b600073ffffffffffffffffffffffffffffffffffffffff82169050919050565b60006125b68261258b565b9050919050565b6125c6816125ab565b81146125d157600080fd5b50565b6000813590506125e3816125bd565b92915050565b6000602082840312156125ff576125fe6124c6565b5b600061260d848285016125d4565b91505092915050565b600081519050919050565b600082825260208201905092915050565b60005b83811015612650578082015181840152602081019050612635565b60008484015250505050565b6000601f19601f8301169050919050565b600061267882612616565b6126828185612621565b9350612692818560208601612632565b61269b8161265c565b840191505092915050565b600060208201905081810360008301526126c0818461266d565b905092915050565b6000819050919050565b6126db816126c8565b81146126e657600080fd5b50565b6000813590506126f8816126d2565b92915050565b600060208284031215612714576127136124c6565b5b6000612722848285016126e9565b91505092915050565b612734816125ab565b82525050565b600060208201905061274f600083018461272b565b92915050565b6000806040838503121561276c5761276b6124c6565b5b600061277a858286016125d4565b925050602061278b858286016126e9565b9150509250929050565b6000806000606084860312156127ae576127ad6124c6565b5b60006127bc868287016125d4565b93505060206127cd868287016125d4565b92505060406127de868287016126e9565b9150509250925092565b600080604083850312156127ff576127fe6124c6565b5b600061280d858286016126e9565b925050602061281e858286016126e9565b9150509250929050565b612831816126c8565b82525050565b600060208201905061284c6000830184612828565b92915050565b61285b81612555565b811461286657600080fd5b50565b60008135905061287881612852565b92915050565b60008060408385031215612895576128946124c6565b5b60006128a3858286016125d4565b92505060206128b485828601612869565b9150509250929050565b600080fd5b600080fd5b7f4e487b7100000000000000000000000000000000000000000000000000000000600052604160045260246000fd5b6129008261265c565b810181811067ffffffffffffffff8211171561291f5761291e6128c8565b5b80604052505050565b60006129326124bc565b905061293e82826128f7565b919050565b600067ffffffffffffffff82111561295e5761295d6128c8565b5b6129678261265c565b9050602081019050919050565b82818337600083830152505050565b600061299661299184612943565b612928565b9050828152602081018484840111156129b2576129b16128c3565b5b6129bd848285612974565b509392505050565b600082601f8301126129da576129d96128be565b5b81356129ea848260208601612983565b91505092915050565b60008060008060808587031215612a0d57612a0c6124c6565b5b6000612a1b878288016125d4565b9450506020612a2c878288016125d4565b9350506040612a3d878288016126e9565b925050606085013567ffffffffffffffff811115612a5e57612a5d6124cb565b5b612a6a878288016129c5565b91505092959194509250565b60008060408385031215612a8d57612a8c6124c6565b5b6000612a9b858286016125d4565b9250506020612aac858286016125d4565b9150509250929050565b7f4e487b7100000000000000000000000000000000000000000000000000000000600052602260045260246000fd5b60006002820490506001821680612afd57607f821691505b602082108103612b1057612b0f612ab6565b5b50919050565b7f4552433732313a20617070726f76616c20746f2063757272656e74206f776e6560008201527f7200000000000000000000000000000000000000000000000000000000000000602082015250565b6000612b72602183612621565b9150612b7d82612b16565b604082019050919050565b60006020820190508181036000830152612ba181612b65565b9050919050565b7f4552433732313a20617070726f76652063616c6c6572206973206e6f7420746f60008201527f6b656e206f776e6572206f7220617070726f76656420666f7220616c6c000000602082015250565b6000612c04603d83612621565b9150612c0f82612ba8565b604082019050919050565b60006020820190508181036000830152612c3381612bf7565b9050919050565b7f4552433732313a2063616c6c6572206973206e6f7420746f6b656e206f776e6560008201527f72206f7220617070726f76656400000000000000000000000000000000000000602082015250565b6000612c96602d83612621565b9150612ca182612c3a565b604082019050919050565b60006020820190508181036000830152612cc581612c89565b9050919050565b7f546f6b656e20646f6573206e6f74206578697374000000000000000000000000600082015250565b6000612d02601483612621565b9150612d0d82612ccc565b602082019050919050565b60006020820190508181036000830152612d3181612cf5565b9050919050565b7f546f6b656e20616c726561647920657870697265640000000000000000000000600082015250565b6000612d6e601583612621565b9150612d7982612d38565b602082019050919050565b60006020820190508181036000830152612d9d81612d61565b9050919050565b7f4e487b7100000000000000000000000000000000000000000000000000000000600052601160045260246000fd5b6000612dde826126c8565b9150612de9836126c8565b9250828203905081811115612e0157612e00612da4565b5b92915050565b7f43616e6e6f74206d696e7420746f207a65726f20616464726573730000000000600082015250565b6000612e3d601b83612621565b9150612e4882612e07565b602082019050919050565b60006020820190508181036000830152612e6c81612e30565b9050919050565b7f45787069726174696f6e206d75737420626520696e207468652066757475726560008201527f2e00000000000000000000000000000000000000000000000000000000000000602082015250565b6000612ecf602183612621565b9150612eda82612e73565b604082019050919050565b60006020820190508181036000830152612efe81612ec2565b9050919050565b7f5573657220616c726561647920686173206120746f6b656e0000000000000000600082015250565b6000612f3b601883612621565b9150612f4682612f05565b602082019050919050565b60006020820190508181036000830152612f6a81612f2e565b9050919050565b6000604082019050612f866000830185612828565b612f936020830184612828565b9392505050565b7f4164646974696f6e616c2074696d65206d75737420626520677265617465722060008201527f7468616e207a65726f0000000000000000000000000000000000000000000000602082015250565b6000612ff6602983612621565b915061300182612f9a565b604082019050919050565b6000602082019050818103600083015261302581612fe9565b9050919050565b6000613037826126c8565b9150613042836126c8565b925082820190508082111561305a57613059612da4565b5b92915050565b7f596f7520646f206e6f74206f776e206120746f6b656e00000000000000000000600082015250565b6000613096601683612621565b91506130a182613060565b602082019050919050565b600060208201905081810360008301526130c581613089565b9050919050565b7f4552433732313a20696e76616c696420746f6b656e2049440000000000000000600082015250565b6000613102601883612621565b915061310d826130cc565b602082019050919050565b60006020820190508181036000830152613131816130f5565b9050919050565b7f4552433732313a2061646472657373207a65726f206973206e6f74206120766160008201527f6c6964206f776e65720000000000000000000000000000000000000000000000602082015250565b6000613194602983612621565b915061319f82613138565b604082019050919050565b600060208201905081810360008301526131c381613187565b9050919050565b600081905092915050565b60006131e082612616565b6131ea81856131ca565b93506131fa818560208601612632565b80840191505092915050565b600061321282856131d5565b915061321e82846131d5565b91508190509392505050565b7f496e76616c696420616464726573730000000000000000000000000000000000600082015250565b6000613260600f83612621565b915061326b8261322a565b602082019050919050565b6000602082019050818103600083015261328f81613253565b9050919050565b7f4f776e657220646f6573206e6f742068617665206120746f6b656e0000000000600082015250565b60006132cc601b83612621565b91506132d782613296565b602082019050919050565b600060208201905081810360008301526132fb816132bf565b9050919050565b7f4f776e61626c653a206e6577206f776e657220697320746865207a65726f206160008201527f6464726573730000000000000000000000000000000000000000000000000000602082015250565b600061335e602683612621565b915061336982613302565b604082019050919050565b6000602082019050818103600083015261338d81613351565b9050919050565b7f4552433732313a207472616e736665722066726f6d20696e636f72726563742060008201527f6f776e6572000000000000000000000000000000000000000000000000000000602082015250565b60006133f0602583612621565b91506133fb82613394565b604082019050919050565b6000602082019050818103600083015261341f816133e3565b9050919050565b7f4552433732313a207472616e7366657220746f20746865207a65726f2061646460008201527f7265737300000000000000000000000000000000000000000000000000000000602082015250565b6000613482602483612621565b915061348d82613426565b604082019050919050565b600060208201905081810360008301526134b181613475565b9050919050565b7f4f776e61626c653a2063616c6c6572206973206e6f7420746865206f776e6572600082015250565b60006134ee602083612621565b91506134f9826134b8565b602082019050919050565b6000602082019050818103600083015261351d816134e1565b9050919050565b7f4552433732313a20617070726f766520746f2063616c6c657200000000000000600082015250565b600061355a601983612621565b915061356582613524565b602082019050919050565b600060208201905081810360008301526135898161354d565b9050919050565b7f4552433732313a207472616e7366657220746f206e6f6e20455243373231526560008201527f63656976657220696d706c656d656e7465720000000000000000000000000000602082015250565b60006135ec603283612621565b91506135f782613590565b604082019050919050565b6000602082019050818103600083015261361b816135df565b9050919050565b7f4e487b7100000000000000000000000000000000000000000000000000000000600052601260045260246000fd5b7f5472616e7366657273206172652064697361626c656400000000000000000000600082015250565b6000613687601683612621565b915061369282613651565b602082019050919050565b600060208201905081810360008301526136b68161367a565b9050919050565b600081519050919050565b600082825260208201905092915050565b60006136e4826136bd565b6136ee81856136c8565b93506136fe818560208601612632565b6137078161265c565b840191505092915050565b6000608082019050613727600083018761272b565b613734602083018661272b565b6137416040830185612828565b818103606083015261375381846136d9565b905095945050505050565b60008151905061376d816124fc565b92915050565b600060208284031215613789576137886124c6565b5b60006137978482850161375e565b91505092915050565b7f4552433732313a206d696e7420746f20746865207a65726f2061646472657373600082015250565b60006137d6602083612621565b91506137e1826137a0565b602082019050919050565b60006020820190508181036000830152613805816137c9565b9050919050565b7f4552433732313a20746f6b656e20616c7265616479206d696e74656400000000600082015250565b6000613842601c83612621565b915061384d8261380c565b602082019050919050565b6000602082019050818103600083015261387181613835565b905091905056fea2646970667358221220dfbd76f4aa86747c1183c774ae38d30edd8ebd446f8f9fd8e0900505bd85a92b64736f6c634300081b0033",
  "linkReferences": {},
  "deployedLinkReferences": {}
}