{
  "_format": "hh-sol-artifact-1",
  "contractName": "Littercoin",
  "sourceName": "contracts/Littercoin.sol",
  "abi": [
    {
      "inputs": [
        {
          "internalType": "address",
          "name": "_priceFeed",
          "type": "address"
        }
      ],
      "stateMutability": "nonpayable",
      "type": "constructor"
    },
    {
      "anonymous": false,
      "inputs": [
        {
          "indexed": true,
          "internalType": "address",
          "name": "owner",
          "type": "address"
        },
        {
          "indexed": true,
          "internalType": "address",
          "name": "approved",
          "type": "address"
        },
        {
          "indexed": true,
          "internalType": "uint256",
          "name": "tokenId",
          "type": "uint256"
        }
      ],
      "name": "Approval",
      "type": "event"
    },
    {
      "anonymous": false,
      "inputs": [
        {
          "indexed": true,
          "internalType": "address",
          "name": "owner",
          "type": "address"
        },
        {
          "indexed": true,
          "internalType": "address",
          "name": "operator",
          "type": "address"
        },
        {
          "indexed": false,
          "internalType": "bool",
          "name": "approved",
          "type": "bool"
        }
      ],
      "name": "ApprovalForAll",
      "type": "event"
    },
    {
      "anonymous": false,
      "inputs": [
        {
          "indexed": true,
          "internalType": "address",
          "name": "user",
          "type": "address"
        },
        {
          "indexed": false,
          "internalType": "uint256",
          "name": "tokensToBurn",
          "type": "uint256"
        },
        {
          "indexed": false,
          "internalType": "uint256",
          "name": "ethAmount",
          "type": "uint256"
        }
      ],
      "name": "BurnLittercoin",
      "type": "event"
    },
    {
      "anonymous": false,
      "inputs": [
        {
          "indexed": true,
          "internalType": "address",
          "name": "user",
          "type": "address"
        },
        {
          "indexed": false,
          "internalType": "uint256",
          "name": "amount",
          "type": "uint256"
        }
      ],
      "name": "Mint",
      "type": "event"
    },
    {
      "anonymous": false,
      "inputs": [
        {
          "indexed": true,
          "internalType": "address",
          "name": "previousOwner",
          "type": "address"
        },
        {
          "indexed": true,
          "internalType": "address",
          "name": "newOwner",
          "type": "address"
        }
      ],
      "name": "OwnershipTransferred",
      "type": "event"
    },
    {
      "anonymous": false,
      "inputs": [
        {
          "indexed": true,
          "internalType": "address",
          "name": "user",
          "type": "address"
        },
        {
          "indexed": false,
          "internalType": "uint256",
          "name": "rewardAmount",
          "type": "uint256"
        }
      ],
      "name": "Reward",
      "type": "event"
    },
    {
      "anonymous": false,
      "inputs": [
        {
          "indexed": true,
          "internalType": "address",
          "name": "from",
          "type": "address"
        },
        {
          "indexed": true,
          "internalType": "address",
          "name": "to",
          "type": "address"
        },
        {
          "indexed": true,
          "internalType": "uint256",
          "name": "tokenId",
          "type": "uint256"
        }
      ],
      "name": "Transfer",
      "type": "event"
    },
    {
      "inputs": [],
      "name": "MAX_TRANSACTIONS",
      "outputs": [
        {
          "internalType": "uint256",
          "name": "",
          "type": "uint256"
        }
      ],
      "stateMutability": "view",
      "type": "function"
    },
    {
      "inputs": [
        {
          "internalType": "address",
          "name": "to",
          "type": "address"
        },
        {
          "internalType": "uint256",
          "name": "tokenId",
          "type": "uint256"
        }
      ],
      "name": "approve",
      "outputs": [],
      "stateMutability": "nonpayable",
      "type": "function"
    },
    {
      "inputs": [
        {
          "internalType": "address",
          "name": "owner",
          "type": "address"
        }
      ],
      "name": "balanceOf",
      "outputs": [
        {
          "internalType": "uint256",
          "name": "",
          "type": "uint256"
        }
      ],
      "stateMutability": "view",
      "type": "function"
    },
    {
      "inputs": [
        {
          "internalType": "uint256[]",
          "name": "tokenIds",
          "type": "uint256[]"
        }
      ],
      "name": "burnLittercoin",
      "outputs": [],
      "stateMutability": "nonpayable",
      "type": "function"
    },
    {
      "inputs": [
        {
          "internalType": "uint256",
          "name": "tokenId",
          "type": "uint256"
        }
      ],
      "name": "getApproved",
      "outputs": [
        {
          "internalType": "address",
          "name": "",
          "type": "address"
        }
      ],
      "stateMutability": "view",
      "type": "function"
    },
    {
      "inputs": [],
      "name": "getMerchantTokenAddress",
      "outputs": [
        {
          "internalType": "address",
          "name": "",
          "type": "address"
        }
      ],
      "stateMutability": "view",
      "type": "function"
    },
    {
      "inputs": [],
      "name": "getRewardTokenAddress",
      "outputs": [
        {
          "internalType": "address",
          "name": "",
          "type": "address"
        }
      ],
      "stateMutability": "view",
      "type": "function"
    },
    {
      "inputs": [
        {
          "internalType": "uint256",
          "name": "",
          "type": "uint256"
        }
      ],
      "name": "invalidTokens",
      "outputs": [
        {
          "internalType": "bool",
          "name": "",
          "type": "bool"
        }
      ],
      "stateMutability": "view",
      "type": "function"
    },
    {
      "inputs": [
        {
          "internalType": "address",
          "name": "owner",
          "type": "address"
        },
        {
          "internalType": "address",
          "name": "operator",
          "type": "address"
        }
      ],
      "name": "isApprovedForAll",
      "outputs": [
        {
          "internalType": "bool",
          "name": "",
          "type": "bool"
        }
      ],
      "stateMutability": "view",
      "type": "function"
    },
    {
      "inputs": [],
      "name": "merchantToken",
      "outputs": [
        {
          "internalType": "contract MerchantToken",
          "name": "",
          "type": "address"
        }
      ],
      "stateMutability": "view",
      "type": "function"
    },
    {
      "inputs": [
        {
          "internalType": "uint256",
          "name": "amount",
          "type": "uint256"
        },
        {
          "internalType": "uint256",
          "name": "nonce",
          "type": "uint256"
        },
        {
          "internalType": "uint256",
          "name": "expiry",
          "type": "uint256"
        },
        {
          "internalType": "bytes",
          "name": "signature",
          "type": "bytes"
        }
      ],
      "name": "mint",
      "outputs": [],
      "stateMutability": "nonpayable",
      "type": "function"
    },
    {
      "inputs": [],
      "name": "name",
      "outputs": [
        {
          "internalType": "string",
          "name": "",
          "type": "string"
        }
      ],
      "stateMutability": "view",
      "type": "function"
    },
    {
      "inputs": [],
      "name": "owner",
      "outputs": [
        {
          "internalType": "address",
          "name": "",
          "type": "address"
        }
      ],
      "stateMutability": "view",
      "type": "function"
    },
    {
      "inputs": [
        {
          "internalType": "uint256",
          "name": "tokenId",
          "type": "uint256"
        }
      ],
      "name": "ownerOf",
      "outputs": [
        {
          "internalType": "address",
          "name": "",
          "type": "address"
        }
      ],
      "stateMutability": "view",
      "type": "function"
    },
    {
      "inputs": [],
      "name": "renounceOwnership",
      "outputs": [],
      "stateMutability": "nonpayable",
      "type": "function"
    },
    {
      "inputs": [],
      "name": "rewardToken",
      "outputs": [
        {
          "internalType": "contract OLMRewardToken",
          "name": "",
          "type": "address"
        }
      ],
      "stateMutability": "view",
      "type": "function"
    },
    {
      "inputs": [
        {
          "internalType": "address",
          "name": "from",
          "type": "address"
        },
        {
          "internalType": "address",
          "name": "to",
          "type": "address"
        },
        {
          "internalType": "uint256",
          "name": "tokenId",
          "type": "uint256"
        }
      ],
      "name": "safeTransferFrom",
      "outputs": [],
      "stateMutability": "nonpayable",
      "type": "function"
    },
    {
      "inputs": [
        {
          "internalType": "address",
          "name": "from",
          "type": "address"
        },
        {
          "internalType": "address",
          "name": "to",
          "type": "address"
        },
        {
          "internalType": "uint256",
          "name": "tokenId",
          "type": "uint256"
        },
        {
          "internalType": "bytes",
          "name": "data",
          "type": "bytes"
        }
      ],
      "name": "safeTransferFrom",
      "outputs": [],
      "stateMutability": "nonpayable",
      "type": "function"
    },
    {
      "inputs": [
        {
          "internalType": "address",
          "name": "operator",
          "type": "address"
        },
        {
          "internalType": "bool",
          "name": "approved",
          "type": "bool"
        }
      ],
      "name": "setApprovalForAll",
      "outputs": [],
      "stateMutability": "nonpayable",
      "type": "function"
    },
    {
      "inputs": [
        {
          "internalType": "bytes4",
          "name": "interfaceId",
          "type": "bytes4"
        }
      ],
      "name": "supportsInterface",
      "outputs": [
        {
          "internalType": "bool",
          "name": "",
          "type": "bool"
        }
      ],
      "stateMutability": "view",
      "type": "function"
    },
    {
      "inputs": [],
      "name": "symbol",
      "outputs": [
        {
          "internalType": "string",
          "name": "",
          "type": "string"
        }
      ],
      "stateMutability": "view",
      "type": "function"
    },
    {
      "inputs": [
        {
          "internalType": "uint256",
          "name": "index",
          "type": "uint256"
        }
      ],
      "name": "tokenByIndex",
      "outputs": [
        {
          "internalType": "uint256",
          "name": "",
          "type": "uint256"
        }
      ],
      "stateMutability": "view",
      "type": "function"
    },
    {
      "inputs": [],
      "name": "tokenCounter",
      "outputs": [
        {
          "internalType": "uint256",
          "name": "",
          "type": "uint256"
        }
      ],
      "stateMutability": "view",
      "type": "function"
    },
    {
      "inputs": [
        {
          "internalType": "address",
          "name": "owner",
          "type": "address"
        },
        {
          "internalType": "uint256",
          "name": "index",
          "type": "uint256"
        }
      ],
      "name": "tokenOfOwnerByIndex",
      "outputs": [
        {
          "internalType": "uint256",
          "name": "",
          "type": "uint256"
        }
      ],
      "stateMutability": "view",
      "type": "function"
    },
    {
      "inputs": [
        {
          "internalType": "uint256",
          "name": "tokenId",
          "type": "uint256"
        }
      ],
      "name": "tokenURI",
      "outputs": [
        {
          "internalType": "string",
          "name": "",
          "type": "string"
        }
      ],
      "stateMutability": "view",
      "type": "function"
    },
    {
      "inputs": [],
      "name": "totalSupply",
      "outputs": [
        {
          "internalType": "uint256",
          "name": "",
          "type": "uint256"
        }
      ],
      "stateMutability": "view",
      "type": "function"
    },
    {
      "inputs": [
        {
          "internalType": "uint256",
          "name": "",
          "type": "uint256"
        }
      ],
      "name": "transferCount",
      "outputs": [
        {
          "internalType": "uint256",
          "name": "",
          "type": "uint256"
        }
      ],
      "stateMutability": "view",
      "type": "function"
    },
    {
      "inputs": [
        {
          "internalType": "address",
          "name": "from",
          "type": "address"
        },
        {
          "internalType": "address",
          "name": "to",
          "type": "address"
        },
        {
          "internalType": "uint256",
          "name": "tokenId",
          "type": "uint256"
        }
      ],
      "name": "transferFrom",
      "outputs": [],
      "stateMutability": "nonpayable",
      "type": "function"
    },
    {
      "inputs": [
        {
          "internalType": "address",
          "name": "newOwner",
          "type": "address"
        }
      ],
      "name": "transferOwnership",
      "outputs": [],
      "stateMutability": "nonpayable",
      "type": "function"
    },
    {
      "inputs": [
        {
          "internalType": "uint256",
          "name": "",
          "type": "uint256"
        }
      ],
      "name": "usedNonces",
      "outputs": [
        {
          "internalType": "bool",
          "name": "",
          "type": "bool"
        }
      ],
      "stateMutability": "view",
      "type": "function"
    },
    {
      "stateMutability": "payable",
      "type": "receive"
    }
  ],
  "bytecode": "0x608060405234801561001057600080fd5b5060405161ae8038038061ae808339818101604052810190610032919061046a565b6040518060400160405280600a81526020017f4c6974746572636f696e000000000000000000000000000000000000000000008152506040518060400160405280600781526020017f4c4954544552580000000000000000000000000000000000000000000000000081525081600090816100ad91906106e7565b5080600190816100bd91906106e7565b5050506100dc6100d161031f60201b60201c565b61032760201b60201c565b6001600b819055506001600c819055506040516100f8906103ed565b604051809103906000f080158015610114573d6000803e3d6000fd5b50601060006101000a81548173ffffffffffffffffffffffffffffffffffffffff021916908373ffffffffffffffffffffffffffffffffffffffff160217905550601060009054906101000a900473ffffffffffffffffffffffffffffffffffffffff1673ffffffffffffffffffffffffffffffffffffffff1663f2fde38b306040518263ffffffff1660e01b81526004016101b091906107c8565b600060405180830381600087803b1580156101ca57600080fd5b505af11580156101de573d6000803e3d6000fd5b505050506040516101ee906103fa565b604051809103906000f08015801561020a573d6000803e3d6000fd5b50601160006101000a81548173ffffffffffffffffffffffffffffffffffffffff021916908373ffffffffffffffffffffffffffffffffffffffff160217905550601160009054906101000a900473ffffffffffffffffffffffffffffffffffffffff1673ffffffffffffffffffffffffffffffffffffffff1663f2fde38b336040518263ffffffff1660e01b81526004016102a691906107c8565b600060405180830381600087803b1580156102c057600080fd5b505af11580156102d4573d6000803e3d6000fd5b5050505080601260006101000a81548173ffffffffffffffffffffffffffffffffffffffff021916908373ffffffffffffffffffffffffffffffffffffffff160217905550506107e3565b600033905090565b6000600a60009054906101000a900473ffffffffffffffffffffffffffffffffffffffff16905081600a60006101000a81548173ffffffffffffffffffffffffffffffffffffffff021916908373ffffffffffffffffffffffffffffffffffffffff1602179055508173ffffffffffffffffffffffffffffffffffffffff168173ffffffffffffffffffffffffffffffffffffffff167f8be0079c531659141344cd1fd0a4f28419497f9722a3daafe3b4186f6b6457e060405160405180910390a35050565b611c9f806157dc83390190565b613a058061747b83390190565b600080fd5b600073ffffffffffffffffffffffffffffffffffffffff82169050919050565b60006104378261040c565b9050919050565b6104478161042c565b811461045257600080fd5b50565b6000815190506104648161043e565b92915050565b6000602082840312156104805761047f610407565b5b600061048e84828501610455565b91505092915050565b600081519050919050565b7f4e487b7100000000000000000000000000000000000000000000000000000000600052604160045260246000fd5b7f4e487b7100000000000000000000000000000000000000000000000000000000600052602260045260246000fd5b6000600282049050600182168061051857607f821691505b60208210810361052b5761052a6104d1565b5b50919050565b60008190508160005260206000209050919050565b60006020601f8301049050919050565b600082821b905092915050565b6000600883026105937fffffffffffffffffffffffffffffffffffffffffffffffffffffffffffffffff82610556565b61059d8683610556565b95508019841693508086168417925050509392505050565b6000819050919050565b6000819050919050565b60006105e46105df6105da846105b5565b6105bf565b6105b5565b9050919050565b6000819050919050565b6105fe836105c9565b61061261060a826105eb565b848454610563565b825550505050565b600090565b61062761061a565b6106328184846105f5565b505050565b5b818110156106565761064b60008261061f565b600181019050610638565b5050565b601f82111561069b5761066c81610531565b61067584610546565b81016020851015610684578190505b61069861069085610546565b830182610637565b50505b505050565b600082821c905092915050565b60006106be600019846008026106a0565b1980831691505092915050565b60006106d783836106ad565b9150826002028217905092915050565b6106f082610497565b67ffffffffffffffff811115610709576107086104a2565b5b6107138254610500565b61071e82828561065a565b600060209050601f831160018114610751576000841561073f578287015190505b61074985826106cb565b8655506107b1565b601f19841661075f86610531565b60005b8281101561078757848901518255600182019150602085019450602081019050610762565b868310156107a457848901516107a0601f8916826106ad565b8355505b6001600288020188555050505b505050505050565b6107c28161042c565b82525050565b60006020820190506107dd60008301846107b9565b92915050565b614fea806107f26000396000f3fe6080604052600436106101d15760003560e01c8063715018a6116100f7578063b88d4fde11610095578063ec02ef5711610064578063ec02ef57146108b6578063f2fde38b146108f3578063f568c6c51461091c578063f7c618c114610947576103c1565b8063b88d4fde146107e8578063c87b56dd14610811578063d082e3811461084e578063e985e9c514610879576103c1565b80638da5cb5b116100d15780638da5cb5b1461073e57806395d89b411461076957806399e117a014610794578063a22cb465146107bf576103c1565b8063715018a6146106d1578063744c0f93146106e85780638c1a1f7714610713576103c1565b806323b872dd1161016f5780634f6ccce71161013e5780634f6ccce7146105dd5780636352211e1461061a5780636717e41c1461065757806370a0823114610694576103c1565b806323b872dd146105255780632f745c591461054e57806342842e0e1461058b5780634a9eee69146105b4576103c1565b8063095ea7b3116101ab578063095ea7b31461046b57806318160ddd146104945780631bb1953c146104bf5780631edf9acd146104fc576103c1565b806301ffc9a7146103c657806306fdde0314610403578063081812fc1461042e576103c1565b366103c15760003490506000601260009054906101000a900473ffffffffffffffffffffffffffffffffffffffff1673ffffffffffffffffffffffffffffffffffffffff1663feaf968c6040518163ffffffff1660e01b815260040160a060405180830381865afa15801561024a573d6000803e3d6000fd5b505050506040513d601f19601f8201168201806040525081019061026e919061327b565b505050915050600081136102b7576040517f08c379a00000000000000000000000000000000000000000000000000000000081526004016102ae90613353565b60405180910390fd5b600081905060006a52b7d2dcc80cd2e400000082856102d691906133a2565b6102e09190613413565b9050601060009054906101000a900473ffffffffffffffffffffffffffffffffffffffff1673ffffffffffffffffffffffffffffffffffffffff166340c10f1933836040518363ffffffff1660e01b815260040161033f929190613494565b600060405180830381600087803b15801561035957600080fd5b505af115801561036d573d6000803e3d6000fd5b505050503373ffffffffffffffffffffffffffffffffffffffff167f619caafabdd75649b302ba8419e48cccf64f37f1983ac4727cfb38b57703ffc9826040516103b791906134bd565b60405180910390a2005b600080fd5b3480156103d257600080fd5b506103ed60048036038101906103e89190613530565b610972565b6040516103fa9190613578565b60405180910390f35b34801561040f57600080fd5b50610418610984565b6040516104259190613612565b60405180910390f35b34801561043a57600080fd5b5061045560048036038101906104509190613649565b610a16565b6040516104629190613676565b60405180910390f35b34801561047757600080fd5b50610492600480360381019061048d91906136bd565b610a5c565b005b3480156104a057600080fd5b506104a9610b73565b6040516104b691906134bd565b60405180910390f35b3480156104cb57600080fd5b506104e660048036038101906104e19190613649565b610b80565b6040516104f39190613578565b60405180910390f35b34801561050857600080fd5b50610523600480360381019061051e9190613762565b610ba0565b005b34801561053157600080fd5b5061054c600480360381019061054791906137af565b61102f565b005b34801561055a57600080fd5b50610575600480360381019061057091906136bd565b61108f565b60405161058291906134bd565b60405180910390f35b34801561059757600080fd5b506105b260048036038101906105ad91906137af565b611134565b005b3480156105c057600080fd5b506105db60048036038101906105d69190613932565b611154565b005b3480156105e957600080fd5b5061060460048036038101906105ff9190613649565b6113dd565b60405161061191906134bd565b60405180910390f35b34801561062657600080fd5b50610641600480360381019061063c9190613649565b61144e565b60405161064e9190613676565b60405180910390f35b34801561066357600080fd5b5061067e60048036038101906106799190613649565b6114d4565b60405161068b9190613578565b60405180910390f35b3480156106a057600080fd5b506106bb60048036038101906106b691906139b5565b6114f4565b6040516106c891906134bd565b60405180910390f35b3480156106dd57600080fd5b506106e66115ab565b005b3480156106f457600080fd5b506106fd6115bf565b60405161070a9190613676565b60405180910390f35b34801561071f57600080fd5b506107286115e9565b6040516107359190613a41565b60405180910390f35b34801561074a57600080fd5b5061075361160f565b6040516107609190613676565b60405180910390f35b34801561077557600080fd5b5061077e611639565b60405161078b9190613612565b60405180910390f35b3480156107a057600080fd5b506107a96116cb565b6040516107b69190613676565b60405180910390f35b3480156107cb57600080fd5b506107e660048036038101906107e19190613a88565b6116f5565b005b3480156107f457600080fd5b5061080f600480360381019061080a9190613ac8565b61170b565b005b34801561081d57600080fd5b5061083860048036038101906108339190613649565b61176d565b6040516108459190613612565b60405180910390f35b34801561085a57600080fd5b506108636117d5565b60405161087091906134bd565b60405180910390f35b34801561088557600080fd5b506108a0600480360381019061089b9190613b4b565b6117db565b6040516108ad9190613578565b60405180910390f35b3480156108c257600080fd5b506108dd60048036038101906108d89190613649565b61186f565b6040516108ea91906134bd565b60405180910390f35b3480156108ff57600080fd5b5061091a600480360381019061091591906139b5565b611887565b005b34801561092857600080fd5b5061093161190a565b60405161093e91906134bd565b60405180910390f35b34801561095357600080fd5b5061095c61190f565b6040516109699190613bac565b60405180910390f35b600061097d82611935565b9050919050565b60606000805461099390613bf6565b80601f01602080910402602001604051908101604052809291908181526020018280546109bf90613bf6565b8015610a0c5780601f106109e157610100808354040283529160200191610a0c565b820191906000526020600020905b8154815290600101906020018083116109ef57829003601f168201915b5050505050905090565b6000610a21826119af565b6004600083815260200190815260200160002060009054906101000a900473ffffffffffffffffffffffffffffffffffffffff169050919050565b6000610a678261144e565b90508073ffffffffffffffffffffffffffffffffffffffff168373ffffffffffffffffffffffffffffffffffffffff1603610ad7576040517f08c379a0000000000000000000000000000000000000000000000000000000008152600401610ace90613c99565b60405180910390fd5b8073ffffffffffffffffffffffffffffffffffffffff16610af66119fa565b73ffffffffffffffffffffffffffffffffffffffff161480610b255750610b2481610b1f6119fa565b6117db565b5b610b64576040517f08c379a0000000000000000000000000000000000000000000000000000000008152600401610b5b90613d2b565b60405180910390fd5b610b6e8383611a02565b505050565b6000600880549050905090565b600e6020528060005260406000206000915054906101000a900460ff1681565b610ba8611abb565b600082829050905060008111610bf3576040517f08c379a0000000000000000000000000000000000000000000000000000000008152600401610bea90613d97565b60405180910390fd5b6000601160009054906101000a900473ffffffffffffffffffffffffffffffffffffffff1673ffffffffffffffffffffffffffffffffffffffff166370a08231336040518263ffffffff1660e01b8152600401610c509190613676565b602060405180830381865afa158015610c6d573d6000803e3d6000fd5b505050506040513d601f19601f82011682018060405250810190610c919190613db7565b11610cd1576040517f08c379a0000000000000000000000000000000000000000000000000000000008152600401610cc890613e30565b60405180910390fd5b601160009054906101000a900473ffffffffffffffffffffffffffffffffffffffff1673ffffffffffffffffffffffffffffffffffffffff166302556a29336040518263ffffffff1660e01b8152600401610d2c9190613676565b602060405180830381865afa158015610d49573d6000803e3d6000fd5b505050506040513d601f19601f82011682018060405250810190610d6d9190613e65565b610dac576040517f08c379a0000000000000000000000000000000000000000000000000000000008152600401610da390613f04565b60405180910390fd5b600047905060008111610df4576040517f08c379a0000000000000000000000000000000000000000000000000000000008152600401610deb90613f70565b60405180910390fd5b60005b82811015610f01576000858583818110610e1457610e13613f90565b5b9050602002013590503373ffffffffffffffffffffffffffffffffffffffff16610e3d8261144e565b73ffffffffffffffffffffffffffffffffffffffff1614610e93576040517f08c379a0000000000000000000000000000000000000000000000000000000008152600401610e8a90614031565b60405180910390fd5b6002600f6000838152602001908152602001600020541115610eea576040517f08c379a0000000000000000000000000000000000000000000000000000000008152600401610ee1906140c3565b60405180910390fd5b610ef381611b0a565b508080600101915050610df7565b5060008282610f109190613413565b905060008382610f2091906133a2565b905060003373ffffffffffffffffffffffffffffffffffffffff1682604051610f4890614114565b60006040518083038185875af1925050503d8060008114610f85576040519150601f19603f3d011682016040523d82523d6000602084013e610f8a565b606091505b5050905080610fce576040517f08c379a0000000000000000000000000000000000000000000000000000000008152600401610fc590614175565b60405180910390fd5b3373ffffffffffffffffffffffffffffffffffffffff167f62c43c4ca6239525d02ec5d50013da458e2aabd6147394ddd139edae8d84439b8684604051611016929190614195565b60405180910390a2505050505061102b611c58565b5050565b61104061103a6119fa565b82611c62565b61107f576040517f08c379a000000000000000000000000000000000000000000000000000000000815260040161107690614230565b60405180910390fd5b61108a838383611cf7565b505050565b600061109a836114f4565b82106110db576040517f08c379a00000000000000000000000000000000000000000000000000000000081526004016110d2906142c2565b60405180910390fd5b600660008473ffffffffffffffffffffffffffffffffffffffff1673ffffffffffffffffffffffffffffffffffffffff168152602001908152602001600020600083815260200190815260200160002054905092915050565b61114f8383836040518060200160405280600081525061170b565b505050565b60008411611197576040517f08c379a000000000000000000000000000000000000000000000000000000000815260040161118e9061432e565b60405180910390fd5b814211156111da576040517f08c379a00000000000000000000000000000000000000000000000000000000081526004016111d19061439a565b60405180910390fd5b600d600084815260200190815260200160002060009054906101000a900460ff161561123b576040517f08c379a000000000000000000000000000000000000000000000000000000000815260040161123290614406565b60405180910390fd5b6001600d600085815260200190815260200160002060006101000a81548160ff021916908315150217905550600033858585604051602001611280949392919061448f565b60405160208183030381529060405280519060200120905060006112a382611ff0565b905060006112b18285612020565b90506112bb61160f565b73ffffffffffffffffffffffffffffffffffffffff168173ffffffffffffffffffffffffffffffffffffffff1614611328576040517f08c379a000000000000000000000000000000000000000000000000000000000815260040161131f90614529565b60405180910390fd5b60005b87811015611385576000600c5490506001600c600082825461134d9190614549565b9250508190555061135e338261208f565b6000600f60008381526020019081526020016000208190555050808060010191505061132b565b503373ffffffffffffffffffffffffffffffffffffffff167f0f6798a560793a54c3bcfe86a93cde1e73087d944c0ea20544137d4121396885886040516113cc91906134bd565b60405180910390a250505050505050565b60006113e7610b73565b8210611428576040517f08c379a000000000000000000000000000000000000000000000000000000000815260040161141f906145ef565b60405180910390fd5b6008828154811061143c5761143b613f90565b5b90600052602060002001549050919050565b60008061145a836120ad565b9050600073ffffffffffffffffffffffffffffffffffffffff168173ffffffffffffffffffffffffffffffffffffffff16036114cb576040517f08c379a00000000000000000000000000000000000000000000000000000000081526004016114c29061465b565b60405180910390fd5b80915050919050565b600d6020528060005260406000206000915054906101000a900460ff1681565b60008073ffffffffffffffffffffffffffffffffffffffff168273ffffffffffffffffffffffffffffffffffffffff1603611564576040517f08c379a000000000000000000000000000000000000000000000000000000000815260040161155b906146ed565b60405180910390fd5b600360008373ffffffffffffffffffffffffffffffffffffffff1673ffffffffffffffffffffffffffffffffffffffff168152602001908152602001600020549050919050565b6115b36120ea565b6115bd6000612168565b565b6000601160009054906101000a900473ffffffffffffffffffffffffffffffffffffffff16905090565b601160009054906101000a900473ffffffffffffffffffffffffffffffffffffffff1681565b6000600a60009054906101000a900473ffffffffffffffffffffffffffffffffffffffff16905090565b60606001805461164890613bf6565b80601f016020809104026020016040519081016040528092919081815260200182805461167490613bf6565b80156116c15780601f10611696576101008083540402835291602001916116c1565b820191906000526020600020905b8154815290600101906020018083116116a457829003601f168201915b5050505050905090565b6000601060009054906101000a900473ffffffffffffffffffffffffffffffffffffffff16905090565b6117076117006119fa565b838361222e565b5050565b61171c6117166119fa565b83611c62565b61175b576040517f08c379a000000000000000000000000000000000000000000000000000000000815260040161175290614230565b60405180910390fd5b6117678484848461239a565b50505050565b6060611778826119af565b60006117826123f6565b905060008151116117a257604051806020016040528060008152506117cd565b806117ac8461240d565b6040516020016117bd929190614749565b6040516020818303038152906040525b915050919050565b600c5481565b6000600560008473ffffffffffffffffffffffffffffffffffffffff1673ffffffffffffffffffffffffffffffffffffffff16815260200190815260200160002060008373ffffffffffffffffffffffffffffffffffffffff1673ffffffffffffffffffffffffffffffffffffffff16815260200190815260200160002060009054906101000a900460ff16905092915050565b600f6020528060005260406000206000915090505481565b61188f6120ea565b600073ffffffffffffffffffffffffffffffffffffffff168173ffffffffffffffffffffffffffffffffffffffff16036118fe576040517f08c379a00000000000000000000000000000000000000000000000000000000081526004016118f5906147df565b60405180910390fd5b61190781612168565b50565b600381565b601060009054906101000a900473ffffffffffffffffffffffffffffffffffffffff1681565b60007f780e9d63000000000000000000000000000000000000000000000000000000007bffffffffffffffffffffffffffffffffffffffffffffffffffffffff1916827bffffffffffffffffffffffffffffffffffffffffffffffffffffffff191614806119a857506119a7826124db565b5b9050919050565b6119b8816125bd565b6119f7576040517f08c379a00000000000000000000000000000000000000000000000000000000081526004016119ee9061465b565b60405180910390fd5b50565b600033905090565b816004600083815260200190815260200160002060006101000a81548173ffffffffffffffffffffffffffffffffffffffff021916908373ffffffffffffffffffffffffffffffffffffffff160217905550808273ffffffffffffffffffffffffffffffffffffffff16611a758361144e565b73ffffffffffffffffffffffffffffffffffffffff167f8c5be1e5ebec7d5bd14f71427d1e84f3dd0314c0f7b2291e5b200ac8c7c3b92560405160405180910390a45050565b6002600b5403611b00576040517f08c379a0000000000000000000000000000000000000000000000000000000008152600401611af79061484b565b60405180910390fd5b6002600b81905550565b6000611b158261144e565b9050611b258160008460016125fe565b611b2e8261144e565b90506004600083815260200190815260200160002060006101000a81549073ffffffffffffffffffffffffffffffffffffffff02191690556001600360008373ffffffffffffffffffffffffffffffffffffffff1673ffffffffffffffffffffffffffffffffffffffff168152602001908152602001600020600082825403925050819055506002600083815260200190815260200160002060006101000a81549073ffffffffffffffffffffffffffffffffffffffff021916905581600073ffffffffffffffffffffffffffffffffffffffff168273ffffffffffffffffffffffffffffffffffffffff167fddf252ad1be2c89b69c2b068fc378daa952ba7f163c4a11628f55a4df523b3ef60405160405180910390a4611c54816000846001612702565b5050565b6001600b81905550565b600080611c6e8361144e565b90508073ffffffffffffffffffffffffffffffffffffffff168473ffffffffffffffffffffffffffffffffffffffff161480611cb05750611caf81856117db565b5b80611cee57508373ffffffffffffffffffffffffffffffffffffffff16611cd684610a16565b73ffffffffffffffffffffffffffffffffffffffff16145b91505092915050565b8273ffffffffffffffffffffffffffffffffffffffff16611d178261144e565b73ffffffffffffffffffffffffffffffffffffffff1614611d6d576040517f08c379a0000000000000000000000000000000000000000000000000000000008152600401611d64906148dd565b60405180910390fd5b600073ffffffffffffffffffffffffffffffffffffffff168273ffffffffffffffffffffffffffffffffffffffff1603611ddc576040517f08c379a0000000000000000000000000000000000000000000000000000000008152600401611dd39061496f565b60405180910390fd5b611de983838360016125fe565b8273ffffffffffffffffffffffffffffffffffffffff16611e098261144e565b73ffffffffffffffffffffffffffffffffffffffff1614611e5f576040517f08c379a0000000000000000000000000000000000000000000000000000000008152600401611e56906148dd565b60405180910390fd5b6004600082815260200190815260200160002060006101000a81549073ffffffffffffffffffffffffffffffffffffffff02191690556001600360008573ffffffffffffffffffffffffffffffffffffffff1673ffffffffffffffffffffffffffffffffffffffff168152602001908152602001600020600082825403925050819055506001600360008473ffffffffffffffffffffffffffffffffffffffff1673ffffffffffffffffffffffffffffffffffffffff16815260200190815260200160002060008282540192505081905550816002600083815260200190815260200160002060006101000a81548173ffffffffffffffffffffffffffffffffffffffff021916908373ffffffffffffffffffffffffffffffffffffffff160217905550808273ffffffffffffffffffffffffffffffffffffffff168473ffffffffffffffffffffffffffffffffffffffff167fddf252ad1be2c89b69c2b068fc378daa952ba7f163c4a11628f55a4df523b3ef60405160405180910390a4611feb8383836001612702565b505050565b6000816040516020016120039190614a06565b604051602081830303815290604052805190602001209050919050565b60008060008061202f85612708565b925092509250600186828585604051600081526020016040526040516120589493929190614a57565b6020604051602081039080840390855afa15801561207a573d6000803e3d6000fd5b50505060206040510351935050505092915050565b6120a9828260405180602001604052806000815250612770565b5050565b60006002600083815260200190815260200160002060009054906101000a900473ffffffffffffffffffffffffffffffffffffffff169050919050565b6120f26119fa565b73ffffffffffffffffffffffffffffffffffffffff1661211061160f565b73ffffffffffffffffffffffffffffffffffffffff1614612166576040517f08c379a000000000000000000000000000000000000000000000000000000000815260040161215d90614ae8565b60405180910390fd5b565b6000600a60009054906101000a900473ffffffffffffffffffffffffffffffffffffffff16905081600a60006101000a81548173ffffffffffffffffffffffffffffffffffffffff021916908373ffffffffffffffffffffffffffffffffffffffff1602179055508173ffffffffffffffffffffffffffffffffffffffff168173ffffffffffffffffffffffffffffffffffffffff167f8be0079c531659141344cd1fd0a4f28419497f9722a3daafe3b4186f6b6457e060405160405180910390a35050565b8173ffffffffffffffffffffffffffffffffffffffff168373ffffffffffffffffffffffffffffffffffffffff160361229c576040517f08c379a000000000000000000000000000000000000000000000000000000000815260040161229390614b54565b60405180910390fd5b80600560008573ffffffffffffffffffffffffffffffffffffffff1673ffffffffffffffffffffffffffffffffffffffff16815260200190815260200160002060008473ffffffffffffffffffffffffffffffffffffffff1673ffffffffffffffffffffffffffffffffffffffff16815260200190815260200160002060006101000a81548160ff0219169083151502179055508173ffffffffffffffffffffffffffffffffffffffff168373ffffffffffffffffffffffffffffffffffffffff167f17307eab39ab6107e8899845ad3d59bd9653f200f220920489ca2b5937696c318360405161238d9190613578565b60405180910390a3505050565b6123a5848484611cf7565b6123b1848484846127cb565b6123f0576040517f08c379a00000000000000000000000000000000000000000000000000000000081526004016123e790614be6565b60405180910390fd5b50505050565b606060405180602001604052806000815250905090565b60606000600161241c84612952565b01905060008167ffffffffffffffff81111561243b5761243a613807565b5b6040519080825280601f01601f19166020018201604052801561246d5781602001600182028036833780820191505090505b509050600082602001820190505b6001156124d0578080600190039150507f3031323334353637383961626364656600000000000000000000000000000000600a86061a8153600a85816124c4576124c36133e4565b5b0494506000850361247b575b819350505050919050565b60007f80ac58cd000000000000000000000000000000000000000000000000000000007bffffffffffffffffffffffffffffffffffffffffffffffffffffffff1916827bffffffffffffffffffffffffffffffffffffffffffffffffffffffff191614806125a657507f5b5e139f000000000000000000000000000000000000000000000000000000007bffffffffffffffffffffffffffffffffffffffffffffffffffffffff1916827bffffffffffffffffffffffffffffffffffffffffffffffffffffffff1916145b806125b657506125b582612aa5565b5b9050919050565b60008073ffffffffffffffffffffffffffffffffffffffff166125df836120ad565b73ffffffffffffffffffffffffffffffffffffffff1614159050919050565b61260a84848484612b0f565b600073ffffffffffffffffffffffffffffffffffffffff168473ffffffffffffffffffffffffffffffffffffffff16141580156126745750600073ffffffffffffffffffffffffffffffffffffffff168373ffffffffffffffffffffffffffffffffffffffff1614155b156126fc576001600f6000848152602001908152602001600020600082825461269d9190614549565b925050819055506003600f60008481526020019081526020016000205411156126fb576040517f08c379a00000000000000000000000000000000000000000000000000000000081526004016126f290614c78565b60405180910390fd5b5b50505050565b50505050565b60008060006041845114612751576040517f08c379a000000000000000000000000000000000000000000000000000000000815260040161274890614ce4565b60405180910390fd5b6020840151925060408401519150606084015160001a90509193909250565b61277a8383612c6d565b61278760008484846127cb565b6127c6576040517f08c379a00000000000000000000000000000000000000000000000000000000081526004016127bd90614be6565b60405180910390fd5b505050565b60006127ec8473ffffffffffffffffffffffffffffffffffffffff16612e8a565b15612945578373ffffffffffffffffffffffffffffffffffffffff1663150b7a026128156119fa565b8786866040518563ffffffff1660e01b81526004016128379493929190614d59565b6020604051808303816000875af192505050801561287357506040513d601f19601f820116820180604052508101906128709190614dba565b60015b6128f5573d80600081146128a3576040519150601f19603f3d011682016040523d82523d6000602084013e6128a8565b606091505b5060008151036128ed576040517f08c379a00000000000000000000000000000000000000000000000000000000081526004016128e490614be6565b60405180910390fd5b805181602001fd5b63150b7a0260e01b7bffffffffffffffffffffffffffffffffffffffffffffffffffffffff1916817bffffffffffffffffffffffffffffffffffffffffffffffffffffffff19161491505061294a565b600190505b949350505050565b600080600090507a184f03e93ff9f4daa797ed6e38ed64bf6a1f01000000000000000083106129b0577a184f03e93ff9f4daa797ed6e38ed64bf6a1f01000000000000000083816129a6576129a56133e4565b5b0492506040810190505b6d04ee2d6d415b85acef810000000083106129ed576d04ee2d6d415b85acef810000000083816129e3576129e26133e4565b5b0492506020810190505b662386f26fc100008310612a1c57662386f26fc100008381612a1257612a116133e4565b5b0492506010810190505b6305f5e1008310612a45576305f5e1008381612a3b57612a3a6133e4565b5b0492506008810190505b6127108310612a6a576127108381612a6057612a5f6133e4565b5b0492506004810190505b60648310612a8d5760648381612a8357612a826133e4565b5b0492506002810190505b600a8310612a9c576001810190505b80915050919050565b60007f01ffc9a7000000000000000000000000000000000000000000000000000000007bffffffffffffffffffffffffffffffffffffffffffffffffffffffff1916827bffffffffffffffffffffffffffffffffffffffffffffffffffffffff1916149050919050565b612b1b84848484612ead565b6001811115612b5f576040517f08c379a0000000000000000000000000000000000000000000000000000000008152600401612b5690614e59565b60405180910390fd5b6000829050600073ffffffffffffffffffffffffffffffffffffffff168573ffffffffffffffffffffffffffffffffffffffff1603612ba657612ba181612eb3565b612be5565b8373ffffffffffffffffffffffffffffffffffffffff168573ffffffffffffffffffffffffffffffffffffffff1614612be457612be38582612efc565b5b5b600073ffffffffffffffffffffffffffffffffffffffff168473ffffffffffffffffffffffffffffffffffffffff1603612c2757612c2281613069565b612c66565b8473ffffffffffffffffffffffffffffffffffffffff168473ffffffffffffffffffffffffffffffffffffffff1614612c6557612c64848261313a565b5b5b5050505050565b600073ffffffffffffffffffffffffffffffffffffffff168273ffffffffffffffffffffffffffffffffffffffff1603612cdc576040517f08c379a0000000000000000000000000000000000000000000000000000000008152600401612cd390614ec5565b60405180910390fd5b612ce5816125bd565b15612d25576040517f08c379a0000000000000000000000000000000000000000000000000000000008152600401612d1c90614f31565b60405180910390fd5b612d336000838360016125fe565b612d3c816125bd565b15612d7c576040517f08c379a0000000000000000000000000000000000000000000000000000000008152600401612d7390614f31565b60405180910390fd5b6001600360008473ffffffffffffffffffffffffffffffffffffffff1673ffffffffffffffffffffffffffffffffffffffff16815260200190815260200160002060008282540192505081905550816002600083815260200190815260200160002060006101000a81548173ffffffffffffffffffffffffffffffffffffffff021916908373ffffffffffffffffffffffffffffffffffffffff160217905550808273ffffffffffffffffffffffffffffffffffffffff16600073ffffffffffffffffffffffffffffffffffffffff167fddf252ad1be2c89b69c2b068fc378daa952ba7f163c4a11628f55a4df523b3ef60405160405180910390a4612e86600083836001612702565b5050565b6000808273ffffffffffffffffffffffffffffffffffffffff163b119050919050565b50505050565b6008805490506009600083815260200190815260200160002081905550600881908060018154018082558091505060019003906000526020600020016000909190919091505550565b60006001612f09846114f4565b612f139190614f51565b9050600060076000848152602001908152602001600020549050818114612ff8576000600660008673ffffffffffffffffffffffffffffffffffffffff1673ffffffffffffffffffffffffffffffffffffffff168152602001908152602001600020600084815260200190815260200160002054905080600660008773ffffffffffffffffffffffffffffffffffffffff1673ffffffffffffffffffffffffffffffffffffffff168152602001908152602001600020600084815260200190815260200160002081905550816007600083815260200190815260200160002081905550505b6007600084815260200190815260200160002060009055600660008573ffffffffffffffffffffffffffffffffffffffff1673ffffffffffffffffffffffffffffffffffffffff16815260200190815260200160002060008381526020019081526020016000206000905550505050565b6000600160088054905061307d9190614f51565b90506000600960008481526020019081526020016000205490506000600883815481106130ad576130ac613f90565b5b9060005260206000200154905080600883815481106130cf576130ce613f90565b5b90600052602060002001819055508160096000838152602001908152602001600020819055506009600085815260200190815260200160002060009055600880548061311e5761311d614f85565b5b6001900381819060005260206000200160009055905550505050565b6000613145836114f4565b905081600660008573ffffffffffffffffffffffffffffffffffffffff1673ffffffffffffffffffffffffffffffffffffffff168152602001908152602001600020600083815260200190815260200160002081905550806007600084815260200190815260200160002081905550505050565b6000604051905090565b600080fd5b600080fd5b600069ffffffffffffffffffff82169050919050565b6131ec816131cd565b81146131f757600080fd5b50565b600081519050613209816131e3565b92915050565b6000819050919050565b6132228161320f565b811461322d57600080fd5b50565b60008151905061323f81613219565b92915050565b6000819050919050565b61325881613245565b811461326357600080fd5b50565b6000815190506132758161324f565b92915050565b600080600080600060a08688031215613297576132966131c3565b5b60006132a5888289016131fa565b95505060206132b688828901613230565b94505060406132c788828901613266565b93505060606132d888828901613266565b92505060806132e9888289016131fa565b9150509295509295909350565b600082825260208201905092915050565b7f496e76616c69642070726963652066726f6d20436861696e6c696e6b00000000600082015250565b600061333d601c836132f6565b915061334882613307565b602082019050919050565b6000602082019050818103600083015261336c81613330565b9050919050565b7f4e487b7100000000000000000000000000000000000000000000000000000000600052601160045260246000fd5b60006133ad82613245565b91506133b883613245565b92508282026133c681613245565b915082820484148315176133dd576133dc613373565b5b5092915050565b7f4e487b7100000000000000000000000000000000000000000000000000000000600052601260045260246000fd5b600061341e82613245565b915061342983613245565b925082613439576134386133e4565b5b828204905092915050565b600073ffffffffffffffffffffffffffffffffffffffff82169050919050565b600061346f82613444565b9050919050565b61347f81613464565b82525050565b61348e81613245565b82525050565b60006040820190506134a96000830185613476565b6134b66020830184613485565b9392505050565b60006020820190506134d26000830184613485565b92915050565b60007fffffffff0000000000000000000000000000000000000000000000000000000082169050919050565b61350d816134d8565b811461351857600080fd5b50565b60008135905061352a81613504565b92915050565b600060208284031215613546576135456131c3565b5b60006135548482850161351b565b91505092915050565b60008115159050919050565b6135728161355d565b82525050565b600060208201905061358d6000830184613569565b92915050565b600081519050919050565b60005b838110156135bc5780820151818401526020810190506135a1565b60008484015250505050565b6000601f19601f8301169050919050565b60006135e482613593565b6135ee81856132f6565b93506135fe81856020860161359e565b613607816135c8565b840191505092915050565b6000602082019050818103600083015261362c81846135d9565b905092915050565b6000813590506136438161324f565b92915050565b60006020828403121561365f5761365e6131c3565b5b600061366d84828501613634565b91505092915050565b600060208201905061368b6000830184613476565b92915050565b61369a81613464565b81146136a557600080fd5b50565b6000813590506136b781613691565b92915050565b600080604083850312156136d4576136d36131c3565b5b60006136e2858286016136a8565b92505060206136f385828601613634565b9150509250929050565b600080fd5b600080fd5b600080fd5b60008083601f840112613722576137216136fd565b5b8235905067ffffffffffffffff81111561373f5761373e613702565b5b60208301915083602082028301111561375b5761375a613707565b5b9250929050565b60008060208385031215613779576137786131c3565b5b600083013567ffffffffffffffff811115613797576137966131c8565b5b6137a38582860161370c565b92509250509250929050565b6000806000606084860312156137c8576137c76131c3565b5b60006137d6868287016136a8565b93505060206137e7868287016136a8565b92505060406137f886828701613634565b9150509250925092565b600080fd5b7f4e487b7100000000000000000000000000000000000000000000000000000000600052604160045260246000fd5b61383f826135c8565b810181811067ffffffffffffffff8211171561385e5761385d613807565b5b80604052505050565b60006138716131b9565b905061387d8282613836565b919050565b600067ffffffffffffffff82111561389d5761389c613807565b5b6138a6826135c8565b9050602081019050919050565b82818337600083830152505050565b60006138d56138d084613882565b613867565b9050828152602081018484840111156138f1576138f0613802565b5b6138fc8482856138b3565b509392505050565b600082601f830112613919576139186136fd565b5b81356139298482602086016138c2565b91505092915050565b6000806000806080858703121561394c5761394b6131c3565b5b600061395a87828801613634565b945050602061396b87828801613634565b935050604061397c87828801613634565b925050606085013567ffffffffffffffff81111561399d5761399c6131c8565b5b6139a987828801613904565b91505092959194509250565b6000602082840312156139cb576139ca6131c3565b5b60006139d9848285016136a8565b91505092915050565b6000819050919050565b6000613a07613a026139fd84613444565b6139e2565b613444565b9050919050565b6000613a19826139ec565b9050919050565b6000613a2b82613a0e565b9050919050565b613a3b81613a20565b82525050565b6000602082019050613a566000830184613a32565b92915050565b613a658161355d565b8114613a7057600080fd5b50565b600081359050613a8281613a5c565b92915050565b60008060408385031215613a9f57613a9e6131c3565b5b6000613aad858286016136a8565b9250506020613abe85828601613a73565b9150509250929050565b60008060008060808587031215613ae257613ae16131c3565b5b6000613af0878288016136a8565b9450506020613b01878288016136a8565b9350506040613b1287828801613634565b925050606085013567ffffffffffffffff811115613b3357613b326131c8565b5b613b3f87828801613904565b91505092959194509250565b60008060408385031215613b6257613b616131c3565b5b6000613b70858286016136a8565b9250506020613b81858286016136a8565b9150509250929050565b6000613b9682613a0e565b9050919050565b613ba681613b8b565b82525050565b6000602082019050613bc16000830184613b9d565b92915050565b7f4e487b7100000000000000000000000000000000000000000000000000000000600052602260045260246000fd5b60006002820490506001821680613c0e57607f821691505b602082108103613c2157613c20613bc7565b5b50919050565b7f4552433732313a20617070726f76616c20746f2063757272656e74206f776e6560008201527f7200000000000000000000000000000000000000000000000000000000000000602082015250565b6000613c836021836132f6565b9150613c8e82613c27565b604082019050919050565b60006020820190508181036000830152613cb281613c76565b9050919050565b7f4552433732313a20617070726f76652063616c6c6572206973206e6f7420746f60008201527f6b656e206f776e6572206f7220617070726f76656420666f7220616c6c000000602082015250565b6000613d15603d836132f6565b9150613d2082613cb9565b604082019050919050565b60006020820190508181036000830152613d4481613d08565b9050919050565b7f4e6f20746f6b656e732070726f76696465642e00000000000000000000000000600082015250565b6000613d816013836132f6565b9150613d8c82613d4b565b602082019050919050565b60006020820190508181036000830152613db081613d74565b9050919050565b600060208284031215613dcd57613dcc6131c3565b5b6000613ddb84828501613266565b91505092915050565b7f4d75737420686f6c642061204d65726368616e7420546f6b656e2e0000000000600082015250565b6000613e1a601b836132f6565b9150613e2582613de4565b602082019050919050565b60006020820190508181036000830152613e4981613e0d565b9050919050565b600081519050613e5f81613a5c565b92915050565b600060208284031215613e7b57613e7a6131c3565b5b6000613e8984828501613e50565b91505092915050565b7f4d75737420686f6c6420612056616c6964204d65726368616e7420546f6b656e60008201527f2e00000000000000000000000000000000000000000000000000000000000000602082015250565b6000613eee6021836132f6565b9150613ef982613e92565b604082019050919050565b60006020820190508181036000830152613f1d81613ee1565b9050919050565b7f4e6f7420656e6f7567682045544820696e20636f6e74726163742e0000000000600082015250565b6000613f5a601b836132f6565b9150613f6582613f24565b602082019050919050565b60006020820190508181036000830152613f8981613f4d565b9050919050565b7f4e487b7100000000000000000000000000000000000000000000000000000000600052603260045260246000fd5b7f43616c6c6572206d757374206f776e20616c6c20746f6b656e73206265696e6760008201527f2072656465656d65642e00000000000000000000000000000000000000000000602082015250565b600061401b602a836132f6565b915061402682613fbf565b604082019050919050565b6000602082019050818103600083015261404a8161400e565b9050919050565b7f546f6b656e20686173206265656e20696e76616c69646174656420647565207460008201527f6f20746f6f206d616e79207472616e73666572732e0000000000000000000000602082015250565b60006140ad6035836132f6565b91506140b882614051565b604082019050919050565b600060208201905081810360008301526140dc816140a0565b9050919050565b600081905092915050565b50565b60006140fe6000836140e3565b9150614109826140ee565b600082019050919050565b600061411f826140f1565b9150819050919050565b7f5472616e73666572206661696c65640000000000000000000000000000000000600082015250565b600061415f600f836132f6565b915061416a82614129565b602082019050919050565b6000602082019050818103600083015261418e81614152565b9050919050565b60006040820190506141aa6000830185613485565b6141b76020830184613485565b9392505050565b7f4552433732313a2063616c6c6572206973206e6f7420746f6b656e206f776e6560008201527f72206f7220617070726f76656400000000000000000000000000000000000000602082015250565b600061421a602d836132f6565b9150614225826141be565b604082019050919050565b600060208201905081810360008301526142498161420d565b9050919050565b7f455243373231456e756d657261626c653a206f776e657220696e646578206f7560008201527f74206f6620626f756e6473000000000000000000000000000000000000000000602082015250565b60006142ac602b836132f6565b91506142b782614250565b604082019050919050565b600060208201905081810360008301526142db8161429f565b9050919050565b7f416d6f756e74206d7573742062652067726561746572207468616e207a65726f600082015250565b60006143186020836132f6565b9150614323826142e2565b602082019050919050565b600060208201905081810360008301526143478161430b565b9050919050565b7f5369676e61747572652065787069726564000000000000000000000000000000600082015250565b60006143846011836132f6565b915061438f8261434e565b602082019050919050565b600060208201905081810360008301526143b381614377565b9050919050565b7f4e6f6e636520616c726561647920757365640000000000000000000000000000600082015250565b60006143f06012836132f6565b91506143fb826143ba565b602082019050919050565b6000602082019050818103600083015261441f816143e3565b9050919050565b60008160601b9050919050565b600061443e82614426565b9050919050565b600061445082614433565b9050919050565b61446861446382613464565b614445565b82525050565b6000819050919050565b61448961448482613245565b61446e565b82525050565b600061449b8287614457565b6014820191506144ab8286614478565b6020820191506144bb8285614478565b6020820191506144cb8284614478565b60208201915081905095945050505050565b7f496e76616c6964207369676e6174757265000000000000000000000000000000600082015250565b60006145136011836132f6565b915061451e826144dd565b602082019050919050565b6000602082019050818103600083015261454281614506565b9050919050565b600061455482613245565b915061455f83613245565b925082820190508082111561457757614576613373565b5b92915050565b7f455243373231456e756d657261626c653a20676c6f62616c20696e646578206f60008201527f7574206f6620626f756e64730000000000000000000000000000000000000000602082015250565b60006145d9602c836132f6565b91506145e48261457d565b604082019050919050565b60006020820190508181036000830152614608816145cc565b9050919050565b7f4552433732313a20696e76616c696420746f6b656e2049440000000000000000600082015250565b60006146456018836132f6565b91506146508261460f565b602082019050919050565b6000602082019050818103600083015261467481614638565b9050919050565b7f4552433732313a2061646472657373207a65726f206973206e6f74206120766160008201527f6c6964206f776e65720000000000000000000000000000000000000000000000602082015250565b60006146d76029836132f6565b91506146e28261467b565b604082019050919050565b60006020820190508181036000830152614706816146ca565b9050919050565b600081905092915050565b600061472382613593565b61472d818561470d565b935061473d81856020860161359e565b80840191505092915050565b60006147558285614718565b91506147618284614718565b91508190509392505050565b7f4f776e61626c653a206e6577206f776e657220697320746865207a65726f206160008201527f6464726573730000000000000000000000000000000000000000000000000000602082015250565b60006147c96026836132f6565b91506147d48261476d565b604082019050919050565b600060208201905081810360008301526147f8816147bc565b9050919050565b7f5265656e7472616e637947756172643a207265656e7472616e742063616c6c00600082015250565b6000614835601f836132f6565b9150614840826147ff565b602082019050919050565b6000602082019050818103600083015261486481614828565b9050919050565b7f4552433732313a207472616e736665722066726f6d20696e636f72726563742060008201527f6f776e6572000000000000000000000000000000000000000000000000000000602082015250565b60006148c76025836132f6565b91506148d28261486b565b604082019050919050565b600060208201905081810360008301526148f6816148ba565b9050919050565b7f4552433732313a207472616e7366657220746f20746865207a65726f2061646460008201527f7265737300000000000000000000000000000000000000000000000000000000602082015250565b60006149596024836132f6565b9150614964826148fd565b604082019050919050565b600060208201905081810360008301526149888161494c565b9050919050565b7f19457468657265756d205369676e6564204d6573736167653a0a333200000000600082015250565b60006149c5601c8361470d565b91506149d08261498f565b601c82019050919050565b6000819050919050565b6000819050919050565b614a006149fb826149db565b6149e5565b82525050565b6000614a11826149b8565b9150614a1d82846149ef565b60208201915081905092915050565b614a35816149db565b82525050565b600060ff82169050919050565b614a5181614a3b565b82525050565b6000608082019050614a6c6000830187614a2c565b614a796020830186614a48565b614a866040830185614a2c565b614a936060830184614a2c565b95945050505050565b7f4f776e61626c653a2063616c6c6572206973206e6f7420746865206f776e6572600082015250565b6000614ad26020836132f6565b9150614add82614a9c565b602082019050919050565b60006020820190508181036000830152614b0181614ac5565b9050919050565b7f4552433732313a20617070726f766520746f2063616c6c657200000000000000600082015250565b6000614b3e6019836132f6565b9150614b4982614b08565b602082019050919050565b60006020820190508181036000830152614b6d81614b31565b9050919050565b7f4552433732313a207472616e7366657220746f206e6f6e20455243373231526560008201527f63656976657220696d706c656d656e7465720000000000000000000000000000602082015250565b6000614bd06032836132f6565b9150614bdb82614b74565b604082019050919050565b60006020820190508181036000830152614bff81614bc3565b9050919050565b7f546f6b656e207472616e7366657220636f756e74206578636565646564206c6960008201527f6d69742c20746f6b656e206973206e6f7720696e76616c6964617465642e0000602082015250565b6000614c62603e836132f6565b9150614c6d82614c06565b604082019050919050565b60006020820190508181036000830152614c9181614c55565b9050919050565b7f496e76616c6964207369676e6174757265206c656e6774680000000000000000600082015250565b6000614cce6018836132f6565b9150614cd982614c98565b602082019050919050565b60006020820190508181036000830152614cfd81614cc1565b9050919050565b600081519050919050565b600082825260208201905092915050565b6000614d2b82614d04565b614d358185614d0f565b9350614d4581856020860161359e565b614d4e816135c8565b840191505092915050565b6000608082019050614d6e6000830187613476565b614d7b6020830186613476565b614d886040830185613485565b8181036060830152614d9a8184614d20565b905095945050505050565b600081519050614db481613504565b92915050565b600060208284031215614dd057614dcf6131c3565b5b6000614dde84828501614da5565b91505092915050565b7f455243373231456e756d657261626c653a20636f6e736563757469766520747260008201527f616e7366657273206e6f7420737570706f727465640000000000000000000000602082015250565b6000614e436035836132f6565b9150614e4e82614de7565b604082019050919050565b60006020820190508181036000830152614e7281614e36565b9050919050565b7f4552433732313a206d696e7420746f20746865207a65726f2061646472657373600082015250565b6000614eaf6020836132f6565b9150614eba82614e79565b602082019050919050565b60006020820190508181036000830152614ede81614ea2565b9050919050565b7f4552433732313a20746f6b656e20616c7265616479206d696e74656400000000600082015250565b6000614f1b601c836132f6565b9150614f2682614ee5565b602082019050919050565b60006020820190508181036000830152614f4a81614f0e565b9050919050565b6000614f5c82613245565b9150614f6783613245565b9250828203905081811115614f7f57614f7e613373565b5b92915050565b7f4e487b7100000000000000000000000000000000000000000000000000000000600052603160045260246000fdfea26469706673582212204e52b8961cfdcd8b3ef76231703747fd8c814cf33c25a775f13b7ecbb3b5729464736f6c634300081b0033608060405234801561001057600080fd5b506040518060400160405280601081526020017f4f4c4d2052657761726420546f6b656e000000000000000000000000000000008152506040518060400160405280600581526020017f4f4c4d5254000000000000000000000000000000000000000000000000000000815250816003908161008c91906103de565b50806004908161009c91906103de565b5050506100bb6100b06100c060201b60201c565b6100c860201b60201c565b6104b0565b600033905090565b6000600560009054906101000a900473ffffffffffffffffffffffffffffffffffffffff16905081600560006101000a81548173ffffffffffffffffffffffffffffffffffffffff021916908373ffffffffffffffffffffffffffffffffffffffff1602179055508173ffffffffffffffffffffffffffffffffffffffff168173ffffffffffffffffffffffffffffffffffffffff167f8be0079c531659141344cd1fd0a4f28419497f9722a3daafe3b4186f6b6457e060405160405180910390a35050565b600081519050919050565b7f4e487b7100000000000000000000000000000000000000000000000000000000600052604160045260246000fd5b7f4e487b7100000000000000000000000000000000000000000000000000000000600052602260045260246000fd5b6000600282049050600182168061020f57607f821691505b602082108103610222576102216101c8565b5b50919050565b60008190508160005260206000209050919050565b60006020601f8301049050919050565b600082821b905092915050565b60006008830261028a7fffffffffffffffffffffffffffffffffffffffffffffffffffffffffffffffff8261024d565b610294868361024d565b95508019841693508086168417925050509392505050565b6000819050919050565b6000819050919050565b60006102db6102d66102d1846102ac565b6102b6565b6102ac565b9050919050565b6000819050919050565b6102f5836102c0565b610309610301826102e2565b84845461025a565b825550505050565b600090565b61031e610311565b6103298184846102ec565b505050565b5b8181101561034d57610342600082610316565b60018101905061032f565b5050565b601f8211156103925761036381610228565b61036c8461023d565b8101602085101561037b578190505b61038f6103878561023d565b83018261032e565b50505b505050565b600082821c905092915050565b60006103b560001984600802610397565b1980831691505092915050565b60006103ce83836103a4565b9150826002028217905092915050565b6103e78261018e565b67ffffffffffffffff811115610400576103ff610199565b5b61040a82546101f7565b610415828285610351565b600060209050601f8311600181146104485760008415610436578287015190505b61044085826103c2565b8655506104a8565b601f19841661045686610228565b60005b8281101561047e57848901518255600182019150602085019450602081019050610459565b8683101561049b5784890151610497601f8916826103a4565b8355505b6001600288020188555050505b505050505050565b6117e0806104bf6000396000f3fe608060405234801561001057600080fd5b50600436106100f55760003560e01c806370a0823111610097578063a457c2d711610066578063a457c2d714610276578063a9059cbb146102a6578063dd62ed3e146102d6578063f2fde38b14610306576100f5565b806370a0823114610200578063715018a6146102305780638da5cb5b1461023a57806395d89b4114610258576100f5565b806323b872dd116100d357806323b872dd14610166578063313ce5671461019657806339509351146101b457806340c10f19146101e4576100f5565b806306fdde03146100fa578063095ea7b31461011857806318160ddd14610148575b600080fd5b610102610322565b60405161010f9190610f29565b60405180910390f35b610132600480360381019061012d9190610fe4565b6103b4565b60405161013f919061103f565b60405180910390f35b6101506103d7565b60405161015d9190611069565b60405180910390f35b610180600480360381019061017b9190611084565b6103e1565b60405161018d919061103f565b60405180910390f35b61019e610410565b6040516101ab91906110f3565b60405180910390f35b6101ce60048036038101906101c99190610fe4565b610419565b6040516101db919061103f565b60405180910390f35b6101fe60048036038101906101f99190610fe4565b610450565b005b61021a6004803603810190610215919061110e565b610466565b6040516102279190611069565b60405180910390f35b6102386104ae565b005b6102426104c2565b60405161024f919061114a565b60405180910390f35b6102606104ec565b60405161026d9190610f29565b60405180910390f35b610290600480360381019061028b9190610fe4565b61057e565b60405161029d919061103f565b60405180910390f35b6102c060048036038101906102bb9190610fe4565b6105f5565b6040516102cd919061103f565b60405180910390f35b6102f060048036038101906102eb9190611165565b610618565b6040516102fd9190611069565b60405180910390f35b610320600480360381019061031b919061110e565b61069f565b005b606060038054610331906111d4565b80601f016020809104026020016040519081016040528092919081815260200182805461035d906111d4565b80156103aa5780601f1061037f576101008083540402835291602001916103aa565b820191906000526020600020905b81548152906001019060200180831161038d57829003601f168201915b5050505050905090565b6000806103bf610722565b90506103cc81858561072a565b600191505092915050565b6000600254905090565b6000806103ec610722565b90506103f98582856108f3565b61040485858561097f565b60019150509392505050565b60006012905090565b600080610424610722565b90506104458185856104368589610618565b6104409190611234565b61072a565b600191505092915050565b610458610bf5565b6104628282610c73565b5050565b60008060008373ffffffffffffffffffffffffffffffffffffffff1673ffffffffffffffffffffffffffffffffffffffff168152602001908152602001600020549050919050565b6104b6610bf5565b6104c06000610dc9565b565b6000600560009054906101000a900473ffffffffffffffffffffffffffffffffffffffff16905090565b6060600480546104fb906111d4565b80601f0160208091040260200160405190810160405280929190818152602001828054610527906111d4565b80156105745780601f1061054957610100808354040283529160200191610574565b820191906000526020600020905b81548152906001019060200180831161055757829003601f168201915b5050505050905090565b600080610589610722565b905060006105978286610618565b9050838110156105dc576040517f08c379a00000000000000000000000000000000000000000000000000000000081526004016105d3906112da565b60405180910390fd5b6105e9828686840361072a565b60019250505092915050565b600080610600610722565b905061060d81858561097f565b600191505092915050565b6000600160008473ffffffffffffffffffffffffffffffffffffffff1673ffffffffffffffffffffffffffffffffffffffff16815260200190815260200160002060008373ffffffffffffffffffffffffffffffffffffffff1673ffffffffffffffffffffffffffffffffffffffff16815260200190815260200160002054905092915050565b6106a7610bf5565b600073ffffffffffffffffffffffffffffffffffffffff168173ffffffffffffffffffffffffffffffffffffffff1603610716576040517f08c379a000000000000000000000000000000000000000000000000000000000815260040161070d9061136c565b60405180910390fd5b61071f81610dc9565b50565b600033905090565b600073ffffffffffffffffffffffffffffffffffffffff168373ffffffffffffffffffffffffffffffffffffffff1603610799576040517f08c379a0000000000000000000000000000000000000000000000000000000008152600401610790906113fe565b60405180910390fd5b600073ffffffffffffffffffffffffffffffffffffffff168273ffffffffffffffffffffffffffffffffffffffff1603610808576040517f08c379a00000000000000000000000000000000000000000000000000000000081526004016107ff90611490565b60405180910390fd5b80600160008573ffffffffffffffffffffffffffffffffffffffff1673ffffffffffffffffffffffffffffffffffffffff16815260200190815260200160002060008473ffffffffffffffffffffffffffffffffffffffff1673ffffffffffffffffffffffffffffffffffffffff168152602001908152602001600020819055508173ffffffffffffffffffffffffffffffffffffffff168373ffffffffffffffffffffffffffffffffffffffff167f8c5be1e5ebec7d5bd14f71427d1e84f3dd0314c0f7b2291e5b200ac8c7c3b925836040516108e69190611069565b60405180910390a3505050565b60006108ff8484610618565b90507fffffffffffffffffffffffffffffffffffffffffffffffffffffffffffffffff8114610979578181101561096b576040517f08c379a0000000000000000000000000000000000000000000000000000000008152600401610962906114fc565b60405180910390fd5b610978848484840361072a565b5b50505050565b600073ffffffffffffffffffffffffffffffffffffffff168373ffffffffffffffffffffffffffffffffffffffff16036109ee576040517f08c379a00000000000000000000000000000000000000000000000000000000081526004016109e59061158e565b60405180910390fd5b600073ffffffffffffffffffffffffffffffffffffffff168273ffffffffffffffffffffffffffffffffffffffff1603610a5d576040517f08c379a0000000000000000000000000000000000000000000000000000000008152600401610a5490611620565b60405180910390fd5b610a68838383610e8f565b60008060008573ffffffffffffffffffffffffffffffffffffffff1673ffffffffffffffffffffffffffffffffffffffff16815260200190815260200160002054905081811015610aee576040517f08c379a0000000000000000000000000000000000000000000000000000000008152600401610ae5906116b2565b60405180910390fd5b8181036000808673ffffffffffffffffffffffffffffffffffffffff1673ffffffffffffffffffffffffffffffffffffffff16815260200190815260200160002081905550816000808573ffffffffffffffffffffffffffffffffffffffff1673ffffffffffffffffffffffffffffffffffffffff168152602001908152602001600020600082825401925050819055508273ffffffffffffffffffffffffffffffffffffffff168473ffffffffffffffffffffffffffffffffffffffff167fddf252ad1be2c89b69c2b068fc378daa952ba7f163c4a11628f55a4df523b3ef84604051610bdc9190611069565b60405180910390a3610bef848484610e94565b50505050565b610bfd610722565b73ffffffffffffffffffffffffffffffffffffffff16610c1b6104c2565b73ffffffffffffffffffffffffffffffffffffffff1614610c71576040517f08c379a0000000000000000000000000000000000000000000000000000000008152600401610c689061171e565b60405180910390fd5b565b600073ffffffffffffffffffffffffffffffffffffffff168273ffffffffffffffffffffffffffffffffffffffff1603610ce2576040517f08c379a0000000000000000000000000000000000000000000000000000000008152600401610cd99061178a565b60405180910390fd5b610cee60008383610e8f565b8060026000828254610d009190611234565b92505081905550806000808473ffffffffffffffffffffffffffffffffffffffff1673ffffffffffffffffffffffffffffffffffffffff168152602001908152602001600020600082825401925050819055508173ffffffffffffffffffffffffffffffffffffffff16600073ffffffffffffffffffffffffffffffffffffffff167fddf252ad1be2c89b69c2b068fc378daa952ba7f163c4a11628f55a4df523b3ef83604051610db19190611069565b60405180910390a3610dc560008383610e94565b5050565b6000600560009054906101000a900473ffffffffffffffffffffffffffffffffffffffff16905081600560006101000a81548173ffffffffffffffffffffffffffffffffffffffff021916908373ffffffffffffffffffffffffffffffffffffffff1602179055508173ffffffffffffffffffffffffffffffffffffffff168173ffffffffffffffffffffffffffffffffffffffff167f8be0079c531659141344cd1fd0a4f28419497f9722a3daafe3b4186f6b6457e060405160405180910390a35050565b505050565b505050565b600081519050919050565b600082825260208201905092915050565b60005b83811015610ed3578082015181840152602081019050610eb8565b60008484015250505050565b6000601f19601f8301169050919050565b6000610efb82610e99565b610f058185610ea4565b9350610f15818560208601610eb5565b610f1e81610edf565b840191505092915050565b60006020820190508181036000830152610f438184610ef0565b905092915050565b600080fd5b600073ffffffffffffffffffffffffffffffffffffffff82169050919050565b6000610f7b82610f50565b9050919050565b610f8b81610f70565b8114610f9657600080fd5b50565b600081359050610fa881610f82565b92915050565b6000819050919050565b610fc181610fae565b8114610fcc57600080fd5b50565b600081359050610fde81610fb8565b92915050565b60008060408385031215610ffb57610ffa610f4b565b5b600061100985828601610f99565b925050602061101a85828601610fcf565b9150509250929050565b60008115159050919050565b61103981611024565b82525050565b60006020820190506110546000830184611030565b92915050565b61106381610fae565b82525050565b600060208201905061107e600083018461105a565b92915050565b60008060006060848603121561109d5761109c610f4b565b5b60006110ab86828701610f99565b93505060206110bc86828701610f99565b92505060406110cd86828701610fcf565b9150509250925092565b600060ff82169050919050565b6110ed816110d7565b82525050565b600060208201905061110860008301846110e4565b92915050565b60006020828403121561112457611123610f4b565b5b600061113284828501610f99565b91505092915050565b61114481610f70565b82525050565b600060208201905061115f600083018461113b565b92915050565b6000806040838503121561117c5761117b610f4b565b5b600061118a85828601610f99565b925050602061119b85828601610f99565b9150509250929050565b7f4e487b7100000000000000000000000000000000000000000000000000000000600052602260045260246000fd5b600060028204905060018216806111ec57607f821691505b6020821081036111ff576111fe6111a5565b5b50919050565b7f4e487b7100000000000000000000000000000000000000000000000000000000600052601160045260246000fd5b600061123f82610fae565b915061124a83610fae565b925082820190508082111561126257611261611205565b5b92915050565b7f45524332303a2064656372656173656420616c6c6f77616e63652062656c6f7760008201527f207a65726f000000000000000000000000000000000000000000000000000000602082015250565b60006112c4602583610ea4565b91506112cf82611268565b604082019050919050565b600060208201905081810360008301526112f3816112b7565b9050919050565b7f4f776e61626c653a206e6577206f776e657220697320746865207a65726f206160008201527f6464726573730000000000000000000000000000000000000000000000000000602082015250565b6000611356602683610ea4565b9150611361826112fa565b604082019050919050565b6000602082019050818103600083015261138581611349565b9050919050565b7f45524332303a20617070726f76652066726f6d20746865207a65726f2061646460008201527f7265737300000000000000000000000000000000000000000000000000000000602082015250565b60006113e8602483610ea4565b91506113f38261138c565b604082019050919050565b60006020820190508181036000830152611417816113db565b9050919050565b7f45524332303a20617070726f766520746f20746865207a65726f20616464726560008201527f7373000000000000000000000000000000000000000000000000000000000000602082015250565b600061147a602283610ea4565b91506114858261141e565b604082019050919050565b600060208201905081810360008301526114a98161146d565b9050919050565b7f45524332303a20696e73756666696369656e7420616c6c6f77616e6365000000600082015250565b60006114e6601d83610ea4565b91506114f1826114b0565b602082019050919050565b60006020820190508181036000830152611515816114d9565b9050919050565b7f45524332303a207472616e736665722066726f6d20746865207a65726f20616460008201527f6472657373000000000000000000000000000000000000000000000000000000602082015250565b6000611578602583610ea4565b91506115838261151c565b604082019050919050565b600060208201905081810360008301526115a78161156b565b9050919050565b7f45524332303a207472616e7366657220746f20746865207a65726f206164647260008201527f6573730000000000000000000000000000000000000000000000000000000000602082015250565b600061160a602383610ea4565b9150611615826115ae565b604082019050919050565b60006020820190508181036000830152611639816115fd565b9050919050565b7f45524332303a207472616e7366657220616d6f756e742065786365656473206260008201527f616c616e63650000000000000000000000000000000000000000000000000000602082015250565b600061169c602683610ea4565b91506116a782611640565b604082019050919050565b600060208201905081810360008301526116cb8161168f565b9050919050565b7f4f776e61626c653a2063616c6c6572206973206e6f7420746865206f776e6572600082015250565b6000611708602083610ea4565b9150611713826116d2565b602082019050919050565b60006020820190508181036000830152611737816116fb565b9050919050565b7f45524332303a206d696e7420746f20746865207a65726f206164647265737300600082015250565b6000611774601f83610ea4565b915061177f8261173e565b602082019050919050565b600060208201905081810360008301526117a381611767565b905091905056fea2646970667358221220af20ee9085baea6d3365493d9a9c372a7cee3e7ac2647d892ac51a03d58530b864736f6c634300081b0033608060405234801561001057600080fd5b506040518060400160405280600d81526020017f4d65726368616e74546f6b656e000000000000000000000000000000000000008152506040518060400160405280600481526020017f4c434d5400000000000000000000000000000000000000000000000000000000815250816000908161008c91906103e6565b50806001908161009c91906103e6565b5050506100bb6100b06100c860201b60201c565b6100d060201b60201c565b6001600b819055506104b8565b600033905090565b6000600a60009054906101000a900473ffffffffffffffffffffffffffffffffffffffff16905081600a60006101000a81548173ffffffffffffffffffffffffffffffffffffffff021916908373ffffffffffffffffffffffffffffffffffffffff1602179055508173ffffffffffffffffffffffffffffffffffffffff168173ffffffffffffffffffffffffffffffffffffffff167f8be0079c531659141344cd1fd0a4f28419497f9722a3daafe3b4186f6b6457e060405160405180910390a35050565b600081519050919050565b7f4e487b7100000000000000000000000000000000000000000000000000000000600052604160045260246000fd5b7f4e487b7100000000000000000000000000000000000000000000000000000000600052602260045260246000fd5b6000600282049050600182168061021757607f821691505b60208210810361022a576102296101d0565b5b50919050565b60008190508160005260206000209050919050565b60006020601f8301049050919050565b600082821b905092915050565b6000600883026102927fffffffffffffffffffffffffffffffffffffffffffffffffffffffffffffffff82610255565b61029c8683610255565b95508019841693508086168417925050509392505050565b6000819050919050565b6000819050919050565b60006102e36102de6102d9846102b4565b6102be565b6102b4565b9050919050565b6000819050919050565b6102fd836102c8565b610311610309826102ea565b848454610262565b825550505050565b600090565b610326610319565b6103318184846102f4565b505050565b5b818110156103555761034a60008261031e565b600181019050610337565b5050565b601f82111561039a5761036b81610230565b61037484610245565b81016020851015610383578190505b61039761038f85610245565b830182610336565b50505b505050565b600082821c905092915050565b60006103bd6000198460080261039f565b1980831691505092915050565b60006103d683836103ac565b9150826002028217905092915050565b6103ef82610196565b67ffffffffffffffff811115610408576104076101a1565b5b61041282546101ff565b61041d828285610359565b600060209050601f831160018114610450576000841561043e578287015190505b61044885826103ca565b8655506104b0565b601f19841661045e86610230565b60005b8281101561048657848901518255600182019150602085019450602081019050610461565b868310156104a3578489015161049f601f8916826103ac565b8355505b6001600288020188555050505b505050505050565b61353e806104c76000396000f3fe608060405234801561001057600080fd5b50600436106101735760003560e01c80636a627842116100de578063a22cb46511610097578063d082e38111610071578063d082e38114610470578063d9548e531461048e578063e985e9c5146104be578063f2fde38b146104ee57610173565b8063a22cb46514610408578063b88d4fde14610424578063c87b56dd1461044057610173565b80636a6278421461035857806370a0823114610374578063715018a6146103a45780638da5cb5b146103ae57806395d89b41146103cc5780639611562e146103ea57610173565b806318160ddd1161013057806318160ddd1461027257806323b872dd146102905780632f745c59146102ac57806342842e0e146102dc5780634f6ccce7146102f85780636352211e1461032857610173565b806301ffc9a71461017857806302556a29146101a857806306fdde03146101d8578063081812fc146101f6578063095ea7b31461022657806313c7260814610242575b600080fd5b610192600480360381019061018d91906123fc565b61050a565b60405161019f9190612444565b60405180910390f35b6101c260048036038101906101bd91906124bd565b61051c565b6040516101cf9190612444565b60405180910390f35b6101e0610588565b6040516101ed919061257a565b60405180910390f35b610210600480360381019061020b91906125d2565b61061a565b60405161021d919061260e565b60405180910390f35b610240600480360381019061023b9190612629565b610660565b005b61025c600480360381019061025791906125d2565b610777565b6040516102699190612678565b60405180910390f35b61027a6107dc565b6040516102879190612678565b60405180910390f35b6102aa60048036038101906102a59190612693565b6107e9565b005b6102c660048036038101906102c19190612629565b610849565b6040516102d39190612678565b60405180910390f35b6102f660048036038101906102f19190612693565b6108ee565b005b610312600480360381019061030d91906125d2565b61090e565b60405161031f9190612678565b60405180910390f35b610342600480360381019061033d91906125d2565b61097f565b60405161034f919061260e565b60405180910390f35b610372600480360381019061036d91906124bd565b610a05565b005b61038e600480360381019061038991906124bd565b610ab9565b60405161039b9190612678565b60405180910390f35b6103ac610b70565b005b6103b6610b84565b6040516103c3919061260e565b60405180910390f35b6103d4610bae565b6040516103e1919061257a565b60405180910390f35b6103f2610c40565b6040516103ff9190612678565b60405180910390f35b610422600480360381019061041d9190612712565b610c48565b005b61043e60048036038101906104399190612887565b610c5e565b005b61045a600480360381019061045591906125d2565b610cc0565b604051610467919061257a565b60405180910390f35b610478610d28565b6040516104859190612678565b60405180910390f35b6104a860048036038101906104a391906125d2565b610d2e565b6040516104b59190612444565b60405180910390f35b6104d860048036038101906104d3919061290a565b610d95565b6040516104e59190612444565b60405180910390f35b610508600480360381019061050391906124bd565b610e29565b005b600061051582610eac565b9050919050565b60008061052883610ab9565b90506000810361053c576000915050610583565b60005b8181101561057c5760006105538583610849565b905061055e81610d2e565b61056e5760019350505050610583565b50808060010191505061053f565b5060009150505b919050565b60606000805461059790612979565b80601f01602080910402602001604051908101604052809291908181526020018280546105c390612979565b80156106105780601f106105e557610100808354040283529160200191610610565b820191906000526020600020905b8154815290600101906020018083116105f357829003601f168201915b5050505050905090565b600061062582610f26565b6004600083815260200190815260200160002060009054906101000a900473ffffffffffffffffffffffffffffffffffffffff169050919050565b600061066b8261097f565b90508073ffffffffffffffffffffffffffffffffffffffff168373ffffffffffffffffffffffffffffffffffffffff16036106db576040517f08c379a00000000000000000000000000000000000000000000000000000000081526004016106d290612a1c565b60405180910390fd5b8073ffffffffffffffffffffffffffffffffffffffff166106fa610f71565b73ffffffffffffffffffffffffffffffffffffffff161480610729575061072881610723610f71565b610d95565b5b610768576040517f08c379a000000000000000000000000000000000000000000000000000000000815260040161075f90612aae565b60405180910390fd5b6107728383610f79565b505050565b600061078282611032565b6107c1576040517f08c379a00000000000000000000000000000000000000000000000000000000081526004016107b890612b1a565b60405180910390fd5b600c6000838152602001908152602001600020549050919050565b6000600880549050905090565b6107fa6107f4610f71565b82611073565b610839576040517f08c379a000000000000000000000000000000000000000000000000000000000815260040161083090612bac565b60405180910390fd5b610844838383611108565b505050565b600061085483610ab9565b8210610895576040517f08c379a000000000000000000000000000000000000000000000000000000000815260040161088c90612c3e565b60405180910390fd5b600660008473ffffffffffffffffffffffffffffffffffffffff1673ffffffffffffffffffffffffffffffffffffffff168152602001908152602001600020600083815260200190815260200160002054905092915050565b61090983838360405180602001604052806000815250610c5e565b505050565b60006109186107dc565b8210610959576040517f08c379a000000000000000000000000000000000000000000000000000000000815260040161095090612cd0565b60405180910390fd5b6008828154811061096d5761096c612cf0565b5b90600052602060002001549050919050565b60008061098b83611401565b9050600073ffffffffffffffffffffffffffffffffffffffff168173ffffffffffffffffffffffffffffffffffffffff16036109fc576040517f08c379a00000000000000000000000000000000000000000000000000000000081526004016109f390612d6b565b60405180910390fd5b80915050919050565b610a0d61143e565b6000600b5490506001600b6000828254610a279190612dba565b9250508190555060006301e1338042610a409190612dba565b905080600c600084815260200190815260200160002081905550610a6483836114bc565b8273ffffffffffffffffffffffffffffffffffffffff167f655ff37b06d138fc26fda07d435a40368e63b8d3cbd7835215334ff9e7fcd7828383604051610aac929190612dee565b60405180910390a2505050565b60008073ffffffffffffffffffffffffffffffffffffffff168273ffffffffffffffffffffffffffffffffffffffff1603610b29576040517f08c379a0000000000000000000000000000000000000000000000000000000008152600401610b2090612e89565b60405180910390fd5b600360008373ffffffffffffffffffffffffffffffffffffffff1673ffffffffffffffffffffffffffffffffffffffff168152602001908152602001600020549050919050565b610b7861143e565b610b8260006114da565b565b6000600a60009054906101000a900473ffffffffffffffffffffffffffffffffffffffff16905090565b606060018054610bbd90612979565b80601f0160208091040260200160405190810160405280929190818152602001828054610be990612979565b8015610c365780601f10610c0b57610100808354040283529160200191610c36565b820191906000526020600020905b815481529060010190602001808311610c1957829003601f168201915b5050505050905090565b6301e1338081565b610c5a610c53610f71565b83836115a0565b5050565b610c6f610c69610f71565b83611073565b610cae576040517f08c379a0000000000000000000000000000000000000000000000000000000008152600401610ca590612bac565b60405180910390fd5b610cba8484848461170c565b50505050565b6060610ccb82610f26565b6000610cd5611768565b90506000815111610cf55760405180602001604052806000815250610d20565b80610cff8461177f565b604051602001610d10929190612ee5565b6040516020818303038152906040525b915050919050565b600b5481565b6000610d3982611032565b610d78576040517f08c379a0000000000000000000000000000000000000000000000000000000008152600401610d6f90612b1a565b60405180910390fd5b600c60008381526020019081526020016000205442119050919050565b6000600560008473ffffffffffffffffffffffffffffffffffffffff1673ffffffffffffffffffffffffffffffffffffffff16815260200190815260200160002060008373ffffffffffffffffffffffffffffffffffffffff1673ffffffffffffffffffffffffffffffffffffffff16815260200190815260200160002060009054906101000a900460ff16905092915050565b610e3161143e565b600073ffffffffffffffffffffffffffffffffffffffff168173ffffffffffffffffffffffffffffffffffffffff1603610ea0576040517f08c379a0000000000000000000000000000000000000000000000000000000008152600401610e9790612f7b565b60405180910390fd5b610ea9816114da565b50565b60007f780e9d63000000000000000000000000000000000000000000000000000000007bffffffffffffffffffffffffffffffffffffffffffffffffffffffff1916827bffffffffffffffffffffffffffffffffffffffffffffffffffffffff19161480610f1f5750610f1e8261184d565b5b9050919050565b610f2f81611032565b610f6e576040517f08c379a0000000000000000000000000000000000000000000000000000000008152600401610f6590612d6b565b60405180910390fd5b50565b600033905090565b816004600083815260200190815260200160002060006101000a81548173ffffffffffffffffffffffffffffffffffffffff021916908373ffffffffffffffffffffffffffffffffffffffff160217905550808273ffffffffffffffffffffffffffffffffffffffff16610fec8361097f565b73ffffffffffffffffffffffffffffffffffffffff167f8c5be1e5ebec7d5bd14f71427d1e84f3dd0314c0f7b2291e5b200ac8c7c3b92560405160405180910390a45050565b60008073ffffffffffffffffffffffffffffffffffffffff1661105483611401565b73ffffffffffffffffffffffffffffffffffffffff1614159050919050565b60008061107f8361097f565b90508073ffffffffffffffffffffffffffffffffffffffff168473ffffffffffffffffffffffffffffffffffffffff1614806110c157506110c08185610d95565b5b806110ff57508373ffffffffffffffffffffffffffffffffffffffff166110e78461061a565b73ffffffffffffffffffffffffffffffffffffffff16145b91505092915050565b8273ffffffffffffffffffffffffffffffffffffffff166111288261097f565b73ffffffffffffffffffffffffffffffffffffffff161461117e576040517f08c379a00000000000000000000000000000000000000000000000000000000081526004016111759061300d565b60405180910390fd5b600073ffffffffffffffffffffffffffffffffffffffff168273ffffffffffffffffffffffffffffffffffffffff16036111ed576040517f08c379a00000000000000000000000000000000000000000000000000000000081526004016111e49061309f565b60405180910390fd5b6111fa838383600161192f565b8273ffffffffffffffffffffffffffffffffffffffff1661121a8261097f565b73ffffffffffffffffffffffffffffffffffffffff1614611270576040517f08c379a00000000000000000000000000000000000000000000000000000000081526004016112679061300d565b60405180910390fd5b6004600082815260200190815260200160002060006101000a81549073ffffffffffffffffffffffffffffffffffffffff02191690556001600360008573ffffffffffffffffffffffffffffffffffffffff1673ffffffffffffffffffffffffffffffffffffffff168152602001908152602001600020600082825403925050819055506001600360008473ffffffffffffffffffffffffffffffffffffffff1673ffffffffffffffffffffffffffffffffffffffff16815260200190815260200160002060008282540192505081905550816002600083815260200190815260200160002060006101000a81548173ffffffffffffffffffffffffffffffffffffffff021916908373ffffffffffffffffffffffffffffffffffffffff160217905550808273ffffffffffffffffffffffffffffffffffffffff168473ffffffffffffffffffffffffffffffffffffffff167fddf252ad1be2c89b69c2b068fc378daa952ba7f163c4a11628f55a4df523b3ef60405160405180910390a46113fc8383836001611941565b505050565b60006002600083815260200190815260200160002060009054906101000a900473ffffffffffffffffffffffffffffffffffffffff169050919050565b611446610f71565b73ffffffffffffffffffffffffffffffffffffffff16611464610b84565b73ffffffffffffffffffffffffffffffffffffffff16146114ba576040517f08c379a00000000000000000000000000000000000000000000000000000000081526004016114b19061310b565b60405180910390fd5b565b6114d6828260405180602001604052806000815250611947565b5050565b6000600a60009054906101000a900473ffffffffffffffffffffffffffffffffffffffff16905081600a60006101000a81548173ffffffffffffffffffffffffffffffffffffffff021916908373ffffffffffffffffffffffffffffffffffffffff1602179055508173ffffffffffffffffffffffffffffffffffffffff168173ffffffffffffffffffffffffffffffffffffffff167f8be0079c531659141344cd1fd0a4f28419497f9722a3daafe3b4186f6b6457e060405160405180910390a35050565b8173ffffffffffffffffffffffffffffffffffffffff168373ffffffffffffffffffffffffffffffffffffffff160361160e576040517f08c379a000000000000000000000000000000000000000000000000000000000815260040161160590613177565b60405180910390fd5b80600560008573ffffffffffffffffffffffffffffffffffffffff1673ffffffffffffffffffffffffffffffffffffffff16815260200190815260200160002060008473ffffffffffffffffffffffffffffffffffffffff1673ffffffffffffffffffffffffffffffffffffffff16815260200190815260200160002060006101000a81548160ff0219169083151502179055508173ffffffffffffffffffffffffffffffffffffffff168373ffffffffffffffffffffffffffffffffffffffff167f17307eab39ab6107e8899845ad3d59bd9653f200f220920489ca2b5937696c31836040516116ff9190612444565b60405180910390a3505050565b611717848484611108565b611723848484846119a2565b611762576040517f08c379a000000000000000000000000000000000000000000000000000000000815260040161175990613209565b60405180910390fd5b50505050565b606060405180602001604052806000815250905090565b60606000600161178e84611b29565b01905060008167ffffffffffffffff8111156117ad576117ac61275c565b5b6040519080825280601f01601f1916602001820160405280156117df5781602001600182028036833780820191505090505b509050600082602001820190505b600115611842578080600190039150507f3031323334353637383961626364656600000000000000000000000000000000600a86061a8153600a858161183657611835613229565b5b049450600085036117ed575b819350505050919050565b60007f80ac58cd000000000000000000000000000000000000000000000000000000007bffffffffffffffffffffffffffffffffffffffffffffffffffffffff1916827bffffffffffffffffffffffffffffffffffffffffffffffffffffffff1916148061191857507f5b5e139f000000000000000000000000000000000000000000000000000000007bffffffffffffffffffffffffffffffffffffffffffffffffffffffff1916827bffffffffffffffffffffffffffffffffffffffffffffffffffffffff1916145b80611928575061192782611c7c565b5b9050919050565b61193b84848484611ce6565b50505050565b50505050565b6119518383611e44565b61195e60008484846119a2565b61199d576040517f08c379a000000000000000000000000000000000000000000000000000000000815260040161199490613209565b60405180910390fd5b505050565b60006119c38473ffffffffffffffffffffffffffffffffffffffff16612061565b15611b1c578373ffffffffffffffffffffffffffffffffffffffff1663150b7a026119ec610f71565b8786866040518563ffffffff1660e01b8152600401611a0e94939291906132ad565b6020604051808303816000875af1925050508015611a4a57506040513d601f19601f82011682018060405250810190611a47919061330e565b60015b611acc573d8060008114611a7a576040519150601f19603f3d011682016040523d82523d6000602084013e611a7f565b606091505b506000815103611ac4576040517f08c379a0000000000000000000000000000000000000000000000000000000008152600401611abb90613209565b60405180910390fd5b805181602001fd5b63150b7a0260e01b7bffffffffffffffffffffffffffffffffffffffffffffffffffffffff1916817bffffffffffffffffffffffffffffffffffffffffffffffffffffffff191614915050611b21565b600190505b949350505050565b600080600090507a184f03e93ff9f4daa797ed6e38ed64bf6a1f0100000000000000008310611b87577a184f03e93ff9f4daa797ed6e38ed64bf6a1f0100000000000000008381611b7d57611b7c613229565b5b0492506040810190505b6d04ee2d6d415b85acef81000000008310611bc4576d04ee2d6d415b85acef81000000008381611bba57611bb9613229565b5b0492506020810190505b662386f26fc100008310611bf357662386f26fc100008381611be957611be8613229565b5b0492506010810190505b6305f5e1008310611c1c576305f5e1008381611c1257611c11613229565b5b0492506008810190505b6127108310611c41576127108381611c3757611c36613229565b5b0492506004810190505b60648310611c645760648381611c5a57611c59613229565b5b0492506002810190505b600a8310611c73576001810190505b80915050919050565b60007f01ffc9a7000000000000000000000000000000000000000000000000000000007bffffffffffffffffffffffffffffffffffffffffffffffffffffffff1916827bffffffffffffffffffffffffffffffffffffffffffffffffffffffff1916149050919050565b611cf284848484612084565b6001811115611d36576040517f08c379a0000000000000000000000000000000000000000000000000000000008152600401611d2d906133ad565b60405180910390fd5b6000829050600073ffffffffffffffffffffffffffffffffffffffff168573ffffffffffffffffffffffffffffffffffffffff1603611d7d57611d788161208a565b611dbc565b8373ffffffffffffffffffffffffffffffffffffffff168573ffffffffffffffffffffffffffffffffffffffff1614611dbb57611dba85826120d3565b5b5b600073ffffffffffffffffffffffffffffffffffffffff168473ffffffffffffffffffffffffffffffffffffffff1603611dfe57611df981612240565b611e3d565b8473ffffffffffffffffffffffffffffffffffffffff168473ffffffffffffffffffffffffffffffffffffffff1614611e3c57611e3b8482612311565b5b5b5050505050565b600073ffffffffffffffffffffffffffffffffffffffff168273ffffffffffffffffffffffffffffffffffffffff1603611eb3576040517f08c379a0000000000000000000000000000000000000000000000000000000008152600401611eaa90613419565b60405180910390fd5b611ebc81611032565b15611efc576040517f08c379a0000000000000000000000000000000000000000000000000000000008152600401611ef390613485565b60405180910390fd5b611f0a60008383600161192f565b611f1381611032565b15611f53576040517f08c379a0000000000000000000000000000000000000000000000000000000008152600401611f4a90613485565b60405180910390fd5b6001600360008473ffffffffffffffffffffffffffffffffffffffff1673ffffffffffffffffffffffffffffffffffffffff16815260200190815260200160002060008282540192505081905550816002600083815260200190815260200160002060006101000a81548173ffffffffffffffffffffffffffffffffffffffff021916908373ffffffffffffffffffffffffffffffffffffffff160217905550808273ffffffffffffffffffffffffffffffffffffffff16600073ffffffffffffffffffffffffffffffffffffffff167fddf252ad1be2c89b69c2b068fc378daa952ba7f163c4a11628f55a4df523b3ef60405160405180910390a461205d600083836001611941565b5050565b6000808273ffffffffffffffffffffffffffffffffffffffff163b119050919050565b50505050565b6008805490506009600083815260200190815260200160002081905550600881908060018154018082558091505060019003906000526020600020016000909190919091505550565b600060016120e084610ab9565b6120ea91906134a5565b90506000600760008481526020019081526020016000205490508181146121cf576000600660008673ffffffffffffffffffffffffffffffffffffffff1673ffffffffffffffffffffffffffffffffffffffff168152602001908152602001600020600084815260200190815260200160002054905080600660008773ffffffffffffffffffffffffffffffffffffffff1673ffffffffffffffffffffffffffffffffffffffff168152602001908152602001600020600084815260200190815260200160002081905550816007600083815260200190815260200160002081905550505b6007600084815260200190815260200160002060009055600660008573ffffffffffffffffffffffffffffffffffffffff1673ffffffffffffffffffffffffffffffffffffffff16815260200190815260200160002060008381526020019081526020016000206000905550505050565b6000600160088054905061225491906134a5565b905060006009600084815260200190815260200160002054905060006008838154811061228457612283612cf0565b5b9060005260206000200154905080600883815481106122a6576122a5612cf0565b5b9060005260206000200181905550816009600083815260200190815260200160002081905550600960008581526020019081526020016000206000905560088054806122f5576122f46134d9565b5b6001900381819060005260206000200160009055905550505050565b600061231c83610ab9565b905081600660008573ffffffffffffffffffffffffffffffffffffffff1673ffffffffffffffffffffffffffffffffffffffff168152602001908152602001600020600083815260200190815260200160002081905550806007600084815260200190815260200160002081905550505050565b6000604051905090565b600080fd5b600080fd5b60007fffffffff0000000000000000000000000000000000000000000000000000000082169050919050565b6123d9816123a4565b81146123e457600080fd5b50565b6000813590506123f6816123d0565b92915050565b6000602082840312156124125761241161239a565b5b6000612420848285016123e7565b91505092915050565b60008115159050919050565b61243e81612429565b82525050565b60006020820190506124596000830184612435565b92915050565b600073ffffffffffffffffffffffffffffffffffffffff82169050919050565b600061248a8261245f565b9050919050565b61249a8161247f565b81146124a557600080fd5b50565b6000813590506124b781612491565b92915050565b6000602082840312156124d3576124d261239a565b5b60006124e1848285016124a8565b91505092915050565b600081519050919050565b600082825260208201905092915050565b60005b83811015612524578082015181840152602081019050612509565b60008484015250505050565b6000601f19601f8301169050919050565b600061254c826124ea565b61255681856124f5565b9350612566818560208601612506565b61256f81612530565b840191505092915050565b600060208201905081810360008301526125948184612541565b905092915050565b6000819050919050565b6125af8161259c565b81146125ba57600080fd5b50565b6000813590506125cc816125a6565b92915050565b6000602082840312156125e8576125e761239a565b5b60006125f6848285016125bd565b91505092915050565b6126088161247f565b82525050565b600060208201905061262360008301846125ff565b92915050565b600080604083850312156126405761263f61239a565b5b600061264e858286016124a8565b925050602061265f858286016125bd565b9150509250929050565b6126728161259c565b82525050565b600060208201905061268d6000830184612669565b92915050565b6000806000606084860312156126ac576126ab61239a565b5b60006126ba868287016124a8565b93505060206126cb868287016124a8565b92505060406126dc868287016125bd565b9150509250925092565b6126ef81612429565b81146126fa57600080fd5b50565b60008135905061270c816126e6565b92915050565b600080604083850312156127295761272861239a565b5b6000612737858286016124a8565b9250506020612748858286016126fd565b9150509250929050565b600080fd5b600080fd5b7f4e487b7100000000000000000000000000000000000000000000000000000000600052604160045260246000fd5b61279482612530565b810181811067ffffffffffffffff821117156127b3576127b261275c565b5b80604052505050565b60006127c6612390565b90506127d2828261278b565b919050565b600067ffffffffffffffff8211156127f2576127f161275c565b5b6127fb82612530565b9050602081019050919050565b82818337600083830152505050565b600061282a612825846127d7565b6127bc565b90508281526020810184848401111561284657612845612757565b5b612851848285612808565b509392505050565b600082601f83011261286e5761286d612752565b5b813561287e848260208601612817565b91505092915050565b600080600080608085870312156128a1576128a061239a565b5b60006128af878288016124a8565b94505060206128c0878288016124a8565b93505060406128d1878288016125bd565b925050606085013567ffffffffffffffff8111156128f2576128f161239f565b5b6128fe87828801612859565b91505092959194509250565b600080604083850312156129215761292061239a565b5b600061292f858286016124a8565b9250506020612940858286016124a8565b9150509250929050565b7f4e487b7100000000000000000000000000000000000000000000000000000000600052602260045260246000fd5b6000600282049050600182168061299157607f821691505b6020821081036129a4576129a361294a565b5b50919050565b7f4552433732313a20617070726f76616c20746f2063757272656e74206f776e6560008201527f7200000000000000000000000000000000000000000000000000000000000000602082015250565b6000612a066021836124f5565b9150612a11826129aa565b604082019050919050565b60006020820190508181036000830152612a35816129f9565b9050919050565b7f4552433732313a20617070726f76652063616c6c6572206973206e6f7420746f60008201527f6b656e206f776e6572206f7220617070726f76656420666f7220616c6c000000602082015250565b6000612a98603d836124f5565b9150612aa382612a3c565b604082019050919050565b60006020820190508181036000830152612ac781612a8b565b9050919050565b7f546f6b656e20646f6573206e6f74206578697374000000000000000000000000600082015250565b6000612b046014836124f5565b9150612b0f82612ace565b602082019050919050565b60006020820190508181036000830152612b3381612af7565b9050919050565b7f4552433732313a2063616c6c6572206973206e6f7420746f6b656e206f776e6560008201527f72206f7220617070726f76656400000000000000000000000000000000000000602082015250565b6000612b96602d836124f5565b9150612ba182612b3a565b604082019050919050565b60006020820190508181036000830152612bc581612b89565b9050919050565b7f455243373231456e756d657261626c653a206f776e657220696e646578206f7560008201527f74206f6620626f756e6473000000000000000000000000000000000000000000602082015250565b6000612c28602b836124f5565b9150612c3382612bcc565b604082019050919050565b60006020820190508181036000830152612c5781612c1b565b9050919050565b7f455243373231456e756d657261626c653a20676c6f62616c20696e646578206f60008201527f7574206f6620626f756e64730000000000000000000000000000000000000000602082015250565b6000612cba602c836124f5565b9150612cc582612c5e565b604082019050919050565b60006020820190508181036000830152612ce981612cad565b9050919050565b7f4e487b7100000000000000000000000000000000000000000000000000000000600052603260045260246000fd5b7f4552433732313a20696e76616c696420746f6b656e2049440000000000000000600082015250565b6000612d556018836124f5565b9150612d6082612d1f565b602082019050919050565b60006020820190508181036000830152612d8481612d48565b9050919050565b7f4e487b7100000000000000000000000000000000000000000000000000000000600052601160045260246000fd5b6000612dc58261259c565b9150612dd08361259c565b9250828201905080821115612de857612de7612d8b565b5b92915050565b6000604082019050612e036000830185612669565b612e106020830184612669565b9392505050565b7f4552433732313a2061646472657373207a65726f206973206e6f74206120766160008201527f6c6964206f776e65720000000000000000000000000000000000000000000000602082015250565b6000612e736029836124f5565b9150612e7e82612e17565b604082019050919050565b60006020820190508181036000830152612ea281612e66565b9050919050565b600081905092915050565b6000612ebf826124ea565b612ec98185612ea9565b9350612ed9818560208601612506565b80840191505092915050565b6000612ef18285612eb4565b9150612efd8284612eb4565b91508190509392505050565b7f4f776e61626c653a206e6577206f776e657220697320746865207a65726f206160008201527f6464726573730000000000000000000000000000000000000000000000000000602082015250565b6000612f656026836124f5565b9150612f7082612f09565b604082019050919050565b60006020820190508181036000830152612f9481612f58565b9050919050565b7f4552433732313a207472616e736665722066726f6d20696e636f72726563742060008201527f6f776e6572000000000000000000000000000000000000000000000000000000602082015250565b6000612ff76025836124f5565b915061300282612f9b565b604082019050919050565b6000602082019050818103600083015261302681612fea565b9050919050565b7f4552433732313a207472616e7366657220746f20746865207a65726f2061646460008201527f7265737300000000000000000000000000000000000000000000000000000000602082015250565b60006130896024836124f5565b91506130948261302d565b604082019050919050565b600060208201905081810360008301526130b88161307c565b9050919050565b7f4f776e61626c653a2063616c6c6572206973206e6f7420746865206f776e6572600082015250565b60006130f56020836124f5565b9150613100826130bf565b602082019050919050565b60006020820190508181036000830152613124816130e8565b9050919050565b7f4552433732313a20617070726f766520746f2063616c6c657200000000000000600082015250565b60006131616019836124f5565b915061316c8261312b565b602082019050919050565b6000602082019050818103600083015261319081613154565b9050919050565b7f4552433732313a207472616e7366657220746f206e6f6e20455243373231526560008201527f63656976657220696d706c656d656e7465720000000000000000000000000000602082015250565b60006131f36032836124f5565b91506131fe82613197565b604082019050919050565b60006020820190508181036000830152613222816131e6565b9050919050565b7f4e487b7100000000000000000000000000000000000000000000000000000000600052601260045260246000fd5b600081519050919050565b600082825260208201905092915050565b600061327f82613258565b6132898185613263565b9350613299818560208601612506565b6132a281612530565b840191505092915050565b60006080820190506132c260008301876125ff565b6132cf60208301866125ff565b6132dc6040830185612669565b81810360608301526132ee8184613274565b905095945050505050565b600081519050613308816123d0565b92915050565b6000602082840312156133245761332361239a565b5b6000613332848285016132f9565b91505092915050565b7f455243373231456e756d657261626c653a20636f6e736563757469766520747260008201527f616e7366657273206e6f7420737570706f727465640000000000000000000000602082015250565b60006133976035836124f5565b91506133a28261333b565b604082019050919050565b600060208201905081810360008301526133c68161338a565b9050919050565b7f4552433732313a206d696e7420746f20746865207a65726f2061646472657373600082015250565b60006134036020836124f5565b915061340e826133cd565b602082019050919050565b60006020820190508181036000830152613432816133f6565b9050919050565b7f4552433732313a20746f6b656e20616c7265616479206d696e74656400000000600082015250565b600061346f601c836124f5565b915061347a82613439565b602082019050919050565b6000602082019050818103600083015261349e81613462565b9050919050565b60006134b08261259c565b91506134bb8361259c565b92508282039050818111156134d3576134d2612d8b565b5b92915050565b7f4e487b7100000000000000000000000000000000000000000000000000000000600052603160045260246000fdfea26469706673582212202f0a72f34fba671f22acf37d52d43bfaa2d42b890d52bd1eaa581707ed5c777064736f6c634300081b0033",
  "linkReferences": {},
  "deployedLinkReferences": {}
}