{
  "_format": "hh-sol-artifact-1",
  "contractName": "Littercoin",
  "sourceName": "contracts/Littercoin.sol",
  "abi": [
    {
      "inputs": [
        {
          "internalType": "address",
          "name": "_priceFeed",
          "type": "address"
        }
      ],
      "stateMutability": "nonpayable",
      "type": "constructor"
    },
    {
      "anonymous": false,
      "inputs": [
        {
          "indexed": true,
          "internalType": "address",
          "name": "owner",
          "type": "address"
        },
        {
          "indexed": true,
          "internalType": "address",
          "name": "approved",
          "type": "address"
        },
        {
          "indexed": true,
          "internalType": "uint256",
          "name": "tokenId",
          "type": "uint256"
        }
      ],
      "name": "Approval",
      "type": "event"
    },
    {
      "anonymous": false,
      "inputs": [
        {
          "indexed": true,
          "internalType": "address",
          "name": "owner",
          "type": "address"
        },
        {
          "indexed": true,
          "internalType": "address",
          "name": "operator",
          "type": "address"
        },
        {
          "indexed": false,
          "internalType": "bool",
          "name": "approved",
          "type": "bool"
        }
      ],
      "name": "ApprovalForAll",
      "type": "event"
    },
    {
      "anonymous": false,
      "inputs": [
        {
          "indexed": true,
          "internalType": "address",
          "name": "user",
          "type": "address"
        },
        {
          "indexed": false,
          "internalType": "uint256",
          "name": "tokensToBurn",
          "type": "uint256"
        },
        {
          "indexed": false,
          "internalType": "uint256",
          "name": "ethAmount",
          "type": "uint256"
        }
      ],
      "name": "BurnLittercoin",
      "type": "event"
    },
    {
      "anonymous": false,
      "inputs": [
        {
          "indexed": true,
          "internalType": "address",
          "name": "user",
          "type": "address"
        },
        {
          "indexed": false,
          "internalType": "uint256",
          "name": "amount",
          "type": "uint256"
        }
      ],
      "name": "Mint",
      "type": "event"
    },
    {
      "anonymous": false,
      "inputs": [
        {
          "indexed": true,
          "internalType": "address",
          "name": "previousOwner",
          "type": "address"
        },
        {
          "indexed": true,
          "internalType": "address",
          "name": "newOwner",
          "type": "address"
        }
      ],
      "name": "OwnershipTransferred",
      "type": "event"
    },
    {
      "anonymous": false,
      "inputs": [
        {
          "indexed": false,
          "internalType": "address",
          "name": "account",
          "type": "address"
        }
      ],
      "name": "Paused",
      "type": "event"
    },
    {
      "anonymous": false,
      "inputs": [
        {
          "indexed": true,
          "internalType": "address",
          "name": "user",
          "type": "address"
        },
        {
          "indexed": false,
          "internalType": "uint256",
          "name": "rewardAmount",
          "type": "uint256"
        }
      ],
      "name": "Reward",
      "type": "event"
    },
    {
      "anonymous": false,
      "inputs": [
        {
          "indexed": true,
          "internalType": "address",
          "name": "from",
          "type": "address"
        },
        {
          "indexed": true,
          "internalType": "address",
          "name": "to",
          "type": "address"
        },
        {
          "indexed": true,
          "internalType": "uint256",
          "name": "tokenId",
          "type": "uint256"
        }
      ],
      "name": "Transfer",
      "type": "event"
    },
    {
      "anonymous": false,
      "inputs": [
        {
          "indexed": false,
          "internalType": "address",
          "name": "account",
          "type": "address"
        }
      ],
      "name": "Unpaused",
      "type": "event"
    },
    {
      "inputs": [],
      "name": "MAX_TRANSACTIONS",
      "outputs": [
        {
          "internalType": "uint256",
          "name": "",
          "type": "uint256"
        }
      ],
      "stateMutability": "view",
      "type": "function"
    },
    {
      "inputs": [
        {
          "internalType": "address",
          "name": "to",
          "type": "address"
        },
        {
          "internalType": "uint256",
          "name": "tokenId",
          "type": "uint256"
        }
      ],
      "name": "approve",
      "outputs": [],
      "stateMutability": "nonpayable",
      "type": "function"
    },
    {
      "inputs": [
        {
          "internalType": "address",
          "name": "owner",
          "type": "address"
        }
      ],
      "name": "balanceOf",
      "outputs": [
        {
          "internalType": "uint256",
          "name": "",
          "type": "uint256"
        }
      ],
      "stateMutability": "view",
      "type": "function"
    },
    {
      "inputs": [
        {
          "internalType": "uint256[]",
          "name": "tokenIds",
          "type": "uint256[]"
        }
      ],
      "name": "burnLittercoin",
      "outputs": [],
      "stateMutability": "nonpayable",
      "type": "function"
    },
    {
      "inputs": [
        {
          "internalType": "uint256",
          "name": "tokenId",
          "type": "uint256"
        }
      ],
      "name": "getApproved",
      "outputs": [
        {
          "internalType": "address",
          "name": "",
          "type": "address"
        }
      ],
      "stateMutability": "view",
      "type": "function"
    },
    {
      "inputs": [],
      "name": "getCurrentTokenId",
      "outputs": [
        {
          "internalType": "uint256",
          "name": "",
          "type": "uint256"
        }
      ],
      "stateMutability": "view",
      "type": "function"
    },
    {
      "inputs": [],
      "name": "getMerchantTokenAddress",
      "outputs": [
        {
          "internalType": "address",
          "name": "",
          "type": "address"
        }
      ],
      "stateMutability": "view",
      "type": "function"
    },
    {
      "inputs": [],
      "name": "getRewardTokenAddress",
      "outputs": [
        {
          "internalType": "address",
          "name": "",
          "type": "address"
        }
      ],
      "stateMutability": "view",
      "type": "function"
    },
    {
      "inputs": [
        {
          "internalType": "address",
          "name": "owner",
          "type": "address"
        },
        {
          "internalType": "address",
          "name": "operator",
          "type": "address"
        }
      ],
      "name": "isApprovedForAll",
      "outputs": [
        {
          "internalType": "bool",
          "name": "",
          "type": "bool"
        }
      ],
      "stateMutability": "view",
      "type": "function"
    },
    {
      "inputs": [],
      "name": "merchantToken",
      "outputs": [
        {
          "internalType": "contract MerchantToken",
          "name": "",
          "type": "address"
        }
      ],
      "stateMutability": "view",
      "type": "function"
    },
    {
      "inputs": [
        {
          "internalType": "uint256",
          "name": "amount",
          "type": "uint256"
        },
        {
          "internalType": "uint256",
          "name": "nonce",
          "type": "uint256"
        },
        {
          "internalType": "uint256",
          "name": "expiry",
          "type": "uint256"
        },
        {
          "internalType": "bytes",
          "name": "signature",
          "type": "bytes"
        }
      ],
      "name": "mint",
      "outputs": [],
      "stateMutability": "nonpayable",
      "type": "function"
    },
    {
      "inputs": [],
      "name": "name",
      "outputs": [
        {
          "internalType": "string",
          "name": "",
          "type": "string"
        }
      ],
      "stateMutability": "view",
      "type": "function"
    },
    {
      "inputs": [],
      "name": "owner",
      "outputs": [
        {
          "internalType": "address",
          "name": "",
          "type": "address"
        }
      ],
      "stateMutability": "view",
      "type": "function"
    },
    {
      "inputs": [
        {
          "internalType": "uint256",
          "name": "tokenId",
          "type": "uint256"
        }
      ],
      "name": "ownerOf",
      "outputs": [
        {
          "internalType": "address",
          "name": "",
          "type": "address"
        }
      ],
      "stateMutability": "view",
      "type": "function"
    },
    {
      "inputs": [],
      "name": "pause",
      "outputs": [],
      "stateMutability": "nonpayable",
      "type": "function"
    },
    {
      "inputs": [],
      "name": "paused",
      "outputs": [
        {
          "internalType": "bool",
          "name": "",
          "type": "bool"
        }
      ],
      "stateMutability": "view",
      "type": "function"
    },
    {
      "inputs": [],
      "name": "renounceOwnership",
      "outputs": [],
      "stateMutability": "nonpayable",
      "type": "function"
    },
    {
      "inputs": [],
      "name": "rewardToken",
      "outputs": [
        {
          "internalType": "contract OLMRewardToken",
          "name": "",
          "type": "address"
        }
      ],
      "stateMutability": "view",
      "type": "function"
    },
    {
      "inputs": [
        {
          "internalType": "address",
          "name": "from",
          "type": "address"
        },
        {
          "internalType": "address",
          "name": "to",
          "type": "address"
        },
        {
          "internalType": "uint256",
          "name": "tokenId",
          "type": "uint256"
        }
      ],
      "name": "safeTransferFrom",
      "outputs": [],
      "stateMutability": "nonpayable",
      "type": "function"
    },
    {
      "inputs": [
        {
          "internalType": "address",
          "name": "from",
          "type": "address"
        },
        {
          "internalType": "address",
          "name": "to",
          "type": "address"
        },
        {
          "internalType": "uint256",
          "name": "tokenId",
          "type": "uint256"
        },
        {
          "internalType": "bytes",
          "name": "data",
          "type": "bytes"
        }
      ],
      "name": "safeTransferFrom",
      "outputs": [],
      "stateMutability": "nonpayable",
      "type": "function"
    },
    {
      "inputs": [
        {
          "internalType": "address",
          "name": "operator",
          "type": "address"
        },
        {
          "internalType": "bool",
          "name": "approved",
          "type": "bool"
        }
      ],
      "name": "setApprovalForAll",
      "outputs": [],
      "stateMutability": "nonpayable",
      "type": "function"
    },
    {
      "inputs": [
        {
          "internalType": "bytes4",
          "name": "interfaceId",
          "type": "bytes4"
        }
      ],
      "name": "supportsInterface",
      "outputs": [
        {
          "internalType": "bool",
          "name": "",
          "type": "bool"
        }
      ],
      "stateMutability": "view",
      "type": "function"
    },
    {
      "inputs": [],
      "name": "symbol",
      "outputs": [
        {
          "internalType": "string",
          "name": "",
          "type": "string"
        }
      ],
      "stateMutability": "view",
      "type": "function"
    },
    {
      "inputs": [
        {
          "internalType": "uint256",
          "name": "index",
          "type": "uint256"
        }
      ],
      "name": "tokenByIndex",
      "outputs": [
        {
          "internalType": "uint256",
          "name": "",
          "type": "uint256"
        }
      ],
      "stateMutability": "view",
      "type": "function"
    },
    {
      "inputs": [
        {
          "internalType": "address",
          "name": "owner",
          "type": "address"
        },
        {
          "internalType": "uint256",
          "name": "index",
          "type": "uint256"
        }
      ],
      "name": "tokenOfOwnerByIndex",
      "outputs": [
        {
          "internalType": "uint256",
          "name": "",
          "type": "uint256"
        }
      ],
      "stateMutability": "view",
      "type": "function"
    },
    {
      "inputs": [
        {
          "internalType": "uint256",
          "name": "tokenId",
          "type": "uint256"
        }
      ],
      "name": "tokenURI",
      "outputs": [
        {
          "internalType": "string",
          "name": "",
          "type": "string"
        }
      ],
      "stateMutability": "view",
      "type": "function"
    },
    {
      "inputs": [],
      "name": "totalSupply",
      "outputs": [
        {
          "internalType": "uint256",
          "name": "",
          "type": "uint256"
        }
      ],
      "stateMutability": "view",
      "type": "function"
    },
    {
      "inputs": [
        {
          "internalType": "uint256",
          "name": "",
          "type": "uint256"
        }
      ],
      "name": "transferCount",
      "outputs": [
        {
          "internalType": "uint256",
          "name": "",
          "type": "uint256"
        }
      ],
      "stateMutability": "view",
      "type": "function"
    },
    {
      "inputs": [
        {
          "internalType": "address",
          "name": "from",
          "type": "address"
        },
        {
          "internalType": "address",
          "name": "to",
          "type": "address"
        },
        {
          "internalType": "uint256",
          "name": "tokenId",
          "type": "uint256"
        }
      ],
      "name": "transferFrom",
      "outputs": [],
      "stateMutability": "nonpayable",
      "type": "function"
    },
    {
      "inputs": [
        {
          "internalType": "address",
          "name": "newOwner",
          "type": "address"
        }
      ],
      "name": "transferOwnership",
      "outputs": [],
      "stateMutability": "nonpayable",
      "type": "function"
    },
    {
      "inputs": [],
      "name": "unpause",
      "outputs": [],
      "stateMutability": "nonpayable",
      "type": "function"
    },
    {
      "inputs": [
        {
          "internalType": "uint256",
          "name": "",
          "type": "uint256"
        }
      ],
      "name": "usedNonces",
      "outputs": [
        {
          "internalType": "bool",
          "name": "",
          "type": "bool"
        }
      ],
      "stateMutability": "view",
      "type": "function"
    },
    {
      "stateMutability": "payable",
      "type": "receive"
    }
  ],
  "bytecode": "0x608060405234801561001057600080fd5b5060405161b7fe38038061b7fe8339818101604052810190610032919061047d565b6040518060400160405280600a81526020017f4c6974746572636f696e000000000000000000000000000000000000000000008152506040518060400160405280600781526020017f4c4954544552580000000000000000000000000000000000000000000000000081525081600090816100ad91906106fa565b5080600190816100bd91906106fa565b5050506100dc6100d161033260201b60201c565b61033a60201b60201c565b6001600b819055506000600c60006101000a81548160ff02191690831515021790555060405161010b90610400565b604051809103906000f080158015610127573d6000803e3d6000fd5b50601060006101000a81548173ffffffffffffffffffffffffffffffffffffffff021916908373ffffffffffffffffffffffffffffffffffffffff160217905550601060009054906101000a900473ffffffffffffffffffffffffffffffffffffffff1673ffffffffffffffffffffffffffffffffffffffff1663f2fde38b306040518263ffffffff1660e01b81526004016101c391906107db565b600060405180830381600087803b1580156101dd57600080fd5b505af11580156101f1573d6000803e3d6000fd5b505050506040516102019061040d565b604051809103906000f08015801561021d573d6000803e3d6000fd5b50601160006101000a81548173ffffffffffffffffffffffffffffffffffffffff021916908373ffffffffffffffffffffffffffffffffffffffff160217905550601160009054906101000a900473ffffffffffffffffffffffffffffffffffffffff1673ffffffffffffffffffffffffffffffffffffffff1663f2fde38b336040518263ffffffff1660e01b81526004016102b991906107db565b600060405180830381600087803b1580156102d357600080fd5b505af11580156102e7573d6000803e3d6000fd5b5050505080601260006101000a81548173ffffffffffffffffffffffffffffffffffffffff021916908373ffffffffffffffffffffffffffffffffffffffff160217905550506107f6565b600033905090565b6000600a60009054906101000a900473ffffffffffffffffffffffffffffffffffffffff16905081600a60006101000a81548173ffffffffffffffffffffffffffffffffffffffff021916908373ffffffffffffffffffffffffffffffffffffffff1602179055508173ffffffffffffffffffffffffffffffffffffffff168173ffffffffffffffffffffffffffffffffffffffff167f8be0079c531659141344cd1fd0a4f28419497f9722a3daafe3b4186f6b6457e060405160405180910390a35050565b611c9f80615df283390190565b613d6d80617a9183390190565b600080fd5b600073ffffffffffffffffffffffffffffffffffffffff82169050919050565b600061044a8261041f565b9050919050565b61045a8161043f565b811461046557600080fd5b50565b60008151905061047781610451565b92915050565b6000602082840312156104935761049261041a565b5b60006104a184828501610468565b91505092915050565b600081519050919050565b7f4e487b7100000000000000000000000000000000000000000000000000000000600052604160045260246000fd5b7f4e487b7100000000000000000000000000000000000000000000000000000000600052602260045260246000fd5b6000600282049050600182168061052b57607f821691505b60208210810361053e5761053d6104e4565b5b50919050565b60008190508160005260206000209050919050565b60006020601f8301049050919050565b600082821b905092915050565b6000600883026105a67fffffffffffffffffffffffffffffffffffffffffffffffffffffffffffffffff82610569565b6105b08683610569565b95508019841693508086168417925050509392505050565b6000819050919050565b6000819050919050565b60006105f76105f26105ed846105c8565b6105d2565b6105c8565b9050919050565b6000819050919050565b610611836105dc565b61062561061d826105fe565b848454610576565b825550505050565b600090565b61063a61062d565b610645818484610608565b505050565b5b818110156106695761065e600082610632565b60018101905061064b565b5050565b601f8211156106ae5761067f81610544565b61068884610559565b81016020851015610697578190505b6106ab6106a385610559565b83018261064a565b50505b505050565b600082821c905092915050565b60006106d1600019846008026106b3565b1980831691505092915050565b60006106ea83836106c0565b9150826002028217905092915050565b610703826104aa565b67ffffffffffffffff81111561071c5761071b6104b5565b5b6107268254610513565b61073182828561066d565b600060209050601f8311600181146107645760008415610752578287015190505b61075c85826106de565b8655506107c4565b601f19841661077286610544565b60005b8281101561079a57848901518255600182019150602085019450602081019050610775565b868310156107b757848901516107b3601f8916826106c0565b8355505b6001600288020188555050505b505050505050565b6107d58161043f565b82525050565b60006020820190506107f060008301846107cc565b92915050565b6155ed806108056000396000f3fe6080604052600436106101e75760003560e01c806370a0823111610102578063a22cb46511610095578063ec02ef5711610064578063ec02ef57146109d2578063f2fde38b14610a0f578063f568c6c514610a38578063f7c618c114610a63576104c1565b8063a22cb46514610906578063b88d4fde1461092f578063c87b56dd14610958578063e985e9c514610995576104c1565b80638c1a1f77116100d15780638c1a1f771461085a5780638da5cb5b1461088557806395d89b41146108b057806399e117a0146108db576104c1565b806370a08231146107c4578063715018a614610801578063744c0f93146108185780638456cb5914610843576104c1565b80633f4ba83a1161017a578063561892361161014957806356189236146106f45780635c975abb1461071f5780636352211e1461074a5780636717e41c14610787576104c1565b80633f4ba83a1461064e57806342842e0e146106655780634a9eee691461068e5780634f6ccce7146106b7576104c1565b806318160ddd116101b657806318160ddd146105945780631edf9acd146105bf57806323b872dd146105e85780632f745c5914610611576104c1565b806301ffc9a7146104c657806306fdde0314610503578063081812fc1461052e578063095ea7b31461056b576104c1565b366104c1576101f4610a8e565b60003490506000601260009054906101000a900473ffffffffffffffffffffffffffffffffffffffff1673ffffffffffffffffffffffffffffffffffffffff1663feaf968c6040518163ffffffff1660e01b815260040160a060405180830381865afa158015610268573d6000803e3d6000fd5b505050506040513d601f19601f8201168201806040525081019061028c919061370c565b505050915050600081136102d5576040517f08c379a00000000000000000000000000000000000000000000000000000000081526004016102cc906137e4565b60405180910390fd5b6008601260009054906101000a900473ffffffffffffffffffffffffffffffffffffffff1673ffffffffffffffffffffffffffffffffffffffff1663313ce5676040518163ffffffff1660e01b8152600401602060405180830381865afa158015610344573d6000803e3d6000fd5b505050506040513d601f19601f82011682018060405250810190610368919061383d565b60ff16146103ab576040517f08c379a00000000000000000000000000000000000000000000000000000000081526004016103a2906138b6565b60405180910390fd5b600081905060006a52b7d2dcc80cd2e400000082856103ca9190613905565b6103d49190613976565b9050601060009054906101000a900473ffffffffffffffffffffffffffffffffffffffff1673ffffffffffffffffffffffffffffffffffffffff166340c10f1933836040518363ffffffff1660e01b81526004016104339291906139f7565b600060405180830381600087803b15801561044d57600080fd5b505af1158015610461573d6000803e3d6000fd5b505050503373ffffffffffffffffffffffffffffffffffffffff167f619caafabdd75649b302ba8419e48cccf64f37f1983ac4727cfb38b57703ffc9826040516104ab9190613a20565b60405180910390a2505050506104bf610add565b005b600080fd5b3480156104d257600080fd5b506104ed60048036038101906104e89190613a93565b610ae7565b6040516104fa9190613adb565b60405180910390f35b34801561050f57600080fd5b50610518610af9565b6040516105259190613b75565b60405180910390f35b34801561053a57600080fd5b5061055560048036038101906105509190613bac565b610b8b565b6040516105629190613bd9565b60405180910390f35b34801561057757600080fd5b50610592600480360381019061058d9190613c20565b610bd1565b005b3480156105a057600080fd5b506105a9610ce8565b6040516105b69190613a20565b60405180910390f35b3480156105cb57600080fd5b506105e660048036038101906105e19190613cc5565b610cf5565b005b3480156105f457600080fd5b5061060f600480360381019061060a9190613d12565b6110f0565b005b34801561061d57600080fd5b5061063860048036038101906106339190613c20565b611150565b6040516106459190613a20565b60405180910390f35b34801561065a57600080fd5b506106636111f5565b005b34801561067157600080fd5b5061068c60048036038101906106879190613d12565b611207565b005b34801561069a57600080fd5b506106b560048036038101906106b09190613e95565b611227565b005b3480156106c357600080fd5b506106de60048036038101906106d99190613bac565b611527565b6040516106eb9190613a20565b60405180910390f35b34801561070057600080fd5b50610709611598565b6040516107169190613a20565b60405180910390f35b34801561072b57600080fd5b506107346115a9565b6040516107419190613adb565b60405180910390f35b34801561075657600080fd5b50610771600480360381019061076c9190613bac565b6115c0565b60405161077e9190613bd9565b60405180910390f35b34801561079357600080fd5b506107ae60048036038101906107a99190613bac565b611646565b6040516107bb9190613adb565b60405180910390f35b3480156107d057600080fd5b506107eb60048036038101906107e69190613f18565b611666565b6040516107f89190613a20565b60405180910390f35b34801561080d57600080fd5b5061081661171d565b005b34801561082457600080fd5b5061082d611731565b60405161083a9190613bd9565b60405180910390f35b34801561084f57600080fd5b5061085861175b565b005b34801561086657600080fd5b5061086f61176d565b60405161087c9190613fa4565b60405180910390f35b34801561089157600080fd5b5061089a611793565b6040516108a79190613bd9565b60405180910390f35b3480156108bc57600080fd5b506108c56117bd565b6040516108d29190613b75565b60405180910390f35b3480156108e757600080fd5b506108f061184f565b6040516108fd9190613bd9565b60405180910390f35b34801561091257600080fd5b5061092d60048036038101906109289190613feb565b611879565b005b34801561093b57600080fd5b506109566004803603810190610951919061402b565b61188f565b005b34801561096457600080fd5b5061097f600480360381019061097a9190613bac565b6118f1565b60405161098c9190613b75565b60405180910390f35b3480156109a157600080fd5b506109bc60048036038101906109b791906140ae565b611959565b6040516109c99190613adb565b60405180910390f35b3480156109de57600080fd5b506109f960048036038101906109f49190613bac565b6119ed565b604051610a069190613a20565b60405180910390f35b348015610a1b57600080fd5b50610a366004803603810190610a319190613f18565b611a05565b005b348015610a4457600080fd5b50610a4d611a88565b604051610a5a9190613a20565b60405180910390f35b348015610a6f57600080fd5b50610a78611a8d565b604051610a85919061410f565b60405180910390f35b6002600b5403610ad3576040517f08c379a0000000000000000000000000000000000000000000000000000000008152600401610aca90614176565b60405180910390fd5b6002600b81905550565b6001600b81905550565b6000610af282611ab3565b9050919050565b606060008054610b08906141c5565b80601f0160208091040260200160405190810160405280929190818152602001828054610b34906141c5565b8015610b815780601f10610b5657610100808354040283529160200191610b81565b820191906000526020600020905b815481529060010190602001808311610b6457829003601f168201915b5050505050905090565b6000610b9682611b2d565b6004600083815260200190815260200160002060009054906101000a900473ffffffffffffffffffffffffffffffffffffffff169050919050565b6000610bdc826115c0565b90508073ffffffffffffffffffffffffffffffffffffffff168373ffffffffffffffffffffffffffffffffffffffff1603610c4c576040517f08c379a0000000000000000000000000000000000000000000000000000000008152600401610c4390614268565b60405180910390fd5b8073ffffffffffffffffffffffffffffffffffffffff16610c6b611b78565b73ffffffffffffffffffffffffffffffffffffffff161480610c9a5750610c9981610c94611b78565b611959565b5b610cd9576040517f08c379a0000000000000000000000000000000000000000000000000000000008152600401610cd0906142fa565b60405180910390fd5b610ce38383611b80565b505050565b6000600880549050905090565b610cfd610a8e565b601160009054906101000a900473ffffffffffffffffffffffffffffffffffffffff1673ffffffffffffffffffffffffffffffffffffffff166302556a29336040518263ffffffff1660e01b8152600401610d589190613bd9565b602060405180830381865afa158015610d75573d6000803e3d6000fd5b505050506040513d601f19601f82011682018060405250810190610d99919061432f565b610dd8576040517f08c379a0000000000000000000000000000000000000000000000000000000008152600401610dcf906143ce565b60405180910390fd5b600082829050905060008111610e23576040517f08c379a0000000000000000000000000000000000000000000000000000000008152600401610e1a9061443a565b60405180910390fd5b6000610e2d610ce8565b905060008111610e72576040517f08c379a0000000000000000000000000000000000000000000000000000000008152600401610e69906144a6565b60405180910390fd5b600047905060008111610eba576040517f08c379a0000000000000000000000000000000000000000000000000000000008152600401610eb190614512565b60405180910390fd5b60005b83811015610fc7576000868683818110610eda57610ed9614532565b5b9050602002013590503373ffffffffffffffffffffffffffffffffffffffff16610f03826115c0565b73ffffffffffffffffffffffffffffffffffffffff1614610f59576040517f08c379a0000000000000000000000000000000000000000000000000000000008152600401610f50906145d3565b60405180910390fd5b6002600f6000838152602001908152602001600020541115610fb0576040517f08c379a0000000000000000000000000000000000000000000000000000000008152600401610fa790614665565b60405180910390fd5b610fb981611c39565b508080600101915050610ebd565b506000828483610fd79190613905565b610fe19190613976565b905060003373ffffffffffffffffffffffffffffffffffffffff1682604051611009906146b6565b60006040518083038185875af1925050503d8060008114611046576040519150601f19603f3d011682016040523d82523d6000602084013e61104b565b606091505b505090508061108f576040517f08c379a000000000000000000000000000000000000000000000000000000000815260040161108690614717565b60405180910390fd5b3373ffffffffffffffffffffffffffffffffffffffff167f62c43c4ca6239525d02ec5d50013da458e2aabd6147394ddd139edae8d84439b86846040516110d7929190614737565b60405180910390a250505050506110ec610add565b5050565b6111016110fb611b78565b82611d87565b611140576040517f08c379a0000000000000000000000000000000000000000000000000000000008152600401611137906147d2565b60405180910390fd5b61114b838383611e1c565b505050565b600061115b83611666565b821061119c576040517f08c379a000000000000000000000000000000000000000000000000000000000815260040161119390614864565b60405180910390fd5b600660008473ffffffffffffffffffffffffffffffffffffffff1673ffffffffffffffffffffffffffffffffffffffff168152602001908152602001600020600083815260200190815260200160002054905092915050565b6111fd612115565b611205612193565b565b6112228383836040518060200160405280600081525061188f565b505050565b6000841161126a576040517f08c379a0000000000000000000000000000000000000000000000000000000008152600401611261906148d0565b60405180910390fd5b814211156112ad576040517f08c379a00000000000000000000000000000000000000000000000000000000081526004016112a49061493c565b60405180910390fd5b600e600084815260200190815260200160002060009054906101000a900460ff161561130e576040517f08c379a0000000000000000000000000000000000000000000000000000000008152600401611305906149a8565b60405180910390fd5b6001600e600085815260200190815260200160002060006101000a81548160ff02191690831515021790555060003385858560405160200161135394939291906149c8565b604051602081830303815290604052805190602001209050611373611793565b73ffffffffffffffffffffffffffffffffffffffff1661139b611395836121f6565b8461222c565b73ffffffffffffffffffffffffffffffffffffffff16146113f1576040517f08c379a00000000000000000000000000000000000000000000000000000000081526004016113e890614a59565b60405180910390fd5b60006114056113ff836121f6565b8461222c565b905061140f611793565b73ffffffffffffffffffffffffffffffffffffffff168173ffffffffffffffffffffffffffffffffffffffff161461147c576040517f08c379a000000000000000000000000000000000000000000000000000000000815260040161147390614a59565b60405180910390fd5b60005b868110156114d057611491600d612253565b600061149d600d612269565b90506114a93382612277565b6000600f60008381526020019081526020016000208190555050808060010191505061147f565b503373ffffffffffffffffffffffffffffffffffffffff167f0f6798a560793a54c3bcfe86a93cde1e73087d944c0ea20544137d4121396885876040516115179190613a20565b60405180910390a2505050505050565b6000611531610ce8565b8210611572576040517f08c379a000000000000000000000000000000000000000000000000000000000815260040161156990614aeb565b60405180910390fd5b6008828154811061158657611585614532565b5b90600052602060002001549050919050565b60006115a4600d612269565b905090565b6000600c60009054906101000a900460ff16905090565b6000806115cc83612295565b9050600073ffffffffffffffffffffffffffffffffffffffff168173ffffffffffffffffffffffffffffffffffffffff160361163d576040517f08c379a000000000000000000000000000000000000000000000000000000000815260040161163490614b57565b60405180910390fd5b80915050919050565b600e6020528060005260406000206000915054906101000a900460ff1681565b60008073ffffffffffffffffffffffffffffffffffffffff168273ffffffffffffffffffffffffffffffffffffffff16036116d6576040517f08c379a00000000000000000000000000000000000000000000000000000000081526004016116cd90614be9565b60405180910390fd5b600360008373ffffffffffffffffffffffffffffffffffffffff1673ffffffffffffffffffffffffffffffffffffffff168152602001908152602001600020549050919050565b611725612115565b61172f60006122d2565b565b6000601160009054906101000a900473ffffffffffffffffffffffffffffffffffffffff16905090565b611763612115565b61176b612398565b565b601160009054906101000a900473ffffffffffffffffffffffffffffffffffffffff1681565b6000600a60009054906101000a900473ffffffffffffffffffffffffffffffffffffffff16905090565b6060600180546117cc906141c5565b80601f01602080910402602001604051908101604052809291908181526020018280546117f8906141c5565b80156118455780601f1061181a57610100808354040283529160200191611845565b820191906000526020600020905b81548152906001019060200180831161182857829003601f168201915b5050505050905090565b6000601060009054906101000a900473ffffffffffffffffffffffffffffffffffffffff16905090565b61188b611884611b78565b83836123fb565b5050565b6118a061189a611b78565b83611d87565b6118df576040517f08c379a00000000000000000000000000000000000000000000000000000000081526004016118d6906147d2565b60405180910390fd5b6118eb84848484612567565b50505050565b60606118fc82611b2d565b60006119066125c3565b905060008151116119265760405180602001604052806000815250611951565b80611930846125da565b604051602001611941929190614c45565b6040516020818303038152906040525b915050919050565b6000600560008473ffffffffffffffffffffffffffffffffffffffff1673ffffffffffffffffffffffffffffffffffffffff16815260200190815260200160002060008373ffffffffffffffffffffffffffffffffffffffff1673ffffffffffffffffffffffffffffffffffffffff16815260200190815260200160002060009054906101000a900460ff16905092915050565b600f6020528060005260406000206000915090505481565b611a0d612115565b600073ffffffffffffffffffffffffffffffffffffffff168173ffffffffffffffffffffffffffffffffffffffff1603611a7c576040517f08c379a0000000000000000000000000000000000000000000000000000000008152600401611a7390614cdb565b60405180910390fd5b611a85816122d2565b50565b600381565b601060009054906101000a900473ffffffffffffffffffffffffffffffffffffffff1681565b60007f780e9d63000000000000000000000000000000000000000000000000000000007bffffffffffffffffffffffffffffffffffffffffffffffffffffffff1916827bffffffffffffffffffffffffffffffffffffffffffffffffffffffff19161480611b265750611b25826126a8565b5b9050919050565b611b368161278a565b611b75576040517f08c379a0000000000000000000000000000000000000000000000000000000008152600401611b6c90614b57565b60405180910390fd5b50565b600033905090565b816004600083815260200190815260200160002060006101000a81548173ffffffffffffffffffffffffffffffffffffffff021916908373ffffffffffffffffffffffffffffffffffffffff160217905550808273ffffffffffffffffffffffffffffffffffffffff16611bf3836115c0565b73ffffffffffffffffffffffffffffffffffffffff167f8c5be1e5ebec7d5bd14f71427d1e84f3dd0314c0f7b2291e5b200ac8c7c3b92560405160405180910390a45050565b6000611c44826115c0565b9050611c548160008460016127cb565b611c5d826115c0565b90506004600083815260200190815260200160002060006101000a81549073ffffffffffffffffffffffffffffffffffffffff02191690556001600360008373ffffffffffffffffffffffffffffffffffffffff1673ffffffffffffffffffffffffffffffffffffffff168152602001908152602001600020600082825403925050819055506002600083815260200190815260200160002060006101000a81549073ffffffffffffffffffffffffffffffffffffffff021916905581600073ffffffffffffffffffffffffffffffffffffffff168273ffffffffffffffffffffffffffffffffffffffff167fddf252ad1be2c89b69c2b068fc378daa952ba7f163c4a11628f55a4df523b3ef60405160405180910390a4611d838160008460016128cf565b5050565b600080611d93836115c0565b90508073ffffffffffffffffffffffffffffffffffffffff168473ffffffffffffffffffffffffffffffffffffffff161480611dd55750611dd48185611959565b5b80611e1357508373ffffffffffffffffffffffffffffffffffffffff16611dfb84610b8b565b73ffffffffffffffffffffffffffffffffffffffff16145b91505092915050565b8273ffffffffffffffffffffffffffffffffffffffff16611e3c826115c0565b73ffffffffffffffffffffffffffffffffffffffff1614611e92576040517f08c379a0000000000000000000000000000000000000000000000000000000008152600401611e8990614d6d565b60405180910390fd5b600073ffffffffffffffffffffffffffffffffffffffff168273ffffffffffffffffffffffffffffffffffffffff1603611f01576040517f08c379a0000000000000000000000000000000000000000000000000000000008152600401611ef890614dff565b60405180910390fd5b611f0e83838360016127cb565b8273ffffffffffffffffffffffffffffffffffffffff16611f2e826115c0565b73ffffffffffffffffffffffffffffffffffffffff1614611f84576040517f08c379a0000000000000000000000000000000000000000000000000000000008152600401611f7b90614d6d565b60405180910390fd5b6004600082815260200190815260200160002060006101000a81549073ffffffffffffffffffffffffffffffffffffffff02191690556001600360008573ffffffffffffffffffffffffffffffffffffffff1673ffffffffffffffffffffffffffffffffffffffff168152602001908152602001600020600082825403925050819055506001600360008473ffffffffffffffffffffffffffffffffffffffff1673ffffffffffffffffffffffffffffffffffffffff16815260200190815260200160002060008282540192505081905550816002600083815260200190815260200160002060006101000a81548173ffffffffffffffffffffffffffffffffffffffff021916908373ffffffffffffffffffffffffffffffffffffffff160217905550808273ffffffffffffffffffffffffffffffffffffffff168473ffffffffffffffffffffffffffffffffffffffff167fddf252ad1be2c89b69c2b068fc378daa952ba7f163c4a11628f55a4df523b3ef60405160405180910390a461211083838360016128cf565b505050565b61211d611b78565b73ffffffffffffffffffffffffffffffffffffffff1661213b611793565b73ffffffffffffffffffffffffffffffffffffffff1614612191576040517f08c379a000000000000000000000000000000000000000000000000000000000815260040161218890614e6b565b60405180910390fd5b565b61219b6128d5565b6000600c60006101000a81548160ff0219169083151502179055507f5db9ee0a495bf2e6ff9c91a7834c1ba4fdd244a5e8aa4e537bd38aeae4b073aa6121df611b78565b6040516121ec9190613bd9565b60405180910390a1565b60007f19457468657265756d205369676e6564204d6573736167653a0a33320000000060005281601c52603c6000209050919050565b600080600061223b858561291e565b915091506122488161296f565b819250505092915050565b6001816000016000828254019250508190555050565b600081600001549050919050565b612291828260405180602001604052806000815250612ad5565b5050565b60006002600083815260200190815260200160002060009054906101000a900473ffffffffffffffffffffffffffffffffffffffff169050919050565b6000600a60009054906101000a900473ffffffffffffffffffffffffffffffffffffffff16905081600a60006101000a81548173ffffffffffffffffffffffffffffffffffffffff021916908373ffffffffffffffffffffffffffffffffffffffff1602179055508173ffffffffffffffffffffffffffffffffffffffff168173ffffffffffffffffffffffffffffffffffffffff167f8be0079c531659141344cd1fd0a4f28419497f9722a3daafe3b4186f6b6457e060405160405180910390a35050565b6123a0612b30565b6001600c60006101000a81548160ff0219169083151502179055507f62e78cea01bee320cd4e420270b5ea74000d11b0c9f74754ebdbfc544b05a2586123e4611b78565b6040516123f19190613bd9565b60405180910390a1565b8173ffffffffffffffffffffffffffffffffffffffff168373ffffffffffffffffffffffffffffffffffffffff1603612469576040517f08c379a000000000000000000000000000000000000000000000000000000000815260040161246090614ed7565b60405180910390fd5b80600560008573ffffffffffffffffffffffffffffffffffffffff1673ffffffffffffffffffffffffffffffffffffffff16815260200190815260200160002060008473ffffffffffffffffffffffffffffffffffffffff1673ffffffffffffffffffffffffffffffffffffffff16815260200190815260200160002060006101000a81548160ff0219169083151502179055508173ffffffffffffffffffffffffffffffffffffffff168373ffffffffffffffffffffffffffffffffffffffff167f17307eab39ab6107e8899845ad3d59bd9653f200f220920489ca2b5937696c318360405161255a9190613adb565b60405180910390a3505050565b612572848484611e1c565b61257e84848484612b7a565b6125bd576040517f08c379a00000000000000000000000000000000000000000000000000000000081526004016125b490614f69565b60405180910390fd5b50505050565b606060405180602001604052806000815250905090565b6060600060016125e984612d01565b01905060008167ffffffffffffffff81111561260857612607613d6a565b5b6040519080825280601f01601f19166020018201604052801561263a5781602001600182028036833780820191505090505b509050600082602001820190505b60011561269d578080600190039150507f3031323334353637383961626364656600000000000000000000000000000000600a86061a8153600a858161269157612690613947565b5b04945060008503612648575b819350505050919050565b60007f80ac58cd000000000000000000000000000000000000000000000000000000007bffffffffffffffffffffffffffffffffffffffffffffffffffffffff1916827bffffffffffffffffffffffffffffffffffffffffffffffffffffffff1916148061277357507f5b5e139f000000000000000000000000000000000000000000000000000000007bffffffffffffffffffffffffffffffffffffffffffffffffffffffff1916827bffffffffffffffffffffffffffffffffffffffffffffffffffffffff1916145b80612783575061278282612e54565b5b9050919050565b60008073ffffffffffffffffffffffffffffffffffffffff166127ac83612295565b73ffffffffffffffffffffffffffffffffffffffff1614159050919050565b6127d784848484612ebe565b600073ffffffffffffffffffffffffffffffffffffffff168473ffffffffffffffffffffffffffffffffffffffff16141580156128415750600073ffffffffffffffffffffffffffffffffffffffff168373ffffffffffffffffffffffffffffffffffffffff1614155b156128c9576001600f6000848152602001908152602001600020600082825461286a9190614f89565b925050819055506003600f60008481526020019081526020016000205411156128c8576040517f08c379a00000000000000000000000000000000000000000000000000000000081526004016128bf90615009565b60405180910390fd5b5b50505050565b50505050565b6128dd6115a9565b61291c576040517f08c379a000000000000000000000000000000000000000000000000000000000815260040161291390615075565b60405180910390fd5b565b600080604183510361295f5760008060006020860151925060408601519150606086015160001a90506129538782858561301c565b94509450505050612968565b60006002915091505b9250929050565b6000600481111561298357612982615095565b5b81600481111561299657612995615095565b5b0315612ad257600160048111156129b0576129af615095565b5b8160048111156129c3576129c2615095565b5b03612a03576040517f08c379a00000000000000000000000000000000000000000000000000000000081526004016129fa90615110565b60405180910390fd5b60026004811115612a1757612a16615095565b5b816004811115612a2a57612a29615095565b5b03612a6a576040517f08c379a0000000000000000000000000000000000000000000000000000000008152600401612a619061517c565b60405180910390fd5b60036004811115612a7e57612a7d615095565b5b816004811115612a9157612a90615095565b5b03612ad1576040517f08c379a0000000000000000000000000000000000000000000000000000000008152600401612ac89061520e565b60405180910390fd5b5b50565b612adf83836130fe565b612aec6000848484612b7a565b612b2b576040517f08c379a0000000000000000000000000000000000000000000000000000000008152600401612b2290614f69565b60405180910390fd5b505050565b612b386115a9565b15612b78576040517f08c379a0000000000000000000000000000000000000000000000000000000008152600401612b6f9061527a565b60405180910390fd5b565b6000612b9b8473ffffffffffffffffffffffffffffffffffffffff1661331b565b15612cf4578373ffffffffffffffffffffffffffffffffffffffff1663150b7a02612bc4611b78565b8786866040518563ffffffff1660e01b8152600401612be694939291906152ef565b6020604051808303816000875af1925050508015612c2257506040513d601f19601f82011682018060405250810190612c1f9190615350565b60015b612ca4573d8060008114612c52576040519150601f19603f3d011682016040523d82523d6000602084013e612c57565b606091505b506000815103612c9c576040517f08c379a0000000000000000000000000000000000000000000000000000000008152600401612c9390614f69565b60405180910390fd5b805181602001fd5b63150b7a0260e01b7bffffffffffffffffffffffffffffffffffffffffffffffffffffffff1916817bffffffffffffffffffffffffffffffffffffffffffffffffffffffff191614915050612cf9565b600190505b949350505050565b600080600090507a184f03e93ff9f4daa797ed6e38ed64bf6a1f0100000000000000008310612d5f577a184f03e93ff9f4daa797ed6e38ed64bf6a1f0100000000000000008381612d5557612d54613947565b5b0492506040810190505b6d04ee2d6d415b85acef81000000008310612d9c576d04ee2d6d415b85acef81000000008381612d9257612d91613947565b5b0492506020810190505b662386f26fc100008310612dcb57662386f26fc100008381612dc157612dc0613947565b5b0492506010810190505b6305f5e1008310612df4576305f5e1008381612dea57612de9613947565b5b0492506008810190505b6127108310612e19576127108381612e0f57612e0e613947565b5b0492506004810190505b60648310612e3c5760648381612e3257612e31613947565b5b0492506002810190505b600a8310612e4b576001810190505b80915050919050565b60007f01ffc9a7000000000000000000000000000000000000000000000000000000007bffffffffffffffffffffffffffffffffffffffffffffffffffffffff1916827bffffffffffffffffffffffffffffffffffffffffffffffffffffffff1916149050919050565b612eca8484848461333e565b6001811115612f0e576040517f08c379a0000000000000000000000000000000000000000000000000000000008152600401612f05906153ef565b60405180910390fd5b6000829050600073ffffffffffffffffffffffffffffffffffffffff168573ffffffffffffffffffffffffffffffffffffffff1603612f5557612f5081613344565b612f94565b8373ffffffffffffffffffffffffffffffffffffffff168573ffffffffffffffffffffffffffffffffffffffff1614612f9357612f92858261338d565b5b5b600073ffffffffffffffffffffffffffffffffffffffff168473ffffffffffffffffffffffffffffffffffffffff1603612fd657612fd1816134fa565b613015565b8473ffffffffffffffffffffffffffffffffffffffff168473ffffffffffffffffffffffffffffffffffffffff16146130145761301384826135cb565b5b5b5050505050565b6000807f7fffffffffffffffffffffffffffffff5d576e7357a4501ddfe92f46681b20a08360001c11156130575760006003915091506130f5565b60006001878787876040516000815260200160405260405161307c9493929190615437565b6020604051602081039080840390855afa15801561309e573d6000803e3d6000fd5b505050602060405103519050600073ffffffffffffffffffffffffffffffffffffffff168173ffffffffffffffffffffffffffffffffffffffff16036130ec576000600192509250506130f5565b80600092509250505b94509492505050565b600073ffffffffffffffffffffffffffffffffffffffff168273ffffffffffffffffffffffffffffffffffffffff160361316d576040517f08c379a0000000000000000000000000000000000000000000000000000000008152600401613164906154c8565b60405180910390fd5b6131768161278a565b156131b6576040517f08c379a00000000000000000000000000000000000000000000000000000000081526004016131ad90615534565b60405180910390fd5b6131c46000838360016127cb565b6131cd8161278a565b1561320d576040517f08c379a000000000000000000000000000000000000000000000000000000000815260040161320490615534565b60405180910390fd5b6001600360008473ffffffffffffffffffffffffffffffffffffffff1673ffffffffffffffffffffffffffffffffffffffff16815260200190815260200160002060008282540192505081905550816002600083815260200190815260200160002060006101000a81548173ffffffffffffffffffffffffffffffffffffffff021916908373ffffffffffffffffffffffffffffffffffffffff160217905550808273ffffffffffffffffffffffffffffffffffffffff16600073ffffffffffffffffffffffffffffffffffffffff167fddf252ad1be2c89b69c2b068fc378daa952ba7f163c4a11628f55a4df523b3ef60405160405180910390a46133176000838360016128cf565b5050565b6000808273ffffffffffffffffffffffffffffffffffffffff163b119050919050565b50505050565b6008805490506009600083815260200190815260200160002081905550600881908060018154018082558091505060019003906000526020600020016000909190919091505550565b6000600161339a84611666565b6133a49190615554565b9050600060076000848152602001908152602001600020549050818114613489576000600660008673ffffffffffffffffffffffffffffffffffffffff1673ffffffffffffffffffffffffffffffffffffffff168152602001908152602001600020600084815260200190815260200160002054905080600660008773ffffffffffffffffffffffffffffffffffffffff1673ffffffffffffffffffffffffffffffffffffffff168152602001908152602001600020600084815260200190815260200160002081905550816007600083815260200190815260200160002081905550505b6007600084815260200190815260200160002060009055600660008573ffffffffffffffffffffffffffffffffffffffff1673ffffffffffffffffffffffffffffffffffffffff16815260200190815260200160002060008381526020019081526020016000206000905550505050565b6000600160088054905061350e9190615554565b905060006009600084815260200190815260200160002054905060006008838154811061353e5761353d614532565b5b9060005260206000200154905080600883815481106135605761355f614532565b5b9060005260206000200181905550816009600083815260200190815260200160002081905550600960008581526020019081526020016000206000905560088054806135af576135ae615588565b5b6001900381819060005260206000200160009055905550505050565b60006135d683611666565b905081600660008573ffffffffffffffffffffffffffffffffffffffff1673ffffffffffffffffffffffffffffffffffffffff168152602001908152602001600020600083815260200190815260200160002081905550806007600084815260200190815260200160002081905550505050565b6000604051905090565b600080fd5b600080fd5b600069ffffffffffffffffffff82169050919050565b61367d8161365e565b811461368857600080fd5b50565b60008151905061369a81613674565b92915050565b6000819050919050565b6136b3816136a0565b81146136be57600080fd5b50565b6000815190506136d0816136aa565b92915050565b6000819050919050565b6136e9816136d6565b81146136f457600080fd5b50565b600081519050613706816136e0565b92915050565b600080600080600060a0868803121561372857613727613654565b5b60006137368882890161368b565b9550506020613747888289016136c1565b9450506040613758888289016136f7565b9350506060613769888289016136f7565b925050608061377a8882890161368b565b9150509295509295909350565b600082825260208201905092915050565b7f496e76616c69642070726963652066726f6d20436861696e6c696e6b00000000600082015250565b60006137ce601c83613787565b91506137d982613798565b602082019050919050565b600060208201905081810360008301526137fd816137c1565b9050919050565b600060ff82169050919050565b61381a81613804565b811461382557600080fd5b50565b60008151905061383781613811565b92915050565b60006020828403121561385357613852613654565b5b600061386184828501613828565b91505092915050565b7f556e6578706563746564207072696365206665656420646563696d616c730000600082015250565b60006138a0601e83613787565b91506138ab8261386a565b602082019050919050565b600060208201905081810360008301526138cf81613893565b9050919050565b7f4e487b7100000000000000000000000000000000000000000000000000000000600052601160045260246000fd5b6000613910826136d6565b915061391b836136d6565b9250828202613929816136d6565b915082820484148315176139405761393f6138d6565b5b5092915050565b7f4e487b7100000000000000000000000000000000000000000000000000000000600052601260045260246000fd5b6000613981826136d6565b915061398c836136d6565b92508261399c5761399b613947565b5b828204905092915050565b600073ffffffffffffffffffffffffffffffffffffffff82169050919050565b60006139d2826139a7565b9050919050565b6139e2816139c7565b82525050565b6139f1816136d6565b82525050565b6000604082019050613a0c60008301856139d9565b613a1960208301846139e8565b9392505050565b6000602082019050613a3560008301846139e8565b92915050565b60007fffffffff0000000000000000000000000000000000000000000000000000000082169050919050565b613a7081613a3b565b8114613a7b57600080fd5b50565b600081359050613a8d81613a67565b92915050565b600060208284031215613aa957613aa8613654565b5b6000613ab784828501613a7e565b91505092915050565b60008115159050919050565b613ad581613ac0565b82525050565b6000602082019050613af06000830184613acc565b92915050565b600081519050919050565b60005b83811015613b1f578082015181840152602081019050613b04565b60008484015250505050565b6000601f19601f8301169050919050565b6000613b4782613af6565b613b518185613787565b9350613b61818560208601613b01565b613b6a81613b2b565b840191505092915050565b60006020820190508181036000830152613b8f8184613b3c565b905092915050565b600081359050613ba6816136e0565b92915050565b600060208284031215613bc257613bc1613654565b5b6000613bd084828501613b97565b91505092915050565b6000602082019050613bee60008301846139d9565b92915050565b613bfd816139c7565b8114613c0857600080fd5b50565b600081359050613c1a81613bf4565b92915050565b60008060408385031215613c3757613c36613654565b5b6000613c4585828601613c0b565b9250506020613c5685828601613b97565b9150509250929050565b600080fd5b600080fd5b600080fd5b60008083601f840112613c8557613c84613c60565b5b8235905067ffffffffffffffff811115613ca257613ca1613c65565b5b602083019150836020820283011115613cbe57613cbd613c6a565b5b9250929050565b60008060208385031215613cdc57613cdb613654565b5b600083013567ffffffffffffffff811115613cfa57613cf9613659565b5b613d0685828601613c6f565b92509250509250929050565b600080600060608486031215613d2b57613d2a613654565b5b6000613d3986828701613c0b565b9350506020613d4a86828701613c0b565b9250506040613d5b86828701613b97565b9150509250925092565b600080fd5b7f4e487b7100000000000000000000000000000000000000000000000000000000600052604160045260246000fd5b613da282613b2b565b810181811067ffffffffffffffff82111715613dc157613dc0613d6a565b5b80604052505050565b6000613dd461364a565b9050613de08282613d99565b919050565b600067ffffffffffffffff821115613e0057613dff613d6a565b5b613e0982613b2b565b9050602081019050919050565b82818337600083830152505050565b6000613e38613e3384613de5565b613dca565b905082815260208101848484011115613e5457613e53613d65565b5b613e5f848285613e16565b509392505050565b600082601f830112613e7c57613e7b613c60565b5b8135613e8c848260208601613e25565b91505092915050565b60008060008060808587031215613eaf57613eae613654565b5b6000613ebd87828801613b97565b9450506020613ece87828801613b97565b9350506040613edf87828801613b97565b925050606085013567ffffffffffffffff811115613f0057613eff613659565b5b613f0c87828801613e67565b91505092959194509250565b600060208284031215613f2e57613f2d613654565b5b6000613f3c84828501613c0b565b91505092915050565b6000819050919050565b6000613f6a613f65613f60846139a7565b613f45565b6139a7565b9050919050565b6000613f7c82613f4f565b9050919050565b6000613f8e82613f71565b9050919050565b613f9e81613f83565b82525050565b6000602082019050613fb96000830184613f95565b92915050565b613fc881613ac0565b8114613fd357600080fd5b50565b600081359050613fe581613fbf565b92915050565b6000806040838503121561400257614001613654565b5b600061401085828601613c0b565b925050602061402185828601613fd6565b9150509250929050565b6000806000806080858703121561404557614044613654565b5b600061405387828801613c0b565b945050602061406487828801613c0b565b935050604061407587828801613b97565b925050606085013567ffffffffffffffff81111561409657614095613659565b5b6140a287828801613e67565b91505092959194509250565b600080604083850312156140c5576140c4613654565b5b60006140d385828601613c0b565b92505060206140e485828601613c0b565b9150509250929050565b60006140f982613f71565b9050919050565b614109816140ee565b82525050565b60006020820190506141246000830184614100565b92915050565b7f5265656e7472616e637947756172643a207265656e7472616e742063616c6c00600082015250565b6000614160601f83613787565b915061416b8261412a565b602082019050919050565b6000602082019050818103600083015261418f81614153565b9050919050565b7f4e487b7100000000000000000000000000000000000000000000000000000000600052602260045260246000fd5b600060028204905060018216806141dd57607f821691505b6020821081036141f0576141ef614196565b5b50919050565b7f4552433732313a20617070726f76616c20746f2063757272656e74206f776e6560008201527f7200000000000000000000000000000000000000000000000000000000000000602082015250565b6000614252602183613787565b915061425d826141f6565b604082019050919050565b6000602082019050818103600083015261428181614245565b9050919050565b7f4552433732313a20617070726f76652063616c6c6572206973206e6f7420746f60008201527f6b656e206f776e6572206f7220617070726f76656420666f7220616c6c000000602082015250565b60006142e4603d83613787565b91506142ef82614288565b604082019050919050565b60006020820190508181036000830152614313816142d7565b9050919050565b60008151905061432981613fbf565b92915050565b60006020828403121561434557614344613654565b5b60006143538482850161431a565b91505092915050565b7f4d75737420686f6c6420612076616c6964204d65726368616e7420546f6b656e60008201527f2e00000000000000000000000000000000000000000000000000000000000000602082015250565b60006143b8602183613787565b91506143c38261435c565b604082019050919050565b600060208201905081810360008301526143e7816143ab565b9050919050565b7f4e6f20746f6b656e732070726f76696465642e00000000000000000000000000600082015250565b6000614424601383613787565b915061442f826143ee565b602082019050919050565b6000602082019050818103600083015261445381614417565b9050919050565b7f4e6f20746f6b656e7320696e2063697263756c6174696f6e2e00000000000000600082015250565b6000614490601983613787565b915061449b8261445a565b602082019050919050565b600060208201905081810360008301526144bf81614483565b9050919050565b7f4e6f7420656e6f7567682045544820696e20636f6e74726163742e0000000000600082015250565b60006144fc601b83613787565b9150614507826144c6565b602082019050919050565b6000602082019050818103600083015261452b816144ef565b9050919050565b7f4e487b7100000000000000000000000000000000000000000000000000000000600052603260045260246000fd5b7f43616c6c6572206d757374206f776e20616c6c20746f6b656e73206265696e6760008201527f2072656465656d65642e00000000000000000000000000000000000000000000602082015250565b60006145bd602a83613787565b91506145c882614561565b604082019050919050565b600060208201905081810360008301526145ec816145b0565b9050919050565b7f546f6b656e20686173206265656e20696e76616c69646174656420647565207460008201527f6f20746f6f206d616e79207472616e73666572732e0000000000000000000000602082015250565b600061464f603583613787565b915061465a826145f3565b604082019050919050565b6000602082019050818103600083015261467e81614642565b9050919050565b600081905092915050565b50565b60006146a0600083614685565b91506146ab82614690565b600082019050919050565b60006146c182614693565b9150819050919050565b7f5472616e73666572206661696c65640000000000000000000000000000000000600082015250565b6000614701600f83613787565b915061470c826146cb565b602082019050919050565b60006020820190508181036000830152614730816146f4565b9050919050565b600060408201905061474c60008301856139e8565b61475960208301846139e8565b9392505050565b7f4552433732313a2063616c6c6572206973206e6f7420746f6b656e206f776e6560008201527f72206f7220617070726f76656400000000000000000000000000000000000000602082015250565b60006147bc602d83613787565b91506147c782614760565b604082019050919050565b600060208201905081810360008301526147eb816147af565b9050919050565b7f455243373231456e756d657261626c653a206f776e657220696e646578206f7560008201527f74206f6620626f756e6473000000000000000000000000000000000000000000602082015250565b600061484e602b83613787565b9150614859826147f2565b604082019050919050565b6000602082019050818103600083015261487d81614841565b9050919050565b7f416d6f756e74206d7573742062652067726561746572207468616e207a65726f600082015250565b60006148ba602083613787565b91506148c582614884565b602082019050919050565b600060208201905081810360008301526148e9816148ad565b9050919050565b7f5369676e61747572652068617320657870697265640000000000000000000000600082015250565b6000614926601583613787565b9150614931826148f0565b602082019050919050565b6000602082019050818103600083015261495581614919565b9050919050565b7f4e6f6e636520616c726561647920757365640000000000000000000000000000600082015250565b6000614992601283613787565b915061499d8261495c565b602082019050919050565b600060208201905081810360008301526149c181614985565b9050919050565b60006080820190506149dd60008301876139d9565b6149ea60208301866139e8565b6149f760408301856139e8565b614a0460608301846139e8565b95945050505050565b7f496e76616c6964207369676e6174757265000000000000000000000000000000600082015250565b6000614a43601183613787565b9150614a4e82614a0d565b602082019050919050565b60006020820190508181036000830152614a7281614a36565b9050919050565b7f455243373231456e756d657261626c653a20676c6f62616c20696e646578206f60008201527f7574206f6620626f756e64730000000000000000000000000000000000000000602082015250565b6000614ad5602c83613787565b9150614ae082614a79565b604082019050919050565b60006020820190508181036000830152614b0481614ac8565b9050919050565b7f4552433732313a20696e76616c696420746f6b656e2049440000000000000000600082015250565b6000614b41601883613787565b9150614b4c82614b0b565b602082019050919050565b60006020820190508181036000830152614b7081614b34565b9050919050565b7f4552433732313a2061646472657373207a65726f206973206e6f74206120766160008201527f6c6964206f776e65720000000000000000000000000000000000000000000000602082015250565b6000614bd3602983613787565b9150614bde82614b77565b604082019050919050565b60006020820190508181036000830152614c0281614bc6565b9050919050565b600081905092915050565b6000614c1f82613af6565b614c298185614c09565b9350614c39818560208601613b01565b80840191505092915050565b6000614c518285614c14565b9150614c5d8284614c14565b91508190509392505050565b7f4f776e61626c653a206e6577206f776e657220697320746865207a65726f206160008201527f6464726573730000000000000000000000000000000000000000000000000000602082015250565b6000614cc5602683613787565b9150614cd082614c69565b604082019050919050565b60006020820190508181036000830152614cf481614cb8565b9050919050565b7f4552433732313a207472616e736665722066726f6d20696e636f72726563742060008201527f6f776e6572000000000000000000000000000000000000000000000000000000602082015250565b6000614d57602583613787565b9150614d6282614cfb565b604082019050919050565b60006020820190508181036000830152614d8681614d4a565b9050919050565b7f4552433732313a207472616e7366657220746f20746865207a65726f2061646460008201527f7265737300000000000000000000000000000000000000000000000000000000602082015250565b6000614de9602483613787565b9150614df482614d8d565b604082019050919050565b60006020820190508181036000830152614e1881614ddc565b9050919050565b7f4f776e61626c653a2063616c6c6572206973206e6f7420746865206f776e6572600082015250565b6000614e55602083613787565b9150614e6082614e1f565b602082019050919050565b60006020820190508181036000830152614e8481614e48565b9050919050565b7f4552433732313a20617070726f766520746f2063616c6c657200000000000000600082015250565b6000614ec1601983613787565b9150614ecc82614e8b565b602082019050919050565b60006020820190508181036000830152614ef081614eb4565b9050919050565b7f4552433732313a207472616e7366657220746f206e6f6e20455243373231526560008201527f63656976657220696d706c656d656e7465720000000000000000000000000000602082015250565b6000614f53603283613787565b9150614f5e82614ef7565b604082019050919050565b60006020820190508181036000830152614f8281614f46565b9050919050565b6000614f94826136d6565b9150614f9f836136d6565b9250828201905080821115614fb757614fb66138d6565b5b92915050565b7f546f6b656e207472616e73666572206c696d69742065786365656465642e0000600082015250565b6000614ff3601e83613787565b9150614ffe82614fbd565b602082019050919050565b6000602082019050818103600083015261502281614fe6565b9050919050565b7f5061757361626c653a206e6f7420706175736564000000000000000000000000600082015250565b600061505f601483613787565b915061506a82615029565b602082019050919050565b6000602082019050818103600083015261508e81615052565b9050919050565b7f4e487b7100000000000000000000000000000000000000000000000000000000600052602160045260246000fd5b7f45434453413a20696e76616c6964207369676e61747572650000000000000000600082015250565b60006150fa601883613787565b9150615105826150c4565b602082019050919050565b60006020820190508181036000830152615129816150ed565b9050919050565b7f45434453413a20696e76616c6964207369676e6174757265206c656e67746800600082015250565b6000615166601f83613787565b915061517182615130565b602082019050919050565b6000602082019050818103600083015261519581615159565b9050919050565b7f45434453413a20696e76616c6964207369676e6174757265202773272076616c60008201527f7565000000000000000000000000000000000000000000000000000000000000602082015250565b60006151f8602283613787565b91506152038261519c565b604082019050919050565b60006020820190508181036000830152615227816151eb565b9050919050565b7f5061757361626c653a2070617573656400000000000000000000000000000000600082015250565b6000615264601083613787565b915061526f8261522e565b602082019050919050565b6000602082019050818103600083015261529381615257565b9050919050565b600081519050919050565b600082825260208201905092915050565b60006152c18261529a565b6152cb81856152a5565b93506152db818560208601613b01565b6152e481613b2b565b840191505092915050565b600060808201905061530460008301876139d9565b61531160208301866139d9565b61531e60408301856139e8565b818103606083015261533081846152b6565b905095945050505050565b60008151905061534a81613a67565b92915050565b60006020828403121561536657615365613654565b5b60006153748482850161533b565b91505092915050565b7f455243373231456e756d657261626c653a20636f6e736563757469766520747260008201527f616e7366657273206e6f7420737570706f727465640000000000000000000000602082015250565b60006153d9603583613787565b91506153e48261537d565b604082019050919050565b60006020820190508181036000830152615408816153cc565b9050919050565b6000819050919050565b6154228161540f565b82525050565b61543181613804565b82525050565b600060808201905061544c6000830187615419565b6154596020830186615428565b6154666040830185615419565b6154736060830184615419565b95945050505050565b7f4552433732313a206d696e7420746f20746865207a65726f2061646472657373600082015250565b60006154b2602083613787565b91506154bd8261547c565b602082019050919050565b600060208201905081810360008301526154e1816154a5565b9050919050565b7f4552433732313a20746f6b656e20616c7265616479206d696e74656400000000600082015250565b600061551e601c83613787565b9150615529826154e8565b602082019050919050565b6000602082019050818103600083015261554d81615511565b9050919050565b600061555f826136d6565b915061556a836136d6565b9250828203905081811115615582576155816138d6565b5b92915050565b7f4e487b7100000000000000000000000000000000000000000000000000000000600052603160045260246000fdfea2646970667358221220b80abd0cab19311c3729ca9910b2857da4e46cd3b5f8cffe460fd4cbe528034364736f6c634300081b0033608060405234801561001057600080fd5b506040518060400160405280601081526020017f4f4c4d2052657761726420546f6b656e000000000000000000000000000000008152506040518060400160405280600581526020017f4f4c4d5254000000000000000000000000000000000000000000000000000000815250816003908161008c91906103de565b50806004908161009c91906103de565b5050506100bb6100b06100c060201b60201c565b6100c860201b60201c565b6104b0565b600033905090565b6000600560009054906101000a900473ffffffffffffffffffffffffffffffffffffffff16905081600560006101000a81548173ffffffffffffffffffffffffffffffffffffffff021916908373ffffffffffffffffffffffffffffffffffffffff1602179055508173ffffffffffffffffffffffffffffffffffffffff168173ffffffffffffffffffffffffffffffffffffffff167f8be0079c531659141344cd1fd0a4f28419497f9722a3daafe3b4186f6b6457e060405160405180910390a35050565b600081519050919050565b7f4e487b7100000000000000000000000000000000000000000000000000000000600052604160045260246000fd5b7f4e487b7100000000000000000000000000000000000000000000000000000000600052602260045260246000fd5b6000600282049050600182168061020f57607f821691505b602082108103610222576102216101c8565b5b50919050565b60008190508160005260206000209050919050565b60006020601f8301049050919050565b600082821b905092915050565b60006008830261028a7fffffffffffffffffffffffffffffffffffffffffffffffffffffffffffffffff8261024d565b610294868361024d565b95508019841693508086168417925050509392505050565b6000819050919050565b6000819050919050565b60006102db6102d66102d1846102ac565b6102b6565b6102ac565b9050919050565b6000819050919050565b6102f5836102c0565b610309610301826102e2565b84845461025a565b825550505050565b600090565b61031e610311565b6103298184846102ec565b505050565b5b8181101561034d57610342600082610316565b60018101905061032f565b5050565b601f8211156103925761036381610228565b61036c8461023d565b8101602085101561037b578190505b61038f6103878561023d565b83018261032e565b50505b505050565b600082821c905092915050565b60006103b560001984600802610397565b1980831691505092915050565b60006103ce83836103a4565b9150826002028217905092915050565b6103e78261018e565b67ffffffffffffffff811115610400576103ff610199565b5b61040a82546101f7565b610415828285610351565b600060209050601f8311600181146104485760008415610436578287015190505b61044085826103c2565b8655506104a8565b601f19841661045686610228565b60005b8281101561047e57848901518255600182019150602085019450602081019050610459565b8683101561049b5784890151610497601f8916826103a4565b8355505b6001600288020188555050505b505050505050565b6117e0806104bf6000396000f3fe608060405234801561001057600080fd5b50600436106100f55760003560e01c806370a0823111610097578063a457c2d711610066578063a457c2d714610276578063a9059cbb146102a6578063dd62ed3e146102d6578063f2fde38b14610306576100f5565b806370a0823114610200578063715018a6146102305780638da5cb5b1461023a57806395d89b4114610258576100f5565b806323b872dd116100d357806323b872dd14610166578063313ce5671461019657806339509351146101b457806340c10f19146101e4576100f5565b806306fdde03146100fa578063095ea7b31461011857806318160ddd14610148575b600080fd5b610102610322565b60405161010f9190610f29565b60405180910390f35b610132600480360381019061012d9190610fe4565b6103b4565b60405161013f919061103f565b60405180910390f35b6101506103d7565b60405161015d9190611069565b60405180910390f35b610180600480360381019061017b9190611084565b6103e1565b60405161018d919061103f565b60405180910390f35b61019e610410565b6040516101ab91906110f3565b60405180910390f35b6101ce60048036038101906101c99190610fe4565b610419565b6040516101db919061103f565b60405180910390f35b6101fe60048036038101906101f99190610fe4565b610450565b005b61021a6004803603810190610215919061110e565b610466565b6040516102279190611069565b60405180910390f35b6102386104ae565b005b6102426104c2565b60405161024f919061114a565b60405180910390f35b6102606104ec565b60405161026d9190610f29565b60405180910390f35b610290600480360381019061028b9190610fe4565b61057e565b60405161029d919061103f565b60405180910390f35b6102c060048036038101906102bb9190610fe4565b6105f5565b6040516102cd919061103f565b60405180910390f35b6102f060048036038101906102eb9190611165565b610618565b6040516102fd9190611069565b60405180910390f35b610320600480360381019061031b919061110e565b61069f565b005b606060038054610331906111d4565b80601f016020809104026020016040519081016040528092919081815260200182805461035d906111d4565b80156103aa5780601f1061037f576101008083540402835291602001916103aa565b820191906000526020600020905b81548152906001019060200180831161038d57829003601f168201915b5050505050905090565b6000806103bf610722565b90506103cc81858561072a565b600191505092915050565b6000600254905090565b6000806103ec610722565b90506103f98582856108f3565b61040485858561097f565b60019150509392505050565b60006012905090565b600080610424610722565b90506104458185856104368589610618565b6104409190611234565b61072a565b600191505092915050565b610458610bf5565b6104628282610c73565b5050565b60008060008373ffffffffffffffffffffffffffffffffffffffff1673ffffffffffffffffffffffffffffffffffffffff168152602001908152602001600020549050919050565b6104b6610bf5565b6104c06000610dc9565b565b6000600560009054906101000a900473ffffffffffffffffffffffffffffffffffffffff16905090565b6060600480546104fb906111d4565b80601f0160208091040260200160405190810160405280929190818152602001828054610527906111d4565b80156105745780601f1061054957610100808354040283529160200191610574565b820191906000526020600020905b81548152906001019060200180831161055757829003601f168201915b5050505050905090565b600080610589610722565b905060006105978286610618565b9050838110156105dc576040517f08c379a00000000000000000000000000000000000000000000000000000000081526004016105d3906112da565b60405180910390fd5b6105e9828686840361072a565b60019250505092915050565b600080610600610722565b905061060d81858561097f565b600191505092915050565b6000600160008473ffffffffffffffffffffffffffffffffffffffff1673ffffffffffffffffffffffffffffffffffffffff16815260200190815260200160002060008373ffffffffffffffffffffffffffffffffffffffff1673ffffffffffffffffffffffffffffffffffffffff16815260200190815260200160002054905092915050565b6106a7610bf5565b600073ffffffffffffffffffffffffffffffffffffffff168173ffffffffffffffffffffffffffffffffffffffff1603610716576040517f08c379a000000000000000000000000000000000000000000000000000000000815260040161070d9061136c565b60405180910390fd5b61071f81610dc9565b50565b600033905090565b600073ffffffffffffffffffffffffffffffffffffffff168373ffffffffffffffffffffffffffffffffffffffff1603610799576040517f08c379a0000000000000000000000000000000000000000000000000000000008152600401610790906113fe565b60405180910390fd5b600073ffffffffffffffffffffffffffffffffffffffff168273ffffffffffffffffffffffffffffffffffffffff1603610808576040517f08c379a00000000000000000000000000000000000000000000000000000000081526004016107ff90611490565b60405180910390fd5b80600160008573ffffffffffffffffffffffffffffffffffffffff1673ffffffffffffffffffffffffffffffffffffffff16815260200190815260200160002060008473ffffffffffffffffffffffffffffffffffffffff1673ffffffffffffffffffffffffffffffffffffffff168152602001908152602001600020819055508173ffffffffffffffffffffffffffffffffffffffff168373ffffffffffffffffffffffffffffffffffffffff167f8c5be1e5ebec7d5bd14f71427d1e84f3dd0314c0f7b2291e5b200ac8c7c3b925836040516108e69190611069565b60405180910390a3505050565b60006108ff8484610618565b90507fffffffffffffffffffffffffffffffffffffffffffffffffffffffffffffffff8114610979578181101561096b576040517f08c379a0000000000000000000000000000000000000000000000000000000008152600401610962906114fc565b60405180910390fd5b610978848484840361072a565b5b50505050565b600073ffffffffffffffffffffffffffffffffffffffff168373ffffffffffffffffffffffffffffffffffffffff16036109ee576040517f08c379a00000000000000000000000000000000000000000000000000000000081526004016109e59061158e565b60405180910390fd5b600073ffffffffffffffffffffffffffffffffffffffff168273ffffffffffffffffffffffffffffffffffffffff1603610a5d576040517f08c379a0000000000000000000000000000000000000000000000000000000008152600401610a5490611620565b60405180910390fd5b610a68838383610e8f565b60008060008573ffffffffffffffffffffffffffffffffffffffff1673ffffffffffffffffffffffffffffffffffffffff16815260200190815260200160002054905081811015610aee576040517f08c379a0000000000000000000000000000000000000000000000000000000008152600401610ae5906116b2565b60405180910390fd5b8181036000808673ffffffffffffffffffffffffffffffffffffffff1673ffffffffffffffffffffffffffffffffffffffff16815260200190815260200160002081905550816000808573ffffffffffffffffffffffffffffffffffffffff1673ffffffffffffffffffffffffffffffffffffffff168152602001908152602001600020600082825401925050819055508273ffffffffffffffffffffffffffffffffffffffff168473ffffffffffffffffffffffffffffffffffffffff167fddf252ad1be2c89b69c2b068fc378daa952ba7f163c4a11628f55a4df523b3ef84604051610bdc9190611069565b60405180910390a3610bef848484610e94565b50505050565b610bfd610722565b73ffffffffffffffffffffffffffffffffffffffff16610c1b6104c2565b73ffffffffffffffffffffffffffffffffffffffff1614610c71576040517f08c379a0000000000000000000000000000000000000000000000000000000008152600401610c689061171e565b60405180910390fd5b565b600073ffffffffffffffffffffffffffffffffffffffff168273ffffffffffffffffffffffffffffffffffffffff1603610ce2576040517f08c379a0000000000000000000000000000000000000000000000000000000008152600401610cd99061178a565b60405180910390fd5b610cee60008383610e8f565b8060026000828254610d009190611234565b92505081905550806000808473ffffffffffffffffffffffffffffffffffffffff1673ffffffffffffffffffffffffffffffffffffffff168152602001908152602001600020600082825401925050819055508173ffffffffffffffffffffffffffffffffffffffff16600073ffffffffffffffffffffffffffffffffffffffff167fddf252ad1be2c89b69c2b068fc378daa952ba7f163c4a11628f55a4df523b3ef83604051610db19190611069565b60405180910390a3610dc560008383610e94565b5050565b6000600560009054906101000a900473ffffffffffffffffffffffffffffffffffffffff16905081600560006101000a81548173ffffffffffffffffffffffffffffffffffffffff021916908373ffffffffffffffffffffffffffffffffffffffff1602179055508173ffffffffffffffffffffffffffffffffffffffff168173ffffffffffffffffffffffffffffffffffffffff167f8be0079c531659141344cd1fd0a4f28419497f9722a3daafe3b4186f6b6457e060405160405180910390a35050565b505050565b505050565b600081519050919050565b600082825260208201905092915050565b60005b83811015610ed3578082015181840152602081019050610eb8565b60008484015250505050565b6000601f19601f8301169050919050565b6000610efb82610e99565b610f058185610ea4565b9350610f15818560208601610eb5565b610f1e81610edf565b840191505092915050565b60006020820190508181036000830152610f438184610ef0565b905092915050565b600080fd5b600073ffffffffffffffffffffffffffffffffffffffff82169050919050565b6000610f7b82610f50565b9050919050565b610f8b81610f70565b8114610f9657600080fd5b50565b600081359050610fa881610f82565b92915050565b6000819050919050565b610fc181610fae565b8114610fcc57600080fd5b50565b600081359050610fde81610fb8565b92915050565b60008060408385031215610ffb57610ffa610f4b565b5b600061100985828601610f99565b925050602061101a85828601610fcf565b9150509250929050565b60008115159050919050565b61103981611024565b82525050565b60006020820190506110546000830184611030565b92915050565b61106381610fae565b82525050565b600060208201905061107e600083018461105a565b92915050565b60008060006060848603121561109d5761109c610f4b565b5b60006110ab86828701610f99565b93505060206110bc86828701610f99565b92505060406110cd86828701610fcf565b9150509250925092565b600060ff82169050919050565b6110ed816110d7565b82525050565b600060208201905061110860008301846110e4565b92915050565b60006020828403121561112457611123610f4b565b5b600061113284828501610f99565b91505092915050565b61114481610f70565b82525050565b600060208201905061115f600083018461113b565b92915050565b6000806040838503121561117c5761117b610f4b565b5b600061118a85828601610f99565b925050602061119b85828601610f99565b9150509250929050565b7f4e487b7100000000000000000000000000000000000000000000000000000000600052602260045260246000fd5b600060028204905060018216806111ec57607f821691505b6020821081036111ff576111fe6111a5565b5b50919050565b7f4e487b7100000000000000000000000000000000000000000000000000000000600052601160045260246000fd5b600061123f82610fae565b915061124a83610fae565b925082820190508082111561126257611261611205565b5b92915050565b7f45524332303a2064656372656173656420616c6c6f77616e63652062656c6f7760008201527f207a65726f000000000000000000000000000000000000000000000000000000602082015250565b60006112c4602583610ea4565b91506112cf82611268565b604082019050919050565b600060208201905081810360008301526112f3816112b7565b9050919050565b7f4f776e61626c653a206e6577206f776e657220697320746865207a65726f206160008201527f6464726573730000000000000000000000000000000000000000000000000000602082015250565b6000611356602683610ea4565b9150611361826112fa565b604082019050919050565b6000602082019050818103600083015261138581611349565b9050919050565b7f45524332303a20617070726f76652066726f6d20746865207a65726f2061646460008201527f7265737300000000000000000000000000000000000000000000000000000000602082015250565b60006113e8602483610ea4565b91506113f38261138c565b604082019050919050565b60006020820190508181036000830152611417816113db565b9050919050565b7f45524332303a20617070726f766520746f20746865207a65726f20616464726560008201527f7373000000000000000000000000000000000000000000000000000000000000602082015250565b600061147a602283610ea4565b91506114858261141e565b604082019050919050565b600060208201905081810360008301526114a98161146d565b9050919050565b7f45524332303a20696e73756666696369656e7420616c6c6f77616e6365000000600082015250565b60006114e6601d83610ea4565b91506114f1826114b0565b602082019050919050565b60006020820190508181036000830152611515816114d9565b9050919050565b7f45524332303a207472616e736665722066726f6d20746865207a65726f20616460008201527f6472657373000000000000000000000000000000000000000000000000000000602082015250565b6000611578602583610ea4565b91506115838261151c565b604082019050919050565b600060208201905081810360008301526115a78161156b565b9050919050565b7f45524332303a207472616e7366657220746f20746865207a65726f206164647260008201527f6573730000000000000000000000000000000000000000000000000000000000602082015250565b600061160a602383610ea4565b9150611615826115ae565b604082019050919050565b60006020820190508181036000830152611639816115fd565b9050919050565b7f45524332303a207472616e7366657220616d6f756e742065786365656473206260008201527f616c616e63650000000000000000000000000000000000000000000000000000602082015250565b600061169c602683610ea4565b91506116a782611640565b604082019050919050565b600060208201905081810360008301526116cb8161168f565b9050919050565b7f4f776e61626c653a2063616c6c6572206973206e6f7420746865206f776e6572600082015250565b6000611708602083610ea4565b9150611713826116d2565b602082019050919050565b60006020820190508181036000830152611737816116fb565b9050919050565b7f45524332303a206d696e7420746f20746865207a65726f206164647265737300600082015250565b6000611774601f83610ea4565b915061177f8261173e565b602082019050919050565b600060208201905081810360008301526117a381611767565b905091905056fea2646970667358221220af20ee9085baea6d3365493d9a9c372a7cee3e7ac2647d892ac51a03d58530b864736f6c634300081b0033608060405234801561001057600080fd5b506040518060400160405280601781526020017f4c6974746572636f696e4d65726368616e74546f6b656e0000000000000000008152506040518060400160405280600481526020017f4c584d5400000000000000000000000000000000000000000000000000000000815250816000908161008c91906103de565b50806001908161009c91906103de565b5050506100bb6100b06100c060201b60201c565b6100c860201b60201c565b6104b0565b600033905090565b6000600660009054906101000a900473ffffffffffffffffffffffffffffffffffffffff16905081600660006101000a81548173ffffffffffffffffffffffffffffffffffffffff021916908373ffffffffffffffffffffffffffffffffffffffff1602179055508173ffffffffffffffffffffffffffffffffffffffff168173ffffffffffffffffffffffffffffffffffffffff167f8be0079c531659141344cd1fd0a4f28419497f9722a3daafe3b4186f6b6457e060405160405180910390a35050565b600081519050919050565b7f4e487b7100000000000000000000000000000000000000000000000000000000600052604160045260246000fd5b7f4e487b7100000000000000000000000000000000000000000000000000000000600052602260045260246000fd5b6000600282049050600182168061020f57607f821691505b602082108103610222576102216101c8565b5b50919050565b60008190508160005260206000209050919050565b60006020601f8301049050919050565b600082821b905092915050565b60006008830261028a7fffffffffffffffffffffffffffffffffffffffffffffffffffffffffffffffff8261024d565b610294868361024d565b95508019841693508086168417925050509392505050565b6000819050919050565b6000819050919050565b60006102db6102d66102d1846102ac565b6102b6565b6102ac565b9050919050565b6000819050919050565b6102f5836102c0565b610309610301826102e2565b84845461025a565b825550505050565b600090565b61031e610311565b6103298184846102ec565b505050565b5b8181101561034d57610342600082610316565b60018101905061032f565b5050565b601f8211156103925761036381610228565b61036c8461023d565b8101602085101561037b578190505b61038f6103878561023d565b83018261032e565b50505b505050565b600082821c905092915050565b60006103b560001984600802610397565b1980831691505092915050565b60006103ce83836103a4565b9150826002028217905092915050565b6103e78261018e565b67ffffffffffffffff811115610400576103ff610199565b5b61040a82546101f7565b610415828285610351565b600060209050601f8311600181146104485760008415610436578287015190505b61044085826103c2565b8655506104a8565b601f19841661045686610228565b60005b8281101561047e57848901518255600182019150602085019450602081019050610459565b8683101561049b5784890151610497601f8916826103a4565b8355505b6001600288020188555050505b505050505050565b6138ae806104bf6000396000f3fe608060405234801561001057600080fd5b50600436106101735760003560e01c80636352211e116100de578063b88d4fde11610097578063d9e5896e11610071578063d9e5896e14610434578063e985e9c514610464578063ea55763314610494578063f2fde38b146104c457610173565b8063b88d4fde146103b8578063c87b56dd146103d4578063d9548e531461040457610173565b80636352211e146102f657806370a0823114610326578063715018a6146103565780638da5cb5b1461036057806395d89b411461037e578063a22cb4651461039c57610173565b8063393ed91a11610130578063393ed91a1461025e57806340c10f191461027a578063425604d61461029657806342842e0e146102b257806344df8e70146102ce57806356189236146102d857610173565b806301ffc9a71461017857806302556a29146101a857806306fdde03146101d8578063081812fc146101f6578063095ea7b31461022657806323b872dd14610242575b600080fd5b610192600480360381019061018d9190612528565b6104e0565b60405161019f9190612570565b60405180910390f35b6101c260048036038101906101bd91906125e9565b6104f2565b6040516101cf9190612570565b60405180910390f35b6101e0610565565b6040516101ed91906126a6565b60405180910390f35b610210600480360381019061020b91906126fe565b6105f7565b60405161021d919061273a565b60405180910390f35b610240600480360381019061023b9190612755565b61063d565b005b61025c60048036038101906102579190612795565b610754565b005b610278600480360381019061027391906126fe565b6107b4565b005b610294600480360381019061028f9190612755565b6108ac565b005b6102b060048036038101906102ab91906127e8565b610a83565b005b6102cc60048036038101906102c79190612795565b610b90565b005b6102d6610bb0565b005b6102e0610c43565b6040516102ed9190612837565b60405180910390f35b610310600480360381019061030b91906126fe565b610c54565b60405161031d919061273a565b60405180910390f35b610340600480360381019061033b91906125e9565b610cda565b60405161034d9190612837565b60405180910390f35b61035e610d91565b005b610368610da5565b604051610375919061273a565b60405180910390f35b610386610dcf565b60405161039391906126a6565b60405180910390f35b6103b660048036038101906103b1919061287e565b610e61565b005b6103d260048036038101906103cd91906129f3565b610e77565b005b6103ee60048036038101906103e991906126fe565b610ed9565b6040516103fb91906126a6565b60405180910390f35b61041e600480360381019061041991906126fe565b610f41565b60405161042b9190612570565b60405180910390f35b61044e600480360381019061044991906126fe565b610fa8565b60405161045b9190612837565b60405180910390f35b61047e60048036038101906104799190612a76565b61100d565b60405161048b9190612570565b60405180910390f35b6104ae60048036038101906104a991906125e9565b6110a1565b6040516104bb9190612837565b60405180910390f35b6104de60048036038101906104d991906125e9565b6111a1565b005b60006104eb82611224565b9050919050565b600080600860008473ffffffffffffffffffffffffffffffffffffffff1673ffffffffffffffffffffffffffffffffffffffff168152602001908152602001600020549050600081148061054b575061054a81610f41565b5b1561055a576000915050610560565b60019150505b919050565b60606000805461057490612ae5565b80601f01602080910402602001604051908101604052809291908181526020018280546105a090612ae5565b80156105ed5780601f106105c2576101008083540402835291602001916105ed565b820191906000526020600020905b8154815290600101906020018083116105d057829003601f168201915b5050505050905090565b600061060282611306565b6004600083815260200190815260200160002060009054906101000a900473ffffffffffffffffffffffffffffffffffffffff169050919050565b600061064882610c54565b90508073ffffffffffffffffffffffffffffffffffffffff168373ffffffffffffffffffffffffffffffffffffffff16036106b8576040517f08c379a00000000000000000000000000000000000000000000000000000000081526004016106af90612b88565b60405180910390fd5b8073ffffffffffffffffffffffffffffffffffffffff166106d7611351565b73ffffffffffffffffffffffffffffffffffffffff161480610706575061070581610700611351565b61100d565b5b610745576040517f08c379a000000000000000000000000000000000000000000000000000000000815260040161073c90612c1a565b60405180910390fd5b61074f8383611359565b505050565b61076561075f611351565b82611412565b6107a4576040517f08c379a000000000000000000000000000000000000000000000000000000000815260040161079b90612cac565b60405180910390fd5b6107af8383836114a7565b505050565b6107bc6117a0565b6107c58161181e565b610804576040517f08c379a00000000000000000000000000000000000000000000000000000000081526004016107fb90612d18565b60405180910390fd5b61080d81610f41565b1561084d576040517f08c379a000000000000000000000000000000000000000000000000000000000815260040161084490612d84565b60405180910390fd5b610e104261085b9190612dd3565b60096000838152602001908152602001600020819055507f754f3aa765fa1f221ea409fddea972deff6ce410d141d5cded4fc7ec690710c0816040516108a19190612837565b60405180910390a150565b6108b46117a0565b600073ffffffffffffffffffffffffffffffffffffffff168273ffffffffffffffffffffffffffffffffffffffff1603610923576040517f08c379a000000000000000000000000000000000000000000000000000000000815260040161091a90612e53565b60405180910390fd5b428111610965576040517f08c379a000000000000000000000000000000000000000000000000000000000815260040161095c90612ee5565b60405180910390fd5b600061097083610cda565b146109b0576040517f08c379a00000000000000000000000000000000000000000000000000000000081526004016109a790612f51565b60405180910390fd5b6109ba600761185f565b60006109c66007611875565b90508160096000838152602001908152602001600020819055506109ea8382611883565b80600860008573ffffffffffffffffffffffffffffffffffffffff1673ffffffffffffffffffffffffffffffffffffffff168152602001908152602001600020819055508273ffffffffffffffffffffffffffffffffffffffff167f655ff37b06d138fc26fda07d435a40368e63b8d3cbd7835215334ff9e7fcd7828284604051610a76929190612f71565b60405180910390a2505050565b610a8b6117a0565b610a948261181e565b610ad3576040517f08c379a0000000000000000000000000000000000000000000000000000000008152600401610aca90612d18565b60405180910390fd5b60008111610b16576040517f08c379a0000000000000000000000000000000000000000000000000000000008152600401610b0d9061300c565b60405180910390fd5b80600960008481526020019081526020016000206000828254610b39919061302c565b925050819055507f0db48b23ad6f04f212b5fddef4017753a195535f0d61c4daa790b4f70f28c07f826009600085815260200190815260200160002054604051610b84929190612f71565b60405180910390a15050565b610bab83838360405180602001604052806000815250610e77565b505050565b6000600860003373ffffffffffffffffffffffffffffffffffffffff1673ffffffffffffffffffffffffffffffffffffffff16815260200190815260200160002054905060008103610c37576040517f08c379a0000000000000000000000000000000000000000000000000000000008152600401610c2e906130ac565b60405180910390fd5b610c40816118a1565b50565b6000610c4f6007611875565b905090565b600080610c60836119ef565b9050600073ffffffffffffffffffffffffffffffffffffffff168173ffffffffffffffffffffffffffffffffffffffff1603610cd1576040517f08c379a0000000000000000000000000000000000000000000000000000000008152600401610cc890613118565b60405180910390fd5b80915050919050565b60008073ffffffffffffffffffffffffffffffffffffffff168273ffffffffffffffffffffffffffffffffffffffff1603610d4a576040517f08c379a0000000000000000000000000000000000000000000000000000000008152600401610d41906131aa565b60405180910390fd5b600360008373ffffffffffffffffffffffffffffffffffffffff1673ffffffffffffffffffffffffffffffffffffffff168152602001908152602001600020549050919050565b610d996117a0565b610da36000611a2c565b565b6000600660009054906101000a900473ffffffffffffffffffffffffffffffffffffffff16905090565b606060018054610dde90612ae5565b80601f0160208091040260200160405190810160405280929190818152602001828054610e0a90612ae5565b8015610e575780601f10610e2c57610100808354040283529160200191610e57565b820191906000526020600020905b815481529060010190602001808311610e3a57829003601f168201915b5050505050905090565b610e73610e6c611351565b8383611af2565b5050565b610e88610e82611351565b83611412565b610ec7576040517f08c379a0000000000000000000000000000000000000000000000000000000008152600401610ebe90612cac565b60405180910390fd5b610ed384848484611c5e565b50505050565b6060610ee482611306565b6000610eee611cba565b90506000815111610f0e5760405180602001604052806000815250610f39565b80610f1884611cd1565b604051602001610f29929190613206565b6040516020818303038152906040525b915050919050565b6000610f4c8261181e565b610f8b576040517f08c379a0000000000000000000000000000000000000000000000000000000008152600401610f8290612d18565b60405180910390fd5b600960008381526020019081526020016000205442119050919050565b6000610fb38261181e565b610ff2576040517f08c379a0000000000000000000000000000000000000000000000000000000008152600401610fe990612d18565b60405180910390fd5b60096000838152602001908152602001600020549050919050565b6000600560008473ffffffffffffffffffffffffffffffffffffffff1673ffffffffffffffffffffffffffffffffffffffff16815260200190815260200160002060008373ffffffffffffffffffffffffffffffffffffffff1673ffffffffffffffffffffffffffffffffffffffff16815260200190815260200160002060009054906101000a900460ff16905092915050565b60008073ffffffffffffffffffffffffffffffffffffffff168273ffffffffffffffffffffffffffffffffffffffff1603611111576040517f08c379a000000000000000000000000000000000000000000000000000000000815260040161110890613276565b60405180910390fd5b6000600860008473ffffffffffffffffffffffffffffffffffffffff1673ffffffffffffffffffffffffffffffffffffffff16815260200190815260200160002054905060008103611198576040517f08c379a000000000000000000000000000000000000000000000000000000000815260040161118f906132e2565b60405180910390fd5b80915050919050565b6111a96117a0565b600073ffffffffffffffffffffffffffffffffffffffff168173ffffffffffffffffffffffffffffffffffffffff1603611218576040517f08c379a000000000000000000000000000000000000000000000000000000000815260040161120f90613374565b60405180910390fd5b61122181611a2c565b50565b60007f80ac58cd000000000000000000000000000000000000000000000000000000007bffffffffffffffffffffffffffffffffffffffffffffffffffffffff1916827bffffffffffffffffffffffffffffffffffffffffffffffffffffffff191614806112ef57507f5b5e139f000000000000000000000000000000000000000000000000000000007bffffffffffffffffffffffffffffffffffffffffffffffffffffffff1916827bffffffffffffffffffffffffffffffffffffffffffffffffffffffff1916145b806112ff57506112fe82611d9f565b5b9050919050565b61130f8161181e565b61134e576040517f08c379a000000000000000000000000000000000000000000000000000000000815260040161134590613118565b60405180910390fd5b50565b600033905090565b816004600083815260200190815260200160002060006101000a81548173ffffffffffffffffffffffffffffffffffffffff021916908373ffffffffffffffffffffffffffffffffffffffff160217905550808273ffffffffffffffffffffffffffffffffffffffff166113cc83610c54565b73ffffffffffffffffffffffffffffffffffffffff167f8c5be1e5ebec7d5bd14f71427d1e84f3dd0314c0f7b2291e5b200ac8c7c3b92560405160405180910390a45050565b60008061141e83610c54565b90508073ffffffffffffffffffffffffffffffffffffffff168473ffffffffffffffffffffffffffffffffffffffff161480611460575061145f818561100d565b5b8061149e57508373ffffffffffffffffffffffffffffffffffffffff16611486846105f7565b73ffffffffffffffffffffffffffffffffffffffff16145b91505092915050565b8273ffffffffffffffffffffffffffffffffffffffff166114c782610c54565b73ffffffffffffffffffffffffffffffffffffffff161461151d576040517f08c379a000000000000000000000000000000000000000000000000000000000815260040161151490613406565b60405180910390fd5b600073ffffffffffffffffffffffffffffffffffffffff168273ffffffffffffffffffffffffffffffffffffffff160361158c576040517f08c379a000000000000000000000000000000000000000000000000000000000815260040161158390613498565b60405180910390fd5b6115998383836001611e09565b8273ffffffffffffffffffffffffffffffffffffffff166115b982610c54565b73ffffffffffffffffffffffffffffffffffffffff161461160f576040517f08c379a000000000000000000000000000000000000000000000000000000000815260040161160690613406565b60405180910390fd5b6004600082815260200190815260200160002060006101000a81549073ffffffffffffffffffffffffffffffffffffffff02191690556001600360008573ffffffffffffffffffffffffffffffffffffffff1673ffffffffffffffffffffffffffffffffffffffff168152602001908152602001600020600082825403925050819055506001600360008473ffffffffffffffffffffffffffffffffffffffff1673ffffffffffffffffffffffffffffffffffffffff16815260200190815260200160002060008282540192505081905550816002600083815260200190815260200160002060006101000a81548173ffffffffffffffffffffffffffffffffffffffff021916908373ffffffffffffffffffffffffffffffffffffffff160217905550808273ffffffffffffffffffffffffffffffffffffffff168473ffffffffffffffffffffffffffffffffffffffff167fddf252ad1be2c89b69c2b068fc378daa952ba7f163c4a11628f55a4df523b3ef60405160405180910390a461179b8383836001611f3b565b505050565b6117a8611351565b73ffffffffffffffffffffffffffffffffffffffff166117c6610da5565b73ffffffffffffffffffffffffffffffffffffffff161461181c576040517f08c379a000000000000000000000000000000000000000000000000000000000815260040161181390613504565b60405180910390fd5b565b60008073ffffffffffffffffffffffffffffffffffffffff16611840836119ef565b73ffffffffffffffffffffffffffffffffffffffff1614159050919050565b6001816000016000828254019250508190555050565b600081600001549050919050565b61189d828260405180602001604052806000815250611f41565b5050565b60006118ac82610c54565b90506118bc816000846001611e09565b6118c582610c54565b90506004600083815260200190815260200160002060006101000a81549073ffffffffffffffffffffffffffffffffffffffff02191690556001600360008373ffffffffffffffffffffffffffffffffffffffff1673ffffffffffffffffffffffffffffffffffffffff168152602001908152602001600020600082825403925050819055506002600083815260200190815260200160002060006101000a81549073ffffffffffffffffffffffffffffffffffffffff021916905581600073ffffffffffffffffffffffffffffffffffffffff168273ffffffffffffffffffffffffffffffffffffffff167fddf252ad1be2c89b69c2b068fc378daa952ba7f163c4a11628f55a4df523b3ef60405160405180910390a46119eb816000846001611f3b565b5050565b60006002600083815260200190815260200160002060009054906101000a900473ffffffffffffffffffffffffffffffffffffffff169050919050565b6000600660009054906101000a900473ffffffffffffffffffffffffffffffffffffffff16905081600660006101000a81548173ffffffffffffffffffffffffffffffffffffffff021916908373ffffffffffffffffffffffffffffffffffffffff1602179055508173ffffffffffffffffffffffffffffffffffffffff168173ffffffffffffffffffffffffffffffffffffffff167f8be0079c531659141344cd1fd0a4f28419497f9722a3daafe3b4186f6b6457e060405160405180910390a35050565b8173ffffffffffffffffffffffffffffffffffffffff168373ffffffffffffffffffffffffffffffffffffffff1603611b60576040517f08c379a0000000000000000000000000000000000000000000000000000000008152600401611b5790613570565b60405180910390fd5b80600560008573ffffffffffffffffffffffffffffffffffffffff1673ffffffffffffffffffffffffffffffffffffffff16815260200190815260200160002060008473ffffffffffffffffffffffffffffffffffffffff1673ffffffffffffffffffffffffffffffffffffffff16815260200190815260200160002060006101000a81548160ff0219169083151502179055508173ffffffffffffffffffffffffffffffffffffffff168373ffffffffffffffffffffffffffffffffffffffff167f17307eab39ab6107e8899845ad3d59bd9653f200f220920489ca2b5937696c3183604051611c519190612570565b60405180910390a3505050565b611c698484846114a7565b611c7584848484611f9c565b611cb4576040517f08c379a0000000000000000000000000000000000000000000000000000000008152600401611cab90613602565b60405180910390fd5b50505050565b606060405180602001604052806000815250905090565b606060006001611ce084612123565b01905060008167ffffffffffffffff811115611cff57611cfe6128c8565b5b6040519080825280601f01601f191660200182016040528015611d315781602001600182028036833780820191505090505b509050600082602001820190505b600115611d94578080600190039150507f3031323334353637383961626364656600000000000000000000000000000000600a86061a8153600a8581611d8857611d87613622565b5b04945060008503611d3f575b819350505050919050565b60007f01ffc9a7000000000000000000000000000000000000000000000000000000007bffffffffffffffffffffffffffffffffffffffffffffffffffffffff1916827bffffffffffffffffffffffffffffffffffffffffffffffffffffffff1916149050919050565b611e1584848484612276565b600073ffffffffffffffffffffffffffffffffffffffff168473ffffffffffffffffffffffffffffffffffffffff161480611e7c5750600073ffffffffffffffffffffffffffffffffffffffff168373ffffffffffffffffffffffffffffffffffffffff16145b611ebb576040517f08c379a0000000000000000000000000000000000000000000000000000000008152600401611eb29061369d565b60405180910390fd5b600073ffffffffffffffffffffffffffffffffffffffff168473ffffffffffffffffffffffffffffffffffffffff1614611f35576000600860008673ffffffffffffffffffffffffffffffffffffffff1673ffffffffffffffffffffffffffffffffffffffff168152602001908152602001600020819055505b50505050565b50505050565b611f4b838361227c565b611f586000848484611f9c565b611f97576040517f08c379a0000000000000000000000000000000000000000000000000000000008152600401611f8e90613602565b60405180910390fd5b505050565b6000611fbd8473ffffffffffffffffffffffffffffffffffffffff16612499565b15612116578373ffffffffffffffffffffffffffffffffffffffff1663150b7a02611fe6611351565b8786866040518563ffffffff1660e01b81526004016120089493929190613712565b6020604051808303816000875af192505050801561204457506040513d601f19601f820116820180604052508101906120419190613773565b60015b6120c6573d8060008114612074576040519150601f19603f3d011682016040523d82523d6000602084013e612079565b606091505b5060008151036120be576040517f08c379a00000000000000000000000000000000000000000000000000000000081526004016120b590613602565b60405180910390fd5b805181602001fd5b63150b7a0260e01b7bffffffffffffffffffffffffffffffffffffffffffffffffffffffff1916817bffffffffffffffffffffffffffffffffffffffffffffffffffffffff19161491505061211b565b600190505b949350505050565b600080600090507a184f03e93ff9f4daa797ed6e38ed64bf6a1f0100000000000000008310612181577a184f03e93ff9f4daa797ed6e38ed64bf6a1f010000000000000000838161217757612176613622565b5b0492506040810190505b6d04ee2d6d415b85acef810000000083106121be576d04ee2d6d415b85acef810000000083816121b4576121b3613622565b5b0492506020810190505b662386f26fc1000083106121ed57662386f26fc1000083816121e3576121e2613622565b5b0492506010810190505b6305f5e1008310612216576305f5e100838161220c5761220b613622565b5b0492506008810190505b612710831061223b57612710838161223157612230613622565b5b0492506004810190505b6064831061225e576064838161225457612253613622565b5b0492506002810190505b600a831061226d576001810190505b80915050919050565b50505050565b600073ffffffffffffffffffffffffffffffffffffffff168273ffffffffffffffffffffffffffffffffffffffff16036122eb576040517f08c379a00000000000000000000000000000000000000000000000000000000081526004016122e2906137ec565b60405180910390fd5b6122f48161181e565b15612334576040517f08c379a000000000000000000000000000000000000000000000000000000000815260040161232b90613858565b60405180910390fd5b612342600083836001611e09565b61234b8161181e565b1561238b576040517f08c379a000000000000000000000000000000000000000000000000000000000815260040161238290613858565b60405180910390fd5b6001600360008473ffffffffffffffffffffffffffffffffffffffff1673ffffffffffffffffffffffffffffffffffffffff16815260200190815260200160002060008282540192505081905550816002600083815260200190815260200160002060006101000a81548173ffffffffffffffffffffffffffffffffffffffff021916908373ffffffffffffffffffffffffffffffffffffffff160217905550808273ffffffffffffffffffffffffffffffffffffffff16600073ffffffffffffffffffffffffffffffffffffffff167fddf252ad1be2c89b69c2b068fc378daa952ba7f163c4a11628f55a4df523b3ef60405160405180910390a4612495600083836001611f3b565b5050565b6000808273ffffffffffffffffffffffffffffffffffffffff163b119050919050565b6000604051905090565b600080fd5b600080fd5b60007fffffffff0000000000000000000000000000000000000000000000000000000082169050919050565b612505816124d0565b811461251057600080fd5b50565b600081359050612522816124fc565b92915050565b60006020828403121561253e5761253d6124c6565b5b600061254c84828501612513565b91505092915050565b60008115159050919050565b61256a81612555565b82525050565b60006020820190506125856000830184612561565b92915050565b600073ffffffffffffffffffffffffffffffffffffffff82169050919050565b60006125b68261258b565b9050919050565b6125c6816125ab565b81146125d157600080fd5b50565b6000813590506125e3816125bd565b92915050565b6000602082840312156125ff576125fe6124c6565b5b600061260d848285016125d4565b91505092915050565b600081519050919050565b600082825260208201905092915050565b60005b83811015612650578082015181840152602081019050612635565b60008484015250505050565b6000601f19601f8301169050919050565b600061267882612616565b6126828185612621565b9350612692818560208601612632565b61269b8161265c565b840191505092915050565b600060208201905081810360008301526126c0818461266d565b905092915050565b6000819050919050565b6126db816126c8565b81146126e657600080fd5b50565b6000813590506126f8816126d2565b92915050565b600060208284031215612714576127136124c6565b5b6000612722848285016126e9565b91505092915050565b612734816125ab565b82525050565b600060208201905061274f600083018461272b565b92915050565b6000806040838503121561276c5761276b6124c6565b5b600061277a858286016125d4565b925050602061278b858286016126e9565b9150509250929050565b6000806000606084860312156127ae576127ad6124c6565b5b60006127bc868287016125d4565b93505060206127cd868287016125d4565b92505060406127de868287016126e9565b9150509250925092565b600080604083850312156127ff576127fe6124c6565b5b600061280d858286016126e9565b925050602061281e858286016126e9565b9150509250929050565b612831816126c8565b82525050565b600060208201905061284c6000830184612828565b92915050565b61285b81612555565b811461286657600080fd5b50565b60008135905061287881612852565b92915050565b60008060408385031215612895576128946124c6565b5b60006128a3858286016125d4565b92505060206128b485828601612869565b9150509250929050565b600080fd5b600080fd5b7f4e487b7100000000000000000000000000000000000000000000000000000000600052604160045260246000fd5b6129008261265c565b810181811067ffffffffffffffff8211171561291f5761291e6128c8565b5b80604052505050565b60006129326124bc565b905061293e82826128f7565b919050565b600067ffffffffffffffff82111561295e5761295d6128c8565b5b6129678261265c565b9050602081019050919050565b82818337600083830152505050565b600061299661299184612943565b612928565b9050828152602081018484840111156129b2576129b16128c3565b5b6129bd848285612974565b509392505050565b600082601f8301126129da576129d96128be565b5b81356129ea848260208601612983565b91505092915050565b60008060008060808587031215612a0d57612a0c6124c6565b5b6000612a1b878288016125d4565b9450506020612a2c878288016125d4565b9350506040612a3d878288016126e9565b925050606085013567ffffffffffffffff811115612a5e57612a5d6124cb565b5b612a6a878288016129c5565b91505092959194509250565b60008060408385031215612a8d57612a8c6124c6565b5b6000612a9b858286016125d4565b9250506020612aac858286016125d4565b9150509250929050565b7f4e487b7100000000000000000000000000000000000000000000000000000000600052602260045260246000fd5b60006002820490506001821680612afd57607f821691505b602082108103612b1057612b0f612ab6565b5b50919050565b7f4552433732313a20617070726f76616c20746f2063757272656e74206f776e6560008201527f7200000000000000000000000000000000000000000000000000000000000000602082015250565b6000612b72602183612621565b9150612b7d82612b16565b604082019050919050565b60006020820190508181036000830152612ba181612b65565b9050919050565b7f4552433732313a20617070726f76652063616c6c6572206973206e6f7420746f60008201527f6b656e206f776e6572206f7220617070726f76656420666f7220616c6c000000602082015250565b6000612c04603d83612621565b9150612c0f82612ba8565b604082019050919050565b60006020820190508181036000830152612c3381612bf7565b9050919050565b7f4552433732313a2063616c6c6572206973206e6f7420746f6b656e206f776e6560008201527f72206f7220617070726f76656400000000000000000000000000000000000000602082015250565b6000612c96602d83612621565b9150612ca182612c3a565b604082019050919050565b60006020820190508181036000830152612cc581612c89565b9050919050565b7f546f6b656e20646f6573206e6f74206578697374000000000000000000000000600082015250565b6000612d02601483612621565b9150612d0d82612ccc565b602082019050919050565b60006020820190508181036000830152612d3181612cf5565b9050919050565b7f546f6b656e20616c726561647920657870697265640000000000000000000000600082015250565b6000612d6e601583612621565b9150612d7982612d38565b602082019050919050565b60006020820190508181036000830152612d9d81612d61565b9050919050565b7f4e487b7100000000000000000000000000000000000000000000000000000000600052601160045260246000fd5b6000612dde826126c8565b9150612de9836126c8565b9250828203905081811115612e0157612e00612da4565b5b92915050565b7f43616e6e6f74206d696e7420746f207a65726f20616464726573730000000000600082015250565b6000612e3d601b83612621565b9150612e4882612e07565b602082019050919050565b60006020820190508181036000830152612e6c81612e30565b9050919050565b7f45787069726174696f6e206d75737420626520696e207468652066757475726560008201527f2e00000000000000000000000000000000000000000000000000000000000000602082015250565b6000612ecf602183612621565b9150612eda82612e73565b604082019050919050565b60006020820190508181036000830152612efe81612ec2565b9050919050565b7f5573657220616c726561647920686173206120746f6b656e0000000000000000600082015250565b6000612f3b601883612621565b9150612f4682612f05565b602082019050919050565b60006020820190508181036000830152612f6a81612f2e565b9050919050565b6000604082019050612f866000830185612828565b612f936020830184612828565b9392505050565b7f4164646974696f6e616c2074696d65206d75737420626520677265617465722060008201527f7468616e207a65726f0000000000000000000000000000000000000000000000602082015250565b6000612ff6602983612621565b915061300182612f9a565b604082019050919050565b6000602082019050818103600083015261302581612fe9565b9050919050565b6000613037826126c8565b9150613042836126c8565b925082820190508082111561305a57613059612da4565b5b92915050565b7f596f7520646f206e6f74206f776e206120746f6b656e00000000000000000000600082015250565b6000613096601683612621565b91506130a182613060565b602082019050919050565b600060208201905081810360008301526130c581613089565b9050919050565b7f4552433732313a20696e76616c696420746f6b656e2049440000000000000000600082015250565b6000613102601883612621565b915061310d826130cc565b602082019050919050565b60006020820190508181036000830152613131816130f5565b9050919050565b7f4552433732313a2061646472657373207a65726f206973206e6f74206120766160008201527f6c6964206f776e65720000000000000000000000000000000000000000000000602082015250565b6000613194602983612621565b915061319f82613138565b604082019050919050565b600060208201905081810360008301526131c381613187565b9050919050565b600081905092915050565b60006131e082612616565b6131ea81856131ca565b93506131fa818560208601612632565b80840191505092915050565b600061321282856131d5565b915061321e82846131d5565b91508190509392505050565b7f496e76616c696420616464726573730000000000000000000000000000000000600082015250565b6000613260600f83612621565b915061326b8261322a565b602082019050919050565b6000602082019050818103600083015261328f81613253565b9050919050565b7f4f776e657220646f6573206e6f742068617665206120746f6b656e0000000000600082015250565b60006132cc601b83612621565b91506132d782613296565b602082019050919050565b600060208201905081810360008301526132fb816132bf565b9050919050565b7f4f776e61626c653a206e6577206f776e657220697320746865207a65726f206160008201527f6464726573730000000000000000000000000000000000000000000000000000602082015250565b600061335e602683612621565b915061336982613302565b604082019050919050565b6000602082019050818103600083015261338d81613351565b9050919050565b7f4552433732313a207472616e736665722066726f6d20696e636f72726563742060008201527f6f776e6572000000000000000000000000000000000000000000000000000000602082015250565b60006133f0602583612621565b91506133fb82613394565b604082019050919050565b6000602082019050818103600083015261341f816133e3565b9050919050565b7f4552433732313a207472616e7366657220746f20746865207a65726f2061646460008201527f7265737300000000000000000000000000000000000000000000000000000000602082015250565b6000613482602483612621565b915061348d82613426565b604082019050919050565b600060208201905081810360008301526134b181613475565b9050919050565b7f4f776e61626c653a2063616c6c6572206973206e6f7420746865206f776e6572600082015250565b60006134ee602083612621565b91506134f9826134b8565b602082019050919050565b6000602082019050818103600083015261351d816134e1565b9050919050565b7f4552433732313a20617070726f766520746f2063616c6c657200000000000000600082015250565b600061355a601983612621565b915061356582613524565b602082019050919050565b600060208201905081810360008301526135898161354d565b9050919050565b7f4552433732313a207472616e7366657220746f206e6f6e20455243373231526560008201527f63656976657220696d706c656d656e7465720000000000000000000000000000602082015250565b60006135ec603283612621565b91506135f782613590565b604082019050919050565b6000602082019050818103600083015261361b816135df565b9050919050565b7f4e487b7100000000000000000000000000000000000000000000000000000000600052601260045260246000fd5b7f5472616e7366657273206172652064697361626c656400000000000000000000600082015250565b6000613687601683612621565b915061369282613651565b602082019050919050565b600060208201905081810360008301526136b68161367a565b9050919050565b600081519050919050565b600082825260208201905092915050565b60006136e4826136bd565b6136ee81856136c8565b93506136fe818560208601612632565b6137078161265c565b840191505092915050565b6000608082019050613727600083018761272b565b613734602083018661272b565b6137416040830185612828565b818103606083015261375381846136d9565b905095945050505050565b60008151905061376d816124fc565b92915050565b600060208284031215613789576137886124c6565b5b60006137978482850161375e565b91505092915050565b7f4552433732313a206d696e7420746f20746865207a65726f2061646472657373600082015250565b60006137d6602083612621565b91506137e1826137a0565b602082019050919050565b60006020820190508181036000830152613805816137c9565b9050919050565b7f4552433732313a20746f6b656e20616c7265616479206d696e74656400000000600082015250565b6000613842601c83612621565b915061384d8261380c565b602082019050919050565b6000602082019050818103600083015261387181613835565b905091905056fea2646970667358221220176f2bffd0a6f9a9cb9a3bdd8c5c57a218f64e25605638e836e61fb927e5612e64736f6c634300081b0033",
  "linkReferences": {},
  "deployedLinkReferences": {}
}