{
  "_format": "hh-sol-artifact-1",
  "contractName": "Littercoin",
  "sourceName": "contracts/Littercoin.sol",
  "abi": [
    {
      "inputs": [
        {
          "internalType": "address",
          "name": "_priceFeed",
          "type": "address"
        }
      ],
      "stateMutability": "nonpayable",
      "type": "constructor"
    },
    {
      "anonymous": false,
      "inputs": [
        {
          "indexed": true,
          "internalType": "address",
          "name": "owner",
          "type": "address"
        },
        {
          "indexed": true,
          "internalType": "address",
          "name": "approved",
          "type": "address"
        },
        {
          "indexed": true,
          "internalType": "uint256",
          "name": "tokenId",
          "type": "uint256"
        }
      ],
      "name": "Approval",
      "type": "event"
    },
    {
      "anonymous": false,
      "inputs": [
        {
          "indexed": true,
          "internalType": "address",
          "name": "owner",
          "type": "address"
        },
        {
          "indexed": true,
          "internalType": "address",
          "name": "operator",
          "type": "address"
        },
        {
          "indexed": false,
          "internalType": "bool",
          "name": "approved",
          "type": "bool"
        }
      ],
      "name": "ApprovalForAll",
      "type": "event"
    },
    {
      "anonymous": false,
      "inputs": [
        {
          "indexed": true,
          "internalType": "address",
          "name": "user",
          "type": "address"
        },
        {
          "indexed": false,
          "internalType": "uint256",
          "name": "tokensToBurn",
          "type": "uint256"
        },
        {
          "indexed": false,
          "internalType": "uint256",
          "name": "ethAmount",
          "type": "uint256"
        }
      ],
      "name": "BurnLittercoin",
      "type": "event"
    },
    {
      "anonymous": false,
      "inputs": [
        {
          "indexed": true,
          "internalType": "address",
          "name": "user",
          "type": "address"
        },
        {
          "indexed": false,
          "internalType": "uint256",
          "name": "amount",
          "type": "uint256"
        }
      ],
      "name": "Mint",
      "type": "event"
    },
    {
      "anonymous": false,
      "inputs": [
        {
          "indexed": true,
          "internalType": "address",
          "name": "previousOwner",
          "type": "address"
        },
        {
          "indexed": true,
          "internalType": "address",
          "name": "newOwner",
          "type": "address"
        }
      ],
      "name": "OwnershipTransferred",
      "type": "event"
    },
    {
      "anonymous": false,
      "inputs": [
        {
          "indexed": true,
          "internalType": "address",
          "name": "user",
          "type": "address"
        },
        {
          "indexed": false,
          "internalType": "uint256",
          "name": "rewardAmount",
          "type": "uint256"
        }
      ],
      "name": "Reward",
      "type": "event"
    },
    {
      "anonymous": false,
      "inputs": [
        {
          "indexed": true,
          "internalType": "address",
          "name": "from",
          "type": "address"
        },
        {
          "indexed": true,
          "internalType": "address",
          "name": "to",
          "type": "address"
        },
        {
          "indexed": true,
          "internalType": "uint256",
          "name": "tokenId",
          "type": "uint256"
        }
      ],
      "name": "Transfer",
      "type": "event"
    },
    {
      "inputs": [],
      "name": "MAX_TRANSACTIONS",
      "outputs": [
        {
          "internalType": "uint256",
          "name": "",
          "type": "uint256"
        }
      ],
      "stateMutability": "view",
      "type": "function"
    },
    {
      "inputs": [
        {
          "internalType": "address",
          "name": "to",
          "type": "address"
        },
        {
          "internalType": "uint256",
          "name": "tokenId",
          "type": "uint256"
        }
      ],
      "name": "approve",
      "outputs": [],
      "stateMutability": "nonpayable",
      "type": "function"
    },
    {
      "inputs": [
        {
          "internalType": "address",
          "name": "owner",
          "type": "address"
        }
      ],
      "name": "balanceOf",
      "outputs": [
        {
          "internalType": "uint256",
          "name": "",
          "type": "uint256"
        }
      ],
      "stateMutability": "view",
      "type": "function"
    },
    {
      "inputs": [
        {
          "internalType": "uint256[]",
          "name": "tokenIds",
          "type": "uint256[]"
        }
      ],
      "name": "burnLittercoin",
      "outputs": [],
      "stateMutability": "nonpayable",
      "type": "function"
    },
    {
      "inputs": [
        {
          "internalType": "uint256",
          "name": "tokenId",
          "type": "uint256"
        }
      ],
      "name": "getApproved",
      "outputs": [
        {
          "internalType": "address",
          "name": "",
          "type": "address"
        }
      ],
      "stateMutability": "view",
      "type": "function"
    },
    {
      "inputs": [],
      "name": "getCurrentTokenId",
      "outputs": [
        {
          "internalType": "uint256",
          "name": "",
          "type": "uint256"
        }
      ],
      "stateMutability": "view",
      "type": "function"
    },
    {
      "inputs": [],
      "name": "getMerchantTokenAddress",
      "outputs": [
        {
          "internalType": "address",
          "name": "",
          "type": "address"
        }
      ],
      "stateMutability": "view",
      "type": "function"
    },
    {
      "inputs": [],
      "name": "getRewardTokenAddress",
      "outputs": [
        {
          "internalType": "address",
          "name": "",
          "type": "address"
        }
      ],
      "stateMutability": "view",
      "type": "function"
    },
    {
      "inputs": [
        {
          "internalType": "address",
          "name": "owner",
          "type": "address"
        },
        {
          "internalType": "address",
          "name": "operator",
          "type": "address"
        }
      ],
      "name": "isApprovedForAll",
      "outputs": [
        {
          "internalType": "bool",
          "name": "",
          "type": "bool"
        }
      ],
      "stateMutability": "view",
      "type": "function"
    },
    {
      "inputs": [],
      "name": "merchantToken",
      "outputs": [
        {
          "internalType": "contract MerchantToken",
          "name": "",
          "type": "address"
        }
      ],
      "stateMutability": "view",
      "type": "function"
    },
    {
      "inputs": [
        {
          "internalType": "uint256",
          "name": "amount",
          "type": "uint256"
        },
        {
          "internalType": "uint256",
          "name": "nonce",
          "type": "uint256"
        },
        {
          "internalType": "uint256",
          "name": "expiry",
          "type": "uint256"
        },
        {
          "internalType": "bytes",
          "name": "signature",
          "type": "bytes"
        }
      ],
      "name": "mint",
      "outputs": [],
      "stateMutability": "nonpayable",
      "type": "function"
    },
    {
      "inputs": [],
      "name": "name",
      "outputs": [
        {
          "internalType": "string",
          "name": "",
          "type": "string"
        }
      ],
      "stateMutability": "view",
      "type": "function"
    },
    {
      "inputs": [],
      "name": "owner",
      "outputs": [
        {
          "internalType": "address",
          "name": "",
          "type": "address"
        }
      ],
      "stateMutability": "view",
      "type": "function"
    },
    {
      "inputs": [
        {
          "internalType": "uint256",
          "name": "tokenId",
          "type": "uint256"
        }
      ],
      "name": "ownerOf",
      "outputs": [
        {
          "internalType": "address",
          "name": "",
          "type": "address"
        }
      ],
      "stateMutability": "view",
      "type": "function"
    },
    {
      "inputs": [],
      "name": "renounceOwnership",
      "outputs": [],
      "stateMutability": "nonpayable",
      "type": "function"
    },
    {
      "inputs": [],
      "name": "rewardToken",
      "outputs": [
        {
          "internalType": "contract OLMRewardToken",
          "name": "",
          "type": "address"
        }
      ],
      "stateMutability": "view",
      "type": "function"
    },
    {
      "inputs": [
        {
          "internalType": "address",
          "name": "from",
          "type": "address"
        },
        {
          "internalType": "address",
          "name": "to",
          "type": "address"
        },
        {
          "internalType": "uint256",
          "name": "tokenId",
          "type": "uint256"
        }
      ],
      "name": "safeTransferFrom",
      "outputs": [],
      "stateMutability": "nonpayable",
      "type": "function"
    },
    {
      "inputs": [
        {
          "internalType": "address",
          "name": "from",
          "type": "address"
        },
        {
          "internalType": "address",
          "name": "to",
          "type": "address"
        },
        {
          "internalType": "uint256",
          "name": "tokenId",
          "type": "uint256"
        },
        {
          "internalType": "bytes",
          "name": "data",
          "type": "bytes"
        }
      ],
      "name": "safeTransferFrom",
      "outputs": [],
      "stateMutability": "nonpayable",
      "type": "function"
    },
    {
      "inputs": [
        {
          "internalType": "address",
          "name": "operator",
          "type": "address"
        },
        {
          "internalType": "bool",
          "name": "approved",
          "type": "bool"
        }
      ],
      "name": "setApprovalForAll",
      "outputs": [],
      "stateMutability": "nonpayable",
      "type": "function"
    },
    {
      "inputs": [
        {
          "internalType": "bytes4",
          "name": "interfaceId",
          "type": "bytes4"
        }
      ],
      "name": "supportsInterface",
      "outputs": [
        {
          "internalType": "bool",
          "name": "",
          "type": "bool"
        }
      ],
      "stateMutability": "view",
      "type": "function"
    },
    {
      "inputs": [],
      "name": "symbol",
      "outputs": [
        {
          "internalType": "string",
          "name": "",
          "type": "string"
        }
      ],
      "stateMutability": "view",
      "type": "function"
    },
    {
      "inputs": [
        {
          "internalType": "uint256",
          "name": "index",
          "type": "uint256"
        }
      ],
      "name": "tokenByIndex",
      "outputs": [
        {
          "internalType": "uint256",
          "name": "",
          "type": "uint256"
        }
      ],
      "stateMutability": "view",
      "type": "function"
    },
    {
      "inputs": [
        {
          "internalType": "address",
          "name": "owner",
          "type": "address"
        },
        {
          "internalType": "uint256",
          "name": "index",
          "type": "uint256"
        }
      ],
      "name": "tokenOfOwnerByIndex",
      "outputs": [
        {
          "internalType": "uint256",
          "name": "",
          "type": "uint256"
        }
      ],
      "stateMutability": "view",
      "type": "function"
    },
    {
      "inputs": [
        {
          "internalType": "uint256",
          "name": "tokenId",
          "type": "uint256"
        }
      ],
      "name": "tokenURI",
      "outputs": [
        {
          "internalType": "string",
          "name": "",
          "type": "string"
        }
      ],
      "stateMutability": "view",
      "type": "function"
    },
    {
      "inputs": [],
      "name": "totalSupply",
      "outputs": [
        {
          "internalType": "uint256",
          "name": "",
          "type": "uint256"
        }
      ],
      "stateMutability": "view",
      "type": "function"
    },
    {
      "inputs": [
        {
          "internalType": "uint256",
          "name": "",
          "type": "uint256"
        }
      ],
      "name": "transferCount",
      "outputs": [
        {
          "internalType": "uint256",
          "name": "",
          "type": "uint256"
        }
      ],
      "stateMutability": "view",
      "type": "function"
    },
    {
      "inputs": [
        {
          "internalType": "address",
          "name": "from",
          "type": "address"
        },
        {
          "internalType": "address",
          "name": "to",
          "type": "address"
        },
        {
          "internalType": "uint256",
          "name": "tokenId",
          "type": "uint256"
        }
      ],
      "name": "transferFrom",
      "outputs": [],
      "stateMutability": "nonpayable",
      "type": "function"
    },
    {
      "inputs": [
        {
          "internalType": "address",
          "name": "newOwner",
          "type": "address"
        }
      ],
      "name": "transferOwnership",
      "outputs": [],
      "stateMutability": "nonpayable",
      "type": "function"
    },
    {
      "inputs": [
        {
          "internalType": "uint256",
          "name": "",
          "type": "uint256"
        }
      ],
      "name": "usedNonces",
      "outputs": [
        {
          "internalType": "bool",
          "name": "",
          "type": "bool"
        }
      ],
      "stateMutability": "view",
      "type": "function"
    },
    {
      "stateMutability": "payable",
      "type": "receive"
    }
  ],
  "bytecode": "0x608060405234801561001057600080fd5b5060405161b5cc38038061b5cc83398181016040528101906100329190610462565b6040518060400160405280600a81526020017f4c6974746572636f696e000000000000000000000000000000000000000000008152506040518060400160405280600781526020017f4c4954544552580000000000000000000000000000000000000000000000000081525081600090816100ad91906106df565b5080600190816100bd91906106df565b5050506100dc6100d161031760201b60201c565b61031f60201b60201c565b6001600b819055506040516100f0906103e5565b604051809103906000f08015801561010c573d6000803e3d6000fd5b50600f60006101000a81548173ffffffffffffffffffffffffffffffffffffffff021916908373ffffffffffffffffffffffffffffffffffffffff160217905550600f60009054906101000a900473ffffffffffffffffffffffffffffffffffffffff1673ffffffffffffffffffffffffffffffffffffffff1663f2fde38b306040518263ffffffff1660e01b81526004016101a891906107c0565b600060405180830381600087803b1580156101c257600080fd5b505af11580156101d6573d6000803e3d6000fd5b505050506040516101e6906103f2565b604051809103906000f080158015610202573d6000803e3d6000fd5b50601060006101000a81548173ffffffffffffffffffffffffffffffffffffffff021916908373ffffffffffffffffffffffffffffffffffffffff160217905550601060009054906101000a900473ffffffffffffffffffffffffffffffffffffffff1673ffffffffffffffffffffffffffffffffffffffff1663f2fde38b336040518263ffffffff1660e01b815260040161029e91906107c0565b600060405180830381600087803b1580156102b857600080fd5b505af11580156102cc573d6000803e3d6000fd5b5050505080601160006101000a81548173ffffffffffffffffffffffffffffffffffffffff021916908373ffffffffffffffffffffffffffffffffffffffff160217905550506107db565b600033905090565b6000600a60009054906101000a900473ffffffffffffffffffffffffffffffffffffffff16905081600a60006101000a81548173ffffffffffffffffffffffffffffffffffffffff021916908373ffffffffffffffffffffffffffffffffffffffff1602179055508173ffffffffffffffffffffffffffffffffffffffff168173ffffffffffffffffffffffffffffffffffffffff167f8be0079c531659141344cd1fd0a4f28419497f9722a3daafe3b4186f6b6457e060405160405180910390a35050565b611c9f80615bc083390190565b613d6d8061785f83390190565b600080fd5b600073ffffffffffffffffffffffffffffffffffffffff82169050919050565b600061042f82610404565b9050919050565b61043f81610424565b811461044a57600080fd5b50565b60008151905061045c81610436565b92915050565b600060208284031215610478576104776103ff565b5b60006104868482850161044d565b91505092915050565b600081519050919050565b7f4e487b7100000000000000000000000000000000000000000000000000000000600052604160045260246000fd5b7f4e487b7100000000000000000000000000000000000000000000000000000000600052602260045260246000fd5b6000600282049050600182168061051057607f821691505b602082108103610523576105226104c9565b5b50919050565b60008190508160005260206000209050919050565b60006020601f8301049050919050565b600082821b905092915050565b60006008830261058b7fffffffffffffffffffffffffffffffffffffffffffffffffffffffffffffffff8261054e565b610595868361054e565b95508019841693508086168417925050509392505050565b6000819050919050565b6000819050919050565b60006105dc6105d76105d2846105ad565b6105b7565b6105ad565b9050919050565b6000819050919050565b6105f6836105c1565b61060a610602826105e3565b84845461055b565b825550505050565b600090565b61061f610612565b61062a8184846105ed565b505050565b5b8181101561064e57610643600082610617565b600181019050610630565b5050565b601f8211156106935761066481610529565b61066d8461053e565b8101602085101561067c578190505b6106906106888561053e565b83018261062f565b50505b505050565b600082821c905092915050565b60006106b660001984600802610698565b1980831691505092915050565b60006106cf83836106a5565b9150826002028217905092915050565b6106e88261048f565b67ffffffffffffffff8111156107015761070061049a565b5b61070b82546104f8565b610716828285610652565b600060209050601f8311600181146107495760008415610737578287015190505b61074185826106c3565b8655506107a9565b601f19841661075786610529565b60005b8281101561077f5784890151825560018201915060208501945060208101905061075a565b8683101561079c5784890151610798601f8916826106a5565b8355505b6001600288020188555050505b505050505050565b6107ba81610424565b82525050565b60006020820190506107d560008301846107b1565b92915050565b6153d6806107ea6000396000f3fe6080604052600436106101c65760003560e01c806370a08231116100f7578063a22cb46511610095578063ec02ef5711610064578063ec02ef571461086e578063f2fde38b146108ab578063f568c6c5146108d4578063f7c618c1146108ff576103b6565b8063a22cb465146107a2578063b88d4fde146107cb578063c87b56dd146107f4578063e985e9c514610831576103b6565b80638c1a1f77116100d15780638c1a1f77146106f65780638da5cb5b1461072157806395d89b411461074c57806399e117a014610777576103b6565b806370a0823114610677578063715018a6146106b4578063744c0f93146106cb576103b6565b80632f745c59116101645780634f6ccce71161013e5780634f6ccce71461059557806356189236146105d25780636352211e146105fd5780636717e41c1461063a576103b6565b80632f745c591461050657806342842e0e146105435780634a9eee691461056c576103b6565b8063095ea7b3116101a0578063095ea7b31461046057806318160ddd146104895780631edf9acd146104b457806323b872dd146104dd576103b6565b806301ffc9a7146103bb57806306fdde03146103f8578063081812fc14610423576103b6565b366103b65760003490506000601160009054906101000a900473ffffffffffffffffffffffffffffffffffffffff1673ffffffffffffffffffffffffffffffffffffffff1663feaf968c6040518163ffffffff1660e01b815260040160a060405180830381865afa15801561023f573d6000803e3d6000fd5b505050506040513d601f19601f820116820180604052508101906102639190613521565b505050915050600081136102ac576040517f08c379a00000000000000000000000000000000000000000000000000000000081526004016102a3906135f9565b60405180910390fd5b600081905060006a52b7d2dcc80cd2e400000082856102cb9190613648565b6102d591906136b9565b9050600f60009054906101000a900473ffffffffffffffffffffffffffffffffffffffff1673ffffffffffffffffffffffffffffffffffffffff166340c10f1933836040518363ffffffff1660e01b815260040161033492919061373a565b600060405180830381600087803b15801561034e57600080fd5b505af1158015610362573d6000803e3d6000fd5b505050503373ffffffffffffffffffffffffffffffffffffffff167f619caafabdd75649b302ba8419e48cccf64f37f1983ac4727cfb38b57703ffc9826040516103ac9190613763565b60405180910390a2005b600080fd5b3480156103c757600080fd5b506103e260048036038101906103dd91906137d6565b61092a565b6040516103ef919061381e565b60405180910390f35b34801561040457600080fd5b5061040d61093c565b60405161041a91906138b8565b60405180910390f35b34801561042f57600080fd5b5061044a600480360381019061044591906138ef565b6109ce565b604051610457919061391c565b60405180910390f35b34801561046c57600080fd5b5061048760048036038101906104829190613963565b610a14565b005b34801561049557600080fd5b5061049e610b2b565b6040516104ab9190613763565b60405180910390f35b3480156104c057600080fd5b506104db60048036038101906104d69190613a08565b610b38565b005b3480156104e957600080fd5b5061050460048036038101906104ff9190613a55565b610f33565b005b34801561051257600080fd5b5061052d60048036038101906105289190613963565b610f93565b60405161053a9190613763565b60405180910390f35b34801561054f57600080fd5b5061056a60048036038101906105659190613a55565b611038565b005b34801561057857600080fd5b50610593600480360381019061058e9190613bd8565b611058565b005b3480156105a157600080fd5b506105bc60048036038101906105b791906138ef565b61135e565b6040516105c99190613763565b60405180910390f35b3480156105de57600080fd5b506105e76113cf565b6040516105f49190613763565b60405180910390f35b34801561060957600080fd5b50610624600480360381019061061f91906138ef565b6113e0565b604051610631919061391c565b60405180910390f35b34801561064657600080fd5b50610661600480360381019061065c91906138ef565b611466565b60405161066e919061381e565b60405180910390f35b34801561068357600080fd5b5061069e60048036038101906106999190613c5b565b611486565b6040516106ab9190613763565b60405180910390f35b3480156106c057600080fd5b506106c961153d565b005b3480156106d757600080fd5b506106e0611551565b6040516106ed919061391c565b60405180910390f35b34801561070257600080fd5b5061070b61157b565b6040516107189190613ce7565b60405180910390f35b34801561072d57600080fd5b506107366115a1565b604051610743919061391c565b60405180910390f35b34801561075857600080fd5b506107616115cb565b60405161076e91906138b8565b60405180910390f35b34801561078357600080fd5b5061078c61165d565b604051610799919061391c565b60405180910390f35b3480156107ae57600080fd5b506107c960048036038101906107c49190613d2e565b611687565b005b3480156107d757600080fd5b506107f260048036038101906107ed9190613d6e565b61169d565b005b34801561080057600080fd5b5061081b600480360381019061081691906138ef565b6116ff565b60405161082891906138b8565b60405180910390f35b34801561083d57600080fd5b5061085860048036038101906108539190613df1565b611767565b604051610865919061381e565b60405180910390f35b34801561087a57600080fd5b50610895600480360381019061089091906138ef565b6117fb565b6040516108a29190613763565b60405180910390f35b3480156108b757600080fd5b506108d260048036038101906108cd9190613c5b565b611813565b005b3480156108e057600080fd5b506108e9611896565b6040516108f69190613763565b60405180910390f35b34801561090b57600080fd5b5061091461189b565b6040516109219190613e52565b60405180910390f35b6000610935826118c1565b9050919050565b60606000805461094b90613e9c565b80601f016020809104026020016040519081016040528092919081815260200182805461097790613e9c565b80156109c45780601f10610999576101008083540402835291602001916109c4565b820191906000526020600020905b8154815290600101906020018083116109a757829003601f168201915b5050505050905090565b60006109d98261193b565b6004600083815260200190815260200160002060009054906101000a900473ffffffffffffffffffffffffffffffffffffffff169050919050565b6000610a1f826113e0565b90508073ffffffffffffffffffffffffffffffffffffffff168373ffffffffffffffffffffffffffffffffffffffff1603610a8f576040517f08c379a0000000000000000000000000000000000000000000000000000000008152600401610a8690613f3f565b60405180910390fd5b8073ffffffffffffffffffffffffffffffffffffffff16610aae611986565b73ffffffffffffffffffffffffffffffffffffffff161480610add5750610adc81610ad7611986565b611767565b5b610b1c576040517f08c379a0000000000000000000000000000000000000000000000000000000008152600401610b1390613fd1565b60405180910390fd5b610b26838361198e565b505050565b6000600880549050905090565b610b40611a47565b601060009054906101000a900473ffffffffffffffffffffffffffffffffffffffff1673ffffffffffffffffffffffffffffffffffffffff166302556a29336040518263ffffffff1660e01b8152600401610b9b919061391c565b602060405180830381865afa158015610bb8573d6000803e3d6000fd5b505050506040513d601f19601f82011682018060405250810190610bdc9190614006565b610c1b576040517f08c379a0000000000000000000000000000000000000000000000000000000008152600401610c12906140a5565b60405180910390fd5b600082829050905060008111610c66576040517f08c379a0000000000000000000000000000000000000000000000000000000008152600401610c5d90614111565b60405180910390fd5b6000610c70610b2b565b905060008111610cb5576040517f08c379a0000000000000000000000000000000000000000000000000000000008152600401610cac9061417d565b60405180910390fd5b600047905060008111610cfd576040517f08c379a0000000000000000000000000000000000000000000000000000000008152600401610cf4906141e9565b60405180910390fd5b60005b83811015610e0a576000868683818110610d1d57610d1c614209565b5b9050602002013590503373ffffffffffffffffffffffffffffffffffffffff16610d46826113e0565b73ffffffffffffffffffffffffffffffffffffffff1614610d9c576040517f08c379a0000000000000000000000000000000000000000000000000000000008152600401610d93906142aa565b60405180910390fd5b6002600e6000838152602001908152602001600020541115610df3576040517f08c379a0000000000000000000000000000000000000000000000000000000008152600401610dea9061433c565b60405180910390fd5b610dfc81611a96565b508080600101915050610d00565b506000828483610e1a9190613648565b610e2491906136b9565b905060003373ffffffffffffffffffffffffffffffffffffffff1682604051610e4c9061438d565b60006040518083038185875af1925050503d8060008114610e89576040519150601f19603f3d011682016040523d82523d6000602084013e610e8e565b606091505b5050905080610ed2576040517f08c379a0000000000000000000000000000000000000000000000000000000008152600401610ec9906143ee565b60405180910390fd5b3373ffffffffffffffffffffffffffffffffffffffff167f62c43c4ca6239525d02ec5d50013da458e2aabd6147394ddd139edae8d84439b8684604051610f1a92919061440e565b60405180910390a25050505050610f2f611be4565b5050565b610f44610f3e611986565b82611bee565b610f83576040517f08c379a0000000000000000000000000000000000000000000000000000000008152600401610f7a906144a9565b60405180910390fd5b610f8e838383611c83565b505050565b6000610f9e83611486565b8210610fdf576040517f08c379a0000000000000000000000000000000000000000000000000000000008152600401610fd69061453b565b60405180910390fd5b600660008473ffffffffffffffffffffffffffffffffffffffff1673ffffffffffffffffffffffffffffffffffffffff168152602001908152602001600020600083815260200190815260200160002054905092915050565b6110538383836040518060200160405280600081525061169d565b505050565b6000841161109b576040517f08c379a0000000000000000000000000000000000000000000000000000000008152600401611092906145a7565b60405180910390fd5b814211156110de576040517f08c379a00000000000000000000000000000000000000000000000000000000081526004016110d590614613565b60405180910390fd5b600d600084815260200190815260200160002060009054906101000a900460ff161561113f576040517f08c379a00000000000000000000000000000000000000000000000000000000081526004016111369061467f565b60405180910390fd5b6001600d600085815260200190815260200160002060006101000a81548160ff0219169083151502179055506000338585856040516020016111849493929190614708565b6040516020818303038152906040528051906020012090506111a46115a1565b73ffffffffffffffffffffffffffffffffffffffff166111cc6111c683611f7c565b84611fb2565b73ffffffffffffffffffffffffffffffffffffffff1614611222576040517f08c379a0000000000000000000000000000000000000000000000000000000008152600401611219906147a2565b60405180910390fd5b600061122d82611fd9565b9050600061123b8285612009565b90506112456115a1565b73ffffffffffffffffffffffffffffffffffffffff168173ffffffffffffffffffffffffffffffffffffffff16146112b2576040517f08c379a00000000000000000000000000000000000000000000000000000000081526004016112a9906147a2565b60405180910390fd5b60005b87811015611306576112c7600c612078565b60006112d3600c61208e565b90506112df338261209c565b6000600e6000838152602001908152602001600020819055505080806001019150506112b5565b503373ffffffffffffffffffffffffffffffffffffffff167f0f6798a560793a54c3bcfe86a93cde1e73087d944c0ea20544137d41213968858860405161134d9190613763565b60405180910390a250505050505050565b6000611368610b2b565b82106113a9576040517f08c379a00000000000000000000000000000000000000000000000000000000081526004016113a090614834565b60405180910390fd5b600882815481106113bd576113bc614209565b5b90600052602060002001549050919050565b60006113db600c61208e565b905090565b6000806113ec836120ba565b9050600073ffffffffffffffffffffffffffffffffffffffff168173ffffffffffffffffffffffffffffffffffffffff160361145d576040517f08c379a0000000000000000000000000000000000000000000000000000000008152600401611454906148a0565b60405180910390fd5b80915050919050565b600d6020528060005260406000206000915054906101000a900460ff1681565b60008073ffffffffffffffffffffffffffffffffffffffff168273ffffffffffffffffffffffffffffffffffffffff16036114f6576040517f08c379a00000000000000000000000000000000000000000000000000000000081526004016114ed90614932565b60405180910390fd5b600360008373ffffffffffffffffffffffffffffffffffffffff1673ffffffffffffffffffffffffffffffffffffffff168152602001908152602001600020549050919050565b6115456120f7565b61154f6000612175565b565b6000601060009054906101000a900473ffffffffffffffffffffffffffffffffffffffff16905090565b601060009054906101000a900473ffffffffffffffffffffffffffffffffffffffff1681565b6000600a60009054906101000a900473ffffffffffffffffffffffffffffffffffffffff16905090565b6060600180546115da90613e9c565b80601f016020809104026020016040519081016040528092919081815260200182805461160690613e9c565b80156116535780601f1061162857610100808354040283529160200191611653565b820191906000526020600020905b81548152906001019060200180831161163657829003601f168201915b5050505050905090565b6000600f60009054906101000a900473ffffffffffffffffffffffffffffffffffffffff16905090565b611699611692611986565b838361223b565b5050565b6116ae6116a8611986565b83611bee565b6116ed576040517f08c379a00000000000000000000000000000000000000000000000000000000081526004016116e4906144a9565b60405180910390fd5b6116f9848484846123a7565b50505050565b606061170a8261193b565b6000611714612403565b90506000815111611734576040518060200160405280600081525061175f565b8061173e8461241a565b60405160200161174f92919061498e565b6040516020818303038152906040525b915050919050565b6000600560008473ffffffffffffffffffffffffffffffffffffffff1673ffffffffffffffffffffffffffffffffffffffff16815260200190815260200160002060008373ffffffffffffffffffffffffffffffffffffffff1673ffffffffffffffffffffffffffffffffffffffff16815260200190815260200160002060009054906101000a900460ff16905092915050565b600e6020528060005260406000206000915090505481565b61181b6120f7565b600073ffffffffffffffffffffffffffffffffffffffff168173ffffffffffffffffffffffffffffffffffffffff160361188a576040517f08c379a000000000000000000000000000000000000000000000000000000000815260040161188190614a24565b60405180910390fd5b61189381612175565b50565b600381565b600f60009054906101000a900473ffffffffffffffffffffffffffffffffffffffff1681565b60007f780e9d63000000000000000000000000000000000000000000000000000000007bffffffffffffffffffffffffffffffffffffffffffffffffffffffff1916827bffffffffffffffffffffffffffffffffffffffffffffffffffffffff191614806119345750611933826124e8565b5b9050919050565b611944816125ca565b611983576040517f08c379a000000000000000000000000000000000000000000000000000000000815260040161197a906148a0565b60405180910390fd5b50565b600033905090565b816004600083815260200190815260200160002060006101000a81548173ffffffffffffffffffffffffffffffffffffffff021916908373ffffffffffffffffffffffffffffffffffffffff160217905550808273ffffffffffffffffffffffffffffffffffffffff16611a01836113e0565b73ffffffffffffffffffffffffffffffffffffffff167f8c5be1e5ebec7d5bd14f71427d1e84f3dd0314c0f7b2291e5b200ac8c7c3b92560405160405180910390a45050565b6002600b5403611a8c576040517f08c379a0000000000000000000000000000000000000000000000000000000008152600401611a8390614a90565b60405180910390fd5b6002600b81905550565b6000611aa1826113e0565b9050611ab181600084600161260b565b611aba826113e0565b90506004600083815260200190815260200160002060006101000a81549073ffffffffffffffffffffffffffffffffffffffff02191690556001600360008373ffffffffffffffffffffffffffffffffffffffff1673ffffffffffffffffffffffffffffffffffffffff168152602001908152602001600020600082825403925050819055506002600083815260200190815260200160002060006101000a81549073ffffffffffffffffffffffffffffffffffffffff021916905581600073ffffffffffffffffffffffffffffffffffffffff168273ffffffffffffffffffffffffffffffffffffffff167fddf252ad1be2c89b69c2b068fc378daa952ba7f163c4a11628f55a4df523b3ef60405160405180910390a4611be081600084600161270f565b5050565b6001600b81905550565b600080611bfa836113e0565b90508073ffffffffffffffffffffffffffffffffffffffff168473ffffffffffffffffffffffffffffffffffffffff161480611c3c5750611c3b8185611767565b5b80611c7a57508373ffffffffffffffffffffffffffffffffffffffff16611c62846109ce565b73ffffffffffffffffffffffffffffffffffffffff16145b91505092915050565b8273ffffffffffffffffffffffffffffffffffffffff16611ca3826113e0565b73ffffffffffffffffffffffffffffffffffffffff1614611cf9576040517f08c379a0000000000000000000000000000000000000000000000000000000008152600401611cf090614b22565b60405180910390fd5b600073ffffffffffffffffffffffffffffffffffffffff168273ffffffffffffffffffffffffffffffffffffffff1603611d68576040517f08c379a0000000000000000000000000000000000000000000000000000000008152600401611d5f90614bb4565b60405180910390fd5b611d75838383600161260b565b8273ffffffffffffffffffffffffffffffffffffffff16611d95826113e0565b73ffffffffffffffffffffffffffffffffffffffff1614611deb576040517f08c379a0000000000000000000000000000000000000000000000000000000008152600401611de290614b22565b60405180910390fd5b6004600082815260200190815260200160002060006101000a81549073ffffffffffffffffffffffffffffffffffffffff02191690556001600360008573ffffffffffffffffffffffffffffffffffffffff1673ffffffffffffffffffffffffffffffffffffffff168152602001908152602001600020600082825403925050819055506001600360008473ffffffffffffffffffffffffffffffffffffffff1673ffffffffffffffffffffffffffffffffffffffff16815260200190815260200160002060008282540192505081905550816002600083815260200190815260200160002060006101000a81548173ffffffffffffffffffffffffffffffffffffffff021916908373ffffffffffffffffffffffffffffffffffffffff160217905550808273ffffffffffffffffffffffffffffffffffffffff168473ffffffffffffffffffffffffffffffffffffffff167fddf252ad1be2c89b69c2b068fc378daa952ba7f163c4a11628f55a4df523b3ef60405160405180910390a4611f77838383600161270f565b505050565b60007f19457468657265756d205369676e6564204d6573736167653a0a33320000000060005281601c52603c6000209050919050565b6000806000611fc18585612715565b91509150611fce81612766565b819250505092915050565b600081604051602001611fec9190614c4b565b604051602081830303815290604052805190602001209050919050565b600080600080612018856128cc565b925092509250600186828585604051600081526020016040526040516120419493929190614c9c565b6020604051602081039080840390855afa158015612063573d6000803e3d6000fd5b50505060206040510351935050505092915050565b6001816000016000828254019250508190555050565b600081600001549050919050565b6120b6828260405180602001604052806000815250612934565b5050565b60006002600083815260200190815260200160002060009054906101000a900473ffffffffffffffffffffffffffffffffffffffff169050919050565b6120ff611986565b73ffffffffffffffffffffffffffffffffffffffff1661211d6115a1565b73ffffffffffffffffffffffffffffffffffffffff1614612173576040517f08c379a000000000000000000000000000000000000000000000000000000000815260040161216a90614d2d565b60405180910390fd5b565b6000600a60009054906101000a900473ffffffffffffffffffffffffffffffffffffffff16905081600a60006101000a81548173ffffffffffffffffffffffffffffffffffffffff021916908373ffffffffffffffffffffffffffffffffffffffff1602179055508173ffffffffffffffffffffffffffffffffffffffff168173ffffffffffffffffffffffffffffffffffffffff167f8be0079c531659141344cd1fd0a4f28419497f9722a3daafe3b4186f6b6457e060405160405180910390a35050565b8173ffffffffffffffffffffffffffffffffffffffff168373ffffffffffffffffffffffffffffffffffffffff16036122a9576040517f08c379a00000000000000000000000000000000000000000000000000000000081526004016122a090614d99565b60405180910390fd5b80600560008573ffffffffffffffffffffffffffffffffffffffff1673ffffffffffffffffffffffffffffffffffffffff16815260200190815260200160002060008473ffffffffffffffffffffffffffffffffffffffff1673ffffffffffffffffffffffffffffffffffffffff16815260200190815260200160002060006101000a81548160ff0219169083151502179055508173ffffffffffffffffffffffffffffffffffffffff168373ffffffffffffffffffffffffffffffffffffffff167f17307eab39ab6107e8899845ad3d59bd9653f200f220920489ca2b5937696c318360405161239a919061381e565b60405180910390a3505050565b6123b2848484611c83565b6123be8484848461298f565b6123fd576040517f08c379a00000000000000000000000000000000000000000000000000000000081526004016123f490614e2b565b60405180910390fd5b50505050565b606060405180602001604052806000815250905090565b60606000600161242984612b16565b01905060008167ffffffffffffffff81111561244857612447613aad565b5b6040519080825280601f01601f19166020018201604052801561247a5781602001600182028036833780820191505090505b509050600082602001820190505b6001156124dd578080600190039150507f3031323334353637383961626364656600000000000000000000000000000000600a86061a8153600a85816124d1576124d061368a565b5b04945060008503612488575b819350505050919050565b60007f80ac58cd000000000000000000000000000000000000000000000000000000007bffffffffffffffffffffffffffffffffffffffffffffffffffffffff1916827bffffffffffffffffffffffffffffffffffffffffffffffffffffffff191614806125b357507f5b5e139f000000000000000000000000000000000000000000000000000000007bffffffffffffffffffffffffffffffffffffffffffffffffffffffff1916827bffffffffffffffffffffffffffffffffffffffffffffffffffffffff1916145b806125c357506125c282612c69565b5b9050919050565b60008073ffffffffffffffffffffffffffffffffffffffff166125ec836120ba565b73ffffffffffffffffffffffffffffffffffffffff1614159050919050565b61261784848484612cd3565b600073ffffffffffffffffffffffffffffffffffffffff168473ffffffffffffffffffffffffffffffffffffffff16141580156126815750600073ffffffffffffffffffffffffffffffffffffffff168373ffffffffffffffffffffffffffffffffffffffff1614155b15612709576001600e600084815260200190815260200160002060008282546126aa9190614e4b565b925050819055506003600e6000848152602001908152602001600020541115612708576040517f08c379a00000000000000000000000000000000000000000000000000000000081526004016126ff90614ecb565b60405180910390fd5b5b50505050565b50505050565b60008060418351036127565760008060006020860151925060408601519150606086015160001a905061274a87828585612e31565b9450945050505061275f565b60006002915091505b9250929050565b6000600481111561277a57612779614eeb565b5b81600481111561278d5761278c614eeb565b5b03156128c957600160048111156127a7576127a6614eeb565b5b8160048111156127ba576127b9614eeb565b5b036127fa576040517f08c379a00000000000000000000000000000000000000000000000000000000081526004016127f190614f66565b60405180910390fd5b6002600481111561280e5761280d614eeb565b5b81600481111561282157612820614eeb565b5b03612861576040517f08c379a000000000000000000000000000000000000000000000000000000000815260040161285890614fd2565b60405180910390fd5b6003600481111561287557612874614eeb565b5b81600481111561288857612887614eeb565b5b036128c8576040517f08c379a00000000000000000000000000000000000000000000000000000000081526004016128bf90615064565b60405180910390fd5b5b50565b60008060006041845114612915576040517f08c379a000000000000000000000000000000000000000000000000000000000815260040161290c906150d0565b60405180910390fd5b6020840151925060408401519150606084015160001a90509193909250565b61293e8383612f13565b61294b600084848461298f565b61298a576040517f08c379a000000000000000000000000000000000000000000000000000000000815260040161298190614e2b565b60405180910390fd5b505050565b60006129b08473ffffffffffffffffffffffffffffffffffffffff16613130565b15612b09578373ffffffffffffffffffffffffffffffffffffffff1663150b7a026129d9611986565b8786866040518563ffffffff1660e01b81526004016129fb9493929190615145565b6020604051808303816000875af1925050508015612a3757506040513d601f19601f82011682018060405250810190612a3491906151a6565b60015b612ab9573d8060008114612a67576040519150601f19603f3d011682016040523d82523d6000602084013e612a6c565b606091505b506000815103612ab1576040517f08c379a0000000000000000000000000000000000000000000000000000000008152600401612aa890614e2b565b60405180910390fd5b805181602001fd5b63150b7a0260e01b7bffffffffffffffffffffffffffffffffffffffffffffffffffffffff1916817bffffffffffffffffffffffffffffffffffffffffffffffffffffffff191614915050612b0e565b600190505b949350505050565b600080600090507a184f03e93ff9f4daa797ed6e38ed64bf6a1f0100000000000000008310612b74577a184f03e93ff9f4daa797ed6e38ed64bf6a1f0100000000000000008381612b6a57612b6961368a565b5b0492506040810190505b6d04ee2d6d415b85acef81000000008310612bb1576d04ee2d6d415b85acef81000000008381612ba757612ba661368a565b5b0492506020810190505b662386f26fc100008310612be057662386f26fc100008381612bd657612bd561368a565b5b0492506010810190505b6305f5e1008310612c09576305f5e1008381612bff57612bfe61368a565b5b0492506008810190505b6127108310612c2e576127108381612c2457612c2361368a565b5b0492506004810190505b60648310612c515760648381612c4757612c4661368a565b5b0492506002810190505b600a8310612c60576001810190505b80915050919050565b60007f01ffc9a7000000000000000000000000000000000000000000000000000000007bffffffffffffffffffffffffffffffffffffffffffffffffffffffff1916827bffffffffffffffffffffffffffffffffffffffffffffffffffffffff1916149050919050565b612cdf84848484613153565b6001811115612d23576040517f08c379a0000000000000000000000000000000000000000000000000000000008152600401612d1a90615245565b60405180910390fd5b6000829050600073ffffffffffffffffffffffffffffffffffffffff168573ffffffffffffffffffffffffffffffffffffffff1603612d6a57612d6581613159565b612da9565b8373ffffffffffffffffffffffffffffffffffffffff168573ffffffffffffffffffffffffffffffffffffffff1614612da857612da785826131a2565b5b5b600073ffffffffffffffffffffffffffffffffffffffff168473ffffffffffffffffffffffffffffffffffffffff1603612deb57612de68161330f565b612e2a565b8473ffffffffffffffffffffffffffffffffffffffff168473ffffffffffffffffffffffffffffffffffffffff1614612e2957612e2884826133e0565b5b5b5050505050565b6000807f7fffffffffffffffffffffffffffffff5d576e7357a4501ddfe92f46681b20a08360001c1115612e6c576000600391509150612f0a565b600060018787878760405160008152602001604052604051612e919493929190614c9c565b6020604051602081039080840390855afa158015612eb3573d6000803e3d6000fd5b505050602060405103519050600073ffffffffffffffffffffffffffffffffffffffff168173ffffffffffffffffffffffffffffffffffffffff1603612f0157600060019250925050612f0a565b80600092509250505b94509492505050565b600073ffffffffffffffffffffffffffffffffffffffff168273ffffffffffffffffffffffffffffffffffffffff1603612f82576040517f08c379a0000000000000000000000000000000000000000000000000000000008152600401612f79906152b1565b60405180910390fd5b612f8b816125ca565b15612fcb576040517f08c379a0000000000000000000000000000000000000000000000000000000008152600401612fc29061531d565b60405180910390fd5b612fd960008383600161260b565b612fe2816125ca565b15613022576040517f08c379a00000000000000000000000000000000000000000000000000000000081526004016130199061531d565b60405180910390fd5b6001600360008473ffffffffffffffffffffffffffffffffffffffff1673ffffffffffffffffffffffffffffffffffffffff16815260200190815260200160002060008282540192505081905550816002600083815260200190815260200160002060006101000a81548173ffffffffffffffffffffffffffffffffffffffff021916908373ffffffffffffffffffffffffffffffffffffffff160217905550808273ffffffffffffffffffffffffffffffffffffffff16600073ffffffffffffffffffffffffffffffffffffffff167fddf252ad1be2c89b69c2b068fc378daa952ba7f163c4a11628f55a4df523b3ef60405160405180910390a461312c60008383600161270f565b5050565b6000808273ffffffffffffffffffffffffffffffffffffffff163b119050919050565b50505050565b6008805490506009600083815260200190815260200160002081905550600881908060018154018082558091505060019003906000526020600020016000909190919091505550565b600060016131af84611486565b6131b9919061533d565b905060006007600084815260200190815260200160002054905081811461329e576000600660008673ffffffffffffffffffffffffffffffffffffffff1673ffffffffffffffffffffffffffffffffffffffff168152602001908152602001600020600084815260200190815260200160002054905080600660008773ffffffffffffffffffffffffffffffffffffffff1673ffffffffffffffffffffffffffffffffffffffff168152602001908152602001600020600084815260200190815260200160002081905550816007600083815260200190815260200160002081905550505b6007600084815260200190815260200160002060009055600660008573ffffffffffffffffffffffffffffffffffffffff1673ffffffffffffffffffffffffffffffffffffffff16815260200190815260200160002060008381526020019081526020016000206000905550505050565b60006001600880549050613323919061533d565b905060006009600084815260200190815260200160002054905060006008838154811061335357613352614209565b5b90600052602060002001549050806008838154811061337557613374614209565b5b9060005260206000200181905550816009600083815260200190815260200160002081905550600960008581526020019081526020016000206000905560088054806133c4576133c3615371565b5b6001900381819060005260206000200160009055905550505050565b60006133eb83611486565b905081600660008573ffffffffffffffffffffffffffffffffffffffff1673ffffffffffffffffffffffffffffffffffffffff168152602001908152602001600020600083815260200190815260200160002081905550806007600084815260200190815260200160002081905550505050565b6000604051905090565b600080fd5b600080fd5b600069ffffffffffffffffffff82169050919050565b61349281613473565b811461349d57600080fd5b50565b6000815190506134af81613489565b92915050565b6000819050919050565b6134c8816134b5565b81146134d357600080fd5b50565b6000815190506134e5816134bf565b92915050565b6000819050919050565b6134fe816134eb565b811461350957600080fd5b50565b60008151905061351b816134f5565b92915050565b600080600080600060a0868803121561353d5761353c613469565b5b600061354b888289016134a0565b955050602061355c888289016134d6565b945050604061356d8882890161350c565b935050606061357e8882890161350c565b925050608061358f888289016134a0565b9150509295509295909350565b600082825260208201905092915050565b7f496e76616c69642070726963652066726f6d20436861696e6c696e6b00000000600082015250565b60006135e3601c8361359c565b91506135ee826135ad565b602082019050919050565b60006020820190508181036000830152613612816135d6565b9050919050565b7f4e487b7100000000000000000000000000000000000000000000000000000000600052601160045260246000fd5b6000613653826134eb565b915061365e836134eb565b925082820261366c816134eb565b9150828204841483151761368357613682613619565b5b5092915050565b7f4e487b7100000000000000000000000000000000000000000000000000000000600052601260045260246000fd5b60006136c4826134eb565b91506136cf836134eb565b9250826136df576136de61368a565b5b828204905092915050565b600073ffffffffffffffffffffffffffffffffffffffff82169050919050565b6000613715826136ea565b9050919050565b6137258161370a565b82525050565b613734816134eb565b82525050565b600060408201905061374f600083018561371c565b61375c602083018461372b565b9392505050565b6000602082019050613778600083018461372b565b92915050565b60007fffffffff0000000000000000000000000000000000000000000000000000000082169050919050565b6137b38161377e565b81146137be57600080fd5b50565b6000813590506137d0816137aa565b92915050565b6000602082840312156137ec576137eb613469565b5b60006137fa848285016137c1565b91505092915050565b60008115159050919050565b61381881613803565b82525050565b6000602082019050613833600083018461380f565b92915050565b600081519050919050565b60005b83811015613862578082015181840152602081019050613847565b60008484015250505050565b6000601f19601f8301169050919050565b600061388a82613839565b613894818561359c565b93506138a4818560208601613844565b6138ad8161386e565b840191505092915050565b600060208201905081810360008301526138d2818461387f565b905092915050565b6000813590506138e9816134f5565b92915050565b60006020828403121561390557613904613469565b5b6000613913848285016138da565b91505092915050565b6000602082019050613931600083018461371c565b92915050565b6139408161370a565b811461394b57600080fd5b50565b60008135905061395d81613937565b92915050565b6000806040838503121561397a57613979613469565b5b60006139888582860161394e565b9250506020613999858286016138da565b9150509250929050565b600080fd5b600080fd5b600080fd5b60008083601f8401126139c8576139c76139a3565b5b8235905067ffffffffffffffff8111156139e5576139e46139a8565b5b602083019150836020820283011115613a0157613a006139ad565b5b9250929050565b60008060208385031215613a1f57613a1e613469565b5b600083013567ffffffffffffffff811115613a3d57613a3c61346e565b5b613a49858286016139b2565b92509250509250929050565b600080600060608486031215613a6e57613a6d613469565b5b6000613a7c8682870161394e565b9350506020613a8d8682870161394e565b9250506040613a9e868287016138da565b9150509250925092565b600080fd5b7f4e487b7100000000000000000000000000000000000000000000000000000000600052604160045260246000fd5b613ae58261386e565b810181811067ffffffffffffffff82111715613b0457613b03613aad565b5b80604052505050565b6000613b1761345f565b9050613b238282613adc565b919050565b600067ffffffffffffffff821115613b4357613b42613aad565b5b613b4c8261386e565b9050602081019050919050565b82818337600083830152505050565b6000613b7b613b7684613b28565b613b0d565b905082815260208101848484011115613b9757613b96613aa8565b5b613ba2848285613b59565b509392505050565b600082601f830112613bbf57613bbe6139a3565b5b8135613bcf848260208601613b68565b91505092915050565b60008060008060808587031215613bf257613bf1613469565b5b6000613c00878288016138da565b9450506020613c11878288016138da565b9350506040613c22878288016138da565b925050606085013567ffffffffffffffff811115613c4357613c4261346e565b5b613c4f87828801613baa565b91505092959194509250565b600060208284031215613c7157613c70613469565b5b6000613c7f8482850161394e565b91505092915050565b6000819050919050565b6000613cad613ca8613ca3846136ea565b613c88565b6136ea565b9050919050565b6000613cbf82613c92565b9050919050565b6000613cd182613cb4565b9050919050565b613ce181613cc6565b82525050565b6000602082019050613cfc6000830184613cd8565b92915050565b613d0b81613803565b8114613d1657600080fd5b50565b600081359050613d2881613d02565b92915050565b60008060408385031215613d4557613d44613469565b5b6000613d538582860161394e565b9250506020613d6485828601613d19565b9150509250929050565b60008060008060808587031215613d8857613d87613469565b5b6000613d968782880161394e565b9450506020613da78782880161394e565b9350506040613db8878288016138da565b925050606085013567ffffffffffffffff811115613dd957613dd861346e565b5b613de587828801613baa565b91505092959194509250565b60008060408385031215613e0857613e07613469565b5b6000613e168582860161394e565b9250506020613e278582860161394e565b9150509250929050565b6000613e3c82613cb4565b9050919050565b613e4c81613e31565b82525050565b6000602082019050613e676000830184613e43565b92915050565b7f4e487b7100000000000000000000000000000000000000000000000000000000600052602260045260246000fd5b60006002820490506001821680613eb457607f821691505b602082108103613ec757613ec6613e6d565b5b50919050565b7f4552433732313a20617070726f76616c20746f2063757272656e74206f776e6560008201527f7200000000000000000000000000000000000000000000000000000000000000602082015250565b6000613f2960218361359c565b9150613f3482613ecd565b604082019050919050565b60006020820190508181036000830152613f5881613f1c565b9050919050565b7f4552433732313a20617070726f76652063616c6c6572206973206e6f7420746f60008201527f6b656e206f776e6572206f7220617070726f76656420666f7220616c6c000000602082015250565b6000613fbb603d8361359c565b9150613fc682613f5f565b604082019050919050565b60006020820190508181036000830152613fea81613fae565b9050919050565b60008151905061400081613d02565b92915050565b60006020828403121561401c5761401b613469565b5b600061402a84828501613ff1565b91505092915050565b7f4d75737420686f6c6420612076616c6964204d65726368616e7420546f6b656e60008201527f2e00000000000000000000000000000000000000000000000000000000000000602082015250565b600061408f60218361359c565b915061409a82614033565b604082019050919050565b600060208201905081810360008301526140be81614082565b9050919050565b7f4e6f20746f6b656e732070726f76696465642e00000000000000000000000000600082015250565b60006140fb60138361359c565b9150614106826140c5565b602082019050919050565b6000602082019050818103600083015261412a816140ee565b9050919050565b7f4e6f20746f6b656e7320696e2063697263756c6174696f6e2e00000000000000600082015250565b600061416760198361359c565b915061417282614131565b602082019050919050565b600060208201905081810360008301526141968161415a565b9050919050565b7f4e6f7420656e6f7567682045544820696e20636f6e74726163742e0000000000600082015250565b60006141d3601b8361359c565b91506141de8261419d565b602082019050919050565b60006020820190508181036000830152614202816141c6565b9050919050565b7f4e487b7100000000000000000000000000000000000000000000000000000000600052603260045260246000fd5b7f43616c6c6572206d757374206f776e20616c6c20746f6b656e73206265696e6760008201527f2072656465656d65642e00000000000000000000000000000000000000000000602082015250565b6000614294602a8361359c565b915061429f82614238565b604082019050919050565b600060208201905081810360008301526142c381614287565b9050919050565b7f546f6b656e20686173206265656e20696e76616c69646174656420647565207460008201527f6f20746f6f206d616e79207472616e73666572732e0000000000000000000000602082015250565b600061432660358361359c565b9150614331826142ca565b604082019050919050565b6000602082019050818103600083015261435581614319565b9050919050565b600081905092915050565b50565b600061437760008361435c565b915061438282614367565b600082019050919050565b60006143988261436a565b9150819050919050565b7f5472616e73666572206661696c65640000000000000000000000000000000000600082015250565b60006143d8600f8361359c565b91506143e3826143a2565b602082019050919050565b60006020820190508181036000830152614407816143cb565b9050919050565b6000604082019050614423600083018561372b565b614430602083018461372b565b9392505050565b7f4552433732313a2063616c6c6572206973206e6f7420746f6b656e206f776e6560008201527f72206f7220617070726f76656400000000000000000000000000000000000000602082015250565b6000614493602d8361359c565b915061449e82614437565b604082019050919050565b600060208201905081810360008301526144c281614486565b9050919050565b7f455243373231456e756d657261626c653a206f776e657220696e646578206f7560008201527f74206f6620626f756e6473000000000000000000000000000000000000000000602082015250565b6000614525602b8361359c565b9150614530826144c9565b604082019050919050565b6000602082019050818103600083015261455481614518565b9050919050565b7f416d6f756e74206d7573742062652067726561746572207468616e207a65726f600082015250565b600061459160208361359c565b915061459c8261455b565b602082019050919050565b600060208201905081810360008301526145c081614584565b9050919050565b7f5369676e61747572652068617320657870697265640000000000000000000000600082015250565b60006145fd60158361359c565b9150614608826145c7565b602082019050919050565b6000602082019050818103600083015261462c816145f0565b9050919050565b7f4e6f6e636520616c726561647920757365640000000000000000000000000000600082015250565b600061466960128361359c565b915061467482614633565b602082019050919050565b600060208201905081810360008301526146988161465c565b9050919050565b60008160601b9050919050565b60006146b78261469f565b9050919050565b60006146c9826146ac565b9050919050565b6146e16146dc8261370a565b6146be565b82525050565b6000819050919050565b6147026146fd826134eb565b6146e7565b82525050565b600061471482876146d0565b60148201915061472482866146f1565b60208201915061473482856146f1565b60208201915061474482846146f1565b60208201915081905095945050505050565b7f496e76616c6964207369676e6174757265000000000000000000000000000000600082015250565b600061478c60118361359c565b915061479782614756565b602082019050919050565b600060208201905081810360008301526147bb8161477f565b9050919050565b7f455243373231456e756d657261626c653a20676c6f62616c20696e646578206f60008201527f7574206f6620626f756e64730000000000000000000000000000000000000000602082015250565b600061481e602c8361359c565b9150614829826147c2565b604082019050919050565b6000602082019050818103600083015261484d81614811565b9050919050565b7f4552433732313a20696e76616c696420746f6b656e2049440000000000000000600082015250565b600061488a60188361359c565b915061489582614854565b602082019050919050565b600060208201905081810360008301526148b98161487d565b9050919050565b7f4552433732313a2061646472657373207a65726f206973206e6f74206120766160008201527f6c6964206f776e65720000000000000000000000000000000000000000000000602082015250565b600061491c60298361359c565b9150614927826148c0565b604082019050919050565b6000602082019050818103600083015261494b8161490f565b9050919050565b600081905092915050565b600061496882613839565b6149728185614952565b9350614982818560208601613844565b80840191505092915050565b600061499a828561495d565b91506149a6828461495d565b91508190509392505050565b7f4f776e61626c653a206e6577206f776e657220697320746865207a65726f206160008201527f6464726573730000000000000000000000000000000000000000000000000000602082015250565b6000614a0e60268361359c565b9150614a19826149b2565b604082019050919050565b60006020820190508181036000830152614a3d81614a01565b9050919050565b7f5265656e7472616e637947756172643a207265656e7472616e742063616c6c00600082015250565b6000614a7a601f8361359c565b9150614a8582614a44565b602082019050919050565b60006020820190508181036000830152614aa981614a6d565b9050919050565b7f4552433732313a207472616e736665722066726f6d20696e636f72726563742060008201527f6f776e6572000000000000000000000000000000000000000000000000000000602082015250565b6000614b0c60258361359c565b9150614b1782614ab0565b604082019050919050565b60006020820190508181036000830152614b3b81614aff565b9050919050565b7f4552433732313a207472616e7366657220746f20746865207a65726f2061646460008201527f7265737300000000000000000000000000000000000000000000000000000000602082015250565b6000614b9e60248361359c565b9150614ba982614b42565b604082019050919050565b60006020820190508181036000830152614bcd81614b91565b9050919050565b7f19457468657265756d205369676e6564204d6573736167653a0a333200000000600082015250565b6000614c0a601c83614952565b9150614c1582614bd4565b601c82019050919050565b6000819050919050565b6000819050919050565b614c45614c4082614c20565b614c2a565b82525050565b6000614c5682614bfd565b9150614c628284614c34565b60208201915081905092915050565b614c7a81614c20565b82525050565b600060ff82169050919050565b614c9681614c80565b82525050565b6000608082019050614cb16000830187614c71565b614cbe6020830186614c8d565b614ccb6040830185614c71565b614cd86060830184614c71565b95945050505050565b7f4f776e61626c653a2063616c6c6572206973206e6f7420746865206f776e6572600082015250565b6000614d1760208361359c565b9150614d2282614ce1565b602082019050919050565b60006020820190508181036000830152614d4681614d0a565b9050919050565b7f4552433732313a20617070726f766520746f2063616c6c657200000000000000600082015250565b6000614d8360198361359c565b9150614d8e82614d4d565b602082019050919050565b60006020820190508181036000830152614db281614d76565b9050919050565b7f4552433732313a207472616e7366657220746f206e6f6e20455243373231526560008201527f63656976657220696d706c656d656e7465720000000000000000000000000000602082015250565b6000614e1560328361359c565b9150614e2082614db9565b604082019050919050565b60006020820190508181036000830152614e4481614e08565b9050919050565b6000614e56826134eb565b9150614e61836134eb565b9250828201905080821115614e7957614e78613619565b5b92915050565b7f546f6b656e207472616e73666572206c696d69742065786365656465642e0000600082015250565b6000614eb5601e8361359c565b9150614ec082614e7f565b602082019050919050565b60006020820190508181036000830152614ee481614ea8565b9050919050565b7f4e487b7100000000000000000000000000000000000000000000000000000000600052602160045260246000fd5b7f45434453413a20696e76616c6964207369676e61747572650000000000000000600082015250565b6000614f5060188361359c565b9150614f5b82614f1a565b602082019050919050565b60006020820190508181036000830152614f7f81614f43565b9050919050565b7f45434453413a20696e76616c6964207369676e6174757265206c656e67746800600082015250565b6000614fbc601f8361359c565b9150614fc782614f86565b602082019050919050565b60006020820190508181036000830152614feb81614faf565b9050919050565b7f45434453413a20696e76616c6964207369676e6174757265202773272076616c60008201527f7565000000000000000000000000000000000000000000000000000000000000602082015250565b600061504e60228361359c565b915061505982614ff2565b604082019050919050565b6000602082019050818103600083015261507d81615041565b9050919050565b7f496e76616c6964207369676e6174757265206c656e6774680000000000000000600082015250565b60006150ba60188361359c565b91506150c582615084565b602082019050919050565b600060208201905081810360008301526150e9816150ad565b9050919050565b600081519050919050565b600082825260208201905092915050565b6000615117826150f0565b61512181856150fb565b9350615131818560208601613844565b61513a8161386e565b840191505092915050565b600060808201905061515a600083018761371c565b615167602083018661371c565b615174604083018561372b565b8181036060830152615186818461510c565b905095945050505050565b6000815190506151a0816137aa565b92915050565b6000602082840312156151bc576151bb613469565b5b60006151ca84828501615191565b91505092915050565b7f455243373231456e756d657261626c653a20636f6e736563757469766520747260008201527f616e7366657273206e6f7420737570706f727465640000000000000000000000602082015250565b600061522f60358361359c565b915061523a826151d3565b604082019050919050565b6000602082019050818103600083015261525e81615222565b9050919050565b7f4552433732313a206d696e7420746f20746865207a65726f2061646472657373600082015250565b600061529b60208361359c565b91506152a682615265565b602082019050919050565b600060208201905081810360008301526152ca8161528e565b9050919050565b7f4552433732313a20746f6b656e20616c7265616479206d696e74656400000000600082015250565b6000615307601c8361359c565b9150615312826152d1565b602082019050919050565b60006020820190508181036000830152615336816152fa565b9050919050565b6000615348826134eb565b9150615353836134eb565b925082820390508181111561536b5761536a613619565b5b92915050565b7f4e487b7100000000000000000000000000000000000000000000000000000000600052603160045260246000fdfea26469706673582212201ff73fdeef4f2b6d073e5d5f9cb4f1ba7ce5f8bcd58f2f2ddcd155fb564df62964736f6c634300081b0033608060405234801561001057600080fd5b506040518060400160405280601081526020017f4f4c4d2052657761726420546f6b656e000000000000000000000000000000008152506040518060400160405280600581526020017f4f4c4d5254000000000000000000000000000000000000000000000000000000815250816003908161008c91906103de565b50806004908161009c91906103de565b5050506100bb6100b06100c060201b60201c565b6100c860201b60201c565b6104b0565b600033905090565b6000600560009054906101000a900473ffffffffffffffffffffffffffffffffffffffff16905081600560006101000a81548173ffffffffffffffffffffffffffffffffffffffff021916908373ffffffffffffffffffffffffffffffffffffffff1602179055508173ffffffffffffffffffffffffffffffffffffffff168173ffffffffffffffffffffffffffffffffffffffff167f8be0079c531659141344cd1fd0a4f28419497f9722a3daafe3b4186f6b6457e060405160405180910390a35050565b600081519050919050565b7f4e487b7100000000000000000000000000000000000000000000000000000000600052604160045260246000fd5b7f4e487b7100000000000000000000000000000000000000000000000000000000600052602260045260246000fd5b6000600282049050600182168061020f57607f821691505b602082108103610222576102216101c8565b5b50919050565b60008190508160005260206000209050919050565b60006020601f8301049050919050565b600082821b905092915050565b60006008830261028a7fffffffffffffffffffffffffffffffffffffffffffffffffffffffffffffffff8261024d565b610294868361024d565b95508019841693508086168417925050509392505050565b6000819050919050565b6000819050919050565b60006102db6102d66102d1846102ac565b6102b6565b6102ac565b9050919050565b6000819050919050565b6102f5836102c0565b610309610301826102e2565b84845461025a565b825550505050565b600090565b61031e610311565b6103298184846102ec565b505050565b5b8181101561034d57610342600082610316565b60018101905061032f565b5050565b601f8211156103925761036381610228565b61036c8461023d565b8101602085101561037b578190505b61038f6103878561023d565b83018261032e565b50505b505050565b600082821c905092915050565b60006103b560001984600802610397565b1980831691505092915050565b60006103ce83836103a4565b9150826002028217905092915050565b6103e78261018e565b67ffffffffffffffff811115610400576103ff610199565b5b61040a82546101f7565b610415828285610351565b600060209050601f8311600181146104485760008415610436578287015190505b61044085826103c2565b8655506104a8565b601f19841661045686610228565b60005b8281101561047e57848901518255600182019150602085019450602081019050610459565b8683101561049b5784890151610497601f8916826103a4565b8355505b6001600288020188555050505b505050505050565b6117e0806104bf6000396000f3fe608060405234801561001057600080fd5b50600436106100f55760003560e01c806370a0823111610097578063a457c2d711610066578063a457c2d714610276578063a9059cbb146102a6578063dd62ed3e146102d6578063f2fde38b14610306576100f5565b806370a0823114610200578063715018a6146102305780638da5cb5b1461023a57806395d89b4114610258576100f5565b806323b872dd116100d357806323b872dd14610166578063313ce5671461019657806339509351146101b457806340c10f19146101e4576100f5565b806306fdde03146100fa578063095ea7b31461011857806318160ddd14610148575b600080fd5b610102610322565b60405161010f9190610f29565b60405180910390f35b610132600480360381019061012d9190610fe4565b6103b4565b60405161013f919061103f565b60405180910390f35b6101506103d7565b60405161015d9190611069565b60405180910390f35b610180600480360381019061017b9190611084565b6103e1565b60405161018d919061103f565b60405180910390f35b61019e610410565b6040516101ab91906110f3565b60405180910390f35b6101ce60048036038101906101c99190610fe4565b610419565b6040516101db919061103f565b60405180910390f35b6101fe60048036038101906101f99190610fe4565b610450565b005b61021a6004803603810190610215919061110e565b610466565b6040516102279190611069565b60405180910390f35b6102386104ae565b005b6102426104c2565b60405161024f919061114a565b60405180910390f35b6102606104ec565b60405161026d9190610f29565b60405180910390f35b610290600480360381019061028b9190610fe4565b61057e565b60405161029d919061103f565b60405180910390f35b6102c060048036038101906102bb9190610fe4565b6105f5565b6040516102cd919061103f565b60405180910390f35b6102f060048036038101906102eb9190611165565b610618565b6040516102fd9190611069565b60405180910390f35b610320600480360381019061031b919061110e565b61069f565b005b606060038054610331906111d4565b80601f016020809104026020016040519081016040528092919081815260200182805461035d906111d4565b80156103aa5780601f1061037f576101008083540402835291602001916103aa565b820191906000526020600020905b81548152906001019060200180831161038d57829003601f168201915b5050505050905090565b6000806103bf610722565b90506103cc81858561072a565b600191505092915050565b6000600254905090565b6000806103ec610722565b90506103f98582856108f3565b61040485858561097f565b60019150509392505050565b60006012905090565b600080610424610722565b90506104458185856104368589610618565b6104409190611234565b61072a565b600191505092915050565b610458610bf5565b6104628282610c73565b5050565b60008060008373ffffffffffffffffffffffffffffffffffffffff1673ffffffffffffffffffffffffffffffffffffffff168152602001908152602001600020549050919050565b6104b6610bf5565b6104c06000610dc9565b565b6000600560009054906101000a900473ffffffffffffffffffffffffffffffffffffffff16905090565b6060600480546104fb906111d4565b80601f0160208091040260200160405190810160405280929190818152602001828054610527906111d4565b80156105745780601f1061054957610100808354040283529160200191610574565b820191906000526020600020905b81548152906001019060200180831161055757829003601f168201915b5050505050905090565b600080610589610722565b905060006105978286610618565b9050838110156105dc576040517f08c379a00000000000000000000000000000000000000000000000000000000081526004016105d3906112da565b60405180910390fd5b6105e9828686840361072a565b60019250505092915050565b600080610600610722565b905061060d81858561097f565b600191505092915050565b6000600160008473ffffffffffffffffffffffffffffffffffffffff1673ffffffffffffffffffffffffffffffffffffffff16815260200190815260200160002060008373ffffffffffffffffffffffffffffffffffffffff1673ffffffffffffffffffffffffffffffffffffffff16815260200190815260200160002054905092915050565b6106a7610bf5565b600073ffffffffffffffffffffffffffffffffffffffff168173ffffffffffffffffffffffffffffffffffffffff1603610716576040517f08c379a000000000000000000000000000000000000000000000000000000000815260040161070d9061136c565b60405180910390fd5b61071f81610dc9565b50565b600033905090565b600073ffffffffffffffffffffffffffffffffffffffff168373ffffffffffffffffffffffffffffffffffffffff1603610799576040517f08c379a0000000000000000000000000000000000000000000000000000000008152600401610790906113fe565b60405180910390fd5b600073ffffffffffffffffffffffffffffffffffffffff168273ffffffffffffffffffffffffffffffffffffffff1603610808576040517f08c379a00000000000000000000000000000000000000000000000000000000081526004016107ff90611490565b60405180910390fd5b80600160008573ffffffffffffffffffffffffffffffffffffffff1673ffffffffffffffffffffffffffffffffffffffff16815260200190815260200160002060008473ffffffffffffffffffffffffffffffffffffffff1673ffffffffffffffffffffffffffffffffffffffff168152602001908152602001600020819055508173ffffffffffffffffffffffffffffffffffffffff168373ffffffffffffffffffffffffffffffffffffffff167f8c5be1e5ebec7d5bd14f71427d1e84f3dd0314c0f7b2291e5b200ac8c7c3b925836040516108e69190611069565b60405180910390a3505050565b60006108ff8484610618565b90507fffffffffffffffffffffffffffffffffffffffffffffffffffffffffffffffff8114610979578181101561096b576040517f08c379a0000000000000000000000000000000000000000000000000000000008152600401610962906114fc565b60405180910390fd5b610978848484840361072a565b5b50505050565b600073ffffffffffffffffffffffffffffffffffffffff168373ffffffffffffffffffffffffffffffffffffffff16036109ee576040517f08c379a00000000000000000000000000000000000000000000000000000000081526004016109e59061158e565b60405180910390fd5b600073ffffffffffffffffffffffffffffffffffffffff168273ffffffffffffffffffffffffffffffffffffffff1603610a5d576040517f08c379a0000000000000000000000000000000000000000000000000000000008152600401610a5490611620565b60405180910390fd5b610a68838383610e8f565b60008060008573ffffffffffffffffffffffffffffffffffffffff1673ffffffffffffffffffffffffffffffffffffffff16815260200190815260200160002054905081811015610aee576040517f08c379a0000000000000000000000000000000000000000000000000000000008152600401610ae5906116b2565b60405180910390fd5b8181036000808673ffffffffffffffffffffffffffffffffffffffff1673ffffffffffffffffffffffffffffffffffffffff16815260200190815260200160002081905550816000808573ffffffffffffffffffffffffffffffffffffffff1673ffffffffffffffffffffffffffffffffffffffff168152602001908152602001600020600082825401925050819055508273ffffffffffffffffffffffffffffffffffffffff168473ffffffffffffffffffffffffffffffffffffffff167fddf252ad1be2c89b69c2b068fc378daa952ba7f163c4a11628f55a4df523b3ef84604051610bdc9190611069565b60405180910390a3610bef848484610e94565b50505050565b610bfd610722565b73ffffffffffffffffffffffffffffffffffffffff16610c1b6104c2565b73ffffffffffffffffffffffffffffffffffffffff1614610c71576040517f08c379a0000000000000000000000000000000000000000000000000000000008152600401610c689061171e565b60405180910390fd5b565b600073ffffffffffffffffffffffffffffffffffffffff168273ffffffffffffffffffffffffffffffffffffffff1603610ce2576040517f08c379a0000000000000000000000000000000000000000000000000000000008152600401610cd99061178a565b60405180910390fd5b610cee60008383610e8f565b8060026000828254610d009190611234565b92505081905550806000808473ffffffffffffffffffffffffffffffffffffffff1673ffffffffffffffffffffffffffffffffffffffff168152602001908152602001600020600082825401925050819055508173ffffffffffffffffffffffffffffffffffffffff16600073ffffffffffffffffffffffffffffffffffffffff167fddf252ad1be2c89b69c2b068fc378daa952ba7f163c4a11628f55a4df523b3ef83604051610db19190611069565b60405180910390a3610dc560008383610e94565b5050565b6000600560009054906101000a900473ffffffffffffffffffffffffffffffffffffffff16905081600560006101000a81548173ffffffffffffffffffffffffffffffffffffffff021916908373ffffffffffffffffffffffffffffffffffffffff1602179055508173ffffffffffffffffffffffffffffffffffffffff168173ffffffffffffffffffffffffffffffffffffffff167f8be0079c531659141344cd1fd0a4f28419497f9722a3daafe3b4186f6b6457e060405160405180910390a35050565b505050565b505050565b600081519050919050565b600082825260208201905092915050565b60005b83811015610ed3578082015181840152602081019050610eb8565b60008484015250505050565b6000601f19601f8301169050919050565b6000610efb82610e99565b610f058185610ea4565b9350610f15818560208601610eb5565b610f1e81610edf565b840191505092915050565b60006020820190508181036000830152610f438184610ef0565b905092915050565b600080fd5b600073ffffffffffffffffffffffffffffffffffffffff82169050919050565b6000610f7b82610f50565b9050919050565b610f8b81610f70565b8114610f9657600080fd5b50565b600081359050610fa881610f82565b92915050565b6000819050919050565b610fc181610fae565b8114610fcc57600080fd5b50565b600081359050610fde81610fb8565b92915050565b60008060408385031215610ffb57610ffa610f4b565b5b600061100985828601610f99565b925050602061101a85828601610fcf565b9150509250929050565b60008115159050919050565b61103981611024565b82525050565b60006020820190506110546000830184611030565b92915050565b61106381610fae565b82525050565b600060208201905061107e600083018461105a565b92915050565b60008060006060848603121561109d5761109c610f4b565b5b60006110ab86828701610f99565b93505060206110bc86828701610f99565b92505060406110cd86828701610fcf565b9150509250925092565b600060ff82169050919050565b6110ed816110d7565b82525050565b600060208201905061110860008301846110e4565b92915050565b60006020828403121561112457611123610f4b565b5b600061113284828501610f99565b91505092915050565b61114481610f70565b82525050565b600060208201905061115f600083018461113b565b92915050565b6000806040838503121561117c5761117b610f4b565b5b600061118a85828601610f99565b925050602061119b85828601610f99565b9150509250929050565b7f4e487b7100000000000000000000000000000000000000000000000000000000600052602260045260246000fd5b600060028204905060018216806111ec57607f821691505b6020821081036111ff576111fe6111a5565b5b50919050565b7f4e487b7100000000000000000000000000000000000000000000000000000000600052601160045260246000fd5b600061123f82610fae565b915061124a83610fae565b925082820190508082111561126257611261611205565b5b92915050565b7f45524332303a2064656372656173656420616c6c6f77616e63652062656c6f7760008201527f207a65726f000000000000000000000000000000000000000000000000000000602082015250565b60006112c4602583610ea4565b91506112cf82611268565b604082019050919050565b600060208201905081810360008301526112f3816112b7565b9050919050565b7f4f776e61626c653a206e6577206f776e657220697320746865207a65726f206160008201527f6464726573730000000000000000000000000000000000000000000000000000602082015250565b6000611356602683610ea4565b9150611361826112fa565b604082019050919050565b6000602082019050818103600083015261138581611349565b9050919050565b7f45524332303a20617070726f76652066726f6d20746865207a65726f2061646460008201527f7265737300000000000000000000000000000000000000000000000000000000602082015250565b60006113e8602483610ea4565b91506113f38261138c565b604082019050919050565b60006020820190508181036000830152611417816113db565b9050919050565b7f45524332303a20617070726f766520746f20746865207a65726f20616464726560008201527f7373000000000000000000000000000000000000000000000000000000000000602082015250565b600061147a602283610ea4565b91506114858261141e565b604082019050919050565b600060208201905081810360008301526114a98161146d565b9050919050565b7f45524332303a20696e73756666696369656e7420616c6c6f77616e6365000000600082015250565b60006114e6601d83610ea4565b91506114f1826114b0565b602082019050919050565b60006020820190508181036000830152611515816114d9565b9050919050565b7f45524332303a207472616e736665722066726f6d20746865207a65726f20616460008201527f6472657373000000000000000000000000000000000000000000000000000000602082015250565b6000611578602583610ea4565b91506115838261151c565b604082019050919050565b600060208201905081810360008301526115a78161156b565b9050919050565b7f45524332303a207472616e7366657220746f20746865207a65726f206164647260008201527f6573730000000000000000000000000000000000000000000000000000000000602082015250565b600061160a602383610ea4565b9150611615826115ae565b604082019050919050565b60006020820190508181036000830152611639816115fd565b9050919050565b7f45524332303a207472616e7366657220616d6f756e742065786365656473206260008201527f616c616e63650000000000000000000000000000000000000000000000000000602082015250565b600061169c602683610ea4565b91506116a782611640565b604082019050919050565b600060208201905081810360008301526116cb8161168f565b9050919050565b7f4f776e61626c653a2063616c6c6572206973206e6f7420746865206f776e6572600082015250565b6000611708602083610ea4565b9150611713826116d2565b602082019050919050565b60006020820190508181036000830152611737816116fb565b9050919050565b7f45524332303a206d696e7420746f20746865207a65726f206164647265737300600082015250565b6000611774601f83610ea4565b915061177f8261173e565b602082019050919050565b600060208201905081810360008301526117a381611767565b905091905056fea2646970667358221220af20ee9085baea6d3365493d9a9c372a7cee3e7ac2647d892ac51a03d58530b864736f6c634300081b0033608060405234801561001057600080fd5b506040518060400160405280601781526020017f4c6974746572636f696e4d65726368616e74546f6b656e0000000000000000008152506040518060400160405280600481526020017f4c584d5400000000000000000000000000000000000000000000000000000000815250816000908161008c91906103de565b50806001908161009c91906103de565b5050506100bb6100b06100c060201b60201c565b6100c860201b60201c565b6104b0565b600033905090565b6000600660009054906101000a900473ffffffffffffffffffffffffffffffffffffffff16905081600660006101000a81548173ffffffffffffffffffffffffffffffffffffffff021916908373ffffffffffffffffffffffffffffffffffffffff1602179055508173ffffffffffffffffffffffffffffffffffffffff168173ffffffffffffffffffffffffffffffffffffffff167f8be0079c531659141344cd1fd0a4f28419497f9722a3daafe3b4186f6b6457e060405160405180910390a35050565b600081519050919050565b7f4e487b7100000000000000000000000000000000000000000000000000000000600052604160045260246000fd5b7f4e487b7100000000000000000000000000000000000000000000000000000000600052602260045260246000fd5b6000600282049050600182168061020f57607f821691505b602082108103610222576102216101c8565b5b50919050565b60008190508160005260206000209050919050565b60006020601f8301049050919050565b600082821b905092915050565b60006008830261028a7fffffffffffffffffffffffffffffffffffffffffffffffffffffffffffffffff8261024d565b610294868361024d565b95508019841693508086168417925050509392505050565b6000819050919050565b6000819050919050565b60006102db6102d66102d1846102ac565b6102b6565b6102ac565b9050919050565b6000819050919050565b6102f5836102c0565b610309610301826102e2565b84845461025a565b825550505050565b600090565b61031e610311565b6103298184846102ec565b505050565b5b8181101561034d57610342600082610316565b60018101905061032f565b5050565b601f8211156103925761036381610228565b61036c8461023d565b8101602085101561037b578190505b61038f6103878561023d565b83018261032e565b50505b505050565b600082821c905092915050565b60006103b560001984600802610397565b1980831691505092915050565b60006103ce83836103a4565b9150826002028217905092915050565b6103e78261018e565b67ffffffffffffffff811115610400576103ff610199565b5b61040a82546101f7565b610415828285610351565b600060209050601f8311600181146104485760008415610436578287015190505b61044085826103c2565b8655506104a8565b601f19841661045686610228565b60005b8281101561047e57848901518255600182019150602085019450602081019050610459565b8683101561049b5784890151610497601f8916826103a4565b8355505b6001600288020188555050505b505050505050565b6138ae806104bf6000396000f3fe608060405234801561001057600080fd5b50600436106101735760003560e01c80636352211e116100de578063b88d4fde11610097578063d9e5896e11610071578063d9e5896e14610434578063e985e9c514610464578063ea55763314610494578063f2fde38b146104c457610173565b8063b88d4fde146103b8578063c87b56dd146103d4578063d9548e531461040457610173565b80636352211e146102f657806370a0823114610326578063715018a6146103565780638da5cb5b1461036057806395d89b411461037e578063a22cb4651461039c57610173565b8063393ed91a11610130578063393ed91a1461025e57806340c10f191461027a578063425604d61461029657806342842e0e146102b257806344df8e70146102ce57806356189236146102d857610173565b806301ffc9a71461017857806302556a29146101a857806306fdde03146101d8578063081812fc146101f6578063095ea7b31461022657806323b872dd14610242575b600080fd5b610192600480360381019061018d9190612528565b6104e0565b60405161019f9190612570565b60405180910390f35b6101c260048036038101906101bd91906125e9565b6104f2565b6040516101cf9190612570565b60405180910390f35b6101e0610565565b6040516101ed91906126a6565b60405180910390f35b610210600480360381019061020b91906126fe565b6105f7565b60405161021d919061273a565b60405180910390f35b610240600480360381019061023b9190612755565b61063d565b005b61025c60048036038101906102579190612795565b610754565b005b610278600480360381019061027391906126fe565b6107b4565b005b610294600480360381019061028f9190612755565b6108ac565b005b6102b060048036038101906102ab91906127e8565b610a83565b005b6102cc60048036038101906102c79190612795565b610b90565b005b6102d6610bb0565b005b6102e0610c43565b6040516102ed9190612837565b60405180910390f35b610310600480360381019061030b91906126fe565b610c54565b60405161031d919061273a565b60405180910390f35b610340600480360381019061033b91906125e9565b610cda565b60405161034d9190612837565b60405180910390f35b61035e610d91565b005b610368610da5565b604051610375919061273a565b60405180910390f35b610386610dcf565b60405161039391906126a6565b60405180910390f35b6103b660048036038101906103b1919061287e565b610e61565b005b6103d260048036038101906103cd91906129f3565b610e77565b005b6103ee60048036038101906103e991906126fe565b610ed9565b6040516103fb91906126a6565b60405180910390f35b61041e600480360381019061041991906126fe565b610f41565b60405161042b9190612570565b60405180910390f35b61044e600480360381019061044991906126fe565b610fa8565b60405161045b9190612837565b60405180910390f35b61047e60048036038101906104799190612a76565b61100d565b60405161048b9190612570565b60405180910390f35b6104ae60048036038101906104a991906125e9565b6110a1565b6040516104bb9190612837565b60405180910390f35b6104de60048036038101906104d991906125e9565b6111a1565b005b60006104eb82611224565b9050919050565b600080600860008473ffffffffffffffffffffffffffffffffffffffff1673ffffffffffffffffffffffffffffffffffffffff168152602001908152602001600020549050600081148061054b575061054a81610f41565b5b1561055a576000915050610560565b60019150505b919050565b60606000805461057490612ae5565b80601f01602080910402602001604051908101604052809291908181526020018280546105a090612ae5565b80156105ed5780601f106105c2576101008083540402835291602001916105ed565b820191906000526020600020905b8154815290600101906020018083116105d057829003601f168201915b5050505050905090565b600061060282611306565b6004600083815260200190815260200160002060009054906101000a900473ffffffffffffffffffffffffffffffffffffffff169050919050565b600061064882610c54565b90508073ffffffffffffffffffffffffffffffffffffffff168373ffffffffffffffffffffffffffffffffffffffff16036106b8576040517f08c379a00000000000000000000000000000000000000000000000000000000081526004016106af90612b88565b60405180910390fd5b8073ffffffffffffffffffffffffffffffffffffffff166106d7611351565b73ffffffffffffffffffffffffffffffffffffffff161480610706575061070581610700611351565b61100d565b5b610745576040517f08c379a000000000000000000000000000000000000000000000000000000000815260040161073c90612c1a565b60405180910390fd5b61074f8383611359565b505050565b61076561075f611351565b82611412565b6107a4576040517f08c379a000000000000000000000000000000000000000000000000000000000815260040161079b90612cac565b60405180910390fd5b6107af8383836114a7565b505050565b6107bc6117a0565b6107c58161181e565b610804576040517f08c379a00000000000000000000000000000000000000000000000000000000081526004016107fb90612d18565b60405180910390fd5b61080d81610f41565b1561084d576040517f08c379a000000000000000000000000000000000000000000000000000000000815260040161084490612d84565b60405180910390fd5b610e104261085b9190612dd3565b60096000838152602001908152602001600020819055507f754f3aa765fa1f221ea409fddea972deff6ce410d141d5cded4fc7ec690710c0816040516108a19190612837565b60405180910390a150565b6108b46117a0565b600073ffffffffffffffffffffffffffffffffffffffff168273ffffffffffffffffffffffffffffffffffffffff1603610923576040517f08c379a000000000000000000000000000000000000000000000000000000000815260040161091a90612e53565b60405180910390fd5b428111610965576040517f08c379a000000000000000000000000000000000000000000000000000000000815260040161095c90612ee5565b60405180910390fd5b600061097083610cda565b146109b0576040517f08c379a00000000000000000000000000000000000000000000000000000000081526004016109a790612f51565b60405180910390fd5b6109ba600761185f565b60006109c66007611875565b90508160096000838152602001908152602001600020819055506109ea8382611883565b80600860008573ffffffffffffffffffffffffffffffffffffffff1673ffffffffffffffffffffffffffffffffffffffff168152602001908152602001600020819055508273ffffffffffffffffffffffffffffffffffffffff167f655ff37b06d138fc26fda07d435a40368e63b8d3cbd7835215334ff9e7fcd7828284604051610a76929190612f71565b60405180910390a2505050565b610a8b6117a0565b610a948261181e565b610ad3576040517f08c379a0000000000000000000000000000000000000000000000000000000008152600401610aca90612d18565b60405180910390fd5b60008111610b16576040517f08c379a0000000000000000000000000000000000000000000000000000000008152600401610b0d9061300c565b60405180910390fd5b80600960008481526020019081526020016000206000828254610b39919061302c565b925050819055507f0db48b23ad6f04f212b5fddef4017753a195535f0d61c4daa790b4f70f28c07f826009600085815260200190815260200160002054604051610b84929190612f71565b60405180910390a15050565b610bab83838360405180602001604052806000815250610e77565b505050565b6000600860003373ffffffffffffffffffffffffffffffffffffffff1673ffffffffffffffffffffffffffffffffffffffff16815260200190815260200160002054905060008103610c37576040517f08c379a0000000000000000000000000000000000000000000000000000000008152600401610c2e906130ac565b60405180910390fd5b610c40816118a1565b50565b6000610c4f6007611875565b905090565b600080610c60836119ef565b9050600073ffffffffffffffffffffffffffffffffffffffff168173ffffffffffffffffffffffffffffffffffffffff1603610cd1576040517f08c379a0000000000000000000000000000000000000000000000000000000008152600401610cc890613118565b60405180910390fd5b80915050919050565b60008073ffffffffffffffffffffffffffffffffffffffff168273ffffffffffffffffffffffffffffffffffffffff1603610d4a576040517f08c379a0000000000000000000000000000000000000000000000000000000008152600401610d41906131aa565b60405180910390fd5b600360008373ffffffffffffffffffffffffffffffffffffffff1673ffffffffffffffffffffffffffffffffffffffff168152602001908152602001600020549050919050565b610d996117a0565b610da36000611a2c565b565b6000600660009054906101000a900473ffffffffffffffffffffffffffffffffffffffff16905090565b606060018054610dde90612ae5565b80601f0160208091040260200160405190810160405280929190818152602001828054610e0a90612ae5565b8015610e575780601f10610e2c57610100808354040283529160200191610e57565b820191906000526020600020905b815481529060010190602001808311610e3a57829003601f168201915b5050505050905090565b610e73610e6c611351565b8383611af2565b5050565b610e88610e82611351565b83611412565b610ec7576040517f08c379a0000000000000000000000000000000000000000000000000000000008152600401610ebe90612cac565b60405180910390fd5b610ed384848484611c5e565b50505050565b6060610ee482611306565b6000610eee611cba565b90506000815111610f0e5760405180602001604052806000815250610f39565b80610f1884611cd1565b604051602001610f29929190613206565b6040516020818303038152906040525b915050919050565b6000610f4c8261181e565b610f8b576040517f08c379a0000000000000000000000000000000000000000000000000000000008152600401610f8290612d18565b60405180910390fd5b600960008381526020019081526020016000205442119050919050565b6000610fb38261181e565b610ff2576040517f08c379a0000000000000000000000000000000000000000000000000000000008152600401610fe990612d18565b60405180910390fd5b60096000838152602001908152602001600020549050919050565b6000600560008473ffffffffffffffffffffffffffffffffffffffff1673ffffffffffffffffffffffffffffffffffffffff16815260200190815260200160002060008373ffffffffffffffffffffffffffffffffffffffff1673ffffffffffffffffffffffffffffffffffffffff16815260200190815260200160002060009054906101000a900460ff16905092915050565b60008073ffffffffffffffffffffffffffffffffffffffff168273ffffffffffffffffffffffffffffffffffffffff1603611111576040517f08c379a000000000000000000000000000000000000000000000000000000000815260040161110890613276565b60405180910390fd5b6000600860008473ffffffffffffffffffffffffffffffffffffffff1673ffffffffffffffffffffffffffffffffffffffff16815260200190815260200160002054905060008103611198576040517f08c379a000000000000000000000000000000000000000000000000000000000815260040161118f906132e2565b60405180910390fd5b80915050919050565b6111a96117a0565b600073ffffffffffffffffffffffffffffffffffffffff168173ffffffffffffffffffffffffffffffffffffffff1603611218576040517f08c379a000000000000000000000000000000000000000000000000000000000815260040161120f90613374565b60405180910390fd5b61122181611a2c565b50565b60007f80ac58cd000000000000000000000000000000000000000000000000000000007bffffffffffffffffffffffffffffffffffffffffffffffffffffffff1916827bffffffffffffffffffffffffffffffffffffffffffffffffffffffff191614806112ef57507f5b5e139f000000000000000000000000000000000000000000000000000000007bffffffffffffffffffffffffffffffffffffffffffffffffffffffff1916827bffffffffffffffffffffffffffffffffffffffffffffffffffffffff1916145b806112ff57506112fe82611d9f565b5b9050919050565b61130f8161181e565b61134e576040517f08c379a000000000000000000000000000000000000000000000000000000000815260040161134590613118565b60405180910390fd5b50565b600033905090565b816004600083815260200190815260200160002060006101000a81548173ffffffffffffffffffffffffffffffffffffffff021916908373ffffffffffffffffffffffffffffffffffffffff160217905550808273ffffffffffffffffffffffffffffffffffffffff166113cc83610c54565b73ffffffffffffffffffffffffffffffffffffffff167f8c5be1e5ebec7d5bd14f71427d1e84f3dd0314c0f7b2291e5b200ac8c7c3b92560405160405180910390a45050565b60008061141e83610c54565b90508073ffffffffffffffffffffffffffffffffffffffff168473ffffffffffffffffffffffffffffffffffffffff161480611460575061145f818561100d565b5b8061149e57508373ffffffffffffffffffffffffffffffffffffffff16611486846105f7565b73ffffffffffffffffffffffffffffffffffffffff16145b91505092915050565b8273ffffffffffffffffffffffffffffffffffffffff166114c782610c54565b73ffffffffffffffffffffffffffffffffffffffff161461151d576040517f08c379a000000000000000000000000000000000000000000000000000000000815260040161151490613406565b60405180910390fd5b600073ffffffffffffffffffffffffffffffffffffffff168273ffffffffffffffffffffffffffffffffffffffff160361158c576040517f08c379a000000000000000000000000000000000000000000000000000000000815260040161158390613498565b60405180910390fd5b6115998383836001611e09565b8273ffffffffffffffffffffffffffffffffffffffff166115b982610c54565b73ffffffffffffffffffffffffffffffffffffffff161461160f576040517f08c379a000000000000000000000000000000000000000000000000000000000815260040161160690613406565b60405180910390fd5b6004600082815260200190815260200160002060006101000a81549073ffffffffffffffffffffffffffffffffffffffff02191690556001600360008573ffffffffffffffffffffffffffffffffffffffff1673ffffffffffffffffffffffffffffffffffffffff168152602001908152602001600020600082825403925050819055506001600360008473ffffffffffffffffffffffffffffffffffffffff1673ffffffffffffffffffffffffffffffffffffffff16815260200190815260200160002060008282540192505081905550816002600083815260200190815260200160002060006101000a81548173ffffffffffffffffffffffffffffffffffffffff021916908373ffffffffffffffffffffffffffffffffffffffff160217905550808273ffffffffffffffffffffffffffffffffffffffff168473ffffffffffffffffffffffffffffffffffffffff167fddf252ad1be2c89b69c2b068fc378daa952ba7f163c4a11628f55a4df523b3ef60405160405180910390a461179b8383836001611f3b565b505050565b6117a8611351565b73ffffffffffffffffffffffffffffffffffffffff166117c6610da5565b73ffffffffffffffffffffffffffffffffffffffff161461181c576040517f08c379a000000000000000000000000000000000000000000000000000000000815260040161181390613504565b60405180910390fd5b565b60008073ffffffffffffffffffffffffffffffffffffffff16611840836119ef565b73ffffffffffffffffffffffffffffffffffffffff1614159050919050565b6001816000016000828254019250508190555050565b600081600001549050919050565b61189d828260405180602001604052806000815250611f41565b5050565b60006118ac82610c54565b90506118bc816000846001611e09565b6118c582610c54565b90506004600083815260200190815260200160002060006101000a81549073ffffffffffffffffffffffffffffffffffffffff02191690556001600360008373ffffffffffffffffffffffffffffffffffffffff1673ffffffffffffffffffffffffffffffffffffffff168152602001908152602001600020600082825403925050819055506002600083815260200190815260200160002060006101000a81549073ffffffffffffffffffffffffffffffffffffffff021916905581600073ffffffffffffffffffffffffffffffffffffffff168273ffffffffffffffffffffffffffffffffffffffff167fddf252ad1be2c89b69c2b068fc378daa952ba7f163c4a11628f55a4df523b3ef60405160405180910390a46119eb816000846001611f3b565b5050565b60006002600083815260200190815260200160002060009054906101000a900473ffffffffffffffffffffffffffffffffffffffff169050919050565b6000600660009054906101000a900473ffffffffffffffffffffffffffffffffffffffff16905081600660006101000a81548173ffffffffffffffffffffffffffffffffffffffff021916908373ffffffffffffffffffffffffffffffffffffffff1602179055508173ffffffffffffffffffffffffffffffffffffffff168173ffffffffffffffffffffffffffffffffffffffff167f8be0079c531659141344cd1fd0a4f28419497f9722a3daafe3b4186f6b6457e060405160405180910390a35050565b8173ffffffffffffffffffffffffffffffffffffffff168373ffffffffffffffffffffffffffffffffffffffff1603611b60576040517f08c379a0000000000000000000000000000000000000000000000000000000008152600401611b5790613570565b60405180910390fd5b80600560008573ffffffffffffffffffffffffffffffffffffffff1673ffffffffffffffffffffffffffffffffffffffff16815260200190815260200160002060008473ffffffffffffffffffffffffffffffffffffffff1673ffffffffffffffffffffffffffffffffffffffff16815260200190815260200160002060006101000a81548160ff0219169083151502179055508173ffffffffffffffffffffffffffffffffffffffff168373ffffffffffffffffffffffffffffffffffffffff167f17307eab39ab6107e8899845ad3d59bd9653f200f220920489ca2b5937696c3183604051611c519190612570565b60405180910390a3505050565b611c698484846114a7565b611c7584848484611f9c565b611cb4576040517f08c379a0000000000000000000000000000000000000000000000000000000008152600401611cab90613602565b60405180910390fd5b50505050565b606060405180602001604052806000815250905090565b606060006001611ce084612123565b01905060008167ffffffffffffffff811115611cff57611cfe6128c8565b5b6040519080825280601f01601f191660200182016040528015611d315781602001600182028036833780820191505090505b509050600082602001820190505b600115611d94578080600190039150507f3031323334353637383961626364656600000000000000000000000000000000600a86061a8153600a8581611d8857611d87613622565b5b04945060008503611d3f575b819350505050919050565b60007f01ffc9a7000000000000000000000000000000000000000000000000000000007bffffffffffffffffffffffffffffffffffffffffffffffffffffffff1916827bffffffffffffffffffffffffffffffffffffffffffffffffffffffff1916149050919050565b611e1584848484612276565b600073ffffffffffffffffffffffffffffffffffffffff168473ffffffffffffffffffffffffffffffffffffffff161480611e7c5750600073ffffffffffffffffffffffffffffffffffffffff168373ffffffffffffffffffffffffffffffffffffffff16145b611ebb576040517f08c379a0000000000000000000000000000000000000000000000000000000008152600401611eb29061369d565b60405180910390fd5b600073ffffffffffffffffffffffffffffffffffffffff168473ffffffffffffffffffffffffffffffffffffffff1614611f35576000600860008673ffffffffffffffffffffffffffffffffffffffff1673ffffffffffffffffffffffffffffffffffffffff168152602001908152602001600020819055505b50505050565b50505050565b611f4b838361227c565b611f586000848484611f9c565b611f97576040517f08c379a0000000000000000000000000000000000000000000000000000000008152600401611f8e90613602565b60405180910390fd5b505050565b6000611fbd8473ffffffffffffffffffffffffffffffffffffffff16612499565b15612116578373ffffffffffffffffffffffffffffffffffffffff1663150b7a02611fe6611351565b8786866040518563ffffffff1660e01b81526004016120089493929190613712565b6020604051808303816000875af192505050801561204457506040513d601f19601f820116820180604052508101906120419190613773565b60015b6120c6573d8060008114612074576040519150601f19603f3d011682016040523d82523d6000602084013e612079565b606091505b5060008151036120be576040517f08c379a00000000000000000000000000000000000000000000000000000000081526004016120b590613602565b60405180910390fd5b805181602001fd5b63150b7a0260e01b7bffffffffffffffffffffffffffffffffffffffffffffffffffffffff1916817bffffffffffffffffffffffffffffffffffffffffffffffffffffffff19161491505061211b565b600190505b949350505050565b600080600090507a184f03e93ff9f4daa797ed6e38ed64bf6a1f0100000000000000008310612181577a184f03e93ff9f4daa797ed6e38ed64bf6a1f010000000000000000838161217757612176613622565b5b0492506040810190505b6d04ee2d6d415b85acef810000000083106121be576d04ee2d6d415b85acef810000000083816121b4576121b3613622565b5b0492506020810190505b662386f26fc1000083106121ed57662386f26fc1000083816121e3576121e2613622565b5b0492506010810190505b6305f5e1008310612216576305f5e100838161220c5761220b613622565b5b0492506008810190505b612710831061223b57612710838161223157612230613622565b5b0492506004810190505b6064831061225e576064838161225457612253613622565b5b0492506002810190505b600a831061226d576001810190505b80915050919050565b50505050565b600073ffffffffffffffffffffffffffffffffffffffff168273ffffffffffffffffffffffffffffffffffffffff16036122eb576040517f08c379a00000000000000000000000000000000000000000000000000000000081526004016122e2906137ec565b60405180910390fd5b6122f48161181e565b15612334576040517f08c379a000000000000000000000000000000000000000000000000000000000815260040161232b90613858565b60405180910390fd5b612342600083836001611e09565b61234b8161181e565b1561238b576040517f08c379a000000000000000000000000000000000000000000000000000000000815260040161238290613858565b60405180910390fd5b6001600360008473ffffffffffffffffffffffffffffffffffffffff1673ffffffffffffffffffffffffffffffffffffffff16815260200190815260200160002060008282540192505081905550816002600083815260200190815260200160002060006101000a81548173ffffffffffffffffffffffffffffffffffffffff021916908373ffffffffffffffffffffffffffffffffffffffff160217905550808273ffffffffffffffffffffffffffffffffffffffff16600073ffffffffffffffffffffffffffffffffffffffff167fddf252ad1be2c89b69c2b068fc378daa952ba7f163c4a11628f55a4df523b3ef60405160405180910390a4612495600083836001611f3b565b5050565b6000808273ffffffffffffffffffffffffffffffffffffffff163b119050919050565b6000604051905090565b600080fd5b600080fd5b60007fffffffff0000000000000000000000000000000000000000000000000000000082169050919050565b612505816124d0565b811461251057600080fd5b50565b600081359050612522816124fc565b92915050565b60006020828403121561253e5761253d6124c6565b5b600061254c84828501612513565b91505092915050565b60008115159050919050565b61256a81612555565b82525050565b60006020820190506125856000830184612561565b92915050565b600073ffffffffffffffffffffffffffffffffffffffff82169050919050565b60006125b68261258b565b9050919050565b6125c6816125ab565b81146125d157600080fd5b50565b6000813590506125e3816125bd565b92915050565b6000602082840312156125ff576125fe6124c6565b5b600061260d848285016125d4565b91505092915050565b600081519050919050565b600082825260208201905092915050565b60005b83811015612650578082015181840152602081019050612635565b60008484015250505050565b6000601f19601f8301169050919050565b600061267882612616565b6126828185612621565b9350612692818560208601612632565b61269b8161265c565b840191505092915050565b600060208201905081810360008301526126c0818461266d565b905092915050565b6000819050919050565b6126db816126c8565b81146126e657600080fd5b50565b6000813590506126f8816126d2565b92915050565b600060208284031215612714576127136124c6565b5b6000612722848285016126e9565b91505092915050565b612734816125ab565b82525050565b600060208201905061274f600083018461272b565b92915050565b6000806040838503121561276c5761276b6124c6565b5b600061277a858286016125d4565b925050602061278b858286016126e9565b9150509250929050565b6000806000606084860312156127ae576127ad6124c6565b5b60006127bc868287016125d4565b93505060206127cd868287016125d4565b92505060406127de868287016126e9565b9150509250925092565b600080604083850312156127ff576127fe6124c6565b5b600061280d858286016126e9565b925050602061281e858286016126e9565b9150509250929050565b612831816126c8565b82525050565b600060208201905061284c6000830184612828565b92915050565b61285b81612555565b811461286657600080fd5b50565b60008135905061287881612852565b92915050565b60008060408385031215612895576128946124c6565b5b60006128a3858286016125d4565b92505060206128b485828601612869565b9150509250929050565b600080fd5b600080fd5b7f4e487b7100000000000000000000000000000000000000000000000000000000600052604160045260246000fd5b6129008261265c565b810181811067ffffffffffffffff8211171561291f5761291e6128c8565b5b80604052505050565b60006129326124bc565b905061293e82826128f7565b919050565b600067ffffffffffffffff82111561295e5761295d6128c8565b5b6129678261265c565b9050602081019050919050565b82818337600083830152505050565b600061299661299184612943565b612928565b9050828152602081018484840111156129b2576129b16128c3565b5b6129bd848285612974565b509392505050565b600082601f8301126129da576129d96128be565b5b81356129ea848260208601612983565b91505092915050565b60008060008060808587031215612a0d57612a0c6124c6565b5b6000612a1b878288016125d4565b9450506020612a2c878288016125d4565b9350506040612a3d878288016126e9565b925050606085013567ffffffffffffffff811115612a5e57612a5d6124cb565b5b612a6a878288016129c5565b91505092959194509250565b60008060408385031215612a8d57612a8c6124c6565b5b6000612a9b858286016125d4565b9250506020612aac858286016125d4565b9150509250929050565b7f4e487b7100000000000000000000000000000000000000000000000000000000600052602260045260246000fd5b60006002820490506001821680612afd57607f821691505b602082108103612b1057612b0f612ab6565b5b50919050565b7f4552433732313a20617070726f76616c20746f2063757272656e74206f776e6560008201527f7200000000000000000000000000000000000000000000000000000000000000602082015250565b6000612b72602183612621565b9150612b7d82612b16565b604082019050919050565b60006020820190508181036000830152612ba181612b65565b9050919050565b7f4552433732313a20617070726f76652063616c6c6572206973206e6f7420746f60008201527f6b656e206f776e6572206f7220617070726f76656420666f7220616c6c000000602082015250565b6000612c04603d83612621565b9150612c0f82612ba8565b604082019050919050565b60006020820190508181036000830152612c3381612bf7565b9050919050565b7f4552433732313a2063616c6c6572206973206e6f7420746f6b656e206f776e6560008201527f72206f7220617070726f76656400000000000000000000000000000000000000602082015250565b6000612c96602d83612621565b9150612ca182612c3a565b604082019050919050565b60006020820190508181036000830152612cc581612c89565b9050919050565b7f546f6b656e20646f6573206e6f74206578697374000000000000000000000000600082015250565b6000612d02601483612621565b9150612d0d82612ccc565b602082019050919050565b60006020820190508181036000830152612d3181612cf5565b9050919050565b7f546f6b656e20616c726561647920657870697265640000000000000000000000600082015250565b6000612d6e601583612621565b9150612d7982612d38565b602082019050919050565b60006020820190508181036000830152612d9d81612d61565b9050919050565b7f4e487b7100000000000000000000000000000000000000000000000000000000600052601160045260246000fd5b6000612dde826126c8565b9150612de9836126c8565b9250828203905081811115612e0157612e00612da4565b5b92915050565b7f43616e6e6f74206d696e7420746f207a65726f20616464726573730000000000600082015250565b6000612e3d601b83612621565b9150612e4882612e07565b602082019050919050565b60006020820190508181036000830152612e6c81612e30565b9050919050565b7f45787069726174696f6e206d75737420626520696e207468652066757475726560008201527f2e00000000000000000000000000000000000000000000000000000000000000602082015250565b6000612ecf602183612621565b9150612eda82612e73565b604082019050919050565b60006020820190508181036000830152612efe81612ec2565b9050919050565b7f5573657220616c726561647920686173206120746f6b656e0000000000000000600082015250565b6000612f3b601883612621565b9150612f4682612f05565b602082019050919050565b60006020820190508181036000830152612f6a81612f2e565b9050919050565b6000604082019050612f866000830185612828565b612f936020830184612828565b9392505050565b7f4164646974696f6e616c2074696d65206d75737420626520677265617465722060008201527f7468616e207a65726f0000000000000000000000000000000000000000000000602082015250565b6000612ff6602983612621565b915061300182612f9a565b604082019050919050565b6000602082019050818103600083015261302581612fe9565b9050919050565b6000613037826126c8565b9150613042836126c8565b925082820190508082111561305a57613059612da4565b5b92915050565b7f596f7520646f206e6f74206f776e206120746f6b656e00000000000000000000600082015250565b6000613096601683612621565b91506130a182613060565b602082019050919050565b600060208201905081810360008301526130c581613089565b9050919050565b7f4552433732313a20696e76616c696420746f6b656e2049440000000000000000600082015250565b6000613102601883612621565b915061310d826130cc565b602082019050919050565b60006020820190508181036000830152613131816130f5565b9050919050565b7f4552433732313a2061646472657373207a65726f206973206e6f74206120766160008201527f6c6964206f776e65720000000000000000000000000000000000000000000000602082015250565b6000613194602983612621565b915061319f82613138565b604082019050919050565b600060208201905081810360008301526131c381613187565b9050919050565b600081905092915050565b60006131e082612616565b6131ea81856131ca565b93506131fa818560208601612632565b80840191505092915050565b600061321282856131d5565b915061321e82846131d5565b91508190509392505050565b7f496e76616c696420616464726573730000000000000000000000000000000000600082015250565b6000613260600f83612621565b915061326b8261322a565b602082019050919050565b6000602082019050818103600083015261328f81613253565b9050919050565b7f4f776e657220646f6573206e6f742068617665206120746f6b656e0000000000600082015250565b60006132cc601b83612621565b91506132d782613296565b602082019050919050565b600060208201905081810360008301526132fb816132bf565b9050919050565b7f4f776e61626c653a206e6577206f776e657220697320746865207a65726f206160008201527f6464726573730000000000000000000000000000000000000000000000000000602082015250565b600061335e602683612621565b915061336982613302565b604082019050919050565b6000602082019050818103600083015261338d81613351565b9050919050565b7f4552433732313a207472616e736665722066726f6d20696e636f72726563742060008201527f6f776e6572000000000000000000000000000000000000000000000000000000602082015250565b60006133f0602583612621565b91506133fb82613394565b604082019050919050565b6000602082019050818103600083015261341f816133e3565b9050919050565b7f4552433732313a207472616e7366657220746f20746865207a65726f2061646460008201527f7265737300000000000000000000000000000000000000000000000000000000602082015250565b6000613482602483612621565b915061348d82613426565b604082019050919050565b600060208201905081810360008301526134b181613475565b9050919050565b7f4f776e61626c653a2063616c6c6572206973206e6f7420746865206f776e6572600082015250565b60006134ee602083612621565b91506134f9826134b8565b602082019050919050565b6000602082019050818103600083015261351d816134e1565b9050919050565b7f4552433732313a20617070726f766520746f2063616c6c657200000000000000600082015250565b600061355a601983612621565b915061356582613524565b602082019050919050565b600060208201905081810360008301526135898161354d565b9050919050565b7f4552433732313a207472616e7366657220746f206e6f6e20455243373231526560008201527f63656976657220696d706c656d656e7465720000000000000000000000000000602082015250565b60006135ec603283612621565b91506135f782613590565b604082019050919050565b6000602082019050818103600083015261361b816135df565b9050919050565b7f4e487b7100000000000000000000000000000000000000000000000000000000600052601260045260246000fd5b7f5472616e7366657273206172652064697361626c656400000000000000000000600082015250565b6000613687601683612621565b915061369282613651565b602082019050919050565b600060208201905081810360008301526136b68161367a565b9050919050565b600081519050919050565b600082825260208201905092915050565b60006136e4826136bd565b6136ee81856136c8565b93506136fe818560208601612632565b6137078161265c565b840191505092915050565b6000608082019050613727600083018761272b565b613734602083018661272b565b6137416040830185612828565b818103606083015261375381846136d9565b905095945050505050565b60008151905061376d816124fc565b92915050565b600060208284031215613789576137886124c6565b5b60006137978482850161375e565b91505092915050565b7f4552433732313a206d696e7420746f20746865207a65726f2061646472657373600082015250565b60006137d6602083612621565b91506137e1826137a0565b602082019050919050565b60006020820190508181036000830152613805816137c9565b9050919050565b7f4552433732313a20746f6b656e20616c7265616479206d696e74656400000000600082015250565b6000613842601c83612621565b915061384d8261380c565b602082019050919050565b6000602082019050818103600083015261387181613835565b905091905056fea264697066735822122040308e7ae4d1e0d82294ca3b4a65060b7d91137035ea95d76cb1cfec0a44e7cc64736f6c634300081b0033",
  "linkReferences": {},
  "deployedLinkReferences": {}
}