{
  "_format": "hh-sol-artifact-1",
  "contractName": "Littercoin",
  "sourceName": "contracts/Littercoin.sol",
  "abi": [
    {
      "inputs": [
        {
          "internalType": "address",
          "name": "_priceFeed",
          "type": "address"
        }
      ],
      "stateMutability": "nonpayable",
      "type": "constructor"
    },
    {
      "inputs": [],
      "name": "InvalidShortString",
      "type": "error"
    },
    {
      "inputs": [
        {
          "internalType": "string",
          "name": "str",
          "type": "string"
        }
      ],
      "name": "StringTooLong",
      "type": "error"
    },
    {
      "anonymous": false,
      "inputs": [
        {
          "indexed": true,
          "internalType": "address",
          "name": "owner",
          "type": "address"
        },
        {
          "indexed": true,
          "internalType": "address",
          "name": "approved",
          "type": "address"
        },
        {
          "indexed": true,
          "internalType": "uint256",
          "name": "tokenId",
          "type": "uint256"
        }
      ],
      "name": "Approval",
      "type": "event"
    },
    {
      "anonymous": false,
      "inputs": [
        {
          "indexed": true,
          "internalType": "address",
          "name": "owner",
          "type": "address"
        },
        {
          "indexed": true,
          "internalType": "address",
          "name": "operator",
          "type": "address"
        },
        {
          "indexed": false,
          "internalType": "bool",
          "name": "approved",
          "type": "bool"
        }
      ],
      "name": "ApprovalForAll",
      "type": "event"
    },
    {
      "anonymous": false,
      "inputs": [
        {
          "indexed": true,
          "internalType": "address",
          "name": "user",
          "type": "address"
        },
        {
          "indexed": false,
          "internalType": "uint256",
          "name": "tokensToBurn",
          "type": "uint256"
        },
        {
          "indexed": false,
          "internalType": "uint256",
          "name": "ethAmount",
          "type": "uint256"
        }
      ],
      "name": "BurnLittercoin",
      "type": "event"
    },
    {
      "anonymous": false,
      "inputs": [],
      "name": "EIP712DomainChanged",
      "type": "event"
    },
    {
      "anonymous": false,
      "inputs": [
        {
          "indexed": true,
          "internalType": "address",
          "name": "user",
          "type": "address"
        },
        {
          "indexed": false,
          "internalType": "uint256",
          "name": "amount",
          "type": "uint256"
        }
      ],
      "name": "Mint",
      "type": "event"
    },
    {
      "anonymous": false,
      "inputs": [
        {
          "indexed": true,
          "internalType": "address",
          "name": "previousOwner",
          "type": "address"
        },
        {
          "indexed": true,
          "internalType": "address",
          "name": "newOwner",
          "type": "address"
        }
      ],
      "name": "OwnershipTransferred",
      "type": "event"
    },
    {
      "anonymous": false,
      "inputs": [
        {
          "indexed": false,
          "internalType": "address",
          "name": "account",
          "type": "address"
        }
      ],
      "name": "Paused",
      "type": "event"
    },
    {
      "anonymous": false,
      "inputs": [
        {
          "indexed": true,
          "internalType": "address",
          "name": "user",
          "type": "address"
        },
        {
          "indexed": false,
          "internalType": "uint256",
          "name": "rewardAmount",
          "type": "uint256"
        }
      ],
      "name": "Reward",
      "type": "event"
    },
    {
      "anonymous": false,
      "inputs": [
        {
          "indexed": true,
          "internalType": "address",
          "name": "from",
          "type": "address"
        },
        {
          "indexed": true,
          "internalType": "address",
          "name": "to",
          "type": "address"
        },
        {
          "indexed": true,
          "internalType": "uint256",
          "name": "tokenId",
          "type": "uint256"
        }
      ],
      "name": "Transfer",
      "type": "event"
    },
    {
      "anonymous": false,
      "inputs": [
        {
          "indexed": false,
          "internalType": "address",
          "name": "account",
          "type": "address"
        }
      ],
      "name": "Unpaused",
      "type": "event"
    },
    {
      "inputs": [],
      "name": "MAX_MINT_AMOUNT",
      "outputs": [
        {
          "internalType": "uint256",
          "name": "",
          "type": "uint256"
        }
      ],
      "stateMutability": "view",
      "type": "function"
    },
    {
      "inputs": [
        {
          "internalType": "address",
          "name": "to",
          "type": "address"
        },
        {
          "internalType": "uint256",
          "name": "tokenId",
          "type": "uint256"
        }
      ],
      "name": "approve",
      "outputs": [],
      "stateMutability": "nonpayable",
      "type": "function"
    },
    {
      "inputs": [
        {
          "internalType": "address",
          "name": "owner",
          "type": "address"
        }
      ],
      "name": "balanceOf",
      "outputs": [
        {
          "internalType": "uint256",
          "name": "",
          "type": "uint256"
        }
      ],
      "stateMutability": "view",
      "type": "function"
    },
    {
      "inputs": [
        {
          "internalType": "uint256[]",
          "name": "tokenIds",
          "type": "uint256[]"
        }
      ],
      "name": "burnLittercoin",
      "outputs": [],
      "stateMutability": "nonpayable",
      "type": "function"
    },
    {
      "inputs": [],
      "name": "eip712Domain",
      "outputs": [
        {
          "internalType": "bytes1",
          "name": "fields",
          "type": "bytes1"
        },
        {
          "internalType": "string",
          "name": "name",
          "type": "string"
        },
        {
          "internalType": "string",
          "name": "version",
          "type": "string"
        },
        {
          "internalType": "uint256",
          "name": "chainId",
          "type": "uint256"
        },
        {
          "internalType": "address",
          "name": "verifyingContract",
          "type": "address"
        },
        {
          "internalType": "bytes32",
          "name": "salt",
          "type": "bytes32"
        },
        {
          "internalType": "uint256[]",
          "name": "extensions",
          "type": "uint256[]"
        }
      ],
      "stateMutability": "view",
      "type": "function"
    },
    {
      "inputs": [
        {
          "internalType": "uint256",
          "name": "tokenId",
          "type": "uint256"
        }
      ],
      "name": "exists",
      "outputs": [
        {
          "internalType": "bool",
          "name": "",
          "type": "bool"
        }
      ],
      "stateMutability": "view",
      "type": "function"
    },
    {
      "inputs": [
        {
          "internalType": "uint256",
          "name": "tokenId",
          "type": "uint256"
        }
      ],
      "name": "getApproved",
      "outputs": [
        {
          "internalType": "address",
          "name": "",
          "type": "address"
        }
      ],
      "stateMutability": "view",
      "type": "function"
    },
    {
      "inputs": [],
      "name": "getCurrentTokenId",
      "outputs": [
        {
          "internalType": "uint256",
          "name": "",
          "type": "uint256"
        }
      ],
      "stateMutability": "view",
      "type": "function"
    },
    {
      "inputs": [],
      "name": "getMerchantTokenAddress",
      "outputs": [
        {
          "internalType": "address",
          "name": "",
          "type": "address"
        }
      ],
      "stateMutability": "view",
      "type": "function"
    },
    {
      "inputs": [],
      "name": "getRewardTokenAddress",
      "outputs": [
        {
          "internalType": "address",
          "name": "",
          "type": "address"
        }
      ],
      "stateMutability": "view",
      "type": "function"
    },
    {
      "inputs": [
        {
          "internalType": "address",
          "name": "owner",
          "type": "address"
        },
        {
          "internalType": "address",
          "name": "operator",
          "type": "address"
        }
      ],
      "name": "isApprovedForAll",
      "outputs": [
        {
          "internalType": "bool",
          "name": "",
          "type": "bool"
        }
      ],
      "stateMutability": "view",
      "type": "function"
    },
    {
      "inputs": [],
      "name": "merchantToken",
      "outputs": [
        {
          "internalType": "contract MerchantToken",
          "name": "",
          "type": "address"
        }
      ],
      "stateMutability": "view",
      "type": "function"
    },
    {
      "inputs": [
        {
          "internalType": "uint256",
          "name": "amount",
          "type": "uint256"
        },
        {
          "internalType": "uint256",
          "name": "nonce",
          "type": "uint256"
        },
        {
          "internalType": "uint256",
          "name": "expiry",
          "type": "uint256"
        },
        {
          "internalType": "bytes",
          "name": "signature",
          "type": "bytes"
        }
      ],
      "name": "mint",
      "outputs": [],
      "stateMutability": "nonpayable",
      "type": "function"
    },
    {
      "inputs": [],
      "name": "name",
      "outputs": [
        {
          "internalType": "string",
          "name": "",
          "type": "string"
        }
      ],
      "stateMutability": "view",
      "type": "function"
    },
    {
      "inputs": [],
      "name": "owner",
      "outputs": [
        {
          "internalType": "address",
          "name": "",
          "type": "address"
        }
      ],
      "stateMutability": "view",
      "type": "function"
    },
    {
      "inputs": [
        {
          "internalType": "uint256",
          "name": "tokenId",
          "type": "uint256"
        }
      ],
      "name": "ownerOf",
      "outputs": [
        {
          "internalType": "address",
          "name": "",
          "type": "address"
        }
      ],
      "stateMutability": "view",
      "type": "function"
    },
    {
      "inputs": [],
      "name": "pause",
      "outputs": [],
      "stateMutability": "nonpayable",
      "type": "function"
    },
    {
      "inputs": [],
      "name": "paused",
      "outputs": [
        {
          "internalType": "bool",
          "name": "",
          "type": "bool"
        }
      ],
      "stateMutability": "view",
      "type": "function"
    },
    {
      "inputs": [],
      "name": "renounceOwnership",
      "outputs": [],
      "stateMutability": "nonpayable",
      "type": "function"
    },
    {
      "inputs": [],
      "name": "rewardToken",
      "outputs": [
        {
          "internalType": "contract OLMRewardToken",
          "name": "",
          "type": "address"
        }
      ],
      "stateMutability": "view",
      "type": "function"
    },
    {
      "inputs": [
        {
          "internalType": "address",
          "name": "from",
          "type": "address"
        },
        {
          "internalType": "address",
          "name": "to",
          "type": "address"
        },
        {
          "internalType": "uint256",
          "name": "tokenId",
          "type": "uint256"
        }
      ],
      "name": "safeTransferFrom",
      "outputs": [],
      "stateMutability": "nonpayable",
      "type": "function"
    },
    {
      "inputs": [
        {
          "internalType": "address",
          "name": "from",
          "type": "address"
        },
        {
          "internalType": "address",
          "name": "to",
          "type": "address"
        },
        {
          "internalType": "uint256",
          "name": "tokenId",
          "type": "uint256"
        },
        {
          "internalType": "bytes",
          "name": "data",
          "type": "bytes"
        }
      ],
      "name": "safeTransferFrom",
      "outputs": [],
      "stateMutability": "nonpayable",
      "type": "function"
    },
    {
      "inputs": [
        {
          "internalType": "address",
          "name": "operator",
          "type": "address"
        },
        {
          "internalType": "bool",
          "name": "approved",
          "type": "bool"
        }
      ],
      "name": "setApprovalForAll",
      "outputs": [],
      "stateMutability": "nonpayable",
      "type": "function"
    },
    {
      "inputs": [
        {
          "internalType": "bytes4",
          "name": "interfaceId",
          "type": "bytes4"
        }
      ],
      "name": "supportsInterface",
      "outputs": [
        {
          "internalType": "bool",
          "name": "",
          "type": "bool"
        }
      ],
      "stateMutability": "view",
      "type": "function"
    },
    {
      "inputs": [],
      "name": "symbol",
      "outputs": [
        {
          "internalType": "string",
          "name": "",
          "type": "string"
        }
      ],
      "stateMutability": "view",
      "type": "function"
    },
    {
      "inputs": [
        {
          "internalType": "uint256",
          "name": "index",
          "type": "uint256"
        }
      ],
      "name": "tokenByIndex",
      "outputs": [
        {
          "internalType": "uint256",
          "name": "",
          "type": "uint256"
        }
      ],
      "stateMutability": "view",
      "type": "function"
    },
    {
      "inputs": [
        {
          "internalType": "address",
          "name": "owner",
          "type": "address"
        },
        {
          "internalType": "uint256",
          "name": "index",
          "type": "uint256"
        }
      ],
      "name": "tokenOfOwnerByIndex",
      "outputs": [
        {
          "internalType": "uint256",
          "name": "",
          "type": "uint256"
        }
      ],
      "stateMutability": "view",
      "type": "function"
    },
    {
      "inputs": [
        {
          "internalType": "uint256",
          "name": "",
          "type": "uint256"
        }
      ],
      "name": "tokenTransferred",
      "outputs": [
        {
          "internalType": "bool",
          "name": "",
          "type": "bool"
        }
      ],
      "stateMutability": "view",
      "type": "function"
    },
    {
      "inputs": [
        {
          "internalType": "uint256",
          "name": "tokenId",
          "type": "uint256"
        }
      ],
      "name": "tokenURI",
      "outputs": [
        {
          "internalType": "string",
          "name": "",
          "type": "string"
        }
      ],
      "stateMutability": "view",
      "type": "function"
    },
    {
      "inputs": [],
      "name": "totalSupply",
      "outputs": [
        {
          "internalType": "uint256",
          "name": "",
          "type": "uint256"
        }
      ],
      "stateMutability": "view",
      "type": "function"
    },
    {
      "inputs": [
        {
          "internalType": "address",
          "name": "from",
          "type": "address"
        },
        {
          "internalType": "address",
          "name": "to",
          "type": "address"
        },
        {
          "internalType": "uint256",
          "name": "tokenId",
          "type": "uint256"
        }
      ],
      "name": "transferFrom",
      "outputs": [],
      "stateMutability": "nonpayable",
      "type": "function"
    },
    {
      "inputs": [
        {
          "internalType": "address",
          "name": "newOwner",
          "type": "address"
        }
      ],
      "name": "transferOwnership",
      "outputs": [],
      "stateMutability": "nonpayable",
      "type": "function"
    },
    {
      "inputs": [],
      "name": "unpause",
      "outputs": [],
      "stateMutability": "nonpayable",
      "type": "function"
    },
    {
      "inputs": [
        {
          "internalType": "uint256",
          "name": "",
          "type": "uint256"
        }
      ],
      "name": "usedNonces",
      "outputs": [
        {
          "internalType": "bool",
          "name": "",
          "type": "bool"
        }
      ],
      "stateMutability": "view",
      "type": "function"
    },
    {
      "stateMutability": "payable",
      "type": "receive"
    }
  ],
  "bytecode": "0x61016060405234801561001157600080fd5b5060405161ca4e38038061ca4e833981810160405281019061003391906106b1565b6040518060400160405280600a81526020017f4c6974746572636f696e000000000000000000000000000000000000000000008152506040518060400160405280600181526020017f31000000000000000000000000000000000000000000000000000000000000008152506040518060400160405280600a81526020017f4c6974746572636f696e000000000000000000000000000000000000000000008152506040518060400160405280600781526020017f4c49545445525800000000000000000000000000000000000000000000000000815250816000908161011a919061092e565b50806001908161012a919061092e565b50505061014961013e61044960201b60201c565b61045160201b60201c565b6001600b819055506000600c60006101000a81548160ff021916908315150217905550610180600d8361051760201b90919060201c565b610120818152505061019c600e8261051760201b90919060201c565b6101408181525050818051906020012060e08181525050808051906020012061010081815250504660a081815250506101d961056760201b60201c565b608081815250503073ffffffffffffffffffffffffffffffffffffffff1660c08173ffffffffffffffffffffffffffffffffffffffff1681525050505060405161022290610634565b604051809103906000f08015801561023e573d6000803e3d6000fd5b50601260006101000a81548173ffffffffffffffffffffffffffffffffffffffff021916908373ffffffffffffffffffffffffffffffffffffffff160217905550601260009054906101000a900473ffffffffffffffffffffffffffffffffffffffff1673ffffffffffffffffffffffffffffffffffffffff1663f2fde38b306040518263ffffffff1660e01b81526004016102da9190610a0f565b600060405180830381600087803b1580156102f457600080fd5b505af1158015610308573d6000803e3d6000fd5b5050505060405161031890610641565b604051809103906000f080158015610334573d6000803e3d6000fd5b50601360006101000a81548173ffffffffffffffffffffffffffffffffffffffff021916908373ffffffffffffffffffffffffffffffffffffffff160217905550601360009054906101000a900473ffffffffffffffffffffffffffffffffffffffff1673ffffffffffffffffffffffffffffffffffffffff1663f2fde38b336040518263ffffffff1660e01b81526004016103d09190610a0f565b600060405180830381600087803b1580156103ea57600080fd5b505af11580156103fe573d6000803e3d6000fd5b5050505080601460006101000a81548173ffffffffffffffffffffffffffffffffffffffff021916908373ffffffffffffffffffffffffffffffffffffffff16021790555050610be3565b600033905090565b6000600a60009054906101000a900473ffffffffffffffffffffffffffffffffffffffff16905081600a60006101000a81548173ffffffffffffffffffffffffffffffffffffffff021916908373ffffffffffffffffffffffffffffffffffffffff1602179055508173ffffffffffffffffffffffffffffffffffffffff168173ffffffffffffffffffffffffffffffffffffffff167f8be0079c531659141344cd1fd0a4f28419497f9722a3daafe3b4186f6b6457e060405160405180910390a35050565b600060208351101561053957610532836105c260201b60201c565b9050610561565b826105498361062a60201b60201c565b6000019081610558919061092e565b5060ff60001b90505b92915050565b60007f8b73c3c69bb8fe3d512ecc4cf759cc79239f7b179b0ffacaa9a75d522b39400f60e0516101005146306040516020016105a7959493929190610a52565b60405160208183030381529060405280519060200120905090565b600080829050601f8151111561060f57826040517f305a27a90000000000000000000000000000000000000000000000000000000081526004016106069190610b2a565b60405180910390fd5b80518161061b90610b7c565b60001c1760001b915050919050565b6000819050919050565b611c9f80616d1883390190565b614097806189b783390190565b600080fd5b600073ffffffffffffffffffffffffffffffffffffffff82169050919050565b600061067e82610653565b9050919050565b61068e81610673565b811461069957600080fd5b50565b6000815190506106ab81610685565b92915050565b6000602082840312156106c7576106c661064e565b5b60006106d58482850161069c565b91505092915050565b600081519050919050565b7f4e487b7100000000000000000000000000000000000000000000000000000000600052604160045260246000fd5b7f4e487b7100000000000000000000000000000000000000000000000000000000600052602260045260246000fd5b6000600282049050600182168061075f57607f821691505b60208210810361077257610771610718565b5b50919050565b60008190508160005260206000209050919050565b60006020601f8301049050919050565b600082821b905092915050565b6000600883026107da7fffffffffffffffffffffffffffffffffffffffffffffffffffffffffffffffff8261079d565b6107e4868361079d565b95508019841693508086168417925050509392505050565b6000819050919050565b6000819050919050565b600061082b610826610821846107fc565b610806565b6107fc565b9050919050565b6000819050919050565b61084583610810565b61085961085182610832565b8484546107aa565b825550505050565b600090565b61086e610861565b61087981848461083c565b505050565b5b8181101561089d57610892600082610866565b60018101905061087f565b5050565b601f8211156108e2576108b381610778565b6108bc8461078d565b810160208510156108cb578190505b6108df6108d78561078d565b83018261087e565b50505b505050565b600082821c905092915050565b6000610905600019846008026108e7565b1980831691505092915050565b600061091e83836108f4565b9150826002028217905092915050565b610937826106de565b67ffffffffffffffff8111156109505761094f6106e9565b5b61095a8254610747565b6109658282856108a1565b600060209050601f8311600181146109985760008415610986578287015190505b6109908582610912565b8655506109f8565b601f1984166109a686610778565b60005b828110156109ce578489015182556001820191506020850194506020810190506109a9565b868310156109eb57848901516109e7601f8916826108f4565b8355505b6001600288020188555050505b505050505050565b610a0981610673565b82525050565b6000602082019050610a246000830184610a00565b92915050565b6000819050919050565b610a3d81610a2a565b82525050565b610a4c816107fc565b82525050565b600060a082019050610a676000830188610a34565b610a746020830187610a34565b610a816040830186610a34565b610a8e6060830185610a43565b610a9b6080830184610a00565b9695505050505050565b600082825260208201905092915050565b60005b83811015610ad4578082015181840152602081019050610ab9565b60008484015250505050565b6000601f19601f8301169050919050565b6000610afc826106de565b610b068185610aa5565b9350610b16818560208601610ab6565b610b1f81610ae0565b840191505092915050565b60006020820190508181036000830152610b448184610af1565b905092915050565b600081519050919050565b6000819050602082019050919050565b6000610b738251610a2a565b80915050919050565b6000610b8782610b4c565b82610b9184610b57565b9050610b9c81610b67565b92506020821015610bdc57610bd77fffffffffffffffffffffffffffffffffffffffffffffffffffffffffffffffff8360200360080261079d565b831692505b5050919050565b60805160a05160c05160e0516101005161012051610140516160db610c3d60003960006117900152600061175c01526000613dae01526000613d8d015260006135f60152600061364c0152600061367501526160db6000f3fe6080604052600436106101fd5760003560e01c806370a082311161010d57806399e117a0116100a0578063e985e9c51161006f578063e985e9c514610a61578063ee876a6c14610a9e578063f2fde38b14610adb578063f7c618c114610b04578063fa9b701814610b2f5761051f565b806399e117a0146109a7578063a22cb465146109d2578063b88d4fde146109fb578063c87b56dd14610a245761051f565b806384b0196e116100dc57806384b0196e146108f55780638c1a1f77146109265780638da5cb5b1461095157806395d89b411461097c5761051f565b806370a082311461085f578063715018a61461089c578063744c0f93146108b35780638456cb59146108de5761051f565b80633f4ba83a116101905780634f6ccce71161015f5780634f6ccce714610752578063561892361461078f5780635c975abb146107ba5780636352211e146107e55780636717e41c146108225761051f565b80633f4ba83a146106ac57806342842e0e146106c35780634a9eee69146106ec5780634f558e79146107155761051f565b806318160ddd116101cc57806318160ddd146105f25780631edf9acd1461061d57806323b872dd146106465780632f745c591461066f5761051f565b806301ffc9a71461052457806306fdde0314610561578063081812fc1461058c578063095ea7b3146105c95761051f565b3661051f5761020a610b5a565b610212610ba9565b15610252576040517f08c379a000000000000000000000000000000000000000000000000000000000815260040161024990613e5b565b60405180910390fd5b60003490506000601460009054906101000a900473ffffffffffffffffffffffffffffffffffffffff1673ffffffffffffffffffffffffffffffffffffffff1663feaf968c6040518163ffffffff1660e01b815260040160a060405180830381865afa1580156102c6573d6000803e3d6000fd5b505050506040513d601f19601f820116820180604052508101906102ea9190613f3d565b50505091505060008113610333576040517f08c379a000000000000000000000000000000000000000000000000000000000815260040161032a90614004565b60405180910390fd5b6008601460009054906101000a900473ffffffffffffffffffffffffffffffffffffffff1673ffffffffffffffffffffffffffffffffffffffff1663313ce5676040518163ffffffff1660e01b8152600401602060405180830381865afa1580156103a2573d6000803e3d6000fd5b505050506040513d601f19601f820116820180604052508101906103c6919061405d565b60ff1614610409576040517f08c379a0000000000000000000000000000000000000000000000000000000008152600401610400906140d6565b60405180910390fd5b600081905060006a52b7d2dcc80cd2e400000082856104289190614125565b6104329190614196565b9050601260009054906101000a900473ffffffffffffffffffffffffffffffffffffffff1673ffffffffffffffffffffffffffffffffffffffff166340c10f1933836040518363ffffffff1660e01b8152600401610491929190614217565b600060405180830381600087803b1580156104ab57600080fd5b505af11580156104bf573d6000803e3d6000fd5b505050503373ffffffffffffffffffffffffffffffffffffffff167f619caafabdd75649b302ba8419e48cccf64f37f1983ac4727cfb38b57703ffc9826040516105099190614240565b60405180910390a25050505061051d610bc0565b005b600080fd5b34801561053057600080fd5b5061054b600480360381019061054691906142b3565b610bca565b60405161055891906142fb565b60405180910390f35b34801561056d57600080fd5b50610576610bdc565b6040516105839190614395565b60405180910390f35b34801561059857600080fd5b506105b360048036038101906105ae91906143cc565b610c6e565b6040516105c091906143f9565b60405180910390f35b3480156105d557600080fd5b506105f060048036038101906105eb9190614440565b610cb4565b005b3480156105fe57600080fd5b50610607610dcb565b6040516106149190614240565b60405180910390f35b34801561062957600080fd5b50610644600480360381019061063f91906144e5565b610dd8565b005b34801561065257600080fd5b5061066d60048036038101906106689190614532565b611184565b005b34801561067b57600080fd5b5061069660048036038101906106919190614440565b6111e4565b6040516106a39190614240565b60405180910390f35b3480156106b857600080fd5b506106c1611289565b005b3480156106cf57600080fd5b506106ea60048036038101906106e59190614532565b61129b565b005b3480156106f857600080fd5b50610713600480360381019061070e91906146b5565b6112bb565b005b34801561072157600080fd5b5061073c600480360381019061073791906143cc565b611508565b60405161074991906142fb565b60405180910390f35b34801561075e57600080fd5b50610779600480360381019061077491906143cc565b61151a565b6040516107869190614240565b60405180910390f35b34801561079b57600080fd5b506107a461158b565b6040516107b19190614240565b60405180910390f35b3480156107c657600080fd5b506107cf610ba9565b6040516107dc91906142fb565b60405180910390f35b3480156107f157600080fd5b5061080c600480360381019061080791906143cc565b61159c565b60405161081991906143f9565b60405180910390f35b34801561082e57600080fd5b50610849600480360381019061084491906143cc565b611622565b60405161085691906142fb565b60405180910390f35b34801561086b57600080fd5b5061088660048036038101906108819190614738565b611642565b6040516108939190614240565b60405180910390f35b3480156108a857600080fd5b506108b16116f9565b005b3480156108bf57600080fd5b506108c861170d565b6040516108d591906143f9565b60405180910390f35b3480156108ea57600080fd5b506108f3611737565b005b34801561090157600080fd5b5061090a611749565b60405161091d9796959493929190614877565b60405180910390f35b34801561093257600080fd5b5061093b61184b565b604051610948919061495a565b60405180910390f35b34801561095d57600080fd5b50610966611871565b60405161097391906143f9565b60405180910390f35b34801561098857600080fd5b5061099161189b565b60405161099e9190614395565b60405180910390f35b3480156109b357600080fd5b506109bc61192d565b6040516109c991906143f9565b60405180910390f35b3480156109de57600080fd5b506109f960048036038101906109f491906149a1565b611957565b005b348015610a0757600080fd5b50610a226004803603810190610a1d91906149e1565b61196d565b005b348015610a3057600080fd5b50610a4b6004803603810190610a4691906143cc565b6119cf565b604051610a589190614395565b60405180910390f35b348015610a6d57600080fd5b50610a886004803603810190610a839190614a64565b611a37565b604051610a9591906142fb565b60405180910390f35b348015610aaa57600080fd5b50610ac56004803603810190610ac091906143cc565b611acb565b604051610ad291906142fb565b60405180910390f35b348015610ae757600080fd5b50610b026004803603810190610afd9190614738565b611aeb565b005b348015610b1057600080fd5b50610b19611b6e565b604051610b269190614ac5565b60405180910390f35b348015610b3b57600080fd5b50610b44611b94565b604051610b519190614240565b60405180910390f35b6002600b5403610b9f576040517f08c379a0000000000000000000000000000000000000000000000000000000008152600401610b9690614b2c565b60405180910390fd5b6002600b81905550565b6000600c60009054906101000a900460ff16905090565b6001600b81905550565b6000610bd582611b99565b9050919050565b606060008054610beb90614b7b565b80601f0160208091040260200160405190810160405280929190818152602001828054610c1790614b7b565b8015610c645780601f10610c3957610100808354040283529160200191610c64565b820191906000526020600020905b815481529060010190602001808311610c4757829003601f168201915b5050505050905090565b6000610c7982611c13565b6004600083815260200190815260200160002060009054906101000a900473ffffffffffffffffffffffffffffffffffffffff169050919050565b6000610cbf8261159c565b90508073ffffffffffffffffffffffffffffffffffffffff168373ffffffffffffffffffffffffffffffffffffffff1603610d2f576040517f08c379a0000000000000000000000000000000000000000000000000000000008152600401610d2690614c1e565b60405180910390fd5b8073ffffffffffffffffffffffffffffffffffffffff16610d4e611c5e565b73ffffffffffffffffffffffffffffffffffffffff161480610d7d5750610d7c81610d77611c5e565b611a37565b5b610dbc576040517f08c379a0000000000000000000000000000000000000000000000000000000008152600401610db390614cb0565b60405180910390fd5b610dc68383611c66565b505050565b6000600880549050905090565b610de0610b5a565b610de8611d1f565b601360009054906101000a900473ffffffffffffffffffffffffffffffffffffffff1673ffffffffffffffffffffffffffffffffffffffff166302556a29336040518263ffffffff1660e01b8152600401610e4391906143f9565b602060405180830381865afa158015610e60573d6000803e3d6000fd5b505050506040513d601f19601f82011682018060405250810190610e849190614ce5565b610ec3576040517f08c379a0000000000000000000000000000000000000000000000000000000008152600401610eba90614d84565b60405180910390fd5b600082829050905060008111610f0e576040517f08c379a0000000000000000000000000000000000000000000000000000000008152600401610f0590614df0565b60405180910390fd5b6000610f18610dcb565b905060008111610f5d576040517f08c379a0000000000000000000000000000000000000000000000000000000008152600401610f5490614e5c565b60405180910390fd5b600047905060008111610fa5576040517f08c379a0000000000000000000000000000000000000000000000000000000008152600401610f9c90614ec8565b60405180910390fd5b60005b8381101561105b576000868683818110610fc557610fc4614ee8565b5b9050602002013590503373ffffffffffffffffffffffffffffffffffffffff16610fee8261159c565b73ffffffffffffffffffffffffffffffffffffffff1614611044576040517f08c379a000000000000000000000000000000000000000000000000000000000815260040161103b90614f89565b60405180910390fd5b61104d81611d69565b508080600101915050610fa8565b50600082848361106b9190614125565b6110759190614196565b905060003373ffffffffffffffffffffffffffffffffffffffff168260405161109d90614fda565b60006040518083038185875af1925050503d80600081146110da576040519150601f19603f3d011682016040523d82523d6000602084013e6110df565b606091505b5050905080611123576040517f08c379a000000000000000000000000000000000000000000000000000000000815260040161111a9061503b565b60405180910390fd5b3373ffffffffffffffffffffffffffffffffffffffff167f62c43c4ca6239525d02ec5d50013da458e2aabd6147394ddd139edae8d84439b868460405161116b92919061505b565b60405180910390a25050505050611180610bc0565b5050565b61119561118f611c5e565b82611eb7565b6111d4576040517f08c379a00000000000000000000000000000000000000000000000000000000081526004016111cb906150f6565b60405180910390fd5b6111df838383611f4c565b505050565b60006111ef83611642565b8210611230576040517f08c379a000000000000000000000000000000000000000000000000000000000815260040161122790615188565b60405180910390fd5b600660008473ffffffffffffffffffffffffffffffffffffffff1673ffffffffffffffffffffffffffffffffffffffff168152602001908152602001600020600083815260200190815260200160002054905092915050565b611291612245565b6112996122c3565b565b6112b68383836040518060200160405280600081525061196d565b505050565b6112c3611d1f565b6000841180156112d45750600a8411155b611313576040517f08c379a000000000000000000000000000000000000000000000000000000000815260040161130a9061521a565b60405180910390fd5b81421115611356576040517f08c379a000000000000000000000000000000000000000000000000000000000815260040161134d90615286565b60405180910390fd5b6010600084815260200190815260200160002060009054906101000a900460ff16156113b7576040517f08c379a00000000000000000000000000000000000000000000000000000000081526004016113ae906152f2565b60405180910390fd5b60016010600085815260200190815260200160002060006101000a81548160ff02191690831515021790555060006113f133868686612326565b905060006113ff8284612389565b9050611409611871565b73ffffffffffffffffffffffffffffffffffffffff168173ffffffffffffffffffffffffffffffffffffffff1614611476576040517f08c379a000000000000000000000000000000000000000000000000000000000815260040161146d9061535e565b60405180910390fd5b60005b868110156114b15761148b600f6123b0565b6000611497600f6123c6565b90506114a333826123d4565b508080600101915050611479565b503373ffffffffffffffffffffffffffffffffffffffff167f0f6798a560793a54c3bcfe86a93cde1e73087d944c0ea20544137d4121396885876040516114f89190614240565b60405180910390a2505050505050565b6000611513826123f2565b9050919050565b6000611524610dcb565b8210611565576040517f08c379a000000000000000000000000000000000000000000000000000000000815260040161155c906153f0565b60405180910390fd5b6008828154811061157957611578614ee8565b5b90600052602060002001549050919050565b6000611597600f6123c6565b905090565b6000806115a883612433565b9050600073ffffffffffffffffffffffffffffffffffffffff168173ffffffffffffffffffffffffffffffffffffffff1603611619576040517f08c379a00000000000000000000000000000000000000000000000000000000081526004016116109061545c565b60405180910390fd5b80915050919050565b60106020528060005260406000206000915054906101000a900460ff1681565b60008073ffffffffffffffffffffffffffffffffffffffff168273ffffffffffffffffffffffffffffffffffffffff16036116b2576040517f08c379a00000000000000000000000000000000000000000000000000000000081526004016116a9906154ee565b60405180910390fd5b600360008373ffffffffffffffffffffffffffffffffffffffff1673ffffffffffffffffffffffffffffffffffffffff168152602001908152602001600020549050919050565b611701612245565b61170b6000612470565b565b6000601360009054906101000a900473ffffffffffffffffffffffffffffffffffffffff16905090565b61173f612245565b611747612536565b565b600060608060008060006060611789600d7f000000000000000000000000000000000000000000000000000000000000000061259990919063ffffffff16565b6117bd600e7f000000000000000000000000000000000000000000000000000000000000000061259990919063ffffffff16565b46306000801b600067ffffffffffffffff8111156117de576117dd61458a565b5b60405190808252806020026020018201604052801561180c5781602001602082028036833780820191505090505b507f0f00000000000000000000000000000000000000000000000000000000000000959493929190965096509650965096509650965090919293949596565b601360009054906101000a900473ffffffffffffffffffffffffffffffffffffffff1681565b6000600a60009054906101000a900473ffffffffffffffffffffffffffffffffffffffff16905090565b6060600180546118aa90614b7b565b80601f01602080910402602001604051908101604052809291908181526020018280546118d690614b7b565b80156119235780601f106118f857610100808354040283529160200191611923565b820191906000526020600020905b81548152906001019060200180831161190657829003601f168201915b5050505050905090565b6000601260009054906101000a900473ffffffffffffffffffffffffffffffffffffffff16905090565b611969611962611c5e565b8383612649565b5050565b61197e611978611c5e565b83611eb7565b6119bd576040517f08c379a00000000000000000000000000000000000000000000000000000000081526004016119b4906150f6565b60405180910390fd5b6119c9848484846127b5565b50505050565b60606119da82611c13565b60006119e4612811565b90506000815111611a045760405180602001604052806000815250611a2f565b80611a0e84612828565b604051602001611a1f92919061554a565b6040516020818303038152906040525b915050919050565b6000600560008473ffffffffffffffffffffffffffffffffffffffff1673ffffffffffffffffffffffffffffffffffffffff16815260200190815260200160002060008373ffffffffffffffffffffffffffffffffffffffff1673ffffffffffffffffffffffffffffffffffffffff16815260200190815260200160002060009054906101000a900460ff16905092915050565b60116020528060005260406000206000915054906101000a900460ff1681565b611af3612245565b600073ffffffffffffffffffffffffffffffffffffffff168173ffffffffffffffffffffffffffffffffffffffff1603611b62576040517f08c379a0000000000000000000000000000000000000000000000000000000008152600401611b59906155e0565b60405180910390fd5b611b6b81612470565b50565b601260009054906101000a900473ffffffffffffffffffffffffffffffffffffffff1681565b600a81565b60007f780e9d63000000000000000000000000000000000000000000000000000000007bffffffffffffffffffffffffffffffffffffffffffffffffffffffff1916827bffffffffffffffffffffffffffffffffffffffffffffffffffffffff19161480611c0c5750611c0b826128f6565b5b9050919050565b611c1c816123f2565b611c5b576040517f08c379a0000000000000000000000000000000000000000000000000000000008152600401611c529061545c565b60405180910390fd5b50565b600033905090565b816004600083815260200190815260200160002060006101000a81548173ffffffffffffffffffffffffffffffffffffffff021916908373ffffffffffffffffffffffffffffffffffffffff160217905550808273ffffffffffffffffffffffffffffffffffffffff16611cd98361159c565b73ffffffffffffffffffffffffffffffffffffffff167f8c5be1e5ebec7d5bd14f71427d1e84f3dd0314c0f7b2291e5b200ac8c7c3b92560405160405180910390a45050565b611d27610ba9565b15611d67576040517f08c379a0000000000000000000000000000000000000000000000000000000008152600401611d5e90613e5b565b60405180910390fd5b565b6000611d748261159c565b9050611d848160008460016129d8565b611d8d8261159c565b90506004600083815260200190815260200160002060006101000a81549073ffffffffffffffffffffffffffffffffffffffff02191690556001600360008373ffffffffffffffffffffffffffffffffffffffff1673ffffffffffffffffffffffffffffffffffffffff168152602001908152602001600020600082825403925050819055506002600083815260200190815260200160002060006101000a81549073ffffffffffffffffffffffffffffffffffffffff021916905581600073ffffffffffffffffffffffffffffffffffffffff168273ffffffffffffffffffffffffffffffffffffffff167fddf252ad1be2c89b69c2b068fc378daa952ba7f163c4a11628f55a4df523b3ef60405160405180910390a4611eb3816000846001612e61565b5050565b600080611ec38361159c565b90508073ffffffffffffffffffffffffffffffffffffffff168473ffffffffffffffffffffffffffffffffffffffff161480611f055750611f048185611a37565b5b80611f4357508373ffffffffffffffffffffffffffffffffffffffff16611f2b84610c6e565b73ffffffffffffffffffffffffffffffffffffffff16145b91505092915050565b8273ffffffffffffffffffffffffffffffffffffffff16611f6c8261159c565b73ffffffffffffffffffffffffffffffffffffffff1614611fc2576040517f08c379a0000000000000000000000000000000000000000000000000000000008152600401611fb990615672565b60405180910390fd5b600073ffffffffffffffffffffffffffffffffffffffff168273ffffffffffffffffffffffffffffffffffffffff1603612031576040517f08c379a000000000000000000000000000000000000000000000000000000000815260040161202890615704565b60405180910390fd5b61203e83838360016129d8565b8273ffffffffffffffffffffffffffffffffffffffff1661205e8261159c565b73ffffffffffffffffffffffffffffffffffffffff16146120b4576040517f08c379a00000000000000000000000000000000000000000000000000000000081526004016120ab90615672565b60405180910390fd5b6004600082815260200190815260200160002060006101000a81549073ffffffffffffffffffffffffffffffffffffffff02191690556001600360008573ffffffffffffffffffffffffffffffffffffffff1673ffffffffffffffffffffffffffffffffffffffff168152602001908152602001600020600082825403925050819055506001600360008473ffffffffffffffffffffffffffffffffffffffff1673ffffffffffffffffffffffffffffffffffffffff16815260200190815260200160002060008282540192505081905550816002600083815260200190815260200160002060006101000a81548173ffffffffffffffffffffffffffffffffffffffff021916908373ffffffffffffffffffffffffffffffffffffffff160217905550808273ffffffffffffffffffffffffffffffffffffffff168473ffffffffffffffffffffffffffffffffffffffff167fddf252ad1be2c89b69c2b068fc378daa952ba7f163c4a11628f55a4df523b3ef60405160405180910390a46122408383836001612e61565b505050565b61224d611c5e565b73ffffffffffffffffffffffffffffffffffffffff1661226b611871565b73ffffffffffffffffffffffffffffffffffffffff16146122c1576040517f08c379a00000000000000000000000000000000000000000000000000000000081526004016122b890615770565b60405180910390fd5b565b6122cb612e67565b6000600c60006101000a81548160ff0219169083151502179055507f5db9ee0a495bf2e6ff9c91a7834c1ba4fdd244a5e8aa4e537bd38aeae4b073aa61230f611c5e565b60405161231c91906143f9565b60405180910390a1565b600061237f7f03f7573be9d8d6deb7485602bb9f74900abea290cc280a6102b605c39dd9fbe086868686604051602001612364959493929190615790565b60405160208183030381529060405280519060200120612eb0565b9050949350505050565b60008060006123988585612eca565b915091506123a581612f1b565b819250505092915050565b6001816000016000828254019250508190555050565b600081600001549050919050565b6123ee828260405180602001604052806000815250613081565b5050565b60008073ffffffffffffffffffffffffffffffffffffffff1661241483612433565b73ffffffffffffffffffffffffffffffffffffffff1614159050919050565b60006002600083815260200190815260200160002060009054906101000a900473ffffffffffffffffffffffffffffffffffffffff169050919050565b6000600a60009054906101000a900473ffffffffffffffffffffffffffffffffffffffff16905081600a60006101000a81548173ffffffffffffffffffffffffffffffffffffffff021916908373ffffffffffffffffffffffffffffffffffffffff1602179055508173ffffffffffffffffffffffffffffffffffffffff168173ffffffffffffffffffffffffffffffffffffffff167f8be0079c531659141344cd1fd0a4f28419497f9722a3daafe3b4186f6b6457e060405160405180910390a35050565b61253e611d1f565b6001600c60006101000a81548160ff0219169083151502179055507f62e78cea01bee320cd4e420270b5ea74000d11b0c9f74754ebdbfc544b05a258612582611c5e565b60405161258f91906143f9565b60405180910390a1565b606060ff60001b83146125b6576125af836130dc565b9050612643565b8180546125c290614b7b565b80601f01602080910402602001604051908101604052809291908181526020018280546125ee90614b7b565b801561263b5780601f106126105761010080835404028352916020019161263b565b820191906000526020600020905b81548152906001019060200180831161261e57829003601f168201915b505050505090505b92915050565b8173ffffffffffffffffffffffffffffffffffffffff168373ffffffffffffffffffffffffffffffffffffffff16036126b7576040517f08c379a00000000000000000000000000000000000000000000000000000000081526004016126ae9061582f565b60405180910390fd5b80600560008573ffffffffffffffffffffffffffffffffffffffff1673ffffffffffffffffffffffffffffffffffffffff16815260200190815260200160002060008473ffffffffffffffffffffffffffffffffffffffff1673ffffffffffffffffffffffffffffffffffffffff16815260200190815260200160002060006101000a81548160ff0219169083151502179055508173ffffffffffffffffffffffffffffffffffffffff168373ffffffffffffffffffffffffffffffffffffffff167f17307eab39ab6107e8899845ad3d59bd9653f200f220920489ca2b5937696c31836040516127a891906142fb565b60405180910390a3505050565b6127c0848484611f4c565b6127cc84848484613150565b61280b576040517f08c379a0000000000000000000000000000000000000000000000000000000008152600401612802906158c1565b60405180910390fd5b50505050565b606060405180602001604052806000815250905090565b606060006001612837846132d7565b01905060008167ffffffffffffffff8111156128565761285561458a565b5b6040519080825280601f01601f1916602001820160405280156128885781602001600182028036833780820191505090505b509050600082602001820190505b6001156128eb578080600190039150507f3031323334353637383961626364656600000000000000000000000000000000600a86061a8153600a85816128df576128de614167565b5b04945060008503612896575b819350505050919050565b60007f80ac58cd000000000000000000000000000000000000000000000000000000007bffffffffffffffffffffffffffffffffffffffffffffffffffffffff1916827bffffffffffffffffffffffffffffffffffffffffffffffffffffffff191614806129c157507f5b5e139f000000000000000000000000000000000000000000000000000000007bffffffffffffffffffffffffffffffffffffffffffffffffffffffff1916827bffffffffffffffffffffffffffffffffffffffffffffffffffffffff1916145b806129d157506129d08261342a565b5b9050919050565b6129e0611d1f565b6129ec84848484613494565b600073ffffffffffffffffffffffffffffffffffffffff168473ffffffffffffffffffffffffffffffffffffffff1603612b0157601360009054906101000a900473ffffffffffffffffffffffffffffffffffffffff1673ffffffffffffffffffffffffffffffffffffffff166302556a29846040518263ffffffff1660e01b8152600401612a7b91906143f9565b602060405180830381865afa158015612a98573d6000803e3d6000fd5b505050506040513d601f19601f82011682018060405250810190612abc9190614ce5565b15612afc576040517f08c379a0000000000000000000000000000000000000000000000000000000008152600401612af39061592d565b60405180910390fd5b612e5b565b600073ffffffffffffffffffffffffffffffffffffffff168373ffffffffffffffffffffffffffffffffffffffff1603612c1557601360009054906101000a900473ffffffffffffffffffffffffffffffffffffffff1673ffffffffffffffffffffffffffffffffffffffff166302556a29856040518263ffffffff1660e01b8152600401612b9091906143f9565b602060405180830381865afa158015612bad573d6000803e3d6000fd5b505050506040513d601f19601f82011682018060405250810190612bd19190614ce5565b612c10576040517f08c379a0000000000000000000000000000000000000000000000000000000008152600401612c0790615999565b60405180910390fd5b612e5a565b6011600083815260200190815260200160002060009054906101000a900460ff1615612c76576040517f08c379a0000000000000000000000000000000000000000000000000000000008152600401612c6d90615a2b565b60405180910390fd5b601360009054906101000a900473ffffffffffffffffffffffffffffffffffffffff1673ffffffffffffffffffffffffffffffffffffffff166302556a29856040518263ffffffff1660e01b8152600401612cd191906143f9565b602060405180830381865afa158015612cee573d6000803e3d6000fd5b505050506040513d601f19601f82011682018060405250810190612d129190614ce5565b15612d52576040517f08c379a0000000000000000000000000000000000000000000000000000000008152600401612d4990615a97565b60405180910390fd5b601360009054906101000a900473ffffffffffffffffffffffffffffffffffffffff1673ffffffffffffffffffffffffffffffffffffffff166302556a29846040518263ffffffff1660e01b8152600401612dad91906143f9565b602060405180830381865afa158015612dca573d6000803e3d6000fd5b505050506040513d601f19601f82011682018060405250810190612dee9190614ce5565b612e2d576040517f08c379a0000000000000000000000000000000000000000000000000000000008152600401612e2490615b29565b60405180910390fd5b60016011600084815260200190815260200160002060006101000a81548160ff0219169083151502179055505b5b50505050565b50505050565b612e6f610ba9565b612eae576040517f08c379a0000000000000000000000000000000000000000000000000000000008152600401612ea590615b95565b60405180910390fd5b565b6000612ec3612ebd6135f2565b836136a9565b9050919050565b6000806041835103612f0b5760008060006020860151925060408601519150606086015160001a9050612eff878285856136ea565b94509450505050612f14565b60006002915091505b9250929050565b60006004811115612f2f57612f2e615bb5565b5b816004811115612f4257612f41615bb5565b5b031561307e5760016004811115612f5c57612f5b615bb5565b5b816004811115612f6f57612f6e615bb5565b5b03612faf576040517f08c379a0000000000000000000000000000000000000000000000000000000008152600401612fa690615c30565b60405180910390fd5b60026004811115612fc357612fc2615bb5565b5b816004811115612fd657612fd5615bb5565b5b03613016576040517f08c379a000000000000000000000000000000000000000000000000000000000815260040161300d90615c9c565b60405180910390fd5b6003600481111561302a57613029615bb5565b5b81600481111561303d5761303c615bb5565b5b0361307d576040517f08c379a000000000000000000000000000000000000000000000000000000000815260040161307490615d2e565b60405180910390fd5b5b50565b61308b83836137cc565b6130986000848484613150565b6130d7576040517f08c379a00000000000000000000000000000000000000000000000000000000081526004016130ce906158c1565b60405180910390fd5b505050565b606060006130e9836139e9565b90506000602067ffffffffffffffff8111156131085761310761458a565b5b6040519080825280601f01601f19166020018201604052801561313a5781602001600182028036833780820191505090505b5090508181528360208201528092505050919050565b60006131718473ffffffffffffffffffffffffffffffffffffffff16613a39565b156132ca578373ffffffffffffffffffffffffffffffffffffffff1663150b7a0261319a611c5e565b8786866040518563ffffffff1660e01b81526004016131bc9493929190615da3565b6020604051808303816000875af19250505080156131f857506040513d601f19601f820116820180604052508101906131f59190615e04565b60015b61327a573d8060008114613228576040519150601f19603f3d011682016040523d82523d6000602084013e61322d565b606091505b506000815103613272576040517f08c379a0000000000000000000000000000000000000000000000000000000008152600401613269906158c1565b60405180910390fd5b805181602001fd5b63150b7a0260e01b7bffffffffffffffffffffffffffffffffffffffffffffffffffffffff1916817bffffffffffffffffffffffffffffffffffffffffffffffffffffffff1916149150506132cf565b600190505b949350505050565b600080600090507a184f03e93ff9f4daa797ed6e38ed64bf6a1f0100000000000000008310613335577a184f03e93ff9f4daa797ed6e38ed64bf6a1f010000000000000000838161332b5761332a614167565b5b0492506040810190505b6d04ee2d6d415b85acef81000000008310613372576d04ee2d6d415b85acef8100000000838161336857613367614167565b5b0492506020810190505b662386f26fc1000083106133a157662386f26fc10000838161339757613396614167565b5b0492506010810190505b6305f5e10083106133ca576305f5e10083816133c0576133bf614167565b5b0492506008810190505b61271083106133ef5761271083816133e5576133e4614167565b5b0492506004810190505b60648310613412576064838161340857613407614167565b5b0492506002810190505b600a8310613421576001810190505b80915050919050565b60007f01ffc9a7000000000000000000000000000000000000000000000000000000007bffffffffffffffffffffffffffffffffffffffffffffffffffffffff1916827bffffffffffffffffffffffffffffffffffffffffffffffffffffffff1916149050919050565b6134a084848484613a5c565b60018111156134e4576040517f08c379a00000000000000000000000000000000000000000000000000000000081526004016134db90615ea3565b60405180910390fd5b6000829050600073ffffffffffffffffffffffffffffffffffffffff168573ffffffffffffffffffffffffffffffffffffffff160361352b5761352681613a62565b61356a565b8373ffffffffffffffffffffffffffffffffffffffff168573ffffffffffffffffffffffffffffffffffffffff1614613569576135688582613aab565b5b5b600073ffffffffffffffffffffffffffffffffffffffff168473ffffffffffffffffffffffffffffffffffffffff16036135ac576135a781613c18565b6135eb565b8473ffffffffffffffffffffffffffffffffffffffff168473ffffffffffffffffffffffffffffffffffffffff16146135ea576135e98482613ce9565b5b5b5050505050565b60007f000000000000000000000000000000000000000000000000000000000000000073ffffffffffffffffffffffffffffffffffffffff163073ffffffffffffffffffffffffffffffffffffffff1614801561366e57507f000000000000000000000000000000000000000000000000000000000000000046145b1561369b577f000000000000000000000000000000000000000000000000000000000000000090506136a6565b6136a3613d68565b90505b90565b60006040517f190100000000000000000000000000000000000000000000000000000000000081528360028201528260228201526042812091505092915050565b6000807f7fffffffffffffffffffffffffffffff5d576e7357a4501ddfe92f46681b20a08360001c11156137255760006003915091506137c3565b60006001878787876040516000815260200160405260405161374a9493929190615ed2565b6020604051602081039080840390855afa15801561376c573d6000803e3d6000fd5b505050602060405103519050600073ffffffffffffffffffffffffffffffffffffffff168173ffffffffffffffffffffffffffffffffffffffff16036137ba576000600192509250506137c3565b80600092509250505b94509492505050565b600073ffffffffffffffffffffffffffffffffffffffff168273ffffffffffffffffffffffffffffffffffffffff160361383b576040517f08c379a000000000000000000000000000000000000000000000000000000000815260040161383290615f63565b60405180910390fd5b613844816123f2565b15613884576040517f08c379a000000000000000000000000000000000000000000000000000000000815260040161387b90615fcf565b60405180910390fd5b6138926000838360016129d8565b61389b816123f2565b156138db576040517f08c379a00000000000000000000000000000000000000000000000000000000081526004016138d290615fcf565b60405180910390fd5b6001600360008473ffffffffffffffffffffffffffffffffffffffff1673ffffffffffffffffffffffffffffffffffffffff16815260200190815260200160002060008282540192505081905550816002600083815260200190815260200160002060006101000a81548173ffffffffffffffffffffffffffffffffffffffff021916908373ffffffffffffffffffffffffffffffffffffffff160217905550808273ffffffffffffffffffffffffffffffffffffffff16600073ffffffffffffffffffffffffffffffffffffffff167fddf252ad1be2c89b69c2b068fc378daa952ba7f163c4a11628f55a4df523b3ef60405160405180910390a46139e5600083836001612e61565b5050565b60008060ff8360001c169050601f811115613a30576040517fb3512b0c00000000000000000000000000000000000000000000000000000000815260040160405180910390fd5b80915050919050565b6000808273ffffffffffffffffffffffffffffffffffffffff163b119050919050565b50505050565b6008805490506009600083815260200190815260200160002081905550600881908060018154018082558091505060019003906000526020600020016000909190919091505550565b60006001613ab884611642565b613ac29190615fef565b9050600060076000848152602001908152602001600020549050818114613ba7576000600660008673ffffffffffffffffffffffffffffffffffffffff1673ffffffffffffffffffffffffffffffffffffffff168152602001908152602001600020600084815260200190815260200160002054905080600660008773ffffffffffffffffffffffffffffffffffffffff1673ffffffffffffffffffffffffffffffffffffffff168152602001908152602001600020600084815260200190815260200160002081905550816007600083815260200190815260200160002081905550505b6007600084815260200190815260200160002060009055600660008573ffffffffffffffffffffffffffffffffffffffff1673ffffffffffffffffffffffffffffffffffffffff16815260200190815260200160002060008381526020019081526020016000206000905550505050565b60006001600880549050613c2c9190615fef565b9050600060096000848152602001908152602001600020549050600060088381548110613c5c57613c5b614ee8565b5b906000526020600020015490508060088381548110613c7e57613c7d614ee8565b5b906000526020600020018190555081600960008381526020019081526020016000208190555060096000858152602001908152602001600020600090556008805480613ccd57613ccc616023565b5b6001900381819060005260206000200160009055905550505050565b6000613cf483611642565b905081600660008573ffffffffffffffffffffffffffffffffffffffff1673ffffffffffffffffffffffffffffffffffffffff168152602001908152602001600020600083815260200190815260200160002081905550806007600084815260200190815260200160002081905550505050565b60007f8b73c3c69bb8fe3d512ecc4cf759cc79239f7b179b0ffacaa9a75d522b39400f7f00000000000000000000000000000000000000000000000000000000000000007f00000000000000000000000000000000000000000000000000000000000000004630604051602001613de3959493929190616052565b60405160208183030381529060405280519060200120905090565b600082825260208201905092915050565b7f5061757361626c653a2070617573656400000000000000000000000000000000600082015250565b6000613e45601083613dfe565b9150613e5082613e0f565b602082019050919050565b60006020820190508181036000830152613e7481613e38565b9050919050565b6000604051905090565b600080fd5b600080fd5b600069ffffffffffffffffffff82169050919050565b613eae81613e8f565b8114613eb957600080fd5b50565b600081519050613ecb81613ea5565b92915050565b6000819050919050565b613ee481613ed1565b8114613eef57600080fd5b50565b600081519050613f0181613edb565b92915050565b6000819050919050565b613f1a81613f07565b8114613f2557600080fd5b50565b600081519050613f3781613f11565b92915050565b600080600080600060a08688031215613f5957613f58613e85565b5b6000613f6788828901613ebc565b9550506020613f7888828901613ef2565b9450506040613f8988828901613f28565b9350506060613f9a88828901613f28565b9250506080613fab88828901613ebc565b9150509295509295909350565b7f496e76616c69642070726963652066726f6d20436861696e6c696e6b00000000600082015250565b6000613fee601c83613dfe565b9150613ff982613fb8565b602082019050919050565b6000602082019050818103600083015261401d81613fe1565b9050919050565b600060ff82169050919050565b61403a81614024565b811461404557600080fd5b50565b60008151905061405781614031565b92915050565b60006020828403121561407357614072613e85565b5b600061408184828501614048565b91505092915050565b7f556e6578706563746564207072696365206665656420646563696d616c730000600082015250565b60006140c0601e83613dfe565b91506140cb8261408a565b602082019050919050565b600060208201905081810360008301526140ef816140b3565b9050919050565b7f4e487b7100000000000000000000000000000000000000000000000000000000600052601160045260246000fd5b600061413082613f07565b915061413b83613f07565b925082820261414981613f07565b915082820484148315176141605761415f6140f6565b5b5092915050565b7f4e487b7100000000000000000000000000000000000000000000000000000000600052601260045260246000fd5b60006141a182613f07565b91506141ac83613f07565b9250826141bc576141bb614167565b5b828204905092915050565b600073ffffffffffffffffffffffffffffffffffffffff82169050919050565b60006141f2826141c7565b9050919050565b614202816141e7565b82525050565b61421181613f07565b82525050565b600060408201905061422c60008301856141f9565b6142396020830184614208565b9392505050565b60006020820190506142556000830184614208565b92915050565b60007fffffffff0000000000000000000000000000000000000000000000000000000082169050919050565b6142908161425b565b811461429b57600080fd5b50565b6000813590506142ad81614287565b92915050565b6000602082840312156142c9576142c8613e85565b5b60006142d78482850161429e565b91505092915050565b60008115159050919050565b6142f5816142e0565b82525050565b600060208201905061431060008301846142ec565b92915050565b600081519050919050565b60005b8381101561433f578082015181840152602081019050614324565b60008484015250505050565b6000601f19601f8301169050919050565b600061436782614316565b6143718185613dfe565b9350614381818560208601614321565b61438a8161434b565b840191505092915050565b600060208201905081810360008301526143af818461435c565b905092915050565b6000813590506143c681613f11565b92915050565b6000602082840312156143e2576143e1613e85565b5b60006143f0848285016143b7565b91505092915050565b600060208201905061440e60008301846141f9565b92915050565b61441d816141e7565b811461442857600080fd5b50565b60008135905061443a81614414565b92915050565b6000806040838503121561445757614456613e85565b5b60006144658582860161442b565b9250506020614476858286016143b7565b9150509250929050565b600080fd5b600080fd5b600080fd5b60008083601f8401126144a5576144a4614480565b5b8235905067ffffffffffffffff8111156144c2576144c1614485565b5b6020830191508360208202830111156144de576144dd61448a565b5b9250929050565b600080602083850312156144fc576144fb613e85565b5b600083013567ffffffffffffffff81111561451a57614519613e8a565b5b6145268582860161448f565b92509250509250929050565b60008060006060848603121561454b5761454a613e85565b5b60006145598682870161442b565b935050602061456a8682870161442b565b925050604061457b868287016143b7565b9150509250925092565b600080fd5b7f4e487b7100000000000000000000000000000000000000000000000000000000600052604160045260246000fd5b6145c28261434b565b810181811067ffffffffffffffff821117156145e1576145e061458a565b5b80604052505050565b60006145f4613e7b565b905061460082826145b9565b919050565b600067ffffffffffffffff8211156146205761461f61458a565b5b6146298261434b565b9050602081019050919050565b82818337600083830152505050565b600061465861465384614605565b6145ea565b90508281526020810184848401111561467457614673614585565b5b61467f848285614636565b509392505050565b600082601f83011261469c5761469b614480565b5b81356146ac848260208601614645565b91505092915050565b600080600080608085870312156146cf576146ce613e85565b5b60006146dd878288016143b7565b94505060206146ee878288016143b7565b93505060406146ff878288016143b7565b925050606085013567ffffffffffffffff8111156147205761471f613e8a565b5b61472c87828801614687565b91505092959194509250565b60006020828403121561474e5761474d613e85565b5b600061475c8482850161442b565b91505092915050565b60007fff0000000000000000000000000000000000000000000000000000000000000082169050919050565b61479a81614765565b82525050565b6000819050919050565b6147b3816147a0565b82525050565b600081519050919050565b600082825260208201905092915050565b6000819050602082019050919050565b6147ee81613f07565b82525050565b600061480083836147e5565b60208301905092915050565b6000602082019050919050565b6000614824826147b9565b61482e81856147c4565b9350614839836147d5565b8060005b8381101561486a57815161485188826147f4565b975061485c8361480c565b92505060018101905061483d565b5085935050505092915050565b600060e08201905061488c600083018a614791565b818103602083015261489e818961435c565b905081810360408301526148b2818861435c565b90506148c16060830187614208565b6148ce60808301866141f9565b6148db60a08301856147aa565b81810360c08301526148ed8184614819565b905098975050505050505050565b6000819050919050565b600061492061491b614916846141c7565b6148fb565b6141c7565b9050919050565b600061493282614905565b9050919050565b600061494482614927565b9050919050565b61495481614939565b82525050565b600060208201905061496f600083018461494b565b92915050565b61497e816142e0565b811461498957600080fd5b50565b60008135905061499b81614975565b92915050565b600080604083850312156149b8576149b7613e85565b5b60006149c68582860161442b565b92505060206149d78582860161498c565b9150509250929050565b600080600080608085870312156149fb576149fa613e85565b5b6000614a098782880161442b565b9450506020614a1a8782880161442b565b9350506040614a2b878288016143b7565b925050606085013567ffffffffffffffff811115614a4c57614a4b613e8a565b5b614a5887828801614687565b91505092959194509250565b60008060408385031215614a7b57614a7a613e85565b5b6000614a898582860161442b565b9250506020614a9a8582860161442b565b9150509250929050565b6000614aaf82614927565b9050919050565b614abf81614aa4565b82525050565b6000602082019050614ada6000830184614ab6565b92915050565b7f5265656e7472616e637947756172643a207265656e7472616e742063616c6c00600082015250565b6000614b16601f83613dfe565b9150614b2182614ae0565b602082019050919050565b60006020820190508181036000830152614b4581614b09565b9050919050565b7f4e487b7100000000000000000000000000000000000000000000000000000000600052602260045260246000fd5b60006002820490506001821680614b9357607f821691505b602082108103614ba657614ba5614b4c565b5b50919050565b7f4552433732313a20617070726f76616c20746f2063757272656e74206f776e6560008201527f7200000000000000000000000000000000000000000000000000000000000000602082015250565b6000614c08602183613dfe565b9150614c1382614bac565b604082019050919050565b60006020820190508181036000830152614c3781614bfb565b9050919050565b7f4552433732313a20617070726f76652063616c6c6572206973206e6f7420746f60008201527f6b656e206f776e6572206f7220617070726f76656420666f7220616c6c000000602082015250565b6000614c9a603d83613dfe565b9150614ca582614c3e565b604082019050919050565b60006020820190508181036000830152614cc981614c8d565b9050919050565b600081519050614cdf81614975565b92915050565b600060208284031215614cfb57614cfa613e85565b5b6000614d0984828501614cd0565b91505092915050565b7f4d75737420686f6c6420612076616c6964204d65726368616e7420546f6b656e60008201527f2e00000000000000000000000000000000000000000000000000000000000000602082015250565b6000614d6e602183613dfe565b9150614d7982614d12565b604082019050919050565b60006020820190508181036000830152614d9d81614d61565b9050919050565b7f4e6f20746f6b656e732070726f76696465642e00000000000000000000000000600082015250565b6000614dda601383613dfe565b9150614de582614da4565b602082019050919050565b60006020820190508181036000830152614e0981614dcd565b9050919050565b7f4e6f20746f6b656e7320696e2063697263756c6174696f6e2e00000000000000600082015250565b6000614e46601983613dfe565b9150614e5182614e10565b602082019050919050565b60006020820190508181036000830152614e7581614e39565b9050919050565b7f4e6f7420656e6f7567682045544820696e20636f6e74726163742e0000000000600082015250565b6000614eb2601b83613dfe565b9150614ebd82614e7c565b602082019050919050565b60006020820190508181036000830152614ee181614ea5565b9050919050565b7f4e487b7100000000000000000000000000000000000000000000000000000000600052603260045260246000fd5b7f43616c6c6572206d757374206f776e20616c6c20746f6b656e73206265696e6760008201527f2072656465656d65642e00000000000000000000000000000000000000000000602082015250565b6000614f73602a83613dfe565b9150614f7e82614f17565b604082019050919050565b60006020820190508181036000830152614fa281614f66565b9050919050565b600081905092915050565b50565b6000614fc4600083614fa9565b9150614fcf82614fb4565b600082019050919050565b6000614fe582614fb7565b9150819050919050565b7f5472616e73666572206661696c65640000000000000000000000000000000000600082015250565b6000615025600f83613dfe565b915061503082614fef565b602082019050919050565b6000602082019050818103600083015261505481615018565b9050919050565b60006040820190506150706000830185614208565b61507d6020830184614208565b9392505050565b7f4552433732313a2063616c6c6572206973206e6f7420746f6b656e206f776e6560008201527f72206f7220617070726f76656400000000000000000000000000000000000000602082015250565b60006150e0602d83613dfe565b91506150eb82615084565b604082019050919050565b6000602082019050818103600083015261510f816150d3565b9050919050565b7f455243373231456e756d657261626c653a206f776e657220696e646578206f7560008201527f74206f6620626f756e6473000000000000000000000000000000000000000000602082015250565b6000615172602b83613dfe565b915061517d82615116565b604082019050919050565b600060208201905081810360008301526151a181615165565b9050919050565b7f416d6f756e74206d7573742062652067726561746572207468616e207a65726f60008201527f20616e64206c657373207468616e203130000000000000000000000000000000602082015250565b6000615204603183613dfe565b915061520f826151a8565b604082019050919050565b60006020820190508181036000830152615233816151f7565b9050919050565b7f5369676e61747572652068617320657870697265640000000000000000000000600082015250565b6000615270601583613dfe565b915061527b8261523a565b602082019050919050565b6000602082019050818103600083015261529f81615263565b9050919050565b7f4e6f6e636520616c726561647920757365640000000000000000000000000000600082015250565b60006152dc601283613dfe565b91506152e7826152a6565b602082019050919050565b6000602082019050818103600083015261530b816152cf565b9050919050565b7f496e76616c6964207369676e6174757265000000000000000000000000000000600082015250565b6000615348601183613dfe565b915061535382615312565b602082019050919050565b600060208201905081810360008301526153778161533b565b9050919050565b7f455243373231456e756d657261626c653a20676c6f62616c20696e646578206f60008201527f7574206f6620626f756e64730000000000000000000000000000000000000000602082015250565b60006153da602c83613dfe565b91506153e58261537e565b604082019050919050565b60006020820190508181036000830152615409816153cd565b9050919050565b7f4552433732313a20696e76616c696420746f6b656e2049440000000000000000600082015250565b6000615446601883613dfe565b915061545182615410565b602082019050919050565b6000602082019050818103600083015261547581615439565b9050919050565b7f4552433732313a2061646472657373207a65726f206973206e6f74206120766160008201527f6c6964206f776e65720000000000000000000000000000000000000000000000602082015250565b60006154d8602983613dfe565b91506154e38261547c565b604082019050919050565b60006020820190508181036000830152615507816154cb565b9050919050565b600081905092915050565b600061552482614316565b61552e818561550e565b935061553e818560208601614321565b80840191505092915050565b60006155568285615519565b91506155628284615519565b91508190509392505050565b7f4f776e61626c653a206e6577206f776e657220697320746865207a65726f206160008201527f6464726573730000000000000000000000000000000000000000000000000000602082015250565b60006155ca602683613dfe565b91506155d58261556e565b604082019050919050565b600060208201905081810360008301526155f9816155bd565b9050919050565b7f4552433732313a207472616e736665722066726f6d20696e636f72726563742060008201527f6f776e6572000000000000000000000000000000000000000000000000000000602082015250565b600061565c602583613dfe565b915061566782615600565b604082019050919050565b6000602082019050818103600083015261568b8161564f565b9050919050565b7f4552433732313a207472616e7366657220746f20746865207a65726f2061646460008201527f7265737300000000000000000000000000000000000000000000000000000000602082015250565b60006156ee602483613dfe565b91506156f982615692565b604082019050919050565b6000602082019050818103600083015261571d816156e1565b9050919050565b7f4f776e61626c653a2063616c6c6572206973206e6f7420746865206f776e6572600082015250565b600061575a602083613dfe565b915061576582615724565b602082019050919050565b600060208201905081810360008301526157898161574d565b9050919050565b600060a0820190506157a560008301886147aa565b6157b260208301876141f9565b6157bf6040830186614208565b6157cc6060830185614208565b6157d96080830184614208565b9695505050505050565b7f4552433732313a20617070726f766520746f2063616c6c657200000000000000600082015250565b6000615819601983613dfe565b9150615824826157e3565b602082019050919050565b600060208201905081810360008301526158488161580c565b9050919050565b7f4552433732313a207472616e7366657220746f206e6f6e20455243373231526560008201527f63656976657220696d706c656d656e7465720000000000000000000000000000602082015250565b60006158ab603283613dfe565b91506158b68261584f565b604082019050919050565b600060208201905081810360008301526158da8161589e565b9050919050565b7f4d65726368616e74732063616e6e6f74206d696e74204c6974746572636f696e600082015250565b6000615917602083613dfe565b9150615922826158e1565b602082019050919050565b600060208201905081810360008301526159468161590a565b9050919050565b7f4f6e6c79206d65726368616e74732063616e206275726e20746f6b656e730000600082015250565b6000615983601e83613dfe565b915061598e8261594d565b602082019050919050565b600060208201905081810360008301526159b281615976565b9050919050565b7f546f6b656e2068617320616c7265616479206265656e207472616e736665727260008201527f6564000000000000000000000000000000000000000000000000000000000000602082015250565b6000615a15602283613dfe565b9150615a20826159b9565b604082019050919050565b60006020820190508181036000830152615a4481615a08565b9050919050565b7f4d65726368616e74732063616e6e6f74207472616e7366657220746f6b656e73600082015250565b6000615a81602083613dfe565b9150615a8c82615a4b565b602082019050919050565b60006020820190508181036000830152615ab081615a74565b9050919050565b7f526563697069656e74206d75737420626520612076616c6964206d657263686160008201527f6e74000000000000000000000000000000000000000000000000000000000000602082015250565b6000615b13602283613dfe565b9150615b1e82615ab7565b604082019050919050565b60006020820190508181036000830152615b4281615b06565b9050919050565b7f5061757361626c653a206e6f7420706175736564000000000000000000000000600082015250565b6000615b7f601483613dfe565b9150615b8a82615b49565b602082019050919050565b60006020820190508181036000830152615bae81615b72565b9050919050565b7f4e487b7100000000000000000000000000000000000000000000000000000000600052602160045260246000fd5b7f45434453413a20696e76616c6964207369676e61747572650000000000000000600082015250565b6000615c1a601883613dfe565b9150615c2582615be4565b602082019050919050565b60006020820190508181036000830152615c4981615c0d565b9050919050565b7f45434453413a20696e76616c6964207369676e6174757265206c656e67746800600082015250565b6000615c86601f83613dfe565b9150615c9182615c50565b602082019050919050565b60006020820190508181036000830152615cb581615c79565b9050919050565b7f45434453413a20696e76616c6964207369676e6174757265202773272076616c60008201527f7565000000000000000000000000000000000000000000000000000000000000602082015250565b6000615d18602283613dfe565b9150615d2382615cbc565b604082019050919050565b60006020820190508181036000830152615d4781615d0b565b9050919050565b600081519050919050565b600082825260208201905092915050565b6000615d7582615d4e565b615d7f8185615d59565b9350615d8f818560208601614321565b615d988161434b565b840191505092915050565b6000608082019050615db860008301876141f9565b615dc560208301866141f9565b615dd26040830185614208565b8181036060830152615de48184615d6a565b905095945050505050565b600081519050615dfe81614287565b92915050565b600060208284031215615e1a57615e19613e85565b5b6000615e2884828501615def565b91505092915050565b7f455243373231456e756d657261626c653a20636f6e736563757469766520747260008201527f616e7366657273206e6f7420737570706f727465640000000000000000000000602082015250565b6000615e8d603583613dfe565b9150615e9882615e31565b604082019050919050565b60006020820190508181036000830152615ebc81615e80565b9050919050565b615ecc81614024565b82525050565b6000608082019050615ee760008301876147aa565b615ef46020830186615ec3565b615f0160408301856147aa565b615f0e60608301846147aa565b95945050505050565b7f4552433732313a206d696e7420746f20746865207a65726f2061646472657373600082015250565b6000615f4d602083613dfe565b9150615f5882615f17565b602082019050919050565b60006020820190508181036000830152615f7c81615f40565b9050919050565b7f4552433732313a20746f6b656e20616c7265616479206d696e74656400000000600082015250565b6000615fb9601c83613dfe565b9150615fc482615f83565b602082019050919050565b60006020820190508181036000830152615fe881615fac565b9050919050565b6000615ffa82613f07565b915061600583613f07565b925082820390508181111561601d5761601c6140f6565b5b92915050565b7f4e487b7100000000000000000000000000000000000000000000000000000000600052603160045260246000fd5b600060a08201905061606760008301886147aa565b61607460208301876147aa565b61608160408301866147aa565b61608e6060830185614208565b61609b60808301846141f9565b969550505050505056fea26469706673582212201ef1d6e435d4f3e8d7c6d1a720ba141655bbf21a9a5e46fdb2f4eb06d6cf456464736f6c634300081b0033608060405234801561001057600080fd5b506040518060400160405280601081526020017f4f4c4d2052657761726420546f6b656e000000000000000000000000000000008152506040518060400160405280600581526020017f4f4c4d5254000000000000000000000000000000000000000000000000000000815250816003908161008c91906103de565b50806004908161009c91906103de565b5050506100bb6100b06100c060201b60201c565b6100c860201b60201c565b6104b0565b600033905090565b6000600560009054906101000a900473ffffffffffffffffffffffffffffffffffffffff16905081600560006101000a81548173ffffffffffffffffffffffffffffffffffffffff021916908373ffffffffffffffffffffffffffffffffffffffff1602179055508173ffffffffffffffffffffffffffffffffffffffff168173ffffffffffffffffffffffffffffffffffffffff167f8be0079c531659141344cd1fd0a4f28419497f9722a3daafe3b4186f6b6457e060405160405180910390a35050565b600081519050919050565b7f4e487b7100000000000000000000000000000000000000000000000000000000600052604160045260246000fd5b7f4e487b7100000000000000000000000000000000000000000000000000000000600052602260045260246000fd5b6000600282049050600182168061020f57607f821691505b602082108103610222576102216101c8565b5b50919050565b60008190508160005260206000209050919050565b60006020601f8301049050919050565b600082821b905092915050565b60006008830261028a7fffffffffffffffffffffffffffffffffffffffffffffffffffffffffffffffff8261024d565b610294868361024d565b95508019841693508086168417925050509392505050565b6000819050919050565b6000819050919050565b60006102db6102d66102d1846102ac565b6102b6565b6102ac565b9050919050565b6000819050919050565b6102f5836102c0565b610309610301826102e2565b84845461025a565b825550505050565b600090565b61031e610311565b6103298184846102ec565b505050565b5b8181101561034d57610342600082610316565b60018101905061032f565b5050565b601f8211156103925761036381610228565b61036c8461023d565b8101602085101561037b578190505b61038f6103878561023d565b83018261032e565b50505b505050565b600082821c905092915050565b60006103b560001984600802610397565b1980831691505092915050565b60006103ce83836103a4565b9150826002028217905092915050565b6103e78261018e565b67ffffffffffffffff811115610400576103ff610199565b5b61040a82546101f7565b610415828285610351565b600060209050601f8311600181146104485760008415610436578287015190505b61044085826103c2565b8655506104a8565b601f19841661045686610228565b60005b8281101561047e57848901518255600182019150602085019450602081019050610459565b8683101561049b5784890151610497601f8916826103a4565b8355505b6001600288020188555050505b505050505050565b6117e0806104bf6000396000f3fe608060405234801561001057600080fd5b50600436106100f55760003560e01c806370a0823111610097578063a457c2d711610066578063a457c2d714610276578063a9059cbb146102a6578063dd62ed3e146102d6578063f2fde38b14610306576100f5565b806370a0823114610200578063715018a6146102305780638da5cb5b1461023a57806395d89b4114610258576100f5565b806323b872dd116100d357806323b872dd14610166578063313ce5671461019657806339509351146101b457806340c10f19146101e4576100f5565b806306fdde03146100fa578063095ea7b31461011857806318160ddd14610148575b600080fd5b610102610322565b60405161010f9190610f29565b60405180910390f35b610132600480360381019061012d9190610fe4565b6103b4565b60405161013f919061103f565b60405180910390f35b6101506103d7565b60405161015d9190611069565b60405180910390f35b610180600480360381019061017b9190611084565b6103e1565b60405161018d919061103f565b60405180910390f35b61019e610410565b6040516101ab91906110f3565b60405180910390f35b6101ce60048036038101906101c99190610fe4565b610419565b6040516101db919061103f565b60405180910390f35b6101fe60048036038101906101f99190610fe4565b610450565b005b61021a6004803603810190610215919061110e565b610466565b6040516102279190611069565b60405180910390f35b6102386104ae565b005b6102426104c2565b60405161024f919061114a565b60405180910390f35b6102606104ec565b60405161026d9190610f29565b60405180910390f35b610290600480360381019061028b9190610fe4565b61057e565b60405161029d919061103f565b60405180910390f35b6102c060048036038101906102bb9190610fe4565b6105f5565b6040516102cd919061103f565b60405180910390f35b6102f060048036038101906102eb9190611165565b610618565b6040516102fd9190611069565b60405180910390f35b610320600480360381019061031b919061110e565b61069f565b005b606060038054610331906111d4565b80601f016020809104026020016040519081016040528092919081815260200182805461035d906111d4565b80156103aa5780601f1061037f576101008083540402835291602001916103aa565b820191906000526020600020905b81548152906001019060200180831161038d57829003601f168201915b5050505050905090565b6000806103bf610722565b90506103cc81858561072a565b600191505092915050565b6000600254905090565b6000806103ec610722565b90506103f98582856108f3565b61040485858561097f565b60019150509392505050565b60006012905090565b600080610424610722565b90506104458185856104368589610618565b6104409190611234565b61072a565b600191505092915050565b610458610bf5565b6104628282610c73565b5050565b60008060008373ffffffffffffffffffffffffffffffffffffffff1673ffffffffffffffffffffffffffffffffffffffff168152602001908152602001600020549050919050565b6104b6610bf5565b6104c06000610dc9565b565b6000600560009054906101000a900473ffffffffffffffffffffffffffffffffffffffff16905090565b6060600480546104fb906111d4565b80601f0160208091040260200160405190810160405280929190818152602001828054610527906111d4565b80156105745780601f1061054957610100808354040283529160200191610574565b820191906000526020600020905b81548152906001019060200180831161055757829003601f168201915b5050505050905090565b600080610589610722565b905060006105978286610618565b9050838110156105dc576040517f08c379a00000000000000000000000000000000000000000000000000000000081526004016105d3906112da565b60405180910390fd5b6105e9828686840361072a565b60019250505092915050565b600080610600610722565b905061060d81858561097f565b600191505092915050565b6000600160008473ffffffffffffffffffffffffffffffffffffffff1673ffffffffffffffffffffffffffffffffffffffff16815260200190815260200160002060008373ffffffffffffffffffffffffffffffffffffffff1673ffffffffffffffffffffffffffffffffffffffff16815260200190815260200160002054905092915050565b6106a7610bf5565b600073ffffffffffffffffffffffffffffffffffffffff168173ffffffffffffffffffffffffffffffffffffffff1603610716576040517f08c379a000000000000000000000000000000000000000000000000000000000815260040161070d9061136c565b60405180910390fd5b61071f81610dc9565b50565b600033905090565b600073ffffffffffffffffffffffffffffffffffffffff168373ffffffffffffffffffffffffffffffffffffffff1603610799576040517f08c379a0000000000000000000000000000000000000000000000000000000008152600401610790906113fe565b60405180910390fd5b600073ffffffffffffffffffffffffffffffffffffffff168273ffffffffffffffffffffffffffffffffffffffff1603610808576040517f08c379a00000000000000000000000000000000000000000000000000000000081526004016107ff90611490565b60405180910390fd5b80600160008573ffffffffffffffffffffffffffffffffffffffff1673ffffffffffffffffffffffffffffffffffffffff16815260200190815260200160002060008473ffffffffffffffffffffffffffffffffffffffff1673ffffffffffffffffffffffffffffffffffffffff168152602001908152602001600020819055508173ffffffffffffffffffffffffffffffffffffffff168373ffffffffffffffffffffffffffffffffffffffff167f8c5be1e5ebec7d5bd14f71427d1e84f3dd0314c0f7b2291e5b200ac8c7c3b925836040516108e69190611069565b60405180910390a3505050565b60006108ff8484610618565b90507fffffffffffffffffffffffffffffffffffffffffffffffffffffffffffffffff8114610979578181101561096b576040517f08c379a0000000000000000000000000000000000000000000000000000000008152600401610962906114fc565b60405180910390fd5b610978848484840361072a565b5b50505050565b600073ffffffffffffffffffffffffffffffffffffffff168373ffffffffffffffffffffffffffffffffffffffff16036109ee576040517f08c379a00000000000000000000000000000000000000000000000000000000081526004016109e59061158e565b60405180910390fd5b600073ffffffffffffffffffffffffffffffffffffffff168273ffffffffffffffffffffffffffffffffffffffff1603610a5d576040517f08c379a0000000000000000000000000000000000000000000000000000000008152600401610a5490611620565b60405180910390fd5b610a68838383610e8f565b60008060008573ffffffffffffffffffffffffffffffffffffffff1673ffffffffffffffffffffffffffffffffffffffff16815260200190815260200160002054905081811015610aee576040517f08c379a0000000000000000000000000000000000000000000000000000000008152600401610ae5906116b2565b60405180910390fd5b8181036000808673ffffffffffffffffffffffffffffffffffffffff1673ffffffffffffffffffffffffffffffffffffffff16815260200190815260200160002081905550816000808573ffffffffffffffffffffffffffffffffffffffff1673ffffffffffffffffffffffffffffffffffffffff168152602001908152602001600020600082825401925050819055508273ffffffffffffffffffffffffffffffffffffffff168473ffffffffffffffffffffffffffffffffffffffff167fddf252ad1be2c89b69c2b068fc378daa952ba7f163c4a11628f55a4df523b3ef84604051610bdc9190611069565b60405180910390a3610bef848484610e94565b50505050565b610bfd610722565b73ffffffffffffffffffffffffffffffffffffffff16610c1b6104c2565b73ffffffffffffffffffffffffffffffffffffffff1614610c71576040517f08c379a0000000000000000000000000000000000000000000000000000000008152600401610c689061171e565b60405180910390fd5b565b600073ffffffffffffffffffffffffffffffffffffffff168273ffffffffffffffffffffffffffffffffffffffff1603610ce2576040517f08c379a0000000000000000000000000000000000000000000000000000000008152600401610cd99061178a565b60405180910390fd5b610cee60008383610e8f565b8060026000828254610d009190611234565b92505081905550806000808473ffffffffffffffffffffffffffffffffffffffff1673ffffffffffffffffffffffffffffffffffffffff168152602001908152602001600020600082825401925050819055508173ffffffffffffffffffffffffffffffffffffffff16600073ffffffffffffffffffffffffffffffffffffffff167fddf252ad1be2c89b69c2b068fc378daa952ba7f163c4a11628f55a4df523b3ef83604051610db19190611069565b60405180910390a3610dc560008383610e94565b5050565b6000600560009054906101000a900473ffffffffffffffffffffffffffffffffffffffff16905081600560006101000a81548173ffffffffffffffffffffffffffffffffffffffff021916908373ffffffffffffffffffffffffffffffffffffffff1602179055508173ffffffffffffffffffffffffffffffffffffffff168173ffffffffffffffffffffffffffffffffffffffff167f8be0079c531659141344cd1fd0a4f28419497f9722a3daafe3b4186f6b6457e060405160405180910390a35050565b505050565b505050565b600081519050919050565b600082825260208201905092915050565b60005b83811015610ed3578082015181840152602081019050610eb8565b60008484015250505050565b6000601f19601f8301169050919050565b6000610efb82610e99565b610f058185610ea4565b9350610f15818560208601610eb5565b610f1e81610edf565b840191505092915050565b60006020820190508181036000830152610f438184610ef0565b905092915050565b600080fd5b600073ffffffffffffffffffffffffffffffffffffffff82169050919050565b6000610f7b82610f50565b9050919050565b610f8b81610f70565b8114610f9657600080fd5b50565b600081359050610fa881610f82565b92915050565b6000819050919050565b610fc181610fae565b8114610fcc57600080fd5b50565b600081359050610fde81610fb8565b92915050565b60008060408385031215610ffb57610ffa610f4b565b5b600061100985828601610f99565b925050602061101a85828601610fcf565b9150509250929050565b60008115159050919050565b61103981611024565b82525050565b60006020820190506110546000830184611030565b92915050565b61106381610fae565b82525050565b600060208201905061107e600083018461105a565b92915050565b60008060006060848603121561109d5761109c610f4b565b5b60006110ab86828701610f99565b93505060206110bc86828701610f99565b92505060406110cd86828701610fcf565b9150509250925092565b600060ff82169050919050565b6110ed816110d7565b82525050565b600060208201905061110860008301846110e4565b92915050565b60006020828403121561112457611123610f4b565b5b600061113284828501610f99565b91505092915050565b61114481610f70565b82525050565b600060208201905061115f600083018461113b565b92915050565b6000806040838503121561117c5761117b610f4b565b5b600061118a85828601610f99565b925050602061119b85828601610f99565b9150509250929050565b7f4e487b7100000000000000000000000000000000000000000000000000000000600052602260045260246000fd5b600060028204905060018216806111ec57607f821691505b6020821081036111ff576111fe6111a5565b5b50919050565b7f4e487b7100000000000000000000000000000000000000000000000000000000600052601160045260246000fd5b600061123f82610fae565b915061124a83610fae565b925082820190508082111561126257611261611205565b5b92915050565b7f45524332303a2064656372656173656420616c6c6f77616e63652062656c6f7760008201527f207a65726f000000000000000000000000000000000000000000000000000000602082015250565b60006112c4602583610ea4565b91506112cf82611268565b604082019050919050565b600060208201905081810360008301526112f3816112b7565b9050919050565b7f4f776e61626c653a206e6577206f776e657220697320746865207a65726f206160008201527f6464726573730000000000000000000000000000000000000000000000000000602082015250565b6000611356602683610ea4565b9150611361826112fa565b604082019050919050565b6000602082019050818103600083015261138581611349565b9050919050565b7f45524332303a20617070726f76652066726f6d20746865207a65726f2061646460008201527f7265737300000000000000000000000000000000000000000000000000000000602082015250565b60006113e8602483610ea4565b91506113f38261138c565b604082019050919050565b60006020820190508181036000830152611417816113db565b9050919050565b7f45524332303a20617070726f766520746f20746865207a65726f20616464726560008201527f7373000000000000000000000000000000000000000000000000000000000000602082015250565b600061147a602283610ea4565b91506114858261141e565b604082019050919050565b600060208201905081810360008301526114a98161146d565b9050919050565b7f45524332303a20696e73756666696369656e7420616c6c6f77616e6365000000600082015250565b60006114e6601d83610ea4565b91506114f1826114b0565b602082019050919050565b60006020820190508181036000830152611515816114d9565b9050919050565b7f45524332303a207472616e736665722066726f6d20746865207a65726f20616460008201527f6472657373000000000000000000000000000000000000000000000000000000602082015250565b6000611578602583610ea4565b91506115838261151c565b604082019050919050565b600060208201905081810360008301526115a78161156b565b9050919050565b7f45524332303a207472616e7366657220746f20746865207a65726f206164647260008201527f6573730000000000000000000000000000000000000000000000000000000000602082015250565b600061160a602383610ea4565b9150611615826115ae565b604082019050919050565b60006020820190508181036000830152611639816115fd565b9050919050565b7f45524332303a207472616e7366657220616d6f756e742065786365656473206260008201527f616c616e63650000000000000000000000000000000000000000000000000000602082015250565b600061169c602683610ea4565b91506116a782611640565b604082019050919050565b600060208201905081810360008301526116cb8161168f565b9050919050565b7f4f776e61626c653a2063616c6c6572206973206e6f7420746865206f776e6572600082015250565b6000611708602083610ea4565b9150611713826116d2565b602082019050919050565b60006020820190508181036000830152611737816116fb565b9050919050565b7f45524332303a206d696e7420746f20746865207a65726f206164647265737300600082015250565b6000611774601f83610ea4565b915061177f8261173e565b602082019050919050565b600060208201905081810360008301526117a381611767565b905091905056fea2646970667358221220af20ee9085baea6d3365493d9a9c372a7cee3e7ac2647d892ac51a03d58530b864736f6c634300081b0033608060405234801561001057600080fd5b506040518060400160405280601781526020017f4c6974746572636f696e4d65726368616e74546f6b656e0000000000000000008152506040518060400160405280600481526020017f4c584d5400000000000000000000000000000000000000000000000000000000815250816000908161008c91906103f9565b50806001908161009c91906103f9565b5050506100bb6100b06100db60201b60201c565b6100e360201b60201c565b6000600660146101000a81548160ff0219169083151502179055506104cb565b600033905090565b6000600660009054906101000a900473ffffffffffffffffffffffffffffffffffffffff16905081600660006101000a81548173ffffffffffffffffffffffffffffffffffffffff021916908373ffffffffffffffffffffffffffffffffffffffff1602179055508173ffffffffffffffffffffffffffffffffffffffff168173ffffffffffffffffffffffffffffffffffffffff167f8be0079c531659141344cd1fd0a4f28419497f9722a3daafe3b4186f6b6457e060405160405180910390a35050565b600081519050919050565b7f4e487b7100000000000000000000000000000000000000000000000000000000600052604160045260246000fd5b7f4e487b7100000000000000000000000000000000000000000000000000000000600052602260045260246000fd5b6000600282049050600182168061022a57607f821691505b60208210810361023d5761023c6101e3565b5b50919050565b60008190508160005260206000209050919050565b60006020601f8301049050919050565b600082821b905092915050565b6000600883026102a57fffffffffffffffffffffffffffffffffffffffffffffffffffffffffffffffff82610268565b6102af8683610268565b95508019841693508086168417925050509392505050565b6000819050919050565b6000819050919050565b60006102f66102f16102ec846102c7565b6102d1565b6102c7565b9050919050565b6000819050919050565b610310836102db565b61032461031c826102fd565b848454610275565b825550505050565b600090565b61033961032c565b610344818484610307565b505050565b5b818110156103685761035d600082610331565b60018101905061034a565b5050565b601f8211156103ad5761037e81610243565b61038784610258565b81016020851015610396578190505b6103aa6103a285610258565b830182610349565b50505b505050565b600082821c905092915050565b60006103d0600019846008026103b2565b1980831691505092915050565b60006103e983836103bf565b9150826002028217905092915050565b610402826101a9565b67ffffffffffffffff81111561041b5761041a6101b4565b5b6104258254610212565b61043082828561036c565b600060209050601f8311600181146104635760008415610451578287015190505b61045b85826103dd565b8655506104c3565b601f19841661047186610243565b60005b8281101561049957848901518255600182019150602085019450602081019050610474565b868310156104b657848901516104b2601f8916826103bf565b8355505b6001600288020188555050505b505050505050565b613bbd806104da6000396000f3fe608060405234801561001057600080fd5b50600436106101c45760003560e01c80636352211e116100f9578063b88d4fde11610097578063d9e5896e11610071578063d9e5896e146104b7578063e985e9c5146104e7578063ea55763314610517578063f2fde38b14610547576101c4565b8063b88d4fde1461043b578063c87b56dd14610457578063d9548e5314610487576101c4565b80638456cb59116100d35780638456cb59146103d95780638da5cb5b146103e357806395d89b4114610401578063a22cb4651461041f576101c4565b80636352211e1461036f57806370a082311461039f578063715018a6146103cf576101c4565b80633f4ba83a1161016657806342842e0e1161014057806342842e0e1461030d57806344df8e701461032957806356189236146103335780635c975abb14610351576101c4565b80633f4ba83a146102cb57806340c10f19146102d5578063425604d6146102f1576101c4565b8063081812fc116101a2578063081812fc14610247578063095ea7b31461027757806323b872dd14610293578063393ed91a146102af576101c4565b806301ffc9a7146101c957806302556a29146101f957806306fdde0314610229575b600080fd5b6101e360048036038101906101de919061275f565b610563565b6040516101f091906127a7565b60405180910390f35b610213600480360381019061020e9190612820565b610575565b60405161022091906127a7565b60405180910390f35b6102316105e8565b60405161023e91906128dd565b60405180910390f35b610261600480360381019061025c9190612935565b61067a565b60405161026e9190612971565b60405180910390f35b610291600480360381019061028c919061298c565b6106c0565b005b6102ad60048036038101906102a891906129cc565b6107d7565b005b6102c960048036038101906102c49190612935565b610837565b005b6102d3610937565b005b6102ef60048036038101906102ea919061298c565b610949565b005b61030b60048036038101906103069190612a1f565b610b28565b005b610327600480360381019061032291906129cc565b610c3d565b005b610331610c5d565b005b61033b610cf8565b6040516103489190612a6e565b60405180910390f35b610359610d09565b60405161036691906127a7565b60405180910390f35b61038960048036038101906103849190612935565b610d20565b6040516103969190612971565b60405180910390f35b6103b960048036038101906103b49190612820565b610da6565b6040516103c69190612a6e565b60405180910390f35b6103d7610e5d565b005b6103e1610e71565b005b6103eb610e83565b6040516103f89190612971565b60405180910390f35b610409610ead565b60405161041691906128dd565b60405180910390f35b61043960048036038101906104349190612ab5565b610f3f565b005b61045560048036038101906104509190612c2a565b610f55565b005b610471600480360381019061046c9190612935565b610fb7565b60405161047e91906128dd565b60405180910390f35b6104a1600480360381019061049c9190612935565b61101f565b6040516104ae91906127a7565b60405180910390f35b6104d160048036038101906104cc9190612935565b611086565b6040516104de9190612a6e565b60405180910390f35b61050160048036038101906104fc9190612cad565b6110eb565b60405161050e91906127a7565b60405180910390f35b610531600480360381019061052c9190612820565b61117f565b60405161053e9190612a6e565b60405180910390f35b610561600480360381019061055c9190612820565b61127f565b005b600061056e82611302565b9050919050565b600080600860008473ffffffffffffffffffffffffffffffffffffffff1673ffffffffffffffffffffffffffffffffffffffff16815260200190815260200160002054905060008114806105ce57506105cd8161101f565b5b156105dd5760009150506105e3565b60019150505b919050565b6060600080546105f790612d1c565b80601f016020809104026020016040519081016040528092919081815260200182805461062390612d1c565b80156106705780601f1061064557610100808354040283529160200191610670565b820191906000526020600020905b81548152906001019060200180831161065357829003601f168201915b5050505050905090565b6000610685826113e4565b6004600083815260200190815260200160002060009054906101000a900473ffffffffffffffffffffffffffffffffffffffff169050919050565b60006106cb82610d20565b90508073ffffffffffffffffffffffffffffffffffffffff168373ffffffffffffffffffffffffffffffffffffffff160361073b576040517f08c379a000000000000000000000000000000000000000000000000000000000815260040161073290612dbf565b60405180910390fd5b8073ffffffffffffffffffffffffffffffffffffffff1661075a61142f565b73ffffffffffffffffffffffffffffffffffffffff16148061078957506107888161078361142f565b6110eb565b5b6107c8576040517f08c379a00000000000000000000000000000000000000000000000000000000081526004016107bf90612e51565b60405180910390fd5b6107d28383611437565b505050565b6107e86107e261142f565b826114f0565b610827576040517f08c379a000000000000000000000000000000000000000000000000000000000815260040161081e90612ee3565b60405180910390fd5b610832838383611585565b505050565b61083f61187e565b6108476118fc565b61085081611946565b61088f576040517f08c379a000000000000000000000000000000000000000000000000000000000815260040161088690612f4f565b60405180910390fd5b6108988161101f565b156108d8576040517f08c379a00000000000000000000000000000000000000000000000000000000081526004016108cf90612fbb565b60405180910390fd5b610e10426108e6919061300a565b60096000838152602001908152602001600020819055507f754f3aa765fa1f221ea409fddea972deff6ce410d141d5cded4fc7ec690710c08160405161092c9190612a6e565b60405180910390a150565b61093f61187e565b610947611987565b565b61095161187e565b6109596118fc565b600073ffffffffffffffffffffffffffffffffffffffff168273ffffffffffffffffffffffffffffffffffffffff16036109c8576040517f08c379a00000000000000000000000000000000000000000000000000000000081526004016109bf9061308a565b60405180910390fd5b428111610a0a576040517f08c379a0000000000000000000000000000000000000000000000000000000008152600401610a019061311c565b60405180910390fd5b6000610a1583610da6565b14610a55576040517f08c379a0000000000000000000000000000000000000000000000000000000008152600401610a4c90613188565b60405180910390fd5b610a5f60076119ea565b6000610a6b6007611a00565b9050816009600083815260200190815260200160002081905550610a8f8382611a0e565b80600860008573ffffffffffffffffffffffffffffffffffffffff1673ffffffffffffffffffffffffffffffffffffffff168152602001908152602001600020819055508273ffffffffffffffffffffffffffffffffffffffff167f655ff37b06d138fc26fda07d435a40368e63b8d3cbd7835215334ff9e7fcd7828284604051610b1b9291906131a8565b60405180910390a2505050565b610b3061187e565b610b386118fc565b610b4182611946565b610b80576040517f08c379a0000000000000000000000000000000000000000000000000000000008152600401610b7790612f4f565b60405180910390fd5b60008111610bc3576040517f08c379a0000000000000000000000000000000000000000000000000000000008152600401610bba90613243565b60405180910390fd5b80600960008481526020019081526020016000206000828254610be69190613263565b925050819055507f0db48b23ad6f04f212b5fddef4017753a195535f0d61c4daa790b4f70f28c07f826009600085815260200190815260200160002054604051610c319291906131a8565b60405180910390a15050565b610c5883838360405180602001604052806000815250610f55565b505050565b610c656118fc565b6000600860003373ffffffffffffffffffffffffffffffffffffffff1673ffffffffffffffffffffffffffffffffffffffff16815260200190815260200160002054905060008103610cec576040517f08c379a0000000000000000000000000000000000000000000000000000000008152600401610ce3906132e3565b60405180910390fd5b610cf581611a2c565b50565b6000610d046007611a00565b905090565b6000600660149054906101000a900460ff16905090565b600080610d2c83611b7a565b9050600073ffffffffffffffffffffffffffffffffffffffff168173ffffffffffffffffffffffffffffffffffffffff1603610d9d576040517f08c379a0000000000000000000000000000000000000000000000000000000008152600401610d949061334f565b60405180910390fd5b80915050919050565b60008073ffffffffffffffffffffffffffffffffffffffff168273ffffffffffffffffffffffffffffffffffffffff1603610e16576040517f08c379a0000000000000000000000000000000000000000000000000000000008152600401610e0d906133e1565b60405180910390fd5b600360008373ffffffffffffffffffffffffffffffffffffffff1673ffffffffffffffffffffffffffffffffffffffff168152602001908152602001600020549050919050565b610e6561187e565b610e6f6000611bb7565b565b610e7961187e565b610e81611c7d565b565b6000600660009054906101000a900473ffffffffffffffffffffffffffffffffffffffff16905090565b606060018054610ebc90612d1c565b80601f0160208091040260200160405190810160405280929190818152602001828054610ee890612d1c565b8015610f355780601f10610f0a57610100808354040283529160200191610f35565b820191906000526020600020905b815481529060010190602001808311610f1857829003601f168201915b5050505050905090565b610f51610f4a61142f565b8383611ce0565b5050565b610f66610f6061142f565b836114f0565b610fa5576040517f08c379a0000000000000000000000000000000000000000000000000000000008152600401610f9c90612ee3565b60405180910390fd5b610fb184848484611e4c565b50505050565b6060610fc2826113e4565b6000610fcc611ea8565b90506000815111610fec5760405180602001604052806000815250611017565b80610ff684611ebf565b60405160200161100792919061343d565b6040516020818303038152906040525b915050919050565b600061102a82611946565b611069576040517f08c379a000000000000000000000000000000000000000000000000000000000815260040161106090612f4f565b60405180910390fd5b600960008381526020019081526020016000205442119050919050565b600061109182611946565b6110d0576040517f08c379a00000000000000000000000000000000000000000000000000000000081526004016110c790612f4f565b60405180910390fd5b60096000838152602001908152602001600020549050919050565b6000600560008473ffffffffffffffffffffffffffffffffffffffff1673ffffffffffffffffffffffffffffffffffffffff16815260200190815260200160002060008373ffffffffffffffffffffffffffffffffffffffff1673ffffffffffffffffffffffffffffffffffffffff16815260200190815260200160002060009054906101000a900460ff16905092915050565b60008073ffffffffffffffffffffffffffffffffffffffff168273ffffffffffffffffffffffffffffffffffffffff16036111ef576040517f08c379a00000000000000000000000000000000000000000000000000000000081526004016111e6906134ad565b60405180910390fd5b6000600860008473ffffffffffffffffffffffffffffffffffffffff1673ffffffffffffffffffffffffffffffffffffffff16815260200190815260200160002054905060008103611276576040517f08c379a000000000000000000000000000000000000000000000000000000000815260040161126d90613519565b60405180910390fd5b80915050919050565b61128761187e565b600073ffffffffffffffffffffffffffffffffffffffff168173ffffffffffffffffffffffffffffffffffffffff16036112f6576040517f08c379a00000000000000000000000000000000000000000000000000000000081526004016112ed906135ab565b60405180910390fd5b6112ff81611bb7565b50565b60007f80ac58cd000000000000000000000000000000000000000000000000000000007bffffffffffffffffffffffffffffffffffffffffffffffffffffffff1916827bffffffffffffffffffffffffffffffffffffffffffffffffffffffff191614806113cd57507f5b5e139f000000000000000000000000000000000000000000000000000000007bffffffffffffffffffffffffffffffffffffffffffffffffffffffff1916827bffffffffffffffffffffffffffffffffffffffffffffffffffffffff1916145b806113dd57506113dc82611f8d565b5b9050919050565b6113ed81611946565b61142c576040517f08c379a00000000000000000000000000000000000000000000000000000000081526004016114239061334f565b60405180910390fd5b50565b600033905090565b816004600083815260200190815260200160002060006101000a81548173ffffffffffffffffffffffffffffffffffffffff021916908373ffffffffffffffffffffffffffffffffffffffff160217905550808273ffffffffffffffffffffffffffffffffffffffff166114aa83610d20565b73ffffffffffffffffffffffffffffffffffffffff167f8c5be1e5ebec7d5bd14f71427d1e84f3dd0314c0f7b2291e5b200ac8c7c3b92560405160405180910390a45050565b6000806114fc83610d20565b90508073ffffffffffffffffffffffffffffffffffffffff168473ffffffffffffffffffffffffffffffffffffffff16148061153e575061153d81856110eb565b5b8061157c57508373ffffffffffffffffffffffffffffffffffffffff166115648461067a565b73ffffffffffffffffffffffffffffffffffffffff16145b91505092915050565b8273ffffffffffffffffffffffffffffffffffffffff166115a582610d20565b73ffffffffffffffffffffffffffffffffffffffff16146115fb576040517f08c379a00000000000000000000000000000000000000000000000000000000081526004016115f29061363d565b60405180910390fd5b600073ffffffffffffffffffffffffffffffffffffffff168273ffffffffffffffffffffffffffffffffffffffff160361166a576040517f08c379a0000000000000000000000000000000000000000000000000000000008152600401611661906136cf565b60405180910390fd5b6116778383836001611ff7565b8273ffffffffffffffffffffffffffffffffffffffff1661169782610d20565b73ffffffffffffffffffffffffffffffffffffffff16146116ed576040517f08c379a00000000000000000000000000000000000000000000000000000000081526004016116e49061363d565b60405180910390fd5b6004600082815260200190815260200160002060006101000a81549073ffffffffffffffffffffffffffffffffffffffff02191690556001600360008573ffffffffffffffffffffffffffffffffffffffff1673ffffffffffffffffffffffffffffffffffffffff168152602001908152602001600020600082825403925050819055506001600360008473ffffffffffffffffffffffffffffffffffffffff1673ffffffffffffffffffffffffffffffffffffffff16815260200190815260200160002060008282540192505081905550816002600083815260200190815260200160002060006101000a81548173ffffffffffffffffffffffffffffffffffffffff021916908373ffffffffffffffffffffffffffffffffffffffff160217905550808273ffffffffffffffffffffffffffffffffffffffff168473ffffffffffffffffffffffffffffffffffffffff167fddf252ad1be2c89b69c2b068fc378daa952ba7f163c4a11628f55a4df523b3ef60405160405180910390a46118798383836001612129565b505050565b61188661142f565b73ffffffffffffffffffffffffffffffffffffffff166118a4610e83565b73ffffffffffffffffffffffffffffffffffffffff16146118fa576040517f08c379a00000000000000000000000000000000000000000000000000000000081526004016118f19061373b565b60405180910390fd5b565b611904610d09565b15611944576040517f08c379a000000000000000000000000000000000000000000000000000000000815260040161193b906137a7565b60405180910390fd5b565b60008073ffffffffffffffffffffffffffffffffffffffff1661196883611b7a565b73ffffffffffffffffffffffffffffffffffffffff1614159050919050565b61198f61212f565b6000600660146101000a81548160ff0219169083151502179055507f5db9ee0a495bf2e6ff9c91a7834c1ba4fdd244a5e8aa4e537bd38aeae4b073aa6119d361142f565b6040516119e09190612971565b60405180910390a1565b6001816000016000828254019250508190555050565b600081600001549050919050565b611a28828260405180602001604052806000815250612178565b5050565b6000611a3782610d20565b9050611a47816000846001611ff7565b611a5082610d20565b90506004600083815260200190815260200160002060006101000a81549073ffffffffffffffffffffffffffffffffffffffff02191690556001600360008373ffffffffffffffffffffffffffffffffffffffff1673ffffffffffffffffffffffffffffffffffffffff168152602001908152602001600020600082825403925050819055506002600083815260200190815260200160002060006101000a81549073ffffffffffffffffffffffffffffffffffffffff021916905581600073ffffffffffffffffffffffffffffffffffffffff168273ffffffffffffffffffffffffffffffffffffffff167fddf252ad1be2c89b69c2b068fc378daa952ba7f163c4a11628f55a4df523b3ef60405160405180910390a4611b76816000846001612129565b5050565b60006002600083815260200190815260200160002060009054906101000a900473ffffffffffffffffffffffffffffffffffffffff169050919050565b6000600660009054906101000a900473ffffffffffffffffffffffffffffffffffffffff16905081600660006101000a81548173ffffffffffffffffffffffffffffffffffffffff021916908373ffffffffffffffffffffffffffffffffffffffff1602179055508173ffffffffffffffffffffffffffffffffffffffff168173ffffffffffffffffffffffffffffffffffffffff167f8be0079c531659141344cd1fd0a4f28419497f9722a3daafe3b4186f6b6457e060405160405180910390a35050565b611c856118fc565b6001600660146101000a81548160ff0219169083151502179055507f62e78cea01bee320cd4e420270b5ea74000d11b0c9f74754ebdbfc544b05a258611cc961142f565b604051611cd69190612971565b60405180910390a1565b8173ffffffffffffffffffffffffffffffffffffffff168373ffffffffffffffffffffffffffffffffffffffff1603611d4e576040517f08c379a0000000000000000000000000000000000000000000000000000000008152600401611d4590613813565b60405180910390fd5b80600560008573ffffffffffffffffffffffffffffffffffffffff1673ffffffffffffffffffffffffffffffffffffffff16815260200190815260200160002060008473ffffffffffffffffffffffffffffffffffffffff1673ffffffffffffffffffffffffffffffffffffffff16815260200190815260200160002060006101000a81548160ff0219169083151502179055508173ffffffffffffffffffffffffffffffffffffffff168373ffffffffffffffffffffffffffffffffffffffff167f17307eab39ab6107e8899845ad3d59bd9653f200f220920489ca2b5937696c3183604051611e3f91906127a7565b60405180910390a3505050565b611e57848484611585565b611e63848484846121d3565b611ea2576040517f08c379a0000000000000000000000000000000000000000000000000000000008152600401611e99906138a5565b60405180910390fd5b50505050565b606060405180602001604052806000815250905090565b606060006001611ece8461235a565b01905060008167ffffffffffffffff811115611eed57611eec612aff565b5b6040519080825280601f01601f191660200182016040528015611f1f5781602001600182028036833780820191505090505b509050600082602001820190505b600115611f82578080600190039150507f3031323334353637383961626364656600000000000000000000000000000000600a86061a8153600a8581611f7657611f756138c5565b5b04945060008503611f2d575b819350505050919050565b60007f01ffc9a7000000000000000000000000000000000000000000000000000000007bffffffffffffffffffffffffffffffffffffffffffffffffffffffff1916827bffffffffffffffffffffffffffffffffffffffffffffffffffffffff1916149050919050565b612003848484846124ad565b600073ffffffffffffffffffffffffffffffffffffffff168473ffffffffffffffffffffffffffffffffffffffff16148061206a5750600073ffffffffffffffffffffffffffffffffffffffff168373ffffffffffffffffffffffffffffffffffffffff16145b6120a9576040517f08c379a00000000000000000000000000000000000000000000000000000000081526004016120a090613940565b60405180910390fd5b600073ffffffffffffffffffffffffffffffffffffffff168473ffffffffffffffffffffffffffffffffffffffff1614612123576000600860008673ffffffffffffffffffffffffffffffffffffffff1673ffffffffffffffffffffffffffffffffffffffff168152602001908152602001600020819055505b50505050565b50505050565b612137610d09565b612176576040517f08c379a000000000000000000000000000000000000000000000000000000000815260040161216d906139ac565b60405180910390fd5b565b61218283836124b3565b61218f60008484846121d3565b6121ce576040517f08c379a00000000000000000000000000000000000000000000000000000000081526004016121c5906138a5565b60405180910390fd5b505050565b60006121f48473ffffffffffffffffffffffffffffffffffffffff166126d0565b1561234d578373ffffffffffffffffffffffffffffffffffffffff1663150b7a0261221d61142f565b8786866040518563ffffffff1660e01b815260040161223f9493929190613a21565b6020604051808303816000875af192505050801561227b57506040513d601f19601f820116820180604052508101906122789190613a82565b60015b6122fd573d80600081146122ab576040519150601f19603f3d011682016040523d82523d6000602084013e6122b0565b606091505b5060008151036122f5576040517f08c379a00000000000000000000000000000000000000000000000000000000081526004016122ec906138a5565b60405180910390fd5b805181602001fd5b63150b7a0260e01b7bffffffffffffffffffffffffffffffffffffffffffffffffffffffff1916817bffffffffffffffffffffffffffffffffffffffffffffffffffffffff191614915050612352565b600190505b949350505050565b600080600090507a184f03e93ff9f4daa797ed6e38ed64bf6a1f01000000000000000083106123b8577a184f03e93ff9f4daa797ed6e38ed64bf6a1f01000000000000000083816123ae576123ad6138c5565b5b0492506040810190505b6d04ee2d6d415b85acef810000000083106123f5576d04ee2d6d415b85acef810000000083816123eb576123ea6138c5565b5b0492506020810190505b662386f26fc10000831061242457662386f26fc10000838161241a576124196138c5565b5b0492506010810190505b6305f5e100831061244d576305f5e1008381612443576124426138c5565b5b0492506008810190505b6127108310612472576127108381612468576124676138c5565b5b0492506004810190505b60648310612495576064838161248b5761248a6138c5565b5b0492506002810190505b600a83106124a4576001810190505b80915050919050565b50505050565b600073ffffffffffffffffffffffffffffffffffffffff168273ffffffffffffffffffffffffffffffffffffffff1603612522576040517f08c379a000000000000000000000000000000000000000000000000000000000815260040161251990613afb565b60405180910390fd5b61252b81611946565b1561256b576040517f08c379a000000000000000000000000000000000000000000000000000000000815260040161256290613b67565b60405180910390fd5b612579600083836001611ff7565b61258281611946565b156125c2576040517f08c379a00000000000000000000000000000000000000000000000000000000081526004016125b990613b67565b60405180910390fd5b6001600360008473ffffffffffffffffffffffffffffffffffffffff1673ffffffffffffffffffffffffffffffffffffffff16815260200190815260200160002060008282540192505081905550816002600083815260200190815260200160002060006101000a81548173ffffffffffffffffffffffffffffffffffffffff021916908373ffffffffffffffffffffffffffffffffffffffff160217905550808273ffffffffffffffffffffffffffffffffffffffff16600073ffffffffffffffffffffffffffffffffffffffff167fddf252ad1be2c89b69c2b068fc378daa952ba7f163c4a11628f55a4df523b3ef60405160405180910390a46126cc600083836001612129565b5050565b6000808273ffffffffffffffffffffffffffffffffffffffff163b119050919050565b6000604051905090565b600080fd5b600080fd5b60007fffffffff0000000000000000000000000000000000000000000000000000000082169050919050565b61273c81612707565b811461274757600080fd5b50565b60008135905061275981612733565b92915050565b600060208284031215612775576127746126fd565b5b60006127838482850161274a565b91505092915050565b60008115159050919050565b6127a18161278c565b82525050565b60006020820190506127bc6000830184612798565b92915050565b600073ffffffffffffffffffffffffffffffffffffffff82169050919050565b60006127ed826127c2565b9050919050565b6127fd816127e2565b811461280857600080fd5b50565b60008135905061281a816127f4565b92915050565b600060208284031215612836576128356126fd565b5b60006128448482850161280b565b91505092915050565b600081519050919050565b600082825260208201905092915050565b60005b8381101561288757808201518184015260208101905061286c565b60008484015250505050565b6000601f19601f8301169050919050565b60006128af8261284d565b6128b98185612858565b93506128c9818560208601612869565b6128d281612893565b840191505092915050565b600060208201905081810360008301526128f781846128a4565b905092915050565b6000819050919050565b612912816128ff565b811461291d57600080fd5b50565b60008135905061292f81612909565b92915050565b60006020828403121561294b5761294a6126fd565b5b600061295984828501612920565b91505092915050565b61296b816127e2565b82525050565b60006020820190506129866000830184612962565b92915050565b600080604083850312156129a3576129a26126fd565b5b60006129b18582860161280b565b92505060206129c285828601612920565b9150509250929050565b6000806000606084860312156129e5576129e46126fd565b5b60006129f38682870161280b565b9350506020612a048682870161280b565b9250506040612a1586828701612920565b9150509250925092565b60008060408385031215612a3657612a356126fd565b5b6000612a4485828601612920565b9250506020612a5585828601612920565b9150509250929050565b612a68816128ff565b82525050565b6000602082019050612a836000830184612a5f565b92915050565b612a928161278c565b8114612a9d57600080fd5b50565b600081359050612aaf81612a89565b92915050565b60008060408385031215612acc57612acb6126fd565b5b6000612ada8582860161280b565b9250506020612aeb85828601612aa0565b9150509250929050565b600080fd5b600080fd5b7f4e487b7100000000000000000000000000000000000000000000000000000000600052604160045260246000fd5b612b3782612893565b810181811067ffffffffffffffff82111715612b5657612b55612aff565b5b80604052505050565b6000612b696126f3565b9050612b758282612b2e565b919050565b600067ffffffffffffffff821115612b9557612b94612aff565b5b612b9e82612893565b9050602081019050919050565b82818337600083830152505050565b6000612bcd612bc884612b7a565b612b5f565b905082815260208101848484011115612be957612be8612afa565b5b612bf4848285612bab565b509392505050565b600082601f830112612c1157612c10612af5565b5b8135612c21848260208601612bba565b91505092915050565b60008060008060808587031215612c4457612c436126fd565b5b6000612c528782880161280b565b9450506020612c638782880161280b565b9350506040612c7487828801612920565b925050606085013567ffffffffffffffff811115612c9557612c94612702565b5b612ca187828801612bfc565b91505092959194509250565b60008060408385031215612cc457612cc36126fd565b5b6000612cd28582860161280b565b9250506020612ce38582860161280b565b9150509250929050565b7f4e487b7100000000000000000000000000000000000000000000000000000000600052602260045260246000fd5b60006002820490506001821680612d3457607f821691505b602082108103612d4757612d46612ced565b5b50919050565b7f4552433732313a20617070726f76616c20746f2063757272656e74206f776e6560008201527f7200000000000000000000000000000000000000000000000000000000000000602082015250565b6000612da9602183612858565b9150612db482612d4d565b604082019050919050565b60006020820190508181036000830152612dd881612d9c565b9050919050565b7f4552433732313a20617070726f76652063616c6c6572206973206e6f7420746f60008201527f6b656e206f776e6572206f7220617070726f76656420666f7220616c6c000000602082015250565b6000612e3b603d83612858565b9150612e4682612ddf565b604082019050919050565b60006020820190508181036000830152612e6a81612e2e565b9050919050565b7f4552433732313a2063616c6c6572206973206e6f7420746f6b656e206f776e6560008201527f72206f7220617070726f76656400000000000000000000000000000000000000602082015250565b6000612ecd602d83612858565b9150612ed882612e71565b604082019050919050565b60006020820190508181036000830152612efc81612ec0565b9050919050565b7f546f6b656e20646f6573206e6f74206578697374000000000000000000000000600082015250565b6000612f39601483612858565b9150612f4482612f03565b602082019050919050565b60006020820190508181036000830152612f6881612f2c565b9050919050565b7f546f6b656e20616c726561647920657870697265640000000000000000000000600082015250565b6000612fa5601583612858565b9150612fb082612f6f565b602082019050919050565b60006020820190508181036000830152612fd481612f98565b9050919050565b7f4e487b7100000000000000000000000000000000000000000000000000000000600052601160045260246000fd5b6000613015826128ff565b9150613020836128ff565b925082820390508181111561303857613037612fdb565b5b92915050565b7f43616e6e6f74206d696e7420746f207a65726f20616464726573730000000000600082015250565b6000613074601b83612858565b915061307f8261303e565b602082019050919050565b600060208201905081810360008301526130a381613067565b9050919050565b7f45787069726174696f6e206d75737420626520696e207468652066757475726560008201527f2e00000000000000000000000000000000000000000000000000000000000000602082015250565b6000613106602183612858565b9150613111826130aa565b604082019050919050565b60006020820190508181036000830152613135816130f9565b9050919050565b7f5573657220616c726561647920686173206120746f6b656e0000000000000000600082015250565b6000613172601883612858565b915061317d8261313c565b602082019050919050565b600060208201905081810360008301526131a181613165565b9050919050565b60006040820190506131bd6000830185612a5f565b6131ca6020830184612a5f565b9392505050565b7f4164646974696f6e616c2074696d65206d75737420626520677265617465722060008201527f7468616e207a65726f0000000000000000000000000000000000000000000000602082015250565b600061322d602983612858565b9150613238826131d1565b604082019050919050565b6000602082019050818103600083015261325c81613220565b9050919050565b600061326e826128ff565b9150613279836128ff565b925082820190508082111561329157613290612fdb565b5b92915050565b7f596f7520646f206e6f74206f776e206120746f6b656e00000000000000000000600082015250565b60006132cd601683612858565b91506132d882613297565b602082019050919050565b600060208201905081810360008301526132fc816132c0565b9050919050565b7f4552433732313a20696e76616c696420746f6b656e2049440000000000000000600082015250565b6000613339601883612858565b915061334482613303565b602082019050919050565b600060208201905081810360008301526133688161332c565b9050919050565b7f4552433732313a2061646472657373207a65726f206973206e6f74206120766160008201527f6c6964206f776e65720000000000000000000000000000000000000000000000602082015250565b60006133cb602983612858565b91506133d68261336f565b604082019050919050565b600060208201905081810360008301526133fa816133be565b9050919050565b600081905092915050565b60006134178261284d565b6134218185613401565b9350613431818560208601612869565b80840191505092915050565b6000613449828561340c565b9150613455828461340c565b91508190509392505050565b7f496e76616c696420616464726573730000000000000000000000000000000000600082015250565b6000613497600f83612858565b91506134a282613461565b602082019050919050565b600060208201905081810360008301526134c68161348a565b9050919050565b7f4f776e657220646f6573206e6f742068617665206120746f6b656e0000000000600082015250565b6000613503601b83612858565b915061350e826134cd565b602082019050919050565b60006020820190508181036000830152613532816134f6565b9050919050565b7f4f776e61626c653a206e6577206f776e657220697320746865207a65726f206160008201527f6464726573730000000000000000000000000000000000000000000000000000602082015250565b6000613595602683612858565b91506135a082613539565b604082019050919050565b600060208201905081810360008301526135c481613588565b9050919050565b7f4552433732313a207472616e736665722066726f6d20696e636f72726563742060008201527f6f776e6572000000000000000000000000000000000000000000000000000000602082015250565b6000613627602583612858565b9150613632826135cb565b604082019050919050565b600060208201905081810360008301526136568161361a565b9050919050565b7f4552433732313a207472616e7366657220746f20746865207a65726f2061646460008201527f7265737300000000000000000000000000000000000000000000000000000000602082015250565b60006136b9602483612858565b91506136c48261365d565b604082019050919050565b600060208201905081810360008301526136e8816136ac565b9050919050565b7f4f776e61626c653a2063616c6c6572206973206e6f7420746865206f776e6572600082015250565b6000613725602083612858565b9150613730826136ef565b602082019050919050565b6000602082019050818103600083015261375481613718565b9050919050565b7f5061757361626c653a2070617573656400000000000000000000000000000000600082015250565b6000613791601083612858565b915061379c8261375b565b602082019050919050565b600060208201905081810360008301526137c081613784565b9050919050565b7f4552433732313a20617070726f766520746f2063616c6c657200000000000000600082015250565b60006137fd601983612858565b9150613808826137c7565b602082019050919050565b6000602082019050818103600083015261382c816137f0565b9050919050565b7f4552433732313a207472616e7366657220746f206e6f6e20455243373231526560008201527f63656976657220696d706c656d656e7465720000000000000000000000000000602082015250565b600061388f603283612858565b915061389a82613833565b604082019050919050565b600060208201905081810360008301526138be81613882565b9050919050565b7f4e487b7100000000000000000000000000000000000000000000000000000000600052601260045260246000fd5b7f5472616e7366657273206172652064697361626c656400000000000000000000600082015250565b600061392a601683612858565b9150613935826138f4565b602082019050919050565b600060208201905081810360008301526139598161391d565b9050919050565b7f5061757361626c653a206e6f7420706175736564000000000000000000000000600082015250565b6000613996601483612858565b91506139a182613960565b602082019050919050565b600060208201905081810360008301526139c581613989565b9050919050565b600081519050919050565b600082825260208201905092915050565b60006139f3826139cc565b6139fd81856139d7565b9350613a0d818560208601612869565b613a1681612893565b840191505092915050565b6000608082019050613a366000830187612962565b613a436020830186612962565b613a506040830185612a5f565b8181036060830152613a6281846139e8565b905095945050505050565b600081519050613a7c81612733565b92915050565b600060208284031215613a9857613a976126fd565b5b6000613aa684828501613a6d565b91505092915050565b7f4552433732313a206d696e7420746f20746865207a65726f2061646472657373600082015250565b6000613ae5602083612858565b9150613af082613aaf565b602082019050919050565b60006020820190508181036000830152613b1481613ad8565b9050919050565b7f4552433732313a20746f6b656e20616c7265616479206d696e74656400000000600082015250565b6000613b51601c83612858565b9150613b5c82613b1b565b602082019050919050565b60006020820190508181036000830152613b8081613b44565b905091905056fea2646970667358221220cac475b5b294b6c0e3a00afa7c5b6d899160e2f860b1883e54b1fa34ef00056f64736f6c634300081b0033",
  "linkReferences": {},
  "deployedLinkReferences": {}
}