{
  "_format": "hh-sol-artifact-1",
  "contractName": "Littercoin",
  "sourceName": "contracts/Littercoin.sol",
  "abi": [
    {
      "inputs": [
        {
          "internalType": "address",
          "name": "_priceFeed",
          "type": "address"
        }
      ],
      "stateMutability": "nonpayable",
      "type": "constructor"
    },
    {
      "anonymous": false,
      "inputs": [
        {
          "indexed": true,
          "internalType": "address",
          "name": "owner",
          "type": "address"
        },
        {
          "indexed": true,
          "internalType": "address",
          "name": "approved",
          "type": "address"
        },
        {
          "indexed": true,
          "internalType": "uint256",
          "name": "tokenId",
          "type": "uint256"
        }
      ],
      "name": "Approval",
      "type": "event"
    },
    {
      "anonymous": false,
      "inputs": [
        {
          "indexed": true,
          "internalType": "address",
          "name": "owner",
          "type": "address"
        },
        {
          "indexed": true,
          "internalType": "address",
          "name": "operator",
          "type": "address"
        },
        {
          "indexed": false,
          "internalType": "bool",
          "name": "approved",
          "type": "bool"
        }
      ],
      "name": "ApprovalForAll",
      "type": "event"
    },
    {
      "anonymous": false,
      "inputs": [
        {
          "indexed": true,
          "internalType": "address",
          "name": "user",
          "type": "address"
        },
        {
          "indexed": false,
          "internalType": "uint256",
          "name": "tokensToBurn",
          "type": "uint256"
        },
        {
          "indexed": false,
          "internalType": "uint256",
          "name": "ethAmount",
          "type": "uint256"
        }
      ],
      "name": "BurnLittercoin",
      "type": "event"
    },
    {
      "anonymous": false,
      "inputs": [
        {
          "indexed": true,
          "internalType": "address",
          "name": "user",
          "type": "address"
        },
        {
          "indexed": false,
          "internalType": "uint256",
          "name": "amount",
          "type": "uint256"
        }
      ],
      "name": "Mint",
      "type": "event"
    },
    {
      "anonymous": false,
      "inputs": [
        {
          "indexed": true,
          "internalType": "address",
          "name": "previousOwner",
          "type": "address"
        },
        {
          "indexed": true,
          "internalType": "address",
          "name": "newOwner",
          "type": "address"
        }
      ],
      "name": "OwnershipTransferred",
      "type": "event"
    },
    {
      "anonymous": false,
      "inputs": [
        {
          "indexed": true,
          "internalType": "address",
          "name": "user",
          "type": "address"
        },
        {
          "indexed": false,
          "internalType": "uint256",
          "name": "rewardAmount",
          "type": "uint256"
        }
      ],
      "name": "Reward",
      "type": "event"
    },
    {
      "anonymous": false,
      "inputs": [
        {
          "indexed": true,
          "internalType": "address",
          "name": "from",
          "type": "address"
        },
        {
          "indexed": true,
          "internalType": "address",
          "name": "to",
          "type": "address"
        },
        {
          "indexed": true,
          "internalType": "uint256",
          "name": "tokenId",
          "type": "uint256"
        }
      ],
      "name": "Transfer",
      "type": "event"
    },
    {
      "inputs": [],
      "name": "MAX_TRANSACTIONS",
      "outputs": [
        {
          "internalType": "uint256",
          "name": "",
          "type": "uint256"
        }
      ],
      "stateMutability": "view",
      "type": "function"
    },
    {
      "inputs": [
        {
          "internalType": "address",
          "name": "to",
          "type": "address"
        },
        {
          "internalType": "uint256",
          "name": "tokenId",
          "type": "uint256"
        }
      ],
      "name": "approve",
      "outputs": [],
      "stateMutability": "nonpayable",
      "type": "function"
    },
    {
      "inputs": [
        {
          "internalType": "address",
          "name": "owner",
          "type": "address"
        }
      ],
      "name": "balanceOf",
      "outputs": [
        {
          "internalType": "uint256",
          "name": "",
          "type": "uint256"
        }
      ],
      "stateMutability": "view",
      "type": "function"
    },
    {
      "inputs": [
        {
          "internalType": "uint256[]",
          "name": "tokenIds",
          "type": "uint256[]"
        }
      ],
      "name": "burnLittercoin",
      "outputs": [],
      "stateMutability": "nonpayable",
      "type": "function"
    },
    {
      "inputs": [
        {
          "internalType": "uint256",
          "name": "tokenId",
          "type": "uint256"
        }
      ],
      "name": "getApproved",
      "outputs": [
        {
          "internalType": "address",
          "name": "",
          "type": "address"
        }
      ],
      "stateMutability": "view",
      "type": "function"
    },
    {
      "inputs": [],
      "name": "getMerchantTokenAddress",
      "outputs": [
        {
          "internalType": "address",
          "name": "",
          "type": "address"
        }
      ],
      "stateMutability": "view",
      "type": "function"
    },
    {
      "inputs": [],
      "name": "getRewardTokenAddress",
      "outputs": [
        {
          "internalType": "address",
          "name": "",
          "type": "address"
        }
      ],
      "stateMutability": "view",
      "type": "function"
    },
    {
      "inputs": [
        {
          "internalType": "uint256",
          "name": "",
          "type": "uint256"
        }
      ],
      "name": "invalidTokens",
      "outputs": [
        {
          "internalType": "bool",
          "name": "",
          "type": "bool"
        }
      ],
      "stateMutability": "view",
      "type": "function"
    },
    {
      "inputs": [
        {
          "internalType": "address",
          "name": "owner",
          "type": "address"
        },
        {
          "internalType": "address",
          "name": "operator",
          "type": "address"
        }
      ],
      "name": "isApprovedForAll",
      "outputs": [
        {
          "internalType": "bool",
          "name": "",
          "type": "bool"
        }
      ],
      "stateMutability": "view",
      "type": "function"
    },
    {
      "inputs": [],
      "name": "merchantToken",
      "outputs": [
        {
          "internalType": "contract MerchantToken",
          "name": "",
          "type": "address"
        }
      ],
      "stateMutability": "view",
      "type": "function"
    },
    {
      "inputs": [
        {
          "internalType": "uint256",
          "name": "amount",
          "type": "uint256"
        },
        {
          "internalType": "uint256",
          "name": "nonce",
          "type": "uint256"
        },
        {
          "internalType": "uint256",
          "name": "expiry",
          "type": "uint256"
        },
        {
          "internalType": "bytes",
          "name": "signature",
          "type": "bytes"
        }
      ],
      "name": "mint",
      "outputs": [],
      "stateMutability": "nonpayable",
      "type": "function"
    },
    {
      "inputs": [],
      "name": "name",
      "outputs": [
        {
          "internalType": "string",
          "name": "",
          "type": "string"
        }
      ],
      "stateMutability": "view",
      "type": "function"
    },
    {
      "inputs": [],
      "name": "owner",
      "outputs": [
        {
          "internalType": "address",
          "name": "",
          "type": "address"
        }
      ],
      "stateMutability": "view",
      "type": "function"
    },
    {
      "inputs": [
        {
          "internalType": "uint256",
          "name": "tokenId",
          "type": "uint256"
        }
      ],
      "name": "ownerOf",
      "outputs": [
        {
          "internalType": "address",
          "name": "",
          "type": "address"
        }
      ],
      "stateMutability": "view",
      "type": "function"
    },
    {
      "inputs": [],
      "name": "renounceOwnership",
      "outputs": [],
      "stateMutability": "nonpayable",
      "type": "function"
    },
    {
      "inputs": [],
      "name": "rewardToken",
      "outputs": [
        {
          "internalType": "contract OLMRewardToken",
          "name": "",
          "type": "address"
        }
      ],
      "stateMutability": "view",
      "type": "function"
    },
    {
      "inputs": [
        {
          "internalType": "address",
          "name": "from",
          "type": "address"
        },
        {
          "internalType": "address",
          "name": "to",
          "type": "address"
        },
        {
          "internalType": "uint256",
          "name": "tokenId",
          "type": "uint256"
        }
      ],
      "name": "safeTransferFrom",
      "outputs": [],
      "stateMutability": "nonpayable",
      "type": "function"
    },
    {
      "inputs": [
        {
          "internalType": "address",
          "name": "from",
          "type": "address"
        },
        {
          "internalType": "address",
          "name": "to",
          "type": "address"
        },
        {
          "internalType": "uint256",
          "name": "tokenId",
          "type": "uint256"
        },
        {
          "internalType": "bytes",
          "name": "data",
          "type": "bytes"
        }
      ],
      "name": "safeTransferFrom",
      "outputs": [],
      "stateMutability": "nonpayable",
      "type": "function"
    },
    {
      "inputs": [
        {
          "internalType": "address",
          "name": "operator",
          "type": "address"
        },
        {
          "internalType": "bool",
          "name": "approved",
          "type": "bool"
        }
      ],
      "name": "setApprovalForAll",
      "outputs": [],
      "stateMutability": "nonpayable",
      "type": "function"
    },
    {
      "inputs": [
        {
          "internalType": "bytes4",
          "name": "interfaceId",
          "type": "bytes4"
        }
      ],
      "name": "supportsInterface",
      "outputs": [
        {
          "internalType": "bool",
          "name": "",
          "type": "bool"
        }
      ],
      "stateMutability": "view",
      "type": "function"
    },
    {
      "inputs": [],
      "name": "symbol",
      "outputs": [
        {
          "internalType": "string",
          "name": "",
          "type": "string"
        }
      ],
      "stateMutability": "view",
      "type": "function"
    },
    {
      "inputs": [
        {
          "internalType": "uint256",
          "name": "index",
          "type": "uint256"
        }
      ],
      "name": "tokenByIndex",
      "outputs": [
        {
          "internalType": "uint256",
          "name": "",
          "type": "uint256"
        }
      ],
      "stateMutability": "view",
      "type": "function"
    },
    {
      "inputs": [],
      "name": "tokenCounter",
      "outputs": [
        {
          "internalType": "uint256",
          "name": "",
          "type": "uint256"
        }
      ],
      "stateMutability": "view",
      "type": "function"
    },
    {
      "inputs": [
        {
          "internalType": "address",
          "name": "owner",
          "type": "address"
        },
        {
          "internalType": "uint256",
          "name": "index",
          "type": "uint256"
        }
      ],
      "name": "tokenOfOwnerByIndex",
      "outputs": [
        {
          "internalType": "uint256",
          "name": "",
          "type": "uint256"
        }
      ],
      "stateMutability": "view",
      "type": "function"
    },
    {
      "inputs": [
        {
          "internalType": "uint256",
          "name": "tokenId",
          "type": "uint256"
        }
      ],
      "name": "tokenURI",
      "outputs": [
        {
          "internalType": "string",
          "name": "",
          "type": "string"
        }
      ],
      "stateMutability": "view",
      "type": "function"
    },
    {
      "inputs": [],
      "name": "totalSupply",
      "outputs": [
        {
          "internalType": "uint256",
          "name": "",
          "type": "uint256"
        }
      ],
      "stateMutability": "view",
      "type": "function"
    },
    {
      "inputs": [
        {
          "internalType": "uint256",
          "name": "",
          "type": "uint256"
        }
      ],
      "name": "transferCount",
      "outputs": [
        {
          "internalType": "uint256",
          "name": "",
          "type": "uint256"
        }
      ],
      "stateMutability": "view",
      "type": "function"
    },
    {
      "inputs": [
        {
          "internalType": "address",
          "name": "from",
          "type": "address"
        },
        {
          "internalType": "address",
          "name": "to",
          "type": "address"
        },
        {
          "internalType": "uint256",
          "name": "tokenId",
          "type": "uint256"
        }
      ],
      "name": "transferFrom",
      "outputs": [],
      "stateMutability": "nonpayable",
      "type": "function"
    },
    {
      "inputs": [
        {
          "internalType": "address",
          "name": "newOwner",
          "type": "address"
        }
      ],
      "name": "transferOwnership",
      "outputs": [],
      "stateMutability": "nonpayable",
      "type": "function"
    },
    {
      "inputs": [
        {
          "internalType": "uint256",
          "name": "",
          "type": "uint256"
        }
      ],
      "name": "usedNonces",
      "outputs": [
        {
          "internalType": "bool",
          "name": "",
          "type": "bool"
        }
      ],
      "stateMutability": "view",
      "type": "function"
    },
    {
      "stateMutability": "payable",
      "type": "receive"
    }
  ],
  "bytecode": "0x608060405234801561001057600080fd5b5060405161b01238038061b0128339818101604052810190610032919061046a565b6040518060400160405280600a81526020017f4c6974746572636f696e000000000000000000000000000000000000000000008152506040518060400160405280600781526020017f4c4954544552580000000000000000000000000000000000000000000000000081525081600090816100ad91906106e7565b5080600190816100bd91906106e7565b5050506100dc6100d161031f60201b60201c565b61032760201b60201c565b6001600b819055506001600c819055506040516100f8906103ed565b604051809103906000f080158015610114573d6000803e3d6000fd5b50601060006101000a81548173ffffffffffffffffffffffffffffffffffffffff021916908373ffffffffffffffffffffffffffffffffffffffff160217905550601060009054906101000a900473ffffffffffffffffffffffffffffffffffffffff1673ffffffffffffffffffffffffffffffffffffffff1663f2fde38b306040518263ffffffff1660e01b81526004016101b091906107c8565b600060405180830381600087803b1580156101ca57600080fd5b505af11580156101de573d6000803e3d6000fd5b505050506040516101ee906103fa565b604051809103906000f08015801561020a573d6000803e3d6000fd5b50601160006101000a81548173ffffffffffffffffffffffffffffffffffffffff021916908373ffffffffffffffffffffffffffffffffffffffff160217905550601160009054906101000a900473ffffffffffffffffffffffffffffffffffffffff1673ffffffffffffffffffffffffffffffffffffffff1663f2fde38b336040518263ffffffff1660e01b81526004016102a691906107c8565b600060405180830381600087803b1580156102c057600080fd5b505af11580156102d4573d6000803e3d6000fd5b5050505080601260006101000a81548173ffffffffffffffffffffffffffffffffffffffff021916908373ffffffffffffffffffffffffffffffffffffffff160217905550506107e3565b600033905090565b6000600a60009054906101000a900473ffffffffffffffffffffffffffffffffffffffff16905081600a60006101000a81548173ffffffffffffffffffffffffffffffffffffffff021916908373ffffffffffffffffffffffffffffffffffffffff1602179055508173ffffffffffffffffffffffffffffffffffffffff168173ffffffffffffffffffffffffffffffffffffffff167f8be0079c531659141344cd1fd0a4f28419497f9722a3daafe3b4186f6b6457e060405160405180910390a35050565b611c9f8061566583390190565b613d0e8061730483390190565b600080fd5b600073ffffffffffffffffffffffffffffffffffffffff82169050919050565b60006104378261040c565b9050919050565b6104478161042c565b811461045257600080fd5b50565b6000815190506104648161043e565b92915050565b6000602082840312156104805761047f610407565b5b600061048e84828501610455565b91505092915050565b600081519050919050565b7f4e487b7100000000000000000000000000000000000000000000000000000000600052604160045260246000fd5b7f4e487b7100000000000000000000000000000000000000000000000000000000600052602260045260246000fd5b6000600282049050600182168061051857607f821691505b60208210810361052b5761052a6104d1565b5b50919050565b60008190508160005260206000209050919050565b60006020601f8301049050919050565b600082821b905092915050565b6000600883026105937fffffffffffffffffffffffffffffffffffffffffffffffffffffffffffffffff82610556565b61059d8683610556565b95508019841693508086168417925050509392505050565b6000819050919050565b6000819050919050565b60006105e46105df6105da846105b5565b6105bf565b6105b5565b9050919050565b6000819050919050565b6105fe836105c9565b61061261060a826105eb565b848454610563565b825550505050565b600090565b61062761061a565b6106328184846105f5565b505050565b5b818110156106565761064b60008261061f565b600181019050610638565b5050565b601f82111561069b5761066c81610531565b61067584610546565b81016020851015610684578190505b61069861069085610546565b830182610637565b50505b505050565b600082821c905092915050565b60006106be600019846008026106a0565b1980831691505092915050565b60006106d783836106ad565b9150826002028217905092915050565b6106f082610497565b67ffffffffffffffff811115610709576107086104a2565b5b6107138254610500565b61071e82828561065a565b600060209050601f831160018114610751576000841561073f578287015190505b61074985826106cb565b8655506107b1565b601f19841661075f86610531565b60005b8281101561078757848901518255600182019150602085019450602081019050610762565b868310156107a457848901516107a0601f8916826106ad565b8355505b6001600288020188555050505b505050505050565b6107c28161042c565b82525050565b60006020820190506107dd60008301846107b9565b92915050565b614e73806107f26000396000f3fe6080604052600436106101d15760003560e01c8063715018a6116100f7578063b88d4fde11610095578063ec02ef5711610064578063ec02ef57146108b6578063f2fde38b146108f3578063f568c6c51461091c578063f7c618c114610947576103c1565b8063b88d4fde146107e8578063c87b56dd14610811578063d082e3811461084e578063e985e9c514610879576103c1565b80638da5cb5b116100d15780638da5cb5b1461073e57806395d89b411461076957806399e117a014610794578063a22cb465146107bf576103c1565b8063715018a6146106d1578063744c0f93146106e85780638c1a1f7714610713576103c1565b806323b872dd1161016f5780634f6ccce71161013e5780634f6ccce7146105dd5780636352211e1461061a5780636717e41c1461065757806370a0823114610694576103c1565b806323b872dd146105255780632f745c591461054e57806342842e0e1461058b5780634a9eee69146105b4576103c1565b8063095ea7b3116101ab578063095ea7b31461046b57806318160ddd146104945780631bb1953c146104bf5780631edf9acd146104fc576103c1565b806301ffc9a7146103c657806306fdde0314610403578063081812fc1461042e576103c1565b366103c15760003490506000601260009054906101000a900473ffffffffffffffffffffffffffffffffffffffff1673ffffffffffffffffffffffffffffffffffffffff1663feaf968c6040518163ffffffff1660e01b815260040160a060405180830381865afa15801561024a573d6000803e3d6000fd5b505050506040513d601f19601f8201168201806040525081019061026e919061319d565b505050915050600081136102b7576040517f08c379a00000000000000000000000000000000000000000000000000000000081526004016102ae90613275565b60405180910390fd5b600081905060006a52b7d2dcc80cd2e400000082856102d691906132c4565b6102e09190613335565b9050601060009054906101000a900473ffffffffffffffffffffffffffffffffffffffff1673ffffffffffffffffffffffffffffffffffffffff166340c10f1933836040518363ffffffff1660e01b815260040161033f9291906133b6565b600060405180830381600087803b15801561035957600080fd5b505af115801561036d573d6000803e3d6000fd5b505050503373ffffffffffffffffffffffffffffffffffffffff167f619caafabdd75649b302ba8419e48cccf64f37f1983ac4727cfb38b57703ffc9826040516103b791906133df565b60405180910390a2005b600080fd5b3480156103d257600080fd5b506103ed60048036038101906103e89190613452565b610972565b6040516103fa919061349a565b60405180910390f35b34801561040f57600080fd5b50610418610984565b6040516104259190613534565b60405180910390f35b34801561043a57600080fd5b506104556004803603810190610450919061356b565b610a16565b6040516104629190613598565b60405180910390f35b34801561047757600080fd5b50610492600480360381019061048d91906135df565b610a5c565b005b3480156104a057600080fd5b506104a9610b73565b6040516104b691906133df565b60405180910390f35b3480156104cb57600080fd5b506104e660048036038101906104e1919061356b565b610b80565b6040516104f3919061349a565b60405180910390f35b34801561050857600080fd5b50610523600480360381019061051e9190613684565b610ba0565b005b34801561053157600080fd5b5061054c600480360381019061054791906136d1565b610f51565b005b34801561055a57600080fd5b50610575600480360381019061057091906135df565b610fb1565b60405161058291906133df565b60405180910390f35b34801561059757600080fd5b506105b260048036038101906105ad91906136d1565b611056565b005b3480156105c057600080fd5b506105db60048036038101906105d69190613854565b611076565b005b3480156105e957600080fd5b5061060460048036038101906105ff919061356b565b6112ff565b60405161061191906133df565b60405180910390f35b34801561062657600080fd5b50610641600480360381019061063c919061356b565b611370565b60405161064e9190613598565b60405180910390f35b34801561066357600080fd5b5061067e6004803603810190610679919061356b565b6113f6565b60405161068b919061349a565b60405180910390f35b3480156106a057600080fd5b506106bb60048036038101906106b691906138d7565b611416565b6040516106c891906133df565b60405180910390f35b3480156106dd57600080fd5b506106e66114cd565b005b3480156106f457600080fd5b506106fd6114e1565b60405161070a9190613598565b60405180910390f35b34801561071f57600080fd5b5061072861150b565b6040516107359190613963565b60405180910390f35b34801561074a57600080fd5b50610753611531565b6040516107609190613598565b60405180910390f35b34801561077557600080fd5b5061077e61155b565b60405161078b9190613534565b60405180910390f35b3480156107a057600080fd5b506107a96115ed565b6040516107b69190613598565b60405180910390f35b3480156107cb57600080fd5b506107e660048036038101906107e191906139aa565b611617565b005b3480156107f457600080fd5b5061080f600480360381019061080a91906139ea565b61162d565b005b34801561081d57600080fd5b506108386004803603810190610833919061356b565b61168f565b6040516108459190613534565b60405180910390f35b34801561085a57600080fd5b506108636116f7565b60405161087091906133df565b60405180910390f35b34801561088557600080fd5b506108a0600480360381019061089b9190613a6d565b6116fd565b6040516108ad919061349a565b60405180910390f35b3480156108c257600080fd5b506108dd60048036038101906108d8919061356b565b611791565b6040516108ea91906133df565b60405180910390f35b3480156108ff57600080fd5b5061091a600480360381019061091591906138d7565b6117a9565b005b34801561092857600080fd5b5061093161182c565b60405161093e91906133df565b60405180910390f35b34801561095357600080fd5b5061095c611831565b6040516109699190613ace565b60405180910390f35b600061097d82611857565b9050919050565b60606000805461099390613b18565b80601f01602080910402602001604051908101604052809291908181526020018280546109bf90613b18565b8015610a0c5780601f106109e157610100808354040283529160200191610a0c565b820191906000526020600020905b8154815290600101906020018083116109ef57829003601f168201915b5050505050905090565b6000610a21826118d1565b6004600083815260200190815260200160002060009054906101000a900473ffffffffffffffffffffffffffffffffffffffff169050919050565b6000610a6782611370565b90508073ffffffffffffffffffffffffffffffffffffffff168373ffffffffffffffffffffffffffffffffffffffff1603610ad7576040517f08c379a0000000000000000000000000000000000000000000000000000000008152600401610ace90613bbb565b60405180910390fd5b8073ffffffffffffffffffffffffffffffffffffffff16610af661191c565b73ffffffffffffffffffffffffffffffffffffffff161480610b255750610b2481610b1f61191c565b6116fd565b5b610b64576040517f08c379a0000000000000000000000000000000000000000000000000000000008152600401610b5b90613c4d565b60405180910390fd5b610b6e8383611924565b505050565b6000600880549050905090565b600e6020528060005260406000206000915054906101000a900460ff1681565b610ba86119dd565b600082829050905060008111610bf3576040517f08c379a0000000000000000000000000000000000000000000000000000000008152600401610bea90613cb9565b60405180910390fd5b601160009054906101000a900473ffffffffffffffffffffffffffffffffffffffff1673ffffffffffffffffffffffffffffffffffffffff166302556a29336040518263ffffffff1660e01b8152600401610c4e9190613598565b602060405180830381865afa158015610c6b573d6000803e3d6000fd5b505050506040513d601f19601f82011682018060405250810190610c8f9190613cee565b610cce576040517f08c379a0000000000000000000000000000000000000000000000000000000008152600401610cc590613d8d565b60405180910390fd5b600047905060008111610d16576040517f08c379a0000000000000000000000000000000000000000000000000000000008152600401610d0d90613df9565b60405180910390fd5b60005b82811015610e23576000858583818110610d3657610d35613e19565b5b9050602002013590503373ffffffffffffffffffffffffffffffffffffffff16610d5f82611370565b73ffffffffffffffffffffffffffffffffffffffff1614610db5576040517f08c379a0000000000000000000000000000000000000000000000000000000008152600401610dac90613eba565b60405180910390fd5b6002600f6000838152602001908152602001600020541115610e0c576040517f08c379a0000000000000000000000000000000000000000000000000000000008152600401610e0390613f4c565b60405180910390fd5b610e1581611a2c565b508080600101915050610d19565b5060008282610e329190613335565b905060008382610e4291906132c4565b905060003373ffffffffffffffffffffffffffffffffffffffff1682604051610e6a90613f9d565b60006040518083038185875af1925050503d8060008114610ea7576040519150601f19603f3d011682016040523d82523d6000602084013e610eac565b606091505b5050905080610ef0576040517f08c379a0000000000000000000000000000000000000000000000000000000008152600401610ee790613ffe565b60405180910390fd5b3373ffffffffffffffffffffffffffffffffffffffff167f62c43c4ca6239525d02ec5d50013da458e2aabd6147394ddd139edae8d84439b8684604051610f3892919061401e565b60405180910390a25050505050610f4d611b7a565b5050565b610f62610f5c61191c565b82611b84565b610fa1576040517f08c379a0000000000000000000000000000000000000000000000000000000008152600401610f98906140b9565b60405180910390fd5b610fac838383611c19565b505050565b6000610fbc83611416565b8210610ffd576040517f08c379a0000000000000000000000000000000000000000000000000000000008152600401610ff49061414b565b60405180910390fd5b600660008473ffffffffffffffffffffffffffffffffffffffff1673ffffffffffffffffffffffffffffffffffffffff168152602001908152602001600020600083815260200190815260200160002054905092915050565b6110718383836040518060200160405280600081525061162d565b505050565b600084116110b9576040517f08c379a00000000000000000000000000000000000000000000000000000000081526004016110b0906141b7565b60405180910390fd5b814211156110fc576040517f08c379a00000000000000000000000000000000000000000000000000000000081526004016110f390614223565b60405180910390fd5b600d600084815260200190815260200160002060009054906101000a900460ff161561115d576040517f08c379a00000000000000000000000000000000000000000000000000000000081526004016111549061428f565b60405180910390fd5b6001600d600085815260200190815260200160002060006101000a81548160ff0219169083151502179055506000338585856040516020016111a29493929190614318565b60405160208183030381529060405280519060200120905060006111c582611f12565b905060006111d38285611f42565b90506111dd611531565b73ffffffffffffffffffffffffffffffffffffffff168173ffffffffffffffffffffffffffffffffffffffff161461124a576040517f08c379a0000000000000000000000000000000000000000000000000000000008152600401611241906143b2565b60405180910390fd5b60005b878110156112a7576000600c5490506001600c600082825461126f91906143d2565b925050819055506112803382611fb1565b6000600f60008381526020019081526020016000208190555050808060010191505061124d565b503373ffffffffffffffffffffffffffffffffffffffff167f0f6798a560793a54c3bcfe86a93cde1e73087d944c0ea20544137d4121396885886040516112ee91906133df565b60405180910390a250505050505050565b6000611309610b73565b821061134a576040517f08c379a000000000000000000000000000000000000000000000000000000000815260040161134190614478565b60405180910390fd5b6008828154811061135e5761135d613e19565b5b90600052602060002001549050919050565b60008061137c83611fcf565b9050600073ffffffffffffffffffffffffffffffffffffffff168173ffffffffffffffffffffffffffffffffffffffff16036113ed576040517f08c379a00000000000000000000000000000000000000000000000000000000081526004016113e4906144e4565b60405180910390fd5b80915050919050565b600d6020528060005260406000206000915054906101000a900460ff1681565b60008073ffffffffffffffffffffffffffffffffffffffff168273ffffffffffffffffffffffffffffffffffffffff1603611486576040517f08c379a000000000000000000000000000000000000000000000000000000000815260040161147d90614576565b60405180910390fd5b600360008373ffffffffffffffffffffffffffffffffffffffff1673ffffffffffffffffffffffffffffffffffffffff168152602001908152602001600020549050919050565b6114d561200c565b6114df600061208a565b565b6000601160009054906101000a900473ffffffffffffffffffffffffffffffffffffffff16905090565b601160009054906101000a900473ffffffffffffffffffffffffffffffffffffffff1681565b6000600a60009054906101000a900473ffffffffffffffffffffffffffffffffffffffff16905090565b60606001805461156a90613b18565b80601f016020809104026020016040519081016040528092919081815260200182805461159690613b18565b80156115e35780601f106115b8576101008083540402835291602001916115e3565b820191906000526020600020905b8154815290600101906020018083116115c657829003601f168201915b5050505050905090565b6000601060009054906101000a900473ffffffffffffffffffffffffffffffffffffffff16905090565b61162961162261191c565b8383612150565b5050565b61163e61163861191c565b83611b84565b61167d576040517f08c379a0000000000000000000000000000000000000000000000000000000008152600401611674906140b9565b60405180910390fd5b611689848484846122bc565b50505050565b606061169a826118d1565b60006116a4612318565b905060008151116116c457604051806020016040528060008152506116ef565b806116ce8461232f565b6040516020016116df9291906145d2565b6040516020818303038152906040525b915050919050565b600c5481565b6000600560008473ffffffffffffffffffffffffffffffffffffffff1673ffffffffffffffffffffffffffffffffffffffff16815260200190815260200160002060008373ffffffffffffffffffffffffffffffffffffffff1673ffffffffffffffffffffffffffffffffffffffff16815260200190815260200160002060009054906101000a900460ff16905092915050565b600f6020528060005260406000206000915090505481565b6117b161200c565b600073ffffffffffffffffffffffffffffffffffffffff168173ffffffffffffffffffffffffffffffffffffffff1603611820576040517f08c379a000000000000000000000000000000000000000000000000000000000815260040161181790614668565b60405180910390fd5b6118298161208a565b50565b600381565b601060009054906101000a900473ffffffffffffffffffffffffffffffffffffffff1681565b60007f780e9d63000000000000000000000000000000000000000000000000000000007bffffffffffffffffffffffffffffffffffffffffffffffffffffffff1916827bffffffffffffffffffffffffffffffffffffffffffffffffffffffff191614806118ca57506118c9826123fd565b5b9050919050565b6118da816124df565b611919576040517f08c379a0000000000000000000000000000000000000000000000000000000008152600401611910906144e4565b60405180910390fd5b50565b600033905090565b816004600083815260200190815260200160002060006101000a81548173ffffffffffffffffffffffffffffffffffffffff021916908373ffffffffffffffffffffffffffffffffffffffff160217905550808273ffffffffffffffffffffffffffffffffffffffff1661199783611370565b73ffffffffffffffffffffffffffffffffffffffff167f8c5be1e5ebec7d5bd14f71427d1e84f3dd0314c0f7b2291e5b200ac8c7c3b92560405160405180910390a45050565b6002600b5403611a22576040517f08c379a0000000000000000000000000000000000000000000000000000000008152600401611a19906146d4565b60405180910390fd5b6002600b81905550565b6000611a3782611370565b9050611a47816000846001612520565b611a5082611370565b90506004600083815260200190815260200160002060006101000a81549073ffffffffffffffffffffffffffffffffffffffff02191690556001600360008373ffffffffffffffffffffffffffffffffffffffff1673ffffffffffffffffffffffffffffffffffffffff168152602001908152602001600020600082825403925050819055506002600083815260200190815260200160002060006101000a81549073ffffffffffffffffffffffffffffffffffffffff021916905581600073ffffffffffffffffffffffffffffffffffffffff168273ffffffffffffffffffffffffffffffffffffffff167fddf252ad1be2c89b69c2b068fc378daa952ba7f163c4a11628f55a4df523b3ef60405160405180910390a4611b76816000846001612624565b5050565b6001600b81905550565b600080611b9083611370565b90508073ffffffffffffffffffffffffffffffffffffffff168473ffffffffffffffffffffffffffffffffffffffff161480611bd25750611bd181856116fd565b5b80611c1057508373ffffffffffffffffffffffffffffffffffffffff16611bf884610a16565b73ffffffffffffffffffffffffffffffffffffffff16145b91505092915050565b8273ffffffffffffffffffffffffffffffffffffffff16611c3982611370565b73ffffffffffffffffffffffffffffffffffffffff1614611c8f576040517f08c379a0000000000000000000000000000000000000000000000000000000008152600401611c8690614766565b60405180910390fd5b600073ffffffffffffffffffffffffffffffffffffffff168273ffffffffffffffffffffffffffffffffffffffff1603611cfe576040517f08c379a0000000000000000000000000000000000000000000000000000000008152600401611cf5906147f8565b60405180910390fd5b611d0b8383836001612520565b8273ffffffffffffffffffffffffffffffffffffffff16611d2b82611370565b73ffffffffffffffffffffffffffffffffffffffff1614611d81576040517f08c379a0000000000000000000000000000000000000000000000000000000008152600401611d7890614766565b60405180910390fd5b6004600082815260200190815260200160002060006101000a81549073ffffffffffffffffffffffffffffffffffffffff02191690556001600360008573ffffffffffffffffffffffffffffffffffffffff1673ffffffffffffffffffffffffffffffffffffffff168152602001908152602001600020600082825403925050819055506001600360008473ffffffffffffffffffffffffffffffffffffffff1673ffffffffffffffffffffffffffffffffffffffff16815260200190815260200160002060008282540192505081905550816002600083815260200190815260200160002060006101000a81548173ffffffffffffffffffffffffffffffffffffffff021916908373ffffffffffffffffffffffffffffffffffffffff160217905550808273ffffffffffffffffffffffffffffffffffffffff168473ffffffffffffffffffffffffffffffffffffffff167fddf252ad1be2c89b69c2b068fc378daa952ba7f163c4a11628f55a4df523b3ef60405160405180910390a4611f0d8383836001612624565b505050565b600081604051602001611f25919061488f565b604051602081830303815290604052805190602001209050919050565b600080600080611f518561262a565b92509250925060018682858560405160008152602001604052604051611f7a94939291906148e0565b6020604051602081039080840390855afa158015611f9c573d6000803e3d6000fd5b50505060206040510351935050505092915050565b611fcb828260405180602001604052806000815250612692565b5050565b60006002600083815260200190815260200160002060009054906101000a900473ffffffffffffffffffffffffffffffffffffffff169050919050565b61201461191c565b73ffffffffffffffffffffffffffffffffffffffff16612032611531565b73ffffffffffffffffffffffffffffffffffffffff1614612088576040517f08c379a000000000000000000000000000000000000000000000000000000000815260040161207f90614971565b60405180910390fd5b565b6000600a60009054906101000a900473ffffffffffffffffffffffffffffffffffffffff16905081600a60006101000a81548173ffffffffffffffffffffffffffffffffffffffff021916908373ffffffffffffffffffffffffffffffffffffffff1602179055508173ffffffffffffffffffffffffffffffffffffffff168173ffffffffffffffffffffffffffffffffffffffff167f8be0079c531659141344cd1fd0a4f28419497f9722a3daafe3b4186f6b6457e060405160405180910390a35050565b8173ffffffffffffffffffffffffffffffffffffffff168373ffffffffffffffffffffffffffffffffffffffff16036121be576040517f08c379a00000000000000000000000000000000000000000000000000000000081526004016121b5906149dd565b60405180910390fd5b80600560008573ffffffffffffffffffffffffffffffffffffffff1673ffffffffffffffffffffffffffffffffffffffff16815260200190815260200160002060008473ffffffffffffffffffffffffffffffffffffffff1673ffffffffffffffffffffffffffffffffffffffff16815260200190815260200160002060006101000a81548160ff0219169083151502179055508173ffffffffffffffffffffffffffffffffffffffff168373ffffffffffffffffffffffffffffffffffffffff167f17307eab39ab6107e8899845ad3d59bd9653f200f220920489ca2b5937696c31836040516122af919061349a565b60405180910390a3505050565b6122c7848484611c19565b6122d3848484846126ed565b612312576040517f08c379a000000000000000000000000000000000000000000000000000000000815260040161230990614a6f565b60405180910390fd5b50505050565b606060405180602001604052806000815250905090565b60606000600161233e84612874565b01905060008167ffffffffffffffff81111561235d5761235c613729565b5b6040519080825280601f01601f19166020018201604052801561238f5781602001600182028036833780820191505090505b509050600082602001820190505b6001156123f2578080600190039150507f3031323334353637383961626364656600000000000000000000000000000000600a86061a8153600a85816123e6576123e5613306565b5b0494506000850361239d575b819350505050919050565b60007f80ac58cd000000000000000000000000000000000000000000000000000000007bffffffffffffffffffffffffffffffffffffffffffffffffffffffff1916827bffffffffffffffffffffffffffffffffffffffffffffffffffffffff191614806124c857507f5b5e139f000000000000000000000000000000000000000000000000000000007bffffffffffffffffffffffffffffffffffffffffffffffffffffffff1916827bffffffffffffffffffffffffffffffffffffffffffffffffffffffff1916145b806124d857506124d7826129c7565b5b9050919050565b60008073ffffffffffffffffffffffffffffffffffffffff1661250183611fcf565b73ffffffffffffffffffffffffffffffffffffffff1614159050919050565b61252c84848484612a31565b600073ffffffffffffffffffffffffffffffffffffffff168473ffffffffffffffffffffffffffffffffffffffff16141580156125965750600073ffffffffffffffffffffffffffffffffffffffff168373ffffffffffffffffffffffffffffffffffffffff1614155b1561261e576001600f600084815260200190815260200160002060008282546125bf91906143d2565b925050819055506003600f600084815260200190815260200160002054111561261d576040517f08c379a000000000000000000000000000000000000000000000000000000000815260040161261490614b01565b60405180910390fd5b5b50505050565b50505050565b60008060006041845114612673576040517f08c379a000000000000000000000000000000000000000000000000000000000815260040161266a90614b6d565b60405180910390fd5b6020840151925060408401519150606084015160001a90509193909250565b61269c8383612b8f565b6126a960008484846126ed565b6126e8576040517f08c379a00000000000000000000000000000000000000000000000000000000081526004016126df90614a6f565b60405180910390fd5b505050565b600061270e8473ffffffffffffffffffffffffffffffffffffffff16612dac565b15612867578373ffffffffffffffffffffffffffffffffffffffff1663150b7a0261273761191c565b8786866040518563ffffffff1660e01b81526004016127599493929190614be2565b6020604051808303816000875af192505050801561279557506040513d601f19601f820116820180604052508101906127929190614c43565b60015b612817573d80600081146127c5576040519150601f19603f3d011682016040523d82523d6000602084013e6127ca565b606091505b50600081510361280f576040517f08c379a000000000000000000000000000000000000000000000000000000000815260040161280690614a6f565b60405180910390fd5b805181602001fd5b63150b7a0260e01b7bffffffffffffffffffffffffffffffffffffffffffffffffffffffff1916817bffffffffffffffffffffffffffffffffffffffffffffffffffffffff19161491505061286c565b600190505b949350505050565b600080600090507a184f03e93ff9f4daa797ed6e38ed64bf6a1f01000000000000000083106128d2577a184f03e93ff9f4daa797ed6e38ed64bf6a1f01000000000000000083816128c8576128c7613306565b5b0492506040810190505b6d04ee2d6d415b85acef8100000000831061290f576d04ee2d6d415b85acef8100000000838161290557612904613306565b5b0492506020810190505b662386f26fc10000831061293e57662386f26fc10000838161293457612933613306565b5b0492506010810190505b6305f5e1008310612967576305f5e100838161295d5761295c613306565b5b0492506008810190505b612710831061298c57612710838161298257612981613306565b5b0492506004810190505b606483106129af57606483816129a5576129a4613306565b5b0492506002810190505b600a83106129be576001810190505b80915050919050565b60007f01ffc9a7000000000000000000000000000000000000000000000000000000007bffffffffffffffffffffffffffffffffffffffffffffffffffffffff1916827bffffffffffffffffffffffffffffffffffffffffffffffffffffffff1916149050919050565b612a3d84848484612dcf565b6001811115612a81576040517f08c379a0000000000000000000000000000000000000000000000000000000008152600401612a7890614ce2565b60405180910390fd5b6000829050600073ffffffffffffffffffffffffffffffffffffffff168573ffffffffffffffffffffffffffffffffffffffff1603612ac857612ac381612dd5565b612b07565b8373ffffffffffffffffffffffffffffffffffffffff168573ffffffffffffffffffffffffffffffffffffffff1614612b0657612b058582612e1e565b5b5b600073ffffffffffffffffffffffffffffffffffffffff168473ffffffffffffffffffffffffffffffffffffffff1603612b4957612b4481612f8b565b612b88565b8473ffffffffffffffffffffffffffffffffffffffff168473ffffffffffffffffffffffffffffffffffffffff1614612b8757612b86848261305c565b5b5b5050505050565b600073ffffffffffffffffffffffffffffffffffffffff168273ffffffffffffffffffffffffffffffffffffffff1603612bfe576040517f08c379a0000000000000000000000000000000000000000000000000000000008152600401612bf590614d4e565b60405180910390fd5b612c07816124df565b15612c47576040517f08c379a0000000000000000000000000000000000000000000000000000000008152600401612c3e90614dba565b60405180910390fd5b612c55600083836001612520565b612c5e816124df565b15612c9e576040517f08c379a0000000000000000000000000000000000000000000000000000000008152600401612c9590614dba565b60405180910390fd5b6001600360008473ffffffffffffffffffffffffffffffffffffffff1673ffffffffffffffffffffffffffffffffffffffff16815260200190815260200160002060008282540192505081905550816002600083815260200190815260200160002060006101000a81548173ffffffffffffffffffffffffffffffffffffffff021916908373ffffffffffffffffffffffffffffffffffffffff160217905550808273ffffffffffffffffffffffffffffffffffffffff16600073ffffffffffffffffffffffffffffffffffffffff167fddf252ad1be2c89b69c2b068fc378daa952ba7f163c4a11628f55a4df523b3ef60405160405180910390a4612da8600083836001612624565b5050565b6000808273ffffffffffffffffffffffffffffffffffffffff163b119050919050565b50505050565b6008805490506009600083815260200190815260200160002081905550600881908060018154018082558091505060019003906000526020600020016000909190919091505550565b60006001612e2b84611416565b612e359190614dda565b9050600060076000848152602001908152602001600020549050818114612f1a576000600660008673ffffffffffffffffffffffffffffffffffffffff1673ffffffffffffffffffffffffffffffffffffffff168152602001908152602001600020600084815260200190815260200160002054905080600660008773ffffffffffffffffffffffffffffffffffffffff1673ffffffffffffffffffffffffffffffffffffffff168152602001908152602001600020600084815260200190815260200160002081905550816007600083815260200190815260200160002081905550505b6007600084815260200190815260200160002060009055600660008573ffffffffffffffffffffffffffffffffffffffff1673ffffffffffffffffffffffffffffffffffffffff16815260200190815260200160002060008381526020019081526020016000206000905550505050565b60006001600880549050612f9f9190614dda565b9050600060096000848152602001908152602001600020549050600060088381548110612fcf57612fce613e19565b5b906000526020600020015490508060088381548110612ff157612ff0613e19565b5b9060005260206000200181905550816009600083815260200190815260200160002081905550600960008581526020019081526020016000206000905560088054806130405761303f614e0e565b5b6001900381819060005260206000200160009055905550505050565b600061306783611416565b905081600660008573ffffffffffffffffffffffffffffffffffffffff1673ffffffffffffffffffffffffffffffffffffffff168152602001908152602001600020600083815260200190815260200160002081905550806007600084815260200190815260200160002081905550505050565b6000604051905090565b600080fd5b600080fd5b600069ffffffffffffffffffff82169050919050565b61310e816130ef565b811461311957600080fd5b50565b60008151905061312b81613105565b92915050565b6000819050919050565b61314481613131565b811461314f57600080fd5b50565b6000815190506131618161313b565b92915050565b6000819050919050565b61317a81613167565b811461318557600080fd5b50565b60008151905061319781613171565b92915050565b600080600080600060a086880312156131b9576131b86130e5565b5b60006131c78882890161311c565b95505060206131d888828901613152565b94505060406131e988828901613188565b93505060606131fa88828901613188565b925050608061320b8882890161311c565b9150509295509295909350565b600082825260208201905092915050565b7f496e76616c69642070726963652066726f6d20436861696e6c696e6b00000000600082015250565b600061325f601c83613218565b915061326a82613229565b602082019050919050565b6000602082019050818103600083015261328e81613252565b9050919050565b7f4e487b7100000000000000000000000000000000000000000000000000000000600052601160045260246000fd5b60006132cf82613167565b91506132da83613167565b92508282026132e881613167565b915082820484148315176132ff576132fe613295565b5b5092915050565b7f4e487b7100000000000000000000000000000000000000000000000000000000600052601260045260246000fd5b600061334082613167565b915061334b83613167565b92508261335b5761335a613306565b5b828204905092915050565b600073ffffffffffffffffffffffffffffffffffffffff82169050919050565b600061339182613366565b9050919050565b6133a181613386565b82525050565b6133b081613167565b82525050565b60006040820190506133cb6000830185613398565b6133d860208301846133a7565b9392505050565b60006020820190506133f460008301846133a7565b92915050565b60007fffffffff0000000000000000000000000000000000000000000000000000000082169050919050565b61342f816133fa565b811461343a57600080fd5b50565b60008135905061344c81613426565b92915050565b600060208284031215613468576134676130e5565b5b60006134768482850161343d565b91505092915050565b60008115159050919050565b6134948161347f565b82525050565b60006020820190506134af600083018461348b565b92915050565b600081519050919050565b60005b838110156134de5780820151818401526020810190506134c3565b60008484015250505050565b6000601f19601f8301169050919050565b6000613506826134b5565b6135108185613218565b93506135208185602086016134c0565b613529816134ea565b840191505092915050565b6000602082019050818103600083015261354e81846134fb565b905092915050565b60008135905061356581613171565b92915050565b600060208284031215613581576135806130e5565b5b600061358f84828501613556565b91505092915050565b60006020820190506135ad6000830184613398565b92915050565b6135bc81613386565b81146135c757600080fd5b50565b6000813590506135d9816135b3565b92915050565b600080604083850312156135f6576135f56130e5565b5b6000613604858286016135ca565b925050602061361585828601613556565b9150509250929050565b600080fd5b600080fd5b600080fd5b60008083601f8401126136445761364361361f565b5b8235905067ffffffffffffffff81111561366157613660613624565b5b60208301915083602082028301111561367d5761367c613629565b5b9250929050565b6000806020838503121561369b5761369a6130e5565b5b600083013567ffffffffffffffff8111156136b9576136b86130ea565b5b6136c58582860161362e565b92509250509250929050565b6000806000606084860312156136ea576136e96130e5565b5b60006136f8868287016135ca565b9350506020613709868287016135ca565b925050604061371a86828701613556565b9150509250925092565b600080fd5b7f4e487b7100000000000000000000000000000000000000000000000000000000600052604160045260246000fd5b613761826134ea565b810181811067ffffffffffffffff821117156137805761377f613729565b5b80604052505050565b60006137936130db565b905061379f8282613758565b919050565b600067ffffffffffffffff8211156137bf576137be613729565b5b6137c8826134ea565b9050602081019050919050565b82818337600083830152505050565b60006137f76137f2846137a4565b613789565b90508281526020810184848401111561381357613812613724565b5b61381e8482856137d5565b509392505050565b600082601f83011261383b5761383a61361f565b5b813561384b8482602086016137e4565b91505092915050565b6000806000806080858703121561386e5761386d6130e5565b5b600061387c87828801613556565b945050602061388d87828801613556565b935050604061389e87828801613556565b925050606085013567ffffffffffffffff8111156138bf576138be6130ea565b5b6138cb87828801613826565b91505092959194509250565b6000602082840312156138ed576138ec6130e5565b5b60006138fb848285016135ca565b91505092915050565b6000819050919050565b600061392961392461391f84613366565b613904565b613366565b9050919050565b600061393b8261390e565b9050919050565b600061394d82613930565b9050919050565b61395d81613942565b82525050565b60006020820190506139786000830184613954565b92915050565b6139878161347f565b811461399257600080fd5b50565b6000813590506139a48161397e565b92915050565b600080604083850312156139c1576139c06130e5565b5b60006139cf858286016135ca565b92505060206139e085828601613995565b9150509250929050565b60008060008060808587031215613a0457613a036130e5565b5b6000613a12878288016135ca565b9450506020613a23878288016135ca565b9350506040613a3487828801613556565b925050606085013567ffffffffffffffff811115613a5557613a546130ea565b5b613a6187828801613826565b91505092959194509250565b60008060408385031215613a8457613a836130e5565b5b6000613a92858286016135ca565b9250506020613aa3858286016135ca565b9150509250929050565b6000613ab882613930565b9050919050565b613ac881613aad565b82525050565b6000602082019050613ae36000830184613abf565b92915050565b7f4e487b7100000000000000000000000000000000000000000000000000000000600052602260045260246000fd5b60006002820490506001821680613b3057607f821691505b602082108103613b4357613b42613ae9565b5b50919050565b7f4552433732313a20617070726f76616c20746f2063757272656e74206f776e6560008201527f7200000000000000000000000000000000000000000000000000000000000000602082015250565b6000613ba5602183613218565b9150613bb082613b49565b604082019050919050565b60006020820190508181036000830152613bd481613b98565b9050919050565b7f4552433732313a20617070726f76652063616c6c6572206973206e6f7420746f60008201527f6b656e206f776e6572206f7220617070726f76656420666f7220616c6c000000602082015250565b6000613c37603d83613218565b9150613c4282613bdb565b604082019050919050565b60006020820190508181036000830152613c6681613c2a565b9050919050565b7f4e6f20746f6b656e732070726f76696465642e00000000000000000000000000600082015250565b6000613ca3601383613218565b9150613cae82613c6d565b602082019050919050565b60006020820190508181036000830152613cd281613c96565b9050919050565b600081519050613ce88161397e565b92915050565b600060208284031215613d0457613d036130e5565b5b6000613d1284828501613cd9565b91505092915050565b7f4d75737420686f6c6420612076616c6964204d65726368616e7420546f6b656e60008201527f2e00000000000000000000000000000000000000000000000000000000000000602082015250565b6000613d77602183613218565b9150613d8282613d1b565b604082019050919050565b60006020820190508181036000830152613da681613d6a565b9050919050565b7f4e6f7420656e6f7567682045544820696e20636f6e74726163742e0000000000600082015250565b6000613de3601b83613218565b9150613dee82613dad565b602082019050919050565b60006020820190508181036000830152613e1281613dd6565b9050919050565b7f4e487b7100000000000000000000000000000000000000000000000000000000600052603260045260246000fd5b7f43616c6c6572206d757374206f776e20616c6c20746f6b656e73206265696e6760008201527f2072656465656d65642e00000000000000000000000000000000000000000000602082015250565b6000613ea4602a83613218565b9150613eaf82613e48565b604082019050919050565b60006020820190508181036000830152613ed381613e97565b9050919050565b7f546f6b656e20686173206265656e20696e76616c69646174656420647565207460008201527f6f20746f6f206d616e79207472616e73666572732e0000000000000000000000602082015250565b6000613f36603583613218565b9150613f4182613eda565b604082019050919050565b60006020820190508181036000830152613f6581613f29565b9050919050565b600081905092915050565b50565b6000613f87600083613f6c565b9150613f9282613f77565b600082019050919050565b6000613fa882613f7a565b9150819050919050565b7f5472616e73666572206661696c65640000000000000000000000000000000000600082015250565b6000613fe8600f83613218565b9150613ff382613fb2565b602082019050919050565b6000602082019050818103600083015261401781613fdb565b9050919050565b600060408201905061403360008301856133a7565b61404060208301846133a7565b9392505050565b7f4552433732313a2063616c6c6572206973206e6f7420746f6b656e206f776e6560008201527f72206f7220617070726f76656400000000000000000000000000000000000000602082015250565b60006140a3602d83613218565b91506140ae82614047565b604082019050919050565b600060208201905081810360008301526140d281614096565b9050919050565b7f455243373231456e756d657261626c653a206f776e657220696e646578206f7560008201527f74206f6620626f756e6473000000000000000000000000000000000000000000602082015250565b6000614135602b83613218565b9150614140826140d9565b604082019050919050565b6000602082019050818103600083015261416481614128565b9050919050565b7f416d6f756e74206d7573742062652067726561746572207468616e207a65726f600082015250565b60006141a1602083613218565b91506141ac8261416b565b602082019050919050565b600060208201905081810360008301526141d081614194565b9050919050565b7f5369676e61747572652065787069726564000000000000000000000000000000600082015250565b600061420d601183613218565b9150614218826141d7565b602082019050919050565b6000602082019050818103600083015261423c81614200565b9050919050565b7f4e6f6e636520616c726561647920757365640000000000000000000000000000600082015250565b6000614279601283613218565b915061428482614243565b602082019050919050565b600060208201905081810360008301526142a88161426c565b9050919050565b60008160601b9050919050565b60006142c7826142af565b9050919050565b60006142d9826142bc565b9050919050565b6142f16142ec82613386565b6142ce565b82525050565b6000819050919050565b61431261430d82613167565b6142f7565b82525050565b600061432482876142e0565b6014820191506143348286614301565b6020820191506143448285614301565b6020820191506143548284614301565b60208201915081905095945050505050565b7f496e76616c6964207369676e6174757265000000000000000000000000000000600082015250565b600061439c601183613218565b91506143a782614366565b602082019050919050565b600060208201905081810360008301526143cb8161438f565b9050919050565b60006143dd82613167565b91506143e883613167565b9250828201905080821115614400576143ff613295565b5b92915050565b7f455243373231456e756d657261626c653a20676c6f62616c20696e646578206f60008201527f7574206f6620626f756e64730000000000000000000000000000000000000000602082015250565b6000614462602c83613218565b915061446d82614406565b604082019050919050565b6000602082019050818103600083015261449181614455565b9050919050565b7f4552433732313a20696e76616c696420746f6b656e2049440000000000000000600082015250565b60006144ce601883613218565b91506144d982614498565b602082019050919050565b600060208201905081810360008301526144fd816144c1565b9050919050565b7f4552433732313a2061646472657373207a65726f206973206e6f74206120766160008201527f6c6964206f776e65720000000000000000000000000000000000000000000000602082015250565b6000614560602983613218565b915061456b82614504565b604082019050919050565b6000602082019050818103600083015261458f81614553565b9050919050565b600081905092915050565b60006145ac826134b5565b6145b68185614596565b93506145c68185602086016134c0565b80840191505092915050565b60006145de82856145a1565b91506145ea82846145a1565b91508190509392505050565b7f4f776e61626c653a206e6577206f776e657220697320746865207a65726f206160008201527f6464726573730000000000000000000000000000000000000000000000000000602082015250565b6000614652602683613218565b915061465d826145f6565b604082019050919050565b6000602082019050818103600083015261468181614645565b9050919050565b7f5265656e7472616e637947756172643a207265656e7472616e742063616c6c00600082015250565b60006146be601f83613218565b91506146c982614688565b602082019050919050565b600060208201905081810360008301526146ed816146b1565b9050919050565b7f4552433732313a207472616e736665722066726f6d20696e636f72726563742060008201527f6f776e6572000000000000000000000000000000000000000000000000000000602082015250565b6000614750602583613218565b915061475b826146f4565b604082019050919050565b6000602082019050818103600083015261477f81614743565b9050919050565b7f4552433732313a207472616e7366657220746f20746865207a65726f2061646460008201527f7265737300000000000000000000000000000000000000000000000000000000602082015250565b60006147e2602483613218565b91506147ed82614786565b604082019050919050565b60006020820190508181036000830152614811816147d5565b9050919050565b7f19457468657265756d205369676e6564204d6573736167653a0a333200000000600082015250565b600061484e601c83614596565b915061485982614818565b601c82019050919050565b6000819050919050565b6000819050919050565b61488961488482614864565b61486e565b82525050565b600061489a82614841565b91506148a68284614878565b60208201915081905092915050565b6148be81614864565b82525050565b600060ff82169050919050565b6148da816148c4565b82525050565b60006080820190506148f560008301876148b5565b61490260208301866148d1565b61490f60408301856148b5565b61491c60608301846148b5565b95945050505050565b7f4f776e61626c653a2063616c6c6572206973206e6f7420746865206f776e6572600082015250565b600061495b602083613218565b915061496682614925565b602082019050919050565b6000602082019050818103600083015261498a8161494e565b9050919050565b7f4552433732313a20617070726f766520746f2063616c6c657200000000000000600082015250565b60006149c7601983613218565b91506149d282614991565b602082019050919050565b600060208201905081810360008301526149f6816149ba565b9050919050565b7f4552433732313a207472616e7366657220746f206e6f6e20455243373231526560008201527f63656976657220696d706c656d656e7465720000000000000000000000000000602082015250565b6000614a59603283613218565b9150614a64826149fd565b604082019050919050565b60006020820190508181036000830152614a8881614a4c565b9050919050565b7f546f6b656e207472616e7366657220636f756e74206578636565646564206c6960008201527f6d69742c20746f6b656e206973206e6f7720696e76616c6964617465642e0000602082015250565b6000614aeb603e83613218565b9150614af682614a8f565b604082019050919050565b60006020820190508181036000830152614b1a81614ade565b9050919050565b7f496e76616c6964207369676e6174757265206c656e6774680000000000000000600082015250565b6000614b57601883613218565b9150614b6282614b21565b602082019050919050565b60006020820190508181036000830152614b8681614b4a565b9050919050565b600081519050919050565b600082825260208201905092915050565b6000614bb482614b8d565b614bbe8185614b98565b9350614bce8185602086016134c0565b614bd7816134ea565b840191505092915050565b6000608082019050614bf76000830187613398565b614c046020830186613398565b614c1160408301856133a7565b8181036060830152614c238184614ba9565b905095945050505050565b600081519050614c3d81613426565b92915050565b600060208284031215614c5957614c586130e5565b5b6000614c6784828501614c2e565b91505092915050565b7f455243373231456e756d657261626c653a20636f6e736563757469766520747260008201527f616e7366657273206e6f7420737570706f727465640000000000000000000000602082015250565b6000614ccc603583613218565b9150614cd782614c70565b604082019050919050565b60006020820190508181036000830152614cfb81614cbf565b9050919050565b7f4552433732313a206d696e7420746f20746865207a65726f2061646472657373600082015250565b6000614d38602083613218565b9150614d4382614d02565b602082019050919050565b60006020820190508181036000830152614d6781614d2b565b9050919050565b7f4552433732313a20746f6b656e20616c7265616479206d696e74656400000000600082015250565b6000614da4601c83613218565b9150614daf82614d6e565b602082019050919050565b60006020820190508181036000830152614dd381614d97565b9050919050565b6000614de582613167565b9150614df083613167565b9250828203905081811115614e0857614e07613295565b5b92915050565b7f4e487b7100000000000000000000000000000000000000000000000000000000600052603160045260246000fdfea26469706673582212208b3595cc82c548b1cd7e5eaa8bb3482d7300c7fe7a962144da047ac22903ec0764736f6c634300081b0033608060405234801561001057600080fd5b506040518060400160405280601081526020017f4f4c4d2052657761726420546f6b656e000000000000000000000000000000008152506040518060400160405280600581526020017f4f4c4d5254000000000000000000000000000000000000000000000000000000815250816003908161008c91906103de565b50806004908161009c91906103de565b5050506100bb6100b06100c060201b60201c565b6100c860201b60201c565b6104b0565b600033905090565b6000600560009054906101000a900473ffffffffffffffffffffffffffffffffffffffff16905081600560006101000a81548173ffffffffffffffffffffffffffffffffffffffff021916908373ffffffffffffffffffffffffffffffffffffffff1602179055508173ffffffffffffffffffffffffffffffffffffffff168173ffffffffffffffffffffffffffffffffffffffff167f8be0079c531659141344cd1fd0a4f28419497f9722a3daafe3b4186f6b6457e060405160405180910390a35050565b600081519050919050565b7f4e487b7100000000000000000000000000000000000000000000000000000000600052604160045260246000fd5b7f4e487b7100000000000000000000000000000000000000000000000000000000600052602260045260246000fd5b6000600282049050600182168061020f57607f821691505b602082108103610222576102216101c8565b5b50919050565b60008190508160005260206000209050919050565b60006020601f8301049050919050565b600082821b905092915050565b60006008830261028a7fffffffffffffffffffffffffffffffffffffffffffffffffffffffffffffffff8261024d565b610294868361024d565b95508019841693508086168417925050509392505050565b6000819050919050565b6000819050919050565b60006102db6102d66102d1846102ac565b6102b6565b6102ac565b9050919050565b6000819050919050565b6102f5836102c0565b610309610301826102e2565b84845461025a565b825550505050565b600090565b61031e610311565b6103298184846102ec565b505050565b5b8181101561034d57610342600082610316565b60018101905061032f565b5050565b601f8211156103925761036381610228565b61036c8461023d565b8101602085101561037b578190505b61038f6103878561023d565b83018261032e565b50505b505050565b600082821c905092915050565b60006103b560001984600802610397565b1980831691505092915050565b60006103ce83836103a4565b9150826002028217905092915050565b6103e78261018e565b67ffffffffffffffff811115610400576103ff610199565b5b61040a82546101f7565b610415828285610351565b600060209050601f8311600181146104485760008415610436578287015190505b61044085826103c2565b8655506104a8565b601f19841661045686610228565b60005b8281101561047e57848901518255600182019150602085019450602081019050610459565b8683101561049b5784890151610497601f8916826103a4565b8355505b6001600288020188555050505b505050505050565b6117e0806104bf6000396000f3fe608060405234801561001057600080fd5b50600436106100f55760003560e01c806370a0823111610097578063a457c2d711610066578063a457c2d714610276578063a9059cbb146102a6578063dd62ed3e146102d6578063f2fde38b14610306576100f5565b806370a0823114610200578063715018a6146102305780638da5cb5b1461023a57806395d89b4114610258576100f5565b806323b872dd116100d357806323b872dd14610166578063313ce5671461019657806339509351146101b457806340c10f19146101e4576100f5565b806306fdde03146100fa578063095ea7b31461011857806318160ddd14610148575b600080fd5b610102610322565b60405161010f9190610f29565b60405180910390f35b610132600480360381019061012d9190610fe4565b6103b4565b60405161013f919061103f565b60405180910390f35b6101506103d7565b60405161015d9190611069565b60405180910390f35b610180600480360381019061017b9190611084565b6103e1565b60405161018d919061103f565b60405180910390f35b61019e610410565b6040516101ab91906110f3565b60405180910390f35b6101ce60048036038101906101c99190610fe4565b610419565b6040516101db919061103f565b60405180910390f35b6101fe60048036038101906101f99190610fe4565b610450565b005b61021a6004803603810190610215919061110e565b610466565b6040516102279190611069565b60405180910390f35b6102386104ae565b005b6102426104c2565b60405161024f919061114a565b60405180910390f35b6102606104ec565b60405161026d9190610f29565b60405180910390f35b610290600480360381019061028b9190610fe4565b61057e565b60405161029d919061103f565b60405180910390f35b6102c060048036038101906102bb9190610fe4565b6105f5565b6040516102cd919061103f565b60405180910390f35b6102f060048036038101906102eb9190611165565b610618565b6040516102fd9190611069565b60405180910390f35b610320600480360381019061031b919061110e565b61069f565b005b606060038054610331906111d4565b80601f016020809104026020016040519081016040528092919081815260200182805461035d906111d4565b80156103aa5780601f1061037f576101008083540402835291602001916103aa565b820191906000526020600020905b81548152906001019060200180831161038d57829003601f168201915b5050505050905090565b6000806103bf610722565b90506103cc81858561072a565b600191505092915050565b6000600254905090565b6000806103ec610722565b90506103f98582856108f3565b61040485858561097f565b60019150509392505050565b60006012905090565b600080610424610722565b90506104458185856104368589610618565b6104409190611234565b61072a565b600191505092915050565b610458610bf5565b6104628282610c73565b5050565b60008060008373ffffffffffffffffffffffffffffffffffffffff1673ffffffffffffffffffffffffffffffffffffffff168152602001908152602001600020549050919050565b6104b6610bf5565b6104c06000610dc9565b565b6000600560009054906101000a900473ffffffffffffffffffffffffffffffffffffffff16905090565b6060600480546104fb906111d4565b80601f0160208091040260200160405190810160405280929190818152602001828054610527906111d4565b80156105745780601f1061054957610100808354040283529160200191610574565b820191906000526020600020905b81548152906001019060200180831161055757829003601f168201915b5050505050905090565b600080610589610722565b905060006105978286610618565b9050838110156105dc576040517f08c379a00000000000000000000000000000000000000000000000000000000081526004016105d3906112da565b60405180910390fd5b6105e9828686840361072a565b60019250505092915050565b600080610600610722565b905061060d81858561097f565b600191505092915050565b6000600160008473ffffffffffffffffffffffffffffffffffffffff1673ffffffffffffffffffffffffffffffffffffffff16815260200190815260200160002060008373ffffffffffffffffffffffffffffffffffffffff1673ffffffffffffffffffffffffffffffffffffffff16815260200190815260200160002054905092915050565b6106a7610bf5565b600073ffffffffffffffffffffffffffffffffffffffff168173ffffffffffffffffffffffffffffffffffffffff1603610716576040517f08c379a000000000000000000000000000000000000000000000000000000000815260040161070d9061136c565b60405180910390fd5b61071f81610dc9565b50565b600033905090565b600073ffffffffffffffffffffffffffffffffffffffff168373ffffffffffffffffffffffffffffffffffffffff1603610799576040517f08c379a0000000000000000000000000000000000000000000000000000000008152600401610790906113fe565b60405180910390fd5b600073ffffffffffffffffffffffffffffffffffffffff168273ffffffffffffffffffffffffffffffffffffffff1603610808576040517f08c379a00000000000000000000000000000000000000000000000000000000081526004016107ff90611490565b60405180910390fd5b80600160008573ffffffffffffffffffffffffffffffffffffffff1673ffffffffffffffffffffffffffffffffffffffff16815260200190815260200160002060008473ffffffffffffffffffffffffffffffffffffffff1673ffffffffffffffffffffffffffffffffffffffff168152602001908152602001600020819055508173ffffffffffffffffffffffffffffffffffffffff168373ffffffffffffffffffffffffffffffffffffffff167f8c5be1e5ebec7d5bd14f71427d1e84f3dd0314c0f7b2291e5b200ac8c7c3b925836040516108e69190611069565b60405180910390a3505050565b60006108ff8484610618565b90507fffffffffffffffffffffffffffffffffffffffffffffffffffffffffffffffff8114610979578181101561096b576040517f08c379a0000000000000000000000000000000000000000000000000000000008152600401610962906114fc565b60405180910390fd5b610978848484840361072a565b5b50505050565b600073ffffffffffffffffffffffffffffffffffffffff168373ffffffffffffffffffffffffffffffffffffffff16036109ee576040517f08c379a00000000000000000000000000000000000000000000000000000000081526004016109e59061158e565b60405180910390fd5b600073ffffffffffffffffffffffffffffffffffffffff168273ffffffffffffffffffffffffffffffffffffffff1603610a5d576040517f08c379a0000000000000000000000000000000000000000000000000000000008152600401610a5490611620565b60405180910390fd5b610a68838383610e8f565b60008060008573ffffffffffffffffffffffffffffffffffffffff1673ffffffffffffffffffffffffffffffffffffffff16815260200190815260200160002054905081811015610aee576040517f08c379a0000000000000000000000000000000000000000000000000000000008152600401610ae5906116b2565b60405180910390fd5b8181036000808673ffffffffffffffffffffffffffffffffffffffff1673ffffffffffffffffffffffffffffffffffffffff16815260200190815260200160002081905550816000808573ffffffffffffffffffffffffffffffffffffffff1673ffffffffffffffffffffffffffffffffffffffff168152602001908152602001600020600082825401925050819055508273ffffffffffffffffffffffffffffffffffffffff168473ffffffffffffffffffffffffffffffffffffffff167fddf252ad1be2c89b69c2b068fc378daa952ba7f163c4a11628f55a4df523b3ef84604051610bdc9190611069565b60405180910390a3610bef848484610e94565b50505050565b610bfd610722565b73ffffffffffffffffffffffffffffffffffffffff16610c1b6104c2565b73ffffffffffffffffffffffffffffffffffffffff1614610c71576040517f08c379a0000000000000000000000000000000000000000000000000000000008152600401610c689061171e565b60405180910390fd5b565b600073ffffffffffffffffffffffffffffffffffffffff168273ffffffffffffffffffffffffffffffffffffffff1603610ce2576040517f08c379a0000000000000000000000000000000000000000000000000000000008152600401610cd99061178a565b60405180910390fd5b610cee60008383610e8f565b8060026000828254610d009190611234565b92505081905550806000808473ffffffffffffffffffffffffffffffffffffffff1673ffffffffffffffffffffffffffffffffffffffff168152602001908152602001600020600082825401925050819055508173ffffffffffffffffffffffffffffffffffffffff16600073ffffffffffffffffffffffffffffffffffffffff167fddf252ad1be2c89b69c2b068fc378daa952ba7f163c4a11628f55a4df523b3ef83604051610db19190611069565b60405180910390a3610dc560008383610e94565b5050565b6000600560009054906101000a900473ffffffffffffffffffffffffffffffffffffffff16905081600560006101000a81548173ffffffffffffffffffffffffffffffffffffffff021916908373ffffffffffffffffffffffffffffffffffffffff1602179055508173ffffffffffffffffffffffffffffffffffffffff168173ffffffffffffffffffffffffffffffffffffffff167f8be0079c531659141344cd1fd0a4f28419497f9722a3daafe3b4186f6b6457e060405160405180910390a35050565b505050565b505050565b600081519050919050565b600082825260208201905092915050565b60005b83811015610ed3578082015181840152602081019050610eb8565b60008484015250505050565b6000601f19601f8301169050919050565b6000610efb82610e99565b610f058185610ea4565b9350610f15818560208601610eb5565b610f1e81610edf565b840191505092915050565b60006020820190508181036000830152610f438184610ef0565b905092915050565b600080fd5b600073ffffffffffffffffffffffffffffffffffffffff82169050919050565b6000610f7b82610f50565b9050919050565b610f8b81610f70565b8114610f9657600080fd5b50565b600081359050610fa881610f82565b92915050565b6000819050919050565b610fc181610fae565b8114610fcc57600080fd5b50565b600081359050610fde81610fb8565b92915050565b60008060408385031215610ffb57610ffa610f4b565b5b600061100985828601610f99565b925050602061101a85828601610fcf565b9150509250929050565b60008115159050919050565b61103981611024565b82525050565b60006020820190506110546000830184611030565b92915050565b61106381610fae565b82525050565b600060208201905061107e600083018461105a565b92915050565b60008060006060848603121561109d5761109c610f4b565b5b60006110ab86828701610f99565b93505060206110bc86828701610f99565b92505060406110cd86828701610fcf565b9150509250925092565b600060ff82169050919050565b6110ed816110d7565b82525050565b600060208201905061110860008301846110e4565b92915050565b60006020828403121561112457611123610f4b565b5b600061113284828501610f99565b91505092915050565b61114481610f70565b82525050565b600060208201905061115f600083018461113b565b92915050565b6000806040838503121561117c5761117b610f4b565b5b600061118a85828601610f99565b925050602061119b85828601610f99565b9150509250929050565b7f4e487b7100000000000000000000000000000000000000000000000000000000600052602260045260246000fd5b600060028204905060018216806111ec57607f821691505b6020821081036111ff576111fe6111a5565b5b50919050565b7f4e487b7100000000000000000000000000000000000000000000000000000000600052601160045260246000fd5b600061123f82610fae565b915061124a83610fae565b925082820190508082111561126257611261611205565b5b92915050565b7f45524332303a2064656372656173656420616c6c6f77616e63652062656c6f7760008201527f207a65726f000000000000000000000000000000000000000000000000000000602082015250565b60006112c4602583610ea4565b91506112cf82611268565b604082019050919050565b600060208201905081810360008301526112f3816112b7565b9050919050565b7f4f776e61626c653a206e6577206f776e657220697320746865207a65726f206160008201527f6464726573730000000000000000000000000000000000000000000000000000602082015250565b6000611356602683610ea4565b9150611361826112fa565b604082019050919050565b6000602082019050818103600083015261138581611349565b9050919050565b7f45524332303a20617070726f76652066726f6d20746865207a65726f2061646460008201527f7265737300000000000000000000000000000000000000000000000000000000602082015250565b60006113e8602483610ea4565b91506113f38261138c565b604082019050919050565b60006020820190508181036000830152611417816113db565b9050919050565b7f45524332303a20617070726f766520746f20746865207a65726f20616464726560008201527f7373000000000000000000000000000000000000000000000000000000000000602082015250565b600061147a602283610ea4565b91506114858261141e565b604082019050919050565b600060208201905081810360008301526114a98161146d565b9050919050565b7f45524332303a20696e73756666696369656e7420616c6c6f77616e6365000000600082015250565b60006114e6601d83610ea4565b91506114f1826114b0565b602082019050919050565b60006020820190508181036000830152611515816114d9565b9050919050565b7f45524332303a207472616e736665722066726f6d20746865207a65726f20616460008201527f6472657373000000000000000000000000000000000000000000000000000000602082015250565b6000611578602583610ea4565b91506115838261151c565b604082019050919050565b600060208201905081810360008301526115a78161156b565b9050919050565b7f45524332303a207472616e7366657220746f20746865207a65726f206164647260008201527f6573730000000000000000000000000000000000000000000000000000000000602082015250565b600061160a602383610ea4565b9150611615826115ae565b604082019050919050565b60006020820190508181036000830152611639816115fd565b9050919050565b7f45524332303a207472616e7366657220616d6f756e742065786365656473206260008201527f616c616e63650000000000000000000000000000000000000000000000000000602082015250565b600061169c602683610ea4565b91506116a782611640565b604082019050919050565b600060208201905081810360008301526116cb8161168f565b9050919050565b7f4f776e61626c653a2063616c6c6572206973206e6f7420746865206f776e6572600082015250565b6000611708602083610ea4565b9150611713826116d2565b602082019050919050565b60006020820190508181036000830152611737816116fb565b9050919050565b7f45524332303a206d696e7420746f20746865207a65726f206164647265737300600082015250565b6000611774601f83610ea4565b915061177f8261173e565b602082019050919050565b600060208201905081810360008301526117a381611767565b905091905056fea2646970667358221220af20ee9085baea6d3365493d9a9c372a7cee3e7ac2647d892ac51a03d58530b864736f6c634300081b0033608060405234801561001057600080fd5b506040518060400160405280601781526020017f4c6974746572636f696e4d65726368616e74546f6b656e0000000000000000008152506040518060400160405280600481526020017f4c584d5400000000000000000000000000000000000000000000000000000000815250816000908161008c91906103e6565b50806001908161009c91906103e6565b5050506100bb6100b06100c860201b60201c565b6100d060201b60201c565b60016007819055506104b8565b600033905090565b6000600660009054906101000a900473ffffffffffffffffffffffffffffffffffffffff16905081600660006101000a81548173ffffffffffffffffffffffffffffffffffffffff021916908373ffffffffffffffffffffffffffffffffffffffff1602179055508173ffffffffffffffffffffffffffffffffffffffff168173ffffffffffffffffffffffffffffffffffffffff167f8be0079c531659141344cd1fd0a4f28419497f9722a3daafe3b4186f6b6457e060405160405180910390a35050565b600081519050919050565b7f4e487b7100000000000000000000000000000000000000000000000000000000600052604160045260246000fd5b7f4e487b7100000000000000000000000000000000000000000000000000000000600052602260045260246000fd5b6000600282049050600182168061021757607f821691505b60208210810361022a576102296101d0565b5b50919050565b60008190508160005260206000209050919050565b60006020601f8301049050919050565b600082821b905092915050565b6000600883026102927fffffffffffffffffffffffffffffffffffffffffffffffffffffffffffffffff82610255565b61029c8683610255565b95508019841693508086168417925050509392505050565b6000819050919050565b6000819050919050565b60006102e36102de6102d9846102b4565b6102be565b6102b4565b9050919050565b6000819050919050565b6102fd836102c8565b610311610309826102ea565b848454610262565b825550505050565b600090565b610326610319565b6103318184846102f4565b505050565b5b818110156103555761034a60008261031e565b600181019050610337565b5050565b601f82111561039a5761036b81610230565b61037484610245565b81016020851015610383578190505b61039761038f85610245565b830182610336565b50505b505050565b600082821c905092915050565b60006103bd6000198460080261039f565b1980831691505092915050565b60006103d683836103ac565b9150826002028217905092915050565b6103ef82610196565b67ffffffffffffffff811115610408576104076101a1565b5b61041282546101ff565b61041d828285610359565b600060209050601f831160018114610450576000841561043e578287015190505b61044885826103ca565b8655506104b0565b601f19841661045e86610230565b60005b8281101561048657848901518255600182019150602085019450602081019050610461565b868310156104a3578489015161049f601f8916826103ac565b8355505b6001600288020188555050505b505050505050565b613847806104c76000396000f3fe608060405234801561001057600080fd5b50600436106101735760003560e01c806370a08231116100de578063b88d4fde11610097578063d9e5896e11610071578063d9e5896e14610434578063e985e9c514610464578063ea55763314610494578063f2fde38b146104c457610173565b8063b88d4fde146103b8578063c87b56dd146103d4578063d9548e531461040457610173565b806370a0823114610308578063715018a6146103385780638da5cb5b146103425780639230b2bc1461036057806395d89b411461037e578063a22cb4651461039c57610173565b8063393ed91a11610130578063393ed91a1461025e57806340c10f191461027a578063425604d61461029657806342842e0e146102b257806344df8e70146102ce5780636352211e146102d857610173565b806301ffc9a71461017857806302556a29146101a857806306fdde03146101d8578063081812fc146101f6578063095ea7b31461022657806323b872dd14610242575b600080fd5b610192600480360381019061018d91906124f5565b6104e0565b60405161019f919061253d565b60405180910390f35b6101c260048036038101906101bd91906125b6565b6104f2565b6040516101cf919061253d565b60405180910390f35b6101e0610565565b6040516101ed9190612673565b60405180910390f35b610210600480360381019061020b91906126cb565b6105f7565b60405161021d9190612707565b60405180910390f35b610240600480360381019061023b9190612722565b61063d565b005b61025c60048036038101906102579190612762565b610754565b005b610278600480360381019061027391906126cb565b6107b4565b005b610294600480360381019061028f9190612722565b61089f565b005b6102b060048036038101906102ab91906127b5565b610a7f565b005b6102cc60048036038101906102c79190612762565b610b8c565b005b6102d6610bac565b005b6102f260048036038101906102ed91906126cb565b610c3f565b6040516102ff9190612707565b60405180910390f35b610322600480360381019061031d91906125b6565b610cc5565b60405161032f9190612804565b60405180910390f35b610340610d7c565b005b61034a610d90565b6040516103579190612707565b60405180910390f35b610368610dba565b6040516103759190612804565b60405180910390f35b610386610dc0565b6040516103939190612673565b60405180910390f35b6103b660048036038101906103b1919061284b565b610e52565b005b6103d260048036038101906103cd91906129c0565b610e68565b005b6103ee60048036038101906103e991906126cb565b610eca565b6040516103fb9190612673565b60405180910390f35b61041e600480360381019061041991906126cb565b610f32565b60405161042b919061253d565b60405180910390f35b61044e600480360381019061044991906126cb565b610f99565b60405161045b9190612804565b60405180910390f35b61047e60048036038101906104799190612a43565b610ffe565b60405161048b919061253d565b60405180910390f35b6104ae60048036038101906104a991906125b6565b611092565b6040516104bb9190612804565b60405180910390f35b6104de60048036038101906104d991906125b6565b611192565b005b60006104eb82611215565b9050919050565b600080600860008473ffffffffffffffffffffffffffffffffffffffff1673ffffffffffffffffffffffffffffffffffffffff168152602001908152602001600020549050600081148061054b575061054a81610f32565b5b1561055a576000915050610560565b60019150505b919050565b60606000805461057490612ab2565b80601f01602080910402602001604051908101604052809291908181526020018280546105a090612ab2565b80156105ed5780601f106105c2576101008083540402835291602001916105ed565b820191906000526020600020905b8154815290600101906020018083116105d057829003601f168201915b5050505050905090565b6000610602826112f7565b6004600083815260200190815260200160002060009054906101000a900473ffffffffffffffffffffffffffffffffffffffff169050919050565b600061064882610c3f565b90508073ffffffffffffffffffffffffffffffffffffffff168373ffffffffffffffffffffffffffffffffffffffff16036106b8576040517f08c379a00000000000000000000000000000000000000000000000000000000081526004016106af90612b55565b60405180910390fd5b8073ffffffffffffffffffffffffffffffffffffffff166106d7611342565b73ffffffffffffffffffffffffffffffffffffffff161480610706575061070581610700611342565b610ffe565b5b610745576040517f08c379a000000000000000000000000000000000000000000000000000000000815260040161073c90612be7565b60405180910390fd5b61074f838361134a565b505050565b61076561075f611342565b82611403565b6107a4576040517f08c379a000000000000000000000000000000000000000000000000000000000815260040161079b90612c79565b60405180910390fd5b6107af838383611498565b505050565b6107bc611791565b6107c58161180f565b610804576040517f08c379a00000000000000000000000000000000000000000000000000000000081526004016107fb90612ce5565b60405180910390fd5b61080d81610f32565b1561084d576040517f08c379a000000000000000000000000000000000000000000000000000000000815260040161084490612d51565b60405180910390fd5b4260096000838152602001908152602001600020819055507f754f3aa765fa1f221ea409fddea972deff6ce410d141d5cded4fc7ec690710c0816040516108949190612804565b60405180910390a150565b6108a7611791565b600073ffffffffffffffffffffffffffffffffffffffff168273ffffffffffffffffffffffffffffffffffffffff1603610916576040517f08c379a000000000000000000000000000000000000000000000000000000000815260040161090d90612dbd565b60405180910390fd5b428111610958576040517f08c379a000000000000000000000000000000000000000000000000000000000815260040161094f90612e4f565b60405180910390fd5b600061096383610cc5565b146109a3576040517f08c379a000000000000000000000000000000000000000000000000000000000815260040161099a90612ebb565b60405180910390fd5b600060075490506001600760008282546109bd9190612f0a565b925050819055508160096000838152602001908152602001600020819055506109e68382611850565b80600860008573ffffffffffffffffffffffffffffffffffffffff1673ffffffffffffffffffffffffffffffffffffffff168152602001908152602001600020819055508273ffffffffffffffffffffffffffffffffffffffff167f655ff37b06d138fc26fda07d435a40368e63b8d3cbd7835215334ff9e7fcd7828284604051610a72929190612f3e565b60405180910390a2505050565b610a87611791565b610a908261180f565b610acf576040517f08c379a0000000000000000000000000000000000000000000000000000000008152600401610ac690612ce5565b60405180910390fd5b60008111610b12576040517f08c379a0000000000000000000000000000000000000000000000000000000008152600401610b0990612fd9565b60405180910390fd5b80600960008481526020019081526020016000206000828254610b359190612f0a565b925050819055507f0db48b23ad6f04f212b5fddef4017753a195535f0d61c4daa790b4f70f28c07f826009600085815260200190815260200160002054604051610b80929190612f3e565b60405180910390a15050565b610ba783838360405180602001604052806000815250610e68565b505050565b6000600860003373ffffffffffffffffffffffffffffffffffffffff1673ffffffffffffffffffffffffffffffffffffffff16815260200190815260200160002054905060008103610c33576040517f08c379a0000000000000000000000000000000000000000000000000000000008152600401610c2a90613045565b60405180910390fd5b610c3c8161186e565b50565b600080610c4b836119bc565b9050600073ffffffffffffffffffffffffffffffffffffffff168173ffffffffffffffffffffffffffffffffffffffff1603610cbc576040517f08c379a0000000000000000000000000000000000000000000000000000000008152600401610cb3906130b1565b60405180910390fd5b80915050919050565b60008073ffffffffffffffffffffffffffffffffffffffff168273ffffffffffffffffffffffffffffffffffffffff1603610d35576040517f08c379a0000000000000000000000000000000000000000000000000000000008152600401610d2c90613143565b60405180910390fd5b600360008373ffffffffffffffffffffffffffffffffffffffff1673ffffffffffffffffffffffffffffffffffffffff168152602001908152602001600020549050919050565b610d84611791565b610d8e60006119f9565b565b6000600660009054906101000a900473ffffffffffffffffffffffffffffffffffffffff16905090565b60075481565b606060018054610dcf90612ab2565b80601f0160208091040260200160405190810160405280929190818152602001828054610dfb90612ab2565b8015610e485780601f10610e1d57610100808354040283529160200191610e48565b820191906000526020600020905b815481529060010190602001808311610e2b57829003601f168201915b5050505050905090565b610e64610e5d611342565b8383611abf565b5050565b610e79610e73611342565b83611403565b610eb8576040517f08c379a0000000000000000000000000000000000000000000000000000000008152600401610eaf90612c79565b60405180910390fd5b610ec484848484611c2b565b50505050565b6060610ed5826112f7565b6000610edf611c87565b90506000815111610eff5760405180602001604052806000815250610f2a565b80610f0984611c9e565b604051602001610f1a92919061319f565b6040516020818303038152906040525b915050919050565b6000610f3d8261180f565b610f7c576040517f08c379a0000000000000000000000000000000000000000000000000000000008152600401610f7390612ce5565b60405180910390fd5b600960008381526020019081526020016000205442119050919050565b6000610fa48261180f565b610fe3576040517f08c379a0000000000000000000000000000000000000000000000000000000008152600401610fda90612ce5565b60405180910390fd5b60096000838152602001908152602001600020549050919050565b6000600560008473ffffffffffffffffffffffffffffffffffffffff1673ffffffffffffffffffffffffffffffffffffffff16815260200190815260200160002060008373ffffffffffffffffffffffffffffffffffffffff1673ffffffffffffffffffffffffffffffffffffffff16815260200190815260200160002060009054906101000a900460ff16905092915050565b60008073ffffffffffffffffffffffffffffffffffffffff168273ffffffffffffffffffffffffffffffffffffffff1603611102576040517f08c379a00000000000000000000000000000000000000000000000000000000081526004016110f99061320f565b60405180910390fd5b6000600860008473ffffffffffffffffffffffffffffffffffffffff1673ffffffffffffffffffffffffffffffffffffffff16815260200190815260200160002054905060008103611189576040517f08c379a00000000000000000000000000000000000000000000000000000000081526004016111809061327b565b60405180910390fd5b80915050919050565b61119a611791565b600073ffffffffffffffffffffffffffffffffffffffff168173ffffffffffffffffffffffffffffffffffffffff1603611209576040517f08c379a00000000000000000000000000000000000000000000000000000000081526004016112009061330d565b60405180910390fd5b611212816119f9565b50565b60007f80ac58cd000000000000000000000000000000000000000000000000000000007bffffffffffffffffffffffffffffffffffffffffffffffffffffffff1916827bffffffffffffffffffffffffffffffffffffffffffffffffffffffff191614806112e057507f5b5e139f000000000000000000000000000000000000000000000000000000007bffffffffffffffffffffffffffffffffffffffffffffffffffffffff1916827bffffffffffffffffffffffffffffffffffffffffffffffffffffffff1916145b806112f057506112ef82611d6c565b5b9050919050565b6113008161180f565b61133f576040517f08c379a0000000000000000000000000000000000000000000000000000000008152600401611336906130b1565b60405180910390fd5b50565b600033905090565b816004600083815260200190815260200160002060006101000a81548173ffffffffffffffffffffffffffffffffffffffff021916908373ffffffffffffffffffffffffffffffffffffffff160217905550808273ffffffffffffffffffffffffffffffffffffffff166113bd83610c3f565b73ffffffffffffffffffffffffffffffffffffffff167f8c5be1e5ebec7d5bd14f71427d1e84f3dd0314c0f7b2291e5b200ac8c7c3b92560405160405180910390a45050565b60008061140f83610c3f565b90508073ffffffffffffffffffffffffffffffffffffffff168473ffffffffffffffffffffffffffffffffffffffff16148061145157506114508185610ffe565b5b8061148f57508373ffffffffffffffffffffffffffffffffffffffff16611477846105f7565b73ffffffffffffffffffffffffffffffffffffffff16145b91505092915050565b8273ffffffffffffffffffffffffffffffffffffffff166114b882610c3f565b73ffffffffffffffffffffffffffffffffffffffff161461150e576040517f08c379a00000000000000000000000000000000000000000000000000000000081526004016115059061339f565b60405180910390fd5b600073ffffffffffffffffffffffffffffffffffffffff168273ffffffffffffffffffffffffffffffffffffffff160361157d576040517f08c379a000000000000000000000000000000000000000000000000000000000815260040161157490613431565b60405180910390fd5b61158a8383836001611dd6565b8273ffffffffffffffffffffffffffffffffffffffff166115aa82610c3f565b73ffffffffffffffffffffffffffffffffffffffff1614611600576040517f08c379a00000000000000000000000000000000000000000000000000000000081526004016115f79061339f565b60405180910390fd5b6004600082815260200190815260200160002060006101000a81549073ffffffffffffffffffffffffffffffffffffffff02191690556001600360008573ffffffffffffffffffffffffffffffffffffffff1673ffffffffffffffffffffffffffffffffffffffff168152602001908152602001600020600082825403925050819055506001600360008473ffffffffffffffffffffffffffffffffffffffff1673ffffffffffffffffffffffffffffffffffffffff16815260200190815260200160002060008282540192505081905550816002600083815260200190815260200160002060006101000a81548173ffffffffffffffffffffffffffffffffffffffff021916908373ffffffffffffffffffffffffffffffffffffffff160217905550808273ffffffffffffffffffffffffffffffffffffffff168473ffffffffffffffffffffffffffffffffffffffff167fddf252ad1be2c89b69c2b068fc378daa952ba7f163c4a11628f55a4df523b3ef60405160405180910390a461178c8383836001611f08565b505050565b611799611342565b73ffffffffffffffffffffffffffffffffffffffff166117b7610d90565b73ffffffffffffffffffffffffffffffffffffffff161461180d576040517f08c379a00000000000000000000000000000000000000000000000000000000081526004016118049061349d565b60405180910390fd5b565b60008073ffffffffffffffffffffffffffffffffffffffff16611831836119bc565b73ffffffffffffffffffffffffffffffffffffffff1614159050919050565b61186a828260405180602001604052806000815250611f0e565b5050565b600061187982610c3f565b9050611889816000846001611dd6565b61189282610c3f565b90506004600083815260200190815260200160002060006101000a81549073ffffffffffffffffffffffffffffffffffffffff02191690556001600360008373ffffffffffffffffffffffffffffffffffffffff1673ffffffffffffffffffffffffffffffffffffffff168152602001908152602001600020600082825403925050819055506002600083815260200190815260200160002060006101000a81549073ffffffffffffffffffffffffffffffffffffffff021916905581600073ffffffffffffffffffffffffffffffffffffffff168273ffffffffffffffffffffffffffffffffffffffff167fddf252ad1be2c89b69c2b068fc378daa952ba7f163c4a11628f55a4df523b3ef60405160405180910390a46119b8816000846001611f08565b5050565b60006002600083815260200190815260200160002060009054906101000a900473ffffffffffffffffffffffffffffffffffffffff169050919050565b6000600660009054906101000a900473ffffffffffffffffffffffffffffffffffffffff16905081600660006101000a81548173ffffffffffffffffffffffffffffffffffffffff021916908373ffffffffffffffffffffffffffffffffffffffff1602179055508173ffffffffffffffffffffffffffffffffffffffff168173ffffffffffffffffffffffffffffffffffffffff167f8be0079c531659141344cd1fd0a4f28419497f9722a3daafe3b4186f6b6457e060405160405180910390a35050565b8173ffffffffffffffffffffffffffffffffffffffff168373ffffffffffffffffffffffffffffffffffffffff1603611b2d576040517f08c379a0000000000000000000000000000000000000000000000000000000008152600401611b2490613509565b60405180910390fd5b80600560008573ffffffffffffffffffffffffffffffffffffffff1673ffffffffffffffffffffffffffffffffffffffff16815260200190815260200160002060008473ffffffffffffffffffffffffffffffffffffffff1673ffffffffffffffffffffffffffffffffffffffff16815260200190815260200160002060006101000a81548160ff0219169083151502179055508173ffffffffffffffffffffffffffffffffffffffff168373ffffffffffffffffffffffffffffffffffffffff167f17307eab39ab6107e8899845ad3d59bd9653f200f220920489ca2b5937696c3183604051611c1e919061253d565b60405180910390a3505050565b611c36848484611498565b611c4284848484611f69565b611c81576040517f08c379a0000000000000000000000000000000000000000000000000000000008152600401611c789061359b565b60405180910390fd5b50505050565b606060405180602001604052806000815250905090565b606060006001611cad846120f0565b01905060008167ffffffffffffffff811115611ccc57611ccb612895565b5b6040519080825280601f01601f191660200182016040528015611cfe5781602001600182028036833780820191505090505b509050600082602001820190505b600115611d61578080600190039150507f3031323334353637383961626364656600000000000000000000000000000000600a86061a8153600a8581611d5557611d546135bb565b5b04945060008503611d0c575b819350505050919050565b60007f01ffc9a7000000000000000000000000000000000000000000000000000000007bffffffffffffffffffffffffffffffffffffffffffffffffffffffff1916827bffffffffffffffffffffffffffffffffffffffffffffffffffffffff1916149050919050565b611de284848484612243565b600073ffffffffffffffffffffffffffffffffffffffff168473ffffffffffffffffffffffffffffffffffffffff161480611e495750600073ffffffffffffffffffffffffffffffffffffffff168373ffffffffffffffffffffffffffffffffffffffff16145b611e88576040517f08c379a0000000000000000000000000000000000000000000000000000000008152600401611e7f90613636565b60405180910390fd5b600073ffffffffffffffffffffffffffffffffffffffff168473ffffffffffffffffffffffffffffffffffffffff1614611f02576000600860008673ffffffffffffffffffffffffffffffffffffffff1673ffffffffffffffffffffffffffffffffffffffff168152602001908152602001600020819055505b50505050565b50505050565b611f188383612249565b611f256000848484611f69565b611f64576040517f08c379a0000000000000000000000000000000000000000000000000000000008152600401611f5b9061359b565b60405180910390fd5b505050565b6000611f8a8473ffffffffffffffffffffffffffffffffffffffff16612466565b156120e3578373ffffffffffffffffffffffffffffffffffffffff1663150b7a02611fb3611342565b8786866040518563ffffffff1660e01b8152600401611fd594939291906136ab565b6020604051808303816000875af192505050801561201157506040513d601f19601f8201168201806040525081019061200e919061370c565b60015b612093573d8060008114612041576040519150601f19603f3d011682016040523d82523d6000602084013e612046565b606091505b50600081510361208b576040517f08c379a00000000000000000000000000000000000000000000000000000000081526004016120829061359b565b60405180910390fd5b805181602001fd5b63150b7a0260e01b7bffffffffffffffffffffffffffffffffffffffffffffffffffffffff1916817bffffffffffffffffffffffffffffffffffffffffffffffffffffffff1916149150506120e8565b600190505b949350505050565b600080600090507a184f03e93ff9f4daa797ed6e38ed64bf6a1f010000000000000000831061214e577a184f03e93ff9f4daa797ed6e38ed64bf6a1f0100000000000000008381612144576121436135bb565b5b0492506040810190505b6d04ee2d6d415b85acef8100000000831061218b576d04ee2d6d415b85acef81000000008381612181576121806135bb565b5b0492506020810190505b662386f26fc1000083106121ba57662386f26fc1000083816121b0576121af6135bb565b5b0492506010810190505b6305f5e10083106121e3576305f5e10083816121d9576121d86135bb565b5b0492506008810190505b61271083106122085761271083816121fe576121fd6135bb565b5b0492506004810190505b6064831061222b5760648381612221576122206135bb565b5b0492506002810190505b600a831061223a576001810190505b80915050919050565b50505050565b600073ffffffffffffffffffffffffffffffffffffffff168273ffffffffffffffffffffffffffffffffffffffff16036122b8576040517f08c379a00000000000000000000000000000000000000000000000000000000081526004016122af90613785565b60405180910390fd5b6122c18161180f565b15612301576040517f08c379a00000000000000000000000000000000000000000000000000000000081526004016122f8906137f1565b60405180910390fd5b61230f600083836001611dd6565b6123188161180f565b15612358576040517f08c379a000000000000000000000000000000000000000000000000000000000815260040161234f906137f1565b60405180910390fd5b6001600360008473ffffffffffffffffffffffffffffffffffffffff1673ffffffffffffffffffffffffffffffffffffffff16815260200190815260200160002060008282540192505081905550816002600083815260200190815260200160002060006101000a81548173ffffffffffffffffffffffffffffffffffffffff021916908373ffffffffffffffffffffffffffffffffffffffff160217905550808273ffffffffffffffffffffffffffffffffffffffff16600073ffffffffffffffffffffffffffffffffffffffff167fddf252ad1be2c89b69c2b068fc378daa952ba7f163c4a11628f55a4df523b3ef60405160405180910390a4612462600083836001611f08565b5050565b6000808273ffffffffffffffffffffffffffffffffffffffff163b119050919050565b6000604051905090565b600080fd5b600080fd5b60007fffffffff0000000000000000000000000000000000000000000000000000000082169050919050565b6124d28161249d565b81146124dd57600080fd5b50565b6000813590506124ef816124c9565b92915050565b60006020828403121561250b5761250a612493565b5b6000612519848285016124e0565b91505092915050565b60008115159050919050565b61253781612522565b82525050565b6000602082019050612552600083018461252e565b92915050565b600073ffffffffffffffffffffffffffffffffffffffff82169050919050565b600061258382612558565b9050919050565b61259381612578565b811461259e57600080fd5b50565b6000813590506125b08161258a565b92915050565b6000602082840312156125cc576125cb612493565b5b60006125da848285016125a1565b91505092915050565b600081519050919050565b600082825260208201905092915050565b60005b8381101561261d578082015181840152602081019050612602565b60008484015250505050565b6000601f19601f8301169050919050565b6000612645826125e3565b61264f81856125ee565b935061265f8185602086016125ff565b61266881612629565b840191505092915050565b6000602082019050818103600083015261268d818461263a565b905092915050565b6000819050919050565b6126a881612695565b81146126b357600080fd5b50565b6000813590506126c58161269f565b92915050565b6000602082840312156126e1576126e0612493565b5b60006126ef848285016126b6565b91505092915050565b61270181612578565b82525050565b600060208201905061271c60008301846126f8565b92915050565b6000806040838503121561273957612738612493565b5b6000612747858286016125a1565b9250506020612758858286016126b6565b9150509250929050565b60008060006060848603121561277b5761277a612493565b5b6000612789868287016125a1565b935050602061279a868287016125a1565b92505060406127ab868287016126b6565b9150509250925092565b600080604083850312156127cc576127cb612493565b5b60006127da858286016126b6565b92505060206127eb858286016126b6565b9150509250929050565b6127fe81612695565b82525050565b600060208201905061281960008301846127f5565b92915050565b61282881612522565b811461283357600080fd5b50565b6000813590506128458161281f565b92915050565b6000806040838503121561286257612861612493565b5b6000612870858286016125a1565b925050602061288185828601612836565b9150509250929050565b600080fd5b600080fd5b7f4e487b7100000000000000000000000000000000000000000000000000000000600052604160045260246000fd5b6128cd82612629565b810181811067ffffffffffffffff821117156128ec576128eb612895565b5b80604052505050565b60006128ff612489565b905061290b82826128c4565b919050565b600067ffffffffffffffff82111561292b5761292a612895565b5b61293482612629565b9050602081019050919050565b82818337600083830152505050565b600061296361295e84612910565b6128f5565b90508281526020810184848401111561297f5761297e612890565b5b61298a848285612941565b509392505050565b600082601f8301126129a7576129a661288b565b5b81356129b7848260208601612950565b91505092915050565b600080600080608085870312156129da576129d9612493565b5b60006129e8878288016125a1565b94505060206129f9878288016125a1565b9350506040612a0a878288016126b6565b925050606085013567ffffffffffffffff811115612a2b57612a2a612498565b5b612a3787828801612992565b91505092959194509250565b60008060408385031215612a5a57612a59612493565b5b6000612a68858286016125a1565b9250506020612a79858286016125a1565b9150509250929050565b7f4e487b7100000000000000000000000000000000000000000000000000000000600052602260045260246000fd5b60006002820490506001821680612aca57607f821691505b602082108103612add57612adc612a83565b5b50919050565b7f4552433732313a20617070726f76616c20746f2063757272656e74206f776e6560008201527f7200000000000000000000000000000000000000000000000000000000000000602082015250565b6000612b3f6021836125ee565b9150612b4a82612ae3565b604082019050919050565b60006020820190508181036000830152612b6e81612b32565b9050919050565b7f4552433732313a20617070726f76652063616c6c6572206973206e6f7420746f60008201527f6b656e206f776e6572206f7220617070726f76656420666f7220616c6c000000602082015250565b6000612bd1603d836125ee565b9150612bdc82612b75565b604082019050919050565b60006020820190508181036000830152612c0081612bc4565b9050919050565b7f4552433732313a2063616c6c6572206973206e6f7420746f6b656e206f776e6560008201527f72206f7220617070726f76656400000000000000000000000000000000000000602082015250565b6000612c63602d836125ee565b9150612c6e82612c07565b604082019050919050565b60006020820190508181036000830152612c9281612c56565b9050919050565b7f546f6b656e20646f6573206e6f74206578697374000000000000000000000000600082015250565b6000612ccf6014836125ee565b9150612cda82612c99565b602082019050919050565b60006020820190508181036000830152612cfe81612cc2565b9050919050565b7f546f6b656e20616c726561647920657870697265640000000000000000000000600082015250565b6000612d3b6015836125ee565b9150612d4682612d05565b602082019050919050565b60006020820190508181036000830152612d6a81612d2e565b9050919050565b7f43616e6e6f74206d696e7420746f207a65726f20616464726573730000000000600082015250565b6000612da7601b836125ee565b9150612db282612d71565b602082019050919050565b60006020820190508181036000830152612dd681612d9a565b9050919050565b7f45787069726174696f6e206d75737420626520696e207468652066757475726560008201527f2e00000000000000000000000000000000000000000000000000000000000000602082015250565b6000612e396021836125ee565b9150612e4482612ddd565b604082019050919050565b60006020820190508181036000830152612e6881612e2c565b9050919050565b7f5573657220616c726561647920686173206120746f6b656e0000000000000000600082015250565b6000612ea56018836125ee565b9150612eb082612e6f565b602082019050919050565b60006020820190508181036000830152612ed481612e98565b9050919050565b7f4e487b7100000000000000000000000000000000000000000000000000000000600052601160045260246000fd5b6000612f1582612695565b9150612f2083612695565b9250828201905080821115612f3857612f37612edb565b5b92915050565b6000604082019050612f5360008301856127f5565b612f6060208301846127f5565b9392505050565b7f4164646974696f6e616c2074696d65206d75737420626520677265617465722060008201527f7468616e207a65726f0000000000000000000000000000000000000000000000602082015250565b6000612fc36029836125ee565b9150612fce82612f67565b604082019050919050565b60006020820190508181036000830152612ff281612fb6565b9050919050565b7f596f7520646f206e6f74206f776e206120746f6b656e00000000000000000000600082015250565b600061302f6016836125ee565b915061303a82612ff9565b602082019050919050565b6000602082019050818103600083015261305e81613022565b9050919050565b7f4552433732313a20696e76616c696420746f6b656e2049440000000000000000600082015250565b600061309b6018836125ee565b91506130a682613065565b602082019050919050565b600060208201905081810360008301526130ca8161308e565b9050919050565b7f4552433732313a2061646472657373207a65726f206973206e6f74206120766160008201527f6c6964206f776e65720000000000000000000000000000000000000000000000602082015250565b600061312d6029836125ee565b9150613138826130d1565b604082019050919050565b6000602082019050818103600083015261315c81613120565b9050919050565b600081905092915050565b6000613179826125e3565b6131838185613163565b93506131938185602086016125ff565b80840191505092915050565b60006131ab828561316e565b91506131b7828461316e565b91508190509392505050565b7f496e76616c696420616464726573730000000000000000000000000000000000600082015250565b60006131f9600f836125ee565b9150613204826131c3565b602082019050919050565b60006020820190508181036000830152613228816131ec565b9050919050565b7f4f776e657220646f6573206e6f742068617665206120746f6b656e0000000000600082015250565b6000613265601b836125ee565b91506132708261322f565b602082019050919050565b6000602082019050818103600083015261329481613258565b9050919050565b7f4f776e61626c653a206e6577206f776e657220697320746865207a65726f206160008201527f6464726573730000000000000000000000000000000000000000000000000000602082015250565b60006132f76026836125ee565b91506133028261329b565b604082019050919050565b60006020820190508181036000830152613326816132ea565b9050919050565b7f4552433732313a207472616e736665722066726f6d20696e636f72726563742060008201527f6f776e6572000000000000000000000000000000000000000000000000000000602082015250565b60006133896025836125ee565b91506133948261332d565b604082019050919050565b600060208201905081810360008301526133b88161337c565b9050919050565b7f4552433732313a207472616e7366657220746f20746865207a65726f2061646460008201527f7265737300000000000000000000000000000000000000000000000000000000602082015250565b600061341b6024836125ee565b9150613426826133bf565b604082019050919050565b6000602082019050818103600083015261344a8161340e565b9050919050565b7f4f776e61626c653a2063616c6c6572206973206e6f7420746865206f776e6572600082015250565b60006134876020836125ee565b915061349282613451565b602082019050919050565b600060208201905081810360008301526134b68161347a565b9050919050565b7f4552433732313a20617070726f766520746f2063616c6c657200000000000000600082015250565b60006134f36019836125ee565b91506134fe826134bd565b602082019050919050565b60006020820190508181036000830152613522816134e6565b9050919050565b7f4552433732313a207472616e7366657220746f206e6f6e20455243373231526560008201527f63656976657220696d706c656d656e7465720000000000000000000000000000602082015250565b60006135856032836125ee565b915061359082613529565b604082019050919050565b600060208201905081810360008301526135b481613578565b9050919050565b7f4e487b7100000000000000000000000000000000000000000000000000000000600052601260045260246000fd5b7f5472616e7366657273206172652064697361626c656400000000000000000000600082015250565b60006136206016836125ee565b915061362b826135ea565b602082019050919050565b6000602082019050818103600083015261364f81613613565b9050919050565b600081519050919050565b600082825260208201905092915050565b600061367d82613656565b6136878185613661565b93506136978185602086016125ff565b6136a081612629565b840191505092915050565b60006080820190506136c060008301876126f8565b6136cd60208301866126f8565b6136da60408301856127f5565b81810360608301526136ec8184613672565b905095945050505050565b600081519050613706816124c9565b92915050565b60006020828403121561372257613721612493565b5b6000613730848285016136f7565b91505092915050565b7f4552433732313a206d696e7420746f20746865207a65726f2061646472657373600082015250565b600061376f6020836125ee565b915061377a82613739565b602082019050919050565b6000602082019050818103600083015261379e81613762565b9050919050565b7f4552433732313a20746f6b656e20616c7265616479206d696e74656400000000600082015250565b60006137db601c836125ee565b91506137e6826137a5565b602082019050919050565b6000602082019050818103600083015261380a816137ce565b905091905056fea26469706673582212205f24befdf80ad921d0b703ff6656a5f367abb441d01817578e84237f5e286f3164736f6c634300081b0033",
  "linkReferences": {},
  "deployedLinkReferences": {}
}