{
  "_format": "hh-sol-artifact-1",
  "contractName": "Littercoin",
  "sourceName": "contracts/Littercoin.sol",
  "abi": [
    {
      "inputs": [
        {
          "internalType": "address",
          "name": "_priceFeed",
          "type": "address"
        }
      ],
      "stateMutability": "nonpayable",
      "type": "constructor"
    },
    {
      "anonymous": false,
      "inputs": [
        {
          "indexed": true,
          "internalType": "address",
          "name": "owner",
          "type": "address"
        },
        {
          "indexed": true,
          "internalType": "address",
          "name": "spender",
          "type": "address"
        },
        {
          "indexed": false,
          "internalType": "uint256",
          "name": "value",
          "type": "uint256"
        }
      ],
      "name": "Approval",
      "type": "event"
    },
    {
      "anonymous": false,
      "inputs": [
        {
          "indexed": true,
          "internalType": "address",
          "name": "user",
          "type": "address"
        },
        {
          "indexed": false,
          "internalType": "uint256",
          "name": "amount",
          "type": "uint256"
        }
      ],
      "name": "Mint",
      "type": "event"
    },
    {
      "anonymous": false,
      "inputs": [
        {
          "indexed": true,
          "internalType": "address",
          "name": "previousOwner",
          "type": "address"
        },
        {
          "indexed": true,
          "internalType": "address",
          "name": "newOwner",
          "type": "address"
        }
      ],
      "name": "OwnershipTransferred",
      "type": "event"
    },
    {
      "anonymous": false,
      "inputs": [
        {
          "indexed": true,
          "internalType": "address",
          "name": "user",
          "type": "address"
        },
        {
          "indexed": false,
          "internalType": "uint256",
          "name": "littercoinAmount",
          "type": "uint256"
        },
        {
          "indexed": false,
          "internalType": "uint256",
          "name": "ethAmount",
          "type": "uint256"
        }
      ],
      "name": "Redeem",
      "type": "event"
    },
    {
      "anonymous": false,
      "inputs": [
        {
          "indexed": true,
          "internalType": "address",
          "name": "user",
          "type": "address"
        },
        {
          "indexed": false,
          "internalType": "uint256",
          "name": "rewardAmount",
          "type": "uint256"
        }
      ],
      "name": "Reward",
      "type": "event"
    },
    {
      "anonymous": false,
      "inputs": [
        {
          "indexed": true,
          "internalType": "address",
          "name": "from",
          "type": "address"
        },
        {
          "indexed": true,
          "internalType": "address",
          "name": "to",
          "type": "address"
        },
        {
          "indexed": false,
          "internalType": "uint256",
          "name": "value",
          "type": "uint256"
        }
      ],
      "name": "Transfer",
      "type": "event"
    },
    {
      "inputs": [
        {
          "internalType": "address",
          "name": "owner",
          "type": "address"
        },
        {
          "internalType": "address",
          "name": "spender",
          "type": "address"
        }
      ],
      "name": "allowance",
      "outputs": [
        {
          "internalType": "uint256",
          "name": "",
          "type": "uint256"
        }
      ],
      "stateMutability": "view",
      "type": "function"
    },
    {
      "inputs": [
        {
          "internalType": "address",
          "name": "spender",
          "type": "address"
        },
        {
          "internalType": "uint256",
          "name": "amount",
          "type": "uint256"
        }
      ],
      "name": "approve",
      "outputs": [
        {
          "internalType": "bool",
          "name": "",
          "type": "bool"
        }
      ],
      "stateMutability": "nonpayable",
      "type": "function"
    },
    {
      "inputs": [
        {
          "internalType": "address",
          "name": "account",
          "type": "address"
        }
      ],
      "name": "balanceOf",
      "outputs": [
        {
          "internalType": "uint256",
          "name": "",
          "type": "uint256"
        }
      ],
      "stateMutability": "view",
      "type": "function"
    },
    {
      "inputs": [],
      "name": "decimals",
      "outputs": [
        {
          "internalType": "uint8",
          "name": "",
          "type": "uint8"
        }
      ],
      "stateMutability": "view",
      "type": "function"
    },
    {
      "inputs": [
        {
          "internalType": "address",
          "name": "spender",
          "type": "address"
        },
        {
          "internalType": "uint256",
          "name": "subtractedValue",
          "type": "uint256"
        }
      ],
      "name": "decreaseAllowance",
      "outputs": [
        {
          "internalType": "bool",
          "name": "",
          "type": "bool"
        }
      ],
      "stateMutability": "nonpayable",
      "type": "function"
    },
    {
      "inputs": [],
      "name": "getMerchantTokenAddress",
      "outputs": [
        {
          "internalType": "address",
          "name": "",
          "type": "address"
        }
      ],
      "stateMutability": "view",
      "type": "function"
    },
    {
      "inputs": [],
      "name": "getRewardTokenAddress",
      "outputs": [
        {
          "internalType": "address",
          "name": "",
          "type": "address"
        }
      ],
      "stateMutability": "view",
      "type": "function"
    },
    {
      "inputs": [
        {
          "internalType": "address",
          "name": "spender",
          "type": "address"
        },
        {
          "internalType": "uint256",
          "name": "addedValue",
          "type": "uint256"
        }
      ],
      "name": "increaseAllowance",
      "outputs": [
        {
          "internalType": "bool",
          "name": "",
          "type": "bool"
        }
      ],
      "stateMutability": "nonpayable",
      "type": "function"
    },
    {
      "inputs": [
        {
          "internalType": "address",
          "name": "",
          "type": "address"
        }
      ],
      "name": "littercoinAmounts",
      "outputs": [
        {
          "internalType": "uint256",
          "name": "",
          "type": "uint256"
        }
      ],
      "stateMutability": "view",
      "type": "function"
    },
    {
      "inputs": [],
      "name": "merchantToken",
      "outputs": [
        {
          "internalType": "contract MerchantToken",
          "name": "",
          "type": "address"
        }
      ],
      "stateMutability": "view",
      "type": "function"
    },
    {
      "inputs": [
        {
          "internalType": "uint256",
          "name": "amount",
          "type": "uint256"
        },
        {
          "internalType": "uint256",
          "name": "nonce",
          "type": "uint256"
        },
        {
          "internalType": "bytes",
          "name": "signature",
          "type": "bytes"
        }
      ],
      "name": "mint",
      "outputs": [],
      "stateMutability": "nonpayable",
      "type": "function"
    },
    {
      "inputs": [],
      "name": "name",
      "outputs": [
        {
          "internalType": "string",
          "name": "",
          "type": "string"
        }
      ],
      "stateMutability": "view",
      "type": "function"
    },
    {
      "inputs": [],
      "name": "owner",
      "outputs": [
        {
          "internalType": "address",
          "name": "",
          "type": "address"
        }
      ],
      "stateMutability": "view",
      "type": "function"
    },
    {
      "inputs": [
        {
          "internalType": "uint256",
          "name": "amount",
          "type": "uint256"
        }
      ],
      "name": "redeemLittercoin",
      "outputs": [],
      "stateMutability": "nonpayable",
      "type": "function"
    },
    {
      "inputs": [],
      "name": "renounceOwnership",
      "outputs": [],
      "stateMutability": "nonpayable",
      "type": "function"
    },
    {
      "inputs": [],
      "name": "rewardToken",
      "outputs": [
        {
          "internalType": "contract OLMRewardToken",
          "name": "",
          "type": "address"
        }
      ],
      "stateMutability": "view",
      "type": "function"
    },
    {
      "inputs": [],
      "name": "symbol",
      "outputs": [
        {
          "internalType": "string",
          "name": "",
          "type": "string"
        }
      ],
      "stateMutability": "view",
      "type": "function"
    },
    {
      "inputs": [],
      "name": "totalSupply",
      "outputs": [
        {
          "internalType": "uint256",
          "name": "",
          "type": "uint256"
        }
      ],
      "stateMutability": "view",
      "type": "function"
    },
    {
      "inputs": [
        {
          "internalType": "address",
          "name": "to",
          "type": "address"
        },
        {
          "internalType": "uint256",
          "name": "amount",
          "type": "uint256"
        }
      ],
      "name": "transfer",
      "outputs": [
        {
          "internalType": "bool",
          "name": "",
          "type": "bool"
        }
      ],
      "stateMutability": "nonpayable",
      "type": "function"
    },
    {
      "inputs": [
        {
          "internalType": "address",
          "name": "from",
          "type": "address"
        },
        {
          "internalType": "address",
          "name": "to",
          "type": "address"
        },
        {
          "internalType": "uint256",
          "name": "amount",
          "type": "uint256"
        }
      ],
      "name": "transferFrom",
      "outputs": [
        {
          "internalType": "bool",
          "name": "",
          "type": "bool"
        }
      ],
      "stateMutability": "nonpayable",
      "type": "function"
    },
    {
      "inputs": [
        {
          "internalType": "address",
          "name": "newOwner",
          "type": "address"
        }
      ],
      "name": "transferOwnership",
      "outputs": [],
      "stateMutability": "nonpayable",
      "type": "function"
    },
    {
      "stateMutability": "payable",
      "type": "receive"
    }
  ],
  "bytecode": "0x608060405234801561001057600080fd5b50604051618cc6380380618cc683398181016040528101906100329190610462565b6040518060400160405280600a81526020017f4c6974746572636f696e000000000000000000000000000000000000000000008152506040518060400160405280600781526020017f4c4954544552580000000000000000000000000000000000000000000000000081525081600390816100ad91906106df565b5080600490816100bd91906106df565b5050506100dc6100d161031760201b60201c565b61031f60201b60201c565b60016006819055506040516100f0906103e5565b604051809103906000f08015801561010c573d6000803e3d6000fd5b50600860006101000a81548173ffffffffffffffffffffffffffffffffffffffff021916908373ffffffffffffffffffffffffffffffffffffffff160217905550600860009054906101000a900473ffffffffffffffffffffffffffffffffffffffff1673ffffffffffffffffffffffffffffffffffffffff1663f2fde38b306040518263ffffffff1660e01b81526004016101a891906107c0565b600060405180830381600087803b1580156101c257600080fd5b505af11580156101d6573d6000803e3d6000fd5b505050506040516101e6906103f2565b604051809103906000f080158015610202573d6000803e3d6000fd5b50600960006101000a81548173ffffffffffffffffffffffffffffffffffffffff021916908373ffffffffffffffffffffffffffffffffffffffff160217905550600960009054906101000a900473ffffffffffffffffffffffffffffffffffffffff1673ffffffffffffffffffffffffffffffffffffffff1663f2fde38b336040518263ffffffff1660e01b815260040161029e91906107c0565b600060405180830381600087803b1580156102b857600080fd5b505af11580156102cc573d6000803e3d6000fd5b5050505080600a60006101000a81548173ffffffffffffffffffffffffffffffffffffffff021916908373ffffffffffffffffffffffffffffffffffffffff160217905550506107db565b600033905090565b6000600560009054906101000a900473ffffffffffffffffffffffffffffffffffffffff16905081600560006101000a81548173ffffffffffffffffffffffffffffffffffffffff021916908373ffffffffffffffffffffffffffffffffffffffff1602179055508173ffffffffffffffffffffffffffffffffffffffff168173ffffffffffffffffffffffffffffffffffffffff167f8be0079c531659141344cd1fd0a4f28419497f9722a3daafe3b4186f6b6457e060405160405180910390a35050565b611c9f8061362283390190565b613a05806152c183390190565b600080fd5b600073ffffffffffffffffffffffffffffffffffffffff82169050919050565b600061042f82610404565b9050919050565b61043f81610424565b811461044a57600080fd5b50565b60008151905061045c81610436565b92915050565b600060208284031215610478576104776103ff565b5b60006104868482850161044d565b91505092915050565b600081519050919050565b7f4e487b7100000000000000000000000000000000000000000000000000000000600052604160045260246000fd5b7f4e487b7100000000000000000000000000000000000000000000000000000000600052602260045260246000fd5b6000600282049050600182168061051057607f821691505b602082108103610523576105226104c9565b5b50919050565b60008190508160005260206000209050919050565b60006020601f8301049050919050565b600082821b905092915050565b60006008830261058b7fffffffffffffffffffffffffffffffffffffffffffffffffffffffffffffffff8261054e565b610595868361054e565b95508019841693508086168417925050509392505050565b6000819050919050565b6000819050919050565b60006105dc6105d76105d2846105ad565b6105b7565b6105ad565b9050919050565b6000819050919050565b6105f6836105c1565b61060a610602826105e3565b84845461055b565b825550505050565b600090565b61061f610612565b61062a8184846105ed565b505050565b5b8181101561064e57610643600082610617565b600181019050610630565b5050565b601f8211156106935761066481610529565b61066d8461053e565b8101602085101561067c578190505b6106906106888561053e565b83018261062f565b50505b505050565b600082821c905092915050565b60006106b660001984600802610698565b1980831691505092915050565b60006106cf83836106a5565b9150826002028217905092915050565b6106e88261048f565b67ffffffffffffffff8111156107015761070061049a565b5b61070b82546104f8565b610716828285610652565b600060209050601f8311600181146107495760008415610737578287015190505b61074185826106c3565b8655506107a9565b601f19841661075786610529565b60005b8281101561077f5784890151825560018201915060208501945060208101905061075a565b8683101561079c5784890151610798601f8916826106a5565b8355505b6001600288020188555050505b505050505050565b6107ba81610424565b82525050565b60006020820190506107d560008301846107b1565b92915050565b612e38806107ea6000396000f3fe60806040526004361061012e5760003560e01c8063744c0f93116100ab57806399e117a01161006f57806399e117a0146105ea578063a457c2d714610615578063a9059cbb14610652578063dd62ed3e1461068f578063f2fde38b146106cc578063f7c618c1146106f55761031e565b8063744c0f93146105155780638c1a1f77146105405780638da5cb5b1461056b57806392cfe6ca1461059657806395d89b41146105bf5761031e565b8063313ce567116100f2578063313ce5671461041c57806339509351146104475780634a4e74081461048457806370a08231146104c1578063715018a6146104fe5761031e565b806306fdde031461032357806308dc9f421461034e578063095ea7b31461037757806318160ddd146103b457806323b872dd146103df5761031e565b3661031e5760003490506000600a60009054906101000a900473ffffffffffffffffffffffffffffffffffffffff1673ffffffffffffffffffffffffffffffffffffffff1663feaf968c6040518163ffffffff1660e01b815260040160a060405180830381865afa1580156101a7573d6000803e3d6000fd5b505050506040513d601f19601f820116820180604052508101906101cb9190611a7b565b50505091505060008113610214576040517f08c379a000000000000000000000000000000000000000000000000000000000815260040161020b90611b53565b60405180910390fd5b600081905060006a52b7d2dcc80cd2e400000082856102339190611ba2565b61023d9190611c13565b9050600860009054906101000a900473ffffffffffffffffffffffffffffffffffffffff1673ffffffffffffffffffffffffffffffffffffffff166340c10f1933836040518363ffffffff1660e01b815260040161029c929190611c94565b600060405180830381600087803b1580156102b657600080fd5b505af11580156102ca573d6000803e3d6000fd5b505050503373ffffffffffffffffffffffffffffffffffffffff167f619caafabdd75649b302ba8419e48cccf64f37f1983ac4727cfb38b57703ffc9826040516103149190611cbd565b60405180910390a2005b600080fd5b34801561032f57600080fd5b50610338610720565b6040516103459190611d57565b60405180910390f35b34801561035a57600080fd5b5061037560048036038101906103709190611ec3565b6107b2565b005b34801561038357600080fd5b5061039e60048036038101906103999190611f5e565b61096a565b6040516103ab9190611fb9565b60405180910390f35b3480156103c057600080fd5b506103c961098d565b6040516103d69190611cbd565b60405180910390f35b3480156103eb57600080fd5b5061040660048036038101906104019190611fd4565b610997565b6040516104139190611fb9565b60405180910390f35b34801561042857600080fd5b506104316109c6565b60405161043e9190612043565b60405180910390f35b34801561045357600080fd5b5061046e60048036038101906104699190611f5e565b6109cf565b60405161047b9190611fb9565b60405180910390f35b34801561049057600080fd5b506104ab60048036038101906104a6919061205e565b610a06565b6040516104b89190611cbd565b60405180910390f35b3480156104cd57600080fd5b506104e860048036038101906104e3919061205e565b610a1e565b6040516104f59190611cbd565b60405180910390f35b34801561050a57600080fd5b50610513610a66565b005b34801561052157600080fd5b5061052a610a7a565b604051610537919061208b565b60405180910390f35b34801561054c57600080fd5b50610555610aa4565b6040516105629190612105565b60405180910390f35b34801561057757600080fd5b50610580610aca565b60405161058d919061208b565b60405180910390f35b3480156105a257600080fd5b506105bd60048036038101906105b89190612120565b610af4565b005b3480156105cb57600080fd5b506105d4610e5c565b6040516105e19190611d57565b60405180910390f35b3480156105f657600080fd5b506105ff610eee565b60405161060c919061208b565b60405180910390f35b34801561062157600080fd5b5061063c60048036038101906106379190611f5e565b610f18565b6040516106499190611fb9565b60405180910390f35b34801561065e57600080fd5b5061067960048036038101906106749190611f5e565b610f8f565b6040516106869190611fb9565b60405180910390f35b34801561069b57600080fd5b506106b660048036038101906106b1919061214d565b610fb2565b6040516106c39190611cbd565b60405180910390f35b3480156106d857600080fd5b506106f360048036038101906106ee919061205e565b611039565b005b34801561070157600080fd5b5061070a6110bc565b60405161071791906121ae565b60405180910390f35b60606003805461072f906121f8565b80601f016020809104026020016040519081016040528092919081815260200182805461075b906121f8565b80156107a85780601f1061077d576101008083540402835291602001916107a8565b820191906000526020600020905b81548152906001019060200180831161078b57829003601f168201915b5050505050905090565b600083116107f5576040517f08c379a00000000000000000000000000000000000000000000000000000000081526004016107ec90612275565b60405180910390fd5b600033848460405160200161080c939291906122fe565b604051602081830303815290604052805190602001209050600061082f826110e2565b9050600061083d8285611112565b9050610847610aca565b73ffffffffffffffffffffffffffffffffffffffff168173ffffffffffffffffffffffffffffffffffffffff16146108b4576040517f08c379a00000000000000000000000000000000000000000000000000000000081526004016108ab90612387565b60405180910390fd5b85600760003373ffffffffffffffffffffffffffffffffffffffff1673ffffffffffffffffffffffffffffffffffffffff168152602001908152602001600020600082825461090391906123a7565b925050819055506109143387611181565b3373ffffffffffffffffffffffffffffffffffffffff167f0f6798a560793a54c3bcfe86a93cde1e73087d944c0ea20544137d41213968858760405161095a9190611cbd565b60405180910390a2505050505050565b6000806109756112d7565b90506109828185856112df565b600191505092915050565b6000600254905090565b6000806109a26112d7565b90506109af8582856114a8565b6109ba858585611534565b60019150509392505050565b60006012905090565b6000806109da6112d7565b90506109fb8185856109ec8589610fb2565b6109f691906123a7565b6112df565b600191505092915050565b60076020528060005260406000206000915090505481565b60008060008373ffffffffffffffffffffffffffffffffffffffff1673ffffffffffffffffffffffffffffffffffffffff168152602001908152602001600020549050919050565b610a6e6117aa565b610a786000611828565b565b6000600960009054906101000a900473ffffffffffffffffffffffffffffffffffffffff16905090565b600960009054906101000a900473ffffffffffffffffffffffffffffffffffffffff1681565b6000600560009054906101000a900473ffffffffffffffffffffffffffffffffffffffff16905090565b610afc6118ee565b6000600960009054906101000a900473ffffffffffffffffffffffffffffffffffffffff1673ffffffffffffffffffffffffffffffffffffffff166370a08231336040518263ffffffff1660e01b8152600401610b59919061208b565b602060405180830381865afa158015610b76573d6000803e3d6000fd5b505050506040513d601f19601f82011682018060405250810190610b9a91906123db565b11610bda576040517f08c379a0000000000000000000000000000000000000000000000000000000008152600401610bd190612454565b60405180910390fd5b600960009054906101000a900473ffffffffffffffffffffffffffffffffffffffff1673ffffffffffffffffffffffffffffffffffffffff166302556a29336040518263ffffffff1660e01b8152600401610c35919061208b565b602060405180830381865afa158015610c52573d6000803e3d6000fd5b505050506040513d601f19601f82011682018060405250810190610c7691906124a0565b610cb5576040517f08c379a0000000000000000000000000000000000000000000000000000000008152600401610cac90612519565b60405180910390fd5b80610cbf33610a1e565b1015610d00576040517f08c379a0000000000000000000000000000000000000000000000000000000008152600401610cf790612585565b60405180910390fd5b80471015610d43576040517f08c379a0000000000000000000000000000000000000000000000000000000008152600401610d3a906125f1565b60405180910390fd5b610d4e333083611534565b600081905060003373ffffffffffffffffffffffffffffffffffffffff1682604051610d7990612642565b60006040518083038185875af1925050503d8060008114610db6576040519150601f19603f3d011682016040523d82523d6000602084013e610dbb565b606091505b5050905080610dff576040517f08c379a0000000000000000000000000000000000000000000000000000000008152600401610df6906126a3565b60405180910390fd5b3373ffffffffffffffffffffffffffffffffffffffff167fe5b754fb1abb7f01b499791d0b820ae3b6af3424ac1c59768edb53f4ec31a9298485604051610e479291906126c3565b60405180910390a25050610e5961193d565b50565b606060048054610e6b906121f8565b80601f0160208091040260200160405190810160405280929190818152602001828054610e97906121f8565b8015610ee45780601f10610eb957610100808354040283529160200191610ee4565b820191906000526020600020905b815481529060010190602001808311610ec757829003601f168201915b5050505050905090565b6000600860009054906101000a900473ffffffffffffffffffffffffffffffffffffffff16905090565b600080610f236112d7565b90506000610f318286610fb2565b905083811015610f76576040517f08c379a0000000000000000000000000000000000000000000000000000000008152600401610f6d9061275e565b60405180910390fd5b610f8382868684036112df565b60019250505092915050565b600080610f9a6112d7565b9050610fa7818585611534565b600191505092915050565b6000600160008473ffffffffffffffffffffffffffffffffffffffff1673ffffffffffffffffffffffffffffffffffffffff16815260200190815260200160002060008373ffffffffffffffffffffffffffffffffffffffff1673ffffffffffffffffffffffffffffffffffffffff16815260200190815260200160002054905092915050565b6110416117aa565b600073ffffffffffffffffffffffffffffffffffffffff168173ffffffffffffffffffffffffffffffffffffffff16036110b0576040517f08c379a00000000000000000000000000000000000000000000000000000000081526004016110a7906127f0565b60405180910390fd5b6110b981611828565b50565b600860009054906101000a900473ffffffffffffffffffffffffffffffffffffffff1681565b6000816040516020016110f59190612892565b604051602081830303815290604052805190602001209050919050565b60008060008061112185611947565b9250925092506001868285856040516000815260200160405260405161114a94939291906128c7565b6020604051602081039080840390855afa15801561116c573d6000803e3d6000fd5b50505060206040510351935050505092915050565b600073ffffffffffffffffffffffffffffffffffffffff168273ffffffffffffffffffffffffffffffffffffffff16036111f0576040517f08c379a00000000000000000000000000000000000000000000000000000000081526004016111e790612958565b60405180910390fd5b6111fc600083836119af565b806002600082825461120e91906123a7565b92505081905550806000808473ffffffffffffffffffffffffffffffffffffffff1673ffffffffffffffffffffffffffffffffffffffff168152602001908152602001600020600082825401925050819055508173ffffffffffffffffffffffffffffffffffffffff16600073ffffffffffffffffffffffffffffffffffffffff167fddf252ad1be2c89b69c2b068fc378daa952ba7f163c4a11628f55a4df523b3ef836040516112bf9190611cbd565b60405180910390a36112d3600083836119b4565b5050565b600033905090565b600073ffffffffffffffffffffffffffffffffffffffff168373ffffffffffffffffffffffffffffffffffffffff160361134e576040517f08c379a0000000000000000000000000000000000000000000000000000000008152600401611345906129ea565b60405180910390fd5b600073ffffffffffffffffffffffffffffffffffffffff168273ffffffffffffffffffffffffffffffffffffffff16036113bd576040517f08c379a00000000000000000000000000000000000000000000000000000000081526004016113b490612a7c565b60405180910390fd5b80600160008573ffffffffffffffffffffffffffffffffffffffff1673ffffffffffffffffffffffffffffffffffffffff16815260200190815260200160002060008473ffffffffffffffffffffffffffffffffffffffff1673ffffffffffffffffffffffffffffffffffffffff168152602001908152602001600020819055508173ffffffffffffffffffffffffffffffffffffffff168373ffffffffffffffffffffffffffffffffffffffff167f8c5be1e5ebec7d5bd14f71427d1e84f3dd0314c0f7b2291e5b200ac8c7c3b9258360405161149b9190611cbd565b60405180910390a3505050565b60006114b48484610fb2565b90507fffffffffffffffffffffffffffffffffffffffffffffffffffffffffffffffff811461152e5781811015611520576040517f08c379a000000000000000000000000000000000000000000000000000000000815260040161151790612ae8565b60405180910390fd5b61152d84848484036112df565b5b50505050565b600073ffffffffffffffffffffffffffffffffffffffff168373ffffffffffffffffffffffffffffffffffffffff16036115a3576040517f08c379a000000000000000000000000000000000000000000000000000000000815260040161159a90612b7a565b60405180910390fd5b600073ffffffffffffffffffffffffffffffffffffffff168273ffffffffffffffffffffffffffffffffffffffff1603611612576040517f08c379a000000000000000000000000000000000000000000000000000000000815260040161160990612c0c565b60405180910390fd5b61161d8383836119af565b60008060008573ffffffffffffffffffffffffffffffffffffffff1673ffffffffffffffffffffffffffffffffffffffff168152602001908152602001600020549050818110156116a3576040517f08c379a000000000000000000000000000000000000000000000000000000000815260040161169a90612c9e565b60405180910390fd5b8181036000808673ffffffffffffffffffffffffffffffffffffffff1673ffffffffffffffffffffffffffffffffffffffff16815260200190815260200160002081905550816000808573ffffffffffffffffffffffffffffffffffffffff1673ffffffffffffffffffffffffffffffffffffffff168152602001908152602001600020600082825401925050819055508273ffffffffffffffffffffffffffffffffffffffff168473ffffffffffffffffffffffffffffffffffffffff167fddf252ad1be2c89b69c2b068fc378daa952ba7f163c4a11628f55a4df523b3ef846040516117919190611cbd565b60405180910390a36117a48484846119b4565b50505050565b6117b26112d7565b73ffffffffffffffffffffffffffffffffffffffff166117d0610aca565b73ffffffffffffffffffffffffffffffffffffffff1614611826576040517f08c379a000000000000000000000000000000000000000000000000000000000815260040161181d90612d0a565b60405180910390fd5b565b6000600560009054906101000a900473ffffffffffffffffffffffffffffffffffffffff16905081600560006101000a81548173ffffffffffffffffffffffffffffffffffffffff021916908373ffffffffffffffffffffffffffffffffffffffff1602179055508173ffffffffffffffffffffffffffffffffffffffff168173ffffffffffffffffffffffffffffffffffffffff167f8be0079c531659141344cd1fd0a4f28419497f9722a3daafe3b4186f6b6457e060405160405180910390a35050565b600260065403611933576040517f08c379a000000000000000000000000000000000000000000000000000000000815260040161192a90612d76565b60405180910390fd5b6002600681905550565b6001600681905550565b60008060006041845114611990576040517f08c379a000000000000000000000000000000000000000000000000000000000815260040161198790612de2565b60405180910390fd5b6020840151925060408401519150606084015160001a90509193909250565b505050565b505050565b6000604051905090565b600080fd5b600080fd5b600069ffffffffffffffffffff82169050919050565b6119ec816119cd565b81146119f757600080fd5b50565b600081519050611a09816119e3565b92915050565b6000819050919050565b611a2281611a0f565b8114611a2d57600080fd5b50565b600081519050611a3f81611a19565b92915050565b6000819050919050565b611a5881611a45565b8114611a6357600080fd5b50565b600081519050611a7581611a4f565b92915050565b600080600080600060a08688031215611a9757611a966119c3565b5b6000611aa5888289016119fa565b9550506020611ab688828901611a30565b9450506040611ac788828901611a66565b9350506060611ad888828901611a66565b9250506080611ae9888289016119fa565b9150509295509295909350565b600082825260208201905092915050565b7f496e76616c69642070726963652066726f6d20436861696e6c696e6b00000000600082015250565b6000611b3d601c83611af6565b9150611b4882611b07565b602082019050919050565b60006020820190508181036000830152611b6c81611b30565b9050919050565b7f4e487b7100000000000000000000000000000000000000000000000000000000600052601160045260246000fd5b6000611bad82611a45565b9150611bb883611a45565b9250828202611bc681611a45565b91508282048414831517611bdd57611bdc611b73565b5b5092915050565b7f4e487b7100000000000000000000000000000000000000000000000000000000600052601260045260246000fd5b6000611c1e82611a45565b9150611c2983611a45565b925082611c3957611c38611be4565b5b828204905092915050565b600073ffffffffffffffffffffffffffffffffffffffff82169050919050565b6000611c6f82611c44565b9050919050565b611c7f81611c64565b82525050565b611c8e81611a45565b82525050565b6000604082019050611ca96000830185611c76565b611cb66020830184611c85565b9392505050565b6000602082019050611cd26000830184611c85565b92915050565b600081519050919050565b60005b83811015611d01578082015181840152602081019050611ce6565b60008484015250505050565b6000601f19601f8301169050919050565b6000611d2982611cd8565b611d338185611af6565b9350611d43818560208601611ce3565b611d4c81611d0d565b840191505092915050565b60006020820190508181036000830152611d718184611d1e565b905092915050565b600081359050611d8881611a4f565b92915050565b600080fd5b600080fd5b7f4e487b7100000000000000000000000000000000000000000000000000000000600052604160045260246000fd5b611dd082611d0d565b810181811067ffffffffffffffff82111715611def57611dee611d98565b5b80604052505050565b6000611e026119b9565b9050611e0e8282611dc7565b919050565b600067ffffffffffffffff821115611e2e57611e2d611d98565b5b611e3782611d0d565b9050602081019050919050565b82818337600083830152505050565b6000611e66611e6184611e13565b611df8565b905082815260208101848484011115611e8257611e81611d93565b5b611e8d848285611e44565b509392505050565b600082601f830112611eaa57611ea9611d8e565b5b8135611eba848260208601611e53565b91505092915050565b600080600060608486031215611edc57611edb6119c3565b5b6000611eea86828701611d79565b9350506020611efb86828701611d79565b925050604084013567ffffffffffffffff811115611f1c57611f1b6119c8565b5b611f2886828701611e95565b9150509250925092565b611f3b81611c64565b8114611f4657600080fd5b50565b600081359050611f5881611f32565b92915050565b60008060408385031215611f7557611f746119c3565b5b6000611f8385828601611f49565b9250506020611f9485828601611d79565b9150509250929050565b60008115159050919050565b611fb381611f9e565b82525050565b6000602082019050611fce6000830184611faa565b92915050565b600080600060608486031215611fed57611fec6119c3565b5b6000611ffb86828701611f49565b935050602061200c86828701611f49565b925050604061201d86828701611d79565b9150509250925092565b600060ff82169050919050565b61203d81612027565b82525050565b60006020820190506120586000830184612034565b92915050565b600060208284031215612074576120736119c3565b5b600061208284828501611f49565b91505092915050565b60006020820190506120a06000830184611c76565b92915050565b6000819050919050565b60006120cb6120c66120c184611c44565b6120a6565b611c44565b9050919050565b60006120dd826120b0565b9050919050565b60006120ef826120d2565b9050919050565b6120ff816120e4565b82525050565b600060208201905061211a60008301846120f6565b92915050565b600060208284031215612136576121356119c3565b5b600061214484828501611d79565b91505092915050565b60008060408385031215612164576121636119c3565b5b600061217285828601611f49565b925050602061218385828601611f49565b9150509250929050565b6000612198826120d2565b9050919050565b6121a88161218d565b82525050565b60006020820190506121c3600083018461219f565b92915050565b7f4e487b7100000000000000000000000000000000000000000000000000000000600052602260045260246000fd5b6000600282049050600182168061221057607f821691505b602082108103612223576122226121c9565b5b50919050565b7f416d6f756e74206d7573742062652067726561746572207468616e207a65726f600082015250565b600061225f602083611af6565b915061226a82612229565b602082019050919050565b6000602082019050818103600083015261228e81612252565b9050919050565b60008160601b9050919050565b60006122ad82612295565b9050919050565b60006122bf826122a2565b9050919050565b6122d76122d282611c64565b6122b4565b82525050565b6000819050919050565b6122f86122f382611a45565b6122dd565b82525050565b600061230a82866122c6565b60148201915061231a82856122e7565b60208201915061232a82846122e7565b602082019150819050949350505050565b7f496e76616c6964207369676e6174757265000000000000000000000000000000600082015250565b6000612371601183611af6565b915061237c8261233b565b602082019050919050565b600060208201905081810360008301526123a081612364565b9050919050565b60006123b282611a45565b91506123bd83611a45565b92508282019050808211156123d5576123d4611b73565b5b92915050565b6000602082840312156123f1576123f06119c3565b5b60006123ff84828501611a66565b91505092915050565b7f4d75737420686f6c642061204d65726368616e7420546f6b656e000000000000600082015250565b600061243e601a83611af6565b915061244982612408565b602082019050919050565b6000602082019050818103600083015261246d81612431565b9050919050565b61247d81611f9e565b811461248857600080fd5b50565b60008151905061249a81612474565b92915050565b6000602082840312156124b6576124b56119c3565b5b60006124c48482850161248b565b91505092915050565b7f4d75737420686f6c6420612056616c6964204d65726368616e7420546f6b656e600082015250565b6000612503602083611af6565b915061250e826124cd565b602082019050919050565b60006020820190508181036000830152612532816124f6565b9050919050565b7f496e73756666696369656e74204c6974746572636f696e2062616c616e636500600082015250565b600061256f601f83611af6565b915061257a82612539565b602082019050919050565b6000602082019050818103600083015261259e81612562565b9050919050565b7f4e6f7420656e6f7567682045544820696e20636f6e7472616374000000000000600082015250565b60006125db601a83611af6565b91506125e6826125a5565b602082019050919050565b6000602082019050818103600083015261260a816125ce565b9050919050565b600081905092915050565b50565b600061262c600083612611565b91506126378261261c565b600082019050919050565b600061264d8261261f565b9150819050919050565b7f5472616e73666572206661696c65640000000000000000000000000000000000600082015250565b600061268d600f83611af6565b915061269882612657565b602082019050919050565b600060208201905081810360008301526126bc81612680565b9050919050565b60006040820190506126d86000830185611c85565b6126e56020830184611c85565b9392505050565b7f45524332303a2064656372656173656420616c6c6f77616e63652062656c6f7760008201527f207a65726f000000000000000000000000000000000000000000000000000000602082015250565b6000612748602583611af6565b9150612753826126ec565b604082019050919050565b600060208201905081810360008301526127778161273b565b9050919050565b7f4f776e61626c653a206e6577206f776e657220697320746865207a65726f206160008201527f6464726573730000000000000000000000000000000000000000000000000000602082015250565b60006127da602683611af6565b91506127e58261277e565b604082019050919050565b60006020820190508181036000830152612809816127cd565b9050919050565b600081905092915050565b7f19457468657265756d205369676e6564204d6573736167653a0a333200000000600082015250565b6000612851601c83612810565b915061285c8261281b565b601c82019050919050565b6000819050919050565b6000819050919050565b61288c61288782612867565b612871565b82525050565b600061289d82612844565b91506128a9828461287b565b60208201915081905092915050565b6128c181612867565b82525050565b60006080820190506128dc60008301876128b8565b6128e96020830186612034565b6128f660408301856128b8565b61290360608301846128b8565b95945050505050565b7f45524332303a206d696e7420746f20746865207a65726f206164647265737300600082015250565b6000612942601f83611af6565b915061294d8261290c565b602082019050919050565b6000602082019050818103600083015261297181612935565b9050919050565b7f45524332303a20617070726f76652066726f6d20746865207a65726f2061646460008201527f7265737300000000000000000000000000000000000000000000000000000000602082015250565b60006129d4602483611af6565b91506129df82612978565b604082019050919050565b60006020820190508181036000830152612a03816129c7565b9050919050565b7f45524332303a20617070726f766520746f20746865207a65726f20616464726560008201527f7373000000000000000000000000000000000000000000000000000000000000602082015250565b6000612a66602283611af6565b9150612a7182612a0a565b604082019050919050565b60006020820190508181036000830152612a9581612a59565b9050919050565b7f45524332303a20696e73756666696369656e7420616c6c6f77616e6365000000600082015250565b6000612ad2601d83611af6565b9150612add82612a9c565b602082019050919050565b60006020820190508181036000830152612b0181612ac5565b9050919050565b7f45524332303a207472616e736665722066726f6d20746865207a65726f20616460008201527f6472657373000000000000000000000000000000000000000000000000000000602082015250565b6000612b64602583611af6565b9150612b6f82612b08565b604082019050919050565b60006020820190508181036000830152612b9381612b57565b9050919050565b7f45524332303a207472616e7366657220746f20746865207a65726f206164647260008201527f6573730000000000000000000000000000000000000000000000000000000000602082015250565b6000612bf6602383611af6565b9150612c0182612b9a565b604082019050919050565b60006020820190508181036000830152612c2581612be9565b9050919050565b7f45524332303a207472616e7366657220616d6f756e742065786365656473206260008201527f616c616e63650000000000000000000000000000000000000000000000000000602082015250565b6000612c88602683611af6565b9150612c9382612c2c565b604082019050919050565b60006020820190508181036000830152612cb781612c7b565b9050919050565b7f4f776e61626c653a2063616c6c6572206973206e6f7420746865206f776e6572600082015250565b6000612cf4602083611af6565b9150612cff82612cbe565b602082019050919050565b60006020820190508181036000830152612d2381612ce7565b9050919050565b7f5265656e7472616e637947756172643a207265656e7472616e742063616c6c00600082015250565b6000612d60601f83611af6565b9150612d6b82612d2a565b602082019050919050565b60006020820190508181036000830152612d8f81612d53565b9050919050565b7f496e76616c6964207369676e6174757265206c656e6774680000000000000000600082015250565b6000612dcc601883611af6565b9150612dd782612d96565b602082019050919050565b60006020820190508181036000830152612dfb81612dbf565b905091905056fea2646970667358221220cd59131709ef2b7a64b97d2f2088cd83f493be605da77b7a7585d3dd0c9c67c664736f6c634300081b0033608060405234801561001057600080fd5b506040518060400160405280601081526020017f4f4c4d2052657761726420546f6b656e000000000000000000000000000000008152506040518060400160405280600581526020017f4f4c4d5254000000000000000000000000000000000000000000000000000000815250816003908161008c91906103de565b50806004908161009c91906103de565b5050506100bb6100b06100c060201b60201c565b6100c860201b60201c565b6104b0565b600033905090565b6000600560009054906101000a900473ffffffffffffffffffffffffffffffffffffffff16905081600560006101000a81548173ffffffffffffffffffffffffffffffffffffffff021916908373ffffffffffffffffffffffffffffffffffffffff1602179055508173ffffffffffffffffffffffffffffffffffffffff168173ffffffffffffffffffffffffffffffffffffffff167f8be0079c531659141344cd1fd0a4f28419497f9722a3daafe3b4186f6b6457e060405160405180910390a35050565b600081519050919050565b7f4e487b7100000000000000000000000000000000000000000000000000000000600052604160045260246000fd5b7f4e487b7100000000000000000000000000000000000000000000000000000000600052602260045260246000fd5b6000600282049050600182168061020f57607f821691505b602082108103610222576102216101c8565b5b50919050565b60008190508160005260206000209050919050565b60006020601f8301049050919050565b600082821b905092915050565b60006008830261028a7fffffffffffffffffffffffffffffffffffffffffffffffffffffffffffffffff8261024d565b610294868361024d565b95508019841693508086168417925050509392505050565b6000819050919050565b6000819050919050565b60006102db6102d66102d1846102ac565b6102b6565b6102ac565b9050919050565b6000819050919050565b6102f5836102c0565b610309610301826102e2565b84845461025a565b825550505050565b600090565b61031e610311565b6103298184846102ec565b505050565b5b8181101561034d57610342600082610316565b60018101905061032f565b5050565b601f8211156103925761036381610228565b61036c8461023d565b8101602085101561037b578190505b61038f6103878561023d565b83018261032e565b50505b505050565b600082821c905092915050565b60006103b560001984600802610397565b1980831691505092915050565b60006103ce83836103a4565b9150826002028217905092915050565b6103e78261018e565b67ffffffffffffffff811115610400576103ff610199565b5b61040a82546101f7565b610415828285610351565b600060209050601f8311600181146104485760008415610436578287015190505b61044085826103c2565b8655506104a8565b601f19841661045686610228565b60005b8281101561047e57848901518255600182019150602085019450602081019050610459565b8683101561049b5784890151610497601f8916826103a4565b8355505b6001600288020188555050505b505050505050565b6117e0806104bf6000396000f3fe608060405234801561001057600080fd5b50600436106100f55760003560e01c806370a0823111610097578063a457c2d711610066578063a457c2d714610276578063a9059cbb146102a6578063dd62ed3e146102d6578063f2fde38b14610306576100f5565b806370a0823114610200578063715018a6146102305780638da5cb5b1461023a57806395d89b4114610258576100f5565b806323b872dd116100d357806323b872dd14610166578063313ce5671461019657806339509351146101b457806340c10f19146101e4576100f5565b806306fdde03146100fa578063095ea7b31461011857806318160ddd14610148575b600080fd5b610102610322565b60405161010f9190610f29565b60405180910390f35b610132600480360381019061012d9190610fe4565b6103b4565b60405161013f919061103f565b60405180910390f35b6101506103d7565b60405161015d9190611069565b60405180910390f35b610180600480360381019061017b9190611084565b6103e1565b60405161018d919061103f565b60405180910390f35b61019e610410565b6040516101ab91906110f3565b60405180910390f35b6101ce60048036038101906101c99190610fe4565b610419565b6040516101db919061103f565b60405180910390f35b6101fe60048036038101906101f99190610fe4565b610450565b005b61021a6004803603810190610215919061110e565b610466565b6040516102279190611069565b60405180910390f35b6102386104ae565b005b6102426104c2565b60405161024f919061114a565b60405180910390f35b6102606104ec565b60405161026d9190610f29565b60405180910390f35b610290600480360381019061028b9190610fe4565b61057e565b60405161029d919061103f565b60405180910390f35b6102c060048036038101906102bb9190610fe4565b6105f5565b6040516102cd919061103f565b60405180910390f35b6102f060048036038101906102eb9190611165565b610618565b6040516102fd9190611069565b60405180910390f35b610320600480360381019061031b919061110e565b61069f565b005b606060038054610331906111d4565b80601f016020809104026020016040519081016040528092919081815260200182805461035d906111d4565b80156103aa5780601f1061037f576101008083540402835291602001916103aa565b820191906000526020600020905b81548152906001019060200180831161038d57829003601f168201915b5050505050905090565b6000806103bf610722565b90506103cc81858561072a565b600191505092915050565b6000600254905090565b6000806103ec610722565b90506103f98582856108f3565b61040485858561097f565b60019150509392505050565b60006012905090565b600080610424610722565b90506104458185856104368589610618565b6104409190611234565b61072a565b600191505092915050565b610458610bf5565b6104628282610c73565b5050565b60008060008373ffffffffffffffffffffffffffffffffffffffff1673ffffffffffffffffffffffffffffffffffffffff168152602001908152602001600020549050919050565b6104b6610bf5565b6104c06000610dc9565b565b6000600560009054906101000a900473ffffffffffffffffffffffffffffffffffffffff16905090565b6060600480546104fb906111d4565b80601f0160208091040260200160405190810160405280929190818152602001828054610527906111d4565b80156105745780601f1061054957610100808354040283529160200191610574565b820191906000526020600020905b81548152906001019060200180831161055757829003601f168201915b5050505050905090565b600080610589610722565b905060006105978286610618565b9050838110156105dc576040517f08c379a00000000000000000000000000000000000000000000000000000000081526004016105d3906112da565b60405180910390fd5b6105e9828686840361072a565b60019250505092915050565b600080610600610722565b905061060d81858561097f565b600191505092915050565b6000600160008473ffffffffffffffffffffffffffffffffffffffff1673ffffffffffffffffffffffffffffffffffffffff16815260200190815260200160002060008373ffffffffffffffffffffffffffffffffffffffff1673ffffffffffffffffffffffffffffffffffffffff16815260200190815260200160002054905092915050565b6106a7610bf5565b600073ffffffffffffffffffffffffffffffffffffffff168173ffffffffffffffffffffffffffffffffffffffff1603610716576040517f08c379a000000000000000000000000000000000000000000000000000000000815260040161070d9061136c565b60405180910390fd5b61071f81610dc9565b50565b600033905090565b600073ffffffffffffffffffffffffffffffffffffffff168373ffffffffffffffffffffffffffffffffffffffff1603610799576040517f08c379a0000000000000000000000000000000000000000000000000000000008152600401610790906113fe565b60405180910390fd5b600073ffffffffffffffffffffffffffffffffffffffff168273ffffffffffffffffffffffffffffffffffffffff1603610808576040517f08c379a00000000000000000000000000000000000000000000000000000000081526004016107ff90611490565b60405180910390fd5b80600160008573ffffffffffffffffffffffffffffffffffffffff1673ffffffffffffffffffffffffffffffffffffffff16815260200190815260200160002060008473ffffffffffffffffffffffffffffffffffffffff1673ffffffffffffffffffffffffffffffffffffffff168152602001908152602001600020819055508173ffffffffffffffffffffffffffffffffffffffff168373ffffffffffffffffffffffffffffffffffffffff167f8c5be1e5ebec7d5bd14f71427d1e84f3dd0314c0f7b2291e5b200ac8c7c3b925836040516108e69190611069565b60405180910390a3505050565b60006108ff8484610618565b90507fffffffffffffffffffffffffffffffffffffffffffffffffffffffffffffffff8114610979578181101561096b576040517f08c379a0000000000000000000000000000000000000000000000000000000008152600401610962906114fc565b60405180910390fd5b610978848484840361072a565b5b50505050565b600073ffffffffffffffffffffffffffffffffffffffff168373ffffffffffffffffffffffffffffffffffffffff16036109ee576040517f08c379a00000000000000000000000000000000000000000000000000000000081526004016109e59061158e565b60405180910390fd5b600073ffffffffffffffffffffffffffffffffffffffff168273ffffffffffffffffffffffffffffffffffffffff1603610a5d576040517f08c379a0000000000000000000000000000000000000000000000000000000008152600401610a5490611620565b60405180910390fd5b610a68838383610e8f565b60008060008573ffffffffffffffffffffffffffffffffffffffff1673ffffffffffffffffffffffffffffffffffffffff16815260200190815260200160002054905081811015610aee576040517f08c379a0000000000000000000000000000000000000000000000000000000008152600401610ae5906116b2565b60405180910390fd5b8181036000808673ffffffffffffffffffffffffffffffffffffffff1673ffffffffffffffffffffffffffffffffffffffff16815260200190815260200160002081905550816000808573ffffffffffffffffffffffffffffffffffffffff1673ffffffffffffffffffffffffffffffffffffffff168152602001908152602001600020600082825401925050819055508273ffffffffffffffffffffffffffffffffffffffff168473ffffffffffffffffffffffffffffffffffffffff167fddf252ad1be2c89b69c2b068fc378daa952ba7f163c4a11628f55a4df523b3ef84604051610bdc9190611069565b60405180910390a3610bef848484610e94565b50505050565b610bfd610722565b73ffffffffffffffffffffffffffffffffffffffff16610c1b6104c2565b73ffffffffffffffffffffffffffffffffffffffff1614610c71576040517f08c379a0000000000000000000000000000000000000000000000000000000008152600401610c689061171e565b60405180910390fd5b565b600073ffffffffffffffffffffffffffffffffffffffff168273ffffffffffffffffffffffffffffffffffffffff1603610ce2576040517f08c379a0000000000000000000000000000000000000000000000000000000008152600401610cd99061178a565b60405180910390fd5b610cee60008383610e8f565b8060026000828254610d009190611234565b92505081905550806000808473ffffffffffffffffffffffffffffffffffffffff1673ffffffffffffffffffffffffffffffffffffffff168152602001908152602001600020600082825401925050819055508173ffffffffffffffffffffffffffffffffffffffff16600073ffffffffffffffffffffffffffffffffffffffff167fddf252ad1be2c89b69c2b068fc378daa952ba7f163c4a11628f55a4df523b3ef83604051610db19190611069565b60405180910390a3610dc560008383610e94565b5050565b6000600560009054906101000a900473ffffffffffffffffffffffffffffffffffffffff16905081600560006101000a81548173ffffffffffffffffffffffffffffffffffffffff021916908373ffffffffffffffffffffffffffffffffffffffff1602179055508173ffffffffffffffffffffffffffffffffffffffff168173ffffffffffffffffffffffffffffffffffffffff167f8be0079c531659141344cd1fd0a4f28419497f9722a3daafe3b4186f6b6457e060405160405180910390a35050565b505050565b505050565b600081519050919050565b600082825260208201905092915050565b60005b83811015610ed3578082015181840152602081019050610eb8565b60008484015250505050565b6000601f19601f8301169050919050565b6000610efb82610e99565b610f058185610ea4565b9350610f15818560208601610eb5565b610f1e81610edf565b840191505092915050565b60006020820190508181036000830152610f438184610ef0565b905092915050565b600080fd5b600073ffffffffffffffffffffffffffffffffffffffff82169050919050565b6000610f7b82610f50565b9050919050565b610f8b81610f70565b8114610f9657600080fd5b50565b600081359050610fa881610f82565b92915050565b6000819050919050565b610fc181610fae565b8114610fcc57600080fd5b50565b600081359050610fde81610fb8565b92915050565b60008060408385031215610ffb57610ffa610f4b565b5b600061100985828601610f99565b925050602061101a85828601610fcf565b9150509250929050565b60008115159050919050565b61103981611024565b82525050565b60006020820190506110546000830184611030565b92915050565b61106381610fae565b82525050565b600060208201905061107e600083018461105a565b92915050565b60008060006060848603121561109d5761109c610f4b565b5b60006110ab86828701610f99565b93505060206110bc86828701610f99565b92505060406110cd86828701610fcf565b9150509250925092565b600060ff82169050919050565b6110ed816110d7565b82525050565b600060208201905061110860008301846110e4565b92915050565b60006020828403121561112457611123610f4b565b5b600061113284828501610f99565b91505092915050565b61114481610f70565b82525050565b600060208201905061115f600083018461113b565b92915050565b6000806040838503121561117c5761117b610f4b565b5b600061118a85828601610f99565b925050602061119b85828601610f99565b9150509250929050565b7f4e487b7100000000000000000000000000000000000000000000000000000000600052602260045260246000fd5b600060028204905060018216806111ec57607f821691505b6020821081036111ff576111fe6111a5565b5b50919050565b7f4e487b7100000000000000000000000000000000000000000000000000000000600052601160045260246000fd5b600061123f82610fae565b915061124a83610fae565b925082820190508082111561126257611261611205565b5b92915050565b7f45524332303a2064656372656173656420616c6c6f77616e63652062656c6f7760008201527f207a65726f000000000000000000000000000000000000000000000000000000602082015250565b60006112c4602583610ea4565b91506112cf82611268565b604082019050919050565b600060208201905081810360008301526112f3816112b7565b9050919050565b7f4f776e61626c653a206e6577206f776e657220697320746865207a65726f206160008201527f6464726573730000000000000000000000000000000000000000000000000000602082015250565b6000611356602683610ea4565b9150611361826112fa565b604082019050919050565b6000602082019050818103600083015261138581611349565b9050919050565b7f45524332303a20617070726f76652066726f6d20746865207a65726f2061646460008201527f7265737300000000000000000000000000000000000000000000000000000000602082015250565b60006113e8602483610ea4565b91506113f38261138c565b604082019050919050565b60006020820190508181036000830152611417816113db565b9050919050565b7f45524332303a20617070726f766520746f20746865207a65726f20616464726560008201527f7373000000000000000000000000000000000000000000000000000000000000602082015250565b600061147a602283610ea4565b91506114858261141e565b604082019050919050565b600060208201905081810360008301526114a98161146d565b9050919050565b7f45524332303a20696e73756666696369656e7420616c6c6f77616e6365000000600082015250565b60006114e6601d83610ea4565b91506114f1826114b0565b602082019050919050565b60006020820190508181036000830152611515816114d9565b9050919050565b7f45524332303a207472616e736665722066726f6d20746865207a65726f20616460008201527f6472657373000000000000000000000000000000000000000000000000000000602082015250565b6000611578602583610ea4565b91506115838261151c565b604082019050919050565b600060208201905081810360008301526115a78161156b565b9050919050565b7f45524332303a207472616e7366657220746f20746865207a65726f206164647260008201527f6573730000000000000000000000000000000000000000000000000000000000602082015250565b600061160a602383610ea4565b9150611615826115ae565b604082019050919050565b60006020820190508181036000830152611639816115fd565b9050919050565b7f45524332303a207472616e7366657220616d6f756e742065786365656473206260008201527f616c616e63650000000000000000000000000000000000000000000000000000602082015250565b600061169c602683610ea4565b91506116a782611640565b604082019050919050565b600060208201905081810360008301526116cb8161168f565b9050919050565b7f4f776e61626c653a2063616c6c6572206973206e6f7420746865206f776e6572600082015250565b6000611708602083610ea4565b9150611713826116d2565b602082019050919050565b60006020820190508181036000830152611737816116fb565b9050919050565b7f45524332303a206d696e7420746f20746865207a65726f206164647265737300600082015250565b6000611774601f83610ea4565b915061177f8261173e565b602082019050919050565b600060208201905081810360008301526117a381611767565b905091905056fea2646970667358221220af20ee9085baea6d3365493d9a9c372a7cee3e7ac2647d892ac51a03d58530b864736f6c634300081b0033608060405234801561001057600080fd5b506040518060400160405280600d81526020017f4d65726368616e74546f6b656e000000000000000000000000000000000000008152506040518060400160405280600481526020017f4c434d5400000000000000000000000000000000000000000000000000000000815250816000908161008c91906103e6565b50806001908161009c91906103e6565b5050506100bb6100b06100c860201b60201c565b6100d060201b60201c565b6001600b819055506104b8565b600033905090565b6000600a60009054906101000a900473ffffffffffffffffffffffffffffffffffffffff16905081600a60006101000a81548173ffffffffffffffffffffffffffffffffffffffff021916908373ffffffffffffffffffffffffffffffffffffffff1602179055508173ffffffffffffffffffffffffffffffffffffffff168173ffffffffffffffffffffffffffffffffffffffff167f8be0079c531659141344cd1fd0a4f28419497f9722a3daafe3b4186f6b6457e060405160405180910390a35050565b600081519050919050565b7f4e487b7100000000000000000000000000000000000000000000000000000000600052604160045260246000fd5b7f4e487b7100000000000000000000000000000000000000000000000000000000600052602260045260246000fd5b6000600282049050600182168061021757607f821691505b60208210810361022a576102296101d0565b5b50919050565b60008190508160005260206000209050919050565b60006020601f8301049050919050565b600082821b905092915050565b6000600883026102927fffffffffffffffffffffffffffffffffffffffffffffffffffffffffffffffff82610255565b61029c8683610255565b95508019841693508086168417925050509392505050565b6000819050919050565b6000819050919050565b60006102e36102de6102d9846102b4565b6102be565b6102b4565b9050919050565b6000819050919050565b6102fd836102c8565b610311610309826102ea565b848454610262565b825550505050565b600090565b610326610319565b6103318184846102f4565b505050565b5b818110156103555761034a60008261031e565b600181019050610337565b5050565b601f82111561039a5761036b81610230565b61037484610245565b81016020851015610383578190505b61039761038f85610245565b830182610336565b50505b505050565b600082821c905092915050565b60006103bd6000198460080261039f565b1980831691505092915050565b60006103d683836103ac565b9150826002028217905092915050565b6103ef82610196565b67ffffffffffffffff811115610408576104076101a1565b5b61041282546101ff565b61041d828285610359565b600060209050601f831160018114610450576000841561043e578287015190505b61044885826103ca565b8655506104b0565b601f19841661045e86610230565b60005b8281101561048657848901518255600182019150602085019450602081019050610461565b868310156104a3578489015161049f601f8916826103ac565b8355505b6001600288020188555050505b505050505050565b61353e806104c76000396000f3fe608060405234801561001057600080fd5b50600436106101735760003560e01c80636a627842116100de578063a22cb46511610097578063d082e38111610071578063d082e38114610470578063d9548e531461048e578063e985e9c5146104be578063f2fde38b146104ee57610173565b8063a22cb46514610408578063b88d4fde14610424578063c87b56dd1461044057610173565b80636a6278421461035857806370a0823114610374578063715018a6146103a45780638da5cb5b146103ae57806395d89b41146103cc5780639611562e146103ea57610173565b806318160ddd1161013057806318160ddd1461027257806323b872dd146102905780632f745c59146102ac57806342842e0e146102dc5780634f6ccce7146102f85780636352211e1461032857610173565b806301ffc9a71461017857806302556a29146101a857806306fdde03146101d8578063081812fc146101f6578063095ea7b31461022657806313c7260814610242575b600080fd5b610192600480360381019061018d91906123fc565b61050a565b60405161019f9190612444565b60405180910390f35b6101c260048036038101906101bd91906124bd565b61051c565b6040516101cf9190612444565b60405180910390f35b6101e0610588565b6040516101ed919061257a565b60405180910390f35b610210600480360381019061020b91906125d2565b61061a565b60405161021d919061260e565b60405180910390f35b610240600480360381019061023b9190612629565b610660565b005b61025c600480360381019061025791906125d2565b610777565b6040516102699190612678565b60405180910390f35b61027a6107dc565b6040516102879190612678565b60405180910390f35b6102aa60048036038101906102a59190612693565b6107e9565b005b6102c660048036038101906102c19190612629565b610849565b6040516102d39190612678565b60405180910390f35b6102f660048036038101906102f19190612693565b6108ee565b005b610312600480360381019061030d91906125d2565b61090e565b60405161031f9190612678565b60405180910390f35b610342600480360381019061033d91906125d2565b61097f565b60405161034f919061260e565b60405180910390f35b610372600480360381019061036d91906124bd565b610a05565b005b61038e600480360381019061038991906124bd565b610ab9565b60405161039b9190612678565b60405180910390f35b6103ac610b70565b005b6103b6610b84565b6040516103c3919061260e565b60405180910390f35b6103d4610bae565b6040516103e1919061257a565b60405180910390f35b6103f2610c40565b6040516103ff9190612678565b60405180910390f35b610422600480360381019061041d9190612712565b610c48565b005b61043e60048036038101906104399190612887565b610c5e565b005b61045a600480360381019061045591906125d2565b610cc0565b604051610467919061257a565b60405180910390f35b610478610d28565b6040516104859190612678565b60405180910390f35b6104a860048036038101906104a391906125d2565b610d2e565b6040516104b59190612444565b60405180910390f35b6104d860048036038101906104d3919061290a565b610d95565b6040516104e59190612444565b60405180910390f35b610508600480360381019061050391906124bd565b610e29565b005b600061051582610eac565b9050919050565b60008061052883610ab9565b90506000810361053c576000915050610583565b60005b8181101561057c5760006105538583610849565b905061055e81610d2e565b61056e5760019350505050610583565b50808060010191505061053f565b5060009150505b919050565b60606000805461059790612979565b80601f01602080910402602001604051908101604052809291908181526020018280546105c390612979565b80156106105780601f106105e557610100808354040283529160200191610610565b820191906000526020600020905b8154815290600101906020018083116105f357829003601f168201915b5050505050905090565b600061062582610f26565b6004600083815260200190815260200160002060009054906101000a900473ffffffffffffffffffffffffffffffffffffffff169050919050565b600061066b8261097f565b90508073ffffffffffffffffffffffffffffffffffffffff168373ffffffffffffffffffffffffffffffffffffffff16036106db576040517f08c379a00000000000000000000000000000000000000000000000000000000081526004016106d290612a1c565b60405180910390fd5b8073ffffffffffffffffffffffffffffffffffffffff166106fa610f71565b73ffffffffffffffffffffffffffffffffffffffff161480610729575061072881610723610f71565b610d95565b5b610768576040517f08c379a000000000000000000000000000000000000000000000000000000000815260040161075f90612aae565b60405180910390fd5b6107728383610f79565b505050565b600061078282611032565b6107c1576040517f08c379a00000000000000000000000000000000000000000000000000000000081526004016107b890612b1a565b60405180910390fd5b600c6000838152602001908152602001600020549050919050565b6000600880549050905090565b6107fa6107f4610f71565b82611073565b610839576040517f08c379a000000000000000000000000000000000000000000000000000000000815260040161083090612bac565b60405180910390fd5b610844838383611108565b505050565b600061085483610ab9565b8210610895576040517f08c379a000000000000000000000000000000000000000000000000000000000815260040161088c90612c3e565b60405180910390fd5b600660008473ffffffffffffffffffffffffffffffffffffffff1673ffffffffffffffffffffffffffffffffffffffff168152602001908152602001600020600083815260200190815260200160002054905092915050565b61090983838360405180602001604052806000815250610c5e565b505050565b60006109186107dc565b8210610959576040517f08c379a000000000000000000000000000000000000000000000000000000000815260040161095090612cd0565b60405180910390fd5b6008828154811061096d5761096c612cf0565b5b90600052602060002001549050919050565b60008061098b83611401565b9050600073ffffffffffffffffffffffffffffffffffffffff168173ffffffffffffffffffffffffffffffffffffffff16036109fc576040517f08c379a00000000000000000000000000000000000000000000000000000000081526004016109f390612d6b565b60405180910390fd5b80915050919050565b610a0d61143e565b6000600b5490506001600b6000828254610a279190612dba565b9250508190555060006301e1338042610a409190612dba565b905080600c600084815260200190815260200160002081905550610a6483836114bc565b8273ffffffffffffffffffffffffffffffffffffffff167f655ff37b06d138fc26fda07d435a40368e63b8d3cbd7835215334ff9e7fcd7828383604051610aac929190612dee565b60405180910390a2505050565b60008073ffffffffffffffffffffffffffffffffffffffff168273ffffffffffffffffffffffffffffffffffffffff1603610b29576040517f08c379a0000000000000000000000000000000000000000000000000000000008152600401610b2090612e89565b60405180910390fd5b600360008373ffffffffffffffffffffffffffffffffffffffff1673ffffffffffffffffffffffffffffffffffffffff168152602001908152602001600020549050919050565b610b7861143e565b610b8260006114da565b565b6000600a60009054906101000a900473ffffffffffffffffffffffffffffffffffffffff16905090565b606060018054610bbd90612979565b80601f0160208091040260200160405190810160405280929190818152602001828054610be990612979565b8015610c365780601f10610c0b57610100808354040283529160200191610c36565b820191906000526020600020905b815481529060010190602001808311610c1957829003601f168201915b5050505050905090565b6301e1338081565b610c5a610c53610f71565b83836115a0565b5050565b610c6f610c69610f71565b83611073565b610cae576040517f08c379a0000000000000000000000000000000000000000000000000000000008152600401610ca590612bac565b60405180910390fd5b610cba8484848461170c565b50505050565b6060610ccb82610f26565b6000610cd5611768565b90506000815111610cf55760405180602001604052806000815250610d20565b80610cff8461177f565b604051602001610d10929190612ee5565b6040516020818303038152906040525b915050919050565b600b5481565b6000610d3982611032565b610d78576040517f08c379a0000000000000000000000000000000000000000000000000000000008152600401610d6f90612b1a565b60405180910390fd5b600c60008381526020019081526020016000205442119050919050565b6000600560008473ffffffffffffffffffffffffffffffffffffffff1673ffffffffffffffffffffffffffffffffffffffff16815260200190815260200160002060008373ffffffffffffffffffffffffffffffffffffffff1673ffffffffffffffffffffffffffffffffffffffff16815260200190815260200160002060009054906101000a900460ff16905092915050565b610e3161143e565b600073ffffffffffffffffffffffffffffffffffffffff168173ffffffffffffffffffffffffffffffffffffffff1603610ea0576040517f08c379a0000000000000000000000000000000000000000000000000000000008152600401610e9790612f7b565b60405180910390fd5b610ea9816114da565b50565b60007f780e9d63000000000000000000000000000000000000000000000000000000007bffffffffffffffffffffffffffffffffffffffffffffffffffffffff1916827bffffffffffffffffffffffffffffffffffffffffffffffffffffffff19161480610f1f5750610f1e8261184d565b5b9050919050565b610f2f81611032565b610f6e576040517f08c379a0000000000000000000000000000000000000000000000000000000008152600401610f6590612d6b565b60405180910390fd5b50565b600033905090565b816004600083815260200190815260200160002060006101000a81548173ffffffffffffffffffffffffffffffffffffffff021916908373ffffffffffffffffffffffffffffffffffffffff160217905550808273ffffffffffffffffffffffffffffffffffffffff16610fec8361097f565b73ffffffffffffffffffffffffffffffffffffffff167f8c5be1e5ebec7d5bd14f71427d1e84f3dd0314c0f7b2291e5b200ac8c7c3b92560405160405180910390a45050565b60008073ffffffffffffffffffffffffffffffffffffffff1661105483611401565b73ffffffffffffffffffffffffffffffffffffffff1614159050919050565b60008061107f8361097f565b90508073ffffffffffffffffffffffffffffffffffffffff168473ffffffffffffffffffffffffffffffffffffffff1614806110c157506110c08185610d95565b5b806110ff57508373ffffffffffffffffffffffffffffffffffffffff166110e78461061a565b73ffffffffffffffffffffffffffffffffffffffff16145b91505092915050565b8273ffffffffffffffffffffffffffffffffffffffff166111288261097f565b73ffffffffffffffffffffffffffffffffffffffff161461117e576040517f08c379a00000000000000000000000000000000000000000000000000000000081526004016111759061300d565b60405180910390fd5b600073ffffffffffffffffffffffffffffffffffffffff168273ffffffffffffffffffffffffffffffffffffffff16036111ed576040517f08c379a00000000000000000000000000000000000000000000000000000000081526004016111e49061309f565b60405180910390fd5b6111fa838383600161192f565b8273ffffffffffffffffffffffffffffffffffffffff1661121a8261097f565b73ffffffffffffffffffffffffffffffffffffffff1614611270576040517f08c379a00000000000000000000000000000000000000000000000000000000081526004016112679061300d565b60405180910390fd5b6004600082815260200190815260200160002060006101000a81549073ffffffffffffffffffffffffffffffffffffffff02191690556001600360008573ffffffffffffffffffffffffffffffffffffffff1673ffffffffffffffffffffffffffffffffffffffff168152602001908152602001600020600082825403925050819055506001600360008473ffffffffffffffffffffffffffffffffffffffff1673ffffffffffffffffffffffffffffffffffffffff16815260200190815260200160002060008282540192505081905550816002600083815260200190815260200160002060006101000a81548173ffffffffffffffffffffffffffffffffffffffff021916908373ffffffffffffffffffffffffffffffffffffffff160217905550808273ffffffffffffffffffffffffffffffffffffffff168473ffffffffffffffffffffffffffffffffffffffff167fddf252ad1be2c89b69c2b068fc378daa952ba7f163c4a11628f55a4df523b3ef60405160405180910390a46113fc8383836001611941565b505050565b60006002600083815260200190815260200160002060009054906101000a900473ffffffffffffffffffffffffffffffffffffffff169050919050565b611446610f71565b73ffffffffffffffffffffffffffffffffffffffff16611464610b84565b73ffffffffffffffffffffffffffffffffffffffff16146114ba576040517f08c379a00000000000000000000000000000000000000000000000000000000081526004016114b19061310b565b60405180910390fd5b565b6114d6828260405180602001604052806000815250611947565b5050565b6000600a60009054906101000a900473ffffffffffffffffffffffffffffffffffffffff16905081600a60006101000a81548173ffffffffffffffffffffffffffffffffffffffff021916908373ffffffffffffffffffffffffffffffffffffffff1602179055508173ffffffffffffffffffffffffffffffffffffffff168173ffffffffffffffffffffffffffffffffffffffff167f8be0079c531659141344cd1fd0a4f28419497f9722a3daafe3b4186f6b6457e060405160405180910390a35050565b8173ffffffffffffffffffffffffffffffffffffffff168373ffffffffffffffffffffffffffffffffffffffff160361160e576040517f08c379a000000000000000000000000000000000000000000000000000000000815260040161160590613177565b60405180910390fd5b80600560008573ffffffffffffffffffffffffffffffffffffffff1673ffffffffffffffffffffffffffffffffffffffff16815260200190815260200160002060008473ffffffffffffffffffffffffffffffffffffffff1673ffffffffffffffffffffffffffffffffffffffff16815260200190815260200160002060006101000a81548160ff0219169083151502179055508173ffffffffffffffffffffffffffffffffffffffff168373ffffffffffffffffffffffffffffffffffffffff167f17307eab39ab6107e8899845ad3d59bd9653f200f220920489ca2b5937696c31836040516116ff9190612444565b60405180910390a3505050565b611717848484611108565b611723848484846119a2565b611762576040517f08c379a000000000000000000000000000000000000000000000000000000000815260040161175990613209565b60405180910390fd5b50505050565b606060405180602001604052806000815250905090565b60606000600161178e84611b29565b01905060008167ffffffffffffffff8111156117ad576117ac61275c565b5b6040519080825280601f01601f1916602001820160405280156117df5781602001600182028036833780820191505090505b509050600082602001820190505b600115611842578080600190039150507f3031323334353637383961626364656600000000000000000000000000000000600a86061a8153600a858161183657611835613229565b5b049450600085036117ed575b819350505050919050565b60007f80ac58cd000000000000000000000000000000000000000000000000000000007bffffffffffffffffffffffffffffffffffffffffffffffffffffffff1916827bffffffffffffffffffffffffffffffffffffffffffffffffffffffff1916148061191857507f5b5e139f000000000000000000000000000000000000000000000000000000007bffffffffffffffffffffffffffffffffffffffffffffffffffffffff1916827bffffffffffffffffffffffffffffffffffffffffffffffffffffffff1916145b80611928575061192782611c7c565b5b9050919050565b61193b84848484611ce6565b50505050565b50505050565b6119518383611e44565b61195e60008484846119a2565b61199d576040517f08c379a000000000000000000000000000000000000000000000000000000000815260040161199490613209565b60405180910390fd5b505050565b60006119c38473ffffffffffffffffffffffffffffffffffffffff16612061565b15611b1c578373ffffffffffffffffffffffffffffffffffffffff1663150b7a026119ec610f71565b8786866040518563ffffffff1660e01b8152600401611a0e94939291906132ad565b6020604051808303816000875af1925050508015611a4a57506040513d601f19601f82011682018060405250810190611a47919061330e565b60015b611acc573d8060008114611a7a576040519150601f19603f3d011682016040523d82523d6000602084013e611a7f565b606091505b506000815103611ac4576040517f08c379a0000000000000000000000000000000000000000000000000000000008152600401611abb90613209565b60405180910390fd5b805181602001fd5b63150b7a0260e01b7bffffffffffffffffffffffffffffffffffffffffffffffffffffffff1916817bffffffffffffffffffffffffffffffffffffffffffffffffffffffff191614915050611b21565b600190505b949350505050565b600080600090507a184f03e93ff9f4daa797ed6e38ed64bf6a1f0100000000000000008310611b87577a184f03e93ff9f4daa797ed6e38ed64bf6a1f0100000000000000008381611b7d57611b7c613229565b5b0492506040810190505b6d04ee2d6d415b85acef81000000008310611bc4576d04ee2d6d415b85acef81000000008381611bba57611bb9613229565b5b0492506020810190505b662386f26fc100008310611bf357662386f26fc100008381611be957611be8613229565b5b0492506010810190505b6305f5e1008310611c1c576305f5e1008381611c1257611c11613229565b5b0492506008810190505b6127108310611c41576127108381611c3757611c36613229565b5b0492506004810190505b60648310611c645760648381611c5a57611c59613229565b5b0492506002810190505b600a8310611c73576001810190505b80915050919050565b60007f01ffc9a7000000000000000000000000000000000000000000000000000000007bffffffffffffffffffffffffffffffffffffffffffffffffffffffff1916827bffffffffffffffffffffffffffffffffffffffffffffffffffffffff1916149050919050565b611cf284848484612084565b6001811115611d36576040517f08c379a0000000000000000000000000000000000000000000000000000000008152600401611d2d906133ad565b60405180910390fd5b6000829050600073ffffffffffffffffffffffffffffffffffffffff168573ffffffffffffffffffffffffffffffffffffffff1603611d7d57611d788161208a565b611dbc565b8373ffffffffffffffffffffffffffffffffffffffff168573ffffffffffffffffffffffffffffffffffffffff1614611dbb57611dba85826120d3565b5b5b600073ffffffffffffffffffffffffffffffffffffffff168473ffffffffffffffffffffffffffffffffffffffff1603611dfe57611df981612240565b611e3d565b8473ffffffffffffffffffffffffffffffffffffffff168473ffffffffffffffffffffffffffffffffffffffff1614611e3c57611e3b8482612311565b5b5b5050505050565b600073ffffffffffffffffffffffffffffffffffffffff168273ffffffffffffffffffffffffffffffffffffffff1603611eb3576040517f08c379a0000000000000000000000000000000000000000000000000000000008152600401611eaa90613419565b60405180910390fd5b611ebc81611032565b15611efc576040517f08c379a0000000000000000000000000000000000000000000000000000000008152600401611ef390613485565b60405180910390fd5b611f0a60008383600161192f565b611f1381611032565b15611f53576040517f08c379a0000000000000000000000000000000000000000000000000000000008152600401611f4a90613485565b60405180910390fd5b6001600360008473ffffffffffffffffffffffffffffffffffffffff1673ffffffffffffffffffffffffffffffffffffffff16815260200190815260200160002060008282540192505081905550816002600083815260200190815260200160002060006101000a81548173ffffffffffffffffffffffffffffffffffffffff021916908373ffffffffffffffffffffffffffffffffffffffff160217905550808273ffffffffffffffffffffffffffffffffffffffff16600073ffffffffffffffffffffffffffffffffffffffff167fddf252ad1be2c89b69c2b068fc378daa952ba7f163c4a11628f55a4df523b3ef60405160405180910390a461205d600083836001611941565b5050565b6000808273ffffffffffffffffffffffffffffffffffffffff163b119050919050565b50505050565b6008805490506009600083815260200190815260200160002081905550600881908060018154018082558091505060019003906000526020600020016000909190919091505550565b600060016120e084610ab9565b6120ea91906134a5565b90506000600760008481526020019081526020016000205490508181146121cf576000600660008673ffffffffffffffffffffffffffffffffffffffff1673ffffffffffffffffffffffffffffffffffffffff168152602001908152602001600020600084815260200190815260200160002054905080600660008773ffffffffffffffffffffffffffffffffffffffff1673ffffffffffffffffffffffffffffffffffffffff168152602001908152602001600020600084815260200190815260200160002081905550816007600083815260200190815260200160002081905550505b6007600084815260200190815260200160002060009055600660008573ffffffffffffffffffffffffffffffffffffffff1673ffffffffffffffffffffffffffffffffffffffff16815260200190815260200160002060008381526020019081526020016000206000905550505050565b6000600160088054905061225491906134a5565b905060006009600084815260200190815260200160002054905060006008838154811061228457612283612cf0565b5b9060005260206000200154905080600883815481106122a6576122a5612cf0565b5b9060005260206000200181905550816009600083815260200190815260200160002081905550600960008581526020019081526020016000206000905560088054806122f5576122f46134d9565b5b6001900381819060005260206000200160009055905550505050565b600061231c83610ab9565b905081600660008573ffffffffffffffffffffffffffffffffffffffff1673ffffffffffffffffffffffffffffffffffffffff168152602001908152602001600020600083815260200190815260200160002081905550806007600084815260200190815260200160002081905550505050565b6000604051905090565b600080fd5b600080fd5b60007fffffffff0000000000000000000000000000000000000000000000000000000082169050919050565b6123d9816123a4565b81146123e457600080fd5b50565b6000813590506123f6816123d0565b92915050565b6000602082840312156124125761241161239a565b5b6000612420848285016123e7565b91505092915050565b60008115159050919050565b61243e81612429565b82525050565b60006020820190506124596000830184612435565b92915050565b600073ffffffffffffffffffffffffffffffffffffffff82169050919050565b600061248a8261245f565b9050919050565b61249a8161247f565b81146124a557600080fd5b50565b6000813590506124b781612491565b92915050565b6000602082840312156124d3576124d261239a565b5b60006124e1848285016124a8565b91505092915050565b600081519050919050565b600082825260208201905092915050565b60005b83811015612524578082015181840152602081019050612509565b60008484015250505050565b6000601f19601f8301169050919050565b600061254c826124ea565b61255681856124f5565b9350612566818560208601612506565b61256f81612530565b840191505092915050565b600060208201905081810360008301526125948184612541565b905092915050565b6000819050919050565b6125af8161259c565b81146125ba57600080fd5b50565b6000813590506125cc816125a6565b92915050565b6000602082840312156125e8576125e761239a565b5b60006125f6848285016125bd565b91505092915050565b6126088161247f565b82525050565b600060208201905061262360008301846125ff565b92915050565b600080604083850312156126405761263f61239a565b5b600061264e858286016124a8565b925050602061265f858286016125bd565b9150509250929050565b6126728161259c565b82525050565b600060208201905061268d6000830184612669565b92915050565b6000806000606084860312156126ac576126ab61239a565b5b60006126ba868287016124a8565b93505060206126cb868287016124a8565b92505060406126dc868287016125bd565b9150509250925092565b6126ef81612429565b81146126fa57600080fd5b50565b60008135905061270c816126e6565b92915050565b600080604083850312156127295761272861239a565b5b6000612737858286016124a8565b9250506020612748858286016126fd565b9150509250929050565b600080fd5b600080fd5b7f4e487b7100000000000000000000000000000000000000000000000000000000600052604160045260246000fd5b61279482612530565b810181811067ffffffffffffffff821117156127b3576127b261275c565b5b80604052505050565b60006127c6612390565b90506127d2828261278b565b919050565b600067ffffffffffffffff8211156127f2576127f161275c565b5b6127fb82612530565b9050602081019050919050565b82818337600083830152505050565b600061282a612825846127d7565b6127bc565b90508281526020810184848401111561284657612845612757565b5b612851848285612808565b509392505050565b600082601f83011261286e5761286d612752565b5b813561287e848260208601612817565b91505092915050565b600080600080608085870312156128a1576128a061239a565b5b60006128af878288016124a8565b94505060206128c0878288016124a8565b93505060406128d1878288016125bd565b925050606085013567ffffffffffffffff8111156128f2576128f161239f565b5b6128fe87828801612859565b91505092959194509250565b600080604083850312156129215761292061239a565b5b600061292f858286016124a8565b9250506020612940858286016124a8565b9150509250929050565b7f4e487b7100000000000000000000000000000000000000000000000000000000600052602260045260246000fd5b6000600282049050600182168061299157607f821691505b6020821081036129a4576129a361294a565b5b50919050565b7f4552433732313a20617070726f76616c20746f2063757272656e74206f776e6560008201527f7200000000000000000000000000000000000000000000000000000000000000602082015250565b6000612a066021836124f5565b9150612a11826129aa565b604082019050919050565b60006020820190508181036000830152612a35816129f9565b9050919050565b7f4552433732313a20617070726f76652063616c6c6572206973206e6f7420746f60008201527f6b656e206f776e6572206f7220617070726f76656420666f7220616c6c000000602082015250565b6000612a98603d836124f5565b9150612aa382612a3c565b604082019050919050565b60006020820190508181036000830152612ac781612a8b565b9050919050565b7f546f6b656e20646f6573206e6f74206578697374000000000000000000000000600082015250565b6000612b046014836124f5565b9150612b0f82612ace565b602082019050919050565b60006020820190508181036000830152612b3381612af7565b9050919050565b7f4552433732313a2063616c6c6572206973206e6f7420746f6b656e206f776e6560008201527f72206f7220617070726f76656400000000000000000000000000000000000000602082015250565b6000612b96602d836124f5565b9150612ba182612b3a565b604082019050919050565b60006020820190508181036000830152612bc581612b89565b9050919050565b7f455243373231456e756d657261626c653a206f776e657220696e646578206f7560008201527f74206f6620626f756e6473000000000000000000000000000000000000000000602082015250565b6000612c28602b836124f5565b9150612c3382612bcc565b604082019050919050565b60006020820190508181036000830152612c5781612c1b565b9050919050565b7f455243373231456e756d657261626c653a20676c6f62616c20696e646578206f60008201527f7574206f6620626f756e64730000000000000000000000000000000000000000602082015250565b6000612cba602c836124f5565b9150612cc582612c5e565b604082019050919050565b60006020820190508181036000830152612ce981612cad565b9050919050565b7f4e487b7100000000000000000000000000000000000000000000000000000000600052603260045260246000fd5b7f4552433732313a20696e76616c696420746f6b656e2049440000000000000000600082015250565b6000612d556018836124f5565b9150612d6082612d1f565b602082019050919050565b60006020820190508181036000830152612d8481612d48565b9050919050565b7f4e487b7100000000000000000000000000000000000000000000000000000000600052601160045260246000fd5b6000612dc58261259c565b9150612dd08361259c565b9250828201905080821115612de857612de7612d8b565b5b92915050565b6000604082019050612e036000830185612669565b612e106020830184612669565b9392505050565b7f4552433732313a2061646472657373207a65726f206973206e6f74206120766160008201527f6c6964206f776e65720000000000000000000000000000000000000000000000602082015250565b6000612e736029836124f5565b9150612e7e82612e17565b604082019050919050565b60006020820190508181036000830152612ea281612e66565b9050919050565b600081905092915050565b6000612ebf826124ea565b612ec98185612ea9565b9350612ed9818560208601612506565b80840191505092915050565b6000612ef18285612eb4565b9150612efd8284612eb4565b91508190509392505050565b7f4f776e61626c653a206e6577206f776e657220697320746865207a65726f206160008201527f6464726573730000000000000000000000000000000000000000000000000000602082015250565b6000612f656026836124f5565b9150612f7082612f09565b604082019050919050565b60006020820190508181036000830152612f9481612f58565b9050919050565b7f4552433732313a207472616e736665722066726f6d20696e636f72726563742060008201527f6f776e6572000000000000000000000000000000000000000000000000000000602082015250565b6000612ff76025836124f5565b915061300282612f9b565b604082019050919050565b6000602082019050818103600083015261302681612fea565b9050919050565b7f4552433732313a207472616e7366657220746f20746865207a65726f2061646460008201527f7265737300000000000000000000000000000000000000000000000000000000602082015250565b60006130896024836124f5565b91506130948261302d565b604082019050919050565b600060208201905081810360008301526130b88161307c565b9050919050565b7f4f776e61626c653a2063616c6c6572206973206e6f7420746865206f776e6572600082015250565b60006130f56020836124f5565b9150613100826130bf565b602082019050919050565b60006020820190508181036000830152613124816130e8565b9050919050565b7f4552433732313a20617070726f766520746f2063616c6c657200000000000000600082015250565b60006131616019836124f5565b915061316c8261312b565b602082019050919050565b6000602082019050818103600083015261319081613154565b9050919050565b7f4552433732313a207472616e7366657220746f206e6f6e20455243373231526560008201527f63656976657220696d706c656d656e7465720000000000000000000000000000602082015250565b60006131f36032836124f5565b91506131fe82613197565b604082019050919050565b60006020820190508181036000830152613222816131e6565b9050919050565b7f4e487b7100000000000000000000000000000000000000000000000000000000600052601260045260246000fd5b600081519050919050565b600082825260208201905092915050565b600061327f82613258565b6132898185613263565b9350613299818560208601612506565b6132a281612530565b840191505092915050565b60006080820190506132c260008301876125ff565b6132cf60208301866125ff565b6132dc6040830185612669565b81810360608301526132ee8184613274565b905095945050505050565b600081519050613308816123d0565b92915050565b6000602082840312156133245761332361239a565b5b6000613332848285016132f9565b91505092915050565b7f455243373231456e756d657261626c653a20636f6e736563757469766520747260008201527f616e7366657273206e6f7420737570706f727465640000000000000000000000602082015250565b60006133976035836124f5565b91506133a28261333b565b604082019050919050565b600060208201905081810360008301526133c68161338a565b9050919050565b7f4552433732313a206d696e7420746f20746865207a65726f2061646472657373600082015250565b60006134036020836124f5565b915061340e826133cd565b602082019050919050565b60006020820190508181036000830152613432816133f6565b9050919050565b7f4552433732313a20746f6b656e20616c7265616479206d696e74656400000000600082015250565b600061346f601c836124f5565b915061347a82613439565b602082019050919050565b6000602082019050818103600083015261349e81613462565b9050919050565b60006134b08261259c565b91506134bb8361259c565b92508282039050818111156134d3576134d2612d8b565b5b92915050565b7f4e487b7100000000000000000000000000000000000000000000000000000000600052603160045260246000fdfea26469706673582212202f0a72f34fba671f22acf37d52d43bfaa2d42b890d52bd1eaa581707ed5c777064736f6c634300081b0033",
  "linkReferences": {},
  "deployedLinkReferences": {}
}