{
  "_format": "hh-sol-artifact-1",
  "contractName": "Littercoin",
  "sourceName": "contracts/Littercoin.sol",
  "abi": [
    {
      "inputs": [
        {
          "internalType": "address",
          "name": "_priceFeed",
          "type": "address"
        }
      ],
      "stateMutability": "nonpayable",
      "type": "constructor"
    },
    {
      "inputs": [],
      "name": "InvalidShortString",
      "type": "error"
    },
    {
      "inputs": [
        {
          "internalType": "string",
          "name": "str",
          "type": "string"
        }
      ],
      "name": "StringTooLong",
      "type": "error"
    },
    {
      "anonymous": false,
      "inputs": [
        {
          "indexed": true,
          "internalType": "address",
          "name": "owner",
          "type": "address"
        },
        {
          "indexed": true,
          "internalType": "address",
          "name": "approved",
          "type": "address"
        },
        {
          "indexed": true,
          "internalType": "uint256",
          "name": "tokenId",
          "type": "uint256"
        }
      ],
      "name": "Approval",
      "type": "event"
    },
    {
      "anonymous": false,
      "inputs": [
        {
          "indexed": true,
          "internalType": "address",
          "name": "owner",
          "type": "address"
        },
        {
          "indexed": true,
          "internalType": "address",
          "name": "operator",
          "type": "address"
        },
        {
          "indexed": false,
          "internalType": "bool",
          "name": "approved",
          "type": "bool"
        }
      ],
      "name": "ApprovalForAll",
      "type": "event"
    },
    {
      "anonymous": false,
      "inputs": [
        {
          "indexed": true,
          "internalType": "address",
          "name": "user",
          "type": "address"
        },
        {
          "indexed": false,
          "internalType": "uint256",
          "name": "tokensToBurn",
          "type": "uint256"
        },
        {
          "indexed": false,
          "internalType": "uint256",
          "name": "ethAmount",
          "type": "uint256"
        }
      ],
      "name": "BurnLittercoin",
      "type": "event"
    },
    {
      "anonymous": false,
      "inputs": [],
      "name": "EIP712DomainChanged",
      "type": "event"
    },
    {
      "anonymous": false,
      "inputs": [
        {
          "indexed": true,
          "internalType": "address",
          "name": "user",
          "type": "address"
        },
        {
          "indexed": false,
          "internalType": "uint256",
          "name": "amount",
          "type": "uint256"
        }
      ],
      "name": "Mint",
      "type": "event"
    },
    {
      "anonymous": false,
      "inputs": [
        {
          "indexed": true,
          "internalType": "address",
          "name": "previousOwner",
          "type": "address"
        },
        {
          "indexed": true,
          "internalType": "address",
          "name": "newOwner",
          "type": "address"
        }
      ],
      "name": "OwnershipTransferred",
      "type": "event"
    },
    {
      "anonymous": false,
      "inputs": [
        {
          "indexed": false,
          "internalType": "address",
          "name": "account",
          "type": "address"
        }
      ],
      "name": "Paused",
      "type": "event"
    },
    {
      "anonymous": false,
      "inputs": [
        {
          "indexed": true,
          "internalType": "address",
          "name": "user",
          "type": "address"
        },
        {
          "indexed": false,
          "internalType": "uint256",
          "name": "rewardAmount",
          "type": "uint256"
        }
      ],
      "name": "Reward",
      "type": "event"
    },
    {
      "anonymous": false,
      "inputs": [
        {
          "indexed": true,
          "internalType": "address",
          "name": "from",
          "type": "address"
        },
        {
          "indexed": true,
          "internalType": "address",
          "name": "to",
          "type": "address"
        },
        {
          "indexed": true,
          "internalType": "uint256",
          "name": "tokenId",
          "type": "uint256"
        }
      ],
      "name": "Transfer",
      "type": "event"
    },
    {
      "anonymous": false,
      "inputs": [
        {
          "indexed": false,
          "internalType": "address",
          "name": "account",
          "type": "address"
        }
      ],
      "name": "Unpaused",
      "type": "event"
    },
    {
      "inputs": [],
      "name": "MAX_MINT_AMOUNT",
      "outputs": [
        {
          "internalType": "uint256",
          "name": "",
          "type": "uint256"
        }
      ],
      "stateMutability": "view",
      "type": "function"
    },
    {
      "inputs": [],
      "name": "MAX_TRANSACTIONS",
      "outputs": [
        {
          "internalType": "uint256",
          "name": "",
          "type": "uint256"
        }
      ],
      "stateMutability": "view",
      "type": "function"
    },
    {
      "inputs": [
        {
          "internalType": "address",
          "name": "to",
          "type": "address"
        },
        {
          "internalType": "uint256",
          "name": "tokenId",
          "type": "uint256"
        }
      ],
      "name": "approve",
      "outputs": [],
      "stateMutability": "nonpayable",
      "type": "function"
    },
    {
      "inputs": [
        {
          "internalType": "address",
          "name": "owner",
          "type": "address"
        }
      ],
      "name": "balanceOf",
      "outputs": [
        {
          "internalType": "uint256",
          "name": "",
          "type": "uint256"
        }
      ],
      "stateMutability": "view",
      "type": "function"
    },
    {
      "inputs": [
        {
          "internalType": "uint256[]",
          "name": "tokenIds",
          "type": "uint256[]"
        }
      ],
      "name": "burnLittercoin",
      "outputs": [],
      "stateMutability": "nonpayable",
      "type": "function"
    },
    {
      "inputs": [],
      "name": "eip712Domain",
      "outputs": [
        {
          "internalType": "bytes1",
          "name": "fields",
          "type": "bytes1"
        },
        {
          "internalType": "string",
          "name": "name",
          "type": "string"
        },
        {
          "internalType": "string",
          "name": "version",
          "type": "string"
        },
        {
          "internalType": "uint256",
          "name": "chainId",
          "type": "uint256"
        },
        {
          "internalType": "address",
          "name": "verifyingContract",
          "type": "address"
        },
        {
          "internalType": "bytes32",
          "name": "salt",
          "type": "bytes32"
        },
        {
          "internalType": "uint256[]",
          "name": "extensions",
          "type": "uint256[]"
        }
      ],
      "stateMutability": "view",
      "type": "function"
    },
    {
      "inputs": [
        {
          "internalType": "uint256",
          "name": "tokenId",
          "type": "uint256"
        }
      ],
      "name": "exists",
      "outputs": [
        {
          "internalType": "bool",
          "name": "",
          "type": "bool"
        }
      ],
      "stateMutability": "view",
      "type": "function"
    },
    {
      "inputs": [
        {
          "internalType": "uint256",
          "name": "tokenId",
          "type": "uint256"
        }
      ],
      "name": "getApproved",
      "outputs": [
        {
          "internalType": "address",
          "name": "",
          "type": "address"
        }
      ],
      "stateMutability": "view",
      "type": "function"
    },
    {
      "inputs": [],
      "name": "getCurrentTokenId",
      "outputs": [
        {
          "internalType": "uint256",
          "name": "",
          "type": "uint256"
        }
      ],
      "stateMutability": "view",
      "type": "function"
    },
    {
      "inputs": [],
      "name": "getMerchantTokenAddress",
      "outputs": [
        {
          "internalType": "address",
          "name": "",
          "type": "address"
        }
      ],
      "stateMutability": "view",
      "type": "function"
    },
    {
      "inputs": [],
      "name": "getRewardTokenAddress",
      "outputs": [
        {
          "internalType": "address",
          "name": "",
          "type": "address"
        }
      ],
      "stateMutability": "view",
      "type": "function"
    },
    {
      "inputs": [
        {
          "internalType": "address",
          "name": "owner",
          "type": "address"
        },
        {
          "internalType": "address",
          "name": "operator",
          "type": "address"
        }
      ],
      "name": "isApprovedForAll",
      "outputs": [
        {
          "internalType": "bool",
          "name": "",
          "type": "bool"
        }
      ],
      "stateMutability": "view",
      "type": "function"
    },
    {
      "inputs": [],
      "name": "merchantToken",
      "outputs": [
        {
          "internalType": "contract MerchantToken",
          "name": "",
          "type": "address"
        }
      ],
      "stateMutability": "view",
      "type": "function"
    },
    {
      "inputs": [
        {
          "internalType": "uint256",
          "name": "amount",
          "type": "uint256"
        },
        {
          "internalType": "uint256",
          "name": "nonce",
          "type": "uint256"
        },
        {
          "internalType": "uint256",
          "name": "expiry",
          "type": "uint256"
        },
        {
          "internalType": "bytes",
          "name": "signature",
          "type": "bytes"
        }
      ],
      "name": "mint",
      "outputs": [],
      "stateMutability": "nonpayable",
      "type": "function"
    },
    {
      "inputs": [],
      "name": "name",
      "outputs": [
        {
          "internalType": "string",
          "name": "",
          "type": "string"
        }
      ],
      "stateMutability": "view",
      "type": "function"
    },
    {
      "inputs": [],
      "name": "owner",
      "outputs": [
        {
          "internalType": "address",
          "name": "",
          "type": "address"
        }
      ],
      "stateMutability": "view",
      "type": "function"
    },
    {
      "inputs": [
        {
          "internalType": "uint256",
          "name": "tokenId",
          "type": "uint256"
        }
      ],
      "name": "ownerOf",
      "outputs": [
        {
          "internalType": "address",
          "name": "",
          "type": "address"
        }
      ],
      "stateMutability": "view",
      "type": "function"
    },
    {
      "inputs": [],
      "name": "pause",
      "outputs": [],
      "stateMutability": "nonpayable",
      "type": "function"
    },
    {
      "inputs": [],
      "name": "paused",
      "outputs": [
        {
          "internalType": "bool",
          "name": "",
          "type": "bool"
        }
      ],
      "stateMutability": "view",
      "type": "function"
    },
    {
      "inputs": [],
      "name": "renounceOwnership",
      "outputs": [],
      "stateMutability": "nonpayable",
      "type": "function"
    },
    {
      "inputs": [],
      "name": "rewardToken",
      "outputs": [
        {
          "internalType": "contract OLMRewardToken",
          "name": "",
          "type": "address"
        }
      ],
      "stateMutability": "view",
      "type": "function"
    },
    {
      "inputs": [
        {
          "internalType": "address",
          "name": "from",
          "type": "address"
        },
        {
          "internalType": "address",
          "name": "to",
          "type": "address"
        },
        {
          "internalType": "uint256",
          "name": "tokenId",
          "type": "uint256"
        }
      ],
      "name": "safeTransferFrom",
      "outputs": [],
      "stateMutability": "nonpayable",
      "type": "function"
    },
    {
      "inputs": [
        {
          "internalType": "address",
          "name": "from",
          "type": "address"
        },
        {
          "internalType": "address",
          "name": "to",
          "type": "address"
        },
        {
          "internalType": "uint256",
          "name": "tokenId",
          "type": "uint256"
        },
        {
          "internalType": "bytes",
          "name": "data",
          "type": "bytes"
        }
      ],
      "name": "safeTransferFrom",
      "outputs": [],
      "stateMutability": "nonpayable",
      "type": "function"
    },
    {
      "inputs": [
        {
          "internalType": "address",
          "name": "operator",
          "type": "address"
        },
        {
          "internalType": "bool",
          "name": "approved",
          "type": "bool"
        }
      ],
      "name": "setApprovalForAll",
      "outputs": [],
      "stateMutability": "nonpayable",
      "type": "function"
    },
    {
      "inputs": [
        {
          "internalType": "bytes4",
          "name": "interfaceId",
          "type": "bytes4"
        }
      ],
      "name": "supportsInterface",
      "outputs": [
        {
          "internalType": "bool",
          "name": "",
          "type": "bool"
        }
      ],
      "stateMutability": "view",
      "type": "function"
    },
    {
      "inputs": [],
      "name": "symbol",
      "outputs": [
        {
          "internalType": "string",
          "name": "",
          "type": "string"
        }
      ],
      "stateMutability": "view",
      "type": "function"
    },
    {
      "inputs": [
        {
          "internalType": "uint256",
          "name": "index",
          "type": "uint256"
        }
      ],
      "name": "tokenByIndex",
      "outputs": [
        {
          "internalType": "uint256",
          "name": "",
          "type": "uint256"
        }
      ],
      "stateMutability": "view",
      "type": "function"
    },
    {
      "inputs": [
        {
          "internalType": "address",
          "name": "owner",
          "type": "address"
        },
        {
          "internalType": "uint256",
          "name": "index",
          "type": "uint256"
        }
      ],
      "name": "tokenOfOwnerByIndex",
      "outputs": [
        {
          "internalType": "uint256",
          "name": "",
          "type": "uint256"
        }
      ],
      "stateMutability": "view",
      "type": "function"
    },
    {
      "inputs": [
        {
          "internalType": "uint256",
          "name": "tokenId",
          "type": "uint256"
        }
      ],
      "name": "tokenURI",
      "outputs": [
        {
          "internalType": "string",
          "name": "",
          "type": "string"
        }
      ],
      "stateMutability": "view",
      "type": "function"
    },
    {
      "inputs": [],
      "name": "totalSupply",
      "outputs": [
        {
          "internalType": "uint256",
          "name": "",
          "type": "uint256"
        }
      ],
      "stateMutability": "view",
      "type": "function"
    },
    {
      "inputs": [
        {
          "internalType": "uint256",
          "name": "",
          "type": "uint256"
        }
      ],
      "name": "transferCount",
      "outputs": [
        {
          "internalType": "uint8",
          "name": "",
          "type": "uint8"
        }
      ],
      "stateMutability": "view",
      "type": "function"
    },
    {
      "inputs": [
        {
          "internalType": "address",
          "name": "from",
          "type": "address"
        },
        {
          "internalType": "address",
          "name": "to",
          "type": "address"
        },
        {
          "internalType": "uint256",
          "name": "tokenId",
          "type": "uint256"
        }
      ],
      "name": "transferFrom",
      "outputs": [],
      "stateMutability": "nonpayable",
      "type": "function"
    },
    {
      "inputs": [
        {
          "internalType": "address",
          "name": "newOwner",
          "type": "address"
        }
      ],
      "name": "transferOwnership",
      "outputs": [],
      "stateMutability": "nonpayable",
      "type": "function"
    },
    {
      "inputs": [],
      "name": "unpause",
      "outputs": [],
      "stateMutability": "nonpayable",
      "type": "function"
    },
    {
      "inputs": [
        {
          "internalType": "uint256",
          "name": "",
          "type": "uint256"
        }
      ],
      "name": "usedNonces",
      "outputs": [
        {
          "internalType": "bool",
          "name": "",
          "type": "bool"
        }
      ],
      "stateMutability": "view",
      "type": "function"
    },
    {
      "stateMutability": "payable",
      "type": "receive"
    }
  ],
  "bytecode": "0x61016060405234801561001157600080fd5b5060405161c65838038061c658833981810160405281019061003391906106b1565b6040518060400160405280600a81526020017f4c6974746572636f696e000000000000000000000000000000000000000000008152506040518060400160405280600181526020017f31000000000000000000000000000000000000000000000000000000000000008152506040518060400160405280600a81526020017f4c6974746572636f696e000000000000000000000000000000000000000000008152506040518060400160405280600781526020017f4c49545445525800000000000000000000000000000000000000000000000000815250816000908161011a919061092e565b50806001908161012a919061092e565b50505061014961013e61044960201b60201c565b61045160201b60201c565b6001600b819055506000600c60006101000a81548160ff021916908315150217905550610180600d8361051760201b90919060201c565b610120818152505061019c600e8261051760201b90919060201c565b6101408181525050818051906020012060e08181525050808051906020012061010081815250504660a081815250506101d961056760201b60201c565b608081815250503073ffffffffffffffffffffffffffffffffffffffff1660c08173ffffffffffffffffffffffffffffffffffffffff1681525050505060405161022290610634565b604051809103906000f08015801561023e573d6000803e3d6000fd5b50601260006101000a81548173ffffffffffffffffffffffffffffffffffffffff021916908373ffffffffffffffffffffffffffffffffffffffff160217905550601260009054906101000a900473ffffffffffffffffffffffffffffffffffffffff1673ffffffffffffffffffffffffffffffffffffffff1663f2fde38b306040518263ffffffff1660e01b81526004016102da9190610a0f565b600060405180830381600087803b1580156102f457600080fd5b505af1158015610308573d6000803e3d6000fd5b5050505060405161031890610641565b604051809103906000f080158015610334573d6000803e3d6000fd5b50601360006101000a81548173ffffffffffffffffffffffffffffffffffffffff021916908373ffffffffffffffffffffffffffffffffffffffff160217905550601360009054906101000a900473ffffffffffffffffffffffffffffffffffffffff1673ffffffffffffffffffffffffffffffffffffffff1663f2fde38b336040518263ffffffff1660e01b81526004016103d09190610a0f565b600060405180830381600087803b1580156103ea57600080fd5b505af11580156103fe573d6000803e3d6000fd5b5050505080601460006101000a81548173ffffffffffffffffffffffffffffffffffffffff021916908373ffffffffffffffffffffffffffffffffffffffff16021790555050610be3565b600033905090565b6000600a60009054906101000a900473ffffffffffffffffffffffffffffffffffffffff16905081600a60006101000a81548173ffffffffffffffffffffffffffffffffffffffff021916908373ffffffffffffffffffffffffffffffffffffffff1602179055508173ffffffffffffffffffffffffffffffffffffffff168173ffffffffffffffffffffffffffffffffffffffff167f8be0079c531659141344cd1fd0a4f28419497f9722a3daafe3b4186f6b6457e060405160405180910390a35050565b600060208351101561053957610532836105c260201b60201c565b9050610561565b826105498361062a60201b60201c565b6000019081610558919061092e565b5060ff60001b90505b92915050565b60007f8b73c3c69bb8fe3d512ecc4cf759cc79239f7b179b0ffacaa9a75d522b39400f60e0516101005146306040516020016105a7959493929190610a52565b60405160208183030381529060405280519060200120905090565b600080829050601f8151111561060f57826040517f305a27a90000000000000000000000000000000000000000000000000000000081526004016106069190610b2a565b60405180910390fd5b80518161061b90610b7c565b60001c1760001b915050919050565b6000819050919050565b611c9f80616b0b83390190565b613eae806187aa83390190565b600080fd5b600073ffffffffffffffffffffffffffffffffffffffff82169050919050565b600061067e82610653565b9050919050565b61068e81610673565b811461069957600080fd5b50565b6000815190506106ab81610685565b92915050565b6000602082840312156106c7576106c661064e565b5b60006106d58482850161069c565b91505092915050565b600081519050919050565b7f4e487b7100000000000000000000000000000000000000000000000000000000600052604160045260246000fd5b7f4e487b7100000000000000000000000000000000000000000000000000000000600052602260045260246000fd5b6000600282049050600182168061075f57607f821691505b60208210810361077257610771610718565b5b50919050565b60008190508160005260206000209050919050565b60006020601f8301049050919050565b600082821b905092915050565b6000600883026107da7fffffffffffffffffffffffffffffffffffffffffffffffffffffffffffffffff8261079d565b6107e4868361079d565b95508019841693508086168417925050509392505050565b6000819050919050565b6000819050919050565b600061082b610826610821846107fc565b610806565b6107fc565b9050919050565b6000819050919050565b61084583610810565b61085961085182610832565b8484546107aa565b825550505050565b600090565b61086e610861565b61087981848461083c565b505050565b5b8181101561089d57610892600082610866565b60018101905061087f565b5050565b601f8211156108e2576108b381610778565b6108bc8461078d565b810160208510156108cb578190505b6108df6108d78561078d565b83018261087e565b50505b505050565b600082821c905092915050565b6000610905600019846008026108e7565b1980831691505092915050565b600061091e83836108f4565b9150826002028217905092915050565b610937826106de565b67ffffffffffffffff8111156109505761094f6106e9565b5b61095a8254610747565b6109658282856108a1565b600060209050601f8311600181146109985760008415610986578287015190505b6109908582610912565b8655506109f8565b601f1984166109a686610778565b60005b828110156109ce578489015182556001820191506020850194506020810190506109a9565b868310156109eb57848901516109e7601f8916826108f4565b8355505b6001600288020188555050505b505050505050565b610a0981610673565b82525050565b6000602082019050610a246000830184610a00565b92915050565b6000819050919050565b610a3d81610a2a565b82525050565b610a4c816107fc565b82525050565b600060a082019050610a676000830188610a34565b610a746020830187610a34565b610a816040830186610a34565b610a8e6060830185610a43565b610a9b6080830184610a00565b9695505050505050565b600082825260208201905092915050565b60005b83811015610ad4578082015181840152602081019050610ab9565b60008484015250505050565b6000601f19601f8301169050919050565b6000610afc826106de565b610b068185610aa5565b9350610b16818560208601610ab6565b610b1f81610ae0565b840191505092915050565b60006020820190508181036000830152610b448184610af1565b905092915050565b600081519050919050565b6000819050602082019050919050565b6000610b738251610a2a565b80915050919050565b6000610b8782610b4c565b82610b9184610b57565b9050610b9c81610b67565b92506020821015610bdc57610bd77fffffffffffffffffffffffffffffffffffffffffffffffffffffffffffffffff8360200360080261079d565b831692505b5050919050565b60805160a05160c05160e051610100516101205161014051615ece610c3d600039600061187c0152600061184801526000613c2901526000613c0801526000613471015260006134c7015260006134f00152615ece6000f3fe6080604052600436106102085760003560e01c806370a0823111610118578063a22cb465116100a0578063ec02ef571161006f578063ec02ef5714610aa9578063f2fde38b14610ae6578063f568c6c514610b0f578063f7c618c114610b3a578063fa9b701814610b655761052a565b8063a22cb465146109dd578063b88d4fde14610a06578063c87b56dd14610a2f578063e985e9c514610a6c5761052a565b806384b0196e116100e757806384b0196e146109005780638c1a1f77146109315780638da5cb5b1461095c57806395d89b411461098757806399e117a0146109b25761052a565b806370a082311461086a578063715018a6146108a7578063744c0f93146108be5780638456cb59146108e95761052a565b80633f4ba83a1161019b5780634f6ccce71161016a5780634f6ccce71461075d578063561892361461079a5780635c975abb146107c55780636352211e146107f05780636717e41c1461082d5761052a565b80633f4ba83a146106b757806342842e0e146106ce5780634a9eee69146106f75780634f558e79146107205761052a565b806318160ddd116101d757806318160ddd146105fd5780631edf9acd1461062857806323b872dd146106515780632f745c591461067a5761052a565b806301ffc9a71461052f57806306fdde031461056c578063081812fc14610597578063095ea7b3146105d45761052a565b3661052a57610215610b90565b61021d610bdf565b1561025d576040517f08c379a000000000000000000000000000000000000000000000000000000000815260040161025490613cd6565b60405180910390fd5b60003490506000601460009054906101000a900473ffffffffffffffffffffffffffffffffffffffff1673ffffffffffffffffffffffffffffffffffffffff1663feaf968c6040518163ffffffff1660e01b815260040160a060405180830381865afa1580156102d1573d6000803e3d6000fd5b505050506040513d601f19601f820116820180604052508101906102f59190613db8565b5050509150506000811361033e576040517f08c379a000000000000000000000000000000000000000000000000000000000815260040161033590613e7f565b60405180910390fd5b6008601460009054906101000a900473ffffffffffffffffffffffffffffffffffffffff1673ffffffffffffffffffffffffffffffffffffffff1663313ce5676040518163ffffffff1660e01b8152600401602060405180830381865afa1580156103ad573d6000803e3d6000fd5b505050506040513d601f19601f820116820180604052508101906103d19190613ed8565b60ff1614610414576040517f08c379a000000000000000000000000000000000000000000000000000000000815260040161040b90613f51565b60405180910390fd5b600081905060006a52b7d2dcc80cd2e400000082856104339190613fa0565b61043d9190614011565b9050601260009054906101000a900473ffffffffffffffffffffffffffffffffffffffff1673ffffffffffffffffffffffffffffffffffffffff166340c10f1933836040518363ffffffff1660e01b815260040161049c929190614092565b600060405180830381600087803b1580156104b657600080fd5b505af11580156104ca573d6000803e3d6000fd5b505050503373ffffffffffffffffffffffffffffffffffffffff167f619caafabdd75649b302ba8419e48cccf64f37f1983ac4727cfb38b57703ffc98260405161051491906140bb565b60405180910390a250505050610528610bf6565b005b600080fd5b34801561053b57600080fd5b506105566004803603810190610551919061412e565b610c00565b6040516105639190614176565b60405180910390f35b34801561057857600080fd5b50610581610c12565b60405161058e9190614210565b60405180910390f35b3480156105a357600080fd5b506105be60048036038101906105b99190614247565b610ca4565b6040516105cb9190614274565b60405180910390f35b3480156105e057600080fd5b506105fb60048036038101906105f691906142bb565b610cea565b005b34801561060957600080fd5b50610612610e01565b60405161061f91906140bb565b60405180910390f35b34801561063457600080fd5b5061064f600480360381019061064a9190614360565b610e0e565b005b34801561065d57600080fd5b50610678600480360381019061067391906143ad565b611243565b005b34801561068657600080fd5b506106a1600480360381019061069c91906142bb565b6112a3565b6040516106ae91906140bb565b60405180910390f35b3480156106c357600080fd5b506106cc611348565b005b3480156106da57600080fd5b506106f560048036038101906106f091906143ad565b61135a565b005b34801561070357600080fd5b5061071e60048036038101906107199190614530565b61137a565b005b34801561072c57600080fd5b5061074760048036038101906107429190614247565b6115f4565b6040516107549190614176565b60405180910390f35b34801561076957600080fd5b50610784600480360381019061077f9190614247565b611606565b60405161079191906140bb565b60405180910390f35b3480156107a657600080fd5b506107af611677565b6040516107bc91906140bb565b60405180910390f35b3480156107d157600080fd5b506107da610bdf565b6040516107e79190614176565b60405180910390f35b3480156107fc57600080fd5b5061081760048036038101906108129190614247565b611688565b6040516108249190614274565b60405180910390f35b34801561083957600080fd5b50610854600480360381019061084f9190614247565b61170e565b6040516108619190614176565b60405180910390f35b34801561087657600080fd5b50610891600480360381019061088c91906145b3565b61172e565b60405161089e91906140bb565b60405180910390f35b3480156108b357600080fd5b506108bc6117e5565b005b3480156108ca57600080fd5b506108d36117f9565b6040516108e09190614274565b60405180910390f35b3480156108f557600080fd5b506108fe611823565b005b34801561090c57600080fd5b50610915611835565b60405161092897969594939291906146f2565b60405180910390f35b34801561093d57600080fd5b50610946611937565b60405161095391906147d5565b60405180910390f35b34801561096857600080fd5b5061097161195d565b60405161097e9190614274565b60405180910390f35b34801561099357600080fd5b5061099c611987565b6040516109a99190614210565b60405180910390f35b3480156109be57600080fd5b506109c7611a19565b6040516109d49190614274565b60405180910390f35b3480156109e957600080fd5b50610a0460048036038101906109ff919061481c565b611a43565b005b348015610a1257600080fd5b50610a2d6004803603810190610a28919061485c565b611a59565b005b348015610a3b57600080fd5b50610a566004803603810190610a519190614247565b611abb565b604051610a639190614210565b60405180910390f35b348015610a7857600080fd5b50610a936004803603810190610a8e91906148df565b611b23565b604051610aa09190614176565b60405180910390f35b348015610ab557600080fd5b50610ad06004803603810190610acb9190614247565b611bb7565b604051610add919061492e565b60405180910390f35b348015610af257600080fd5b50610b0d6004803603810190610b0891906145b3565b611bd7565b005b348015610b1b57600080fd5b50610b24611c5a565b604051610b3191906140bb565b60405180910390f35b348015610b4657600080fd5b50610b4f611c5f565b604051610b5c919061496a565b60405180910390f35b348015610b7157600080fd5b50610b7a611c85565b604051610b8791906140bb565b60405180910390f35b6002600b5403610bd5576040517f08c379a0000000000000000000000000000000000000000000000000000000008152600401610bcc906149d1565b60405180910390fd5b6002600b81905550565b6000600c60009054906101000a900460ff16905090565b6001600b81905550565b6000610c0b82611c8a565b9050919050565b606060008054610c2190614a20565b80601f0160208091040260200160405190810160405280929190818152602001828054610c4d90614a20565b8015610c9a5780601f10610c6f57610100808354040283529160200191610c9a565b820191906000526020600020905b815481529060010190602001808311610c7d57829003601f168201915b5050505050905090565b6000610caf82611d04565b6004600083815260200190815260200160002060009054906101000a900473ffffffffffffffffffffffffffffffffffffffff169050919050565b6000610cf582611688565b90508073ffffffffffffffffffffffffffffffffffffffff168373ffffffffffffffffffffffffffffffffffffffff1603610d65576040517f08c379a0000000000000000000000000000000000000000000000000000000008152600401610d5c90614ac3565b60405180910390fd5b8073ffffffffffffffffffffffffffffffffffffffff16610d84611d4f565b73ffffffffffffffffffffffffffffffffffffffff161480610db35750610db281610dad611d4f565b611b23565b5b610df2576040517f08c379a0000000000000000000000000000000000000000000000000000000008152600401610de990614b55565b60405180910390fd5b610dfc8383611d57565b505050565b6000600880549050905090565b610e16610b90565b610e1e611e10565b601360009054906101000a900473ffffffffffffffffffffffffffffffffffffffff1673ffffffffffffffffffffffffffffffffffffffff166302556a29336040518263ffffffff1660e01b8152600401610e799190614274565b602060405180830381865afa158015610e96573d6000803e3d6000fd5b505050506040513d601f19601f82011682018060405250810190610eba9190614b8a565b610ef9576040517f08c379a0000000000000000000000000000000000000000000000000000000008152600401610ef090614c29565b60405180910390fd5b600082829050905060008111610f44576040517f08c379a0000000000000000000000000000000000000000000000000000000008152600401610f3b90614c95565b60405180910390fd5b6000610f4e610e01565b905060008111610f93576040517f08c379a0000000000000000000000000000000000000000000000000000000008152600401610f8a90614d01565b60405180910390fd5b600047905060008111610fdb576040517f08c379a0000000000000000000000000000000000000000000000000000000008152600401610fd290614d6d565b60405180910390fd5b60005b8381101561111a576000868683818110610ffb57610ffa614d8d565b5b9050602002013590503373ffffffffffffffffffffffffffffffffffffffff1661102482611688565b73ffffffffffffffffffffffffffffffffffffffff161461107a576040517f08c379a000000000000000000000000000000000000000000000000000000000815260040161107190614e2e565b60405180910390fd5b60026011600083815260200190815260200160002060009054906101000a900460ff1660ff16146110e0576040517f08c379a00000000000000000000000000000000000000000000000000000000081526004016110d790614ec0565b60405180910390fd5b6110e981611e5a565b6011600082815260200190815260200160002060006101000a81549060ff0219169055508080600101915050610fde565b50600082848361112a9190613fa0565b6111349190614011565b905060003373ffffffffffffffffffffffffffffffffffffffff168260405161115c90614f11565b60006040518083038185875af1925050503d8060008114611199576040519150601f19603f3d011682016040523d82523d6000602084013e61119e565b606091505b50509050806111e2576040517f08c379a00000000000000000000000000000000000000000000000000000000081526004016111d990614f72565b60405180910390fd5b3373ffffffffffffffffffffffffffffffffffffffff167f62c43c4ca6239525d02ec5d50013da458e2aabd6147394ddd139edae8d84439b868460405161122a929190614f92565b60405180910390a2505050505061123f610bf6565b5050565b61125461124e611d4f565b82611fa8565b611293576040517f08c379a000000000000000000000000000000000000000000000000000000000815260040161128a9061502d565b60405180910390fd5b61129e83838361203d565b505050565b60006112ae8361172e565b82106112ef576040517f08c379a00000000000000000000000000000000000000000000000000000000081526004016112e6906150bf565b60405180910390fd5b600660008473ffffffffffffffffffffffffffffffffffffffff1673ffffffffffffffffffffffffffffffffffffffff168152602001908152602001600020600083815260200190815260200160002054905092915050565b611350612336565b6113586123b4565b565b61137583838360405180602001604052806000815250611a59565b505050565b611382611e10565b6000841180156113935750600a8411155b6113d2576040517f08c379a00000000000000000000000000000000000000000000000000000000081526004016113c990615151565b60405180910390fd5b81421115611415576040517f08c379a000000000000000000000000000000000000000000000000000000000815260040161140c906151bd565b60405180910390fd5b6010600084815260200190815260200160002060009054906101000a900460ff1615611476576040517f08c379a000000000000000000000000000000000000000000000000000000000815260040161146d90615229565b60405180910390fd5b60016010600085815260200190815260200160002060006101000a81548160ff02191690831515021790555060006114b033868686612417565b905060006114be828461247a565b90506114c861195d565b73ffffffffffffffffffffffffffffffffffffffff168173ffffffffffffffffffffffffffffffffffffffff1614611535576040517f08c379a000000000000000000000000000000000000000000000000000000000815260040161152c90615295565b60405180910390fd5b60005b8681101561159d5761154a600f6124a1565b6000611556600f6124b7565b905061156233826124c5565b60016011600083815260200190815260200160002060006101000a81548160ff021916908360ff160217905550508080600101915050611538565b503373ffffffffffffffffffffffffffffffffffffffff167f0f6798a560793a54c3bcfe86a93cde1e73087d944c0ea20544137d4121396885876040516115e491906140bb565b60405180910390a2505050505050565b60006115ff826124e3565b9050919050565b6000611610610e01565b8210611651576040517f08c379a000000000000000000000000000000000000000000000000000000000815260040161164890615327565b60405180910390fd5b6008828154811061166557611664614d8d565b5b90600052602060002001549050919050565b6000611683600f6124b7565b905090565b60008061169483612524565b9050600073ffffffffffffffffffffffffffffffffffffffff168173ffffffffffffffffffffffffffffffffffffffff1603611705576040517f08c379a00000000000000000000000000000000000000000000000000000000081526004016116fc90615393565b60405180910390fd5b80915050919050565b60106020528060005260406000206000915054906101000a900460ff1681565b60008073ffffffffffffffffffffffffffffffffffffffff168273ffffffffffffffffffffffffffffffffffffffff160361179e576040517f08c379a000000000000000000000000000000000000000000000000000000000815260040161179590615425565b60405180910390fd5b600360008373ffffffffffffffffffffffffffffffffffffffff1673ffffffffffffffffffffffffffffffffffffffff168152602001908152602001600020549050919050565b6117ed612336565b6117f76000612561565b565b6000601360009054906101000a900473ffffffffffffffffffffffffffffffffffffffff16905090565b61182b612336565b611833612627565b565b600060608060008060006060611875600d7f000000000000000000000000000000000000000000000000000000000000000061268a90919063ffffffff16565b6118a9600e7f000000000000000000000000000000000000000000000000000000000000000061268a90919063ffffffff16565b46306000801b600067ffffffffffffffff8111156118ca576118c9614405565b5b6040519080825280602002602001820160405280156118f85781602001602082028036833780820191505090505b507f0f00000000000000000000000000000000000000000000000000000000000000959493929190965096509650965096509650965090919293949596565b601360009054906101000a900473ffffffffffffffffffffffffffffffffffffffff1681565b6000600a60009054906101000a900473ffffffffffffffffffffffffffffffffffffffff16905090565b60606001805461199690614a20565b80601f01602080910402602001604051908101604052809291908181526020018280546119c290614a20565b8015611a0f5780601f106119e457610100808354040283529160200191611a0f565b820191906000526020600020905b8154815290600101906020018083116119f257829003601f168201915b5050505050905090565b6000601260009054906101000a900473ffffffffffffffffffffffffffffffffffffffff16905090565b611a55611a4e611d4f565b838361273a565b5050565b611a6a611a64611d4f565b83611fa8565b611aa9576040517f08c379a0000000000000000000000000000000000000000000000000000000008152600401611aa09061502d565b60405180910390fd5b611ab5848484846128a6565b50505050565b6060611ac682611d04565b6000611ad0612902565b90506000815111611af05760405180602001604052806000815250611b1b565b80611afa84612919565b604051602001611b0b929190615481565b6040516020818303038152906040525b915050919050565b6000600560008473ffffffffffffffffffffffffffffffffffffffff1673ffffffffffffffffffffffffffffffffffffffff16815260200190815260200160002060008373ffffffffffffffffffffffffffffffffffffffff1673ffffffffffffffffffffffffffffffffffffffff16815260200190815260200160002060009054906101000a900460ff16905092915050565b60116020528060005260406000206000915054906101000a900460ff1681565b611bdf612336565b600073ffffffffffffffffffffffffffffffffffffffff168173ffffffffffffffffffffffffffffffffffffffff1603611c4e576040517f08c379a0000000000000000000000000000000000000000000000000000000008152600401611c4590615517565b60405180910390fd5b611c5781612561565b50565b600381565b601260009054906101000a900473ffffffffffffffffffffffffffffffffffffffff1681565b600a81565b60007f780e9d63000000000000000000000000000000000000000000000000000000007bffffffffffffffffffffffffffffffffffffffffffffffffffffffff1916827bffffffffffffffffffffffffffffffffffffffffffffffffffffffff19161480611cfd5750611cfc826129e7565b5b9050919050565b611d0d816124e3565b611d4c576040517f08c379a0000000000000000000000000000000000000000000000000000000008152600401611d4390615393565b60405180910390fd5b50565b600033905090565b816004600083815260200190815260200160002060006101000a81548173ffffffffffffffffffffffffffffffffffffffff021916908373ffffffffffffffffffffffffffffffffffffffff160217905550808273ffffffffffffffffffffffffffffffffffffffff16611dca83611688565b73ffffffffffffffffffffffffffffffffffffffff167f8c5be1e5ebec7d5bd14f71427d1e84f3dd0314c0f7b2291e5b200ac8c7c3b92560405160405180910390a45050565b611e18610bdf565b15611e58576040517f08c379a0000000000000000000000000000000000000000000000000000000008152600401611e4f90613cd6565b60405180910390fd5b565b6000611e6582611688565b9050611e75816000846001612ac9565b611e7e82611688565b90506004600083815260200190815260200160002060006101000a81549073ffffffffffffffffffffffffffffffffffffffff02191690556001600360008373ffffffffffffffffffffffffffffffffffffffff1673ffffffffffffffffffffffffffffffffffffffff168152602001908152602001600020600082825403925050819055506002600083815260200190815260200160002060006101000a81549073ffffffffffffffffffffffffffffffffffffffff021916905581600073ffffffffffffffffffffffffffffffffffffffff168273ffffffffffffffffffffffffffffffffffffffff167fddf252ad1be2c89b69c2b068fc378daa952ba7f163c4a11628f55a4df523b3ef60405160405180910390a4611fa4816000846001612cdc565b5050565b600080611fb483611688565b90508073ffffffffffffffffffffffffffffffffffffffff168473ffffffffffffffffffffffffffffffffffffffff161480611ff65750611ff58185611b23565b5b8061203457508373ffffffffffffffffffffffffffffffffffffffff1661201c84610ca4565b73ffffffffffffffffffffffffffffffffffffffff16145b91505092915050565b8273ffffffffffffffffffffffffffffffffffffffff1661205d82611688565b73ffffffffffffffffffffffffffffffffffffffff16146120b3576040517f08c379a00000000000000000000000000000000000000000000000000000000081526004016120aa906155a9565b60405180910390fd5b600073ffffffffffffffffffffffffffffffffffffffff168273ffffffffffffffffffffffffffffffffffffffff1603612122576040517f08c379a00000000000000000000000000000000000000000000000000000000081526004016121199061563b565b60405180910390fd5b61212f8383836001612ac9565b8273ffffffffffffffffffffffffffffffffffffffff1661214f82611688565b73ffffffffffffffffffffffffffffffffffffffff16146121a5576040517f08c379a000000000000000000000000000000000000000000000000000000000815260040161219c906155a9565b60405180910390fd5b6004600082815260200190815260200160002060006101000a81549073ffffffffffffffffffffffffffffffffffffffff02191690556001600360008573ffffffffffffffffffffffffffffffffffffffff1673ffffffffffffffffffffffffffffffffffffffff168152602001908152602001600020600082825403925050819055506001600360008473ffffffffffffffffffffffffffffffffffffffff1673ffffffffffffffffffffffffffffffffffffffff16815260200190815260200160002060008282540192505081905550816002600083815260200190815260200160002060006101000a81548173ffffffffffffffffffffffffffffffffffffffff021916908373ffffffffffffffffffffffffffffffffffffffff160217905550808273ffffffffffffffffffffffffffffffffffffffff168473ffffffffffffffffffffffffffffffffffffffff167fddf252ad1be2c89b69c2b068fc378daa952ba7f163c4a11628f55a4df523b3ef60405160405180910390a46123318383836001612cdc565b505050565b61233e611d4f565b73ffffffffffffffffffffffffffffffffffffffff1661235c61195d565b73ffffffffffffffffffffffffffffffffffffffff16146123b2576040517f08c379a00000000000000000000000000000000000000000000000000000000081526004016123a9906156a7565b60405180910390fd5b565b6123bc612ce2565b6000600c60006101000a81548160ff0219169083151502179055507f5db9ee0a495bf2e6ff9c91a7834c1ba4fdd244a5e8aa4e537bd38aeae4b073aa612400611d4f565b60405161240d9190614274565b60405180910390a1565b60006124707f03f7573be9d8d6deb7485602bb9f74900abea290cc280a6102b605c39dd9fbe0868686866040516020016124559594939291906156c7565b60405160208183030381529060405280519060200120612d2b565b9050949350505050565b60008060006124898585612d45565b9150915061249681612d96565b819250505092915050565b6001816000016000828254019250508190555050565b600081600001549050919050565b6124df828260405180602001604052806000815250612efc565b5050565b60008073ffffffffffffffffffffffffffffffffffffffff1661250583612524565b73ffffffffffffffffffffffffffffffffffffffff1614159050919050565b60006002600083815260200190815260200160002060009054906101000a900473ffffffffffffffffffffffffffffffffffffffff169050919050565b6000600a60009054906101000a900473ffffffffffffffffffffffffffffffffffffffff16905081600a60006101000a81548173ffffffffffffffffffffffffffffffffffffffff021916908373ffffffffffffffffffffffffffffffffffffffff1602179055508173ffffffffffffffffffffffffffffffffffffffff168173ffffffffffffffffffffffffffffffffffffffff167f8be0079c531659141344cd1fd0a4f28419497f9722a3daafe3b4186f6b6457e060405160405180910390a35050565b61262f611e10565b6001600c60006101000a81548160ff0219169083151502179055507f62e78cea01bee320cd4e420270b5ea74000d11b0c9f74754ebdbfc544b05a258612673611d4f565b6040516126809190614274565b60405180910390a1565b606060ff60001b83146126a7576126a083612f57565b9050612734565b8180546126b390614a20565b80601f01602080910402602001604051908101604052809291908181526020018280546126df90614a20565b801561272c5780601f106127015761010080835404028352916020019161272c565b820191906000526020600020905b81548152906001019060200180831161270f57829003601f168201915b505050505090505b92915050565b8173ffffffffffffffffffffffffffffffffffffffff168373ffffffffffffffffffffffffffffffffffffffff16036127a8576040517f08c379a000000000000000000000000000000000000000000000000000000000815260040161279f90615766565b60405180910390fd5b80600560008573ffffffffffffffffffffffffffffffffffffffff1673ffffffffffffffffffffffffffffffffffffffff16815260200190815260200160002060008473ffffffffffffffffffffffffffffffffffffffff1673ffffffffffffffffffffffffffffffffffffffff16815260200190815260200160002060006101000a81548160ff0219169083151502179055508173ffffffffffffffffffffffffffffffffffffffff168373ffffffffffffffffffffffffffffffffffffffff167f17307eab39ab6107e8899845ad3d59bd9653f200f220920489ca2b5937696c31836040516128999190614176565b60405180910390a3505050565b6128b184848461203d565b6128bd84848484612fcb565b6128fc576040517f08c379a00000000000000000000000000000000000000000000000000000000081526004016128f3906157f8565b60405180910390fd5b50505050565b606060405180602001604052806000815250905090565b60606000600161292884613152565b01905060008167ffffffffffffffff81111561294757612946614405565b5b6040519080825280601f01601f1916602001820160405280156129795781602001600182028036833780820191505090505b509050600082602001820190505b6001156129dc578080600190039150507f3031323334353637383961626364656600000000000000000000000000000000600a86061a8153600a85816129d0576129cf613fe2565b5b04945060008503612987575b819350505050919050565b60007f80ac58cd000000000000000000000000000000000000000000000000000000007bffffffffffffffffffffffffffffffffffffffffffffffffffffffff1916827bffffffffffffffffffffffffffffffffffffffffffffffffffffffff19161480612ab257507f5b5e139f000000000000000000000000000000000000000000000000000000007bffffffffffffffffffffffffffffffffffffffffffffffffffffffff1916827bffffffffffffffffffffffffffffffffffffffffffffffffffffffff1916145b80612ac25750612ac1826132a5565b5b9050919050565b612ad1611e10565b612add8484848461330f565b600073ffffffffffffffffffffffffffffffffffffffff168473ffffffffffffffffffffffffffffffffffffffff1614158015612b475750600073ffffffffffffffffffffffffffffffffffffffff168373ffffffffffffffffffffffffffffffffffffffff1614155b15612cd65760016011600084815260200190815260200160002060009054906101000a900460ff1660ff1614612bb2576040517f08c379a0000000000000000000000000000000000000000000000000000000008152600401612ba990615864565b60405180910390fd5b601360009054906101000a900473ffffffffffffffffffffffffffffffffffffffff1673ffffffffffffffffffffffffffffffffffffffff166302556a29846040518263ffffffff1660e01b8152600401612c0d9190614274565b602060405180830381865afa158015612c2a573d6000803e3d6000fd5b505050506040513d601f19601f82011682018060405250810190612c4e9190614b8a565b612c8d576040517f08c379a0000000000000000000000000000000000000000000000000000000008152600401612c84906158f6565b60405180910390fd5b60016011600084815260200190815260200160002060008282829054906101000a900460ff16612cbd9190615916565b92506101000a81548160ff021916908360ff1602179055505b50505050565b50505050565b612cea610bdf565b612d29576040517f08c379a0000000000000000000000000000000000000000000000000000000008152600401612d2090615997565b60405180910390fd5b565b6000612d3e612d3861346d565b83613524565b9050919050565b6000806041835103612d865760008060006020860151925060408601519150606086015160001a9050612d7a87828585613565565b94509450505050612d8f565b60006002915091505b9250929050565b60006004811115612daa57612da96159b7565b5b816004811115612dbd57612dbc6159b7565b5b0315612ef95760016004811115612dd757612dd66159b7565b5b816004811115612dea57612de96159b7565b5b03612e2a576040517f08c379a0000000000000000000000000000000000000000000000000000000008152600401612e2190615a32565b60405180910390fd5b60026004811115612e3e57612e3d6159b7565b5b816004811115612e5157612e506159b7565b5b03612e91576040517f08c379a0000000000000000000000000000000000000000000000000000000008152600401612e8890615a9e565b60405180910390fd5b60036004811115612ea557612ea46159b7565b5b816004811115612eb857612eb76159b7565b5b03612ef8576040517f08c379a0000000000000000000000000000000000000000000000000000000008152600401612eef90615b30565b60405180910390fd5b5b50565b612f068383613647565b612f136000848484612fcb565b612f52576040517f08c379a0000000000000000000000000000000000000000000000000000000008152600401612f49906157f8565b60405180910390fd5b505050565b60606000612f6483613864565b90506000602067ffffffffffffffff811115612f8357612f82614405565b5b6040519080825280601f01601f191660200182016040528015612fb55781602001600182028036833780820191505090505b5090508181528360208201528092505050919050565b6000612fec8473ffffffffffffffffffffffffffffffffffffffff166138b4565b15613145578373ffffffffffffffffffffffffffffffffffffffff1663150b7a02613015611d4f565b8786866040518563ffffffff1660e01b81526004016130379493929190615ba5565b6020604051808303816000875af192505050801561307357506040513d601f19601f820116820180604052508101906130709190615c06565b60015b6130f5573d80600081146130a3576040519150601f19603f3d011682016040523d82523d6000602084013e6130a8565b606091505b5060008151036130ed576040517f08c379a00000000000000000000000000000000000000000000000000000000081526004016130e4906157f8565b60405180910390fd5b805181602001fd5b63150b7a0260e01b7bffffffffffffffffffffffffffffffffffffffffffffffffffffffff1916817bffffffffffffffffffffffffffffffffffffffffffffffffffffffff19161491505061314a565b600190505b949350505050565b600080600090507a184f03e93ff9f4daa797ed6e38ed64bf6a1f01000000000000000083106131b0577a184f03e93ff9f4daa797ed6e38ed64bf6a1f01000000000000000083816131a6576131a5613fe2565b5b0492506040810190505b6d04ee2d6d415b85acef810000000083106131ed576d04ee2d6d415b85acef810000000083816131e3576131e2613fe2565b5b0492506020810190505b662386f26fc10000831061321c57662386f26fc10000838161321257613211613fe2565b5b0492506010810190505b6305f5e1008310613245576305f5e100838161323b5761323a613fe2565b5b0492506008810190505b612710831061326a5761271083816132605761325f613fe2565b5b0492506004810190505b6064831061328d576064838161328357613282613fe2565b5b0492506002810190505b600a831061329c576001810190505b80915050919050565b60007f01ffc9a7000000000000000000000000000000000000000000000000000000007bffffffffffffffffffffffffffffffffffffffffffffffffffffffff1916827bffffffffffffffffffffffffffffffffffffffffffffffffffffffff1916149050919050565b61331b848484846138d7565b600181111561335f576040517f08c379a000000000000000000000000000000000000000000000000000000000815260040161335690615ca5565b60405180910390fd5b6000829050600073ffffffffffffffffffffffffffffffffffffffff168573ffffffffffffffffffffffffffffffffffffffff16036133a6576133a1816138dd565b6133e5565b8373ffffffffffffffffffffffffffffffffffffffff168573ffffffffffffffffffffffffffffffffffffffff16146133e4576133e38582613926565b5b5b600073ffffffffffffffffffffffffffffffffffffffff168473ffffffffffffffffffffffffffffffffffffffff16036134275761342281613a93565b613466565b8473ffffffffffffffffffffffffffffffffffffffff168473ffffffffffffffffffffffffffffffffffffffff1614613465576134648482613b64565b5b5b5050505050565b60007f000000000000000000000000000000000000000000000000000000000000000073ffffffffffffffffffffffffffffffffffffffff163073ffffffffffffffffffffffffffffffffffffffff161480156134e957507f000000000000000000000000000000000000000000000000000000000000000046145b15613516577f00000000000000000000000000000000000000000000000000000000000000009050613521565b61351e613be3565b90505b90565b60006040517f190100000000000000000000000000000000000000000000000000000000000081528360028201528260228201526042812091505092915050565b6000807f7fffffffffffffffffffffffffffffff5d576e7357a4501ddfe92f46681b20a08360001c11156135a057600060039150915061363e565b6000600187878787604051600081526020016040526040516135c59493929190615cc5565b6020604051602081039080840390855afa1580156135e7573d6000803e3d6000fd5b505050602060405103519050600073ffffffffffffffffffffffffffffffffffffffff168173ffffffffffffffffffffffffffffffffffffffff16036136355760006001925092505061363e565b80600092509250505b94509492505050565b600073ffffffffffffffffffffffffffffffffffffffff168273ffffffffffffffffffffffffffffffffffffffff16036136b6576040517f08c379a00000000000000000000000000000000000000000000000000000000081526004016136ad90615d56565b60405180910390fd5b6136bf816124e3565b156136ff576040517f08c379a00000000000000000000000000000000000000000000000000000000081526004016136f690615dc2565b60405180910390fd5b61370d600083836001612ac9565b613716816124e3565b15613756576040517f08c379a000000000000000000000000000000000000000000000000000000000815260040161374d90615dc2565b60405180910390fd5b6001600360008473ffffffffffffffffffffffffffffffffffffffff1673ffffffffffffffffffffffffffffffffffffffff16815260200190815260200160002060008282540192505081905550816002600083815260200190815260200160002060006101000a81548173ffffffffffffffffffffffffffffffffffffffff021916908373ffffffffffffffffffffffffffffffffffffffff160217905550808273ffffffffffffffffffffffffffffffffffffffff16600073ffffffffffffffffffffffffffffffffffffffff167fddf252ad1be2c89b69c2b068fc378daa952ba7f163c4a11628f55a4df523b3ef60405160405180910390a4613860600083836001612cdc565b5050565b60008060ff8360001c169050601f8111156138ab576040517fb3512b0c00000000000000000000000000000000000000000000000000000000815260040160405180910390fd5b80915050919050565b6000808273ffffffffffffffffffffffffffffffffffffffff163b119050919050565b50505050565b6008805490506009600083815260200190815260200160002081905550600881908060018154018082558091505060019003906000526020600020016000909190919091505550565b600060016139338461172e565b61393d9190615de2565b9050600060076000848152602001908152602001600020549050818114613a22576000600660008673ffffffffffffffffffffffffffffffffffffffff1673ffffffffffffffffffffffffffffffffffffffff168152602001908152602001600020600084815260200190815260200160002054905080600660008773ffffffffffffffffffffffffffffffffffffffff1673ffffffffffffffffffffffffffffffffffffffff168152602001908152602001600020600084815260200190815260200160002081905550816007600083815260200190815260200160002081905550505b6007600084815260200190815260200160002060009055600660008573ffffffffffffffffffffffffffffffffffffffff1673ffffffffffffffffffffffffffffffffffffffff16815260200190815260200160002060008381526020019081526020016000206000905550505050565b60006001600880549050613aa79190615de2565b9050600060096000848152602001908152602001600020549050600060088381548110613ad757613ad6614d8d565b5b906000526020600020015490508060088381548110613af957613af8614d8d565b5b906000526020600020018190555081600960008381526020019081526020016000208190555060096000858152602001908152602001600020600090556008805480613b4857613b47615e16565b5b6001900381819060005260206000200160009055905550505050565b6000613b6f8361172e565b905081600660008573ffffffffffffffffffffffffffffffffffffffff1673ffffffffffffffffffffffffffffffffffffffff168152602001908152602001600020600083815260200190815260200160002081905550806007600084815260200190815260200160002081905550505050565b60007f8b73c3c69bb8fe3d512ecc4cf759cc79239f7b179b0ffacaa9a75d522b39400f7f00000000000000000000000000000000000000000000000000000000000000007f00000000000000000000000000000000000000000000000000000000000000004630604051602001613c5e959493929190615e45565b60405160208183030381529060405280519060200120905090565b600082825260208201905092915050565b7f5061757361626c653a2070617573656400000000000000000000000000000000600082015250565b6000613cc0601083613c79565b9150613ccb82613c8a565b602082019050919050565b60006020820190508181036000830152613cef81613cb3565b9050919050565b6000604051905090565b600080fd5b600080fd5b600069ffffffffffffffffffff82169050919050565b613d2981613d0a565b8114613d3457600080fd5b50565b600081519050613d4681613d20565b92915050565b6000819050919050565b613d5f81613d4c565b8114613d6a57600080fd5b50565b600081519050613d7c81613d56565b92915050565b6000819050919050565b613d9581613d82565b8114613da057600080fd5b50565b600081519050613db281613d8c565b92915050565b600080600080600060a08688031215613dd457613dd3613d00565b5b6000613de288828901613d37565b9550506020613df388828901613d6d565b9450506040613e0488828901613da3565b9350506060613e1588828901613da3565b9250506080613e2688828901613d37565b9150509295509295909350565b7f496e76616c69642070726963652066726f6d20436861696e6c696e6b00000000600082015250565b6000613e69601c83613c79565b9150613e7482613e33565b602082019050919050565b60006020820190508181036000830152613e9881613e5c565b9050919050565b600060ff82169050919050565b613eb581613e9f565b8114613ec057600080fd5b50565b600081519050613ed281613eac565b92915050565b600060208284031215613eee57613eed613d00565b5b6000613efc84828501613ec3565b91505092915050565b7f556e6578706563746564207072696365206665656420646563696d616c730000600082015250565b6000613f3b601e83613c79565b9150613f4682613f05565b602082019050919050565b60006020820190508181036000830152613f6a81613f2e565b9050919050565b7f4e487b7100000000000000000000000000000000000000000000000000000000600052601160045260246000fd5b6000613fab82613d82565b9150613fb683613d82565b9250828202613fc481613d82565b91508282048414831517613fdb57613fda613f71565b5b5092915050565b7f4e487b7100000000000000000000000000000000000000000000000000000000600052601260045260246000fd5b600061401c82613d82565b915061402783613d82565b92508261403757614036613fe2565b5b828204905092915050565b600073ffffffffffffffffffffffffffffffffffffffff82169050919050565b600061406d82614042565b9050919050565b61407d81614062565b82525050565b61408c81613d82565b82525050565b60006040820190506140a76000830185614074565b6140b46020830184614083565b9392505050565b60006020820190506140d06000830184614083565b92915050565b60007fffffffff0000000000000000000000000000000000000000000000000000000082169050919050565b61410b816140d6565b811461411657600080fd5b50565b60008135905061412881614102565b92915050565b60006020828403121561414457614143613d00565b5b600061415284828501614119565b91505092915050565b60008115159050919050565b6141708161415b565b82525050565b600060208201905061418b6000830184614167565b92915050565b600081519050919050565b60005b838110156141ba57808201518184015260208101905061419f565b60008484015250505050565b6000601f19601f8301169050919050565b60006141e282614191565b6141ec8185613c79565b93506141fc81856020860161419c565b614205816141c6565b840191505092915050565b6000602082019050818103600083015261422a81846141d7565b905092915050565b60008135905061424181613d8c565b92915050565b60006020828403121561425d5761425c613d00565b5b600061426b84828501614232565b91505092915050565b60006020820190506142896000830184614074565b92915050565b61429881614062565b81146142a357600080fd5b50565b6000813590506142b58161428f565b92915050565b600080604083850312156142d2576142d1613d00565b5b60006142e0858286016142a6565b92505060206142f185828601614232565b9150509250929050565b600080fd5b600080fd5b600080fd5b60008083601f8401126143205761431f6142fb565b5b8235905067ffffffffffffffff81111561433d5761433c614300565b5b60208301915083602082028301111561435957614358614305565b5b9250929050565b6000806020838503121561437757614376613d00565b5b600083013567ffffffffffffffff81111561439557614394613d05565b5b6143a18582860161430a565b92509250509250929050565b6000806000606084860312156143c6576143c5613d00565b5b60006143d4868287016142a6565b93505060206143e5868287016142a6565b92505060406143f686828701614232565b9150509250925092565b600080fd5b7f4e487b7100000000000000000000000000000000000000000000000000000000600052604160045260246000fd5b61443d826141c6565b810181811067ffffffffffffffff8211171561445c5761445b614405565b5b80604052505050565b600061446f613cf6565b905061447b8282614434565b919050565b600067ffffffffffffffff82111561449b5761449a614405565b5b6144a4826141c6565b9050602081019050919050565b82818337600083830152505050565b60006144d36144ce84614480565b614465565b9050828152602081018484840111156144ef576144ee614400565b5b6144fa8482856144b1565b509392505050565b600082601f830112614517576145166142fb565b5b81356145278482602086016144c0565b91505092915050565b6000806000806080858703121561454a57614549613d00565b5b600061455887828801614232565b945050602061456987828801614232565b935050604061457a87828801614232565b925050606085013567ffffffffffffffff81111561459b5761459a613d05565b5b6145a787828801614502565b91505092959194509250565b6000602082840312156145c9576145c8613d00565b5b60006145d7848285016142a6565b91505092915050565b60007fff0000000000000000000000000000000000000000000000000000000000000082169050919050565b614615816145e0565b82525050565b6000819050919050565b61462e8161461b565b82525050565b600081519050919050565b600082825260208201905092915050565b6000819050602082019050919050565b61466981613d82565b82525050565b600061467b8383614660565b60208301905092915050565b6000602082019050919050565b600061469f82614634565b6146a9818561463f565b93506146b483614650565b8060005b838110156146e55781516146cc888261466f565b97506146d783614687565b9250506001810190506146b8565b5085935050505092915050565b600060e082019050614707600083018a61460c565b818103602083015261471981896141d7565b9050818103604083015261472d81886141d7565b905061473c6060830187614083565b6147496080830186614074565b61475660a0830185614625565b81810360c08301526147688184614694565b905098975050505050505050565b6000819050919050565b600061479b61479661479184614042565b614776565b614042565b9050919050565b60006147ad82614780565b9050919050565b60006147bf826147a2565b9050919050565b6147cf816147b4565b82525050565b60006020820190506147ea60008301846147c6565b92915050565b6147f98161415b565b811461480457600080fd5b50565b600081359050614816816147f0565b92915050565b6000806040838503121561483357614832613d00565b5b6000614841858286016142a6565b925050602061485285828601614807565b9150509250929050565b6000806000806080858703121561487657614875613d00565b5b6000614884878288016142a6565b9450506020614895878288016142a6565b93505060406148a687828801614232565b925050606085013567ffffffffffffffff8111156148c7576148c6613d05565b5b6148d387828801614502565b91505092959194509250565b600080604083850312156148f6576148f5613d00565b5b6000614904858286016142a6565b9250506020614915858286016142a6565b9150509250929050565b61492881613e9f565b82525050565b6000602082019050614943600083018461491f565b92915050565b6000614954826147a2565b9050919050565b61496481614949565b82525050565b600060208201905061497f600083018461495b565b92915050565b7f5265656e7472616e637947756172643a207265656e7472616e742063616c6c00600082015250565b60006149bb601f83613c79565b91506149c682614985565b602082019050919050565b600060208201905081810360008301526149ea816149ae565b9050919050565b7f4e487b7100000000000000000000000000000000000000000000000000000000600052602260045260246000fd5b60006002820490506001821680614a3857607f821691505b602082108103614a4b57614a4a6149f1565b5b50919050565b7f4552433732313a20617070726f76616c20746f2063757272656e74206f776e6560008201527f7200000000000000000000000000000000000000000000000000000000000000602082015250565b6000614aad602183613c79565b9150614ab882614a51565b604082019050919050565b60006020820190508181036000830152614adc81614aa0565b9050919050565b7f4552433732313a20617070726f76652063616c6c6572206973206e6f7420746f60008201527f6b656e206f776e6572206f7220617070726f76656420666f7220616c6c000000602082015250565b6000614b3f603d83613c79565b9150614b4a82614ae3565b604082019050919050565b60006020820190508181036000830152614b6e81614b32565b9050919050565b600081519050614b84816147f0565b92915050565b600060208284031215614ba057614b9f613d00565b5b6000614bae84828501614b75565b91505092915050565b7f4d75737420686f6c6420612076616c6964204d65726368616e7420546f6b656e60008201527f2e00000000000000000000000000000000000000000000000000000000000000602082015250565b6000614c13602183613c79565b9150614c1e82614bb7565b604082019050919050565b60006020820190508181036000830152614c4281614c06565b9050919050565b7f4e6f20746f6b656e732070726f76696465642e00000000000000000000000000600082015250565b6000614c7f601383613c79565b9150614c8a82614c49565b602082019050919050565b60006020820190508181036000830152614cae81614c72565b9050919050565b7f4e6f20746f6b656e7320696e2063697263756c6174696f6e2e00000000000000600082015250565b6000614ceb601983613c79565b9150614cf682614cb5565b602082019050919050565b60006020820190508181036000830152614d1a81614cde565b9050919050565b7f4e6f7420656e6f7567682045544820696e20636f6e74726163742e0000000000600082015250565b6000614d57601b83613c79565b9150614d6282614d21565b602082019050919050565b60006020820190508181036000830152614d8681614d4a565b9050919050565b7f4e487b7100000000000000000000000000000000000000000000000000000000600052603260045260246000fd5b7f43616c6c6572206d757374206f776e20616c6c20746f6b656e73206265696e6760008201527f2072656465656d65642e00000000000000000000000000000000000000000000602082015250565b6000614e18602a83613c79565b9150614e2382614dbc565b604082019050919050565b60006020820190508181036000830152614e4781614e0b565b9050919050565b7f546f6b656e206973206e6f7420696e20612076616c696420737461746520746f60008201527f206275726e2e0000000000000000000000000000000000000000000000000000602082015250565b6000614eaa602683613c79565b9150614eb582614e4e565b604082019050919050565b60006020820190508181036000830152614ed981614e9d565b9050919050565b600081905092915050565b50565b6000614efb600083614ee0565b9150614f0682614eeb565b600082019050919050565b6000614f1c82614eee565b9150819050919050565b7f5472616e73666572206661696c65640000000000000000000000000000000000600082015250565b6000614f5c600f83613c79565b9150614f6782614f26565b602082019050919050565b60006020820190508181036000830152614f8b81614f4f565b9050919050565b6000604082019050614fa76000830185614083565b614fb46020830184614083565b9392505050565b7f4552433732313a2063616c6c6572206973206e6f7420746f6b656e206f776e6560008201527f72206f7220617070726f76656400000000000000000000000000000000000000602082015250565b6000615017602d83613c79565b915061502282614fbb565b604082019050919050565b600060208201905081810360008301526150468161500a565b9050919050565b7f455243373231456e756d657261626c653a206f776e657220696e646578206f7560008201527f74206f6620626f756e6473000000000000000000000000000000000000000000602082015250565b60006150a9602b83613c79565b91506150b48261504d565b604082019050919050565b600060208201905081810360008301526150d88161509c565b9050919050565b7f416d6f756e74206d7573742062652067726561746572207468616e207a65726f60008201527f20616e64206c657373207468616e203130000000000000000000000000000000602082015250565b600061513b603183613c79565b9150615146826150df565b604082019050919050565b6000602082019050818103600083015261516a8161512e565b9050919050565b7f5369676e61747572652068617320657870697265640000000000000000000000600082015250565b60006151a7601583613c79565b91506151b282615171565b602082019050919050565b600060208201905081810360008301526151d68161519a565b9050919050565b7f4e6f6e636520616c726561647920757365640000000000000000000000000000600082015250565b6000615213601283613c79565b915061521e826151dd565b602082019050919050565b6000602082019050818103600083015261524281615206565b9050919050565b7f496e76616c6964207369676e6174757265000000000000000000000000000000600082015250565b600061527f601183613c79565b915061528a82615249565b602082019050919050565b600060208201905081810360008301526152ae81615272565b9050919050565b7f455243373231456e756d657261626c653a20676c6f62616c20696e646578206f60008201527f7574206f6620626f756e64730000000000000000000000000000000000000000602082015250565b6000615311602c83613c79565b915061531c826152b5565b604082019050919050565b6000602082019050818103600083015261534081615304565b9050919050565b7f4552433732313a20696e76616c696420746f6b656e2049440000000000000000600082015250565b600061537d601883613c79565b915061538882615347565b602082019050919050565b600060208201905081810360008301526153ac81615370565b9050919050565b7f4552433732313a2061646472657373207a65726f206973206e6f74206120766160008201527f6c6964206f776e65720000000000000000000000000000000000000000000000602082015250565b600061540f602983613c79565b915061541a826153b3565b604082019050919050565b6000602082019050818103600083015261543e81615402565b9050919050565b600081905092915050565b600061545b82614191565b6154658185615445565b935061547581856020860161419c565b80840191505092915050565b600061548d8285615450565b91506154998284615450565b91508190509392505050565b7f4f776e61626c653a206e6577206f776e657220697320746865207a65726f206160008201527f6464726573730000000000000000000000000000000000000000000000000000602082015250565b6000615501602683613c79565b915061550c826154a5565b604082019050919050565b60006020820190508181036000830152615530816154f4565b9050919050565b7f4552433732313a207472616e736665722066726f6d20696e636f72726563742060008201527f6f776e6572000000000000000000000000000000000000000000000000000000602082015250565b6000615593602583613c79565b915061559e82615537565b604082019050919050565b600060208201905081810360008301526155c281615586565b9050919050565b7f4552433732313a207472616e7366657220746f20746865207a65726f2061646460008201527f7265737300000000000000000000000000000000000000000000000000000000602082015250565b6000615625602483613c79565b9150615630826155c9565b604082019050919050565b6000602082019050818103600083015261565481615618565b9050919050565b7f4f776e61626c653a2063616c6c6572206973206e6f7420746865206f776e6572600082015250565b6000615691602083613c79565b915061569c8261565b565b602082019050919050565b600060208201905081810360008301526156c081615684565b9050919050565b600060a0820190506156dc6000830188614625565b6156e96020830187614074565b6156f66040830186614083565b6157036060830185614083565b6157106080830184614083565b9695505050505050565b7f4552433732313a20617070726f766520746f2063616c6c657200000000000000600082015250565b6000615750601983613c79565b915061575b8261571a565b602082019050919050565b6000602082019050818103600083015261577f81615743565b9050919050565b7f4552433732313a207472616e7366657220746f206e6f6e20455243373231526560008201527f63656976657220696d706c656d656e7465720000000000000000000000000000602082015250565b60006157e2603283613c79565b91506157ed82615786565b604082019050919050565b60006020820190508181036000830152615811816157d5565b9050919050565b7f496e76616c6964207472616e7366657200000000000000000000000000000000600082015250565b600061584e601083613c79565b915061585982615818565b602082019050919050565b6000602082019050818103600083015261587d81615841565b9050919050565b7f526563697069656e74206d75737420626520612076616c6964206d657263686160008201527f6e74000000000000000000000000000000000000000000000000000000000000602082015250565b60006158e0602283613c79565b91506158eb82615884565b604082019050919050565b6000602082019050818103600083015261590f816158d3565b9050919050565b600061592182613e9f565b915061592c83613e9f565b9250828201905060ff81111561594557615944613f71565b5b92915050565b7f5061757361626c653a206e6f7420706175736564000000000000000000000000600082015250565b6000615981601483613c79565b915061598c8261594b565b602082019050919050565b600060208201905081810360008301526159b081615974565b9050919050565b7f4e487b7100000000000000000000000000000000000000000000000000000000600052602160045260246000fd5b7f45434453413a20696e76616c6964207369676e61747572650000000000000000600082015250565b6000615a1c601883613c79565b9150615a27826159e6565b602082019050919050565b60006020820190508181036000830152615a4b81615a0f565b9050919050565b7f45434453413a20696e76616c6964207369676e6174757265206c656e67746800600082015250565b6000615a88601f83613c79565b9150615a9382615a52565b602082019050919050565b60006020820190508181036000830152615ab781615a7b565b9050919050565b7f45434453413a20696e76616c6964207369676e6174757265202773272076616c60008201527f7565000000000000000000000000000000000000000000000000000000000000602082015250565b6000615b1a602283613c79565b9150615b2582615abe565b604082019050919050565b60006020820190508181036000830152615b4981615b0d565b9050919050565b600081519050919050565b600082825260208201905092915050565b6000615b7782615b50565b615b818185615b5b565b9350615b9181856020860161419c565b615b9a816141c6565b840191505092915050565b6000608082019050615bba6000830187614074565b615bc76020830186614074565b615bd46040830185614083565b8181036060830152615be68184615b6c565b905095945050505050565b600081519050615c0081614102565b92915050565b600060208284031215615c1c57615c1b613d00565b5b6000615c2a84828501615bf1565b91505092915050565b7f455243373231456e756d657261626c653a20636f6e736563757469766520747260008201527f616e7366657273206e6f7420737570706f727465640000000000000000000000602082015250565b6000615c8f603583613c79565b9150615c9a82615c33565b604082019050919050565b60006020820190508181036000830152615cbe81615c82565b9050919050565b6000608082019050615cda6000830187614625565b615ce7602083018661491f565b615cf46040830185614625565b615d016060830184614625565b95945050505050565b7f4552433732313a206d696e7420746f20746865207a65726f2061646472657373600082015250565b6000615d40602083613c79565b9150615d4b82615d0a565b602082019050919050565b60006020820190508181036000830152615d6f81615d33565b9050919050565b7f4552433732313a20746f6b656e20616c7265616479206d696e74656400000000600082015250565b6000615dac601c83613c79565b9150615db782615d76565b602082019050919050565b60006020820190508181036000830152615ddb81615d9f565b9050919050565b6000615ded82613d82565b9150615df883613d82565b9250828203905081811115615e1057615e0f613f71565b5b92915050565b7f4e487b7100000000000000000000000000000000000000000000000000000000600052603160045260246000fd5b600060a082019050615e5a6000830188614625565b615e676020830187614625565b615e746040830186614625565b615e816060830185614083565b615e8e6080830184614074565b969550505050505056fea2646970667358221220f670490931cb95b61a43ec1d3e55ebc8cffa0e748e3be493128086802966df3c64736f6c634300081b0033608060405234801561001057600080fd5b506040518060400160405280601081526020017f4f4c4d2052657761726420546f6b656e000000000000000000000000000000008152506040518060400160405280600581526020017f4f4c4d5254000000000000000000000000000000000000000000000000000000815250816003908161008c91906103de565b50806004908161009c91906103de565b5050506100bb6100b06100c060201b60201c565b6100c860201b60201c565b6104b0565b600033905090565b6000600560009054906101000a900473ffffffffffffffffffffffffffffffffffffffff16905081600560006101000a81548173ffffffffffffffffffffffffffffffffffffffff021916908373ffffffffffffffffffffffffffffffffffffffff1602179055508173ffffffffffffffffffffffffffffffffffffffff168173ffffffffffffffffffffffffffffffffffffffff167f8be0079c531659141344cd1fd0a4f28419497f9722a3daafe3b4186f6b6457e060405160405180910390a35050565b600081519050919050565b7f4e487b7100000000000000000000000000000000000000000000000000000000600052604160045260246000fd5b7f4e487b7100000000000000000000000000000000000000000000000000000000600052602260045260246000fd5b6000600282049050600182168061020f57607f821691505b602082108103610222576102216101c8565b5b50919050565b60008190508160005260206000209050919050565b60006020601f8301049050919050565b600082821b905092915050565b60006008830261028a7fffffffffffffffffffffffffffffffffffffffffffffffffffffffffffffffff8261024d565b610294868361024d565b95508019841693508086168417925050509392505050565b6000819050919050565b6000819050919050565b60006102db6102d66102d1846102ac565b6102b6565b6102ac565b9050919050565b6000819050919050565b6102f5836102c0565b610309610301826102e2565b84845461025a565b825550505050565b600090565b61031e610311565b6103298184846102ec565b505050565b5b8181101561034d57610342600082610316565b60018101905061032f565b5050565b601f8211156103925761036381610228565b61036c8461023d565b8101602085101561037b578190505b61038f6103878561023d565b83018261032e565b50505b505050565b600082821c905092915050565b60006103b560001984600802610397565b1980831691505092915050565b60006103ce83836103a4565b9150826002028217905092915050565b6103e78261018e565b67ffffffffffffffff811115610400576103ff610199565b5b61040a82546101f7565b610415828285610351565b600060209050601f8311600181146104485760008415610436578287015190505b61044085826103c2565b8655506104a8565b601f19841661045686610228565b60005b8281101561047e57848901518255600182019150602085019450602081019050610459565b8683101561049b5784890151610497601f8916826103a4565b8355505b6001600288020188555050505b505050505050565b6117e0806104bf6000396000f3fe608060405234801561001057600080fd5b50600436106100f55760003560e01c806370a0823111610097578063a457c2d711610066578063a457c2d714610276578063a9059cbb146102a6578063dd62ed3e146102d6578063f2fde38b14610306576100f5565b806370a0823114610200578063715018a6146102305780638da5cb5b1461023a57806395d89b4114610258576100f5565b806323b872dd116100d357806323b872dd14610166578063313ce5671461019657806339509351146101b457806340c10f19146101e4576100f5565b806306fdde03146100fa578063095ea7b31461011857806318160ddd14610148575b600080fd5b610102610322565b60405161010f9190610f29565b60405180910390f35b610132600480360381019061012d9190610fe4565b6103b4565b60405161013f919061103f565b60405180910390f35b6101506103d7565b60405161015d9190611069565b60405180910390f35b610180600480360381019061017b9190611084565b6103e1565b60405161018d919061103f565b60405180910390f35b61019e610410565b6040516101ab91906110f3565b60405180910390f35b6101ce60048036038101906101c99190610fe4565b610419565b6040516101db919061103f565b60405180910390f35b6101fe60048036038101906101f99190610fe4565b610450565b005b61021a6004803603810190610215919061110e565b610466565b6040516102279190611069565b60405180910390f35b6102386104ae565b005b6102426104c2565b60405161024f919061114a565b60405180910390f35b6102606104ec565b60405161026d9190610f29565b60405180910390f35b610290600480360381019061028b9190610fe4565b61057e565b60405161029d919061103f565b60405180910390f35b6102c060048036038101906102bb9190610fe4565b6105f5565b6040516102cd919061103f565b60405180910390f35b6102f060048036038101906102eb9190611165565b610618565b6040516102fd9190611069565b60405180910390f35b610320600480360381019061031b919061110e565b61069f565b005b606060038054610331906111d4565b80601f016020809104026020016040519081016040528092919081815260200182805461035d906111d4565b80156103aa5780601f1061037f576101008083540402835291602001916103aa565b820191906000526020600020905b81548152906001019060200180831161038d57829003601f168201915b5050505050905090565b6000806103bf610722565b90506103cc81858561072a565b600191505092915050565b6000600254905090565b6000806103ec610722565b90506103f98582856108f3565b61040485858561097f565b60019150509392505050565b60006012905090565b600080610424610722565b90506104458185856104368589610618565b6104409190611234565b61072a565b600191505092915050565b610458610bf5565b6104628282610c73565b5050565b60008060008373ffffffffffffffffffffffffffffffffffffffff1673ffffffffffffffffffffffffffffffffffffffff168152602001908152602001600020549050919050565b6104b6610bf5565b6104c06000610dc9565b565b6000600560009054906101000a900473ffffffffffffffffffffffffffffffffffffffff16905090565b6060600480546104fb906111d4565b80601f0160208091040260200160405190810160405280929190818152602001828054610527906111d4565b80156105745780601f1061054957610100808354040283529160200191610574565b820191906000526020600020905b81548152906001019060200180831161055757829003601f168201915b5050505050905090565b600080610589610722565b905060006105978286610618565b9050838110156105dc576040517f08c379a00000000000000000000000000000000000000000000000000000000081526004016105d3906112da565b60405180910390fd5b6105e9828686840361072a565b60019250505092915050565b600080610600610722565b905061060d81858561097f565b600191505092915050565b6000600160008473ffffffffffffffffffffffffffffffffffffffff1673ffffffffffffffffffffffffffffffffffffffff16815260200190815260200160002060008373ffffffffffffffffffffffffffffffffffffffff1673ffffffffffffffffffffffffffffffffffffffff16815260200190815260200160002054905092915050565b6106a7610bf5565b600073ffffffffffffffffffffffffffffffffffffffff168173ffffffffffffffffffffffffffffffffffffffff1603610716576040517f08c379a000000000000000000000000000000000000000000000000000000000815260040161070d9061136c565b60405180910390fd5b61071f81610dc9565b50565b600033905090565b600073ffffffffffffffffffffffffffffffffffffffff168373ffffffffffffffffffffffffffffffffffffffff1603610799576040517f08c379a0000000000000000000000000000000000000000000000000000000008152600401610790906113fe565b60405180910390fd5b600073ffffffffffffffffffffffffffffffffffffffff168273ffffffffffffffffffffffffffffffffffffffff1603610808576040517f08c379a00000000000000000000000000000000000000000000000000000000081526004016107ff90611490565b60405180910390fd5b80600160008573ffffffffffffffffffffffffffffffffffffffff1673ffffffffffffffffffffffffffffffffffffffff16815260200190815260200160002060008473ffffffffffffffffffffffffffffffffffffffff1673ffffffffffffffffffffffffffffffffffffffff168152602001908152602001600020819055508173ffffffffffffffffffffffffffffffffffffffff168373ffffffffffffffffffffffffffffffffffffffff167f8c5be1e5ebec7d5bd14f71427d1e84f3dd0314c0f7b2291e5b200ac8c7c3b925836040516108e69190611069565b60405180910390a3505050565b60006108ff8484610618565b90507fffffffffffffffffffffffffffffffffffffffffffffffffffffffffffffffff8114610979578181101561096b576040517f08c379a0000000000000000000000000000000000000000000000000000000008152600401610962906114fc565b60405180910390fd5b610978848484840361072a565b5b50505050565b600073ffffffffffffffffffffffffffffffffffffffff168373ffffffffffffffffffffffffffffffffffffffff16036109ee576040517f08c379a00000000000000000000000000000000000000000000000000000000081526004016109e59061158e565b60405180910390fd5b600073ffffffffffffffffffffffffffffffffffffffff168273ffffffffffffffffffffffffffffffffffffffff1603610a5d576040517f08c379a0000000000000000000000000000000000000000000000000000000008152600401610a5490611620565b60405180910390fd5b610a68838383610e8f565b60008060008573ffffffffffffffffffffffffffffffffffffffff1673ffffffffffffffffffffffffffffffffffffffff16815260200190815260200160002054905081811015610aee576040517f08c379a0000000000000000000000000000000000000000000000000000000008152600401610ae5906116b2565b60405180910390fd5b8181036000808673ffffffffffffffffffffffffffffffffffffffff1673ffffffffffffffffffffffffffffffffffffffff16815260200190815260200160002081905550816000808573ffffffffffffffffffffffffffffffffffffffff1673ffffffffffffffffffffffffffffffffffffffff168152602001908152602001600020600082825401925050819055508273ffffffffffffffffffffffffffffffffffffffff168473ffffffffffffffffffffffffffffffffffffffff167fddf252ad1be2c89b69c2b068fc378daa952ba7f163c4a11628f55a4df523b3ef84604051610bdc9190611069565b60405180910390a3610bef848484610e94565b50505050565b610bfd610722565b73ffffffffffffffffffffffffffffffffffffffff16610c1b6104c2565b73ffffffffffffffffffffffffffffffffffffffff1614610c71576040517f08c379a0000000000000000000000000000000000000000000000000000000008152600401610c689061171e565b60405180910390fd5b565b600073ffffffffffffffffffffffffffffffffffffffff168273ffffffffffffffffffffffffffffffffffffffff1603610ce2576040517f08c379a0000000000000000000000000000000000000000000000000000000008152600401610cd99061178a565b60405180910390fd5b610cee60008383610e8f565b8060026000828254610d009190611234565b92505081905550806000808473ffffffffffffffffffffffffffffffffffffffff1673ffffffffffffffffffffffffffffffffffffffff168152602001908152602001600020600082825401925050819055508173ffffffffffffffffffffffffffffffffffffffff16600073ffffffffffffffffffffffffffffffffffffffff167fddf252ad1be2c89b69c2b068fc378daa952ba7f163c4a11628f55a4df523b3ef83604051610db19190611069565b60405180910390a3610dc560008383610e94565b5050565b6000600560009054906101000a900473ffffffffffffffffffffffffffffffffffffffff16905081600560006101000a81548173ffffffffffffffffffffffffffffffffffffffff021916908373ffffffffffffffffffffffffffffffffffffffff1602179055508173ffffffffffffffffffffffffffffffffffffffff168173ffffffffffffffffffffffffffffffffffffffff167f8be0079c531659141344cd1fd0a4f28419497f9722a3daafe3b4186f6b6457e060405160405180910390a35050565b505050565b505050565b600081519050919050565b600082825260208201905092915050565b60005b83811015610ed3578082015181840152602081019050610eb8565b60008484015250505050565b6000601f19601f8301169050919050565b6000610efb82610e99565b610f058185610ea4565b9350610f15818560208601610eb5565b610f1e81610edf565b840191505092915050565b60006020820190508181036000830152610f438184610ef0565b905092915050565b600080fd5b600073ffffffffffffffffffffffffffffffffffffffff82169050919050565b6000610f7b82610f50565b9050919050565b610f8b81610f70565b8114610f9657600080fd5b50565b600081359050610fa881610f82565b92915050565b6000819050919050565b610fc181610fae565b8114610fcc57600080fd5b50565b600081359050610fde81610fb8565b92915050565b60008060408385031215610ffb57610ffa610f4b565b5b600061100985828601610f99565b925050602061101a85828601610fcf565b9150509250929050565b60008115159050919050565b61103981611024565b82525050565b60006020820190506110546000830184611030565b92915050565b61106381610fae565b82525050565b600060208201905061107e600083018461105a565b92915050565b60008060006060848603121561109d5761109c610f4b565b5b60006110ab86828701610f99565b93505060206110bc86828701610f99565b92505060406110cd86828701610fcf565b9150509250925092565b600060ff82169050919050565b6110ed816110d7565b82525050565b600060208201905061110860008301846110e4565b92915050565b60006020828403121561112457611123610f4b565b5b600061113284828501610f99565b91505092915050565b61114481610f70565b82525050565b600060208201905061115f600083018461113b565b92915050565b6000806040838503121561117c5761117b610f4b565b5b600061118a85828601610f99565b925050602061119b85828601610f99565b9150509250929050565b7f4e487b7100000000000000000000000000000000000000000000000000000000600052602260045260246000fd5b600060028204905060018216806111ec57607f821691505b6020821081036111ff576111fe6111a5565b5b50919050565b7f4e487b7100000000000000000000000000000000000000000000000000000000600052601160045260246000fd5b600061123f82610fae565b915061124a83610fae565b925082820190508082111561126257611261611205565b5b92915050565b7f45524332303a2064656372656173656420616c6c6f77616e63652062656c6f7760008201527f207a65726f000000000000000000000000000000000000000000000000000000602082015250565b60006112c4602583610ea4565b91506112cf82611268565b604082019050919050565b600060208201905081810360008301526112f3816112b7565b9050919050565b7f4f776e61626c653a206e6577206f776e657220697320746865207a65726f206160008201527f6464726573730000000000000000000000000000000000000000000000000000602082015250565b6000611356602683610ea4565b9150611361826112fa565b604082019050919050565b6000602082019050818103600083015261138581611349565b9050919050565b7f45524332303a20617070726f76652066726f6d20746865207a65726f2061646460008201527f7265737300000000000000000000000000000000000000000000000000000000602082015250565b60006113e8602483610ea4565b91506113f38261138c565b604082019050919050565b60006020820190508181036000830152611417816113db565b9050919050565b7f45524332303a20617070726f766520746f20746865207a65726f20616464726560008201527f7373000000000000000000000000000000000000000000000000000000000000602082015250565b600061147a602283610ea4565b91506114858261141e565b604082019050919050565b600060208201905081810360008301526114a98161146d565b9050919050565b7f45524332303a20696e73756666696369656e7420616c6c6f77616e6365000000600082015250565b60006114e6601d83610ea4565b91506114f1826114b0565b602082019050919050565b60006020820190508181036000830152611515816114d9565b9050919050565b7f45524332303a207472616e736665722066726f6d20746865207a65726f20616460008201527f6472657373000000000000000000000000000000000000000000000000000000602082015250565b6000611578602583610ea4565b91506115838261151c565b604082019050919050565b600060208201905081810360008301526115a78161156b565b9050919050565b7f45524332303a207472616e7366657220746f20746865207a65726f206164647260008201527f6573730000000000000000000000000000000000000000000000000000000000602082015250565b600061160a602383610ea4565b9150611615826115ae565b604082019050919050565b60006020820190508181036000830152611639816115fd565b9050919050565b7f45524332303a207472616e7366657220616d6f756e742065786365656473206260008201527f616c616e63650000000000000000000000000000000000000000000000000000602082015250565b600061169c602683610ea4565b91506116a782611640565b604082019050919050565b600060208201905081810360008301526116cb8161168f565b9050919050565b7f4f776e61626c653a2063616c6c6572206973206e6f7420746865206f776e6572600082015250565b6000611708602083610ea4565b9150611713826116d2565b602082019050919050565b60006020820190508181036000830152611737816116fb565b9050919050565b7f45524332303a206d696e7420746f20746865207a65726f206164647265737300600082015250565b6000611774601f83610ea4565b915061177f8261173e565b602082019050919050565b600060208201905081810360008301526117a381611767565b905091905056fea2646970667358221220af20ee9085baea6d3365493d9a9c372a7cee3e7ac2647d892ac51a03d58530b864736f6c634300081b0033608060405234801561001057600080fd5b506040518060400160405280601781526020017f4c6974746572636f696e4d65726368616e74546f6b656e0000000000000000008152506040518060400160405280600481526020017f4c584d5400000000000000000000000000000000000000000000000000000000815250816000908161008c91906103f9565b50806001908161009c91906103f9565b5050506100bb6100b06100db60201b60201c565b6100e360201b60201c565b6000600660146101000a81548160ff0219169083151502179055506104cb565b600033905090565b6000600660009054906101000a900473ffffffffffffffffffffffffffffffffffffffff16905081600660006101000a81548173ffffffffffffffffffffffffffffffffffffffff021916908373ffffffffffffffffffffffffffffffffffffffff1602179055508173ffffffffffffffffffffffffffffffffffffffff168173ffffffffffffffffffffffffffffffffffffffff167f8be0079c531659141344cd1fd0a4f28419497f9722a3daafe3b4186f6b6457e060405160405180910390a35050565b600081519050919050565b7f4e487b7100000000000000000000000000000000000000000000000000000000600052604160045260246000fd5b7f4e487b7100000000000000000000000000000000000000000000000000000000600052602260045260246000fd5b6000600282049050600182168061022a57607f821691505b60208210810361023d5761023c6101e3565b5b50919050565b60008190508160005260206000209050919050565b60006020601f8301049050919050565b600082821b905092915050565b6000600883026102a57fffffffffffffffffffffffffffffffffffffffffffffffffffffffffffffffff82610268565b6102af8683610268565b95508019841693508086168417925050509392505050565b6000819050919050565b6000819050919050565b60006102f66102f16102ec846102c7565b6102d1565b6102c7565b9050919050565b6000819050919050565b610310836102db565b61032461031c826102fd565b848454610275565b825550505050565b600090565b61033961032c565b610344818484610307565b505050565b5b818110156103685761035d600082610331565b60018101905061034a565b5050565b601f8211156103ad5761037e81610243565b61038784610258565b81016020851015610396578190505b6103aa6103a285610258565b830182610349565b50505b505050565b600082821c905092915050565b60006103d0600019846008026103b2565b1980831691505092915050565b60006103e983836103bf565b9150826002028217905092915050565b610402826101a9565b67ffffffffffffffff81111561041b5761041a6101b4565b5b6104258254610212565b61043082828561036c565b600060209050601f8311600181146104635760008415610451578287015190505b61045b85826103dd565b8655506104c3565b601f19841661047186610243565b60005b8281101561049957848901518255600182019150602085019450602081019050610474565b868310156104b657848901516104b2601f8916826103bf565b8355505b6001600288020188555050505b505050505050565b6139d4806104da6000396000f3fe608060405234801561001057600080fd5b506004361061018e5760003560e01c80636352211e116100de578063b88d4fde11610097578063d9e5896e11610071578063d9e5896e1461046d578063e985e9c51461049d578063ea557633146104cd578063f2fde38b146104fd5761018e565b8063b88d4fde146103f1578063c87b56dd1461040d578063d9548e531461043d5761018e565b80636352211e1461032f57806370a082311461035f578063715018a61461038f5780638da5cb5b1461039957806395d89b41146103b7578063a22cb465146103d55761018e565b8063393ed91a1161014b57806342842e0e1161012557806342842e0e146102cd57806344df8e70146102e957806356189236146102f35780635c975abb146103115761018e565b8063393ed91a1461027957806340c10f1914610295578063425604d6146102b15761018e565b806301ffc9a71461019357806302556a29146101c357806306fdde03146101f3578063081812fc14610211578063095ea7b31461024157806323b872dd1461025d575b600080fd5b6101ad60048036038101906101a891906125e2565b610519565b6040516101ba919061262a565b60405180910390f35b6101dd60048036038101906101d891906126a3565b61052b565b6040516101ea919061262a565b60405180910390f35b6101fb61059e565b6040516102089190612760565b60405180910390f35b61022b600480360381019061022691906127b8565b610630565b60405161023891906127f4565b60405180910390f35b61025b6004803603810190610256919061280f565b610676565b005b6102776004803603810190610272919061284f565b61078d565b005b610293600480360381019061028e91906127b8565b6107ed565b005b6102af60048036038101906102aa919061280f565b6108ed565b005b6102cb60048036038101906102c691906128a2565b610acc565b005b6102e760048036038101906102e2919061284f565b610be1565b005b6102f1610c01565b005b6102fb610c9c565b60405161030891906128f1565b60405180910390f35b610319610cad565b604051610326919061262a565b60405180910390f35b610349600480360381019061034491906127b8565b610cc4565b60405161035691906127f4565b60405180910390f35b610379600480360381019061037491906126a3565b610d4a565b60405161038691906128f1565b60405180910390f35b610397610e01565b005b6103a1610e15565b6040516103ae91906127f4565b60405180910390f35b6103bf610e3f565b6040516103cc9190612760565b60405180910390f35b6103ef60048036038101906103ea9190612938565b610ed1565b005b61040b60048036038101906104069190612aad565b610ee7565b005b610427600480360381019061042291906127b8565b610f49565b6040516104349190612760565b60405180910390f35b610457600480360381019061045291906127b8565b610fb1565b604051610464919061262a565b60405180910390f35b610487600480360381019061048291906127b8565b611018565b60405161049491906128f1565b60405180910390f35b6104b760048036038101906104b29190612b30565b61107d565b6040516104c4919061262a565b60405180910390f35b6104e760048036038101906104e291906126a3565b611111565b6040516104f491906128f1565b60405180910390f35b610517600480360381019061051291906126a3565b611211565b005b600061052482611294565b9050919050565b600080600860008473ffffffffffffffffffffffffffffffffffffffff1673ffffffffffffffffffffffffffffffffffffffff1681526020019081526020016000205490506000811480610584575061058381610fb1565b5b15610593576000915050610599565b60019150505b919050565b6060600080546105ad90612b9f565b80601f01602080910402602001604051908101604052809291908181526020018280546105d990612b9f565b80156106265780601f106105fb57610100808354040283529160200191610626565b820191906000526020600020905b81548152906001019060200180831161060957829003601f168201915b5050505050905090565b600061063b82611376565b6004600083815260200190815260200160002060009054906101000a900473ffffffffffffffffffffffffffffffffffffffff169050919050565b600061068182610cc4565b90508073ffffffffffffffffffffffffffffffffffffffff168373ffffffffffffffffffffffffffffffffffffffff16036106f1576040517f08c379a00000000000000000000000000000000000000000000000000000000081526004016106e890612c42565b60405180910390fd5b8073ffffffffffffffffffffffffffffffffffffffff166107106113c1565b73ffffffffffffffffffffffffffffffffffffffff16148061073f575061073e816107396113c1565b61107d565b5b61077e576040517f08c379a000000000000000000000000000000000000000000000000000000000815260040161077590612cd4565b60405180910390fd5b61078883836113c9565b505050565b61079e6107986113c1565b82611482565b6107dd576040517f08c379a00000000000000000000000000000000000000000000000000000000081526004016107d490612d66565b60405180910390fd5b6107e8838383611517565b505050565b6107f5611810565b6107fd61188e565b610806816118d8565b610845576040517f08c379a000000000000000000000000000000000000000000000000000000000815260040161083c90612dd2565b60405180910390fd5b61084e81610fb1565b1561088e576040517f08c379a000000000000000000000000000000000000000000000000000000000815260040161088590612e3e565b60405180910390fd5b610e104261089c9190612e8d565b60096000838152602001908152602001600020819055507f754f3aa765fa1f221ea409fddea972deff6ce410d141d5cded4fc7ec690710c0816040516108e291906128f1565b60405180910390a150565b6108f5611810565b6108fd61188e565b600073ffffffffffffffffffffffffffffffffffffffff168273ffffffffffffffffffffffffffffffffffffffff160361096c576040517f08c379a000000000000000000000000000000000000000000000000000000000815260040161096390612f0d565b60405180910390fd5b4281116109ae576040517f08c379a00000000000000000000000000000000000000000000000000000000081526004016109a590612f9f565b60405180910390fd5b60006109b983610d4a565b146109f9576040517f08c379a00000000000000000000000000000000000000000000000000000000081526004016109f09061300b565b60405180910390fd5b610a036007611919565b6000610a0f600761192f565b9050816009600083815260200190815260200160002081905550610a33838261193d565b80600860008573ffffffffffffffffffffffffffffffffffffffff1673ffffffffffffffffffffffffffffffffffffffff168152602001908152602001600020819055508273ffffffffffffffffffffffffffffffffffffffff167f655ff37b06d138fc26fda07d435a40368e63b8d3cbd7835215334ff9e7fcd7828284604051610abf92919061302b565b60405180910390a2505050565b610ad4611810565b610adc61188e565b610ae5826118d8565b610b24576040517f08c379a0000000000000000000000000000000000000000000000000000000008152600401610b1b90612dd2565b60405180910390fd5b60008111610b67576040517f08c379a0000000000000000000000000000000000000000000000000000000008152600401610b5e906130c6565b60405180910390fd5b80600960008481526020019081526020016000206000828254610b8a91906130e6565b925050819055507f0db48b23ad6f04f212b5fddef4017753a195535f0d61c4daa790b4f70f28c07f826009600085815260200190815260200160002054604051610bd592919061302b565b60405180910390a15050565b610bfc83838360405180602001604052806000815250610ee7565b505050565b610c0961188e565b6000600860003373ffffffffffffffffffffffffffffffffffffffff1673ffffffffffffffffffffffffffffffffffffffff16815260200190815260200160002054905060008103610c90576040517f08c379a0000000000000000000000000000000000000000000000000000000008152600401610c8790613166565b60405180910390fd5b610c998161195b565b50565b6000610ca8600761192f565b905090565b6000600660149054906101000a900460ff16905090565b600080610cd083611aa9565b9050600073ffffffffffffffffffffffffffffffffffffffff168173ffffffffffffffffffffffffffffffffffffffff1603610d41576040517f08c379a0000000000000000000000000000000000000000000000000000000008152600401610d38906131d2565b60405180910390fd5b80915050919050565b60008073ffffffffffffffffffffffffffffffffffffffff168273ffffffffffffffffffffffffffffffffffffffff1603610dba576040517f08c379a0000000000000000000000000000000000000000000000000000000008152600401610db190613264565b60405180910390fd5b600360008373ffffffffffffffffffffffffffffffffffffffff1673ffffffffffffffffffffffffffffffffffffffff168152602001908152602001600020549050919050565b610e09611810565b610e136000611ae6565b565b6000600660009054906101000a900473ffffffffffffffffffffffffffffffffffffffff16905090565b606060018054610e4e90612b9f565b80601f0160208091040260200160405190810160405280929190818152602001828054610e7a90612b9f565b8015610ec75780601f10610e9c57610100808354040283529160200191610ec7565b820191906000526020600020905b815481529060010190602001808311610eaa57829003601f168201915b5050505050905090565b610ee3610edc6113c1565b8383611bac565b5050565b610ef8610ef26113c1565b83611482565b610f37576040517f08c379a0000000000000000000000000000000000000000000000000000000008152600401610f2e90612d66565b60405180910390fd5b610f4384848484611d18565b50505050565b6060610f5482611376565b6000610f5e611d74565b90506000815111610f7e5760405180602001604052806000815250610fa9565b80610f8884611d8b565b604051602001610f999291906132c0565b6040516020818303038152906040525b915050919050565b6000610fbc826118d8565b610ffb576040517f08c379a0000000000000000000000000000000000000000000000000000000008152600401610ff290612dd2565b60405180910390fd5b600960008381526020019081526020016000205442119050919050565b6000611023826118d8565b611062576040517f08c379a000000000000000000000000000000000000000000000000000000000815260040161105990612dd2565b60405180910390fd5b60096000838152602001908152602001600020549050919050565b6000600560008473ffffffffffffffffffffffffffffffffffffffff1673ffffffffffffffffffffffffffffffffffffffff16815260200190815260200160002060008373ffffffffffffffffffffffffffffffffffffffff1673ffffffffffffffffffffffffffffffffffffffff16815260200190815260200160002060009054906101000a900460ff16905092915050565b60008073ffffffffffffffffffffffffffffffffffffffff168273ffffffffffffffffffffffffffffffffffffffff1603611181576040517f08c379a000000000000000000000000000000000000000000000000000000000815260040161117890613330565b60405180910390fd5b6000600860008473ffffffffffffffffffffffffffffffffffffffff1673ffffffffffffffffffffffffffffffffffffffff16815260200190815260200160002054905060008103611208576040517f08c379a00000000000000000000000000000000000000000000000000000000081526004016111ff9061339c565b60405180910390fd5b80915050919050565b611219611810565b600073ffffffffffffffffffffffffffffffffffffffff168173ffffffffffffffffffffffffffffffffffffffff1603611288576040517f08c379a000000000000000000000000000000000000000000000000000000000815260040161127f9061342e565b60405180910390fd5b61129181611ae6565b50565b60007f80ac58cd000000000000000000000000000000000000000000000000000000007bffffffffffffffffffffffffffffffffffffffffffffffffffffffff1916827bffffffffffffffffffffffffffffffffffffffffffffffffffffffff1916148061135f57507f5b5e139f000000000000000000000000000000000000000000000000000000007bffffffffffffffffffffffffffffffffffffffffffffffffffffffff1916827bffffffffffffffffffffffffffffffffffffffffffffffffffffffff1916145b8061136f575061136e82611e59565b5b9050919050565b61137f816118d8565b6113be576040517f08c379a00000000000000000000000000000000000000000000000000000000081526004016113b5906131d2565b60405180910390fd5b50565b600033905090565b816004600083815260200190815260200160002060006101000a81548173ffffffffffffffffffffffffffffffffffffffff021916908373ffffffffffffffffffffffffffffffffffffffff160217905550808273ffffffffffffffffffffffffffffffffffffffff1661143c83610cc4565b73ffffffffffffffffffffffffffffffffffffffff167f8c5be1e5ebec7d5bd14f71427d1e84f3dd0314c0f7b2291e5b200ac8c7c3b92560405160405180910390a45050565b60008061148e83610cc4565b90508073ffffffffffffffffffffffffffffffffffffffff168473ffffffffffffffffffffffffffffffffffffffff1614806114d057506114cf818561107d565b5b8061150e57508373ffffffffffffffffffffffffffffffffffffffff166114f684610630565b73ffffffffffffffffffffffffffffffffffffffff16145b91505092915050565b8273ffffffffffffffffffffffffffffffffffffffff1661153782610cc4565b73ffffffffffffffffffffffffffffffffffffffff161461158d576040517f08c379a0000000000000000000000000000000000000000000000000000000008152600401611584906134c0565b60405180910390fd5b600073ffffffffffffffffffffffffffffffffffffffff168273ffffffffffffffffffffffffffffffffffffffff16036115fc576040517f08c379a00000000000000000000000000000000000000000000000000000000081526004016115f390613552565b60405180910390fd5b6116098383836001611ec3565b8273ffffffffffffffffffffffffffffffffffffffff1661162982610cc4565b73ffffffffffffffffffffffffffffffffffffffff161461167f576040517f08c379a0000000000000000000000000000000000000000000000000000000008152600401611676906134c0565b60405180910390fd5b6004600082815260200190815260200160002060006101000a81549073ffffffffffffffffffffffffffffffffffffffff02191690556001600360008573ffffffffffffffffffffffffffffffffffffffff1673ffffffffffffffffffffffffffffffffffffffff168152602001908152602001600020600082825403925050819055506001600360008473ffffffffffffffffffffffffffffffffffffffff1673ffffffffffffffffffffffffffffffffffffffff16815260200190815260200160002060008282540192505081905550816002600083815260200190815260200160002060006101000a81548173ffffffffffffffffffffffffffffffffffffffff021916908373ffffffffffffffffffffffffffffffffffffffff160217905550808273ffffffffffffffffffffffffffffffffffffffff168473ffffffffffffffffffffffffffffffffffffffff167fddf252ad1be2c89b69c2b068fc378daa952ba7f163c4a11628f55a4df523b3ef60405160405180910390a461180b8383836001611ff5565b505050565b6118186113c1565b73ffffffffffffffffffffffffffffffffffffffff16611836610e15565b73ffffffffffffffffffffffffffffffffffffffff161461188c576040517f08c379a0000000000000000000000000000000000000000000000000000000008152600401611883906135be565b60405180910390fd5b565b611896610cad565b156118d6576040517f08c379a00000000000000000000000000000000000000000000000000000000081526004016118cd9061362a565b60405180910390fd5b565b60008073ffffffffffffffffffffffffffffffffffffffff166118fa83611aa9565b73ffffffffffffffffffffffffffffffffffffffff1614159050919050565b6001816000016000828254019250508190555050565b600081600001549050919050565b611957828260405180602001604052806000815250611ffb565b5050565b600061196682610cc4565b9050611976816000846001611ec3565b61197f82610cc4565b90506004600083815260200190815260200160002060006101000a81549073ffffffffffffffffffffffffffffffffffffffff02191690556001600360008373ffffffffffffffffffffffffffffffffffffffff1673ffffffffffffffffffffffffffffffffffffffff168152602001908152602001600020600082825403925050819055506002600083815260200190815260200160002060006101000a81549073ffffffffffffffffffffffffffffffffffffffff021916905581600073ffffffffffffffffffffffffffffffffffffffff168273ffffffffffffffffffffffffffffffffffffffff167fddf252ad1be2c89b69c2b068fc378daa952ba7f163c4a11628f55a4df523b3ef60405160405180910390a4611aa5816000846001611ff5565b5050565b60006002600083815260200190815260200160002060009054906101000a900473ffffffffffffffffffffffffffffffffffffffff169050919050565b6000600660009054906101000a900473ffffffffffffffffffffffffffffffffffffffff16905081600660006101000a81548173ffffffffffffffffffffffffffffffffffffffff021916908373ffffffffffffffffffffffffffffffffffffffff1602179055508173ffffffffffffffffffffffffffffffffffffffff168173ffffffffffffffffffffffffffffffffffffffff167f8be0079c531659141344cd1fd0a4f28419497f9722a3daafe3b4186f6b6457e060405160405180910390a35050565b8173ffffffffffffffffffffffffffffffffffffffff168373ffffffffffffffffffffffffffffffffffffffff1603611c1a576040517f08c379a0000000000000000000000000000000000000000000000000000000008152600401611c1190613696565b60405180910390fd5b80600560008573ffffffffffffffffffffffffffffffffffffffff1673ffffffffffffffffffffffffffffffffffffffff16815260200190815260200160002060008473ffffffffffffffffffffffffffffffffffffffff1673ffffffffffffffffffffffffffffffffffffffff16815260200190815260200160002060006101000a81548160ff0219169083151502179055508173ffffffffffffffffffffffffffffffffffffffff168373ffffffffffffffffffffffffffffffffffffffff167f17307eab39ab6107e8899845ad3d59bd9653f200f220920489ca2b5937696c3183604051611d0b919061262a565b60405180910390a3505050565b611d23848484611517565b611d2f84848484612056565b611d6e576040517f08c379a0000000000000000000000000000000000000000000000000000000008152600401611d6590613728565b60405180910390fd5b50505050565b606060405180602001604052806000815250905090565b606060006001611d9a846121dd565b01905060008167ffffffffffffffff811115611db957611db8612982565b5b6040519080825280601f01601f191660200182016040528015611deb5781602001600182028036833780820191505090505b509050600082602001820190505b600115611e4e578080600190039150507f3031323334353637383961626364656600000000000000000000000000000000600a86061a8153600a8581611e4257611e41613748565b5b04945060008503611df9575b819350505050919050565b60007f01ffc9a7000000000000000000000000000000000000000000000000000000007bffffffffffffffffffffffffffffffffffffffffffffffffffffffff1916827bffffffffffffffffffffffffffffffffffffffffffffffffffffffff1916149050919050565b611ecf84848484612330565b600073ffffffffffffffffffffffffffffffffffffffff168473ffffffffffffffffffffffffffffffffffffffff161480611f365750600073ffffffffffffffffffffffffffffffffffffffff168373ffffffffffffffffffffffffffffffffffffffff16145b611f75576040517f08c379a0000000000000000000000000000000000000000000000000000000008152600401611f6c906137c3565b60405180910390fd5b600073ffffffffffffffffffffffffffffffffffffffff168473ffffffffffffffffffffffffffffffffffffffff1614611fef576000600860008673ffffffffffffffffffffffffffffffffffffffff1673ffffffffffffffffffffffffffffffffffffffff168152602001908152602001600020819055505b50505050565b50505050565b6120058383612336565b6120126000848484612056565b612051576040517f08c379a000000000000000000000000000000000000000000000000000000000815260040161204890613728565b60405180910390fd5b505050565b60006120778473ffffffffffffffffffffffffffffffffffffffff16612553565b156121d0578373ffffffffffffffffffffffffffffffffffffffff1663150b7a026120a06113c1565b8786866040518563ffffffff1660e01b81526004016120c29493929190613838565b6020604051808303816000875af19250505080156120fe57506040513d601f19601f820116820180604052508101906120fb9190613899565b60015b612180573d806000811461212e576040519150601f19603f3d011682016040523d82523d6000602084013e612133565b606091505b506000815103612178576040517f08c379a000000000000000000000000000000000000000000000000000000000815260040161216f90613728565b60405180910390fd5b805181602001fd5b63150b7a0260e01b7bffffffffffffffffffffffffffffffffffffffffffffffffffffffff1916817bffffffffffffffffffffffffffffffffffffffffffffffffffffffff1916149150506121d5565b600190505b949350505050565b600080600090507a184f03e93ff9f4daa797ed6e38ed64bf6a1f010000000000000000831061223b577a184f03e93ff9f4daa797ed6e38ed64bf6a1f010000000000000000838161223157612230613748565b5b0492506040810190505b6d04ee2d6d415b85acef81000000008310612278576d04ee2d6d415b85acef8100000000838161226e5761226d613748565b5b0492506020810190505b662386f26fc1000083106122a757662386f26fc10000838161229d5761229c613748565b5b0492506010810190505b6305f5e10083106122d0576305f5e10083816122c6576122c5613748565b5b0492506008810190505b61271083106122f55761271083816122eb576122ea613748565b5b0492506004810190505b60648310612318576064838161230e5761230d613748565b5b0492506002810190505b600a8310612327576001810190505b80915050919050565b50505050565b600073ffffffffffffffffffffffffffffffffffffffff168273ffffffffffffffffffffffffffffffffffffffff16036123a5576040517f08c379a000000000000000000000000000000000000000000000000000000000815260040161239c90613912565b60405180910390fd5b6123ae816118d8565b156123ee576040517f08c379a00000000000000000000000000000000000000000000000000000000081526004016123e59061397e565b60405180910390fd5b6123fc600083836001611ec3565b612405816118d8565b15612445576040517f08c379a000000000000000000000000000000000000000000000000000000000815260040161243c9061397e565b60405180910390fd5b6001600360008473ffffffffffffffffffffffffffffffffffffffff1673ffffffffffffffffffffffffffffffffffffffff16815260200190815260200160002060008282540192505081905550816002600083815260200190815260200160002060006101000a81548173ffffffffffffffffffffffffffffffffffffffff021916908373ffffffffffffffffffffffffffffffffffffffff160217905550808273ffffffffffffffffffffffffffffffffffffffff16600073ffffffffffffffffffffffffffffffffffffffff167fddf252ad1be2c89b69c2b068fc378daa952ba7f163c4a11628f55a4df523b3ef60405160405180910390a461254f600083836001611ff5565b5050565b6000808273ffffffffffffffffffffffffffffffffffffffff163b119050919050565b6000604051905090565b600080fd5b600080fd5b60007fffffffff0000000000000000000000000000000000000000000000000000000082169050919050565b6125bf8161258a565b81146125ca57600080fd5b50565b6000813590506125dc816125b6565b92915050565b6000602082840312156125f8576125f7612580565b5b6000612606848285016125cd565b91505092915050565b60008115159050919050565b6126248161260f565b82525050565b600060208201905061263f600083018461261b565b92915050565b600073ffffffffffffffffffffffffffffffffffffffff82169050919050565b600061267082612645565b9050919050565b61268081612665565b811461268b57600080fd5b50565b60008135905061269d81612677565b92915050565b6000602082840312156126b9576126b8612580565b5b60006126c78482850161268e565b91505092915050565b600081519050919050565b600082825260208201905092915050565b60005b8381101561270a5780820151818401526020810190506126ef565b60008484015250505050565b6000601f19601f8301169050919050565b6000612732826126d0565b61273c81856126db565b935061274c8185602086016126ec565b61275581612716565b840191505092915050565b6000602082019050818103600083015261277a8184612727565b905092915050565b6000819050919050565b61279581612782565b81146127a057600080fd5b50565b6000813590506127b28161278c565b92915050565b6000602082840312156127ce576127cd612580565b5b60006127dc848285016127a3565b91505092915050565b6127ee81612665565b82525050565b600060208201905061280960008301846127e5565b92915050565b6000806040838503121561282657612825612580565b5b60006128348582860161268e565b9250506020612845858286016127a3565b9150509250929050565b60008060006060848603121561286857612867612580565b5b60006128768682870161268e565b93505060206128878682870161268e565b9250506040612898868287016127a3565b9150509250925092565b600080604083850312156128b9576128b8612580565b5b60006128c7858286016127a3565b92505060206128d8858286016127a3565b9150509250929050565b6128eb81612782565b82525050565b600060208201905061290660008301846128e2565b92915050565b6129158161260f565b811461292057600080fd5b50565b6000813590506129328161290c565b92915050565b6000806040838503121561294f5761294e612580565b5b600061295d8582860161268e565b925050602061296e85828601612923565b9150509250929050565b600080fd5b600080fd5b7f4e487b7100000000000000000000000000000000000000000000000000000000600052604160045260246000fd5b6129ba82612716565b810181811067ffffffffffffffff821117156129d9576129d8612982565b5b80604052505050565b60006129ec612576565b90506129f882826129b1565b919050565b600067ffffffffffffffff821115612a1857612a17612982565b5b612a2182612716565b9050602081019050919050565b82818337600083830152505050565b6000612a50612a4b846129fd565b6129e2565b905082815260208101848484011115612a6c57612a6b61297d565b5b612a77848285612a2e565b509392505050565b600082601f830112612a9457612a93612978565b5b8135612aa4848260208601612a3d565b91505092915050565b60008060008060808587031215612ac757612ac6612580565b5b6000612ad58782880161268e565b9450506020612ae68782880161268e565b9350506040612af7878288016127a3565b925050606085013567ffffffffffffffff811115612b1857612b17612585565b5b612b2487828801612a7f565b91505092959194509250565b60008060408385031215612b4757612b46612580565b5b6000612b558582860161268e565b9250506020612b668582860161268e565b9150509250929050565b7f4e487b7100000000000000000000000000000000000000000000000000000000600052602260045260246000fd5b60006002820490506001821680612bb757607f821691505b602082108103612bca57612bc9612b70565b5b50919050565b7f4552433732313a20617070726f76616c20746f2063757272656e74206f776e6560008201527f7200000000000000000000000000000000000000000000000000000000000000602082015250565b6000612c2c6021836126db565b9150612c3782612bd0565b604082019050919050565b60006020820190508181036000830152612c5b81612c1f565b9050919050565b7f4552433732313a20617070726f76652063616c6c6572206973206e6f7420746f60008201527f6b656e206f776e6572206f7220617070726f76656420666f7220616c6c000000602082015250565b6000612cbe603d836126db565b9150612cc982612c62565b604082019050919050565b60006020820190508181036000830152612ced81612cb1565b9050919050565b7f4552433732313a2063616c6c6572206973206e6f7420746f6b656e206f776e6560008201527f72206f7220617070726f76656400000000000000000000000000000000000000602082015250565b6000612d50602d836126db565b9150612d5b82612cf4565b604082019050919050565b60006020820190508181036000830152612d7f81612d43565b9050919050565b7f546f6b656e20646f6573206e6f74206578697374000000000000000000000000600082015250565b6000612dbc6014836126db565b9150612dc782612d86565b602082019050919050565b60006020820190508181036000830152612deb81612daf565b9050919050565b7f546f6b656e20616c726561647920657870697265640000000000000000000000600082015250565b6000612e286015836126db565b9150612e3382612df2565b602082019050919050565b60006020820190508181036000830152612e5781612e1b565b9050919050565b7f4e487b7100000000000000000000000000000000000000000000000000000000600052601160045260246000fd5b6000612e9882612782565b9150612ea383612782565b9250828203905081811115612ebb57612eba612e5e565b5b92915050565b7f43616e6e6f74206d696e7420746f207a65726f20616464726573730000000000600082015250565b6000612ef7601b836126db565b9150612f0282612ec1565b602082019050919050565b60006020820190508181036000830152612f2681612eea565b9050919050565b7f45787069726174696f6e206d75737420626520696e207468652066757475726560008201527f2e00000000000000000000000000000000000000000000000000000000000000602082015250565b6000612f896021836126db565b9150612f9482612f2d565b604082019050919050565b60006020820190508181036000830152612fb881612f7c565b9050919050565b7f5573657220616c726561647920686173206120746f6b656e0000000000000000600082015250565b6000612ff56018836126db565b915061300082612fbf565b602082019050919050565b6000602082019050818103600083015261302481612fe8565b9050919050565b600060408201905061304060008301856128e2565b61304d60208301846128e2565b9392505050565b7f4164646974696f6e616c2074696d65206d75737420626520677265617465722060008201527f7468616e207a65726f0000000000000000000000000000000000000000000000602082015250565b60006130b06029836126db565b91506130bb82613054565b604082019050919050565b600060208201905081810360008301526130df816130a3565b9050919050565b60006130f182612782565b91506130fc83612782565b925082820190508082111561311457613113612e5e565b5b92915050565b7f596f7520646f206e6f74206f776e206120746f6b656e00000000000000000000600082015250565b60006131506016836126db565b915061315b8261311a565b602082019050919050565b6000602082019050818103600083015261317f81613143565b9050919050565b7f4552433732313a20696e76616c696420746f6b656e2049440000000000000000600082015250565b60006131bc6018836126db565b91506131c782613186565b602082019050919050565b600060208201905081810360008301526131eb816131af565b9050919050565b7f4552433732313a2061646472657373207a65726f206973206e6f74206120766160008201527f6c6964206f776e65720000000000000000000000000000000000000000000000602082015250565b600061324e6029836126db565b9150613259826131f2565b604082019050919050565b6000602082019050818103600083015261327d81613241565b9050919050565b600081905092915050565b600061329a826126d0565b6132a48185613284565b93506132b48185602086016126ec565b80840191505092915050565b60006132cc828561328f565b91506132d8828461328f565b91508190509392505050565b7f496e76616c696420616464726573730000000000000000000000000000000000600082015250565b600061331a600f836126db565b9150613325826132e4565b602082019050919050565b600060208201905081810360008301526133498161330d565b9050919050565b7f4f776e657220646f6573206e6f742068617665206120746f6b656e0000000000600082015250565b6000613386601b836126db565b915061339182613350565b602082019050919050565b600060208201905081810360008301526133b581613379565b9050919050565b7f4f776e61626c653a206e6577206f776e657220697320746865207a65726f206160008201527f6464726573730000000000000000000000000000000000000000000000000000602082015250565b60006134186026836126db565b9150613423826133bc565b604082019050919050565b600060208201905081810360008301526134478161340b565b9050919050565b7f4552433732313a207472616e736665722066726f6d20696e636f72726563742060008201527f6f776e6572000000000000000000000000000000000000000000000000000000602082015250565b60006134aa6025836126db565b91506134b58261344e565b604082019050919050565b600060208201905081810360008301526134d98161349d565b9050919050565b7f4552433732313a207472616e7366657220746f20746865207a65726f2061646460008201527f7265737300000000000000000000000000000000000000000000000000000000602082015250565b600061353c6024836126db565b9150613547826134e0565b604082019050919050565b6000602082019050818103600083015261356b8161352f565b9050919050565b7f4f776e61626c653a2063616c6c6572206973206e6f7420746865206f776e6572600082015250565b60006135a86020836126db565b91506135b382613572565b602082019050919050565b600060208201905081810360008301526135d78161359b565b9050919050565b7f5061757361626c653a2070617573656400000000000000000000000000000000600082015250565b60006136146010836126db565b915061361f826135de565b602082019050919050565b6000602082019050818103600083015261364381613607565b9050919050565b7f4552433732313a20617070726f766520746f2063616c6c657200000000000000600082015250565b60006136806019836126db565b915061368b8261364a565b602082019050919050565b600060208201905081810360008301526136af81613673565b9050919050565b7f4552433732313a207472616e7366657220746f206e6f6e20455243373231526560008201527f63656976657220696d706c656d656e7465720000000000000000000000000000602082015250565b60006137126032836126db565b915061371d826136b6565b604082019050919050565b6000602082019050818103600083015261374181613705565b9050919050565b7f4e487b7100000000000000000000000000000000000000000000000000000000600052601260045260246000fd5b7f5472616e7366657273206172652064697361626c656400000000000000000000600082015250565b60006137ad6016836126db565b91506137b882613777565b602082019050919050565b600060208201905081810360008301526137dc816137a0565b9050919050565b600081519050919050565b600082825260208201905092915050565b600061380a826137e3565b61381481856137ee565b93506138248185602086016126ec565b61382d81612716565b840191505092915050565b600060808201905061384d60008301876127e5565b61385a60208301866127e5565b61386760408301856128e2565b818103606083015261387981846137ff565b905095945050505050565b600081519050613893816125b6565b92915050565b6000602082840312156138af576138ae612580565b5b60006138bd84828501613884565b91505092915050565b7f4552433732313a206d696e7420746f20746865207a65726f2061646472657373600082015250565b60006138fc6020836126db565b9150613907826138c6565b602082019050919050565b6000602082019050818103600083015261392b816138ef565b9050919050565b7f4552433732313a20746f6b656e20616c7265616479206d696e74656400000000600082015250565b6000613968601c836126db565b915061397382613932565b602082019050919050565b600060208201905081810360008301526139978161395b565b905091905056fea264697066735822122089a45cb95ce54579d05b3f78dbaa37cf1c6423672f7be656a507bfc1c3ffbf3264736f6c634300081b0033",
  "linkReferences": {},
  "deployedLinkReferences": {}
}